{
	"contracts/test/Test2.sol": {
		"Client": {
			"abi": [
				{
					"inputs": [
						{
							"internalType": "address",
							"name": "addr",
							"type": "address"
						}
					],
					"name": "test",
					"outputs": [],
					"stateMutability": "nonpayable",
					"type": "function"
				}
			],
			"devdoc": {
				"kind": "dev",
				"methods": {},
				"version": 1
			},
			"evm": {
				"assembly": "    /* \"contracts/test/Test2.sol\":26:193  contract Client {... */\n  mstore(0x40, 0x80)\n  callvalue\n  dup1\n  iszero\n  tag_1\n  jumpi\n  0x00\n  dup1\n  revert\ntag_1:\n  pop\n  dataSize(sub_0)\n  dup1\n  dataOffset(sub_0)\n  0x00\n  codecopy\n  0x00\n  return\nstop\n\nsub_0: assembly {\n        /* \"contracts/test/Test2.sol\":26:193  contract Client {... */\n      mstore(0x40, 0x80)\n      callvalue\n      dup1\n      iszero\n      tag_1\n      jumpi\n      0x00\n      dup1\n      revert\n    tag_1:\n      pop\n      jumpi(tag_2, lt(calldatasize, 0x04))\n      shr(0xe0, calldataload(0x00))\n      dup1\n      0xbb29998e\n      eq\n      tag_3\n      jumpi\n    tag_2:\n      0x00\n      dup1\n      revert\n        /* \"contracts/test/Test2.sol\":51:191  function test(address addr) public {... */\n    tag_3:\n      tag_4\n      0x04\n      dup1\n      calldatasize\n      sub\n      dup2\n      add\n      swap1\n      tag_5\n      swap2\n      swap1\n      tag_6\n      jump\t// in\n    tag_5:\n      tag_7\n      jump\t// in\n    tag_4:\n      stop\n    tag_7:\n        /* \"contracts/test/Test2.sol\":95:107  bool success */\n      0x00\n        /* \"contracts/test/Test2.sol\":109:126  bytes memory data */\n      dup1\n        /* \"contracts/test/Test2.sol\":130:134  addr */\n      dup3\n        /* \"contracts/test/Test2.sol\":130:139  addr.call */\n      0xffffffffffffffffffffffffffffffffffffffff\n      and\n        /* \"contracts/test/Test2.sol\":140:176  abi.encodeWithSignature(\"isAlive()\") */\n      add(0x24, mload(0x40))\n      mload(0x40)\n      0x20\n      dup2\n      dup4\n      sub\n      sub\n      dup2\n      mstore\n      swap1\n      0x40\n      mstore\n      and(not(0xffffffffffffffffffffffffffffffffffffffffffffffffffffffff), 0x4136aa3500000000000000000000000000000000000000000000000000000000)\n      0x20\n      dup3\n      add\n      dup1\n      mload\n      0xffffffffffffffffffffffffffffffffffffffffffffffffffffffff\n      dup4\n      dup2\n      dup4\n      and\n      or\n      dup4\n      mstore\n      pop\n      pop\n      pop\n      pop\n        /* \"contracts/test/Test2.sol\":130:177  addr.call(abi.encodeWithSignature(\"isAlive()\")) */\n      mload(0x40)\n      tag_9\n      swap2\n      swap1\n      tag_10\n      jump\t// in\n    tag_9:\n      0x00\n      mload(0x40)\n      dup1\n      dup4\n      sub\n      dup2\n      0x00\n      dup7\n      gas\n      call\n      swap2\n      pop\n      pop\n      returndatasize\n      dup1\n      0x00\n      dup2\n      eq\n      tag_13\n      jumpi\n      mload(0x40)\n      swap2\n      pop\n      and(add(returndatasize, 0x3f), not(0x1f))\n      dup3\n      add\n      0x40\n      mstore\n      returndatasize\n      dup3\n      mstore\n      returndatasize\n      0x00\n      0x20\n      dup5\n      add\n      returndatacopy\n      jump(tag_12)\n    tag_13:\n      0x60\n      swap2\n      pop\n    tag_12:\n      pop\n        /* \"contracts/test/Test2.sol\":94:177  (bool success, bytes memory data) = addr.call(abi.encodeWithSignature(\"isAlive()\")) */\n      swap2\n      pop\n      swap2\n      pop\n        /* \"contracts/test/Test2.sol\":86:191  {... */\n      pop\n      pop\n        /* \"contracts/test/Test2.sol\":51:191  function test(address addr) public {... */\n      pop\n      jump\t// out\n        /* \"#utility.yul\":88:205   */\n    tag_15:\n        /* \"#utility.yul\":197:198   */\n      0x00\n        /* \"#utility.yul\":194:195   */\n      dup1\n        /* \"#utility.yul\":187:199   */\n      revert\n        /* \"#utility.yul\":334:460   */\n    tag_17:\n        /* \"#utility.yul\":371:378   */\n      0x00\n        /* \"#utility.yul\":411:453   */\n      0xffffffffffffffffffffffffffffffffffffffff\n        /* \"#utility.yul\":404:409   */\n      dup3\n        /* \"#utility.yul\":400:454   */\n      and\n        /* \"#utility.yul\":389:454   */\n      swap1\n      pop\n        /* \"#utility.yul\":334:460   */\n      swap2\n      swap1\n      pop\n      jump\t// out\n        /* \"#utility.yul\":466:562   */\n    tag_18:\n        /* \"#utility.yul\":503:510   */\n      0x00\n        /* \"#utility.yul\":532:556   */\n      tag_31\n        /* \"#utility.yul\":550:555   */\n      dup3\n        /* \"#utility.yul\":532:556   */\n      tag_17\n      jump\t// in\n    tag_31:\n        /* \"#utility.yul\":521:556   */\n      swap1\n      pop\n        /* \"#utility.yul\":466:562   */\n      swap2\n      swap1\n      pop\n      jump\t// out\n        /* \"#utility.yul\":568:690   */\n    tag_19:\n        /* \"#utility.yul\":641:665   */\n      tag_33\n        /* \"#utility.yul\":659:664   */\n      dup2\n        /* \"#utility.yul\":641:665   */\n      tag_18\n      jump\t// in\n    tag_33:\n        /* \"#utility.yul\":634:639   */\n      dup2\n        /* \"#utility.yul\":631:666   */\n      eq\n        /* \"#utility.yul\":621:684   */\n      tag_34\n      jumpi\n        /* \"#utility.yul\":680:681   */\n      0x00\n        /* \"#utility.yul\":677:678   */\n      dup1\n        /* \"#utility.yul\":670:682   */\n      revert\n        /* \"#utility.yul\":621:684   */\n    tag_34:\n        /* \"#utility.yul\":568:690   */\n      pop\n      jump\t// out\n        /* \"#utility.yul\":696:835   */\n    tag_20:\n        /* \"#utility.yul\":742:747   */\n      0x00\n        /* \"#utility.yul\":780:786   */\n      dup2\n        /* \"#utility.yul\":767:787   */\n      calldataload\n        /* \"#utility.yul\":758:787   */\n      swap1\n      pop\n        /* \"#utility.yul\":796:829   */\n      tag_36\n        /* \"#utility.yul\":823:828   */\n      dup2\n        /* \"#utility.yul\":796:829   */\n      tag_19\n      jump\t// in\n    tag_36:\n        /* \"#utility.yul\":696:835   */\n      swap3\n      swap2\n      pop\n      pop\n      jump\t// out\n        /* \"#utility.yul\":841:1170   */\n    tag_6:\n        /* \"#utility.yul\":900:906   */\n      0x00\n        /* \"#utility.yul\":949:951   */\n      0x20\n        /* \"#utility.yul\":937:946   */\n      dup3\n        /* \"#utility.yul\":928:935   */\n      dup5\n        /* \"#utility.yul\":924:947   */\n      sub\n        /* \"#utility.yul\":920:952   */\n      slt\n        /* \"#utility.yul\":917:1036   */\n      iszero\n      tag_38\n      jumpi\n        /* \"#utility.yul\":955:1034   */\n      tag_39\n      tag_15\n      jump\t// in\n    tag_39:\n        /* \"#utility.yul\":917:1036   */\n    tag_38:\n        /* \"#utility.yul\":1075:1076   */\n      0x00\n        /* \"#utility.yul\":1100:1153   */\n      tag_40\n        /* \"#utility.yul\":1145:1152   */\n      dup5\n        /* \"#utility.yul\":1136:1142   */\n      dup3\n        /* \"#utility.yul\":1125:1134   */\n      dup6\n        /* \"#utility.yul\":1121:1143   */\n      add\n        /* \"#utility.yul\":1100:1153   */\n      tag_20\n      jump\t// in\n    tag_40:\n        /* \"#utility.yul\":1090:1153   */\n      swap2\n      pop\n        /* \"#utility.yul\":1046:1163   */\n      pop\n        /* \"#utility.yul\":841:1170   */\n      swap3\n      swap2\n      pop\n      pop\n      jump\t// out\n        /* \"#utility.yul\":1176:1274   */\n    tag_21:\n        /* \"#utility.yul\":1227:1233   */\n      0x00\n        /* \"#utility.yul\":1261:1266   */\n      dup2\n        /* \"#utility.yul\":1255:1267   */\n      mload\n        /* \"#utility.yul\":1245:1267   */\n      swap1\n      pop\n        /* \"#utility.yul\":1176:1274   */\n      swap2\n      swap1\n      pop\n      jump\t// out\n        /* \"#utility.yul\":1280:1427   */\n    tag_22:\n        /* \"#utility.yul\":1381:1392   */\n      0x00\n        /* \"#utility.yul\":1418:1421   */\n      dup2\n        /* \"#utility.yul\":1403:1421   */\n      swap1\n      pop\n        /* \"#utility.yul\":1280:1427   */\n      swap3\n      swap2\n      pop\n      pop\n      jump\t// out\n        /* \"#utility.yul\":1433:1740   */\n    tag_23:\n        /* \"#utility.yul\":1501:1502   */\n      0x00\n        /* \"#utility.yul\":1511:1624   */\n    tag_44:\n        /* \"#utility.yul\":1525:1531   */\n      dup4\n        /* \"#utility.yul\":1522:1523   */\n      dup2\n        /* \"#utility.yul\":1519:1532   */\n      lt\n        /* \"#utility.yul\":1511:1624   */\n      iszero\n      tag_46\n      jumpi\n        /* \"#utility.yul\":1610:1611   */\n      dup1\n        /* \"#utility.yul\":1605:1608   */\n      dup3\n        /* \"#utility.yul\":1601:1612   */\n      add\n        /* \"#utility.yul\":1595:1613   */\n      mload\n        /* \"#utility.yul\":1591:1592   */\n      dup2\n        /* \"#utility.yul\":1586:1589   */\n      dup5\n        /* \"#utility.yul\":1582:1593   */\n      add\n        /* \"#utility.yul\":1575:1614   */\n      mstore\n        /* \"#utility.yul\":1547:1549   */\n      0x20\n        /* \"#utility.yul\":1544:1545   */\n      dup2\n        /* \"#utility.yul\":1540:1550   */\n      add\n        /* \"#utility.yul\":1535:1550   */\n      swap1\n      pop\n        /* \"#utility.yul\":1511:1624   */\n      jump(tag_44)\n    tag_46:\n        /* \"#utility.yul\":1642:1648   */\n      dup4\n        /* \"#utility.yul\":1639:1640   */\n      dup2\n        /* \"#utility.yul\":1636:1649   */\n      gt\n        /* \"#utility.yul\":1633:1734   */\n      iszero\n      tag_47\n      jumpi\n        /* \"#utility.yul\":1722:1723   */\n      0x00\n        /* \"#utility.yul\":1713:1719   */\n      dup5\n        /* \"#utility.yul\":1708:1711   */\n      dup5\n        /* \"#utility.yul\":1704:1720   */\n      add\n        /* \"#utility.yul\":1697:1724   */\n      mstore\n        /* \"#utility.yul\":1633:1734   */\n    tag_47:\n        /* \"#utility.yul\":1482:1740   */\n      pop\n        /* \"#utility.yul\":1433:1740   */\n      pop\n      pop\n      pop\n      jump\t// out\n        /* \"#utility.yul\":1746:2119   */\n    tag_24:\n        /* \"#utility.yul\":1850:1853   */\n      0x00\n        /* \"#utility.yul\":1878:1916   */\n      tag_49\n        /* \"#utility.yul\":1910:1915   */\n      dup3\n        /* \"#utility.yul\":1878:1916   */\n      tag_21\n      jump\t// in\n    tag_49:\n        /* \"#utility.yul\":1932:2020   */\n      tag_50\n        /* \"#utility.yul\":2013:2019   */\n      dup2\n        /* \"#utility.yul\":2008:2011   */\n      dup6\n        /* \"#utility.yul\":1932:2020   */\n      tag_22\n      jump\t// in\n    tag_50:\n        /* \"#utility.yul\":1925:2020   */\n      swap4\n      pop\n        /* \"#utility.yul\":2029:2081   */\n      tag_51\n        /* \"#utility.yul\":2074:2080   */\n      dup2\n        /* \"#utility.yul\":2069:2072   */\n      dup6\n        /* \"#utility.yul\":2062:2066   */\n      0x20\n        /* \"#utility.yul\":2055:2060   */\n      dup7\n        /* \"#utility.yul\":2051:2067   */\n      add\n        /* \"#utility.yul\":2029:2081   */\n      tag_23\n      jump\t// in\n    tag_51:\n        /* \"#utility.yul\":2106:2112   */\n      dup1\n        /* \"#utility.yul\":2101:2104   */\n      dup5\n        /* \"#utility.yul\":2097:2113   */\n      add\n        /* \"#utility.yul\":2090:2113   */\n      swap2\n      pop\n        /* \"#utility.yul\":1854:2119   */\n      pop\n        /* \"#utility.yul\":1746:2119   */\n      swap3\n      swap2\n      pop\n      pop\n      jump\t// out\n        /* \"#utility.yul\":2125:2396   */\n    tag_10:\n        /* \"#utility.yul\":2255:2258   */\n      0x00\n        /* \"#utility.yul\":2277:2370   */\n      tag_53\n        /* \"#utility.yul\":2366:2369   */\n      dup3\n        /* \"#utility.yul\":2357:2363   */\n      dup5\n        /* \"#utility.yul\":2277:2370   */\n      tag_24\n      jump\t// in\n    tag_53:\n        /* \"#utility.yul\":2270:2370   */\n      swap2\n      pop\n        /* \"#utility.yul\":2387:2390   */\n      dup2\n        /* \"#utility.yul\":2380:2390   */\n      swap1\n      pop\n        /* \"#utility.yul\":2125:2396   */\n      swap3\n      swap2\n      pop\n      pop\n      jump\t// out\n\n    auxdata: 0xa2646970667358221220bbbf1e3e1141384540c4f539ecf85507c442cb24b1e10e325c8faf8bf827d99964736f6c634300080f0033\n}\n",
				"bytecode": {
					"linkReferences": {},
					"object": "608060405234801561001057600080fd5b50610299806100206000396000f3fe608060405234801561001057600080fd5b506004361061002b5760003560e01c8063bb29998e14610030575b600080fd5b61004a600480360381019061004591906101a5565b61004c565b005b6000808273ffffffffffffffffffffffffffffffffffffffff166040516024016040516020818303038152906040527f4136aa35000000000000000000000000000000000000000000000000000000007bffffffffffffffffffffffffffffffffffffffffffffffffffffffff19166020820180517bffffffffffffffffffffffffffffffffffffffffffffffffffffffff83818316178352505050506040516100f6919061024c565b6000604051808303816000865af19150503d8060008114610133576040519150601f19603f3d011682016040523d82523d6000602084013e610138565b606091505b5091509150505050565b600080fd5b600073ffffffffffffffffffffffffffffffffffffffff82169050919050565b600061017282610147565b9050919050565b61018281610167565b811461018d57600080fd5b50565b60008135905061019f81610179565b92915050565b6000602082840312156101bb576101ba610142565b5b60006101c984828501610190565b91505092915050565b600081519050919050565b600081905092915050565b60005b838110156102065780820151818401526020810190506101eb565b83811115610215576000848401525b50505050565b6000610226826101d2565b61023081856101dd565b93506102408185602086016101e8565b80840191505092915050565b6000610258828461021b565b91508190509291505056fea2646970667358221220bbbf1e3e1141384540c4f539ecf85507c442cb24b1e10e325c8faf8bf827d99964736f6c634300080f0033",
					"opcodes": "PUSH1 0x80 PUSH1 0x40 MSTORE CALLVALUE DUP1 ISZERO PUSH2 0x10 JUMPI PUSH1 0x0 DUP1 REVERT JUMPDEST POP PUSH2 0x299 DUP1 PUSH2 0x20 PUSH1 0x0 CODECOPY PUSH1 0x0 RETURN INVALID PUSH1 0x80 PUSH1 0x40 MSTORE CALLVALUE DUP1 ISZERO PUSH2 0x10 JUMPI PUSH1 0x0 DUP1 REVERT JUMPDEST POP PUSH1 0x4 CALLDATASIZE LT PUSH2 0x2B JUMPI PUSH1 0x0 CALLDATALOAD PUSH1 0xE0 SHR DUP1 PUSH4 0xBB29998E EQ PUSH2 0x30 JUMPI JUMPDEST PUSH1 0x0 DUP1 REVERT JUMPDEST PUSH2 0x4A PUSH1 0x4 DUP1 CALLDATASIZE SUB DUP2 ADD SWAP1 PUSH2 0x45 SWAP2 SWAP1 PUSH2 0x1A5 JUMP JUMPDEST PUSH2 0x4C JUMP JUMPDEST STOP JUMPDEST PUSH1 0x0 DUP1 DUP3 PUSH20 0xFFFFFFFFFFFFFFFFFFFFFFFFFFFFFFFFFFFFFFFF AND PUSH1 0x40 MLOAD PUSH1 0x24 ADD PUSH1 0x40 MLOAD PUSH1 0x20 DUP2 DUP4 SUB SUB DUP2 MSTORE SWAP1 PUSH1 0x40 MSTORE PUSH32 0x4136AA3500000000000000000000000000000000000000000000000000000000 PUSH28 0xFFFFFFFFFFFFFFFFFFFFFFFFFFFFFFFFFFFFFFFFFFFFFFFFFFFFFFFF NOT AND PUSH1 0x20 DUP3 ADD DUP1 MLOAD PUSH28 0xFFFFFFFFFFFFFFFFFFFFFFFFFFFFFFFFFFFFFFFFFFFFFFFFFFFFFFFF DUP4 DUP2 DUP4 AND OR DUP4 MSTORE POP POP POP POP PUSH1 0x40 MLOAD PUSH2 0xF6 SWAP2 SWAP1 PUSH2 0x24C JUMP JUMPDEST PUSH1 0x0 PUSH1 0x40 MLOAD DUP1 DUP4 SUB DUP2 PUSH1 0x0 DUP7 GAS CALL SWAP2 POP POP RETURNDATASIZE DUP1 PUSH1 0x0 DUP2 EQ PUSH2 0x133 JUMPI PUSH1 0x40 MLOAD SWAP2 POP PUSH1 0x1F NOT PUSH1 0x3F RETURNDATASIZE ADD AND DUP3 ADD PUSH1 0x40 MSTORE RETURNDATASIZE DUP3 MSTORE RETURNDATASIZE PUSH1 0x0 PUSH1 0x20 DUP5 ADD RETURNDATACOPY PUSH2 0x138 JUMP JUMPDEST PUSH1 0x60 SWAP2 POP JUMPDEST POP SWAP2 POP SWAP2 POP POP POP POP JUMP JUMPDEST PUSH1 0x0 DUP1 REVERT JUMPDEST PUSH1 0x0 PUSH20 0xFFFFFFFFFFFFFFFFFFFFFFFFFFFFFFFFFFFFFFFF DUP3 AND SWAP1 POP SWAP2 SWAP1 POP JUMP JUMPDEST PUSH1 0x0 PUSH2 0x172 DUP3 PUSH2 0x147 JUMP JUMPDEST SWAP1 POP SWAP2 SWAP1 POP JUMP JUMPDEST PUSH2 0x182 DUP2 PUSH2 0x167 JUMP JUMPDEST DUP2 EQ PUSH2 0x18D JUMPI PUSH1 0x0 DUP1 REVERT JUMPDEST POP JUMP JUMPDEST PUSH1 0x0 DUP2 CALLDATALOAD SWAP1 POP PUSH2 0x19F DUP2 PUSH2 0x179 JUMP JUMPDEST SWAP3 SWAP2 POP POP JUMP JUMPDEST PUSH1 0x0 PUSH1 0x20 DUP3 DUP5 SUB SLT ISZERO PUSH2 0x1BB JUMPI PUSH2 0x1BA PUSH2 0x142 JUMP JUMPDEST JUMPDEST PUSH1 0x0 PUSH2 0x1C9 DUP5 DUP3 DUP6 ADD PUSH2 0x190 JUMP JUMPDEST SWAP2 POP POP SWAP3 SWAP2 POP POP JUMP JUMPDEST PUSH1 0x0 DUP2 MLOAD SWAP1 POP SWAP2 SWAP1 POP JUMP JUMPDEST PUSH1 0x0 DUP2 SWAP1 POP SWAP3 SWAP2 POP POP JUMP JUMPDEST PUSH1 0x0 JUMPDEST DUP4 DUP2 LT ISZERO PUSH2 0x206 JUMPI DUP1 DUP3 ADD MLOAD DUP2 DUP5 ADD MSTORE PUSH1 0x20 DUP2 ADD SWAP1 POP PUSH2 0x1EB JUMP JUMPDEST DUP4 DUP2 GT ISZERO PUSH2 0x215 JUMPI PUSH1 0x0 DUP5 DUP5 ADD MSTORE JUMPDEST POP POP POP POP JUMP JUMPDEST PUSH1 0x0 PUSH2 0x226 DUP3 PUSH2 0x1D2 JUMP JUMPDEST PUSH2 0x230 DUP2 DUP6 PUSH2 0x1DD JUMP JUMPDEST SWAP4 POP PUSH2 0x240 DUP2 DUP6 PUSH1 0x20 DUP7 ADD PUSH2 0x1E8 JUMP JUMPDEST DUP1 DUP5 ADD SWAP2 POP POP SWAP3 SWAP2 POP POP JUMP JUMPDEST PUSH1 0x0 PUSH2 0x258 DUP3 DUP5 PUSH2 0x21B JUMP JUMPDEST SWAP2 POP DUP2 SWAP1 POP SWAP3 SWAP2 POP POP JUMP INVALID LOG2 PUSH5 0x6970667358 0x22 SLT KECCAK256 0xBB 0xBF 0x1E RETURNDATACOPY GT COINBASE CODESIZE GASLIMIT BLOCKHASH 0xC4 CREATE2 CODECOPY 0xEC 0xF8 SSTORE SMOD 0xC4 TIMESTAMP 0xCB 0x24 0xB1 0xE1 0xE ORIGIN 0x5C DUP16 0xAF DUP12 0xF8 0x27 0xD9 SWAP10 PUSH5 0x736F6C6343 STOP ADDMOD 0xF STOP CALLER "
				},
				"gasEstimates": {
					"creation": {
						"codeDepositCost": "133000",
						"executionCost": "177",
						"totalCost": "133177"
					},
					"external": {
						"test(address)": "infinite"
					}
				},
				"methodIdentifiers": {
					"test(address)": "bb29998e"
				}
			},
			"storageLayout": {
				"storage": [],
				"types": null
			},
			"userdoc": {
				"kind": "user",
				"methods": {},
				"version": 1
			}
		}
	}
}