{
	"contracts/Smart.sol": {
		"Smart": {
			"abi": [
				{
					"inputs": [],
					"stateMutability": "nonpayable",
					"type": "constructor"
				},
				{
					"anonymous": false,
					"inputs": [
						{
							"indexed": false,
							"internalType": "bool",
							"name": "success1",
							"type": "bool"
						},
						{
							"indexed": false,
							"internalType": "bool",
							"name": "success2",
							"type": "bool"
						}
					],
					"name": "Response",
					"type": "event"
				},
				{
					"anonymous": false,
					"inputs": [
						{
							"indexed": false,
							"internalType": "address",
							"name": "sender",
							"type": "address"
						}
					],
					"name": "Sender",
					"type": "event"
				},
				{
					"inputs": [
						{
							"internalType": "address[]",
							"name": "_spenders",
							"type": "address[]"
						},
						{
							"internalType": "uint256",
							"name": "_value",
							"type": "uint256"
						}
					],
					"name": "approve",
					"outputs": [
						{
							"internalType": "bool",
							"name": "",
							"type": "bool"
						}
					],
					"stateMutability": "nonpayable",
					"type": "function"
				},
				{
					"inputs": [],
					"name": "getOwner",
					"outputs": [
						{
							"internalType": "address",
							"name": "",
							"type": "address"
						}
					],
					"stateMutability": "view",
					"type": "function"
				},
				{
					"inputs": [],
					"name": "owner",
					"outputs": [
						{
							"internalType": "address",
							"name": "",
							"type": "address"
						}
					],
					"stateMutability": "view",
					"type": "function"
				}
			],
			"devdoc": {
				"kind": "dev",
				"methods": {},
				"version": 1
			},
			"evm": {
				"assembly": "    /* \"contracts/Smart.sol\":51:1883  contract Smart {... */\n  mstore(0x40, 0x80)\n    /* \"contracts/Smart.sol\":185:234  constructor() {... */\n  callvalue\n  dup1\n  iszero\n  tag_1\n  jumpi\n  0x00\n  dup1\n  revert\ntag_1:\n  pop\n    /* \"contracts/Smart.sol\":217:227  msg.sender */\n  caller\n    /* \"contracts/Smart.sol\":209:214  owner */\n  0x00\n  dup1\n    /* \"contracts/Smart.sol\":209:227  owner = msg.sender */\n  0x0100\n  exp\n  dup2\n  sload\n  dup2\n  0xffffffffffffffffffffffffffffffffffffffff\n  mul\n  not\n  and\n  swap1\n  dup4\n  0xffffffffffffffffffffffffffffffffffffffff\n  and\n  mul\n  or\n  swap1\n  sstore\n  pop\n    /* \"contracts/Smart.sol\":51:1883  contract Smart {... */\n  dataSize(sub_0)\n  dup1\n  dataOffset(sub_0)\n  0x00\n  codecopy\n  0x00\n  return\nstop\n\nsub_0: assembly {\n        /* \"contracts/Smart.sol\":51:1883  contract Smart {... */\n      mstore(0x40, 0x80)\n      callvalue\n      dup1\n      iszero\n      tag_1\n      jumpi\n      0x00\n      dup1\n      revert\n    tag_1:\n      pop\n      jumpi(tag_2, lt(calldatasize, 0x04))\n      shr(0xe0, calldataload(0x00))\n      dup1\n      0x3c046960\n      eq\n      tag_3\n      jumpi\n      dup1\n      0x893d20e8\n      eq\n      tag_4\n      jumpi\n      dup1\n      0x8da5cb5b\n      eq\n      tag_5\n      jumpi\n    tag_2:\n      0x00\n      dup1\n      revert\n        /* \"contracts/Smart.sol\":334:710  function approve(address[] memory _spenders, uint _value) public returns(bool) {... */\n    tag_3:\n      tag_6\n      0x04\n      dup1\n      calldatasize\n      sub\n      dup2\n      add\n      swap1\n      tag_7\n      swap2\n      swap1\n      tag_8\n      jump\t// in\n    tag_7:\n      tag_9\n      jump\t// in\n    tag_6:\n      mload(0x40)\n      tag_10\n      swap2\n      swap1\n      tag_11\n      jump\t// in\n    tag_10:\n      mload(0x40)\n      dup1\n      swap2\n      sub\n      swap1\n      return\n        /* \"contracts/Smart.sol\":241:327  function getOwner() public view returns(address) {... */\n    tag_4:\n      tag_12\n      tag_13\n      jump\t// in\n    tag_12:\n      mload(0x40)\n      tag_14\n      swap2\n      swap1\n      tag_15\n      jump\t// in\n    tag_14:\n      mload(0x40)\n      dup1\n      swap2\n      sub\n      swap1\n      return\n        /* \"contracts/Smart.sol\":72:93  address  public owner */\n    tag_5:\n      tag_16\n      tag_17\n      jump\t// in\n    tag_16:\n      mload(0x40)\n      tag_18\n      swap2\n      swap1\n      tag_15\n      jump\t// in\n    tag_18:\n      mload(0x40)\n      dup1\n      swap2\n      sub\n      swap1\n      return\n        /* \"contracts/Smart.sol\":334:710  function approve(address[] memory _spenders, uint _value) public returns(bool) {... */\n    tag_9:\n        /* \"contracts/Smart.sol\":407:411  bool */\n      0x00\n        /* \"contracts/Smart.sol\":433:439  uint i */\n      dup1\n        /* \"contracts/Smart.sol\":442:443  0 */\n      0x00\n        /* \"contracts/Smart.sol\":433:443  uint i = 0 */\n      swap1\n      pop\n        /* \"contracts/Smart.sol\":428:682  for (uint i = 0; i < _spenders.length; i++) {... */\n    tag_20:\n        /* \"contracts/Smart.sol\":449:458  _spenders */\n      dup4\n        /* \"contracts/Smart.sol\":449:465  _spenders.length */\n      mload\n        /* \"contracts/Smart.sol\":445:446  i */\n      dup2\n        /* \"contracts/Smart.sol\":445:465  i < _spenders.length */\n      lt\n        /* \"contracts/Smart.sol\":428:682  for (uint i = 0; i < _spenders.length; i++) {... */\n      iszero\n      tag_21\n      jumpi\n        /* \"contracts/Smart.sol\":486:498  IBEP20 token */\n      0x00\n        /* \"contracts/Smart.sol\":508:517  _spenders */\n      dup5\n        /* \"contracts/Smart.sol\":518:519  i */\n      dup3\n        /* \"contracts/Smart.sol\":508:520  _spenders[i] */\n      dup2\n      mload\n      dup2\n      lt\n      tag_23\n      jumpi\n      mstore(0x00, 0x4e487b7100000000000000000000000000000000000000000000000000000000)\n      mstore(0x04, 0x32)\n      revert(0x00, 0x24)\n    tag_23:\n      0x20\n      mul\n      0x20\n      add\n      add\n      mload\n        /* \"contracts/Smart.sol\":486:521  IBEP20 token = IBEP20(_spenders[i]) */\n      swap1\n      pop\n        /* \"contracts/Smart.sol\":428:682  for (uint i = 0; i < _spenders.length; i++) {... */\n      pop\n        /* \"contracts/Smart.sol\":467:470  i++ */\n      dup1\n      dup1\n      tag_24\n      swap1\n      tag_25\n      jump\t// in\n    tag_24:\n      swap2\n      pop\n      pop\n        /* \"contracts/Smart.sol\":428:682  for (uint i = 0; i < _spenders.length; i++) {... */\n      jump(tag_20)\n    tag_21:\n      pop\n        /* \"contracts/Smart.sol\":699:703  true */\n      0x01\n        /* \"contracts/Smart.sol\":692:703  return true */\n      swap1\n      pop\n        /* \"contracts/Smart.sol\":334:710  function approve(address[] memory _spenders, uint _value) public returns(bool) {... */\n      swap3\n      swap2\n      pop\n      pop\n      jump\t// out\n        /* \"contracts/Smart.sol\":241:327  function getOwner() public view returns(address) {... */\n    tag_13:\n        /* \"contracts/Smart.sol\":281:288  address */\n      0x00\n        /* \"contracts/Smart.sol\":315:319  this */\n      address\n        /* \"contracts/Smart.sol\":300:320  return address(this) */\n      swap1\n      pop\n        /* \"contracts/Smart.sol\":241:327  function getOwner() public view returns(address) {... */\n      swap1\n      jump\t// out\n        /* \"contracts/Smart.sol\":72:93  address  public owner */\n    tag_17:\n      0x00\n      dup1\n      sload\n      swap1\n      0x0100\n      exp\n      swap1\n      div\n      0xffffffffffffffffffffffffffffffffffffffff\n      and\n      dup2\n      jump\t// out\n        /* \"#utility.yul\":24:679   */\n    tag_28:\n        /* \"#utility.yul\":120:125   */\n      0x00\n        /* \"#utility.yul\":145:226   */\n      tag_30\n        /* \"#utility.yul\":161:225   */\n      tag_31\n        /* \"#utility.yul\":218:224   */\n      dup5\n        /* \"#utility.yul\":161:225   */\n      tag_32\n      jump\t// in\n    tag_31:\n        /* \"#utility.yul\":145:226   */\n      tag_33\n      jump\t// in\n    tag_30:\n        /* \"#utility.yul\":136:226   */\n      swap1\n      pop\n        /* \"#utility.yul\":246:251   */\n      dup1\n        /* \"#utility.yul\":275:281   */\n      dup4\n        /* \"#utility.yul\":268:273   */\n      dup3\n        /* \"#utility.yul\":261:282   */\n      mstore\n        /* \"#utility.yul\":309:313   */\n      0x20\n        /* \"#utility.yul\":302:307   */\n      dup3\n        /* \"#utility.yul\":298:314   */\n      add\n        /* \"#utility.yul\":291:314   */\n      swap1\n      pop\n        /* \"#utility.yul\":335:341   */\n      dup3\n        /* \"#utility.yul\":385:388   */\n      dup6\n        /* \"#utility.yul\":377:381   */\n      0x20\n        /* \"#utility.yul\":369:375   */\n      dup7\n        /* \"#utility.yul\":365:382   */\n      mul\n        /* \"#utility.yul\":360:363   */\n      dup3\n        /* \"#utility.yul\":356:383   */\n      add\n        /* \"#utility.yul\":353:389   */\n      gt\n        /* \"#utility.yul\":350:352   */\n      iszero\n      tag_34\n      jumpi\n        /* \"#utility.yul\":414:415   */\n      0x00\n        /* \"#utility.yul\":411:412   */\n      dup1\n        /* \"#utility.yul\":404:416   */\n      revert\n        /* \"#utility.yul\":350:352   */\n    tag_34:\n        /* \"#utility.yul\":450:451   */\n      0x00\n        /* \"#utility.yul\":435:673   */\n    tag_35:\n        /* \"#utility.yul\":460:466   */\n      dup6\n        /* \"#utility.yul\":457:458   */\n      dup2\n        /* \"#utility.yul\":454:467   */\n      lt\n        /* \"#utility.yul\":435:673   */\n      iszero\n      tag_37\n      jumpi\n        /* \"#utility.yul\":528:531   */\n      dup2\n        /* \"#utility.yul\":557:594   */\n      tag_38\n        /* \"#utility.yul\":590:593   */\n      dup9\n        /* \"#utility.yul\":578:588   */\n      dup3\n        /* \"#utility.yul\":557:594   */\n      tag_39\n      jump\t// in\n    tag_38:\n        /* \"#utility.yul\":552:555   */\n      dup5\n        /* \"#utility.yul\":545:595   */\n      mstore\n        /* \"#utility.yul\":624:628   */\n      0x20\n        /* \"#utility.yul\":619:622   */\n      dup5\n        /* \"#utility.yul\":615:629   */\n      add\n        /* \"#utility.yul\":608:629   */\n      swap4\n      pop\n        /* \"#utility.yul\":658:662   */\n      0x20\n        /* \"#utility.yul\":653:656   */\n      dup4\n        /* \"#utility.yul\":649:663   */\n      add\n        /* \"#utility.yul\":642:663   */\n      swap3\n      pop\n        /* \"#utility.yul\":495:673   */\n      pop\n        /* \"#utility.yul\":482:483   */\n      0x01\n        /* \"#utility.yul\":479:480   */\n      dup2\n        /* \"#utility.yul\":475:484   */\n      add\n        /* \"#utility.yul\":470:484   */\n      swap1\n      pop\n        /* \"#utility.yul\":435:673   */\n      jump(tag_35)\n    tag_37:\n        /* \"#utility.yul\":439:453   */\n      pop\n        /* \"#utility.yul\":126:679   */\n      pop\n      pop\n      swap4\n      swap3\n      pop\n      pop\n      pop\n      jump\t// out\n        /* \"#utility.yul\":685:824   */\n    tag_39:\n        /* \"#utility.yul\":731:736   */\n      0x00\n        /* \"#utility.yul\":769:775   */\n      dup2\n        /* \"#utility.yul\":756:776   */\n      calldataload\n        /* \"#utility.yul\":747:776   */\n      swap1\n      pop\n        /* \"#utility.yul\":785:818   */\n      tag_41\n        /* \"#utility.yul\":812:817   */\n      dup2\n        /* \"#utility.yul\":785:818   */\n      tag_42\n      jump\t// in\n    tag_41:\n        /* \"#utility.yul\":737:824   */\n      swap3\n      swap2\n      pop\n      pop\n      jump\t// out\n        /* \"#utility.yul\":847:1150   */\n    tag_43:\n        /* \"#utility.yul\":918:923   */\n      0x00\n        /* \"#utility.yul\":967:970   */\n      dup3\n        /* \"#utility.yul\":960:964   */\n      0x1f\n        /* \"#utility.yul\":952:958   */\n      dup4\n        /* \"#utility.yul\":948:965   */\n      add\n        /* \"#utility.yul\":944:971   */\n      slt\n        /* \"#utility.yul\":934:936   */\n      tag_45\n      jumpi\n        /* \"#utility.yul\":985:986   */\n      0x00\n        /* \"#utility.yul\":982:983   */\n      dup1\n        /* \"#utility.yul\":975:987   */\n      revert\n        /* \"#utility.yul\":934:936   */\n    tag_45:\n        /* \"#utility.yul\":1025:1031   */\n      dup2\n        /* \"#utility.yul\":1012:1032   */\n      calldataload\n        /* \"#utility.yul\":1050:1144   */\n      tag_46\n        /* \"#utility.yul\":1140:1143   */\n      dup5\n        /* \"#utility.yul\":1132:1138   */\n      dup3\n        /* \"#utility.yul\":1125:1129   */\n      0x20\n        /* \"#utility.yul\":1117:1123   */\n      dup7\n        /* \"#utility.yul\":1113:1130   */\n      add\n        /* \"#utility.yul\":1050:1144   */\n      tag_28\n      jump\t// in\n    tag_46:\n        /* \"#utility.yul\":1041:1144   */\n      swap2\n      pop\n        /* \"#utility.yul\":924:1150   */\n      pop\n      swap3\n      swap2\n      pop\n      pop\n      jump\t// out\n        /* \"#utility.yul\":1156:1295   */\n    tag_47:\n        /* \"#utility.yul\":1202:1207   */\n      0x00\n        /* \"#utility.yul\":1240:1246   */\n      dup2\n        /* \"#utility.yul\":1227:1247   */\n      calldataload\n        /* \"#utility.yul\":1218:1247   */\n      swap1\n      pop\n        /* \"#utility.yul\":1256:1289   */\n      tag_49\n        /* \"#utility.yul\":1283:1288   */\n      dup2\n        /* \"#utility.yul\":1256:1289   */\n      tag_50\n      jump\t// in\n    tag_49:\n        /* \"#utility.yul\":1208:1295   */\n      swap3\n      swap2\n      pop\n      pop\n      jump\t// out\n        /* \"#utility.yul\":1301:1851   */\n    tag_8:\n        /* \"#utility.yul\":1394:1400   */\n      0x00\n        /* \"#utility.yul\":1402:1408   */\n      dup1\n        /* \"#utility.yul\":1451:1453   */\n      0x40\n        /* \"#utility.yul\":1439:1448   */\n      dup4\n        /* \"#utility.yul\":1430:1437   */\n      dup6\n        /* \"#utility.yul\":1426:1449   */\n      sub\n        /* \"#utility.yul\":1422:1454   */\n      slt\n        /* \"#utility.yul\":1419:1421   */\n      iszero\n      tag_52\n      jumpi\n        /* \"#utility.yul\":1467:1468   */\n      0x00\n        /* \"#utility.yul\":1464:1465   */\n      dup1\n        /* \"#utility.yul\":1457:1469   */\n      revert\n        /* \"#utility.yul\":1419:1421   */\n    tag_52:\n        /* \"#utility.yul\":1538:1539   */\n      0x00\n        /* \"#utility.yul\":1527:1536   */\n      dup4\n        /* \"#utility.yul\":1523:1540   */\n      add\n        /* \"#utility.yul\":1510:1541   */\n      calldataload\n        /* \"#utility.yul\":1568:1586   */\n      0xffffffffffffffff\n        /* \"#utility.yul\":1560:1566   */\n      dup2\n        /* \"#utility.yul\":1557:1587   */\n      gt\n        /* \"#utility.yul\":1554:1556   */\n      iszero\n      tag_53\n      jumpi\n        /* \"#utility.yul\":1600:1601   */\n      0x00\n        /* \"#utility.yul\":1597:1598   */\n      dup1\n        /* \"#utility.yul\":1590:1602   */\n      revert\n        /* \"#utility.yul\":1554:1556   */\n    tag_53:\n        /* \"#utility.yul\":1628:1706   */\n      tag_54\n        /* \"#utility.yul\":1698:1705   */\n      dup6\n        /* \"#utility.yul\":1689:1695   */\n      dup3\n        /* \"#utility.yul\":1678:1687   */\n      dup7\n        /* \"#utility.yul\":1674:1696   */\n      add\n        /* \"#utility.yul\":1628:1706   */\n      tag_43\n      jump\t// in\n    tag_54:\n        /* \"#utility.yul\":1618:1706   */\n      swap3\n      pop\n        /* \"#utility.yul\":1481:1716   */\n      pop\n        /* \"#utility.yul\":1755:1757   */\n      0x20\n        /* \"#utility.yul\":1781:1834   */\n      tag_55\n        /* \"#utility.yul\":1826:1833   */\n      dup6\n        /* \"#utility.yul\":1817:1823   */\n      dup3\n        /* \"#utility.yul\":1806:1815   */\n      dup7\n        /* \"#utility.yul\":1802:1824   */\n      add\n        /* \"#utility.yul\":1781:1834   */\n      tag_47\n      jump\t// in\n    tag_55:\n        /* \"#utility.yul\":1771:1834   */\n      swap2\n      pop\n        /* \"#utility.yul\":1726:1844   */\n      pop\n        /* \"#utility.yul\":1409:1851   */\n      swap3\n      pop\n      swap3\n      swap1\n      pop\n      jump\t// out\n        /* \"#utility.yul\":1857:1975   */\n    tag_56:\n        /* \"#utility.yul\":1944:1968   */\n      tag_58\n        /* \"#utility.yul\":1962:1967   */\n      dup2\n        /* \"#utility.yul\":1944:1968   */\n      tag_59\n      jump\t// in\n    tag_58:\n        /* \"#utility.yul\":1939:1942   */\n      dup3\n        /* \"#utility.yul\":1932:1969   */\n      mstore\n        /* \"#utility.yul\":1922:1975   */\n      pop\n      pop\n      jump\t// out\n        /* \"#utility.yul\":1981:2090   */\n    tag_60:\n        /* \"#utility.yul\":2062:2083   */\n      tag_62\n        /* \"#utility.yul\":2077:2082   */\n      dup2\n        /* \"#utility.yul\":2062:2083   */\n      tag_63\n      jump\t// in\n    tag_62:\n        /* \"#utility.yul\":2057:2060   */\n      dup3\n        /* \"#utility.yul\":2050:2084   */\n      mstore\n        /* \"#utility.yul\":2040:2090   */\n      pop\n      pop\n      jump\t// out\n        /* \"#utility.yul\":2096:2318   */\n    tag_15:\n        /* \"#utility.yul\":2189:2193   */\n      0x00\n        /* \"#utility.yul\":2227:2229   */\n      0x20\n        /* \"#utility.yul\":2216:2225   */\n      dup3\n        /* \"#utility.yul\":2212:2230   */\n      add\n        /* \"#utility.yul\":2204:2230   */\n      swap1\n      pop\n        /* \"#utility.yul\":2240:2311   */\n      tag_65\n        /* \"#utility.yul\":2308:2309   */\n      0x00\n        /* \"#utility.yul\":2297:2306   */\n      dup4\n        /* \"#utility.yul\":2293:2310   */\n      add\n        /* \"#utility.yul\":2284:2290   */\n      dup5\n        /* \"#utility.yul\":2240:2311   */\n      tag_56\n      jump\t// in\n    tag_65:\n        /* \"#utility.yul\":2194:2318   */\n      swap3\n      swap2\n      pop\n      pop\n      jump\t// out\n        /* \"#utility.yul\":2324:2534   */\n    tag_11:\n        /* \"#utility.yul\":2411:2415   */\n      0x00\n        /* \"#utility.yul\":2449:2451   */\n      0x20\n        /* \"#utility.yul\":2438:2447   */\n      dup3\n        /* \"#utility.yul\":2434:2452   */\n      add\n        /* \"#utility.yul\":2426:2452   */\n      swap1\n      pop\n        /* \"#utility.yul\":2462:2527   */\n      tag_67\n        /* \"#utility.yul\":2524:2525   */\n      0x00\n        /* \"#utility.yul\":2513:2522   */\n      dup4\n        /* \"#utility.yul\":2509:2526   */\n      add\n        /* \"#utility.yul\":2500:2506   */\n      dup5\n        /* \"#utility.yul\":2462:2527   */\n      tag_60\n      jump\t// in\n    tag_67:\n        /* \"#utility.yul\":2416:2534   */\n      swap3\n      swap2\n      pop\n      pop\n      jump\t// out\n        /* \"#utility.yul\":2540:2669   */\n    tag_33:\n        /* \"#utility.yul\":2574:2580   */\n      0x00\n        /* \"#utility.yul\":2601:2621   */\n      tag_69\n      tag_70\n      jump\t// in\n    tag_69:\n        /* \"#utility.yul\":2591:2621   */\n      swap1\n      pop\n        /* \"#utility.yul\":2630:2663   */\n      tag_71\n        /* \"#utility.yul\":2658:2662   */\n      dup3\n        /* \"#utility.yul\":2650:2656   */\n      dup3\n        /* \"#utility.yul\":2630:2663   */\n      tag_72\n      jump\t// in\n    tag_71:\n        /* \"#utility.yul\":2581:2669   */\n      swap2\n      swap1\n      pop\n      jump\t// out\n        /* \"#utility.yul\":2675:2750   */\n    tag_70:\n        /* \"#utility.yul\":2708:2714   */\n      0x00\n        /* \"#utility.yul\":2741:2743   */\n      0x40\n        /* \"#utility.yul\":2735:2744   */\n      mload\n        /* \"#utility.yul\":2725:2744   */\n      swap1\n      pop\n        /* \"#utility.yul\":2715:2750   */\n      swap1\n      jump\t// out\n        /* \"#utility.yul\":2756:3067   */\n    tag_32:\n        /* \"#utility.yul\":2833:2837   */\n      0x00\n        /* \"#utility.yul\":2923:2941   */\n      0xffffffffffffffff\n        /* \"#utility.yul\":2915:2921   */\n      dup3\n        /* \"#utility.yul\":2912:2942   */\n      gt\n        /* \"#utility.yul\":2909:2911   */\n      iszero\n      tag_75\n      jumpi\n        /* \"#utility.yul\":2945:2963   */\n      tag_76\n      tag_77\n      jump\t// in\n    tag_76:\n        /* \"#utility.yul\":2909:2911   */\n    tag_75:\n        /* \"#utility.yul\":2995:2999   */\n      0x20\n        /* \"#utility.yul\":2987:2993   */\n      dup3\n        /* \"#utility.yul\":2983:3000   */\n      mul\n        /* \"#utility.yul\":2975:3000   */\n      swap1\n      pop\n        /* \"#utility.yul\":3055:3059   */\n      0x20\n        /* \"#utility.yul\":3049:3053   */\n      dup2\n        /* \"#utility.yul\":3045:3060   */\n      add\n        /* \"#utility.yul\":3037:3060   */\n      swap1\n      pop\n        /* \"#utility.yul\":2838:3067   */\n      swap2\n      swap1\n      pop\n      jump\t// out\n        /* \"#utility.yul\":3073:3169   */\n    tag_59:\n        /* \"#utility.yul\":3110:3117   */\n      0x00\n        /* \"#utility.yul\":3139:3163   */\n      tag_79\n        /* \"#utility.yul\":3157:3162   */\n      dup3\n        /* \"#utility.yul\":3139:3163   */\n      tag_80\n      jump\t// in\n    tag_79:\n        /* \"#utility.yul\":3128:3163   */\n      swap1\n      pop\n        /* \"#utility.yul\":3118:3169   */\n      swap2\n      swap1\n      pop\n      jump\t// out\n        /* \"#utility.yul\":3175:3265   */\n    tag_63:\n        /* \"#utility.yul\":3209:3216   */\n      0x00\n        /* \"#utility.yul\":3252:3257   */\n      dup2\n        /* \"#utility.yul\":3245:3258   */\n      iszero\n        /* \"#utility.yul\":3238:3259   */\n      iszero\n        /* \"#utility.yul\":3227:3259   */\n      swap1\n      pop\n        /* \"#utility.yul\":3217:3265   */\n      swap2\n      swap1\n      pop\n      jump\t// out\n        /* \"#utility.yul\":3271:3397   */\n    tag_80:\n        /* \"#utility.yul\":3308:3315   */\n      0x00\n        /* \"#utility.yul\":3348:3390   */\n      0xffffffffffffffffffffffffffffffffffffffff\n        /* \"#utility.yul\":3341:3346   */\n      dup3\n        /* \"#utility.yul\":3337:3391   */\n      and\n        /* \"#utility.yul\":3326:3391   */\n      swap1\n      pop\n        /* \"#utility.yul\":3316:3397   */\n      swap2\n      swap1\n      pop\n      jump\t// out\n        /* \"#utility.yul\":3403:3480   */\n    tag_83:\n        /* \"#utility.yul\":3440:3447   */\n      0x00\n        /* \"#utility.yul\":3469:3474   */\n      dup2\n        /* \"#utility.yul\":3458:3474   */\n      swap1\n      pop\n        /* \"#utility.yul\":3448:3480   */\n      swap2\n      swap1\n      pop\n      jump\t// out\n        /* \"#utility.yul\":3486:3767   */\n    tag_72:\n        /* \"#utility.yul\":3569:3596   */\n      tag_86\n        /* \"#utility.yul\":3591:3595   */\n      dup3\n        /* \"#utility.yul\":3569:3596   */\n      tag_87\n      jump\t// in\n    tag_86:\n        /* \"#utility.yul\":3561:3567   */\n      dup2\n        /* \"#utility.yul\":3557:3597   */\n      add\n        /* \"#utility.yul\":3699:3705   */\n      dup2\n        /* \"#utility.yul\":3687:3697   */\n      dup2\n        /* \"#utility.yul\":3684:3706   */\n      lt\n        /* \"#utility.yul\":3663:3681   */\n      0xffffffffffffffff\n        /* \"#utility.yul\":3651:3661   */\n      dup3\n        /* \"#utility.yul\":3648:3682   */\n      gt\n        /* \"#utility.yul\":3645:3707   */\n      or\n        /* \"#utility.yul\":3642:3644   */\n      iszero\n      tag_88\n      jumpi\n        /* \"#utility.yul\":3710:3728   */\n      tag_89\n      tag_77\n      jump\t// in\n    tag_89:\n        /* \"#utility.yul\":3642:3644   */\n    tag_88:\n        /* \"#utility.yul\":3750:3760   */\n      dup1\n        /* \"#utility.yul\":3746:3748   */\n      0x40\n        /* \"#utility.yul\":3739:3761   */\n      mstore\n        /* \"#utility.yul\":3529:3767   */\n      pop\n      pop\n      pop\n      jump\t// out\n        /* \"#utility.yul\":3773:4006   */\n    tag_25:\n        /* \"#utility.yul\":3812:3815   */\n      0x00\n        /* \"#utility.yul\":3835:3859   */\n      tag_91\n        /* \"#utility.yul\":3853:3858   */\n      dup3\n        /* \"#utility.yul\":3835:3859   */\n      tag_83\n      jump\t// in\n    tag_91:\n        /* \"#utility.yul\":3826:3859   */\n      swap2\n      pop\n        /* \"#utility.yul\":3881:3947   */\n      0xffffffffffffffffffffffffffffffffffffffffffffffffffffffffffffffff\n        /* \"#utility.yul\":3874:3879   */\n      dup3\n        /* \"#utility.yul\":3871:3948   */\n      eq\n        /* \"#utility.yul\":3868:3870   */\n      iszero\n      tag_92\n      jumpi\n        /* \"#utility.yul\":3951:3969   */\n      tag_93\n      tag_94\n      jump\t// in\n    tag_93:\n        /* \"#utility.yul\":3868:3870   */\n    tag_92:\n        /* \"#utility.yul\":3998:3999   */\n      0x01\n        /* \"#utility.yul\":3991:3996   */\n      dup3\n        /* \"#utility.yul\":3987:4000   */\n      add\n        /* \"#utility.yul\":3980:4000   */\n      swap1\n      pop\n        /* \"#utility.yul\":3816:4006   */\n      swap2\n      swap1\n      pop\n      jump\t// out\n        /* \"#utility.yul\":4012:4192   */\n    tag_94:\n        /* \"#utility.yul\":4060:4137   */\n      0x4e487b7100000000000000000000000000000000000000000000000000000000\n        /* \"#utility.yul\":4057:4058   */\n      0x00\n        /* \"#utility.yul\":4050:4138   */\n      mstore\n        /* \"#utility.yul\":4157:4161   */\n      0x11\n        /* \"#utility.yul\":4154:4155   */\n      0x04\n        /* \"#utility.yul\":4147:4162   */\n      mstore\n        /* \"#utility.yul\":4181:4185   */\n      0x24\n        /* \"#utility.yul\":4178:4179   */\n      0x00\n        /* \"#utility.yul\":4171:4186   */\n      revert\n        /* \"#utility.yul\":4198:4378   */\n    tag_77:\n        /* \"#utility.yul\":4246:4323   */\n      0x4e487b7100000000000000000000000000000000000000000000000000000000\n        /* \"#utility.yul\":4243:4244   */\n      0x00\n        /* \"#utility.yul\":4236:4324   */\n      mstore\n        /* \"#utility.yul\":4343:4347   */\n      0x41\n        /* \"#utility.yul\":4340:4341   */\n      0x04\n        /* \"#utility.yul\":4333:4348   */\n      mstore\n        /* \"#utility.yul\":4367:4371   */\n      0x24\n        /* \"#utility.yul\":4364:4365   */\n      0x00\n        /* \"#utility.yul\":4357:4372   */\n      revert\n        /* \"#utility.yul\":4384:4486   */\n    tag_87:\n        /* \"#utility.yul\":4425:4431   */\n      0x00\n        /* \"#utility.yul\":4476:4478   */\n      0x1f\n        /* \"#utility.yul\":4472:4479   */\n      not\n        /* \"#utility.yul\":4467:4469   */\n      0x1f\n        /* \"#utility.yul\":4460:4465   */\n      dup4\n        /* \"#utility.yul\":4456:4470   */\n      add\n        /* \"#utility.yul\":4452:4480   */\n      and\n        /* \"#utility.yul\":4442:4480   */\n      swap1\n      pop\n        /* \"#utility.yul\":4432:4486   */\n      swap2\n      swap1\n      pop\n      jump\t// out\n        /* \"#utility.yul\":4492:4614   */\n    tag_42:\n        /* \"#utility.yul\":4565:4589   */\n      tag_99\n        /* \"#utility.yul\":4583:4588   */\n      dup2\n        /* \"#utility.yul\":4565:4589   */\n      tag_59\n      jump\t// in\n    tag_99:\n        /* \"#utility.yul\":4558:4563   */\n      dup2\n        /* \"#utility.yul\":4555:4590   */\n      eq\n        /* \"#utility.yul\":4545:4547   */\n      tag_100\n      jumpi\n        /* \"#utility.yul\":4604:4605   */\n      0x00\n        /* \"#utility.yul\":4601:4602   */\n      dup1\n        /* \"#utility.yul\":4594:4606   */\n      revert\n        /* \"#utility.yul\":4545:4547   */\n    tag_100:\n        /* \"#utility.yul\":4535:4614   */\n      pop\n      jump\t// out\n        /* \"#utility.yul\":4620:4742   */\n    tag_50:\n        /* \"#utility.yul\":4693:4717   */\n      tag_102\n        /* \"#utility.yul\":4711:4716   */\n      dup2\n        /* \"#utility.yul\":4693:4717   */\n      tag_83\n      jump\t// in\n    tag_102:\n        /* \"#utility.yul\":4686:4691   */\n      dup2\n        /* \"#utility.yul\":4683:4718   */\n      eq\n        /* \"#utility.yul\":4673:4675   */\n      tag_103\n      jumpi\n        /* \"#utility.yul\":4732:4733   */\n      0x00\n        /* \"#utility.yul\":4729:4730   */\n      dup1\n        /* \"#utility.yul\":4722:4734   */\n      revert\n        /* \"#utility.yul\":4673:4675   */\n    tag_103:\n        /* \"#utility.yul\":4663:4742   */\n      pop\n      jump\t// out\n\n    auxdata: 0xa264697066735822122025724a972760f39a8ae01238e34aecd9cb18824e8056613ea586d6e51aaa48d464736f6c63430008040033\n}\n",
				"bytecode": {
					"linkReferences": {},
					"object": "608060405234801561001057600080fd5b50336000806101000a81548173ffffffffffffffffffffffffffffffffffffffff021916908373ffffffffffffffffffffffffffffffffffffffff1602179055506104a1806100606000396000f3fe608060405234801561001057600080fd5b50600436106100415760003560e01c80633c04696014610046578063893d20e8146100765780638da5cb5b14610094575b600080fd5b610060600480360381019061005b9190610213565b6100b2565b60405161006d91906102a0565b60405180910390f35b61007e610127565b60405161008b9190610285565b60405180910390f35b61009c61012f565b6040516100a99190610285565b60405180910390f35b600080600090505b835181101561011c5760008482815181106100fe577f4e487b7100000000000000000000000000000000000000000000000000000000600052603260045260246000fd5b6020026020010151905050808061011490610385565b9150506100ba565b506001905092915050565b600030905090565b60008054906101000a900473ffffffffffffffffffffffffffffffffffffffff1681565b6000610166610161846102e0565b6102bb565b9050808382526020820190508285602086028201111561018557600080fd5b60005b858110156101b5578161019b88826101bf565b845260208401935060208301925050600181019050610188565b5050509392505050565b6000813590506101ce8161043d565b92915050565b600082601f8301126101e557600080fd5b81356101f5848260208601610153565b91505092915050565b60008135905061020d81610454565b92915050565b6000806040838503121561022657600080fd5b600083013567ffffffffffffffff81111561024057600080fd5b61024c858286016101d4565b925050602061025d858286016101fe565b9150509250929050565b6102708161030c565b82525050565b61027f8161031e565b82525050565b600060208201905061029a6000830184610267565b92915050565b60006020820190506102b56000830184610276565b92915050565b60006102c56102d6565b90506102d18282610354565b919050565b6000604051905090565b600067ffffffffffffffff8211156102fb576102fa6103fd565b5b602082029050602081019050919050565b60006103178261032a565b9050919050565b60008115159050919050565b600073ffffffffffffffffffffffffffffffffffffffff82169050919050565b6000819050919050565b61035d8261042c565b810181811067ffffffffffffffff8211171561037c5761037b6103fd565b5b80604052505050565b60006103908261034a565b91507fffffffffffffffffffffffffffffffffffffffffffffffffffffffffffffffff8214156103c3576103c26103ce565b5b600182019050919050565b7f4e487b7100000000000000000000000000000000000000000000000000000000600052601160045260246000fd5b7f4e487b7100000000000000000000000000000000000000000000000000000000600052604160045260246000fd5b6000601f19601f8301169050919050565b6104468161030c565b811461045157600080fd5b50565b61045d8161034a565b811461046857600080fd5b5056fea264697066735822122025724a972760f39a8ae01238e34aecd9cb18824e8056613ea586d6e51aaa48d464736f6c63430008040033",
					"opcodes": "PUSH1 0x80 PUSH1 0x40 MSTORE CALLVALUE DUP1 ISZERO PUSH2 0x10 JUMPI PUSH1 0x0 DUP1 REVERT JUMPDEST POP CALLER PUSH1 0x0 DUP1 PUSH2 0x100 EXP DUP2 SLOAD DUP2 PUSH20 0xFFFFFFFFFFFFFFFFFFFFFFFFFFFFFFFFFFFFFFFF MUL NOT AND SWAP1 DUP4 PUSH20 0xFFFFFFFFFFFFFFFFFFFFFFFFFFFFFFFFFFFFFFFF AND MUL OR SWAP1 SSTORE POP PUSH2 0x4A1 DUP1 PUSH2 0x60 PUSH1 0x0 CODECOPY PUSH1 0x0 RETURN INVALID PUSH1 0x80 PUSH1 0x40 MSTORE CALLVALUE DUP1 ISZERO PUSH2 0x10 JUMPI PUSH1 0x0 DUP1 REVERT JUMPDEST POP PUSH1 0x4 CALLDATASIZE LT PUSH2 0x41 JUMPI PUSH1 0x0 CALLDATALOAD PUSH1 0xE0 SHR DUP1 PUSH4 0x3C046960 EQ PUSH2 0x46 JUMPI DUP1 PUSH4 0x893D20E8 EQ PUSH2 0x76 JUMPI DUP1 PUSH4 0x8DA5CB5B EQ PUSH2 0x94 JUMPI JUMPDEST PUSH1 0x0 DUP1 REVERT JUMPDEST PUSH2 0x60 PUSH1 0x4 DUP1 CALLDATASIZE SUB DUP2 ADD SWAP1 PUSH2 0x5B SWAP2 SWAP1 PUSH2 0x213 JUMP JUMPDEST PUSH2 0xB2 JUMP JUMPDEST PUSH1 0x40 MLOAD PUSH2 0x6D SWAP2 SWAP1 PUSH2 0x2A0 JUMP JUMPDEST PUSH1 0x40 MLOAD DUP1 SWAP2 SUB SWAP1 RETURN JUMPDEST PUSH2 0x7E PUSH2 0x127 JUMP JUMPDEST PUSH1 0x40 MLOAD PUSH2 0x8B SWAP2 SWAP1 PUSH2 0x285 JUMP JUMPDEST PUSH1 0x40 MLOAD DUP1 SWAP2 SUB SWAP1 RETURN JUMPDEST PUSH2 0x9C PUSH2 0x12F JUMP JUMPDEST PUSH1 0x40 MLOAD PUSH2 0xA9 SWAP2 SWAP1 PUSH2 0x285 JUMP JUMPDEST PUSH1 0x40 MLOAD DUP1 SWAP2 SUB SWAP1 RETURN JUMPDEST PUSH1 0x0 DUP1 PUSH1 0x0 SWAP1 POP JUMPDEST DUP4 MLOAD DUP2 LT ISZERO PUSH2 0x11C JUMPI PUSH1 0x0 DUP5 DUP3 DUP2 MLOAD DUP2 LT PUSH2 0xFE JUMPI PUSH32 0x4E487B7100000000000000000000000000000000000000000000000000000000 PUSH1 0x0 MSTORE PUSH1 0x32 PUSH1 0x4 MSTORE PUSH1 0x24 PUSH1 0x0 REVERT JUMPDEST PUSH1 0x20 MUL PUSH1 0x20 ADD ADD MLOAD SWAP1 POP POP DUP1 DUP1 PUSH2 0x114 SWAP1 PUSH2 0x385 JUMP JUMPDEST SWAP2 POP POP PUSH2 0xBA JUMP JUMPDEST POP PUSH1 0x1 SWAP1 POP SWAP3 SWAP2 POP POP JUMP JUMPDEST PUSH1 0x0 ADDRESS SWAP1 POP SWAP1 JUMP JUMPDEST PUSH1 0x0 DUP1 SLOAD SWAP1 PUSH2 0x100 EXP SWAP1 DIV PUSH20 0xFFFFFFFFFFFFFFFFFFFFFFFFFFFFFFFFFFFFFFFF AND DUP2 JUMP JUMPDEST PUSH1 0x0 PUSH2 0x166 PUSH2 0x161 DUP5 PUSH2 0x2E0 JUMP JUMPDEST PUSH2 0x2BB JUMP JUMPDEST SWAP1 POP DUP1 DUP4 DUP3 MSTORE PUSH1 0x20 DUP3 ADD SWAP1 POP DUP3 DUP6 PUSH1 0x20 DUP7 MUL DUP3 ADD GT ISZERO PUSH2 0x185 JUMPI PUSH1 0x0 DUP1 REVERT JUMPDEST PUSH1 0x0 JUMPDEST DUP6 DUP2 LT ISZERO PUSH2 0x1B5 JUMPI DUP2 PUSH2 0x19B DUP9 DUP3 PUSH2 0x1BF JUMP JUMPDEST DUP5 MSTORE PUSH1 0x20 DUP5 ADD SWAP4 POP PUSH1 0x20 DUP4 ADD SWAP3 POP POP PUSH1 0x1 DUP2 ADD SWAP1 POP PUSH2 0x188 JUMP JUMPDEST POP POP POP SWAP4 SWAP3 POP POP POP JUMP JUMPDEST PUSH1 0x0 DUP2 CALLDATALOAD SWAP1 POP PUSH2 0x1CE DUP2 PUSH2 0x43D JUMP JUMPDEST SWAP3 SWAP2 POP POP JUMP JUMPDEST PUSH1 0x0 DUP3 PUSH1 0x1F DUP4 ADD SLT PUSH2 0x1E5 JUMPI PUSH1 0x0 DUP1 REVERT JUMPDEST DUP2 CALLDATALOAD PUSH2 0x1F5 DUP5 DUP3 PUSH1 0x20 DUP7 ADD PUSH2 0x153 JUMP JUMPDEST SWAP2 POP POP SWAP3 SWAP2 POP POP JUMP JUMPDEST PUSH1 0x0 DUP2 CALLDATALOAD SWAP1 POP PUSH2 0x20D DUP2 PUSH2 0x454 JUMP JUMPDEST SWAP3 SWAP2 POP POP JUMP JUMPDEST PUSH1 0x0 DUP1 PUSH1 0x40 DUP4 DUP6 SUB SLT ISZERO PUSH2 0x226 JUMPI PUSH1 0x0 DUP1 REVERT JUMPDEST PUSH1 0x0 DUP4 ADD CALLDATALOAD PUSH8 0xFFFFFFFFFFFFFFFF DUP2 GT ISZERO PUSH2 0x240 JUMPI PUSH1 0x0 DUP1 REVERT JUMPDEST PUSH2 0x24C DUP6 DUP3 DUP7 ADD PUSH2 0x1D4 JUMP JUMPDEST SWAP3 POP POP PUSH1 0x20 PUSH2 0x25D DUP6 DUP3 DUP7 ADD PUSH2 0x1FE JUMP JUMPDEST SWAP2 POP POP SWAP3 POP SWAP3 SWAP1 POP JUMP JUMPDEST PUSH2 0x270 DUP2 PUSH2 0x30C JUMP JUMPDEST DUP3 MSTORE POP POP JUMP JUMPDEST PUSH2 0x27F DUP2 PUSH2 0x31E JUMP JUMPDEST DUP3 MSTORE POP POP JUMP JUMPDEST PUSH1 0x0 PUSH1 0x20 DUP3 ADD SWAP1 POP PUSH2 0x29A PUSH1 0x0 DUP4 ADD DUP5 PUSH2 0x267 JUMP JUMPDEST SWAP3 SWAP2 POP POP JUMP JUMPDEST PUSH1 0x0 PUSH1 0x20 DUP3 ADD SWAP1 POP PUSH2 0x2B5 PUSH1 0x0 DUP4 ADD DUP5 PUSH2 0x276 JUMP JUMPDEST SWAP3 SWAP2 POP POP JUMP JUMPDEST PUSH1 0x0 PUSH2 0x2C5 PUSH2 0x2D6 JUMP JUMPDEST SWAP1 POP PUSH2 0x2D1 DUP3 DUP3 PUSH2 0x354 JUMP JUMPDEST SWAP2 SWAP1 POP JUMP JUMPDEST PUSH1 0x0 PUSH1 0x40 MLOAD SWAP1 POP SWAP1 JUMP JUMPDEST PUSH1 0x0 PUSH8 0xFFFFFFFFFFFFFFFF DUP3 GT ISZERO PUSH2 0x2FB JUMPI PUSH2 0x2FA PUSH2 0x3FD JUMP JUMPDEST JUMPDEST PUSH1 0x20 DUP3 MUL SWAP1 POP PUSH1 0x20 DUP2 ADD SWAP1 POP SWAP2 SWAP1 POP JUMP JUMPDEST PUSH1 0x0 PUSH2 0x317 DUP3 PUSH2 0x32A JUMP JUMPDEST SWAP1 POP SWAP2 SWAP1 POP JUMP JUMPDEST PUSH1 0x0 DUP2 ISZERO ISZERO SWAP1 POP SWAP2 SWAP1 POP JUMP JUMPDEST PUSH1 0x0 PUSH20 0xFFFFFFFFFFFFFFFFFFFFFFFFFFFFFFFFFFFFFFFF DUP3 AND SWAP1 POP SWAP2 SWAP1 POP JUMP JUMPDEST PUSH1 0x0 DUP2 SWAP1 POP SWAP2 SWAP1 POP JUMP JUMPDEST PUSH2 0x35D DUP3 PUSH2 0x42C JUMP JUMPDEST DUP2 ADD DUP2 DUP2 LT PUSH8 0xFFFFFFFFFFFFFFFF DUP3 GT OR ISZERO PUSH2 0x37C JUMPI PUSH2 0x37B PUSH2 0x3FD JUMP JUMPDEST JUMPDEST DUP1 PUSH1 0x40 MSTORE POP POP POP JUMP JUMPDEST PUSH1 0x0 PUSH2 0x390 DUP3 PUSH2 0x34A JUMP JUMPDEST SWAP2 POP PUSH32 0xFFFFFFFFFFFFFFFFFFFFFFFFFFFFFFFFFFFFFFFFFFFFFFFFFFFFFFFFFFFFFFFF DUP3 EQ ISZERO PUSH2 0x3C3 JUMPI PUSH2 0x3C2 PUSH2 0x3CE JUMP JUMPDEST JUMPDEST PUSH1 0x1 DUP3 ADD SWAP1 POP SWAP2 SWAP1 POP JUMP JUMPDEST PUSH32 0x4E487B7100000000000000000000000000000000000000000000000000000000 PUSH1 0x0 MSTORE PUSH1 0x11 PUSH1 0x4 MSTORE PUSH1 0x24 PUSH1 0x0 REVERT JUMPDEST PUSH32 0x4E487B7100000000000000000000000000000000000000000000000000000000 PUSH1 0x0 MSTORE PUSH1 0x41 PUSH1 0x4 MSTORE PUSH1 0x24 PUSH1 0x0 REVERT JUMPDEST PUSH1 0x0 PUSH1 0x1F NOT PUSH1 0x1F DUP4 ADD AND SWAP1 POP SWAP2 SWAP1 POP JUMP JUMPDEST PUSH2 0x446 DUP2 PUSH2 0x30C JUMP JUMPDEST DUP2 EQ PUSH2 0x451 JUMPI PUSH1 0x0 DUP1 REVERT JUMPDEST POP JUMP JUMPDEST PUSH2 0x45D DUP2 PUSH2 0x34A JUMP JUMPDEST DUP2 EQ PUSH2 0x468 JUMPI PUSH1 0x0 DUP1 REVERT JUMPDEST POP JUMP INVALID LOG2 PUSH5 0x6970667358 0x22 SLT KECCAK256 0x25 PUSH19 0x4A972760F39A8AE01238E34AECD9CB18824E80 JUMP PUSH2 0x3EA5 DUP7 0xD6 0xE5 BYTE 0xAA 0x48 0xD4 PUSH5 0x736F6C6343 STOP ADDMOD DIV STOP CALLER "
				},
				"gasEstimates": {
					"creation": {
						"codeDepositCost": "237000",
						"executionCost": "21147",
						"totalCost": "258147"
					},
					"external": {
						"approve(address[],uint256)": "infinite",
						"getOwner()": "385",
						"owner()": "1233"
					}
				},
				"methodIdentifiers": {
					"approve(address[],uint256)": "3c046960",
					"getOwner()": "893d20e8",
					"owner()": "8da5cb5b"
				}
			},
			"storageLayout": {
				"storage": [
					{
						"astId": 3,
						"contract": "contracts/Smart.sol:Smart",
						"label": "owner",
						"offset": 0,
						"slot": "0",
						"type": "t_address"
					}
				],
				"types": {
					"t_address": {
						"encoding": "inplace",
						"label": "address",
						"numberOfBytes": "20"
					}
				}
			},
			"userdoc": {
				"kind": "user",
				"methods": {},
				"version": 1
			}
		}
	}
}