{
	"contracts/Smart.sol": {
		"FifaClub": {
			"abi": [
				{
					"inputs": [],
					"stateMutability": "nonpayable",
					"type": "constructor"
				},
				{
					"anonymous": false,
					"inputs": [
						{
							"indexed": true,
							"internalType": "address",
							"name": "previousOwner",
							"type": "address"
						},
						{
							"indexed": true,
							"internalType": "address",
							"name": "newOwner",
							"type": "address"
						}
					],
					"name": "OwnershipTransferred",
					"type": "event"
				},
				{
					"anonymous": false,
					"inputs": [
						{
							"indexed": true,
							"internalType": "address",
							"name": "adr",
							"type": "address"
						},
						{
							"indexed": true,
							"internalType": "address",
							"name": "contr",
							"type": "address"
						}
					],
					"name": "Response",
					"type": "event"
				},
				{
					"inputs": [],
					"name": "EtherPay",
					"outputs": [],
					"stateMutability": "payable",
					"type": "function"
				},
				{
					"inputs": [],
					"name": "owner",
					"outputs": [
						{
							"internalType": "address",
							"name": "",
							"type": "address"
						}
					],
					"stateMutability": "view",
					"type": "function"
				},
				{
					"inputs": [],
					"name": "renounceOwnership",
					"outputs": [],
					"stateMutability": "nonpayable",
					"type": "function"
				},
				{
					"inputs": [
						{
							"internalType": "address",
							"name": "newOwner",
							"type": "address"
						}
					],
					"name": "transferOwnership",
					"outputs": [],
					"stateMutability": "nonpayable",
					"type": "function"
				}
			],
			"devdoc": {
				"kind": "dev",
				"methods": {},
				"version": 1
			},
			"evm": {
				"assembly": "    /* \"contracts/Smart.sol\":1208:1527  contract FifaClub is Ownable {... */\n  mstore(0x40, 0x80)\n    /* \"contracts/Smart.sol\":1309:1339  constructor() {... */\n  callvalue\n  dup1\n  iszero\n  tag_1\n  jumpi\n  0x00\n  dup1\n  revert\ntag_1:\n  pop\n    /* \"contracts/Smart.sol\":447:479  _transferOwnership(_msgSender()) */\n  tag_5\n    /* \"contracts/Smart.sol\":466:478  _msgSender() */\n  tag_6\n    /* \"contracts/Smart.sol\":466:476  _msgSender */\n  shl(0x20, tag_7)\n    /* \"contracts/Smart.sol\":466:478  _msgSender() */\n  0x20\n  shr\n  jump\t// in\ntag_6:\n    /* \"contracts/Smart.sol\":447:465  _transferOwnership */\n  shl(0x20, tag_8)\n    /* \"contracts/Smart.sol\":447:479  _transferOwnership(_msgSender()) */\n  0x20\n  shr\n  jump\t// in\ntag_5:\n    /* \"contracts/Smart.sol\":1208:1527  contract FifaClub is Ownable {... */\n  jump(tag_10)\n    /* \"contracts/Smart.sol\":56:152  function _msgSender() internal view virtual returns (address) {... */\ntag_7:\n    /* \"contracts/Smart.sol\":109:116  address */\n  0x00\n    /* \"contracts/Smart.sol\":135:145  msg.sender */\n  caller\n    /* \"contracts/Smart.sol\":128:145  return msg.sender */\n  swap1\n  pop\n    /* \"contracts/Smart.sol\":56:152  function _msgSender() internal view virtual returns (address) {... */\n  swap1\n  jump\t// out\n    /* \"contracts/Smart.sol\":1017:1204  function _transferOwnership(address newOwner) internal virtual {... */\ntag_8:\n    /* \"contracts/Smart.sol\":1090:1106  address oldOwner */\n  0x00\n    /* \"contracts/Smart.sol\":1109:1115  _owner */\n  dup1\n  0x00\n  swap1\n  sload\n  swap1\n  0x0100\n  exp\n  swap1\n  div\n  0xffffffffffffffffffffffffffffffffffffffff\n  and\n    /* \"contracts/Smart.sol\":1090:1115  address oldOwner = _owner */\n  swap1\n  pop\n    /* \"contracts/Smart.sol\":1134:1142  newOwner */\n  dup2\n    /* \"contracts/Smart.sol\":1125:1131  _owner */\n  0x00\n  dup1\n    /* \"contracts/Smart.sol\":1125:1142  _owner = newOwner */\n  0x0100\n  exp\n  dup2\n  sload\n  dup2\n  0xffffffffffffffffffffffffffffffffffffffff\n  mul\n  not\n  and\n  swap1\n  dup4\n  0xffffffffffffffffffffffffffffffffffffffff\n  and\n  mul\n  or\n  swap1\n  sstore\n  pop\n    /* \"contracts/Smart.sol\":1188:1196  newOwner */\n  dup2\n    /* \"contracts/Smart.sol\":1157:1197  OwnershipTransferred(oldOwner, newOwner) */\n  0xffffffffffffffffffffffffffffffffffffffff\n  and\n    /* \"contracts/Smart.sol\":1178:1186  oldOwner */\n  dup2\n    /* \"contracts/Smart.sol\":1157:1197  OwnershipTransferred(oldOwner, newOwner) */\n  0xffffffffffffffffffffffffffffffffffffffff\n  and\n  0x8be0079c531659141344cd1fd0a4f28419497f9722a3daafe3b4186f6b6457e0\n  mload(0x40)\n  mload(0x40)\n  dup1\n  swap2\n  sub\n  swap1\n  log3\n    /* \"contracts/Smart.sol\":1017:1204  function _transferOwnership(address newOwner) internal virtual {... */\n  pop\n  pop\n  jump\t// out\n    /* \"contracts/Smart.sol\":1208:1527  contract FifaClub is Ownable {... */\ntag_10:\n  dataSize(sub_0)\n  dup1\n  dataOffset(sub_0)\n  0x00\n  codecopy\n  0x00\n  return\nstop\n\nsub_0: assembly {\n        /* \"contracts/Smart.sol\":1208:1527  contract FifaClub is Ownable {... */\n      mstore(0x40, 0x80)\n      jumpi(tag_1, lt(calldatasize, 0x04))\n      shr(0xe0, calldataload(0x00))\n      dup1\n      0x715018a6\n      eq\n      tag_2\n      jumpi\n      dup1\n      0x8da5cb5b\n      eq\n      tag_3\n      jumpi\n      dup1\n      0xbc73d346\n      eq\n      tag_4\n      jumpi\n      dup1\n      0xf2fde38b\n      eq\n      tag_5\n      jumpi\n    tag_1:\n      0x00\n      dup1\n      revert\n        /* \"contracts/Smart.sol\":706:807  function renounceOwnership() public virtual onlyOwner {... */\n    tag_2:\n      callvalue\n      dup1\n      iszero\n      tag_6\n      jumpi\n      0x00\n      dup1\n      revert\n    tag_6:\n      pop\n      tag_7\n      tag_8\n      jump\t// in\n    tag_7:\n      stop\n        /* \"contracts/Smart.sol\":492:577  function owner() public view virtual returns (address) {... */\n    tag_3:\n      callvalue\n      dup1\n      iszero\n      tag_9\n      jumpi\n      0x00\n      dup1\n      revert\n    tag_9:\n      pop\n      tag_10\n      tag_11\n      jump\t// in\n    tag_10:\n      mload(0x40)\n      tag_12\n      swap2\n      swap1\n      tag_13\n      jump\t// in\n    tag_12:\n      mload(0x40)\n      dup1\n      swap2\n      sub\n      swap1\n      return\n        /* \"contracts/Smart.sol\":1345:1524  function EtherPay() public payable {... */\n    tag_4:\n      tag_14\n      tag_15\n      jump\t// in\n    tag_14:\n      stop\n        /* \"contracts/Smart.sol\":813:1011  function transferOwnership(address newOwner) public virtual onlyOwner {... */\n    tag_5:\n      callvalue\n      dup1\n      iszero\n      tag_16\n      jumpi\n      0x00\n      dup1\n      revert\n    tag_16:\n      pop\n      tag_17\n      0x04\n      dup1\n      calldatasize\n      sub\n      dup2\n      add\n      swap1\n      tag_18\n      swap2\n      swap1\n      tag_19\n      jump\t// in\n    tag_18:\n      tag_20\n      jump\t// in\n    tag_17:\n      stop\n        /* \"contracts/Smart.sol\":706:807  function renounceOwnership() public virtual onlyOwner {... */\n    tag_8:\n        /* \"contracts/Smart.sol\":633:645  _msgSender() */\n      tag_22\n        /* \"contracts/Smart.sol\":633:643  _msgSender */\n      tag_23\n        /* \"contracts/Smart.sol\":633:645  _msgSender() */\n      jump\t// in\n    tag_22:\n        /* \"contracts/Smart.sol\":622:645  owner() == _msgSender() */\n      0xffffffffffffffffffffffffffffffffffffffff\n      and\n        /* \"contracts/Smart.sol\":622:629  owner() */\n      tag_24\n        /* \"contracts/Smart.sol\":622:627  owner */\n      tag_11\n        /* \"contracts/Smart.sol\":622:629  owner() */\n      jump\t// in\n    tag_24:\n        /* \"contracts/Smart.sol\":622:645  owner() == _msgSender() */\n      0xffffffffffffffffffffffffffffffffffffffff\n      and\n      eq\n        /* \"contracts/Smart.sol\":614:682  require(owner() == _msgSender(), \"Ownable: caller is not the owner\") */\n      tag_25\n      jumpi\n      mload(0x40)\n      0x08c379a000000000000000000000000000000000000000000000000000000000\n      dup2\n      mstore\n      0x04\n      add\n      tag_26\n      swap1\n      tag_27\n      jump\t// in\n    tag_26:\n      mload(0x40)\n      dup1\n      swap2\n      sub\n      swap1\n      revert\n    tag_25:\n        /* \"contracts/Smart.sol\":770:800  _transferOwnership(address(0)) */\n      tag_29\n        /* \"contracts/Smart.sol\":797:798  0 */\n      0x00\n        /* \"contracts/Smart.sol\":770:788  _transferOwnership */\n      tag_30\n        /* \"contracts/Smart.sol\":770:800  _transferOwnership(address(0)) */\n      jump\t// in\n    tag_29:\n        /* \"contracts/Smart.sol\":706:807  function renounceOwnership() public virtual onlyOwner {... */\n      jump\t// out\n        /* \"contracts/Smart.sol\":492:577  function owner() public view virtual returns (address) {... */\n    tag_11:\n        /* \"contracts/Smart.sol\":538:545  address */\n      0x00\n        /* \"contracts/Smart.sol\":564:570  _owner */\n      dup1\n      0x00\n      swap1\n      sload\n      swap1\n      0x0100\n      exp\n      swap1\n      div\n      0xffffffffffffffffffffffffffffffffffffffff\n      and\n        /* \"contracts/Smart.sol\":557:570  return _owner */\n      swap1\n      pop\n        /* \"contracts/Smart.sol\":492:577  function owner() public view virtual returns (address) {... */\n      swap1\n      jump\t// out\n        /* \"contracts/Smart.sol\":1345:1524  function EtherPay() public payable {... */\n    tag_15:\n        /* \"contracts/Smart.sol\":1390:1409  address payable adr */\n      0x00\n        /* \"contracts/Smart.sol\":1420:1427  owner() */\n      tag_33\n        /* \"contracts/Smart.sol\":1420:1425  owner */\n      tag_11\n        /* \"contracts/Smart.sol\":1420:1427  owner() */\n      jump\t// in\n    tag_33:\n        /* \"contracts/Smart.sol\":1390:1428  address payable adr = payable(owner()) */\n      swap1\n      pop\n        /* \"contracts/Smart.sol\":1438:1441  adr */\n      dup1\n        /* \"contracts/Smart.sol\":1438:1450  adr.transfer */\n      0xffffffffffffffffffffffffffffffffffffffff\n      and\n        /* \"contracts/Smart.sol\":1438:1473  adr.transfer(address(this).balance) */\n      0x08fc\n        /* \"contracts/Smart.sol\":1451:1472  address(this).balance */\n      selfbalance\n        /* \"contracts/Smart.sol\":1438:1473  adr.transfer(address(this).balance) */\n      swap1\n      dup2\n      iszero\n      mul\n      swap1\n      mload(0x40)\n      0x00\n      mload(0x40)\n      dup1\n      dup4\n      sub\n      dup2\n      dup6\n      dup9\n      dup9\n      call\n      swap4\n      pop\n      pop\n      pop\n      pop\n      iszero\n      dup1\n      iszero\n      tag_35\n      jumpi\n      returndatasize\n      0x00\n      dup1\n      returndatacopy\n      revert(0x00, returndatasize)\n    tag_35:\n      pop\n        /* \"contracts/Smart.sol\":1511:1515  this */\n      address\n        /* \"contracts/Smart.sol\":1489:1517  Response(adr, address(this)) */\n      0xffffffffffffffffffffffffffffffffffffffff\n      and\n        /* \"contracts/Smart.sol\":1498:1501  adr */\n      dup2\n        /* \"contracts/Smart.sol\":1489:1517  Response(adr, address(this)) */\n      0xffffffffffffffffffffffffffffffffffffffff\n      and\n      0x2418e839ad4c0f144bc60f490f1eb5b185b703ca1580f8ed903094988e666116\n      mload(0x40)\n      mload(0x40)\n      dup1\n      swap2\n      sub\n      swap1\n      log3\n        /* \"contracts/Smart.sol\":1345:1524  function EtherPay() public payable {... */\n      pop\n      jump\t// out\n        /* \"contracts/Smart.sol\":813:1011  function transferOwnership(address newOwner) public virtual onlyOwner {... */\n    tag_20:\n        /* \"contracts/Smart.sol\":633:645  _msgSender() */\n      tag_37\n        /* \"contracts/Smart.sol\":633:643  _msgSender */\n      tag_23\n        /* \"contracts/Smart.sol\":633:645  _msgSender() */\n      jump\t// in\n    tag_37:\n        /* \"contracts/Smart.sol\":622:645  owner() == _msgSender() */\n      0xffffffffffffffffffffffffffffffffffffffff\n      and\n        /* \"contracts/Smart.sol\":622:629  owner() */\n      tag_38\n        /* \"contracts/Smart.sol\":622:627  owner */\n      tag_11\n        /* \"contracts/Smart.sol\":622:629  owner() */\n      jump\t// in\n    tag_38:\n        /* \"contracts/Smart.sol\":622:645  owner() == _msgSender() */\n      0xffffffffffffffffffffffffffffffffffffffff\n      and\n      eq\n        /* \"contracts/Smart.sol\":614:682  require(owner() == _msgSender(), \"Ownable: caller is not the owner\") */\n      tag_39\n      jumpi\n      mload(0x40)\n      0x08c379a000000000000000000000000000000000000000000000000000000000\n      dup2\n      mstore\n      0x04\n      add\n      tag_40\n      swap1\n      tag_27\n      jump\t// in\n    tag_40:\n      mload(0x40)\n      dup1\n      swap2\n      sub\n      swap1\n      revert\n    tag_39:\n        /* \"contracts/Smart.sol\":921:922  0 */\n      0x00\n        /* \"contracts/Smart.sol\":901:923  newOwner != address(0) */\n      0xffffffffffffffffffffffffffffffffffffffff\n      and\n        /* \"contracts/Smart.sol\":901:909  newOwner */\n      dup2\n        /* \"contracts/Smart.sol\":901:923  newOwner != address(0) */\n      0xffffffffffffffffffffffffffffffffffffffff\n      and\n      eq\n      iszero\n        /* \"contracts/Smart.sol\":893:966  require(newOwner != address(0), \"Ownable: new owner is the zero address\") */\n      tag_42\n      jumpi\n      mload(0x40)\n      0x08c379a000000000000000000000000000000000000000000000000000000000\n      dup2\n      mstore\n      0x04\n      add\n      tag_43\n      swap1\n      tag_44\n      jump\t// in\n    tag_43:\n      mload(0x40)\n      dup1\n      swap2\n      sub\n      swap1\n      revert\n    tag_42:\n        /* \"contracts/Smart.sol\":976:1004  _transferOwnership(newOwner) */\n      tag_45\n        /* \"contracts/Smart.sol\":995:1003  newOwner */\n      dup2\n        /* \"contracts/Smart.sol\":976:994  _transferOwnership */\n      tag_30\n        /* \"contracts/Smart.sol\":976:1004  _transferOwnership(newOwner) */\n      jump\t// in\n    tag_45:\n        /* \"contracts/Smart.sol\":813:1011  function transferOwnership(address newOwner) public virtual onlyOwner {... */\n      pop\n      jump\t// out\n        /* \"contracts/Smart.sol\":56:152  function _msgSender() internal view virtual returns (address) {... */\n    tag_23:\n        /* \"contracts/Smart.sol\":109:116  address */\n      0x00\n        /* \"contracts/Smart.sol\":135:145  msg.sender */\n      caller\n        /* \"contracts/Smart.sol\":128:145  return msg.sender */\n      swap1\n      pop\n        /* \"contracts/Smart.sol\":56:152  function _msgSender() internal view virtual returns (address) {... */\n      swap1\n      jump\t// out\n        /* \"contracts/Smart.sol\":1017:1204  function _transferOwnership(address newOwner) internal virtual {... */\n    tag_30:\n        /* \"contracts/Smart.sol\":1090:1106  address oldOwner */\n      0x00\n        /* \"contracts/Smart.sol\":1109:1115  _owner */\n      dup1\n      0x00\n      swap1\n      sload\n      swap1\n      0x0100\n      exp\n      swap1\n      div\n      0xffffffffffffffffffffffffffffffffffffffff\n      and\n        /* \"contracts/Smart.sol\":1090:1115  address oldOwner = _owner */\n      swap1\n      pop\n        /* \"contracts/Smart.sol\":1134:1142  newOwner */\n      dup2\n        /* \"contracts/Smart.sol\":1125:1131  _owner */\n      0x00\n      dup1\n        /* \"contracts/Smart.sol\":1125:1142  _owner = newOwner */\n      0x0100\n      exp\n      dup2\n      sload\n      dup2\n      0xffffffffffffffffffffffffffffffffffffffff\n      mul\n      not\n      and\n      swap1\n      dup4\n      0xffffffffffffffffffffffffffffffffffffffff\n      and\n      mul\n      or\n      swap1\n      sstore\n      pop\n        /* \"contracts/Smart.sol\":1188:1196  newOwner */\n      dup2\n        /* \"contracts/Smart.sol\":1157:1197  OwnershipTransferred(oldOwner, newOwner) */\n      0xffffffffffffffffffffffffffffffffffffffff\n      and\n        /* \"contracts/Smart.sol\":1178:1186  oldOwner */\n      dup2\n        /* \"contracts/Smart.sol\":1157:1197  OwnershipTransferred(oldOwner, newOwner) */\n      0xffffffffffffffffffffffffffffffffffffffff\n      and\n      0x8be0079c531659141344cd1fd0a4f28419497f9722a3daafe3b4186f6b6457e0\n      mload(0x40)\n      mload(0x40)\n      dup1\n      swap2\n      sub\n      swap1\n      log3\n        /* \"contracts/Smart.sol\":1017:1204  function _transferOwnership(address newOwner) internal virtual {... */\n      pop\n      pop\n      jump\t// out\n        /* \"#utility.yul\":7:146   */\n    tag_49:\n        /* \"#utility.yul\":53:58   */\n      0x00\n        /* \"#utility.yul\":91:97   */\n      dup2\n        /* \"#utility.yul\":78:98   */\n      calldataload\n        /* \"#utility.yul\":69:98   */\n      swap1\n      pop\n        /* \"#utility.yul\":107:140   */\n      tag_51\n        /* \"#utility.yul\":134:139   */\n      dup2\n        /* \"#utility.yul\":107:140   */\n      tag_52\n      jump\t// in\n    tag_51:\n        /* \"#utility.yul\":59:146   */\n      swap3\n      swap2\n      pop\n      pop\n      jump\t// out\n        /* \"#utility.yul\":152:414   */\n    tag_19:\n        /* \"#utility.yul\":211:217   */\n      0x00\n        /* \"#utility.yul\":260:262   */\n      0x20\n        /* \"#utility.yul\":248:257   */\n      dup3\n        /* \"#utility.yul\":239:246   */\n      dup5\n        /* \"#utility.yul\":235:258   */\n      sub\n        /* \"#utility.yul\":231:263   */\n      slt\n        /* \"#utility.yul\":228:230   */\n      iszero\n      tag_54\n      jumpi\n        /* \"#utility.yul\":276:277   */\n      0x00\n        /* \"#utility.yul\":273:274   */\n      dup1\n        /* \"#utility.yul\":266:278   */\n      revert\n        /* \"#utility.yul\":228:230   */\n    tag_54:\n        /* \"#utility.yul\":319:320   */\n      0x00\n        /* \"#utility.yul\":344:397   */\n      tag_55\n        /* \"#utility.yul\":389:396   */\n      dup5\n        /* \"#utility.yul\":380:386   */\n      dup3\n        /* \"#utility.yul\":369:378   */\n      dup6\n        /* \"#utility.yul\":365:387   */\n      add\n        /* \"#utility.yul\":344:397   */\n      tag_49\n      jump\t// in\n    tag_55:\n        /* \"#utility.yul\":334:397   */\n      swap2\n      pop\n        /* \"#utility.yul\":290:407   */\n      pop\n        /* \"#utility.yul\":218:414   */\n      swap3\n      swap2\n      pop\n      pop\n      jump\t// out\n        /* \"#utility.yul\":420:538   */\n    tag_56:\n        /* \"#utility.yul\":507:531   */\n      tag_58\n        /* \"#utility.yul\":525:530   */\n      dup2\n        /* \"#utility.yul\":507:531   */\n      tag_59\n      jump\t// in\n    tag_58:\n        /* \"#utility.yul\":502:505   */\n      dup3\n        /* \"#utility.yul\":495:532   */\n      mstore\n        /* \"#utility.yul\":485:538   */\n      pop\n      pop\n      jump\t// out\n        /* \"#utility.yul\":544:910   */\n    tag_60:\n        /* \"#utility.yul\":686:689   */\n      0x00\n        /* \"#utility.yul\":707:774   */\n      tag_62\n        /* \"#utility.yul\":771:773   */\n      0x26\n        /* \"#utility.yul\":766:769   */\n      dup4\n        /* \"#utility.yul\":707:774   */\n      tag_63\n      jump\t// in\n    tag_62:\n        /* \"#utility.yul\":700:774   */\n      swap2\n      pop\n        /* \"#utility.yul\":783:876   */\n      tag_64\n        /* \"#utility.yul\":872:875   */\n      dup3\n        /* \"#utility.yul\":783:876   */\n      tag_65\n      jump\t// in\n    tag_64:\n        /* \"#utility.yul\":901:903   */\n      0x40\n        /* \"#utility.yul\":896:899   */\n      dup3\n        /* \"#utility.yul\":892:904   */\n      add\n        /* \"#utility.yul\":885:904   */\n      swap1\n      pop\n        /* \"#utility.yul\":690:910   */\n      swap2\n      swap1\n      pop\n      jump\t// out\n        /* \"#utility.yul\":916:1282   */\n    tag_66:\n        /* \"#utility.yul\":1058:1061   */\n      0x00\n        /* \"#utility.yul\":1079:1146   */\n      tag_68\n        /* \"#utility.yul\":1143:1145   */\n      0x20\n        /* \"#utility.yul\":1138:1141   */\n      dup4\n        /* \"#utility.yul\":1079:1146   */\n      tag_63\n      jump\t// in\n    tag_68:\n        /* \"#utility.yul\":1072:1146   */\n      swap2\n      pop\n        /* \"#utility.yul\":1155:1248   */\n      tag_69\n        /* \"#utility.yul\":1244:1247   */\n      dup3\n        /* \"#utility.yul\":1155:1248   */\n      tag_70\n      jump\t// in\n    tag_69:\n        /* \"#utility.yul\":1273:1275   */\n      0x20\n        /* \"#utility.yul\":1268:1271   */\n      dup3\n        /* \"#utility.yul\":1264:1276   */\n      add\n        /* \"#utility.yul\":1257:1276   */\n      swap1\n      pop\n        /* \"#utility.yul\":1062:1282   */\n      swap2\n      swap1\n      pop\n      jump\t// out\n        /* \"#utility.yul\":1288:1510   */\n    tag_13:\n        /* \"#utility.yul\":1381:1385   */\n      0x00\n        /* \"#utility.yul\":1419:1421   */\n      0x20\n        /* \"#utility.yul\":1408:1417   */\n      dup3\n        /* \"#utility.yul\":1404:1422   */\n      add\n        /* \"#utility.yul\":1396:1422   */\n      swap1\n      pop\n        /* \"#utility.yul\":1432:1503   */\n      tag_72\n        /* \"#utility.yul\":1500:1501   */\n      0x00\n        /* \"#utility.yul\":1489:1498   */\n      dup4\n        /* \"#utility.yul\":1485:1502   */\n      add\n        /* \"#utility.yul\":1476:1482   */\n      dup5\n        /* \"#utility.yul\":1432:1503   */\n      tag_56\n      jump\t// in\n    tag_72:\n        /* \"#utility.yul\":1386:1510   */\n      swap3\n      swap2\n      pop\n      pop\n      jump\t// out\n        /* \"#utility.yul\":1516:1935   */\n    tag_44:\n        /* \"#utility.yul\":1682:1686   */\n      0x00\n        /* \"#utility.yul\":1720:1722   */\n      0x20\n        /* \"#utility.yul\":1709:1718   */\n      dup3\n        /* \"#utility.yul\":1705:1723   */\n      add\n        /* \"#utility.yul\":1697:1723   */\n      swap1\n      pop\n        /* \"#utility.yul\":1769:1778   */\n      dup2\n        /* \"#utility.yul\":1763:1767   */\n      dup2\n        /* \"#utility.yul\":1759:1779   */\n      sub\n        /* \"#utility.yul\":1755:1756   */\n      0x00\n        /* \"#utility.yul\":1744:1753   */\n      dup4\n        /* \"#utility.yul\":1740:1757   */\n      add\n        /* \"#utility.yul\":1733:1780   */\n      mstore\n        /* \"#utility.yul\":1797:1928   */\n      tag_74\n        /* \"#utility.yul\":1923:1927   */\n      dup2\n        /* \"#utility.yul\":1797:1928   */\n      tag_60\n      jump\t// in\n    tag_74:\n        /* \"#utility.yul\":1789:1928   */\n      swap1\n      pop\n        /* \"#utility.yul\":1687:1935   */\n      swap2\n      swap1\n      pop\n      jump\t// out\n        /* \"#utility.yul\":1941:2360   */\n    tag_27:\n        /* \"#utility.yul\":2107:2111   */\n      0x00\n        /* \"#utility.yul\":2145:2147   */\n      0x20\n        /* \"#utility.yul\":2134:2143   */\n      dup3\n        /* \"#utility.yul\":2130:2148   */\n      add\n        /* \"#utility.yul\":2122:2148   */\n      swap1\n      pop\n        /* \"#utility.yul\":2194:2203   */\n      dup2\n        /* \"#utility.yul\":2188:2192   */\n      dup2\n        /* \"#utility.yul\":2184:2204   */\n      sub\n        /* \"#utility.yul\":2180:2181   */\n      0x00\n        /* \"#utility.yul\":2169:2178   */\n      dup4\n        /* \"#utility.yul\":2165:2182   */\n      add\n        /* \"#utility.yul\":2158:2205   */\n      mstore\n        /* \"#utility.yul\":2222:2353   */\n      tag_76\n        /* \"#utility.yul\":2348:2352   */\n      dup2\n        /* \"#utility.yul\":2222:2353   */\n      tag_66\n      jump\t// in\n    tag_76:\n        /* \"#utility.yul\":2214:2353   */\n      swap1\n      pop\n        /* \"#utility.yul\":2112:2360   */\n      swap2\n      swap1\n      pop\n      jump\t// out\n        /* \"#utility.yul\":2366:2535   */\n    tag_63:\n        /* \"#utility.yul\":2450:2461   */\n      0x00\n        /* \"#utility.yul\":2484:2490   */\n      dup3\n        /* \"#utility.yul\":2479:2482   */\n      dup3\n        /* \"#utility.yul\":2472:2491   */\n      mstore\n        /* \"#utility.yul\":2524:2528   */\n      0x20\n        /* \"#utility.yul\":2519:2522   */\n      dup3\n        /* \"#utility.yul\":2515:2529   */\n      add\n        /* \"#utility.yul\":2500:2529   */\n      swap1\n      pop\n        /* \"#utility.yul\":2462:2535   */\n      swap3\n      swap2\n      pop\n      pop\n      jump\t// out\n        /* \"#utility.yul\":2541:2637   */\n    tag_59:\n        /* \"#utility.yul\":2578:2585   */\n      0x00\n        /* \"#utility.yul\":2607:2631   */\n      tag_79\n        /* \"#utility.yul\":2625:2630   */\n      dup3\n        /* \"#utility.yul\":2607:2631   */\n      tag_80\n      jump\t// in\n    tag_79:\n        /* \"#utility.yul\":2596:2631   */\n      swap1\n      pop\n        /* \"#utility.yul\":2586:2637   */\n      swap2\n      swap1\n      pop\n      jump\t// out\n        /* \"#utility.yul\":2643:2769   */\n    tag_80:\n        /* \"#utility.yul\":2680:2687   */\n      0x00\n        /* \"#utility.yul\":2720:2762   */\n      0xffffffffffffffffffffffffffffffffffffffff\n        /* \"#utility.yul\":2713:2718   */\n      dup3\n        /* \"#utility.yul\":2709:2763   */\n      and\n        /* \"#utility.yul\":2698:2763   */\n      swap1\n      pop\n        /* \"#utility.yul\":2688:2769   */\n      swap2\n      swap1\n      pop\n      jump\t// out\n        /* \"#utility.yul\":2775:3000   */\n    tag_65:\n        /* \"#utility.yul\":2915:2949   */\n      0x4f776e61626c653a206e6577206f776e657220697320746865207a65726f2061\n        /* \"#utility.yul\":2911:2912   */\n      0x00\n        /* \"#utility.yul\":2903:2909   */\n      dup3\n        /* \"#utility.yul\":2899:2913   */\n      add\n        /* \"#utility.yul\":2892:2950   */\n      mstore\n        /* \"#utility.yul\":2984:2992   */\n      0x6464726573730000000000000000000000000000000000000000000000000000\n        /* \"#utility.yul\":2979:2981   */\n      0x20\n        /* \"#utility.yul\":2971:2977   */\n      dup3\n        /* \"#utility.yul\":2967:2982   */\n      add\n        /* \"#utility.yul\":2960:2993   */\n      mstore\n        /* \"#utility.yul\":2881:3000   */\n      pop\n      jump\t// out\n        /* \"#utility.yul\":3006:3188   */\n    tag_70:\n        /* \"#utility.yul\":3146:3180   */\n      0x4f776e61626c653a2063616c6c6572206973206e6f7420746865206f776e6572\n        /* \"#utility.yul\":3142:3143   */\n      0x00\n        /* \"#utility.yul\":3134:3140   */\n      dup3\n        /* \"#utility.yul\":3130:3144   */\n      add\n        /* \"#utility.yul\":3123:3181   */\n      mstore\n        /* \"#utility.yul\":3112:3188   */\n      pop\n      jump\t// out\n        /* \"#utility.yul\":3194:3316   */\n    tag_52:\n        /* \"#utility.yul\":3267:3291   */\n      tag_85\n        /* \"#utility.yul\":3285:3290   */\n      dup2\n        /* \"#utility.yul\":3267:3291   */\n      tag_59\n      jump\t// in\n    tag_85:\n        /* \"#utility.yul\":3260:3265   */\n      dup2\n        /* \"#utility.yul\":3257:3292   */\n      eq\n        /* \"#utility.yul\":3247:3249   */\n      tag_86\n      jumpi\n        /* \"#utility.yul\":3306:3307   */\n      0x00\n        /* \"#utility.yul\":3303:3304   */\n      dup1\n        /* \"#utility.yul\":3296:3308   */\n      revert\n        /* \"#utility.yul\":3247:3249   */\n    tag_86:\n        /* \"#utility.yul\":3237:3316   */\n      pop\n      jump\t// out\n\n    auxdata: 0xa2646970667358221220344141fd7a19aa5f96c8e2da8381cbfc659dfece73185432b704650ddb2036e964736f6c63430008040033\n}\n",
				"bytecode": {
					"linkReferences": {},
					"object": "608060405234801561001057600080fd5b5061002d61002261003260201b60201c565b61003a60201b60201c565b6100fe565b600033905090565b60008060009054906101000a900473ffffffffffffffffffffffffffffffffffffffff169050816000806101000a81548173ffffffffffffffffffffffffffffffffffffffff021916908373ffffffffffffffffffffffffffffffffffffffff1602179055508173ffffffffffffffffffffffffffffffffffffffff168173ffffffffffffffffffffffffffffffffffffffff167f8be0079c531659141344cd1fd0a4f28419497f9722a3daafe3b4186f6b6457e060405160405180910390a35050565b6105d48061010d6000396000f3fe60806040526004361061003f5760003560e01c8063715018a6146100445780638da5cb5b1461005b578063bc73d34614610086578063f2fde38b14610090575b600080fd5b34801561005057600080fd5b506100596100b9565b005b34801561006757600080fd5b50610070610141565b60405161007d9190610471565b60405180910390f35b61008e61016a565b005b34801561009c57600080fd5b506100b760048036038101906100b291906103f3565b61021a565b005b6100c1610312565b73ffffffffffffffffffffffffffffffffffffffff166100df610141565b73ffffffffffffffffffffffffffffffffffffffff1614610135576040517f08c379a000000000000000000000000000000000000000000000000000000000815260040161012c906104ac565b60405180910390fd5b61013f600061031a565b565b60008060009054906101000a900473ffffffffffffffffffffffffffffffffffffffff16905090565b6000610174610141565b90508073ffffffffffffffffffffffffffffffffffffffff166108fc479081150290604051600060405180830381858888f193505050501580156101bc573d6000803e3d6000fd5b503073ffffffffffffffffffffffffffffffffffffffff168173ffffffffffffffffffffffffffffffffffffffff167f2418e839ad4c0f144bc60f490f1eb5b185b703ca1580f8ed903094988e66611660405160405180910390a350565b610222610312565b73ffffffffffffffffffffffffffffffffffffffff16610240610141565b73ffffffffffffffffffffffffffffffffffffffff1614610296576040517f08c379a000000000000000000000000000000000000000000000000000000000815260040161028d906104ac565b60405180910390fd5b600073ffffffffffffffffffffffffffffffffffffffff168173ffffffffffffffffffffffffffffffffffffffff161415610306576040517f08c379a00000000000000000000000000000000000000000000000000000000081526004016102fd9061048c565b60405180910390fd5b61030f8161031a565b50565b600033905090565b60008060009054906101000a900473ffffffffffffffffffffffffffffffffffffffff169050816000806101000a81548173ffffffffffffffffffffffffffffffffffffffff021916908373ffffffffffffffffffffffffffffffffffffffff1602179055508173ffffffffffffffffffffffffffffffffffffffff168173ffffffffffffffffffffffffffffffffffffffff167f8be0079c531659141344cd1fd0a4f28419497f9722a3daafe3b4186f6b6457e060405160405180910390a35050565b6000813590506103ed81610587565b92915050565b60006020828403121561040557600080fd5b6000610413848285016103de565b91505092915050565b610425816104dd565b82525050565b60006104386026836104cc565b91506104438261050f565b604082019050919050565b600061045b6020836104cc565b91506104668261055e565b602082019050919050565b6000602082019050610486600083018461041c565b92915050565b600060208201905081810360008301526104a58161042b565b9050919050565b600060208201905081810360008301526104c58161044e565b9050919050565b600082825260208201905092915050565b60006104e8826104ef565b9050919050565b600073ffffffffffffffffffffffffffffffffffffffff82169050919050565b7f4f776e61626c653a206e6577206f776e657220697320746865207a65726f206160008201527f6464726573730000000000000000000000000000000000000000000000000000602082015250565b7f4f776e61626c653a2063616c6c6572206973206e6f7420746865206f776e6572600082015250565b610590816104dd565b811461059b57600080fd5b5056fea2646970667358221220344141fd7a19aa5f96c8e2da8381cbfc659dfece73185432b704650ddb2036e964736f6c63430008040033",
					"opcodes": "PUSH1 0x80 PUSH1 0x40 MSTORE CALLVALUE DUP1 ISZERO PUSH2 0x10 JUMPI PUSH1 0x0 DUP1 REVERT JUMPDEST POP PUSH2 0x2D PUSH2 0x22 PUSH2 0x32 PUSH1 0x20 SHL PUSH1 0x20 SHR JUMP JUMPDEST PUSH2 0x3A PUSH1 0x20 SHL PUSH1 0x20 SHR JUMP JUMPDEST PUSH2 0xFE JUMP JUMPDEST PUSH1 0x0 CALLER SWAP1 POP SWAP1 JUMP JUMPDEST PUSH1 0x0 DUP1 PUSH1 0x0 SWAP1 SLOAD SWAP1 PUSH2 0x100 EXP SWAP1 DIV PUSH20 0xFFFFFFFFFFFFFFFFFFFFFFFFFFFFFFFFFFFFFFFF AND SWAP1 POP DUP2 PUSH1 0x0 DUP1 PUSH2 0x100 EXP DUP2 SLOAD DUP2 PUSH20 0xFFFFFFFFFFFFFFFFFFFFFFFFFFFFFFFFFFFFFFFF MUL NOT AND SWAP1 DUP4 PUSH20 0xFFFFFFFFFFFFFFFFFFFFFFFFFFFFFFFFFFFFFFFF AND MUL OR SWAP1 SSTORE POP DUP2 PUSH20 0xFFFFFFFFFFFFFFFFFFFFFFFFFFFFFFFFFFFFFFFF AND DUP2 PUSH20 0xFFFFFFFFFFFFFFFFFFFFFFFFFFFFFFFFFFFFFFFF AND PUSH32 0x8BE0079C531659141344CD1FD0A4F28419497F9722A3DAAFE3B4186F6B6457E0 PUSH1 0x40 MLOAD PUSH1 0x40 MLOAD DUP1 SWAP2 SUB SWAP1 LOG3 POP POP JUMP JUMPDEST PUSH2 0x5D4 DUP1 PUSH2 0x10D PUSH1 0x0 CODECOPY PUSH1 0x0 RETURN INVALID PUSH1 0x80 PUSH1 0x40 MSTORE PUSH1 0x4 CALLDATASIZE LT PUSH2 0x3F JUMPI PUSH1 0x0 CALLDATALOAD PUSH1 0xE0 SHR DUP1 PUSH4 0x715018A6 EQ PUSH2 0x44 JUMPI DUP1 PUSH4 0x8DA5CB5B EQ PUSH2 0x5B JUMPI DUP1 PUSH4 0xBC73D346 EQ PUSH2 0x86 JUMPI DUP1 PUSH4 0xF2FDE38B EQ PUSH2 0x90 JUMPI JUMPDEST PUSH1 0x0 DUP1 REVERT JUMPDEST CALLVALUE DUP1 ISZERO PUSH2 0x50 JUMPI PUSH1 0x0 DUP1 REVERT JUMPDEST POP PUSH2 0x59 PUSH2 0xB9 JUMP JUMPDEST STOP JUMPDEST CALLVALUE DUP1 ISZERO PUSH2 0x67 JUMPI PUSH1 0x0 DUP1 REVERT JUMPDEST POP PUSH2 0x70 PUSH2 0x141 JUMP JUMPDEST PUSH1 0x40 MLOAD PUSH2 0x7D SWAP2 SWAP1 PUSH2 0x471 JUMP JUMPDEST PUSH1 0x40 MLOAD DUP1 SWAP2 SUB SWAP1 RETURN JUMPDEST PUSH2 0x8E PUSH2 0x16A JUMP JUMPDEST STOP JUMPDEST CALLVALUE DUP1 ISZERO PUSH2 0x9C JUMPI PUSH1 0x0 DUP1 REVERT JUMPDEST POP PUSH2 0xB7 PUSH1 0x4 DUP1 CALLDATASIZE SUB DUP2 ADD SWAP1 PUSH2 0xB2 SWAP2 SWAP1 PUSH2 0x3F3 JUMP JUMPDEST PUSH2 0x21A JUMP JUMPDEST STOP JUMPDEST PUSH2 0xC1 PUSH2 0x312 JUMP JUMPDEST PUSH20 0xFFFFFFFFFFFFFFFFFFFFFFFFFFFFFFFFFFFFFFFF AND PUSH2 0xDF PUSH2 0x141 JUMP JUMPDEST PUSH20 0xFFFFFFFFFFFFFFFFFFFFFFFFFFFFFFFFFFFFFFFF AND EQ PUSH2 0x135 JUMPI PUSH1 0x40 MLOAD PUSH32 0x8C379A000000000000000000000000000000000000000000000000000000000 DUP2 MSTORE PUSH1 0x4 ADD PUSH2 0x12C SWAP1 PUSH2 0x4AC JUMP JUMPDEST PUSH1 0x40 MLOAD DUP1 SWAP2 SUB SWAP1 REVERT JUMPDEST PUSH2 0x13F PUSH1 0x0 PUSH2 0x31A JUMP JUMPDEST JUMP JUMPDEST PUSH1 0x0 DUP1 PUSH1 0x0 SWAP1 SLOAD SWAP1 PUSH2 0x100 EXP SWAP1 DIV PUSH20 0xFFFFFFFFFFFFFFFFFFFFFFFFFFFFFFFFFFFFFFFF AND SWAP1 POP SWAP1 JUMP JUMPDEST PUSH1 0x0 PUSH2 0x174 PUSH2 0x141 JUMP JUMPDEST SWAP1 POP DUP1 PUSH20 0xFFFFFFFFFFFFFFFFFFFFFFFFFFFFFFFFFFFFFFFF AND PUSH2 0x8FC SELFBALANCE SWAP1 DUP2 ISZERO MUL SWAP1 PUSH1 0x40 MLOAD PUSH1 0x0 PUSH1 0x40 MLOAD DUP1 DUP4 SUB DUP2 DUP6 DUP9 DUP9 CALL SWAP4 POP POP POP POP ISZERO DUP1 ISZERO PUSH2 0x1BC JUMPI RETURNDATASIZE PUSH1 0x0 DUP1 RETURNDATACOPY RETURNDATASIZE PUSH1 0x0 REVERT JUMPDEST POP ADDRESS PUSH20 0xFFFFFFFFFFFFFFFFFFFFFFFFFFFFFFFFFFFFFFFF AND DUP2 PUSH20 0xFFFFFFFFFFFFFFFFFFFFFFFFFFFFFFFFFFFFFFFF AND PUSH32 0x2418E839AD4C0F144BC60F490F1EB5B185B703CA1580F8ED903094988E666116 PUSH1 0x40 MLOAD PUSH1 0x40 MLOAD DUP1 SWAP2 SUB SWAP1 LOG3 POP JUMP JUMPDEST PUSH2 0x222 PUSH2 0x312 JUMP JUMPDEST PUSH20 0xFFFFFFFFFFFFFFFFFFFFFFFFFFFFFFFFFFFFFFFF AND PUSH2 0x240 PUSH2 0x141 JUMP JUMPDEST PUSH20 0xFFFFFFFFFFFFFFFFFFFFFFFFFFFFFFFFFFFFFFFF AND EQ PUSH2 0x296 JUMPI PUSH1 0x40 MLOAD PUSH32 0x8C379A000000000000000000000000000000000000000000000000000000000 DUP2 MSTORE PUSH1 0x4 ADD PUSH2 0x28D SWAP1 PUSH2 0x4AC JUMP JUMPDEST PUSH1 0x40 MLOAD DUP1 SWAP2 SUB SWAP1 REVERT JUMPDEST PUSH1 0x0 PUSH20 0xFFFFFFFFFFFFFFFFFFFFFFFFFFFFFFFFFFFFFFFF AND DUP2 PUSH20 0xFFFFFFFFFFFFFFFFFFFFFFFFFFFFFFFFFFFFFFFF AND EQ ISZERO PUSH2 0x306 JUMPI PUSH1 0x40 MLOAD PUSH32 0x8C379A000000000000000000000000000000000000000000000000000000000 DUP2 MSTORE PUSH1 0x4 ADD PUSH2 0x2FD SWAP1 PUSH2 0x48C JUMP JUMPDEST PUSH1 0x40 MLOAD DUP1 SWAP2 SUB SWAP1 REVERT JUMPDEST PUSH2 0x30F DUP2 PUSH2 0x31A JUMP JUMPDEST POP JUMP JUMPDEST PUSH1 0x0 CALLER SWAP1 POP SWAP1 JUMP JUMPDEST PUSH1 0x0 DUP1 PUSH1 0x0 SWAP1 SLOAD SWAP1 PUSH2 0x100 EXP SWAP1 DIV PUSH20 0xFFFFFFFFFFFFFFFFFFFFFFFFFFFFFFFFFFFFFFFF AND SWAP1 POP DUP2 PUSH1 0x0 DUP1 PUSH2 0x100 EXP DUP2 SLOAD DUP2 PUSH20 0xFFFFFFFFFFFFFFFFFFFFFFFFFFFFFFFFFFFFFFFF MUL NOT AND SWAP1 DUP4 PUSH20 0xFFFFFFFFFFFFFFFFFFFFFFFFFFFFFFFFFFFFFFFF AND MUL OR SWAP1 SSTORE POP DUP2 PUSH20 0xFFFFFFFFFFFFFFFFFFFFFFFFFFFFFFFFFFFFFFFF AND DUP2 PUSH20 0xFFFFFFFFFFFFFFFFFFFFFFFFFFFFFFFFFFFFFFFF AND PUSH32 0x8BE0079C531659141344CD1FD0A4F28419497F9722A3DAAFE3B4186F6B6457E0 PUSH1 0x40 MLOAD PUSH1 0x40 MLOAD DUP1 SWAP2 SUB SWAP1 LOG3 POP POP JUMP JUMPDEST PUSH1 0x0 DUP2 CALLDATALOAD SWAP1 POP PUSH2 0x3ED DUP2 PUSH2 0x587 JUMP JUMPDEST SWAP3 SWAP2 POP POP JUMP JUMPDEST PUSH1 0x0 PUSH1 0x20 DUP3 DUP5 SUB SLT ISZERO PUSH2 0x405 JUMPI PUSH1 0x0 DUP1 REVERT JUMPDEST PUSH1 0x0 PUSH2 0x413 DUP5 DUP3 DUP6 ADD PUSH2 0x3DE JUMP JUMPDEST SWAP2 POP POP SWAP3 SWAP2 POP POP JUMP JUMPDEST PUSH2 0x425 DUP2 PUSH2 0x4DD JUMP JUMPDEST DUP3 MSTORE POP POP JUMP JUMPDEST PUSH1 0x0 PUSH2 0x438 PUSH1 0x26 DUP4 PUSH2 0x4CC JUMP JUMPDEST SWAP2 POP PUSH2 0x443 DUP3 PUSH2 0x50F JUMP JUMPDEST PUSH1 0x40 DUP3 ADD SWAP1 POP SWAP2 SWAP1 POP JUMP JUMPDEST PUSH1 0x0 PUSH2 0x45B PUSH1 0x20 DUP4 PUSH2 0x4CC JUMP JUMPDEST SWAP2 POP PUSH2 0x466 DUP3 PUSH2 0x55E JUMP JUMPDEST PUSH1 0x20 DUP3 ADD SWAP1 POP SWAP2 SWAP1 POP JUMP JUMPDEST PUSH1 0x0 PUSH1 0x20 DUP3 ADD SWAP1 POP PUSH2 0x486 PUSH1 0x0 DUP4 ADD DUP5 PUSH2 0x41C JUMP JUMPDEST SWAP3 SWAP2 POP POP JUMP JUMPDEST PUSH1 0x0 PUSH1 0x20 DUP3 ADD SWAP1 POP DUP2 DUP2 SUB PUSH1 0x0 DUP4 ADD MSTORE PUSH2 0x4A5 DUP2 PUSH2 0x42B JUMP JUMPDEST SWAP1 POP SWAP2 SWAP1 POP JUMP JUMPDEST PUSH1 0x0 PUSH1 0x20 DUP3 ADD SWAP1 POP DUP2 DUP2 SUB PUSH1 0x0 DUP4 ADD MSTORE PUSH2 0x4C5 DUP2 PUSH2 0x44E JUMP JUMPDEST SWAP1 POP SWAP2 SWAP1 POP JUMP JUMPDEST PUSH1 0x0 DUP3 DUP3 MSTORE PUSH1 0x20 DUP3 ADD SWAP1 POP SWAP3 SWAP2 POP POP JUMP JUMPDEST PUSH1 0x0 PUSH2 0x4E8 DUP3 PUSH2 0x4EF JUMP JUMPDEST SWAP1 POP SWAP2 SWAP1 POP JUMP JUMPDEST PUSH1 0x0 PUSH20 0xFFFFFFFFFFFFFFFFFFFFFFFFFFFFFFFFFFFFFFFF DUP3 AND SWAP1 POP SWAP2 SWAP1 POP JUMP JUMPDEST PUSH32 0x4F776E61626C653A206E6577206F776E657220697320746865207A65726F2061 PUSH1 0x0 DUP3 ADD MSTORE PUSH32 0x6464726573730000000000000000000000000000000000000000000000000000 PUSH1 0x20 DUP3 ADD MSTORE POP JUMP JUMPDEST PUSH32 0x4F776E61626C653A2063616C6C6572206973206E6F7420746865206F776E6572 PUSH1 0x0 DUP3 ADD MSTORE POP JUMP JUMPDEST PUSH2 0x590 DUP2 PUSH2 0x4DD JUMP JUMPDEST DUP2 EQ PUSH2 0x59B JUMPI PUSH1 0x0 DUP1 REVERT JUMPDEST POP JUMP INVALID LOG2 PUSH5 0x6970667358 0x22 SLT KECCAK256 CALLVALUE COINBASE COINBASE REVERT PUSH27 0x19AA5F96C8E2DA8381CBFC659DFECE73185432B704650DDB2036E9 PUSH5 0x736F6C6343 STOP ADDMOD DIV STOP CALLER "
				},
				"gasEstimates": {
					"creation": {
						"codeDepositCost": "298400",
						"executionCost": "infinite",
						"totalCost": "infinite"
					},
					"external": {
						"EtherPay()": "infinite",
						"owner()": "1222",
						"renounceOwnership()": "24352",
						"transferOwnership(address)": "24767"
					}
				},
				"methodIdentifiers": {
					"EtherPay()": "bc73d346",
					"owner()": "8da5cb5b",
					"renounceOwnership()": "715018a6",
					"transferOwnership(address)": "f2fde38b"
				}
			},
			"storageLayout": {
				"storage": [
					{
						"astId": 24,
						"contract": "contracts/Smart.sol:FifaClub",
						"label": "_owner",
						"offset": 0,
						"slot": "0",
						"type": "t_address"
					}
				],
				"types": {
					"t_address": {
						"encoding": "inplace",
						"label": "address",
						"numberOfBytes": "20"
					}
				}
			},
			"userdoc": {
				"kind": "user",
				"methods": {},
				"version": 1
			}
		}
	}
}