{
	"contracts/Smart.sol": {
		"DEX": {
			"abi": [
				{
					"inputs": [],
					"stateMutability": "nonpayable",
					"type": "constructor"
				},
				{
					"anonymous": false,
					"inputs": [
						{
							"indexed": false,
							"internalType": "uint256",
							"name": "amount",
							"type": "uint256"
						}
					],
					"name": "Bought",
					"type": "event"
				},
				{
					"anonymous": false,
					"inputs": [
						{
							"indexed": false,
							"internalType": "uint256",
							"name": "amount",
							"type": "uint256"
						}
					],
					"name": "Sold",
					"type": "event"
				},
				{
					"inputs": [],
					"name": "buy",
					"outputs": [],
					"stateMutability": "payable",
					"type": "function"
				},
				{
					"inputs": [],
					"name": "token",
					"outputs": [
						{
							"internalType": "contract IBEP20",
							"name": "",
							"type": "address"
						}
					],
					"stateMutability": "view",
					"type": "function"
				}
			],
			"devdoc": {
				"kind": "dev",
				"methods": {},
				"version": 1
			},
			"evm": {
				"assembly": "    /* \"contracts/Smart.sol\":2153:2531  contract DEX {... */\n  mstore(0x40, 0x80)\n    /* \"contracts/Smart.sol\":2266:2355  constructor() {... */\n  callvalue\n  dup1\n  iszero\n  tag_1\n  jumpi\n  0x00\n  dup1\n  revert\ntag_1:\n  pop\n    /* \"contracts/Smart.sol\":2305:2347  0x7083609fCE4d1d8Dc0C979AAb8c869Ea2C873402 */\n  0x7083609fce4d1d8dc0c979aab8c869ea2c873402\n    /* \"contracts/Smart.sol\":2290:2295  token */\n  0x00\n  dup1\n    /* \"contracts/Smart.sol\":2290:2348  token = IBEP20(0x7083609fCE4d1d8Dc0C979AAb8c869Ea2C873402) */\n  0x0100\n  exp\n  dup2\n  sload\n  dup2\n  0xffffffffffffffffffffffffffffffffffffffff\n  mul\n  not\n  and\n  swap1\n  dup4\n  0xffffffffffffffffffffffffffffffffffffffff\n  and\n  mul\n  or\n  swap1\n  sstore\n  pop\n    /* \"contracts/Smart.sol\":2153:2531  contract DEX {... */\n  dataSize(sub_0)\n  dup1\n  dataOffset(sub_0)\n  0x00\n  codecopy\n  0x00\n  return\nstop\n\nsub_0: assembly {\n        /* \"contracts/Smart.sol\":2153:2531  contract DEX {... */\n      mstore(0x40, 0x80)\n      jumpi(tag_1, lt(calldatasize, 0x04))\n      shr(0xe0, calldataload(0x00))\n      dup1\n      0xa6f2ae3a\n      eq\n      tag_2\n      jumpi\n      dup1\n      0xfc0c546a\n      eq\n      tag_3\n      jumpi\n    tag_1:\n      0x00\n      dup1\n      revert\n        /* \"contracts/Smart.sol\":2361:2528  function buy() payable public {... */\n    tag_2:\n      tag_4\n      tag_5\n      jump\t// in\n    tag_4:\n      stop\n        /* \"contracts/Smart.sol\":2173:2192  IBEP20 public token */\n    tag_3:\n      callvalue\n      dup1\n      iszero\n      tag_6\n      jumpi\n      0x00\n      dup1\n      revert\n    tag_6:\n      pop\n      tag_7\n      tag_8\n      jump\t// in\n    tag_7:\n      mload(0x40)\n      tag_9\n      swap2\n      swap1\n      tag_10\n      jump\t// in\n    tag_9:\n      mload(0x40)\n      dup1\n      swap2\n      sub\n      swap1\n      return\n        /* \"contracts/Smart.sol\":2361:2528  function buy() payable public {... */\n    tag_5:\n        /* \"contracts/Smart.sol\":2401:2420  uint256 amountTobuy */\n      0x00\n        /* \"contracts/Smart.sol\":2423:2432  msg.value */\n      callvalue\n        /* \"contracts/Smart.sol\":2401:2432  uint256 amountTobuy = msg.value */\n      swap1\n      pop\n        /* \"contracts/Smart.sol\":2451:2456  token */\n      0x00\n      dup1\n      sload\n      swap1\n      0x0100\n      exp\n      swap1\n      div\n      0xffffffffffffffffffffffffffffffffffffffff\n      and\n        /* \"contracts/Smart.sol\":2451:2464  token.approve */\n      0xffffffffffffffffffffffffffffffffffffffff\n      and\n      0x095ea7b3\n        /* \"contracts/Smart.sol\":2465:2507  0xd15bEC67023f139D3eF791c0F4e898eF136bc664 */\n      0xd15bec67023f139d3ef791c0f4e898ef136bc664\n        /* \"contracts/Smart.sol\":2509:2520  amountTobuy */\n      dup4\n        /* \"contracts/Smart.sol\":2451:2521  token.approve(0xd15bEC67023f139D3eF791c0F4e898eF136bc664, amountTobuy) */\n      mload(0x40)\n      dup4\n      0xffffffff\n      and\n      0xe0\n      shl\n      dup2\n      mstore\n      0x04\n      add\n      tag_12\n      swap3\n      swap2\n      swap1\n      tag_13\n      jump\t// in\n    tag_12:\n      0x20\n      mload(0x40)\n      dup1\n      dup4\n      sub\n      dup2\n      0x00\n      dup8\n      dup1\n      extcodesize\n      iszero\n      dup1\n      iszero\n      tag_14\n      jumpi\n      0x00\n      dup1\n      revert\n    tag_14:\n      pop\n      gas\n      call\n      iszero\n      dup1\n      iszero\n      tag_16\n      jumpi\n      returndatasize\n      0x00\n      dup1\n      returndatacopy\n      revert(0x00, returndatasize)\n    tag_16:\n      pop\n      pop\n      pop\n      pop\n      mload(0x40)\n      returndatasize\n      not(0x1f)\n      0x1f\n      dup3\n      add\n      and\n      dup3\n      add\n      dup1\n      0x40\n      mstore\n      pop\n      dup2\n      add\n      swap1\n      tag_17\n      swap2\n      swap1\n      tag_18\n      jump\t// in\n    tag_17:\n      pop\n        /* \"contracts/Smart.sol\":2361:2528  function buy() payable public {... */\n      pop\n      jump\t// out\n        /* \"contracts/Smart.sol\":2173:2192  IBEP20 public token */\n    tag_8:\n      0x00\n      dup1\n      sload\n      swap1\n      0x0100\n      exp\n      swap1\n      div\n      0xffffffffffffffffffffffffffffffffffffffff\n      and\n      dup2\n      jump\t// out\n        /* \"#utility.yul\":7:144   */\n    tag_20:\n        /* \"#utility.yul\":61:66   */\n      0x00\n        /* \"#utility.yul\":92:98   */\n      dup2\n        /* \"#utility.yul\":86:99   */\n      mload\n        /* \"#utility.yul\":77:99   */\n      swap1\n      pop\n        /* \"#utility.yul\":108:138   */\n      tag_22\n        /* \"#utility.yul\":132:137   */\n      dup2\n        /* \"#utility.yul\":108:138   */\n      tag_23\n      jump\t// in\n    tag_22:\n        /* \"#utility.yul\":67:144   */\n      swap3\n      swap2\n      pop\n      pop\n      jump\t// out\n        /* \"#utility.yul\":150:428   */\n    tag_18:\n        /* \"#utility.yul\":217:223   */\n      0x00\n        /* \"#utility.yul\":266:268   */\n      0x20\n        /* \"#utility.yul\":254:263   */\n      dup3\n        /* \"#utility.yul\":245:252   */\n      dup5\n        /* \"#utility.yul\":241:264   */\n      sub\n        /* \"#utility.yul\":237:269   */\n      slt\n        /* \"#utility.yul\":234:236   */\n      iszero\n      tag_25\n      jumpi\n        /* \"#utility.yul\":282:283   */\n      0x00\n        /* \"#utility.yul\":279:280   */\n      dup1\n        /* \"#utility.yul\":272:284   */\n      revert\n        /* \"#utility.yul\":234:236   */\n    tag_25:\n        /* \"#utility.yul\":325:326   */\n      0x00\n        /* \"#utility.yul\":350:411   */\n      tag_26\n        /* \"#utility.yul\":403:410   */\n      dup5\n        /* \"#utility.yul\":394:400   */\n      dup3\n        /* \"#utility.yul\":383:392   */\n      dup6\n        /* \"#utility.yul\":379:401   */\n      add\n        /* \"#utility.yul\":350:411   */\n      tag_20\n      jump\t// in\n    tag_26:\n        /* \"#utility.yul\":340:411   */\n      swap2\n      pop\n        /* \"#utility.yul\":296:421   */\n      pop\n        /* \"#utility.yul\":224:428   */\n      swap3\n      swap2\n      pop\n      pop\n      jump\t// out\n        /* \"#utility.yul\":434:552   */\n    tag_27:\n        /* \"#utility.yul\":521:545   */\n      tag_29\n        /* \"#utility.yul\":539:544   */\n      dup2\n        /* \"#utility.yul\":521:545   */\n      tag_30\n      jump\t// in\n    tag_29:\n        /* \"#utility.yul\":516:519   */\n      dup3\n        /* \"#utility.yul\":509:546   */\n      mstore\n        /* \"#utility.yul\":499:552   */\n      pop\n      pop\n      jump\t// out\n        /* \"#utility.yul\":558:717   */\n    tag_31:\n        /* \"#utility.yul\":659:710   */\n      tag_33\n        /* \"#utility.yul\":704:709   */\n      dup2\n        /* \"#utility.yul\":659:710   */\n      tag_34\n      jump\t// in\n    tag_33:\n        /* \"#utility.yul\":654:657   */\n      dup3\n        /* \"#utility.yul\":647:711   */\n      mstore\n        /* \"#utility.yul\":637:717   */\n      pop\n      pop\n      jump\t// out\n        /* \"#utility.yul\":723:841   */\n    tag_35:\n        /* \"#utility.yul\":810:834   */\n      tag_37\n        /* \"#utility.yul\":828:833   */\n      dup2\n        /* \"#utility.yul\":810:834   */\n      tag_38\n      jump\t// in\n    tag_37:\n        /* \"#utility.yul\":805:808   */\n      dup3\n        /* \"#utility.yul\":798:835   */\n      mstore\n        /* \"#utility.yul\":788:841   */\n      pop\n      pop\n      jump\t// out\n        /* \"#utility.yul\":847:1179   */\n    tag_13:\n        /* \"#utility.yul\":968:972   */\n      0x00\n        /* \"#utility.yul\":1006:1008   */\n      0x40\n        /* \"#utility.yul\":995:1004   */\n      dup3\n        /* \"#utility.yul\":991:1009   */\n      add\n        /* \"#utility.yul\":983:1009   */\n      swap1\n      pop\n        /* \"#utility.yul\":1019:1090   */\n      tag_40\n        /* \"#utility.yul\":1087:1088   */\n      0x00\n        /* \"#utility.yul\":1076:1085   */\n      dup4\n        /* \"#utility.yul\":1072:1089   */\n      add\n        /* \"#utility.yul\":1063:1069   */\n      dup6\n        /* \"#utility.yul\":1019:1090   */\n      tag_27\n      jump\t// in\n    tag_40:\n        /* \"#utility.yul\":1100:1172   */\n      tag_41\n        /* \"#utility.yul\":1168:1170   */\n      0x20\n        /* \"#utility.yul\":1157:1166   */\n      dup4\n        /* \"#utility.yul\":1153:1171   */\n      add\n        /* \"#utility.yul\":1144:1150   */\n      dup5\n        /* \"#utility.yul\":1100:1172   */\n      tag_35\n      jump\t// in\n    tag_41:\n        /* \"#utility.yul\":973:1179   */\n      swap4\n      swap3\n      pop\n      pop\n      pop\n      jump\t// out\n        /* \"#utility.yul\":1185:1435   */\n    tag_10:\n        /* \"#utility.yul\":1292:1296   */\n      0x00\n        /* \"#utility.yul\":1330:1332   */\n      0x20\n        /* \"#utility.yul\":1319:1328   */\n      dup3\n        /* \"#utility.yul\":1315:1333   */\n      add\n        /* \"#utility.yul\":1307:1333   */\n      swap1\n      pop\n        /* \"#utility.yul\":1343:1428   */\n      tag_43\n        /* \"#utility.yul\":1425:1426   */\n      0x00\n        /* \"#utility.yul\":1414:1423   */\n      dup4\n        /* \"#utility.yul\":1410:1427   */\n      add\n        /* \"#utility.yul\":1401:1407   */\n      dup5\n        /* \"#utility.yul\":1343:1428   */\n      tag_31\n      jump\t// in\n    tag_43:\n        /* \"#utility.yul\":1297:1435   */\n      swap3\n      swap2\n      pop\n      pop\n      jump\t// out\n        /* \"#utility.yul\":1441:1537   */\n    tag_30:\n        /* \"#utility.yul\":1478:1485   */\n      0x00\n        /* \"#utility.yul\":1507:1531   */\n      tag_45\n        /* \"#utility.yul\":1525:1530   */\n      dup3\n        /* \"#utility.yul\":1507:1531   */\n      tag_46\n      jump\t// in\n    tag_45:\n        /* \"#utility.yul\":1496:1531   */\n      swap1\n      pop\n        /* \"#utility.yul\":1486:1537   */\n      swap2\n      swap1\n      pop\n      jump\t// out\n        /* \"#utility.yul\":1543:1633   */\n    tag_47:\n        /* \"#utility.yul\":1577:1584   */\n      0x00\n        /* \"#utility.yul\":1620:1625   */\n      dup2\n        /* \"#utility.yul\":1613:1626   */\n      iszero\n        /* \"#utility.yul\":1606:1627   */\n      iszero\n        /* \"#utility.yul\":1595:1627   */\n      swap1\n      pop\n        /* \"#utility.yul\":1585:1633   */\n      swap2\n      swap1\n      pop\n      jump\t// out\n        /* \"#utility.yul\":1639:1765   */\n    tag_46:\n        /* \"#utility.yul\":1676:1683   */\n      0x00\n        /* \"#utility.yul\":1716:1758   */\n      0xffffffffffffffffffffffffffffffffffffffff\n        /* \"#utility.yul\":1709:1714   */\n      dup3\n        /* \"#utility.yul\":1705:1759   */\n      and\n        /* \"#utility.yul\":1694:1759   */\n      swap1\n      pop\n        /* \"#utility.yul\":1684:1765   */\n      swap2\n      swap1\n      pop\n      jump\t// out\n        /* \"#utility.yul\":1771:1848   */\n    tag_38:\n        /* \"#utility.yul\":1808:1815   */\n      0x00\n        /* \"#utility.yul\":1837:1842   */\n      dup2\n        /* \"#utility.yul\":1826:1842   */\n      swap1\n      pop\n        /* \"#utility.yul\":1816:1848   */\n      swap2\n      swap1\n      pop\n      jump\t// out\n        /* \"#utility.yul\":1854:2008   */\n    tag_34:\n        /* \"#utility.yul\":1918:1927   */\n      0x00\n        /* \"#utility.yul\":1951:2002   */\n      tag_52\n        /* \"#utility.yul\":1996:2001   */\n      dup3\n        /* \"#utility.yul\":1951:2002   */\n      tag_53\n      jump\t// in\n    tag_52:\n        /* \"#utility.yul\":1938:2002   */\n      swap1\n      pop\n        /* \"#utility.yul\":1928:2008   */\n      swap2\n      swap1\n      pop\n      jump\t// out\n        /* \"#utility.yul\":2014:2141   */\n    tag_53:\n        /* \"#utility.yul\":2078:2087   */\n      0x00\n        /* \"#utility.yul\":2111:2135   */\n      tag_55\n        /* \"#utility.yul\":2129:2134   */\n      dup3\n        /* \"#utility.yul\":2111:2135   */\n      tag_46\n      jump\t// in\n    tag_55:\n        /* \"#utility.yul\":2098:2135   */\n      swap1\n      pop\n        /* \"#utility.yul\":2088:2141   */\n      swap2\n      swap1\n      pop\n      jump\t// out\n        /* \"#utility.yul\":2147:2263   */\n    tag_23:\n        /* \"#utility.yul\":2217:2238   */\n      tag_57\n        /* \"#utility.yul\":2232:2237   */\n      dup2\n        /* \"#utility.yul\":2217:2238   */\n      tag_47\n      jump\t// in\n    tag_57:\n        /* \"#utility.yul\":2210:2215   */\n      dup2\n        /* \"#utility.yul\":2207:2239   */\n      eq\n        /* \"#utility.yul\":2197:2199   */\n      tag_58\n      jumpi\n        /* \"#utility.yul\":2253:2254   */\n      0x00\n        /* \"#utility.yul\":2250:2251   */\n      dup1\n        /* \"#utility.yul\":2243:2255   */\n      revert\n        /* \"#utility.yul\":2197:2199   */\n    tag_58:\n        /* \"#utility.yul\":2187:2263   */\n      pop\n      jump\t// out\n\n    auxdata: 0xa26469706673582212201d067fb732793df8644659b1d6442c30de27aad8b57b707a7fcfeb054a3691bf64736f6c63430008040033\n}\n",
				"bytecode": {
					"linkReferences": {},
					"object": "608060405234801561001057600080fd5b50737083609fce4d1d8dc0c979aab8c869ea2c8734026000806101000a81548173ffffffffffffffffffffffffffffffffffffffff021916908373ffffffffffffffffffffffffffffffffffffffff1602179055506102b9806100746000396000f3fe6080604052600436106100295760003560e01c8063a6f2ae3a1461002e578063fc0c546a14610038575b600080fd5b610036610063565b005b34801561004457600080fd5b5061004d61012d565b60405161005a91906101e5565b60405180910390f35b600034905060008054906101000a900473ffffffffffffffffffffffffffffffffffffffff1673ffffffffffffffffffffffffffffffffffffffff1663095ea7b373d15bec67023f139d3ef791c0f4e898ef136bc664836040518363ffffffff1660e01b81526004016100d79291906101bc565b602060405180830381600087803b1580156100f157600080fd5b505af1158015610105573d6000803e3d6000fd5b505050506040513d601f19601f820116820180604052508101906101299190610166565b5050565b60008054906101000a900473ffffffffffffffffffffffffffffffffffffffff1681565b6000815190506101608161026c565b92915050565b60006020828403121561017857600080fd5b600061018684828501610151565b91505092915050565b61019881610200565b82525050565b6101a781610248565b82525050565b6101b68161023e565b82525050565b60006040820190506101d1600083018561018f565b6101de60208301846101ad565b9392505050565b60006020820190506101fa600083018461019e565b92915050565b600061020b8261021e565b9050919050565b60008115159050919050565b600073ffffffffffffffffffffffffffffffffffffffff82169050919050565b6000819050919050565b60006102538261025a565b9050919050565b60006102658261021e565b9050919050565b61027581610212565b811461028057600080fd5b5056fea26469706673582212201d067fb732793df8644659b1d6442c30de27aad8b57b707a7fcfeb054a3691bf64736f6c63430008040033",
					"opcodes": "PUSH1 0x80 PUSH1 0x40 MSTORE CALLVALUE DUP1 ISZERO PUSH2 0x10 JUMPI PUSH1 0x0 DUP1 REVERT JUMPDEST POP PUSH20 0x7083609FCE4D1D8DC0C979AAB8C869EA2C873402 PUSH1 0x0 DUP1 PUSH2 0x100 EXP DUP2 SLOAD DUP2 PUSH20 0xFFFFFFFFFFFFFFFFFFFFFFFFFFFFFFFFFFFFFFFF MUL NOT AND SWAP1 DUP4 PUSH20 0xFFFFFFFFFFFFFFFFFFFFFFFFFFFFFFFFFFFFFFFF AND MUL OR SWAP1 SSTORE POP PUSH2 0x2B9 DUP1 PUSH2 0x74 PUSH1 0x0 CODECOPY PUSH1 0x0 RETURN INVALID PUSH1 0x80 PUSH1 0x40 MSTORE PUSH1 0x4 CALLDATASIZE LT PUSH2 0x29 JUMPI PUSH1 0x0 CALLDATALOAD PUSH1 0xE0 SHR DUP1 PUSH4 0xA6F2AE3A EQ PUSH2 0x2E JUMPI DUP1 PUSH4 0xFC0C546A EQ PUSH2 0x38 JUMPI JUMPDEST PUSH1 0x0 DUP1 REVERT JUMPDEST PUSH2 0x36 PUSH2 0x63 JUMP JUMPDEST STOP JUMPDEST CALLVALUE DUP1 ISZERO PUSH2 0x44 JUMPI PUSH1 0x0 DUP1 REVERT JUMPDEST POP PUSH2 0x4D PUSH2 0x12D JUMP JUMPDEST PUSH1 0x40 MLOAD PUSH2 0x5A SWAP2 SWAP1 PUSH2 0x1E5 JUMP JUMPDEST PUSH1 0x40 MLOAD DUP1 SWAP2 SUB SWAP1 RETURN JUMPDEST PUSH1 0x0 CALLVALUE SWAP1 POP PUSH1 0x0 DUP1 SLOAD SWAP1 PUSH2 0x100 EXP SWAP1 DIV PUSH20 0xFFFFFFFFFFFFFFFFFFFFFFFFFFFFFFFFFFFFFFFF AND PUSH20 0xFFFFFFFFFFFFFFFFFFFFFFFFFFFFFFFFFFFFFFFF AND PUSH4 0x95EA7B3 PUSH20 0xD15BEC67023F139D3EF791C0F4E898EF136BC664 DUP4 PUSH1 0x40 MLOAD DUP4 PUSH4 0xFFFFFFFF AND PUSH1 0xE0 SHL DUP2 MSTORE PUSH1 0x4 ADD PUSH2 0xD7 SWAP3 SWAP2 SWAP1 PUSH2 0x1BC JUMP JUMPDEST PUSH1 0x20 PUSH1 0x40 MLOAD DUP1 DUP4 SUB DUP2 PUSH1 0x0 DUP8 DUP1 EXTCODESIZE ISZERO DUP1 ISZERO PUSH2 0xF1 JUMPI PUSH1 0x0 DUP1 REVERT JUMPDEST POP GAS CALL ISZERO DUP1 ISZERO PUSH2 0x105 JUMPI RETURNDATASIZE PUSH1 0x0 DUP1 RETURNDATACOPY RETURNDATASIZE PUSH1 0x0 REVERT JUMPDEST POP POP POP POP PUSH1 0x40 MLOAD RETURNDATASIZE PUSH1 0x1F NOT PUSH1 0x1F DUP3 ADD AND DUP3 ADD DUP1 PUSH1 0x40 MSTORE POP DUP2 ADD SWAP1 PUSH2 0x129 SWAP2 SWAP1 PUSH2 0x166 JUMP JUMPDEST POP POP JUMP JUMPDEST PUSH1 0x0 DUP1 SLOAD SWAP1 PUSH2 0x100 EXP SWAP1 DIV PUSH20 0xFFFFFFFFFFFFFFFFFFFFFFFFFFFFFFFFFFFFFFFF AND DUP2 JUMP JUMPDEST PUSH1 0x0 DUP2 MLOAD SWAP1 POP PUSH2 0x160 DUP2 PUSH2 0x26C JUMP JUMPDEST SWAP3 SWAP2 POP POP JUMP JUMPDEST PUSH1 0x0 PUSH1 0x20 DUP3 DUP5 SUB SLT ISZERO PUSH2 0x178 JUMPI PUSH1 0x0 DUP1 REVERT JUMPDEST PUSH1 0x0 PUSH2 0x186 DUP5 DUP3 DUP6 ADD PUSH2 0x151 JUMP JUMPDEST SWAP2 POP POP SWAP3 SWAP2 POP POP JUMP JUMPDEST PUSH2 0x198 DUP2 PUSH2 0x200 JUMP JUMPDEST DUP3 MSTORE POP POP JUMP JUMPDEST PUSH2 0x1A7 DUP2 PUSH2 0x248 JUMP JUMPDEST DUP3 MSTORE POP POP JUMP JUMPDEST PUSH2 0x1B6 DUP2 PUSH2 0x23E JUMP JUMPDEST DUP3 MSTORE POP POP JUMP JUMPDEST PUSH1 0x0 PUSH1 0x40 DUP3 ADD SWAP1 POP PUSH2 0x1D1 PUSH1 0x0 DUP4 ADD DUP6 PUSH2 0x18F JUMP JUMPDEST PUSH2 0x1DE PUSH1 0x20 DUP4 ADD DUP5 PUSH2 0x1AD JUMP JUMPDEST SWAP4 SWAP3 POP POP POP JUMP JUMPDEST PUSH1 0x0 PUSH1 0x20 DUP3 ADD SWAP1 POP PUSH2 0x1FA PUSH1 0x0 DUP4 ADD DUP5 PUSH2 0x19E JUMP JUMPDEST SWAP3 SWAP2 POP POP JUMP JUMPDEST PUSH1 0x0 PUSH2 0x20B DUP3 PUSH2 0x21E JUMP JUMPDEST SWAP1 POP SWAP2 SWAP1 POP JUMP JUMPDEST PUSH1 0x0 DUP2 ISZERO ISZERO SWAP1 POP SWAP2 SWAP1 POP JUMP JUMPDEST PUSH1 0x0 PUSH20 0xFFFFFFFFFFFFFFFFFFFFFFFFFFFFFFFFFFFFFFFF DUP3 AND SWAP1 POP SWAP2 SWAP1 POP JUMP JUMPDEST PUSH1 0x0 DUP2 SWAP1 POP SWAP2 SWAP1 POP JUMP JUMPDEST PUSH1 0x0 PUSH2 0x253 DUP3 PUSH2 0x25A JUMP JUMPDEST SWAP1 POP SWAP2 SWAP1 POP JUMP JUMPDEST PUSH1 0x0 PUSH2 0x265 DUP3 PUSH2 0x21E JUMP JUMPDEST SWAP1 POP SWAP2 SWAP1 POP JUMP JUMPDEST PUSH2 0x275 DUP2 PUSH2 0x212 JUMP JUMPDEST DUP2 EQ PUSH2 0x280 JUMPI PUSH1 0x0 DUP1 REVERT JUMPDEST POP JUMP INVALID LOG2 PUSH5 0x6970667358 0x22 SLT KECCAK256 SAR MOD PUSH32 0xB732793DF8644659B1D6442C30DE27AAD8B57B707A7FCFEB054A3691BF64736F PUSH13 0x63430008040033000000000000 "
				},
				"gasEstimates": {
					"creation": {
						"codeDepositCost": "139400",
						"executionCost": "21050",
						"totalCost": "160450"
					},
					"external": {
						"buy()": "infinite",
						"token()": "1254"
					}
				},
				"methodIdentifiers": {
					"buy()": "a6f2ae3a",
					"token()": "fc0c546a"
				}
			},
			"storageLayout": {
				"storage": [
					{
						"astId": 103,
						"contract": "contracts/Smart.sol:DEX",
						"label": "token",
						"offset": 0,
						"slot": "0",
						"type": "t_contract(IBEP20)100"
					}
				],
				"types": {
					"t_contract(IBEP20)100": {
						"encoding": "inplace",
						"label": "contract IBEP20",
						"numberOfBytes": "20"
					}
				}
			},
			"userdoc": {
				"kind": "user",
				"methods": {},
				"version": 1
			}
		}
	}
}