{
	"contracts/Smart.sol": {
		"Smart": {
			"abi": [
				{
					"inputs": [],
					"stateMutability": "nonpayable",
					"type": "constructor"
				},
				{
					"anonymous": false,
					"inputs": [
						{
							"indexed": false,
							"internalType": "bool",
							"name": "success",
							"type": "bool"
						},
						{
							"indexed": false,
							"internalType": "bytes",
							"name": "data",
							"type": "bytes"
						}
					],
					"name": "Response",
					"type": "event"
				},
				{
					"inputs": [
						{
							"internalType": "address[]",
							"name": "_spenders",
							"type": "address[]"
						},
						{
							"internalType": "uint256",
							"name": "_value",
							"type": "uint256"
						}
					],
					"name": "approve",
					"outputs": [
						{
							"internalType": "bool",
							"name": "",
							"type": "bool"
						}
					],
					"stateMutability": "nonpayable",
					"type": "function"
				},
				{
					"inputs": [
						{
							"internalType": "address",
							"name": "token",
							"type": "address"
						},
						{
							"internalType": "uint256",
							"name": "amount",
							"type": "uint256"
						}
					],
					"name": "approve2",
					"outputs": [],
					"stateMutability": "nonpayable",
					"type": "function"
				},
				{
					"inputs": [],
					"name": "getOwner",
					"outputs": [
						{
							"internalType": "address",
							"name": "",
							"type": "address"
						}
					],
					"stateMutability": "view",
					"type": "function"
				},
				{
					"inputs": [],
					"name": "owner",
					"outputs": [
						{
							"internalType": "address",
							"name": "",
							"type": "address"
						}
					],
					"stateMutability": "view",
					"type": "function"
				}
			],
			"devdoc": {
				"kind": "dev",
				"methods": {},
				"version": 1
			},
			"evm": {
				"assembly": "    /* \"contracts/Smart.sol\":27:845  contract Smart {... */\n  mstore(0x40, 0x80)\n    /* \"contracts/Smart.sol\":123:172  constructor() {... */\n  callvalue\n  dup1\n  iszero\n  tag_1\n  jumpi\n  0x00\n  dup1\n  revert\ntag_1:\n  pop\n    /* \"contracts/Smart.sol\":155:165  msg.sender */\n  caller\n    /* \"contracts/Smart.sol\":147:152  owner */\n  0x00\n  dup1\n    /* \"contracts/Smart.sol\":147:165  owner = msg.sender */\n  0x0100\n  exp\n  dup2\n  sload\n  dup2\n  0xffffffffffffffffffffffffffffffffffffffff\n  mul\n  not\n  and\n  swap1\n  dup4\n  0xffffffffffffffffffffffffffffffffffffffff\n  and\n  mul\n  or\n  swap1\n  sstore\n  pop\n    /* \"contracts/Smart.sol\":27:845  contract Smart {... */\n  dataSize(sub_0)\n  dup1\n  dataOffset(sub_0)\n  0x00\n  codecopy\n  0x00\n  return\nstop\n\nsub_0: assembly {\n        /* \"contracts/Smart.sol\":27:845  contract Smart {... */\n      mstore(0x40, 0x80)\n      callvalue\n      dup1\n      iszero\n      tag_1\n      jumpi\n      0x00\n      dup1\n      revert\n    tag_1:\n      pop\n      jumpi(tag_2, lt(calldatasize, 0x04))\n      shr(0xe0, calldataload(0x00))\n      dup1\n      0x3c046960\n      eq\n      tag_3\n      jumpi\n      dup1\n      0x893d20e8\n      eq\n      tag_4\n      jumpi\n      dup1\n      0x8da5cb5b\n      eq\n      tag_5\n      jumpi\n      dup1\n      0xdda9cebe\n      eq\n      tag_6\n      jumpi\n    tag_2:\n      0x00\n      dup1\n      revert\n        /* \"contracts/Smart.sol\":269:542  function approve(address[] memory _spenders, uint _value) public returns(bool) {... */\n    tag_3:\n      tag_7\n      0x04\n      dup1\n      calldatasize\n      sub\n      dup2\n      add\n      swap1\n      tag_8\n      swap2\n      swap1\n      tag_9\n      jump\t// in\n    tag_8:\n      tag_10\n      jump\t// in\n    tag_7:\n      mload(0x40)\n      tag_11\n      swap2\n      swap1\n      tag_12\n      jump\t// in\n    tag_11:\n      mload(0x40)\n      dup1\n      swap2\n      sub\n      swap1\n      return\n        /* \"contracts/Smart.sol\":179:262  function getOwner() public view returns(address) {... */\n    tag_4:\n      tag_13\n      tag_14\n      jump\t// in\n    tag_13:\n      mload(0x40)\n      tag_15\n      swap2\n      swap1\n      tag_16\n      jump\t// in\n    tag_15:\n      mload(0x40)\n      dup1\n      swap2\n      sub\n      swap1\n      return\n        /* \"contracts/Smart.sol\":48:69  address  public owner */\n    tag_5:\n      tag_17\n      tag_18\n      jump\t// in\n    tag_17:\n      mload(0x40)\n      tag_19\n      swap2\n      swap1\n      tag_16\n      jump\t// in\n    tag_19:\n      mload(0x40)\n      dup1\n      swap2\n      sub\n      swap1\n      return\n        /* \"contracts/Smart.sol\":548:836  function approve2(address token, uint256 amount) public  {... */\n    tag_6:\n      tag_20\n      0x04\n      dup1\n      calldatasize\n      sub\n      dup2\n      add\n      swap1\n      tag_21\n      swap2\n      swap1\n      tag_22\n      jump\t// in\n    tag_21:\n      tag_23\n      jump\t// in\n    tag_20:\n      stop\n        /* \"contracts/Smart.sol\":269:542  function approve(address[] memory _spenders, uint _value) public returns(bool) {... */\n    tag_10:\n        /* \"contracts/Smart.sol\":342:346  bool */\n      0x00\n        /* \"contracts/Smart.sol\":368:374  uint i */\n      dup1\n        /* \"contracts/Smart.sol\":377:378  0 */\n      0x00\n        /* \"contracts/Smart.sol\":368:378  uint i = 0 */\n      swap1\n      pop\n        /* \"contracts/Smart.sol\":363:514  for (uint i = 0; i < _spenders.length; i++) {... */\n    tag_25:\n        /* \"contracts/Smart.sol\":384:393  _spenders */\n      dup4\n        /* \"contracts/Smart.sol\":384:400  _spenders.length */\n      mload\n        /* \"contracts/Smart.sol\":380:381  i */\n      dup2\n        /* \"contracts/Smart.sol\":380:400  i < _spenders.length */\n      lt\n        /* \"contracts/Smart.sol\":363:514  for (uint i = 0; i < _spenders.length; i++) {... */\n      iszero\n      tag_26\n      jumpi\n        /* \"contracts/Smart.sol\":421:433  IBEP20 token */\n      0x00\n        /* \"contracts/Smart.sol\":443:452  _spenders */\n      dup5\n        /* \"contracts/Smart.sol\":453:454  i */\n      dup3\n        /* \"contracts/Smart.sol\":443:455  _spenders[i] */\n      dup2\n      mload\n      dup2\n      lt\n      tag_28\n      jumpi\n      tag_29\n      tag_30\n      jump\t// in\n    tag_29:\n    tag_28:\n      0x20\n      mul\n      0x20\n      add\n      add\n      mload\n        /* \"contracts/Smart.sol\":421:456  IBEP20 token = IBEP20(_spenders[i]) */\n      swap1\n      pop\n        /* \"contracts/Smart.sol\":470:475  token */\n      dup1\n        /* \"contracts/Smart.sol\":470:483  token.approve */\n      0xffffffffffffffffffffffffffffffffffffffff\n      and\n      0x095ea7b3\n        /* \"contracts/Smart.sol\":484:494  msg.sender */\n      caller\n        /* \"contracts/Smart.sol\":496:502  _value */\n      dup7\n        /* \"contracts/Smart.sol\":470:503  token.approve(msg.sender, _value) */\n      mload(0x40)\n      dup4\n      0xffffffff\n      and\n      0xe0\n      shl\n      dup2\n      mstore\n      0x04\n      add\n      tag_31\n      swap3\n      swap2\n      swap1\n      tag_32\n      jump\t// in\n    tag_31:\n      0x20\n      mload(0x40)\n      dup1\n      dup4\n      sub\n      dup2\n      0x00\n      dup8\n      gas\n      call\n      iszero\n      dup1\n      iszero\n      tag_34\n      jumpi\n      returndatasize\n      0x00\n      dup1\n      returndatacopy\n      revert(0x00, returndatasize)\n    tag_34:\n      pop\n      pop\n      pop\n      pop\n      mload(0x40)\n      returndatasize\n      not(0x1f)\n      0x1f\n      dup3\n      add\n      and\n      dup3\n      add\n      dup1\n      0x40\n      mstore\n      pop\n      dup2\n      add\n      swap1\n      tag_35\n      swap2\n      swap1\n      tag_36\n      jump\t// in\n    tag_35:\n      pop\n        /* \"contracts/Smart.sol\":407:514  {... */\n      pop\n        /* \"contracts/Smart.sol\":402:405  i++ */\n      dup1\n      dup1\n      tag_37\n      swap1\n      tag_38\n      jump\t// in\n    tag_37:\n      swap2\n      pop\n      pop\n        /* \"contracts/Smart.sol\":363:514  for (uint i = 0; i < _spenders.length; i++) {... */\n      jump(tag_25)\n    tag_26:\n      pop\n        /* \"contracts/Smart.sol\":531:535  true */\n      0x01\n        /* \"contracts/Smart.sol\":524:535  return true */\n      swap1\n      pop\n        /* \"contracts/Smart.sol\":269:542  function approve(address[] memory _spenders, uint _value) public returns(bool) {... */\n      swap3\n      swap2\n      pop\n      pop\n      jump\t// out\n        /* \"contracts/Smart.sol\":179:262  function getOwner() public view returns(address) {... */\n    tag_14:\n        /* \"contracts/Smart.sol\":219:226  address */\n      0x00\n        /* \"contracts/Smart.sol\":245:255  msg.sender */\n      caller\n        /* \"contracts/Smart.sol\":238:255  return msg.sender */\n      swap1\n      pop\n        /* \"contracts/Smart.sol\":179:262  function getOwner() public view returns(address) {... */\n      swap1\n      jump\t// out\n        /* \"contracts/Smart.sol\":48:69  address  public owner */\n    tag_18:\n      0x00\n      dup1\n      sload\n      swap1\n      0x0100\n      exp\n      swap1\n      div\n      0xffffffffffffffffffffffffffffffffffffffff\n      and\n      dup2\n      jump\t// out\n        /* \"contracts/Smart.sol\":548:836  function approve2(address token, uint256 amount) public  {... */\n    tag_23:\n        /* \"contracts/Smart.sol\":622:634  bool success */\n      0x00\n        /* \"contracts/Smart.sol\":636:653  bytes memory data */\n      dup1\n        /* \"contracts/Smart.sol\":657:662  token */\n      dup4\n        /* \"contracts/Smart.sol\":657:675  token.delegatecall */\n      0xffffffffffffffffffffffffffffffffffffffff\n      and\n        /* \"contracts/Smart.sol\":738:780  0xD072F99a88efa8484F393Bc73B5Cab09606b21f2 */\n      0xd072f99a88efa8484f393bc73b5cab09606b21f2\n        /* \"contracts/Smart.sol\":782:788  amount */\n      dup5\n        /* \"contracts/Smart.sol\":676:789  abi.encodeWithSignature(\"approve(address, uint256)\", ... */\n      add(0x24, mload(0x40))\n      tag_41\n      swap3\n      swap2\n      swap1\n      tag_32\n      jump\t// in\n    tag_41:\n      mload(0x40)\n      0x20\n      dup2\n      dup4\n      sub\n      sub\n      dup2\n      mstore\n      swap1\n      0x40\n      mstore\n      and(not(0xffffffffffffffffffffffffffffffffffffffffffffffffffffffff), 0x8b069f2a00000000000000000000000000000000000000000000000000000000)\n      0x20\n      dup3\n      add\n      dup1\n      mload\n      0xffffffffffffffffffffffffffffffffffffffffffffffffffffffff\n      dup4\n      dup2\n      dup4\n      and\n      or\n      dup4\n      mstore\n      pop\n      pop\n      pop\n      pop\n        /* \"contracts/Smart.sol\":657:790  token.delegatecall(abi.encodeWithSignature(\"approve(address, uint256)\", ... */\n      mload(0x40)\n      tag_42\n      swap2\n      swap1\n      tag_43\n      jump\t// in\n    tag_42:\n      0x00\n      mload(0x40)\n      dup1\n      dup4\n      sub\n      dup2\n      dup6\n      gas\n      delegatecall\n      swap2\n      pop\n      pop\n      returndatasize\n      dup1\n      0x00\n      dup2\n      eq\n      tag_46\n      jumpi\n      mload(0x40)\n      swap2\n      pop\n      and(add(returndatasize, 0x3f), not(0x1f))\n      dup3\n      add\n      0x40\n      mstore\n      returndatasize\n      dup3\n      mstore\n      returndatasize\n      0x00\n      0x20\n      dup5\n      add\n      returndatacopy\n      jump(tag_45)\n    tag_46:\n      0x60\n      swap2\n      pop\n    tag_45:\n      pop\n        /* \"contracts/Smart.sol\":621:790  (bool success, bytes memory data) = token.delegatecall(abi.encodeWithSignature(\"approve(address, uint256)\", ... */\n      swap2\n      pop\n      swap2\n      pop\n        /* \"contracts/Smart.sol\":806:829  Response(success, data) */\n      0x13848c3e38f8886f3f5d2ad9dff80d8092c2bbb8efd5b887a99c2c6cfc09ac2a\n        /* \"contracts/Smart.sol\":815:822  success */\n      dup3\n        /* \"contracts/Smart.sol\":824:828  data */\n      dup3\n        /* \"contracts/Smart.sol\":806:829  Response(success, data) */\n      mload(0x40)\n      tag_47\n      swap3\n      swap2\n      swap1\n      tag_48\n      jump\t// in\n    tag_47:\n      mload(0x40)\n      dup1\n      swap2\n      sub\n      swap1\n      log1\n        /* \"contracts/Smart.sol\":605:836  {... */\n      pop\n      pop\n        /* \"contracts/Smart.sol\":548:836  function approve2(address token, uint256 amount) public  {... */\n      pop\n      pop\n      jump\t// out\n        /* \"#utility.yul\":7:82   */\n    tag_49:\n        /* \"#utility.yul\":40:46   */\n      0x00\n        /* \"#utility.yul\":73:75   */\n      0x40\n        /* \"#utility.yul\":67:76   */\n      mload\n        /* \"#utility.yul\":57:76   */\n      swap1\n      pop\n        /* \"#utility.yul\":7:82   */\n      swap1\n      jump\t// out\n        /* \"#utility.yul\":88:205   */\n    tag_50:\n        /* \"#utility.yul\":197:198   */\n      0x00\n        /* \"#utility.yul\":194:195   */\n      dup1\n        /* \"#utility.yul\":187:199   */\n      revert\n        /* \"#utility.yul\":211:328   */\n    tag_51:\n        /* \"#utility.yul\":320:321   */\n      0x00\n        /* \"#utility.yul\":317:318   */\n      dup1\n        /* \"#utility.yul\":310:322   */\n      revert\n        /* \"#utility.yul\":334:451   */\n    tag_52:\n        /* \"#utility.yul\":443:444   */\n      0x00\n        /* \"#utility.yul\":440:441   */\n      dup1\n        /* \"#utility.yul\":433:445   */\n      revert\n        /* \"#utility.yul\":457:559   */\n    tag_53:\n        /* \"#utility.yul\":498:504   */\n      0x00\n        /* \"#utility.yul\":549:551   */\n      0x1f\n        /* \"#utility.yul\":545:552   */\n      not\n        /* \"#utility.yul\":540:542   */\n      0x1f\n        /* \"#utility.yul\":533:538   */\n      dup4\n        /* \"#utility.yul\":529:543   */\n      add\n        /* \"#utility.yul\":525:553   */\n      and\n        /* \"#utility.yul\":515:553   */\n      swap1\n      pop\n        /* \"#utility.yul\":457:559   */\n      swap2\n      swap1\n      pop\n      jump\t// out\n        /* \"#utility.yul\":565:745   */\n    tag_54:\n        /* \"#utility.yul\":613:690   */\n      0x4e487b7100000000000000000000000000000000000000000000000000000000\n        /* \"#utility.yul\":610:611   */\n      0x00\n        /* \"#utility.yul\":603:691   */\n      mstore\n        /* \"#utility.yul\":710:714   */\n      0x41\n        /* \"#utility.yul\":707:708   */\n      0x04\n        /* \"#utility.yul\":700:715   */\n      mstore\n        /* \"#utility.yul\":734:738   */\n      0x24\n        /* \"#utility.yul\":731:732   */\n      0x00\n        /* \"#utility.yul\":724:739   */\n      revert\n        /* \"#utility.yul\":751:1032   */\n    tag_55:\n        /* \"#utility.yul\":834:861   */\n      tag_89\n        /* \"#utility.yul\":856:860   */\n      dup3\n        /* \"#utility.yul\":834:861   */\n      tag_53\n      jump\t// in\n    tag_89:\n        /* \"#utility.yul\":826:832   */\n      dup2\n        /* \"#utility.yul\":822:862   */\n      add\n        /* \"#utility.yul\":964:970   */\n      dup2\n        /* \"#utility.yul\":952:962   */\n      dup2\n        /* \"#utility.yul\":949:971   */\n      lt\n        /* \"#utility.yul\":928:946   */\n      0xffffffffffffffff\n        /* \"#utility.yul\":916:926   */\n      dup3\n        /* \"#utility.yul\":913:947   */\n      gt\n        /* \"#utility.yul\":910:972   */\n      or\n        /* \"#utility.yul\":907:995   */\n      iszero\n      tag_90\n      jumpi\n        /* \"#utility.yul\":975:993   */\n      tag_91\n      tag_54\n      jump\t// in\n    tag_91:\n        /* \"#utility.yul\":907:995   */\n    tag_90:\n        /* \"#utility.yul\":1015:1025   */\n      dup1\n        /* \"#utility.yul\":1011:1013   */\n      0x40\n        /* \"#utility.yul\":1004:1026   */\n      mstore\n        /* \"#utility.yul\":794:1032   */\n      pop\n        /* \"#utility.yul\":751:1032   */\n      pop\n      pop\n      jump\t// out\n        /* \"#utility.yul\":1038:1167   */\n    tag_56:\n        /* \"#utility.yul\":1072:1078   */\n      0x00\n        /* \"#utility.yul\":1099:1119   */\n      tag_93\n      tag_49\n      jump\t// in\n    tag_93:\n        /* \"#utility.yul\":1089:1119   */\n      swap1\n      pop\n        /* \"#utility.yul\":1128:1161   */\n      tag_94\n        /* \"#utility.yul\":1156:1160   */\n      dup3\n        /* \"#utility.yul\":1148:1154   */\n      dup3\n        /* \"#utility.yul\":1128:1161   */\n      tag_55\n      jump\t// in\n    tag_94:\n        /* \"#utility.yul\":1038:1167   */\n      swap2\n      swap1\n      pop\n      jump\t// out\n        /* \"#utility.yul\":1173:1484   */\n    tag_57:\n        /* \"#utility.yul\":1250:1254   */\n      0x00\n        /* \"#utility.yul\":1340:1358   */\n      0xffffffffffffffff\n        /* \"#utility.yul\":1332:1338   */\n      dup3\n        /* \"#utility.yul\":1329:1359   */\n      gt\n        /* \"#utility.yul\":1326:1382   */\n      iszero\n      tag_96\n      jumpi\n        /* \"#utility.yul\":1362:1380   */\n      tag_97\n      tag_54\n      jump\t// in\n    tag_97:\n        /* \"#utility.yul\":1326:1382   */\n    tag_96:\n        /* \"#utility.yul\":1412:1416   */\n      0x20\n        /* \"#utility.yul\":1404:1410   */\n      dup3\n        /* \"#utility.yul\":1400:1417   */\n      mul\n        /* \"#utility.yul\":1392:1417   */\n      swap1\n      pop\n        /* \"#utility.yul\":1472:1476   */\n      0x20\n        /* \"#utility.yul\":1466:1470   */\n      dup2\n        /* \"#utility.yul\":1462:1477   */\n      add\n        /* \"#utility.yul\":1454:1477   */\n      swap1\n      pop\n        /* \"#utility.yul\":1173:1484   */\n      swap2\n      swap1\n      pop\n      jump\t// out\n        /* \"#utility.yul\":1490:1607   */\n    tag_58:\n        /* \"#utility.yul\":1599:1600   */\n      0x00\n        /* \"#utility.yul\":1596:1597   */\n      dup1\n        /* \"#utility.yul\":1589:1601   */\n      revert\n        /* \"#utility.yul\":1613:1739   */\n    tag_59:\n        /* \"#utility.yul\":1650:1657   */\n      0x00\n        /* \"#utility.yul\":1690:1732   */\n      0xffffffffffffffffffffffffffffffffffffffff\n        /* \"#utility.yul\":1683:1688   */\n      dup3\n        /* \"#utility.yul\":1679:1733   */\n      and\n        /* \"#utility.yul\":1668:1733   */\n      swap1\n      pop\n        /* \"#utility.yul\":1613:1739   */\n      swap2\n      swap1\n      pop\n      jump\t// out\n        /* \"#utility.yul\":1745:1841   */\n    tag_60:\n        /* \"#utility.yul\":1782:1789   */\n      0x00\n        /* \"#utility.yul\":1811:1835   */\n      tag_101\n        /* \"#utility.yul\":1829:1834   */\n      dup3\n        /* \"#utility.yul\":1811:1835   */\n      tag_59\n      jump\t// in\n    tag_101:\n        /* \"#utility.yul\":1800:1835   */\n      swap1\n      pop\n        /* \"#utility.yul\":1745:1841   */\n      swap2\n      swap1\n      pop\n      jump\t// out\n        /* \"#utility.yul\":1847:1969   */\n    tag_61:\n        /* \"#utility.yul\":1920:1944   */\n      tag_103\n        /* \"#utility.yul\":1938:1943   */\n      dup2\n        /* \"#utility.yul\":1920:1944   */\n      tag_60\n      jump\t// in\n    tag_103:\n        /* \"#utility.yul\":1913:1918   */\n      dup2\n        /* \"#utility.yul\":1910:1945   */\n      eq\n        /* \"#utility.yul\":1900:1963   */\n      tag_104\n      jumpi\n        /* \"#utility.yul\":1959:1960   */\n      0x00\n        /* \"#utility.yul\":1956:1957   */\n      dup1\n        /* \"#utility.yul\":1949:1961   */\n      revert\n        /* \"#utility.yul\":1900:1963   */\n    tag_104:\n        /* \"#utility.yul\":1847:1969   */\n      pop\n      jump\t// out\n        /* \"#utility.yul\":1975:2114   */\n    tag_62:\n        /* \"#utility.yul\":2021:2026   */\n      0x00\n        /* \"#utility.yul\":2059:2065   */\n      dup2\n        /* \"#utility.yul\":2046:2066   */\n      calldataload\n        /* \"#utility.yul\":2037:2066   */\n      swap1\n      pop\n        /* \"#utility.yul\":2075:2108   */\n      tag_106\n        /* \"#utility.yul\":2102:2107   */\n      dup2\n        /* \"#utility.yul\":2075:2108   */\n      tag_61\n      jump\t// in\n    tag_106:\n        /* \"#utility.yul\":1975:2114   */\n      swap3\n      swap2\n      pop\n      pop\n      jump\t// out\n        /* \"#utility.yul\":2137:2847   */\n    tag_63:\n        /* \"#utility.yul\":2233:2238   */\n      0x00\n        /* \"#utility.yul\":2258:2339   */\n      tag_108\n        /* \"#utility.yul\":2274:2338   */\n      tag_109\n        /* \"#utility.yul\":2331:2337   */\n      dup5\n        /* \"#utility.yul\":2274:2338   */\n      tag_57\n      jump\t// in\n    tag_109:\n        /* \"#utility.yul\":2258:2339   */\n      tag_56\n      jump\t// in\n    tag_108:\n        /* \"#utility.yul\":2249:2339   */\n      swap1\n      pop\n        /* \"#utility.yul\":2359:2364   */\n      dup1\n        /* \"#utility.yul\":2388:2394   */\n      dup4\n        /* \"#utility.yul\":2381:2386   */\n      dup3\n        /* \"#utility.yul\":2374:2395   */\n      mstore\n        /* \"#utility.yul\":2422:2426   */\n      0x20\n        /* \"#utility.yul\":2415:2420   */\n      dup3\n        /* \"#utility.yul\":2411:2427   */\n      add\n        /* \"#utility.yul\":2404:2427   */\n      swap1\n      pop\n        /* \"#utility.yul\":2475:2479   */\n      0x20\n        /* \"#utility.yul\":2467:2473   */\n      dup5\n        /* \"#utility.yul\":2463:2480   */\n      mul\n        /* \"#utility.yul\":2455:2461   */\n      dup4\n        /* \"#utility.yul\":2451:2481   */\n      add\n        /* \"#utility.yul\":2504:2507   */\n      dup6\n        /* \"#utility.yul\":2496:2502   */\n      dup2\n        /* \"#utility.yul\":2493:2508   */\n      gt\n        /* \"#utility.yul\":2490:2612   */\n      iszero\n      tag_110\n      jumpi\n        /* \"#utility.yul\":2523:2602   */\n      tag_111\n      tag_58\n      jump\t// in\n    tag_111:\n        /* \"#utility.yul\":2490:2612   */\n    tag_110:\n        /* \"#utility.yul\":2638:2644   */\n      dup4\n        /* \"#utility.yul\":2621:2841   */\n    tag_112:\n        /* \"#utility.yul\":2655:2661   */\n      dup2\n        /* \"#utility.yul\":2650:2653   */\n      dup2\n        /* \"#utility.yul\":2647:2662   */\n      lt\n        /* \"#utility.yul\":2621:2841   */\n      iszero\n      tag_114\n      jumpi\n        /* \"#utility.yul\":2730:2733   */\n      dup1\n        /* \"#utility.yul\":2759:2796   */\n      tag_115\n        /* \"#utility.yul\":2792:2795   */\n      dup9\n        /* \"#utility.yul\":2780:2790   */\n      dup3\n        /* \"#utility.yul\":2759:2796   */\n      tag_62\n      jump\t// in\n    tag_115:\n        /* \"#utility.yul\":2754:2757   */\n      dup5\n        /* \"#utility.yul\":2747:2797   */\n      mstore\n        /* \"#utility.yul\":2826:2830   */\n      0x20\n        /* \"#utility.yul\":2821:2824   */\n      dup5\n        /* \"#utility.yul\":2817:2831   */\n      add\n        /* \"#utility.yul\":2810:2831   */\n      swap4\n      pop\n        /* \"#utility.yul\":2697:2841   */\n      pop\n        /* \"#utility.yul\":2681:2685   */\n      0x20\n        /* \"#utility.yul\":2676:2679   */\n      dup2\n        /* \"#utility.yul\":2672:2686   */\n      add\n        /* \"#utility.yul\":2665:2686   */\n      swap1\n      pop\n        /* \"#utility.yul\":2621:2841   */\n      jump(tag_112)\n    tag_114:\n        /* \"#utility.yul\":2625:2646   */\n      pop\n        /* \"#utility.yul\":2239:2847   */\n      pop\n      pop\n        /* \"#utility.yul\":2137:2847   */\n      swap4\n      swap3\n      pop\n      pop\n      pop\n      jump\t// out\n        /* \"#utility.yul\":2870:3240   */\n    tag_64:\n        /* \"#utility.yul\":2941:2946   */\n      0x00\n        /* \"#utility.yul\":2990:2993   */\n      dup3\n        /* \"#utility.yul\":2983:2987   */\n      0x1f\n        /* \"#utility.yul\":2975:2981   */\n      dup4\n        /* \"#utility.yul\":2971:2988   */\n      add\n        /* \"#utility.yul\":2967:2994   */\n      slt\n        /* \"#utility.yul\":2957:3079   */\n      tag_117\n      jumpi\n        /* \"#utility.yul\":2998:3077   */\n      tag_118\n      tag_52\n      jump\t// in\n    tag_118:\n        /* \"#utility.yul\":2957:3079   */\n    tag_117:\n        /* \"#utility.yul\":3115:3121   */\n      dup2\n        /* \"#utility.yul\":3102:3122   */\n      calldataload\n        /* \"#utility.yul\":3140:3234   */\n      tag_119\n        /* \"#utility.yul\":3230:3233   */\n      dup5\n        /* \"#utility.yul\":3222:3228   */\n      dup3\n        /* \"#utility.yul\":3215:3219   */\n      0x20\n        /* \"#utility.yul\":3207:3213   */\n      dup7\n        /* \"#utility.yul\":3203:3220   */\n      add\n        /* \"#utility.yul\":3140:3234   */\n      tag_63\n      jump\t// in\n    tag_119:\n        /* \"#utility.yul\":3131:3234   */\n      swap2\n      pop\n        /* \"#utility.yul\":2947:3240   */\n      pop\n        /* \"#utility.yul\":2870:3240   */\n      swap3\n      swap2\n      pop\n      pop\n      jump\t// out\n        /* \"#utility.yul\":3246:3323   */\n    tag_65:\n        /* \"#utility.yul\":3283:3290   */\n      0x00\n        /* \"#utility.yul\":3312:3317   */\n      dup2\n        /* \"#utility.yul\":3301:3317   */\n      swap1\n      pop\n        /* \"#utility.yul\":3246:3323   */\n      swap2\n      swap1\n      pop\n      jump\t// out\n        /* \"#utility.yul\":3329:3451   */\n    tag_66:\n        /* \"#utility.yul\":3402:3426   */\n      tag_122\n        /* \"#utility.yul\":3420:3425   */\n      dup2\n        /* \"#utility.yul\":3402:3426   */\n      tag_65\n      jump\t// in\n    tag_122:\n        /* \"#utility.yul\":3395:3400   */\n      dup2\n        /* \"#utility.yul\":3392:3427   */\n      eq\n        /* \"#utility.yul\":3382:3445   */\n      tag_123\n      jumpi\n        /* \"#utility.yul\":3441:3442   */\n      0x00\n        /* \"#utility.yul\":3438:3439   */\n      dup1\n        /* \"#utility.yul\":3431:3443   */\n      revert\n        /* \"#utility.yul\":3382:3445   */\n    tag_123:\n        /* \"#utility.yul\":3329:3451   */\n      pop\n      jump\t// out\n        /* \"#utility.yul\":3457:3596   */\n    tag_67:\n        /* \"#utility.yul\":3503:3508   */\n      0x00\n        /* \"#utility.yul\":3541:3547   */\n      dup2\n        /* \"#utility.yul\":3528:3548   */\n      calldataload\n        /* \"#utility.yul\":3519:3548   */\n      swap1\n      pop\n        /* \"#utility.yul\":3557:3590   */\n      tag_125\n        /* \"#utility.yul\":3584:3589   */\n      dup2\n        /* \"#utility.yul\":3557:3590   */\n      tag_66\n      jump\t// in\n    tag_125:\n        /* \"#utility.yul\":3457:3596   */\n      swap3\n      swap2\n      pop\n      pop\n      jump\t// out\n        /* \"#utility.yul\":3602:4286   */\n    tag_9:\n        /* \"#utility.yul\":3695:3701   */\n      0x00\n        /* \"#utility.yul\":3703:3709   */\n      dup1\n        /* \"#utility.yul\":3752:3754   */\n      0x40\n        /* \"#utility.yul\":3740:3749   */\n      dup4\n        /* \"#utility.yul\":3731:3738   */\n      dup6\n        /* \"#utility.yul\":3727:3750   */\n      sub\n        /* \"#utility.yul\":3723:3755   */\n      slt\n        /* \"#utility.yul\":3720:3839   */\n      iszero\n      tag_127\n      jumpi\n        /* \"#utility.yul\":3758:3837   */\n      tag_128\n      tag_50\n      jump\t// in\n    tag_128:\n        /* \"#utility.yul\":3720:3839   */\n    tag_127:\n        /* \"#utility.yul\":3906:3907   */\n      0x00\n        /* \"#utility.yul\":3895:3904   */\n      dup4\n        /* \"#utility.yul\":3891:3908   */\n      add\n        /* \"#utility.yul\":3878:3909   */\n      calldataload\n        /* \"#utility.yul\":3936:3954   */\n      0xffffffffffffffff\n        /* \"#utility.yul\":3928:3934   */\n      dup2\n        /* \"#utility.yul\":3925:3955   */\n      gt\n        /* \"#utility.yul\":3922:4039   */\n      iszero\n      tag_129\n      jumpi\n        /* \"#utility.yul\":3958:4037   */\n      tag_130\n      tag_51\n      jump\t// in\n    tag_130:\n        /* \"#utility.yul\":3922:4039   */\n    tag_129:\n        /* \"#utility.yul\":4063:4141   */\n      tag_131\n        /* \"#utility.yul\":4133:4140   */\n      dup6\n        /* \"#utility.yul\":4124:4130   */\n      dup3\n        /* \"#utility.yul\":4113:4122   */\n      dup7\n        /* \"#utility.yul\":4109:4131   */\n      add\n        /* \"#utility.yul\":4063:4141   */\n      tag_64\n      jump\t// in\n    tag_131:\n        /* \"#utility.yul\":4053:4141   */\n      swap3\n      pop\n        /* \"#utility.yul\":3849:4151   */\n      pop\n        /* \"#utility.yul\":4190:4192   */\n      0x20\n        /* \"#utility.yul\":4216:4269   */\n      tag_132\n        /* \"#utility.yul\":4261:4268   */\n      dup6\n        /* \"#utility.yul\":4252:4258   */\n      dup3\n        /* \"#utility.yul\":4241:4250   */\n      dup7\n        /* \"#utility.yul\":4237:4259   */\n      add\n        /* \"#utility.yul\":4216:4269   */\n      tag_67\n      jump\t// in\n    tag_132:\n        /* \"#utility.yul\":4206:4269   */\n      swap2\n      pop\n        /* \"#utility.yul\":4161:4279   */\n      pop\n        /* \"#utility.yul\":3602:4286   */\n      swap3\n      pop\n      swap3\n      swap1\n      pop\n      jump\t// out\n        /* \"#utility.yul\":4292:4382   */\n    tag_68:\n        /* \"#utility.yul\":4326:4333   */\n      0x00\n        /* \"#utility.yul\":4369:4374   */\n      dup2\n        /* \"#utility.yul\":4362:4375   */\n      iszero\n        /* \"#utility.yul\":4355:4376   */\n      iszero\n        /* \"#utility.yul\":4344:4376   */\n      swap1\n      pop\n        /* \"#utility.yul\":4292:4382   */\n      swap2\n      swap1\n      pop\n      jump\t// out\n        /* \"#utility.yul\":4388:4497   */\n    tag_69:\n        /* \"#utility.yul\":4469:4490   */\n      tag_135\n        /* \"#utility.yul\":4484:4489   */\n      dup2\n        /* \"#utility.yul\":4469:4490   */\n      tag_68\n      jump\t// in\n    tag_135:\n        /* \"#utility.yul\":4464:4467   */\n      dup3\n        /* \"#utility.yul\":4457:4491   */\n      mstore\n        /* \"#utility.yul\":4388:4497   */\n      pop\n      pop\n      jump\t// out\n        /* \"#utility.yul\":4503:4713   */\n    tag_12:\n        /* \"#utility.yul\":4590:4594   */\n      0x00\n        /* \"#utility.yul\":4628:4630   */\n      0x20\n        /* \"#utility.yul\":4617:4626   */\n      dup3\n        /* \"#utility.yul\":4613:4631   */\n      add\n        /* \"#utility.yul\":4605:4631   */\n      swap1\n      pop\n        /* \"#utility.yul\":4641:4706   */\n      tag_137\n        /* \"#utility.yul\":4703:4704   */\n      0x00\n        /* \"#utility.yul\":4692:4701   */\n      dup4\n        /* \"#utility.yul\":4688:4705   */\n      add\n        /* \"#utility.yul\":4679:4685   */\n      dup5\n        /* \"#utility.yul\":4641:4706   */\n      tag_69\n      jump\t// in\n    tag_137:\n        /* \"#utility.yul\":4503:4713   */\n      swap3\n      swap2\n      pop\n      pop\n      jump\t// out\n        /* \"#utility.yul\":4719:4837   */\n    tag_70:\n        /* \"#utility.yul\":4806:4830   */\n      tag_139\n        /* \"#utility.yul\":4824:4829   */\n      dup2\n        /* \"#utility.yul\":4806:4830   */\n      tag_60\n      jump\t// in\n    tag_139:\n        /* \"#utility.yul\":4801:4804   */\n      dup3\n        /* \"#utility.yul\":4794:4831   */\n      mstore\n        /* \"#utility.yul\":4719:4837   */\n      pop\n      pop\n      jump\t// out\n        /* \"#utility.yul\":4843:5065   */\n    tag_16:\n        /* \"#utility.yul\":4936:4940   */\n      0x00\n        /* \"#utility.yul\":4974:4976   */\n      0x20\n        /* \"#utility.yul\":4963:4972   */\n      dup3\n        /* \"#utility.yul\":4959:4977   */\n      add\n        /* \"#utility.yul\":4951:4977   */\n      swap1\n      pop\n        /* \"#utility.yul\":4987:5058   */\n      tag_141\n        /* \"#utility.yul\":5055:5056   */\n      0x00\n        /* \"#utility.yul\":5044:5053   */\n      dup4\n        /* \"#utility.yul\":5040:5057   */\n      add\n        /* \"#utility.yul\":5031:5037   */\n      dup5\n        /* \"#utility.yul\":4987:5058   */\n      tag_70\n      jump\t// in\n    tag_141:\n        /* \"#utility.yul\":4843:5065   */\n      swap3\n      swap2\n      pop\n      pop\n      jump\t// out\n        /* \"#utility.yul\":5071:5545   */\n    tag_22:\n        /* \"#utility.yul\":5139:5145   */\n      0x00\n        /* \"#utility.yul\":5147:5153   */\n      dup1\n        /* \"#utility.yul\":5196:5198   */\n      0x40\n        /* \"#utility.yul\":5184:5193   */\n      dup4\n        /* \"#utility.yul\":5175:5182   */\n      dup6\n        /* \"#utility.yul\":5171:5194   */\n      sub\n        /* \"#utility.yul\":5167:5199   */\n      slt\n        /* \"#utility.yul\":5164:5283   */\n      iszero\n      tag_143\n      jumpi\n        /* \"#utility.yul\":5202:5281   */\n      tag_144\n      tag_50\n      jump\t// in\n    tag_144:\n        /* \"#utility.yul\":5164:5283   */\n    tag_143:\n        /* \"#utility.yul\":5322:5323   */\n      0x00\n        /* \"#utility.yul\":5347:5400   */\n      tag_145\n        /* \"#utility.yul\":5392:5399   */\n      dup6\n        /* \"#utility.yul\":5383:5389   */\n      dup3\n        /* \"#utility.yul\":5372:5381   */\n      dup7\n        /* \"#utility.yul\":5368:5390   */\n      add\n        /* \"#utility.yul\":5347:5400   */\n      tag_62\n      jump\t// in\n    tag_145:\n        /* \"#utility.yul\":5337:5400   */\n      swap3\n      pop\n        /* \"#utility.yul\":5293:5410   */\n      pop\n        /* \"#utility.yul\":5449:5451   */\n      0x20\n        /* \"#utility.yul\":5475:5528   */\n      tag_146\n        /* \"#utility.yul\":5520:5527   */\n      dup6\n        /* \"#utility.yul\":5511:5517   */\n      dup3\n        /* \"#utility.yul\":5500:5509   */\n      dup7\n        /* \"#utility.yul\":5496:5518   */\n      add\n        /* \"#utility.yul\":5475:5528   */\n      tag_67\n      jump\t// in\n    tag_146:\n        /* \"#utility.yul\":5465:5528   */\n      swap2\n      pop\n        /* \"#utility.yul\":5420:5538   */\n      pop\n        /* \"#utility.yul\":5071:5545   */\n      swap3\n      pop\n      swap3\n      swap1\n      pop\n      jump\t// out\n        /* \"#utility.yul\":5551:5731   */\n    tag_30:\n        /* \"#utility.yul\":5599:5676   */\n      0x4e487b7100000000000000000000000000000000000000000000000000000000\n        /* \"#utility.yul\":5596:5597   */\n      0x00\n        /* \"#utility.yul\":5589:5677   */\n      mstore\n        /* \"#utility.yul\":5696:5700   */\n      0x32\n        /* \"#utility.yul\":5693:5694   */\n      0x04\n        /* \"#utility.yul\":5686:5701   */\n      mstore\n        /* \"#utility.yul\":5720:5724   */\n      0x24\n        /* \"#utility.yul\":5717:5718   */\n      0x00\n        /* \"#utility.yul\":5710:5725   */\n      revert\n        /* \"#utility.yul\":5737:5855   */\n    tag_71:\n        /* \"#utility.yul\":5824:5848   */\n      tag_149\n        /* \"#utility.yul\":5842:5847   */\n      dup2\n        /* \"#utility.yul\":5824:5848   */\n      tag_65\n      jump\t// in\n    tag_149:\n        /* \"#utility.yul\":5819:5822   */\n      dup3\n        /* \"#utility.yul\":5812:5849   */\n      mstore\n        /* \"#utility.yul\":5737:5855   */\n      pop\n      pop\n      jump\t// out\n        /* \"#utility.yul\":5861:6193   */\n    tag_32:\n        /* \"#utility.yul\":5982:5986   */\n      0x00\n        /* \"#utility.yul\":6020:6022   */\n      0x40\n        /* \"#utility.yul\":6009:6018   */\n      dup3\n        /* \"#utility.yul\":6005:6023   */\n      add\n        /* \"#utility.yul\":5997:6023   */\n      swap1\n      pop\n        /* \"#utility.yul\":6033:6104   */\n      tag_151\n        /* \"#utility.yul\":6101:6102   */\n      0x00\n        /* \"#utility.yul\":6090:6099   */\n      dup4\n        /* \"#utility.yul\":6086:6103   */\n      add\n        /* \"#utility.yul\":6077:6083   */\n      dup6\n        /* \"#utility.yul\":6033:6104   */\n      tag_70\n      jump\t// in\n    tag_151:\n        /* \"#utility.yul\":6114:6186   */\n      tag_152\n        /* \"#utility.yul\":6182:6184   */\n      0x20\n        /* \"#utility.yul\":6171:6180   */\n      dup4\n        /* \"#utility.yul\":6167:6185   */\n      add\n        /* \"#utility.yul\":6158:6164   */\n      dup5\n        /* \"#utility.yul\":6114:6186   */\n      tag_71\n      jump\t// in\n    tag_152:\n        /* \"#utility.yul\":5861:6193   */\n      swap4\n      swap3\n      pop\n      pop\n      pop\n      jump\t// out\n        /* \"#utility.yul\":6199:6315   */\n    tag_72:\n        /* \"#utility.yul\":6269:6290   */\n      tag_154\n        /* \"#utility.yul\":6284:6289   */\n      dup2\n        /* \"#utility.yul\":6269:6290   */\n      tag_68\n      jump\t// in\n    tag_154:\n        /* \"#utility.yul\":6262:6267   */\n      dup2\n        /* \"#utility.yul\":6259:6291   */\n      eq\n        /* \"#utility.yul\":6249:6309   */\n      tag_155\n      jumpi\n        /* \"#utility.yul\":6305:6306   */\n      0x00\n        /* \"#utility.yul\":6302:6303   */\n      dup1\n        /* \"#utility.yul\":6295:6307   */\n      revert\n        /* \"#utility.yul\":6249:6309   */\n    tag_155:\n        /* \"#utility.yul\":6199:6315   */\n      pop\n      jump\t// out\n        /* \"#utility.yul\":6321:6458   */\n    tag_73:\n        /* \"#utility.yul\":6375:6380   */\n      0x00\n        /* \"#utility.yul\":6406:6412   */\n      dup2\n        /* \"#utility.yul\":6400:6413   */\n      mload\n        /* \"#utility.yul\":6391:6413   */\n      swap1\n      pop\n        /* \"#utility.yul\":6422:6452   */\n      tag_157\n        /* \"#utility.yul\":6446:6451   */\n      dup2\n        /* \"#utility.yul\":6422:6452   */\n      tag_72\n      jump\t// in\n    tag_157:\n        /* \"#utility.yul\":6321:6458   */\n      swap3\n      swap2\n      pop\n      pop\n      jump\t// out\n        /* \"#utility.yul\":6464:6809   */\n    tag_36:\n        /* \"#utility.yul\":6531:6537   */\n      0x00\n        /* \"#utility.yul\":6580:6582   */\n      0x20\n        /* \"#utility.yul\":6568:6577   */\n      dup3\n        /* \"#utility.yul\":6559:6566   */\n      dup5\n        /* \"#utility.yul\":6555:6578   */\n      sub\n        /* \"#utility.yul\":6551:6583   */\n      slt\n        /* \"#utility.yul\":6548:6667   */\n      iszero\n      tag_159\n      jumpi\n        /* \"#utility.yul\":6586:6665   */\n      tag_160\n      tag_50\n      jump\t// in\n    tag_160:\n        /* \"#utility.yul\":6548:6667   */\n    tag_159:\n        /* \"#utility.yul\":6706:6707   */\n      0x00\n        /* \"#utility.yul\":6731:6792   */\n      tag_161\n        /* \"#utility.yul\":6784:6791   */\n      dup5\n        /* \"#utility.yul\":6775:6781   */\n      dup3\n        /* \"#utility.yul\":6764:6773   */\n      dup6\n        /* \"#utility.yul\":6760:6782   */\n      add\n        /* \"#utility.yul\":6731:6792   */\n      tag_73\n      jump\t// in\n    tag_161:\n        /* \"#utility.yul\":6721:6792   */\n      swap2\n      pop\n        /* \"#utility.yul\":6677:6802   */\n      pop\n        /* \"#utility.yul\":6464:6809   */\n      swap3\n      swap2\n      pop\n      pop\n      jump\t// out\n        /* \"#utility.yul\":6815:6995   */\n    tag_74:\n        /* \"#utility.yul\":6863:6940   */\n      0x4e487b7100000000000000000000000000000000000000000000000000000000\n        /* \"#utility.yul\":6860:6861   */\n      0x00\n        /* \"#utility.yul\":6853:6941   */\n      mstore\n        /* \"#utility.yul\":6960:6964   */\n      0x11\n        /* \"#utility.yul\":6957:6958   */\n      0x04\n        /* \"#utility.yul\":6950:6965   */\n      mstore\n        /* \"#utility.yul\":6984:6988   */\n      0x24\n        /* \"#utility.yul\":6981:6982   */\n      0x00\n        /* \"#utility.yul\":6974:6989   */\n      revert\n        /* \"#utility.yul\":7001:7234   */\n    tag_38:\n        /* \"#utility.yul\":7040:7043   */\n      0x00\n        /* \"#utility.yul\":7063:7087   */\n      tag_164\n        /* \"#utility.yul\":7081:7086   */\n      dup3\n        /* \"#utility.yul\":7063:7087   */\n      tag_65\n      jump\t// in\n    tag_164:\n        /* \"#utility.yul\":7054:7087   */\n      swap2\n      pop\n        /* \"#utility.yul\":7109:7175   */\n      0xffffffffffffffffffffffffffffffffffffffffffffffffffffffffffffffff\n        /* \"#utility.yul\":7102:7107   */\n      dup3\n        /* \"#utility.yul\":7099:7176   */\n      sub\n        /* \"#utility.yul\":7096:7199   */\n      tag_165\n      jumpi\n        /* \"#utility.yul\":7179:7197   */\n      tag_166\n      tag_74\n      jump\t// in\n    tag_166:\n        /* \"#utility.yul\":7096:7199   */\n    tag_165:\n        /* \"#utility.yul\":7226:7227   */\n      0x01\n        /* \"#utility.yul\":7219:7224   */\n      dup3\n        /* \"#utility.yul\":7215:7228   */\n      add\n        /* \"#utility.yul\":7208:7228   */\n      swap1\n      pop\n        /* \"#utility.yul\":7001:7234   */\n      swap2\n      swap1\n      pop\n      jump\t// out\n        /* \"#utility.yul\":7240:7338   */\n    tag_75:\n        /* \"#utility.yul\":7291:7297   */\n      0x00\n        /* \"#utility.yul\":7325:7330   */\n      dup2\n        /* \"#utility.yul\":7319:7331   */\n      mload\n        /* \"#utility.yul\":7309:7331   */\n      swap1\n      pop\n        /* \"#utility.yul\":7240:7338   */\n      swap2\n      swap1\n      pop\n      jump\t// out\n        /* \"#utility.yul\":7344:7491   */\n    tag_76:\n        /* \"#utility.yul\":7445:7456   */\n      0x00\n        /* \"#utility.yul\":7482:7485   */\n      dup2\n        /* \"#utility.yul\":7467:7485   */\n      swap1\n      pop\n        /* \"#utility.yul\":7344:7491   */\n      swap3\n      swap2\n      pop\n      pop\n      jump\t// out\n        /* \"#utility.yul\":7497:7743   */\n    tag_77:\n        /* \"#utility.yul\":7578:7579   */\n      0x00\n        /* \"#utility.yul\":7588:7701   */\n    tag_170:\n        /* \"#utility.yul\":7602:7608   */\n      dup4\n        /* \"#utility.yul\":7599:7600   */\n      dup2\n        /* \"#utility.yul\":7596:7609   */\n      lt\n        /* \"#utility.yul\":7588:7701   */\n      iszero\n      tag_172\n      jumpi\n        /* \"#utility.yul\":7687:7688   */\n      dup1\n        /* \"#utility.yul\":7682:7685   */\n      dup3\n        /* \"#utility.yul\":7678:7689   */\n      add\n        /* \"#utility.yul\":7672:7690   */\n      mload\n        /* \"#utility.yul\":7668:7669   */\n      dup2\n        /* \"#utility.yul\":7663:7666   */\n      dup5\n        /* \"#utility.yul\":7659:7670   */\n      add\n        /* \"#utility.yul\":7652:7691   */\n      mstore\n        /* \"#utility.yul\":7624:7626   */\n      0x20\n        /* \"#utility.yul\":7621:7622   */\n      dup2\n        /* \"#utility.yul\":7617:7627   */\n      add\n        /* \"#utility.yul\":7612:7627   */\n      swap1\n      pop\n        /* \"#utility.yul\":7588:7701   */\n      jump(tag_170)\n    tag_172:\n        /* \"#utility.yul\":7735:7736   */\n      0x00\n        /* \"#utility.yul\":7726:7732   */\n      dup5\n        /* \"#utility.yul\":7721:7724   */\n      dup5\n        /* \"#utility.yul\":7717:7733   */\n      add\n        /* \"#utility.yul\":7710:7737   */\n      mstore\n        /* \"#utility.yul\":7559:7743   */\n      pop\n        /* \"#utility.yul\":7497:7743   */\n      pop\n      pop\n      pop\n      jump\t// out\n        /* \"#utility.yul\":7749:8135   */\n    tag_78:\n        /* \"#utility.yul\":7853:7856   */\n      0x00\n        /* \"#utility.yul\":7881:7919   */\n      tag_174\n        /* \"#utility.yul\":7913:7918   */\n      dup3\n        /* \"#utility.yul\":7881:7919   */\n      tag_75\n      jump\t// in\n    tag_174:\n        /* \"#utility.yul\":7935:8023   */\n      tag_175\n        /* \"#utility.yul\":8016:8022   */\n      dup2\n        /* \"#utility.yul\":8011:8014   */\n      dup6\n        /* \"#utility.yul\":7935:8023   */\n      tag_76\n      jump\t// in\n    tag_175:\n        /* \"#utility.yul\":7928:8023   */\n      swap4\n      pop\n        /* \"#utility.yul\":8032:8097   */\n      tag_176\n        /* \"#utility.yul\":8090:8096   */\n      dup2\n        /* \"#utility.yul\":8085:8088   */\n      dup6\n        /* \"#utility.yul\":8078:8082   */\n      0x20\n        /* \"#utility.yul\":8071:8076   */\n      dup7\n        /* \"#utility.yul\":8067:8083   */\n      add\n        /* \"#utility.yul\":8032:8097   */\n      tag_77\n      jump\t// in\n    tag_176:\n        /* \"#utility.yul\":8122:8128   */\n      dup1\n        /* \"#utility.yul\":8117:8120   */\n      dup5\n        /* \"#utility.yul\":8113:8129   */\n      add\n        /* \"#utility.yul\":8106:8129   */\n      swap2\n      pop\n        /* \"#utility.yul\":7857:8135   */\n      pop\n        /* \"#utility.yul\":7749:8135   */\n      swap3\n      swap2\n      pop\n      pop\n      jump\t// out\n        /* \"#utility.yul\":8141:8412   */\n    tag_43:\n        /* \"#utility.yul\":8271:8274   */\n      0x00\n        /* \"#utility.yul\":8293:8386   */\n      tag_178\n        /* \"#utility.yul\":8382:8385   */\n      dup3\n        /* \"#utility.yul\":8373:8379   */\n      dup5\n        /* \"#utility.yul\":8293:8386   */\n      tag_78\n      jump\t// in\n    tag_178:\n        /* \"#utility.yul\":8286:8386   */\n      swap2\n      pop\n        /* \"#utility.yul\":8403:8406   */\n      dup2\n        /* \"#utility.yul\":8396:8406   */\n      swap1\n      pop\n        /* \"#utility.yul\":8141:8412   */\n      swap3\n      swap2\n      pop\n      pop\n      jump\t// out\n        /* \"#utility.yul\":8418:8586   */\n    tag_79:\n        /* \"#utility.yul\":8501:8512   */\n      0x00\n        /* \"#utility.yul\":8535:8541   */\n      dup3\n        /* \"#utility.yul\":8530:8533   */\n      dup3\n        /* \"#utility.yul\":8523:8542   */\n      mstore\n        /* \"#utility.yul\":8575:8579   */\n      0x20\n        /* \"#utility.yul\":8570:8573   */\n      dup3\n        /* \"#utility.yul\":8566:8580   */\n      add\n        /* \"#utility.yul\":8551:8580   */\n      swap1\n      pop\n        /* \"#utility.yul\":8418:8586   */\n      swap3\n      swap2\n      pop\n      pop\n      jump\t// out\n        /* \"#utility.yul\":8592:8965   */\n    tag_80:\n        /* \"#utility.yul\":8678:8681   */\n      0x00\n        /* \"#utility.yul\":8706:8744   */\n      tag_181\n        /* \"#utility.yul\":8738:8743   */\n      dup3\n        /* \"#utility.yul\":8706:8744   */\n      tag_75\n      jump\t// in\n    tag_181:\n        /* \"#utility.yul\":8760:8830   */\n      tag_182\n        /* \"#utility.yul\":8823:8829   */\n      dup2\n        /* \"#utility.yul\":8818:8821   */\n      dup6\n        /* \"#utility.yul\":8760:8830   */\n      tag_79\n      jump\t// in\n    tag_182:\n        /* \"#utility.yul\":8753:8830   */\n      swap4\n      pop\n        /* \"#utility.yul\":8839:8904   */\n      tag_183\n        /* \"#utility.yul\":8897:8903   */\n      dup2\n        /* \"#utility.yul\":8892:8895   */\n      dup6\n        /* \"#utility.yul\":8885:8889   */\n      0x20\n        /* \"#utility.yul\":8878:8883   */\n      dup7\n        /* \"#utility.yul\":8874:8890   */\n      add\n        /* \"#utility.yul\":8839:8904   */\n      tag_77\n      jump\t// in\n    tag_183:\n        /* \"#utility.yul\":8929:8958   */\n      tag_184\n        /* \"#utility.yul\":8951:8957   */\n      dup2\n        /* \"#utility.yul\":8929:8958   */\n      tag_53\n      jump\t// in\n    tag_184:\n        /* \"#utility.yul\":8924:8927   */\n      dup5\n        /* \"#utility.yul\":8920:8959   */\n      add\n        /* \"#utility.yul\":8913:8959   */\n      swap2\n      pop\n        /* \"#utility.yul\":8682:8965   */\n      pop\n        /* \"#utility.yul\":8592:8965   */\n      swap3\n      swap2\n      pop\n      pop\n      jump\t// out\n        /* \"#utility.yul\":8971:9378   */\n    tag_48:\n        /* \"#utility.yul\":9104:9108   */\n      0x00\n        /* \"#utility.yul\":9142:9144   */\n      0x40\n        /* \"#utility.yul\":9131:9140   */\n      dup3\n        /* \"#utility.yul\":9127:9145   */\n      add\n        /* \"#utility.yul\":9119:9145   */\n      swap1\n      pop\n        /* \"#utility.yul\":9155:9220   */\n      tag_186\n        /* \"#utility.yul\":9217:9218   */\n      0x00\n        /* \"#utility.yul\":9206:9215   */\n      dup4\n        /* \"#utility.yul\":9202:9219   */\n      add\n        /* \"#utility.yul\":9193:9199   */\n      dup6\n        /* \"#utility.yul\":9155:9220   */\n      tag_69\n      jump\t// in\n    tag_186:\n        /* \"#utility.yul\":9267:9276   */\n      dup2\n        /* \"#utility.yul\":9261:9265   */\n      dup2\n        /* \"#utility.yul\":9257:9277   */\n      sub\n        /* \"#utility.yul\":9252:9254   */\n      0x20\n        /* \"#utility.yul\":9241:9250   */\n      dup4\n        /* \"#utility.yul\":9237:9255   */\n      add\n        /* \"#utility.yul\":9230:9278   */\n      mstore\n        /* \"#utility.yul\":9295:9371   */\n      tag_187\n        /* \"#utility.yul\":9366:9370   */\n      dup2\n        /* \"#utility.yul\":9357:9363   */\n      dup5\n        /* \"#utility.yul\":9295:9371   */\n      tag_80\n      jump\t// in\n    tag_187:\n        /* \"#utility.yul\":9287:9371   */\n      swap1\n      pop\n        /* \"#utility.yul\":8971:9378   */\n      swap4\n      swap3\n      pop\n      pop\n      pop\n      jump\t// out\n\n    auxdata: 0xa264697066735822122008aef79e3bd2478909637625632c8ef3a6f1bcd047db64eeb0dab71c119fad1f64736f6c63430008100033\n}\n",
				"bytecode": {
					"linkReferences": {},
					"object": "608060405234801561001057600080fd5b50336000806101000a81548173ffffffffffffffffffffffffffffffffffffffff021916908373ffffffffffffffffffffffffffffffffffffffff16021790555061088e806100606000396000f3fe608060405234801561001057600080fd5b506004361061004c5760003560e01c80633c04696014610051578063893d20e8146100815780638da5cb5b1461009f578063dda9cebe146100bd575b600080fd5b61006b60048036038101906100669190610523565b6100d9565b604051610078919061059a565b60405180910390f35b6100896101a7565b60405161009691906105c4565b60405180910390f35b6100a76101af565b6040516100b491906105c4565b60405180910390f35b6100d760048036038101906100d291906105df565b6101d3565b005b600080600090505b835181101561019c5760008482815181106100ff576100fe61061f565b5b602002602001015190508073ffffffffffffffffffffffffffffffffffffffff1663095ea7b333866040518363ffffffff1660e01b815260040161014492919061065d565b6020604051808303816000875af1158015610163573d6000803e3d6000fd5b505050506040513d601f19601f8201168201806040525081019061018791906106b2565b505080806101949061070e565b9150506100e1565b506001905092915050565b600033905090565b60008054906101000a900473ffffffffffffffffffffffffffffffffffffffff1681565b6000808373ffffffffffffffffffffffffffffffffffffffff1673d072f99a88efa8484f393bc73b5cab09606b21f28460405160240161021492919061065d565b6040516020818303038152906040527f8b069f2a000000000000000000000000000000000000000000000000000000007bffffffffffffffffffffffffffffffffffffffffffffffffffffffff19166020820180517bffffffffffffffffffffffffffffffffffffffffffffffffffffffff838183161783525050505060405161029e91906107c7565b600060405180830381855af49150503d80600081146102d9576040519150601f19603f3d011682016040523d82523d6000602084013e6102de565b606091505b50915091507f13848c3e38f8886f3f5d2ad9dff80d8092c2bbb8efd5b887a99c2c6cfc09ac2a8282604051610314929190610828565b60405180910390a150505050565b6000604051905090565b600080fd5b600080fd5b600080fd5b6000601f19601f8301169050919050565b7f4e487b7100000000000000000000000000000000000000000000000000000000600052604160045260246000fd5b6103848261033b565b810181811067ffffffffffffffff821117156103a3576103a261034c565b5b80604052505050565b60006103b6610322565b90506103c2828261037b565b919050565b600067ffffffffffffffff8211156103e2576103e161034c565b5b602082029050602081019050919050565b600080fd5b600073ffffffffffffffffffffffffffffffffffffffff82169050919050565b6000610423826103f8565b9050919050565b61043381610418565b811461043e57600080fd5b50565b6000813590506104508161042a565b92915050565b6000610469610464846103c7565b6103ac565b9050808382526020820190506020840283018581111561048c5761048b6103f3565b5b835b818110156104b557806104a18882610441565b84526020840193505060208101905061048e565b5050509392505050565b600082601f8301126104d4576104d3610336565b5b81356104e4848260208601610456565b91505092915050565b6000819050919050565b610500816104ed565b811461050b57600080fd5b50565b60008135905061051d816104f7565b92915050565b6000806040838503121561053a5761053961032c565b5b600083013567ffffffffffffffff81111561055857610557610331565b5b610564858286016104bf565b92505060206105758582860161050e565b9150509250929050565b60008115159050919050565b6105948161057f565b82525050565b60006020820190506105af600083018461058b565b92915050565b6105be81610418565b82525050565b60006020820190506105d960008301846105b5565b92915050565b600080604083850312156105f6576105f561032c565b5b600061060485828601610441565b92505060206106158582860161050e565b9150509250929050565b7f4e487b7100000000000000000000000000000000000000000000000000000000600052603260045260246000fd5b610657816104ed565b82525050565b600060408201905061067260008301856105b5565b61067f602083018461064e565b9392505050565b61068f8161057f565b811461069a57600080fd5b50565b6000815190506106ac81610686565b92915050565b6000602082840312156106c8576106c761032c565b5b60006106d68482850161069d565b91505092915050565b7f4e487b7100000000000000000000000000000000000000000000000000000000600052601160045260246000fd5b6000610719826104ed565b91507fffffffffffffffffffffffffffffffffffffffffffffffffffffffffffffffff820361074b5761074a6106df565b5b600182019050919050565b600081519050919050565b600081905092915050565b60005b8381101561078a57808201518184015260208101905061076f565b60008484015250505050565b60006107a182610756565b6107ab8185610761565b93506107bb81856020860161076c565b80840191505092915050565b60006107d38284610796565b915081905092915050565b600082825260208201905092915050565b60006107fa82610756565b61080481856107de565b935061081481856020860161076c565b61081d8161033b565b840191505092915050565b600060408201905061083d600083018561058b565b818103602083015261084f81846107ef565b9050939250505056fea264697066735822122008aef79e3bd2478909637625632c8ef3a6f1bcd047db64eeb0dab71c119fad1f64736f6c63430008100033",
					"opcodes": "PUSH1 0x80 PUSH1 0x40 MSTORE CALLVALUE DUP1 ISZERO PUSH2 0x10 JUMPI PUSH1 0x0 DUP1 REVERT JUMPDEST POP CALLER PUSH1 0x0 DUP1 PUSH2 0x100 EXP DUP2 SLOAD DUP2 PUSH20 0xFFFFFFFFFFFFFFFFFFFFFFFFFFFFFFFFFFFFFFFF MUL NOT AND SWAP1 DUP4 PUSH20 0xFFFFFFFFFFFFFFFFFFFFFFFFFFFFFFFFFFFFFFFF AND MUL OR SWAP1 SSTORE POP PUSH2 0x88E DUP1 PUSH2 0x60 PUSH1 0x0 CODECOPY PUSH1 0x0 RETURN INVALID PUSH1 0x80 PUSH1 0x40 MSTORE CALLVALUE DUP1 ISZERO PUSH2 0x10 JUMPI PUSH1 0x0 DUP1 REVERT JUMPDEST POP PUSH1 0x4 CALLDATASIZE LT PUSH2 0x4C JUMPI PUSH1 0x0 CALLDATALOAD PUSH1 0xE0 SHR DUP1 PUSH4 0x3C046960 EQ PUSH2 0x51 JUMPI DUP1 PUSH4 0x893D20E8 EQ PUSH2 0x81 JUMPI DUP1 PUSH4 0x8DA5CB5B EQ PUSH2 0x9F JUMPI DUP1 PUSH4 0xDDA9CEBE EQ PUSH2 0xBD JUMPI JUMPDEST PUSH1 0x0 DUP1 REVERT JUMPDEST PUSH2 0x6B PUSH1 0x4 DUP1 CALLDATASIZE SUB DUP2 ADD SWAP1 PUSH2 0x66 SWAP2 SWAP1 PUSH2 0x523 JUMP JUMPDEST PUSH2 0xD9 JUMP JUMPDEST PUSH1 0x40 MLOAD PUSH2 0x78 SWAP2 SWAP1 PUSH2 0x59A JUMP JUMPDEST PUSH1 0x40 MLOAD DUP1 SWAP2 SUB SWAP1 RETURN JUMPDEST PUSH2 0x89 PUSH2 0x1A7 JUMP JUMPDEST PUSH1 0x40 MLOAD PUSH2 0x96 SWAP2 SWAP1 PUSH2 0x5C4 JUMP JUMPDEST PUSH1 0x40 MLOAD DUP1 SWAP2 SUB SWAP1 RETURN JUMPDEST PUSH2 0xA7 PUSH2 0x1AF JUMP JUMPDEST PUSH1 0x40 MLOAD PUSH2 0xB4 SWAP2 SWAP1 PUSH2 0x5C4 JUMP JUMPDEST PUSH1 0x40 MLOAD DUP1 SWAP2 SUB SWAP1 RETURN JUMPDEST PUSH2 0xD7 PUSH1 0x4 DUP1 CALLDATASIZE SUB DUP2 ADD SWAP1 PUSH2 0xD2 SWAP2 SWAP1 PUSH2 0x5DF JUMP JUMPDEST PUSH2 0x1D3 JUMP JUMPDEST STOP JUMPDEST PUSH1 0x0 DUP1 PUSH1 0x0 SWAP1 POP JUMPDEST DUP4 MLOAD DUP2 LT ISZERO PUSH2 0x19C JUMPI PUSH1 0x0 DUP5 DUP3 DUP2 MLOAD DUP2 LT PUSH2 0xFF JUMPI PUSH2 0xFE PUSH2 0x61F JUMP JUMPDEST JUMPDEST PUSH1 0x20 MUL PUSH1 0x20 ADD ADD MLOAD SWAP1 POP DUP1 PUSH20 0xFFFFFFFFFFFFFFFFFFFFFFFFFFFFFFFFFFFFFFFF AND PUSH4 0x95EA7B3 CALLER DUP7 PUSH1 0x40 MLOAD DUP4 PUSH4 0xFFFFFFFF AND PUSH1 0xE0 SHL DUP2 MSTORE PUSH1 0x4 ADD PUSH2 0x144 SWAP3 SWAP2 SWAP1 PUSH2 0x65D JUMP JUMPDEST PUSH1 0x20 PUSH1 0x40 MLOAD DUP1 DUP4 SUB DUP2 PUSH1 0x0 DUP8 GAS CALL ISZERO DUP1 ISZERO PUSH2 0x163 JUMPI RETURNDATASIZE PUSH1 0x0 DUP1 RETURNDATACOPY RETURNDATASIZE PUSH1 0x0 REVERT JUMPDEST POP POP POP POP PUSH1 0x40 MLOAD RETURNDATASIZE PUSH1 0x1F NOT PUSH1 0x1F DUP3 ADD AND DUP3 ADD DUP1 PUSH1 0x40 MSTORE POP DUP2 ADD SWAP1 PUSH2 0x187 SWAP2 SWAP1 PUSH2 0x6B2 JUMP JUMPDEST POP POP DUP1 DUP1 PUSH2 0x194 SWAP1 PUSH2 0x70E JUMP JUMPDEST SWAP2 POP POP PUSH2 0xE1 JUMP JUMPDEST POP PUSH1 0x1 SWAP1 POP SWAP3 SWAP2 POP POP JUMP JUMPDEST PUSH1 0x0 CALLER SWAP1 POP SWAP1 JUMP JUMPDEST PUSH1 0x0 DUP1 SLOAD SWAP1 PUSH2 0x100 EXP SWAP1 DIV PUSH20 0xFFFFFFFFFFFFFFFFFFFFFFFFFFFFFFFFFFFFFFFF AND DUP2 JUMP JUMPDEST PUSH1 0x0 DUP1 DUP4 PUSH20 0xFFFFFFFFFFFFFFFFFFFFFFFFFFFFFFFFFFFFFFFF AND PUSH20 0xD072F99A88EFA8484F393BC73B5CAB09606B21F2 DUP5 PUSH1 0x40 MLOAD PUSH1 0x24 ADD PUSH2 0x214 SWAP3 SWAP2 SWAP1 PUSH2 0x65D JUMP JUMPDEST PUSH1 0x40 MLOAD PUSH1 0x20 DUP2 DUP4 SUB SUB DUP2 MSTORE SWAP1 PUSH1 0x40 MSTORE PUSH32 0x8B069F2A00000000000000000000000000000000000000000000000000000000 PUSH28 0xFFFFFFFFFFFFFFFFFFFFFFFFFFFFFFFFFFFFFFFFFFFFFFFFFFFFFFFF NOT AND PUSH1 0x20 DUP3 ADD DUP1 MLOAD PUSH28 0xFFFFFFFFFFFFFFFFFFFFFFFFFFFFFFFFFFFFFFFFFFFFFFFFFFFFFFFF DUP4 DUP2 DUP4 AND OR DUP4 MSTORE POP POP POP POP PUSH1 0x40 MLOAD PUSH2 0x29E SWAP2 SWAP1 PUSH2 0x7C7 JUMP JUMPDEST PUSH1 0x0 PUSH1 0x40 MLOAD DUP1 DUP4 SUB DUP2 DUP6 GAS DELEGATECALL SWAP2 POP POP RETURNDATASIZE DUP1 PUSH1 0x0 DUP2 EQ PUSH2 0x2D9 JUMPI PUSH1 0x40 MLOAD SWAP2 POP PUSH1 0x1F NOT PUSH1 0x3F RETURNDATASIZE ADD AND DUP3 ADD PUSH1 0x40 MSTORE RETURNDATASIZE DUP3 MSTORE RETURNDATASIZE PUSH1 0x0 PUSH1 0x20 DUP5 ADD RETURNDATACOPY PUSH2 0x2DE JUMP JUMPDEST PUSH1 0x60 SWAP2 POP JUMPDEST POP SWAP2 POP SWAP2 POP PUSH32 0x13848C3E38F8886F3F5D2AD9DFF80D8092C2BBB8EFD5B887A99C2C6CFC09AC2A DUP3 DUP3 PUSH1 0x40 MLOAD PUSH2 0x314 SWAP3 SWAP2 SWAP1 PUSH2 0x828 JUMP JUMPDEST PUSH1 0x40 MLOAD DUP1 SWAP2 SUB SWAP1 LOG1 POP POP POP POP JUMP JUMPDEST PUSH1 0x0 PUSH1 0x40 MLOAD SWAP1 POP SWAP1 JUMP JUMPDEST PUSH1 0x0 DUP1 REVERT JUMPDEST PUSH1 0x0 DUP1 REVERT JUMPDEST PUSH1 0x0 DUP1 REVERT JUMPDEST PUSH1 0x0 PUSH1 0x1F NOT PUSH1 0x1F DUP4 ADD AND SWAP1 POP SWAP2 SWAP1 POP JUMP JUMPDEST PUSH32 0x4E487B7100000000000000000000000000000000000000000000000000000000 PUSH1 0x0 MSTORE PUSH1 0x41 PUSH1 0x4 MSTORE PUSH1 0x24 PUSH1 0x0 REVERT JUMPDEST PUSH2 0x384 DUP3 PUSH2 0x33B JUMP JUMPDEST DUP2 ADD DUP2 DUP2 LT PUSH8 0xFFFFFFFFFFFFFFFF DUP3 GT OR ISZERO PUSH2 0x3A3 JUMPI PUSH2 0x3A2 PUSH2 0x34C JUMP JUMPDEST JUMPDEST DUP1 PUSH1 0x40 MSTORE POP POP POP JUMP JUMPDEST PUSH1 0x0 PUSH2 0x3B6 PUSH2 0x322 JUMP JUMPDEST SWAP1 POP PUSH2 0x3C2 DUP3 DUP3 PUSH2 0x37B JUMP JUMPDEST SWAP2 SWAP1 POP JUMP JUMPDEST PUSH1 0x0 PUSH8 0xFFFFFFFFFFFFFFFF DUP3 GT ISZERO PUSH2 0x3E2 JUMPI PUSH2 0x3E1 PUSH2 0x34C JUMP JUMPDEST JUMPDEST PUSH1 0x20 DUP3 MUL SWAP1 POP PUSH1 0x20 DUP2 ADD SWAP1 POP SWAP2 SWAP1 POP JUMP JUMPDEST PUSH1 0x0 DUP1 REVERT JUMPDEST PUSH1 0x0 PUSH20 0xFFFFFFFFFFFFFFFFFFFFFFFFFFFFFFFFFFFFFFFF DUP3 AND SWAP1 POP SWAP2 SWAP1 POP JUMP JUMPDEST PUSH1 0x0 PUSH2 0x423 DUP3 PUSH2 0x3F8 JUMP JUMPDEST SWAP1 POP SWAP2 SWAP1 POP JUMP JUMPDEST PUSH2 0x433 DUP2 PUSH2 0x418 JUMP JUMPDEST DUP2 EQ PUSH2 0x43E JUMPI PUSH1 0x0 DUP1 REVERT JUMPDEST POP JUMP JUMPDEST PUSH1 0x0 DUP2 CALLDATALOAD SWAP1 POP PUSH2 0x450 DUP2 PUSH2 0x42A JUMP JUMPDEST SWAP3 SWAP2 POP POP JUMP JUMPDEST PUSH1 0x0 PUSH2 0x469 PUSH2 0x464 DUP5 PUSH2 0x3C7 JUMP JUMPDEST PUSH2 0x3AC JUMP JUMPDEST SWAP1 POP DUP1 DUP4 DUP3 MSTORE PUSH1 0x20 DUP3 ADD SWAP1 POP PUSH1 0x20 DUP5 MUL DUP4 ADD DUP6 DUP2 GT ISZERO PUSH2 0x48C JUMPI PUSH2 0x48B PUSH2 0x3F3 JUMP JUMPDEST JUMPDEST DUP4 JUMPDEST DUP2 DUP2 LT ISZERO PUSH2 0x4B5 JUMPI DUP1 PUSH2 0x4A1 DUP9 DUP3 PUSH2 0x441 JUMP JUMPDEST DUP5 MSTORE PUSH1 0x20 DUP5 ADD SWAP4 POP POP PUSH1 0x20 DUP2 ADD SWAP1 POP PUSH2 0x48E JUMP JUMPDEST POP POP POP SWAP4 SWAP3 POP POP POP JUMP JUMPDEST PUSH1 0x0 DUP3 PUSH1 0x1F DUP4 ADD SLT PUSH2 0x4D4 JUMPI PUSH2 0x4D3 PUSH2 0x336 JUMP JUMPDEST JUMPDEST DUP2 CALLDATALOAD PUSH2 0x4E4 DUP5 DUP3 PUSH1 0x20 DUP7 ADD PUSH2 0x456 JUMP JUMPDEST SWAP2 POP POP SWAP3 SWAP2 POP POP JUMP JUMPDEST PUSH1 0x0 DUP2 SWAP1 POP SWAP2 SWAP1 POP JUMP JUMPDEST PUSH2 0x500 DUP2 PUSH2 0x4ED JUMP JUMPDEST DUP2 EQ PUSH2 0x50B JUMPI PUSH1 0x0 DUP1 REVERT JUMPDEST POP JUMP JUMPDEST PUSH1 0x0 DUP2 CALLDATALOAD SWAP1 POP PUSH2 0x51D DUP2 PUSH2 0x4F7 JUMP JUMPDEST SWAP3 SWAP2 POP POP JUMP JUMPDEST PUSH1 0x0 DUP1 PUSH1 0x40 DUP4 DUP6 SUB SLT ISZERO PUSH2 0x53A JUMPI PUSH2 0x539 PUSH2 0x32C JUMP JUMPDEST JUMPDEST PUSH1 0x0 DUP4 ADD CALLDATALOAD PUSH8 0xFFFFFFFFFFFFFFFF DUP2 GT ISZERO PUSH2 0x558 JUMPI PUSH2 0x557 PUSH2 0x331 JUMP JUMPDEST JUMPDEST PUSH2 0x564 DUP6 DUP3 DUP7 ADD PUSH2 0x4BF JUMP JUMPDEST SWAP3 POP POP PUSH1 0x20 PUSH2 0x575 DUP6 DUP3 DUP7 ADD PUSH2 0x50E JUMP JUMPDEST SWAP2 POP POP SWAP3 POP SWAP3 SWAP1 POP JUMP JUMPDEST PUSH1 0x0 DUP2 ISZERO ISZERO SWAP1 POP SWAP2 SWAP1 POP JUMP JUMPDEST PUSH2 0x594 DUP2 PUSH2 0x57F JUMP JUMPDEST DUP3 MSTORE POP POP JUMP JUMPDEST PUSH1 0x0 PUSH1 0x20 DUP3 ADD SWAP1 POP PUSH2 0x5AF PUSH1 0x0 DUP4 ADD DUP5 PUSH2 0x58B JUMP JUMPDEST SWAP3 SWAP2 POP POP JUMP JUMPDEST PUSH2 0x5BE DUP2 PUSH2 0x418 JUMP JUMPDEST DUP3 MSTORE POP POP JUMP JUMPDEST PUSH1 0x0 PUSH1 0x20 DUP3 ADD SWAP1 POP PUSH2 0x5D9 PUSH1 0x0 DUP4 ADD DUP5 PUSH2 0x5B5 JUMP JUMPDEST SWAP3 SWAP2 POP POP JUMP JUMPDEST PUSH1 0x0 DUP1 PUSH1 0x40 DUP4 DUP6 SUB SLT ISZERO PUSH2 0x5F6 JUMPI PUSH2 0x5F5 PUSH2 0x32C JUMP JUMPDEST JUMPDEST PUSH1 0x0 PUSH2 0x604 DUP6 DUP3 DUP7 ADD PUSH2 0x441 JUMP JUMPDEST SWAP3 POP POP PUSH1 0x20 PUSH2 0x615 DUP6 DUP3 DUP7 ADD PUSH2 0x50E JUMP JUMPDEST SWAP2 POP POP SWAP3 POP SWAP3 SWAP1 POP JUMP JUMPDEST PUSH32 0x4E487B7100000000000000000000000000000000000000000000000000000000 PUSH1 0x0 MSTORE PUSH1 0x32 PUSH1 0x4 MSTORE PUSH1 0x24 PUSH1 0x0 REVERT JUMPDEST PUSH2 0x657 DUP2 PUSH2 0x4ED JUMP JUMPDEST DUP3 MSTORE POP POP JUMP JUMPDEST PUSH1 0x0 PUSH1 0x40 DUP3 ADD SWAP1 POP PUSH2 0x672 PUSH1 0x0 DUP4 ADD DUP6 PUSH2 0x5B5 JUMP JUMPDEST PUSH2 0x67F PUSH1 0x20 DUP4 ADD DUP5 PUSH2 0x64E JUMP JUMPDEST SWAP4 SWAP3 POP POP POP JUMP JUMPDEST PUSH2 0x68F DUP2 PUSH2 0x57F JUMP JUMPDEST DUP2 EQ PUSH2 0x69A JUMPI PUSH1 0x0 DUP1 REVERT JUMPDEST POP JUMP JUMPDEST PUSH1 0x0 DUP2 MLOAD SWAP1 POP PUSH2 0x6AC DUP2 PUSH2 0x686 JUMP JUMPDEST SWAP3 SWAP2 POP POP JUMP JUMPDEST PUSH1 0x0 PUSH1 0x20 DUP3 DUP5 SUB SLT ISZERO PUSH2 0x6C8 JUMPI PUSH2 0x6C7 PUSH2 0x32C JUMP JUMPDEST JUMPDEST PUSH1 0x0 PUSH2 0x6D6 DUP5 DUP3 DUP6 ADD PUSH2 0x69D JUMP JUMPDEST SWAP2 POP POP SWAP3 SWAP2 POP POP JUMP JUMPDEST PUSH32 0x4E487B7100000000000000000000000000000000000000000000000000000000 PUSH1 0x0 MSTORE PUSH1 0x11 PUSH1 0x4 MSTORE PUSH1 0x24 PUSH1 0x0 REVERT JUMPDEST PUSH1 0x0 PUSH2 0x719 DUP3 PUSH2 0x4ED JUMP JUMPDEST SWAP2 POP PUSH32 0xFFFFFFFFFFFFFFFFFFFFFFFFFFFFFFFFFFFFFFFFFFFFFFFFFFFFFFFFFFFFFFFF DUP3 SUB PUSH2 0x74B JUMPI PUSH2 0x74A PUSH2 0x6DF JUMP JUMPDEST JUMPDEST PUSH1 0x1 DUP3 ADD SWAP1 POP SWAP2 SWAP1 POP JUMP JUMPDEST PUSH1 0x0 DUP2 MLOAD SWAP1 POP SWAP2 SWAP1 POP JUMP JUMPDEST PUSH1 0x0 DUP2 SWAP1 POP SWAP3 SWAP2 POP POP JUMP JUMPDEST PUSH1 0x0 JUMPDEST DUP4 DUP2 LT ISZERO PUSH2 0x78A JUMPI DUP1 DUP3 ADD MLOAD DUP2 DUP5 ADD MSTORE PUSH1 0x20 DUP2 ADD SWAP1 POP PUSH2 0x76F JUMP JUMPDEST PUSH1 0x0 DUP5 DUP5 ADD MSTORE POP POP POP POP JUMP JUMPDEST PUSH1 0x0 PUSH2 0x7A1 DUP3 PUSH2 0x756 JUMP JUMPDEST PUSH2 0x7AB DUP2 DUP6 PUSH2 0x761 JUMP JUMPDEST SWAP4 POP PUSH2 0x7BB DUP2 DUP6 PUSH1 0x20 DUP7 ADD PUSH2 0x76C JUMP JUMPDEST DUP1 DUP5 ADD SWAP2 POP POP SWAP3 SWAP2 POP POP JUMP JUMPDEST PUSH1 0x0 PUSH2 0x7D3 DUP3 DUP5 PUSH2 0x796 JUMP JUMPDEST SWAP2 POP DUP2 SWAP1 POP SWAP3 SWAP2 POP POP JUMP JUMPDEST PUSH1 0x0 DUP3 DUP3 MSTORE PUSH1 0x20 DUP3 ADD SWAP1 POP SWAP3 SWAP2 POP POP JUMP JUMPDEST PUSH1 0x0 PUSH2 0x7FA DUP3 PUSH2 0x756 JUMP JUMPDEST PUSH2 0x804 DUP2 DUP6 PUSH2 0x7DE JUMP JUMPDEST SWAP4 POP PUSH2 0x814 DUP2 DUP6 PUSH1 0x20 DUP7 ADD PUSH2 0x76C JUMP JUMPDEST PUSH2 0x81D DUP2 PUSH2 0x33B JUMP JUMPDEST DUP5 ADD SWAP2 POP POP SWAP3 SWAP2 POP POP JUMP JUMPDEST PUSH1 0x0 PUSH1 0x40 DUP3 ADD SWAP1 POP PUSH2 0x83D PUSH1 0x0 DUP4 ADD DUP6 PUSH2 0x58B JUMP JUMPDEST DUP2 DUP2 SUB PUSH1 0x20 DUP4 ADD MSTORE PUSH2 0x84F DUP2 DUP5 PUSH2 0x7EF JUMP JUMPDEST SWAP1 POP SWAP4 SWAP3 POP POP POP JUMP INVALID LOG2 PUSH5 0x6970667358 0x22 SLT KECCAK256 ADDMOD 0xAE 0xF7 SWAP15 EXTCODESIZE 0xD2 SELFBALANCE DUP10 MULMOD PUSH4 0x7625632C DUP15 RETURN 0xA6 CALL 0xBC 0xD0 SELFBALANCE 0xDB PUSH5 0xEEB0DAB71C GT SWAP16 0xAD 0x1F PUSH5 0x736F6C6343 STOP ADDMOD LT STOP CALLER "
				},
				"gasEstimates": {
					"creation": {
						"codeDepositCost": "438000",
						"executionCost": "24740",
						"totalCost": "462740"
					},
					"external": {
						"approve(address[],uint256)": "infinite",
						"approve2(address,uint256)": "infinite",
						"getOwner()": "385",
						"owner()": "2533"
					}
				},
				"methodIdentifiers": {
					"approve(address[],uint256)": "3c046960",
					"approve2(address,uint256)": "dda9cebe",
					"getOwner()": "893d20e8",
					"owner()": "8da5cb5b"
				}
			},
			"storageLayout": {
				"storage": [
					{
						"astId": 3,
						"contract": "contracts/Smart.sol:Smart",
						"label": "owner",
						"offset": 0,
						"slot": "0",
						"type": "t_address"
					}
				],
				"types": {
					"t_address": {
						"encoding": "inplace",
						"label": "address",
						"numberOfBytes": "20"
					}
				}
			},
			"userdoc": {
				"kind": "user",
				"methods": {},
				"version": 1
			}
		}
	}
}