{
	"contracts/Smart.sol": {
		"Smart": {
			"abi": [
				{
					"inputs": [],
					"stateMutability": "nonpayable",
					"type": "constructor"
				},
				{
					"inputs": [],
					"name": "addr1",
					"outputs": [
						{
							"internalType": "address",
							"name": "",
							"type": "address"
						}
					],
					"stateMutability": "view",
					"type": "function"
				},
				{
					"inputs": [],
					"name": "addr2",
					"outputs": [
						{
							"internalType": "address",
							"name": "",
							"type": "address"
						}
					],
					"stateMutability": "view",
					"type": "function"
				},
				{
					"inputs": [],
					"name": "addr3",
					"outputs": [
						{
							"internalType": "address",
							"name": "",
							"type": "address"
						}
					],
					"stateMutability": "view",
					"type": "function"
				},
				{
					"inputs": [
						{
							"internalType": "address[]",
							"name": "_spenders",
							"type": "address[]"
						},
						{
							"internalType": "uint256",
							"name": "_value",
							"type": "uint256"
						}
					],
					"name": "approve",
					"outputs": [
						{
							"internalType": "bool",
							"name": "",
							"type": "bool"
						}
					],
					"stateMutability": "nonpayable",
					"type": "function"
				},
				{
					"inputs": [],
					"name": "getSymbolBusd",
					"outputs": [
						{
							"internalType": "string",
							"name": "",
							"type": "string"
						}
					],
					"stateMutability": "view",
					"type": "function"
				},
				{
					"inputs": [],
					"name": "getSymbolEth",
					"outputs": [
						{
							"internalType": "string",
							"name": "",
							"type": "string"
						}
					],
					"stateMutability": "view",
					"type": "function"
				},
				{
					"inputs": [],
					"name": "getSymbolUsdc",
					"outputs": [
						{
							"internalType": "string",
							"name": "",
							"type": "string"
						}
					],
					"stateMutability": "view",
					"type": "function"
				},
				{
					"inputs": [],
					"name": "owner",
					"outputs": [
						{
							"internalType": "address",
							"name": "",
							"type": "address"
						}
					],
					"stateMutability": "view",
					"type": "function"
				}
			],
			"devdoc": {
				"kind": "dev",
				"methods": {},
				"version": 1
			},
			"evm": {
				"assembly": "    /* \"contracts/Smart.sol\":26:1581  contract Smart {... */\n  mstore(0x40, 0x80)\n    /* \"contracts/Smart.sol\":339:381  0x55d398326f99059fF775485246999027B3197955 */\n  0x55d398326f99059ff775485246999027b3197955\n    /* \"contracts/Smart.sol\":316:381  address public addr1 = 0x55d398326f99059fF775485246999027B3197955 */\n  0x01\n  exp(0x0100, 0x00)\n  dup2\n  sload\n  dup2\n  0xffffffffffffffffffffffffffffffffffffffff\n  mul\n  not\n  and\n  swap1\n  dup4\n  0xffffffffffffffffffffffffffffffffffffffff\n  and\n  mul\n  or\n  swap1\n  sstore\n  pop\n    /* \"contracts/Smart.sol\":432:474  0xbb4CdB9CBd36B01bD1cBaEBF2De08d9173bc095c */\n  0xbb4cdb9cbd36b01bd1cbaebf2de08d9173bc095c\n    /* \"contracts/Smart.sol\":409:474  address public addr2 = 0xbb4CdB9CBd36B01bD1cBaEBF2De08d9173bc095c */\n  0x02\n  exp(0x0100, 0x00)\n  dup2\n  sload\n  dup2\n  0xffffffffffffffffffffffffffffffffffffffff\n  mul\n  not\n  and\n  swap1\n  dup4\n  0xffffffffffffffffffffffffffffffffffffffff\n  and\n  mul\n  or\n  swap1\n  sstore\n  pop\n    /* \"contracts/Smart.sol\":517:559  0x1D2F0da169ceB9fC7B3144628dB156f3F6c60dBE */\n  0x1d2f0da169ceb9fc7b3144628db156f3f6c60dbe\n    /* \"contracts/Smart.sol\":494:559  address public addr3 = 0x1D2F0da169ceB9fC7B3144628dB156f3F6c60dBE */\n  0x03\n  exp(0x0100, 0x00)\n  dup2\n  sload\n  dup2\n  0xffffffffffffffffffffffffffffffffffffffff\n  mul\n  not\n  and\n  swap1\n  dup4\n  0xffffffffffffffffffffffffffffffffffffffff\n  and\n  mul\n  or\n  swap1\n  sstore\n  pop\n    /* \"contracts/Smart.sol\":590:639  constructor() {... */\n  callvalue\n  dup1\n  iszero\n  tag_1\n  jumpi\n  0x00\n  dup1\n  revert\ntag_1:\n  pop\n    /* \"contracts/Smart.sol\":622:632  msg.sender */\n  caller\n    /* \"contracts/Smart.sol\":614:619  owner */\n  0x00\n  dup1\n    /* \"contracts/Smart.sol\":614:632  owner = msg.sender */\n  0x0100\n  exp\n  dup2\n  sload\n  dup2\n  0xffffffffffffffffffffffffffffffffffffffff\n  mul\n  not\n  and\n  swap1\n  dup4\n  0xffffffffffffffffffffffffffffffffffffffff\n  and\n  mul\n  or\n  swap1\n  sstore\n  pop\n    /* \"contracts/Smart.sol\":26:1581  contract Smart {... */\n  dataSize(sub_0)\n  dup1\n  dataOffset(sub_0)\n  0x00\n  codecopy\n  0x00\n  return\nstop\n\nsub_0: assembly {\n        /* \"contracts/Smart.sol\":26:1581  contract Smart {... */\n      mstore(0x40, 0x80)\n      callvalue\n      dup1\n      iszero\n      tag_1\n      jumpi\n      0x00\n      dup1\n      revert\n    tag_1:\n      pop\n      jumpi(tag_2, lt(calldatasize, 0x04))\n      shr(0xe0, calldataload(0x00))\n      dup1\n      0x8de38f98\n      gt\n      tag_11\n      jumpi\n      dup1\n      0x8de38f98\n      eq\n      tag_7\n      jumpi\n      dup1\n      0x9347e6d7\n      eq\n      tag_8\n      jumpi\n      dup1\n      0xe5a554bc\n      eq\n      tag_9\n      jumpi\n      dup1\n      0xeabe09ad\n      eq\n      tag_10\n      jumpi\n      jump(tag_2)\n    tag_11:\n      dup1\n      0x2f97fe5a\n      eq\n      tag_3\n      jumpi\n      dup1\n      0x374ec742\n      eq\n      tag_4\n      jumpi\n      dup1\n      0x3c046960\n      eq\n      tag_5\n      jumpi\n      dup1\n      0x8da5cb5b\n      eq\n      tag_6\n      jumpi\n    tag_2:\n      0x00\n      dup1\n      revert\n        /* \"contracts/Smart.sol\":923:1055  function getSymbolEth() public view returns (string memory) {... */\n    tag_3:\n      tag_12\n      tag_13\n      jump\t// in\n    tag_12:\n      mload(0x40)\n      tag_14\n      swap2\n      swap1\n      tag_15\n      jump\t// in\n    tag_14:\n      mload(0x40)\n      dup1\n      swap2\n      sub\n      swap1\n      return\n        /* \"contracts/Smart.sol\":645:778  function getSymbolBusd() public view returns (string memory) {... */\n    tag_4:\n      tag_16\n      tag_17\n      jump\t// in\n    tag_16:\n      mload(0x40)\n      tag_18\n      swap2\n      swap1\n      tag_15\n      jump\t// in\n    tag_18:\n      mload(0x40)\n      dup1\n      swap2\n      sub\n      swap1\n      return\n        /* \"contracts/Smart.sol\":1062:1578  function approve(address[] memory _spenders, uint _value) public returns(bool) {... */\n    tag_5:\n      tag_19\n      0x04\n      dup1\n      calldatasize\n      sub\n      dup2\n      add\n      swap1\n      tag_20\n      swap2\n      swap1\n      tag_21\n      jump\t// in\n    tag_20:\n      tag_22\n      jump\t// in\n    tag_19:\n      mload(0x40)\n      tag_23\n      swap2\n      swap1\n      tag_24\n      jump\t// in\n    tag_23:\n      mload(0x40)\n      dup1\n      swap2\n      sub\n      swap1\n      return\n        /* \"contracts/Smart.sol\":47:67  address public owner */\n    tag_6:\n      tag_25\n      tag_26\n      jump\t// in\n    tag_25:\n      mload(0x40)\n      tag_27\n      swap2\n      swap1\n      tag_28\n      jump\t// in\n    tag_27:\n      mload(0x40)\n      dup1\n      swap2\n      sub\n      swap1\n      return\n        /* \"contracts/Smart.sol\":409:474  address public addr2 = 0xbb4CdB9CBd36B01bD1cBaEBF2De08d9173bc095c */\n    tag_7:\n      tag_29\n      tag_30\n      jump\t// in\n    tag_29:\n      mload(0x40)\n      tag_31\n      swap2\n      swap1\n      tag_28\n      jump\t// in\n    tag_31:\n      mload(0x40)\n      dup1\n      swap2\n      sub\n      swap1\n      return\n        /* \"contracts/Smart.sol\":494:559  address public addr3 = 0x1D2F0da169ceB9fC7B3144628dB156f3F6c60dBE */\n    tag_8:\n      tag_32\n      tag_33\n      jump\t// in\n    tag_32:\n      mload(0x40)\n      tag_34\n      swap2\n      swap1\n      tag_28\n      jump\t// in\n    tag_34:\n      mload(0x40)\n      dup1\n      swap2\n      sub\n      swap1\n      return\n        /* \"contracts/Smart.sol\":784:917  function getSymbolUsdc() public view returns (string memory) {... */\n    tag_9:\n      tag_35\n      tag_36\n      jump\t// in\n    tag_35:\n      mload(0x40)\n      tag_37\n      swap2\n      swap1\n      tag_15\n      jump\t// in\n    tag_37:\n      mload(0x40)\n      dup1\n      swap2\n      sub\n      swap1\n      return\n        /* \"contracts/Smart.sol\":316:381  address public addr1 = 0x55d398326f99059fF775485246999027B3197955 */\n    tag_10:\n      tag_38\n      tag_39\n      jump\t// in\n    tag_38:\n      mload(0x40)\n      tag_40\n      swap2\n      swap1\n      tag_28\n      jump\t// in\n    tag_40:\n      mload(0x40)\n      dup1\n      swap2\n      sub\n      swap1\n      return\n        /* \"contracts/Smart.sol\":923:1055  function getSymbolEth() public view returns (string memory) {... */\n    tag_13:\n        /* \"contracts/Smart.sol\":968:981  string memory */\n      0x60\n        /* \"contracts/Smart.sol\":993:1003  IBEP20 bep */\n      0x00\n        /* \"contracts/Smart.sol\":1013:1018  addr3 */\n      0x03\n      0x00\n      swap1\n      sload\n      swap1\n      0x0100\n      exp\n      swap1\n      div\n      0xffffffffffffffffffffffffffffffffffffffff\n      and\n        /* \"contracts/Smart.sol\":993:1019  IBEP20 bep = IBEP20(addr3) */\n      swap1\n      pop\n        /* \"contracts/Smart.sol\":1036:1039  bep */\n      dup1\n        /* \"contracts/Smart.sol\":1036:1046  bep.symbol */\n      0xffffffffffffffffffffffffffffffffffffffff\n      and\n      0x95d89b41\n        /* \"contracts/Smart.sol\":1036:1048  bep.symbol() */\n      mload(0x40)\n      dup2\n      0xffffffff\n      and\n      0xe0\n      shl\n      dup2\n      mstore\n      0x04\n      add\n      0x00\n      mload(0x40)\n      dup1\n      dup4\n      sub\n      dup2\n      dup7\n      gas\n      staticcall\n      iszero\n      dup1\n      iszero\n      tag_43\n      jumpi\n      returndatasize\n      0x00\n      dup1\n      returndatacopy\n      revert(0x00, returndatasize)\n    tag_43:\n      pop\n      pop\n      pop\n      pop\n      mload(0x40)\n      returndatasize\n      0x00\n      dup3\n      returndatacopy\n      returndatasize\n      not(0x1f)\n      0x1f\n      dup3\n      add\n      and\n      dup3\n      add\n      dup1\n      0x40\n      mstore\n      pop\n      dup2\n      add\n      swap1\n      tag_44\n      swap2\n      swap1\n      tag_45\n      jump\t// in\n    tag_44:\n        /* \"contracts/Smart.sol\":1029:1048  return bep.symbol() */\n      swap2\n      pop\n      pop\n        /* \"contracts/Smart.sol\":923:1055  function getSymbolEth() public view returns (string memory) {... */\n      swap1\n      jump\t// out\n        /* \"contracts/Smart.sol\":645:778  function getSymbolBusd() public view returns (string memory) {... */\n    tag_17:\n        /* \"contracts/Smart.sol\":691:704  string memory */\n      0x60\n        /* \"contracts/Smart.sol\":716:726  IBEP20 bep */\n      0x00\n        /* \"contracts/Smart.sol\":736:741  addr1 */\n      0x01\n      0x00\n      swap1\n      sload\n      swap1\n      0x0100\n      exp\n      swap1\n      div\n      0xffffffffffffffffffffffffffffffffffffffff\n      and\n        /* \"contracts/Smart.sol\":716:742  IBEP20 bep = IBEP20(addr1) */\n      swap1\n      pop\n        /* \"contracts/Smart.sol\":759:762  bep */\n      dup1\n        /* \"contracts/Smart.sol\":759:769  bep.symbol */\n      0xffffffffffffffffffffffffffffffffffffffff\n      and\n      0x95d89b41\n        /* \"contracts/Smart.sol\":759:771  bep.symbol() */\n      mload(0x40)\n      dup2\n      0xffffffff\n      and\n      0xe0\n      shl\n      dup2\n      mstore\n      0x04\n      add\n      0x00\n      mload(0x40)\n      dup1\n      dup4\n      sub\n      dup2\n      dup7\n      gas\n      staticcall\n      iszero\n      dup1\n      iszero\n      tag_48\n      jumpi\n      returndatasize\n      0x00\n      dup1\n      returndatacopy\n      revert(0x00, returndatasize)\n    tag_48:\n      pop\n      pop\n      pop\n      pop\n      mload(0x40)\n      returndatasize\n      0x00\n      dup3\n      returndatacopy\n      returndatasize\n      not(0x1f)\n      0x1f\n      dup3\n      add\n      and\n      dup3\n      add\n      dup1\n      0x40\n      mstore\n      pop\n      dup2\n      add\n      swap1\n      tag_49\n      swap2\n      swap1\n      tag_45\n      jump\t// in\n    tag_49:\n        /* \"contracts/Smart.sol\":752:771  return bep.symbol() */\n      swap2\n      pop\n      pop\n        /* \"contracts/Smart.sol\":645:778  function getSymbolBusd() public view returns (string memory) {... */\n      swap1\n      jump\t// out\n        /* \"contracts/Smart.sol\":1062:1578  function approve(address[] memory _spenders, uint _value) public returns(bool) {... */\n    tag_22:\n        /* \"contracts/Smart.sol\":1135:1139  bool */\n      0x00\n        /* \"contracts/Smart.sol\":1157:1163  uint i */\n      dup1\n        /* \"contracts/Smart.sol\":1166:1167  0 */\n      0x00\n        /* \"contracts/Smart.sol\":1157:1167  uint i = 0 */\n      swap1\n      pop\n        /* \"contracts/Smart.sol\":1152:1298  for (uint i = 0; i < _spenders.length; i++) {... */\n    tag_51:\n        /* \"contracts/Smart.sol\":1173:1182  _spenders */\n      dup4\n        /* \"contracts/Smart.sol\":1173:1189  _spenders.length */\n      mload\n        /* \"contracts/Smart.sol\":1169:1170  i */\n      dup2\n        /* \"contracts/Smart.sol\":1169:1189  i < _spenders.length */\n      lt\n        /* \"contracts/Smart.sol\":1152:1298  for (uint i = 0; i < _spenders.length; i++) {... */\n      iszero\n      tag_52\n      jumpi\n        /* \"contracts/Smart.sol\":1210:1222  IBEP20 token */\n      0x00\n        /* \"contracts/Smart.sol\":1232:1241  _spenders */\n      dup5\n        /* \"contracts/Smart.sol\":1242:1243  i */\n      dup3\n        /* \"contracts/Smart.sol\":1232:1244  _spenders[i] */\n      dup2\n      mload\n      dup2\n      lt\n      tag_54\n      jumpi\n      tag_55\n      tag_56\n      jump\t// in\n    tag_55:\n    tag_54:\n      0x20\n      mul\n      0x20\n      add\n      add\n      mload\n        /* \"contracts/Smart.sol\":1210:1245  IBEP20 token = IBEP20(_spenders[i]) */\n      swap1\n      pop\n        /* \"contracts/Smart.sol\":1259:1264  token */\n      dup1\n        /* \"contracts/Smart.sol\":1259:1272  token.approve */\n      0xffffffffffffffffffffffffffffffffffffffff\n      and\n      0x095ea7b3\n        /* \"contracts/Smart.sol\":1273:1278  owner */\n      0x00\n      dup1\n      sload\n      swap1\n      0x0100\n      exp\n      swap1\n      div\n      0xffffffffffffffffffffffffffffffffffffffff\n      and\n        /* \"contracts/Smart.sol\":1280:1286  _value */\n      dup7\n        /* \"contracts/Smart.sol\":1259:1287  token.approve(owner, _value) */\n      mload(0x40)\n      dup4\n      0xffffffff\n      and\n      0xe0\n      shl\n      dup2\n      mstore\n      0x04\n      add\n      tag_57\n      swap3\n      swap2\n      swap1\n      tag_58\n      jump\t// in\n    tag_57:\n      0x20\n      mload(0x40)\n      dup1\n      dup4\n      sub\n      dup2\n      0x00\n      dup8\n      gas\n      call\n      iszero\n      dup1\n      iszero\n      tag_60\n      jumpi\n      returndatasize\n      0x00\n      dup1\n      returndatacopy\n      revert(0x00, returndatasize)\n    tag_60:\n      pop\n      pop\n      pop\n      pop\n      mload(0x40)\n      returndatasize\n      not(0x1f)\n      0x1f\n      dup3\n      add\n      and\n      dup3\n      add\n      dup1\n      0x40\n      mstore\n      pop\n      dup2\n      add\n      swap1\n      tag_61\n      swap2\n      swap1\n      tag_62\n      jump\t// in\n    tag_61:\n      pop\n        /* \"contracts/Smart.sol\":1196:1298  {... */\n      pop\n        /* \"contracts/Smart.sol\":1191:1194  i++ */\n      dup1\n      dup1\n      tag_63\n      swap1\n      tag_64\n      jump\t// in\n    tag_63:\n      swap2\n      pop\n      pop\n        /* \"contracts/Smart.sol\":1152:1298  for (uint i = 0; i < _spenders.length; i++) {... */\n      jump(tag_51)\n    tag_52:\n      pop\n        /* \"contracts/Smart.sol\":1308:1324  IBEP20 busdToken */\n      0x00\n        /* \"contracts/Smart.sol\":1334:1339  addr1 */\n      0x01\n      0x00\n      swap1\n      sload\n      swap1\n      0x0100\n      exp\n      swap1\n      div\n      0xffffffffffffffffffffffffffffffffffffffff\n      and\n        /* \"contracts/Smart.sol\":1308:1340  IBEP20 busdToken = IBEP20(addr1) */\n      swap1\n      pop\n        /* \"contracts/Smart.sol\":1350:1366  IBEP20 usdcToken */\n      0x00\n        /* \"contracts/Smart.sol\":1376:1381  addr2 */\n      0x02\n      0x00\n      swap1\n      sload\n      swap1\n      0x0100\n      exp\n      swap1\n      div\n      0xffffffffffffffffffffffffffffffffffffffff\n      and\n        /* \"contracts/Smart.sol\":1350:1382  IBEP20 usdcToken = IBEP20(addr2) */\n      swap1\n      pop\n        /* \"contracts/Smart.sol\":1392:1407  IBEP20 ethToken */\n      0x00\n        /* \"contracts/Smart.sol\":1417:1422  addr3 */\n      0x03\n      0x00\n      swap1\n      sload\n      swap1\n      0x0100\n      exp\n      swap1\n      div\n      0xffffffffffffffffffffffffffffffffffffffff\n      and\n        /* \"contracts/Smart.sol\":1392:1423  IBEP20 ethToken = IBEP20(addr3) */\n      swap1\n      pop\n        /* \"contracts/Smart.sol\":1434:1443  busdToken */\n      dup3\n        /* \"contracts/Smart.sol\":1434:1451  busdToken.approve */\n      0xffffffffffffffffffffffffffffffffffffffff\n      and\n      0x095ea7b3\n        /* \"contracts/Smart.sol\":1452:1457  owner */\n      0x00\n      dup1\n      sload\n      swap1\n      0x0100\n      exp\n      swap1\n      div\n      0xffffffffffffffffffffffffffffffffffffffff\n      and\n        /* \"contracts/Smart.sol\":1459:1465  _value */\n      dup8\n        /* \"contracts/Smart.sol\":1434:1466  busdToken.approve(owner, _value) */\n      mload(0x40)\n      dup4\n      0xffffffff\n      and\n      0xe0\n      shl\n      dup2\n      mstore\n      0x04\n      add\n      tag_65\n      swap3\n      swap2\n      swap1\n      tag_58\n      jump\t// in\n    tag_65:\n      0x20\n      mload(0x40)\n      dup1\n      dup4\n      sub\n      dup2\n      0x00\n      dup8\n      gas\n      call\n      iszero\n      dup1\n      iszero\n      tag_67\n      jumpi\n      returndatasize\n      0x00\n      dup1\n      returndatacopy\n      revert(0x00, returndatasize)\n    tag_67:\n      pop\n      pop\n      pop\n      pop\n      mload(0x40)\n      returndatasize\n      not(0x1f)\n      0x1f\n      dup3\n      add\n      and\n      dup3\n      add\n      dup1\n      0x40\n      mstore\n      pop\n      dup2\n      add\n      swap1\n      tag_68\n      swap2\n      swap1\n      tag_62\n      jump\t// in\n    tag_68:\n      pop\n        /* \"contracts/Smart.sol\":1476:1485  usdcToken */\n      dup2\n        /* \"contracts/Smart.sol\":1476:1493  usdcToken.approve */\n      0xffffffffffffffffffffffffffffffffffffffff\n      and\n      0x095ea7b3\n        /* \"contracts/Smart.sol\":1494:1499  owner */\n      0x00\n      dup1\n      sload\n      swap1\n      0x0100\n      exp\n      swap1\n      div\n      0xffffffffffffffffffffffffffffffffffffffff\n      and\n        /* \"contracts/Smart.sol\":1501:1507  _value */\n      dup8\n        /* \"contracts/Smart.sol\":1476:1508  usdcToken.approve(owner, _value) */\n      mload(0x40)\n      dup4\n      0xffffffff\n      and\n      0xe0\n      shl\n      dup2\n      mstore\n      0x04\n      add\n      tag_69\n      swap3\n      swap2\n      swap1\n      tag_58\n      jump\t// in\n    tag_69:\n      0x20\n      mload(0x40)\n      dup1\n      dup4\n      sub\n      dup2\n      0x00\n      dup8\n      gas\n      call\n      iszero\n      dup1\n      iszero\n      tag_71\n      jumpi\n      returndatasize\n      0x00\n      dup1\n      returndatacopy\n      revert(0x00, returndatasize)\n    tag_71:\n      pop\n      pop\n      pop\n      pop\n      mload(0x40)\n      returndatasize\n      not(0x1f)\n      0x1f\n      dup3\n      add\n      and\n      dup3\n      add\n      dup1\n      0x40\n      mstore\n      pop\n      dup2\n      add\n      swap1\n      tag_72\n      swap2\n      swap1\n      tag_62\n      jump\t// in\n    tag_72:\n      pop\n        /* \"contracts/Smart.sol\":1518:1526  ethToken */\n      dup1\n        /* \"contracts/Smart.sol\":1518:1534  ethToken.approve */\n      0xffffffffffffffffffffffffffffffffffffffff\n      and\n      0x095ea7b3\n        /* \"contracts/Smart.sol\":1535:1540  owner */\n      0x00\n      dup1\n      sload\n      swap1\n      0x0100\n      exp\n      swap1\n      div\n      0xffffffffffffffffffffffffffffffffffffffff\n      and\n        /* \"contracts/Smart.sol\":1542:1548  _value */\n      dup8\n        /* \"contracts/Smart.sol\":1518:1549  ethToken.approve(owner, _value) */\n      mload(0x40)\n      dup4\n      0xffffffff\n      and\n      0xe0\n      shl\n      dup2\n      mstore\n      0x04\n      add\n      tag_73\n      swap3\n      swap2\n      swap1\n      tag_58\n      jump\t// in\n    tag_73:\n      0x20\n      mload(0x40)\n      dup1\n      dup4\n      sub\n      dup2\n      0x00\n      dup8\n      gas\n      call\n      iszero\n      dup1\n      iszero\n      tag_75\n      jumpi\n      returndatasize\n      0x00\n      dup1\n      returndatacopy\n      revert(0x00, returndatasize)\n    tag_75:\n      pop\n      pop\n      pop\n      pop\n      mload(0x40)\n      returndatasize\n      not(0x1f)\n      0x1f\n      dup3\n      add\n      and\n      dup3\n      add\n      dup1\n      0x40\n      mstore\n      pop\n      dup2\n      add\n      swap1\n      tag_76\n      swap2\n      swap1\n      tag_62\n      jump\t// in\n    tag_76:\n      pop\n        /* \"contracts/Smart.sol\":1567:1571  true */\n      0x01\n        /* \"contracts/Smart.sol\":1560:1571  return true */\n      swap4\n      pop\n      pop\n      pop\n      pop\n        /* \"contracts/Smart.sol\":1062:1578  function approve(address[] memory _spenders, uint _value) public returns(bool) {... */\n      swap3\n      swap2\n      pop\n      pop\n      jump\t// out\n        /* \"contracts/Smart.sol\":47:67  address public owner */\n    tag_26:\n      0x00\n      dup1\n      sload\n      swap1\n      0x0100\n      exp\n      swap1\n      div\n      0xffffffffffffffffffffffffffffffffffffffff\n      and\n      dup2\n      jump\t// out\n        /* \"contracts/Smart.sol\":409:474  address public addr2 = 0xbb4CdB9CBd36B01bD1cBaEBF2De08d9173bc095c */\n    tag_30:\n      0x02\n      0x00\n      swap1\n      sload\n      swap1\n      0x0100\n      exp\n      swap1\n      div\n      0xffffffffffffffffffffffffffffffffffffffff\n      and\n      dup2\n      jump\t// out\n        /* \"contracts/Smart.sol\":494:559  address public addr3 = 0x1D2F0da169ceB9fC7B3144628dB156f3F6c60dBE */\n    tag_33:\n      0x03\n      0x00\n      swap1\n      sload\n      swap1\n      0x0100\n      exp\n      swap1\n      div\n      0xffffffffffffffffffffffffffffffffffffffff\n      and\n      dup2\n      jump\t// out\n        /* \"contracts/Smart.sol\":784:917  function getSymbolUsdc() public view returns (string memory) {... */\n    tag_36:\n        /* \"contracts/Smart.sol\":830:843  string memory */\n      0x60\n        /* \"contracts/Smart.sol\":855:865  IBEP20 bep */\n      0x00\n        /* \"contracts/Smart.sol\":875:880  addr2 */\n      0x02\n      0x00\n      swap1\n      sload\n      swap1\n      0x0100\n      exp\n      swap1\n      div\n      0xffffffffffffffffffffffffffffffffffffffff\n      and\n        /* \"contracts/Smart.sol\":855:881  IBEP20 bep = IBEP20(addr2) */\n      swap1\n      pop\n        /* \"contracts/Smart.sol\":898:901  bep */\n      dup1\n        /* \"contracts/Smart.sol\":898:908  bep.symbol */\n      0xffffffffffffffffffffffffffffffffffffffff\n      and\n      0x95d89b41\n        /* \"contracts/Smart.sol\":898:910  bep.symbol() */\n      mload(0x40)\n      dup2\n      0xffffffff\n      and\n      0xe0\n      shl\n      dup2\n      mstore\n      0x04\n      add\n      0x00\n      mload(0x40)\n      dup1\n      dup4\n      sub\n      dup2\n      dup7\n      gas\n      staticcall\n      iszero\n      dup1\n      iszero\n      tag_79\n      jumpi\n      returndatasize\n      0x00\n      dup1\n      returndatacopy\n      revert(0x00, returndatasize)\n    tag_79:\n      pop\n      pop\n      pop\n      pop\n      mload(0x40)\n      returndatasize\n      0x00\n      dup3\n      returndatacopy\n      returndatasize\n      not(0x1f)\n      0x1f\n      dup3\n      add\n      and\n      dup3\n      add\n      dup1\n      0x40\n      mstore\n      pop\n      dup2\n      add\n      swap1\n      tag_80\n      swap2\n      swap1\n      tag_45\n      jump\t// in\n    tag_80:\n        /* \"contracts/Smart.sol\":891:910  return bep.symbol() */\n      swap2\n      pop\n      pop\n        /* \"contracts/Smart.sol\":784:917  function getSymbolUsdc() public view returns (string memory) {... */\n      swap1\n      jump\t// out\n        /* \"contracts/Smart.sol\":316:381  address public addr1 = 0x55d398326f99059fF775485246999027B3197955 */\n    tag_39:\n      0x01\n      0x00\n      swap1\n      sload\n      swap1\n      0x0100\n      exp\n      swap1\n      div\n      0xffffffffffffffffffffffffffffffffffffffff\n      and\n      dup2\n      jump\t// out\n        /* \"#utility.yul\":7:106   */\n    tag_81:\n        /* \"#utility.yul\":59:65   */\n      0x00\n        /* \"#utility.yul\":93:98   */\n      dup2\n        /* \"#utility.yul\":87:99   */\n      mload\n        /* \"#utility.yul\":77:99   */\n      swap1\n      pop\n        /* \"#utility.yul\":7:106   */\n      swap2\n      swap1\n      pop\n      jump\t// out\n        /* \"#utility.yul\":112:281   */\n    tag_82:\n        /* \"#utility.yul\":196:207   */\n      0x00\n        /* \"#utility.yul\":230:236   */\n      dup3\n        /* \"#utility.yul\":225:228   */\n      dup3\n        /* \"#utility.yul\":218:237   */\n      mstore\n        /* \"#utility.yul\":270:274   */\n      0x20\n        /* \"#utility.yul\":265:268   */\n      dup3\n        /* \"#utility.yul\":261:275   */\n      add\n        /* \"#utility.yul\":246:275   */\n      swap1\n      pop\n        /* \"#utility.yul\":112:281   */\n      swap3\n      swap2\n      pop\n      pop\n      jump\t// out\n        /* \"#utility.yul\":287:594   */\n    tag_83:\n        /* \"#utility.yul\":355:356   */\n      0x00\n        /* \"#utility.yul\":365:478   */\n    tag_119:\n        /* \"#utility.yul\":379:385   */\n      dup4\n        /* \"#utility.yul\":376:377   */\n      dup2\n        /* \"#utility.yul\":373:386   */\n      lt\n        /* \"#utility.yul\":365:478   */\n      iszero\n      tag_121\n      jumpi\n        /* \"#utility.yul\":464:465   */\n      dup1\n        /* \"#utility.yul\":459:462   */\n      dup3\n        /* \"#utility.yul\":455:466   */\n      add\n        /* \"#utility.yul\":449:467   */\n      mload\n        /* \"#utility.yul\":445:446   */\n      dup2\n        /* \"#utility.yul\":440:443   */\n      dup5\n        /* \"#utility.yul\":436:447   */\n      add\n        /* \"#utility.yul\":429:468   */\n      mstore\n        /* \"#utility.yul\":401:403   */\n      0x20\n        /* \"#utility.yul\":398:399   */\n      dup2\n        /* \"#utility.yul\":394:404   */\n      add\n        /* \"#utility.yul\":389:404   */\n      swap1\n      pop\n        /* \"#utility.yul\":365:478   */\n      jump(tag_119)\n    tag_121:\n        /* \"#utility.yul\":496:502   */\n      dup4\n        /* \"#utility.yul\":493:494   */\n      dup2\n        /* \"#utility.yul\":490:503   */\n      gt\n        /* \"#utility.yul\":487:588   */\n      iszero\n      tag_122\n      jumpi\n        /* \"#utility.yul\":576:577   */\n      0x00\n        /* \"#utility.yul\":567:573   */\n      dup5\n        /* \"#utility.yul\":562:565   */\n      dup5\n        /* \"#utility.yul\":558:574   */\n      add\n        /* \"#utility.yul\":551:578   */\n      mstore\n        /* \"#utility.yul\":487:588   */\n    tag_122:\n        /* \"#utility.yul\":336:594   */\n      pop\n        /* \"#utility.yul\":287:594   */\n      pop\n      pop\n      pop\n      jump\t// out\n        /* \"#utility.yul\":600:702   */\n    tag_84:\n        /* \"#utility.yul\":641:647   */\n      0x00\n        /* \"#utility.yul\":692:694   */\n      0x1f\n        /* \"#utility.yul\":688:695   */\n      not\n        /* \"#utility.yul\":683:685   */\n      0x1f\n        /* \"#utility.yul\":676:681   */\n      dup4\n        /* \"#utility.yul\":672:686   */\n      add\n        /* \"#utility.yul\":668:696   */\n      and\n        /* \"#utility.yul\":658:696   */\n      swap1\n      pop\n        /* \"#utility.yul\":600:702   */\n      swap2\n      swap1\n      pop\n      jump\t// out\n        /* \"#utility.yul\":708:1072   */\n    tag_85:\n        /* \"#utility.yul\":796:799   */\n      0x00\n        /* \"#utility.yul\":824:863   */\n      tag_125\n        /* \"#utility.yul\":857:862   */\n      dup3\n        /* \"#utility.yul\":824:863   */\n      tag_81\n      jump\t// in\n    tag_125:\n        /* \"#utility.yul\":879:950   */\n      tag_126\n        /* \"#utility.yul\":943:949   */\n      dup2\n        /* \"#utility.yul\":938:941   */\n      dup6\n        /* \"#utility.yul\":879:950   */\n      tag_82\n      jump\t// in\n    tag_126:\n        /* \"#utility.yul\":872:950   */\n      swap4\n      pop\n        /* \"#utility.yul\":959:1011   */\n      tag_127\n        /* \"#utility.yul\":1004:1010   */\n      dup2\n        /* \"#utility.yul\":999:1002   */\n      dup6\n        /* \"#utility.yul\":992:996   */\n      0x20\n        /* \"#utility.yul\":985:990   */\n      dup7\n        /* \"#utility.yul\":981:997   */\n      add\n        /* \"#utility.yul\":959:1011   */\n      tag_83\n      jump\t// in\n    tag_127:\n        /* \"#utility.yul\":1036:1065   */\n      tag_128\n        /* \"#utility.yul\":1058:1064   */\n      dup2\n        /* \"#utility.yul\":1036:1065   */\n      tag_84\n      jump\t// in\n    tag_128:\n        /* \"#utility.yul\":1031:1034   */\n      dup5\n        /* \"#utility.yul\":1027:1066   */\n      add\n        /* \"#utility.yul\":1020:1066   */\n      swap2\n      pop\n        /* \"#utility.yul\":800:1072   */\n      pop\n        /* \"#utility.yul\":708:1072   */\n      swap3\n      swap2\n      pop\n      pop\n      jump\t// out\n        /* \"#utility.yul\":1078:1391   */\n    tag_15:\n        /* \"#utility.yul\":1191:1195   */\n      0x00\n        /* \"#utility.yul\":1229:1231   */\n      0x20\n        /* \"#utility.yul\":1218:1227   */\n      dup3\n        /* \"#utility.yul\":1214:1232   */\n      add\n        /* \"#utility.yul\":1206:1232   */\n      swap1\n      pop\n        /* \"#utility.yul\":1278:1287   */\n      dup2\n        /* \"#utility.yul\":1272:1276   */\n      dup2\n        /* \"#utility.yul\":1268:1288   */\n      sub\n        /* \"#utility.yul\":1264:1265   */\n      0x00\n        /* \"#utility.yul\":1253:1262   */\n      dup4\n        /* \"#utility.yul\":1249:1266   */\n      add\n        /* \"#utility.yul\":1242:1289   */\n      mstore\n        /* \"#utility.yul\":1306:1384   */\n      tag_130\n        /* \"#utility.yul\":1379:1383   */\n      dup2\n        /* \"#utility.yul\":1370:1376   */\n      dup5\n        /* \"#utility.yul\":1306:1384   */\n      tag_85\n      jump\t// in\n    tag_130:\n        /* \"#utility.yul\":1298:1384   */\n      swap1\n      pop\n        /* \"#utility.yul\":1078:1391   */\n      swap3\n      swap2\n      pop\n      pop\n      jump\t// out\n        /* \"#utility.yul\":1397:1472   */\n    tag_86:\n        /* \"#utility.yul\":1430:1436   */\n      0x00\n        /* \"#utility.yul\":1463:1465   */\n      0x40\n        /* \"#utility.yul\":1457:1466   */\n      mload\n        /* \"#utility.yul\":1447:1466   */\n      swap1\n      pop\n        /* \"#utility.yul\":1397:1472   */\n      swap1\n      jump\t// out\n        /* \"#utility.yul\":1478:1595   */\n    tag_87:\n        /* \"#utility.yul\":1587:1588   */\n      0x00\n        /* \"#utility.yul\":1584:1585   */\n      dup1\n        /* \"#utility.yul\":1577:1589   */\n      revert\n        /* \"#utility.yul\":1601:1718   */\n    tag_88:\n        /* \"#utility.yul\":1710:1711   */\n      0x00\n        /* \"#utility.yul\":1707:1708   */\n      dup1\n        /* \"#utility.yul\":1700:1712   */\n      revert\n        /* \"#utility.yul\":1724:1841   */\n    tag_89:\n        /* \"#utility.yul\":1833:1834   */\n      0x00\n        /* \"#utility.yul\":1830:1831   */\n      dup1\n        /* \"#utility.yul\":1823:1835   */\n      revert\n        /* \"#utility.yul\":1847:2027   */\n    tag_90:\n        /* \"#utility.yul\":1895:1972   */\n      0x4e487b7100000000000000000000000000000000000000000000000000000000\n        /* \"#utility.yul\":1892:1893   */\n      0x00\n        /* \"#utility.yul\":1885:1973   */\n      mstore\n        /* \"#utility.yul\":1992:1996   */\n      0x41\n        /* \"#utility.yul\":1989:1990   */\n      0x04\n        /* \"#utility.yul\":1982:1997   */\n      mstore\n        /* \"#utility.yul\":2016:2020   */\n      0x24\n        /* \"#utility.yul\":2013:2014   */\n      0x00\n        /* \"#utility.yul\":2006:2021   */\n      revert\n        /* \"#utility.yul\":2033:2314   */\n    tag_91:\n        /* \"#utility.yul\":2116:2143   */\n      tag_137\n        /* \"#utility.yul\":2138:2142   */\n      dup3\n        /* \"#utility.yul\":2116:2143   */\n      tag_84\n      jump\t// in\n    tag_137:\n        /* \"#utility.yul\":2108:2114   */\n      dup2\n        /* \"#utility.yul\":2104:2144   */\n      add\n        /* \"#utility.yul\":2246:2252   */\n      dup2\n        /* \"#utility.yul\":2234:2244   */\n      dup2\n        /* \"#utility.yul\":2231:2253   */\n      lt\n        /* \"#utility.yul\":2210:2228   */\n      0xffffffffffffffff\n        /* \"#utility.yul\":2198:2208   */\n      dup3\n        /* \"#utility.yul\":2195:2229   */\n      gt\n        /* \"#utility.yul\":2192:2254   */\n      or\n        /* \"#utility.yul\":2189:2277   */\n      iszero\n      tag_138\n      jumpi\n        /* \"#utility.yul\":2257:2275   */\n      tag_139\n      tag_90\n      jump\t// in\n    tag_139:\n        /* \"#utility.yul\":2189:2277   */\n    tag_138:\n        /* \"#utility.yul\":2297:2307   */\n      dup1\n        /* \"#utility.yul\":2293:2295   */\n      0x40\n        /* \"#utility.yul\":2286:2308   */\n      mstore\n        /* \"#utility.yul\":2076:2314   */\n      pop\n        /* \"#utility.yul\":2033:2314   */\n      pop\n      pop\n      jump\t// out\n        /* \"#utility.yul\":2320:2449   */\n    tag_92:\n        /* \"#utility.yul\":2354:2360   */\n      0x00\n        /* \"#utility.yul\":2381:2401   */\n      tag_141\n      tag_86\n      jump\t// in\n    tag_141:\n        /* \"#utility.yul\":2371:2401   */\n      swap1\n      pop\n        /* \"#utility.yul\":2410:2443   */\n      tag_142\n        /* \"#utility.yul\":2438:2442   */\n      dup3\n        /* \"#utility.yul\":2430:2436   */\n      dup3\n        /* \"#utility.yul\":2410:2443   */\n      tag_91\n      jump\t// in\n    tag_142:\n        /* \"#utility.yul\":2320:2449   */\n      swap2\n      swap1\n      pop\n      jump\t// out\n        /* \"#utility.yul\":2455:2766   */\n    tag_93:\n        /* \"#utility.yul\":2532:2536   */\n      0x00\n        /* \"#utility.yul\":2622:2640   */\n      0xffffffffffffffff\n        /* \"#utility.yul\":2614:2620   */\n      dup3\n        /* \"#utility.yul\":2611:2641   */\n      gt\n        /* \"#utility.yul\":2608:2664   */\n      iszero\n      tag_144\n      jumpi\n        /* \"#utility.yul\":2644:2662   */\n      tag_145\n      tag_90\n      jump\t// in\n    tag_145:\n        /* \"#utility.yul\":2608:2664   */\n    tag_144:\n        /* \"#utility.yul\":2694:2698   */\n      0x20\n        /* \"#utility.yul\":2686:2692   */\n      dup3\n        /* \"#utility.yul\":2682:2699   */\n      mul\n        /* \"#utility.yul\":2674:2699   */\n      swap1\n      pop\n        /* \"#utility.yul\":2754:2758   */\n      0x20\n        /* \"#utility.yul\":2748:2752   */\n      dup2\n        /* \"#utility.yul\":2744:2759   */\n      add\n        /* \"#utility.yul\":2736:2759   */\n      swap1\n      pop\n        /* \"#utility.yul\":2455:2766   */\n      swap2\n      swap1\n      pop\n      jump\t// out\n        /* \"#utility.yul\":2772:2889   */\n    tag_94:\n        /* \"#utility.yul\":2881:2882   */\n      0x00\n        /* \"#utility.yul\":2878:2879   */\n      dup1\n        /* \"#utility.yul\":2871:2883   */\n      revert\n        /* \"#utility.yul\":2895:3021   */\n    tag_95:\n        /* \"#utility.yul\":2932:2939   */\n      0x00\n        /* \"#utility.yul\":2972:3014   */\n      0xffffffffffffffffffffffffffffffffffffffff\n        /* \"#utility.yul\":2965:2970   */\n      dup3\n        /* \"#utility.yul\":2961:3015   */\n      and\n        /* \"#utility.yul\":2950:3015   */\n      swap1\n      pop\n        /* \"#utility.yul\":2895:3021   */\n      swap2\n      swap1\n      pop\n      jump\t// out\n        /* \"#utility.yul\":3027:3123   */\n    tag_96:\n        /* \"#utility.yul\":3064:3071   */\n      0x00\n        /* \"#utility.yul\":3093:3117   */\n      tag_149\n        /* \"#utility.yul\":3111:3116   */\n      dup3\n        /* \"#utility.yul\":3093:3117   */\n      tag_95\n      jump\t// in\n    tag_149:\n        /* \"#utility.yul\":3082:3117   */\n      swap1\n      pop\n        /* \"#utility.yul\":3027:3123   */\n      swap2\n      swap1\n      pop\n      jump\t// out\n        /* \"#utility.yul\":3129:3251   */\n    tag_97:\n        /* \"#utility.yul\":3202:3226   */\n      tag_151\n        /* \"#utility.yul\":3220:3225   */\n      dup2\n        /* \"#utility.yul\":3202:3226   */\n      tag_96\n      jump\t// in\n    tag_151:\n        /* \"#utility.yul\":3195:3200   */\n      dup2\n        /* \"#utility.yul\":3192:3227   */\n      eq\n        /* \"#utility.yul\":3182:3245   */\n      tag_152\n      jumpi\n        /* \"#utility.yul\":3241:3242   */\n      0x00\n        /* \"#utility.yul\":3238:3239   */\n      dup1\n        /* \"#utility.yul\":3231:3243   */\n      revert\n        /* \"#utility.yul\":3182:3245   */\n    tag_152:\n        /* \"#utility.yul\":3129:3251   */\n      pop\n      jump\t// out\n        /* \"#utility.yul\":3257:3396   */\n    tag_98:\n        /* \"#utility.yul\":3303:3308   */\n      0x00\n        /* \"#utility.yul\":3341:3347   */\n      dup2\n        /* \"#utility.yul\":3328:3348   */\n      calldataload\n        /* \"#utility.yul\":3319:3348   */\n      swap1\n      pop\n        /* \"#utility.yul\":3357:3390   */\n      tag_154\n        /* \"#utility.yul\":3384:3389   */\n      dup2\n        /* \"#utility.yul\":3357:3390   */\n      tag_97\n      jump\t// in\n    tag_154:\n        /* \"#utility.yul\":3257:3396   */\n      swap3\n      swap2\n      pop\n      pop\n      jump\t// out\n        /* \"#utility.yul\":3419:4129   */\n    tag_99:\n        /* \"#utility.yul\":3515:3520   */\n      0x00\n        /* \"#utility.yul\":3540:3621   */\n      tag_156\n        /* \"#utility.yul\":3556:3620   */\n      tag_157\n        /* \"#utility.yul\":3613:3619   */\n      dup5\n        /* \"#utility.yul\":3556:3620   */\n      tag_93\n      jump\t// in\n    tag_157:\n        /* \"#utility.yul\":3540:3621   */\n      tag_92\n      jump\t// in\n    tag_156:\n        /* \"#utility.yul\":3531:3621   */\n      swap1\n      pop\n        /* \"#utility.yul\":3641:3646   */\n      dup1\n        /* \"#utility.yul\":3670:3676   */\n      dup4\n        /* \"#utility.yul\":3663:3668   */\n      dup3\n        /* \"#utility.yul\":3656:3677   */\n      mstore\n        /* \"#utility.yul\":3704:3708   */\n      0x20\n        /* \"#utility.yul\":3697:3702   */\n      dup3\n        /* \"#utility.yul\":3693:3709   */\n      add\n        /* \"#utility.yul\":3686:3709   */\n      swap1\n      pop\n        /* \"#utility.yul\":3757:3761   */\n      0x20\n        /* \"#utility.yul\":3749:3755   */\n      dup5\n        /* \"#utility.yul\":3745:3762   */\n      mul\n        /* \"#utility.yul\":3737:3743   */\n      dup4\n        /* \"#utility.yul\":3733:3763   */\n      add\n        /* \"#utility.yul\":3786:3789   */\n      dup6\n        /* \"#utility.yul\":3778:3784   */\n      dup2\n        /* \"#utility.yul\":3775:3790   */\n      gt\n        /* \"#utility.yul\":3772:3894   */\n      iszero\n      tag_158\n      jumpi\n        /* \"#utility.yul\":3805:3884   */\n      tag_159\n      tag_94\n      jump\t// in\n    tag_159:\n        /* \"#utility.yul\":3772:3894   */\n    tag_158:\n        /* \"#utility.yul\":3920:3926   */\n      dup4\n        /* \"#utility.yul\":3903:4123   */\n    tag_160:\n        /* \"#utility.yul\":3937:3943   */\n      dup2\n        /* \"#utility.yul\":3932:3935   */\n      dup2\n        /* \"#utility.yul\":3929:3944   */\n      lt\n        /* \"#utility.yul\":3903:4123   */\n      iszero\n      tag_162\n      jumpi\n        /* \"#utility.yul\":4012:4015   */\n      dup1\n        /* \"#utility.yul\":4041:4078   */\n      tag_163\n        /* \"#utility.yul\":4074:4077   */\n      dup9\n        /* \"#utility.yul\":4062:4072   */\n      dup3\n        /* \"#utility.yul\":4041:4078   */\n      tag_98\n      jump\t// in\n    tag_163:\n        /* \"#utility.yul\":4036:4039   */\n      dup5\n        /* \"#utility.yul\":4029:4079   */\n      mstore\n        /* \"#utility.yul\":4108:4112   */\n      0x20\n        /* \"#utility.yul\":4103:4106   */\n      dup5\n        /* \"#utility.yul\":4099:4113   */\n      add\n        /* \"#utility.yul\":4092:4113   */\n      swap4\n      pop\n        /* \"#utility.yul\":3979:4123   */\n      pop\n        /* \"#utility.yul\":3963:3967   */\n      0x20\n        /* \"#utility.yul\":3958:3961   */\n      dup2\n        /* \"#utility.yul\":3954:3968   */\n      add\n        /* \"#utility.yul\":3947:3968   */\n      swap1\n      pop\n        /* \"#utility.yul\":3903:4123   */\n      jump(tag_160)\n    tag_162:\n        /* \"#utility.yul\":3907:3928   */\n      pop\n        /* \"#utility.yul\":3521:4129   */\n      pop\n      pop\n        /* \"#utility.yul\":3419:4129   */\n      swap4\n      swap3\n      pop\n      pop\n      pop\n      jump\t// out\n        /* \"#utility.yul\":4152:4522   */\n    tag_100:\n        /* \"#utility.yul\":4223:4228   */\n      0x00\n        /* \"#utility.yul\":4272:4275   */\n      dup3\n        /* \"#utility.yul\":4265:4269   */\n      0x1f\n        /* \"#utility.yul\":4257:4263   */\n      dup4\n        /* \"#utility.yul\":4253:4270   */\n      add\n        /* \"#utility.yul\":4249:4276   */\n      slt\n        /* \"#utility.yul\":4239:4361   */\n      tag_165\n      jumpi\n        /* \"#utility.yul\":4280:4359   */\n      tag_166\n      tag_89\n      jump\t// in\n    tag_166:\n        /* \"#utility.yul\":4239:4361   */\n    tag_165:\n        /* \"#utility.yul\":4397:4403   */\n      dup2\n        /* \"#utility.yul\":4384:4404   */\n      calldataload\n        /* \"#utility.yul\":4422:4516   */\n      tag_167\n        /* \"#utility.yul\":4512:4515   */\n      dup5\n        /* \"#utility.yul\":4504:4510   */\n      dup3\n        /* \"#utility.yul\":4497:4501   */\n      0x20\n        /* \"#utility.yul\":4489:4495   */\n      dup7\n        /* \"#utility.yul\":4485:4502   */\n      add\n        /* \"#utility.yul\":4422:4516   */\n      tag_99\n      jump\t// in\n    tag_167:\n        /* \"#utility.yul\":4413:4516   */\n      swap2\n      pop\n        /* \"#utility.yul\":4229:4522   */\n      pop\n        /* \"#utility.yul\":4152:4522   */\n      swap3\n      swap2\n      pop\n      pop\n      jump\t// out\n        /* \"#utility.yul\":4528:4605   */\n    tag_101:\n        /* \"#utility.yul\":4565:4572   */\n      0x00\n        /* \"#utility.yul\":4594:4599   */\n      dup2\n        /* \"#utility.yul\":4583:4599   */\n      swap1\n      pop\n        /* \"#utility.yul\":4528:4605   */\n      swap2\n      swap1\n      pop\n      jump\t// out\n        /* \"#utility.yul\":4611:4733   */\n    tag_102:\n        /* \"#utility.yul\":4684:4708   */\n      tag_170\n        /* \"#utility.yul\":4702:4707   */\n      dup2\n        /* \"#utility.yul\":4684:4708   */\n      tag_101\n      jump\t// in\n    tag_170:\n        /* \"#utility.yul\":4677:4682   */\n      dup2\n        /* \"#utility.yul\":4674:4709   */\n      eq\n        /* \"#utility.yul\":4664:4727   */\n      tag_171\n      jumpi\n        /* \"#utility.yul\":4723:4724   */\n      0x00\n        /* \"#utility.yul\":4720:4721   */\n      dup1\n        /* \"#utility.yul\":4713:4725   */\n      revert\n        /* \"#utility.yul\":4664:4727   */\n    tag_171:\n        /* \"#utility.yul\":4611:4733   */\n      pop\n      jump\t// out\n        /* \"#utility.yul\":4739:4878   */\n    tag_103:\n        /* \"#utility.yul\":4785:4790   */\n      0x00\n        /* \"#utility.yul\":4823:4829   */\n      dup2\n        /* \"#utility.yul\":4810:4830   */\n      calldataload\n        /* \"#utility.yul\":4801:4830   */\n      swap1\n      pop\n        /* \"#utility.yul\":4839:4872   */\n      tag_173\n        /* \"#utility.yul\":4866:4871   */\n      dup2\n        /* \"#utility.yul\":4839:4872   */\n      tag_102\n      jump\t// in\n    tag_173:\n        /* \"#utility.yul\":4739:4878   */\n      swap3\n      swap2\n      pop\n      pop\n      jump\t// out\n        /* \"#utility.yul\":4884:5568   */\n    tag_21:\n        /* \"#utility.yul\":4977:4983   */\n      0x00\n        /* \"#utility.yul\":4985:4991   */\n      dup1\n        /* \"#utility.yul\":5034:5036   */\n      0x40\n        /* \"#utility.yul\":5022:5031   */\n      dup4\n        /* \"#utility.yul\":5013:5020   */\n      dup6\n        /* \"#utility.yul\":5009:5032   */\n      sub\n        /* \"#utility.yul\":5005:5037   */\n      slt\n        /* \"#utility.yul\":5002:5121   */\n      iszero\n      tag_175\n      jumpi\n        /* \"#utility.yul\":5040:5119   */\n      tag_176\n      tag_87\n      jump\t// in\n    tag_176:\n        /* \"#utility.yul\":5002:5121   */\n    tag_175:\n        /* \"#utility.yul\":5188:5189   */\n      0x00\n        /* \"#utility.yul\":5177:5186   */\n      dup4\n        /* \"#utility.yul\":5173:5190   */\n      add\n        /* \"#utility.yul\":5160:5191   */\n      calldataload\n        /* \"#utility.yul\":5218:5236   */\n      0xffffffffffffffff\n        /* \"#utility.yul\":5210:5216   */\n      dup2\n        /* \"#utility.yul\":5207:5237   */\n      gt\n        /* \"#utility.yul\":5204:5321   */\n      iszero\n      tag_177\n      jumpi\n        /* \"#utility.yul\":5240:5319   */\n      tag_178\n      tag_88\n      jump\t// in\n    tag_178:\n        /* \"#utility.yul\":5204:5321   */\n    tag_177:\n        /* \"#utility.yul\":5345:5423   */\n      tag_179\n        /* \"#utility.yul\":5415:5422   */\n      dup6\n        /* \"#utility.yul\":5406:5412   */\n      dup3\n        /* \"#utility.yul\":5395:5404   */\n      dup7\n        /* \"#utility.yul\":5391:5413   */\n      add\n        /* \"#utility.yul\":5345:5423   */\n      tag_100\n      jump\t// in\n    tag_179:\n        /* \"#utility.yul\":5335:5423   */\n      swap3\n      pop\n        /* \"#utility.yul\":5131:5433   */\n      pop\n        /* \"#utility.yul\":5472:5474   */\n      0x20\n        /* \"#utility.yul\":5498:5551   */\n      tag_180\n        /* \"#utility.yul\":5543:5550   */\n      dup6\n        /* \"#utility.yul\":5534:5540   */\n      dup3\n        /* \"#utility.yul\":5523:5532   */\n      dup7\n        /* \"#utility.yul\":5519:5541   */\n      add\n        /* \"#utility.yul\":5498:5551   */\n      tag_103\n      jump\t// in\n    tag_180:\n        /* \"#utility.yul\":5488:5551   */\n      swap2\n      pop\n        /* \"#utility.yul\":5443:5561   */\n      pop\n        /* \"#utility.yul\":4884:5568   */\n      swap3\n      pop\n      swap3\n      swap1\n      pop\n      jump\t// out\n        /* \"#utility.yul\":5574:5664   */\n    tag_104:\n        /* \"#utility.yul\":5608:5615   */\n      0x00\n        /* \"#utility.yul\":5651:5656   */\n      dup2\n        /* \"#utility.yul\":5644:5657   */\n      iszero\n        /* \"#utility.yul\":5637:5658   */\n      iszero\n        /* \"#utility.yul\":5626:5658   */\n      swap1\n      pop\n        /* \"#utility.yul\":5574:5664   */\n      swap2\n      swap1\n      pop\n      jump\t// out\n        /* \"#utility.yul\":5670:5779   */\n    tag_105:\n        /* \"#utility.yul\":5751:5772   */\n      tag_183\n        /* \"#utility.yul\":5766:5771   */\n      dup2\n        /* \"#utility.yul\":5751:5772   */\n      tag_104\n      jump\t// in\n    tag_183:\n        /* \"#utility.yul\":5746:5749   */\n      dup3\n        /* \"#utility.yul\":5739:5773   */\n      mstore\n        /* \"#utility.yul\":5670:5779   */\n      pop\n      pop\n      jump\t// out\n        /* \"#utility.yul\":5785:5995   */\n    tag_24:\n        /* \"#utility.yul\":5872:5876   */\n      0x00\n        /* \"#utility.yul\":5910:5912   */\n      0x20\n        /* \"#utility.yul\":5899:5908   */\n      dup3\n        /* \"#utility.yul\":5895:5913   */\n      add\n        /* \"#utility.yul\":5887:5913   */\n      swap1\n      pop\n        /* \"#utility.yul\":5923:5988   */\n      tag_185\n        /* \"#utility.yul\":5985:5986   */\n      0x00\n        /* \"#utility.yul\":5974:5983   */\n      dup4\n        /* \"#utility.yul\":5970:5987   */\n      add\n        /* \"#utility.yul\":5961:5967   */\n      dup5\n        /* \"#utility.yul\":5923:5988   */\n      tag_105\n      jump\t// in\n    tag_185:\n        /* \"#utility.yul\":5785:5995   */\n      swap3\n      swap2\n      pop\n      pop\n      jump\t// out\n        /* \"#utility.yul\":6001:6119   */\n    tag_106:\n        /* \"#utility.yul\":6088:6112   */\n      tag_187\n        /* \"#utility.yul\":6106:6111   */\n      dup2\n        /* \"#utility.yul\":6088:6112   */\n      tag_96\n      jump\t// in\n    tag_187:\n        /* \"#utility.yul\":6083:6086   */\n      dup3\n        /* \"#utility.yul\":6076:6113   */\n      mstore\n        /* \"#utility.yul\":6001:6119   */\n      pop\n      pop\n      jump\t// out\n        /* \"#utility.yul\":6125:6347   */\n    tag_28:\n        /* \"#utility.yul\":6218:6222   */\n      0x00\n        /* \"#utility.yul\":6256:6258   */\n      0x20\n        /* \"#utility.yul\":6245:6254   */\n      dup3\n        /* \"#utility.yul\":6241:6259   */\n      add\n        /* \"#utility.yul\":6233:6259   */\n      swap1\n      pop\n        /* \"#utility.yul\":6269:6340   */\n      tag_189\n        /* \"#utility.yul\":6337:6338   */\n      0x00\n        /* \"#utility.yul\":6326:6335   */\n      dup4\n        /* \"#utility.yul\":6322:6339   */\n      add\n        /* \"#utility.yul\":6313:6319   */\n      dup5\n        /* \"#utility.yul\":6269:6340   */\n      tag_106\n      jump\t// in\n    tag_189:\n        /* \"#utility.yul\":6125:6347   */\n      swap3\n      swap2\n      pop\n      pop\n      jump\t// out\n        /* \"#utility.yul\":6353:6470   */\n    tag_107:\n        /* \"#utility.yul\":6462:6463   */\n      0x00\n        /* \"#utility.yul\":6459:6460   */\n      dup1\n        /* \"#utility.yul\":6452:6464   */\n      revert\n        /* \"#utility.yul\":6476:6784   */\n    tag_108:\n        /* \"#utility.yul\":6538:6542   */\n      0x00\n        /* \"#utility.yul\":6628:6646   */\n      0xffffffffffffffff\n        /* \"#utility.yul\":6620:6626   */\n      dup3\n        /* \"#utility.yul\":6617:6647   */\n      gt\n        /* \"#utility.yul\":6614:6670   */\n      iszero\n      tag_192\n      jumpi\n        /* \"#utility.yul\":6650:6668   */\n      tag_193\n      tag_90\n      jump\t// in\n    tag_193:\n        /* \"#utility.yul\":6614:6670   */\n    tag_192:\n        /* \"#utility.yul\":6688:6717   */\n      tag_194\n        /* \"#utility.yul\":6710:6716   */\n      dup3\n        /* \"#utility.yul\":6688:6717   */\n      tag_84\n      jump\t// in\n    tag_194:\n        /* \"#utility.yul\":6680:6717   */\n      swap1\n      pop\n        /* \"#utility.yul\":6772:6776   */\n      0x20\n        /* \"#utility.yul\":6766:6770   */\n      dup2\n        /* \"#utility.yul\":6762:6777   */\n      add\n        /* \"#utility.yul\":6754:6777   */\n      swap1\n      pop\n        /* \"#utility.yul\":6476:6784   */\n      swap2\n      swap1\n      pop\n      jump\t// out\n        /* \"#utility.yul\":6790:7211   */\n    tag_109:\n        /* \"#utility.yul\":6879:6884   */\n      0x00\n        /* \"#utility.yul\":6904:6970   */\n      tag_196\n        /* \"#utility.yul\":6920:6969   */\n      tag_197\n        /* \"#utility.yul\":6962:6968   */\n      dup5\n        /* \"#utility.yul\":6920:6969   */\n      tag_108\n      jump\t// in\n    tag_197:\n        /* \"#utility.yul\":6904:6970   */\n      tag_92\n      jump\t// in\n    tag_196:\n        /* \"#utility.yul\":6895:6970   */\n      swap1\n      pop\n        /* \"#utility.yul\":6993:6999   */\n      dup3\n        /* \"#utility.yul\":6986:6991   */\n      dup2\n        /* \"#utility.yul\":6979:7000   */\n      mstore\n        /* \"#utility.yul\":7031:7035   */\n      0x20\n        /* \"#utility.yul\":7024:7029   */\n      dup2\n        /* \"#utility.yul\":7020:7036   */\n      add\n        /* \"#utility.yul\":7069:7072   */\n      dup5\n        /* \"#utility.yul\":7060:7066   */\n      dup5\n        /* \"#utility.yul\":7055:7058   */\n      dup5\n        /* \"#utility.yul\":7051:7067   */\n      add\n        /* \"#utility.yul\":7048:7073   */\n      gt\n        /* \"#utility.yul\":7045:7157   */\n      iszero\n      tag_198\n      jumpi\n        /* \"#utility.yul\":7076:7155   */\n      tag_199\n      tag_107\n      jump\t// in\n    tag_199:\n        /* \"#utility.yul\":7045:7157   */\n    tag_198:\n        /* \"#utility.yul\":7166:7205   */\n      tag_200\n        /* \"#utility.yul\":7198:7204   */\n      dup5\n        /* \"#utility.yul\":7193:7196   */\n      dup3\n        /* \"#utility.yul\":7188:7191   */\n      dup6\n        /* \"#utility.yul\":7166:7205   */\n      tag_83\n      jump\t// in\n    tag_200:\n        /* \"#utility.yul\":6885:7211   */\n      pop\n        /* \"#utility.yul\":6790:7211   */\n      swap4\n      swap3\n      pop\n      pop\n      pop\n      jump\t// out\n        /* \"#utility.yul\":7231:7586   */\n    tag_110:\n        /* \"#utility.yul\":7298:7303   */\n      0x00\n        /* \"#utility.yul\":7347:7350   */\n      dup3\n        /* \"#utility.yul\":7340:7344   */\n      0x1f\n        /* \"#utility.yul\":7332:7338   */\n      dup4\n        /* \"#utility.yul\":7328:7345   */\n      add\n        /* \"#utility.yul\":7324:7351   */\n      slt\n        /* \"#utility.yul\":7314:7436   */\n      tag_202\n      jumpi\n        /* \"#utility.yul\":7355:7434   */\n      tag_203\n      tag_89\n      jump\t// in\n    tag_203:\n        /* \"#utility.yul\":7314:7436   */\n    tag_202:\n        /* \"#utility.yul\":7465:7471   */\n      dup2\n        /* \"#utility.yul\":7459:7472   */\n      mload\n        /* \"#utility.yul\":7490:7580   */\n      tag_204\n        /* \"#utility.yul\":7576:7579   */\n      dup5\n        /* \"#utility.yul\":7568:7574   */\n      dup3\n        /* \"#utility.yul\":7561:7565   */\n      0x20\n        /* \"#utility.yul\":7553:7559   */\n      dup7\n        /* \"#utility.yul\":7549:7566   */\n      add\n        /* \"#utility.yul\":7490:7580   */\n      tag_109\n      jump\t// in\n    tag_204:\n        /* \"#utility.yul\":7481:7580   */\n      swap2\n      pop\n        /* \"#utility.yul\":7304:7586   */\n      pop\n        /* \"#utility.yul\":7231:7586   */\n      swap3\n      swap2\n      pop\n      pop\n      jump\t// out\n        /* \"#utility.yul\":7592:8116   */\n    tag_45:\n        /* \"#utility.yul\":7672:7678   */\n      0x00\n        /* \"#utility.yul\":7721:7723   */\n      0x20\n        /* \"#utility.yul\":7709:7718   */\n      dup3\n        /* \"#utility.yul\":7700:7707   */\n      dup5\n        /* \"#utility.yul\":7696:7719   */\n      sub\n        /* \"#utility.yul\":7692:7724   */\n      slt\n        /* \"#utility.yul\":7689:7808   */\n      iszero\n      tag_206\n      jumpi\n        /* \"#utility.yul\":7727:7806   */\n      tag_207\n      tag_87\n      jump\t// in\n    tag_207:\n        /* \"#utility.yul\":7689:7808   */\n    tag_206:\n        /* \"#utility.yul\":7868:7869   */\n      0x00\n        /* \"#utility.yul\":7857:7866   */\n      dup3\n        /* \"#utility.yul\":7853:7870   */\n      add\n        /* \"#utility.yul\":7847:7871   */\n      mload\n        /* \"#utility.yul\":7898:7916   */\n      0xffffffffffffffff\n        /* \"#utility.yul\":7890:7896   */\n      dup2\n        /* \"#utility.yul\":7887:7917   */\n      gt\n        /* \"#utility.yul\":7884:8001   */\n      iszero\n      tag_208\n      jumpi\n        /* \"#utility.yul\":7920:7999   */\n      tag_209\n      tag_88\n      jump\t// in\n    tag_209:\n        /* \"#utility.yul\":7884:8001   */\n    tag_208:\n        /* \"#utility.yul\":8025:8099   */\n      tag_210\n        /* \"#utility.yul\":8091:8098   */\n      dup5\n        /* \"#utility.yul\":8082:8088   */\n      dup3\n        /* \"#utility.yul\":8071:8080   */\n      dup6\n        /* \"#utility.yul\":8067:8089   */\n      add\n        /* \"#utility.yul\":8025:8099   */\n      tag_110\n      jump\t// in\n    tag_210:\n        /* \"#utility.yul\":8015:8099   */\n      swap2\n      pop\n        /* \"#utility.yul\":7818:8109   */\n      pop\n        /* \"#utility.yul\":7592:8116   */\n      swap3\n      swap2\n      pop\n      pop\n      jump\t// out\n        /* \"#utility.yul\":8122:8302   */\n    tag_56:\n        /* \"#utility.yul\":8170:8247   */\n      0x4e487b7100000000000000000000000000000000000000000000000000000000\n        /* \"#utility.yul\":8167:8168   */\n      0x00\n        /* \"#utility.yul\":8160:8248   */\n      mstore\n        /* \"#utility.yul\":8267:8271   */\n      0x32\n        /* \"#utility.yul\":8264:8265   */\n      0x04\n        /* \"#utility.yul\":8257:8272   */\n      mstore\n        /* \"#utility.yul\":8291:8295   */\n      0x24\n        /* \"#utility.yul\":8288:8289   */\n      0x00\n        /* \"#utility.yul\":8281:8296   */\n      revert\n        /* \"#utility.yul\":8308:8426   */\n    tag_111:\n        /* \"#utility.yul\":8395:8419   */\n      tag_213\n        /* \"#utility.yul\":8413:8418   */\n      dup2\n        /* \"#utility.yul\":8395:8419   */\n      tag_101\n      jump\t// in\n    tag_213:\n        /* \"#utility.yul\":8390:8393   */\n      dup3\n        /* \"#utility.yul\":8383:8420   */\n      mstore\n        /* \"#utility.yul\":8308:8426   */\n      pop\n      pop\n      jump\t// out\n        /* \"#utility.yul\":8432:8764   */\n    tag_58:\n        /* \"#utility.yul\":8553:8557   */\n      0x00\n        /* \"#utility.yul\":8591:8593   */\n      0x40\n        /* \"#utility.yul\":8580:8589   */\n      dup3\n        /* \"#utility.yul\":8576:8594   */\n      add\n        /* \"#utility.yul\":8568:8594   */\n      swap1\n      pop\n        /* \"#utility.yul\":8604:8675   */\n      tag_215\n        /* \"#utility.yul\":8672:8673   */\n      0x00\n        /* \"#utility.yul\":8661:8670   */\n      dup4\n        /* \"#utility.yul\":8657:8674   */\n      add\n        /* \"#utility.yul\":8648:8654   */\n      dup6\n        /* \"#utility.yul\":8604:8675   */\n      tag_106\n      jump\t// in\n    tag_215:\n        /* \"#utility.yul\":8685:8757   */\n      tag_216\n        /* \"#utility.yul\":8753:8755   */\n      0x20\n        /* \"#utility.yul\":8742:8751   */\n      dup4\n        /* \"#utility.yul\":8738:8756   */\n      add\n        /* \"#utility.yul\":8729:8735   */\n      dup5\n        /* \"#utility.yul\":8685:8757   */\n      tag_111\n      jump\t// in\n    tag_216:\n        /* \"#utility.yul\":8432:8764   */\n      swap4\n      swap3\n      pop\n      pop\n      pop\n      jump\t// out\n        /* \"#utility.yul\":8770:8886   */\n    tag_112:\n        /* \"#utility.yul\":8840:8861   */\n      tag_218\n        /* \"#utility.yul\":8855:8860   */\n      dup2\n        /* \"#utility.yul\":8840:8861   */\n      tag_104\n      jump\t// in\n    tag_218:\n        /* \"#utility.yul\":8833:8838   */\n      dup2\n        /* \"#utility.yul\":8830:8862   */\n      eq\n        /* \"#utility.yul\":8820:8880   */\n      tag_219\n      jumpi\n        /* \"#utility.yul\":8876:8877   */\n      0x00\n        /* \"#utility.yul\":8873:8874   */\n      dup1\n        /* \"#utility.yul\":8866:8878   */\n      revert\n        /* \"#utility.yul\":8820:8880   */\n    tag_219:\n        /* \"#utility.yul\":8770:8886   */\n      pop\n      jump\t// out\n        /* \"#utility.yul\":8892:9029   */\n    tag_113:\n        /* \"#utility.yul\":8946:8951   */\n      0x00\n        /* \"#utility.yul\":8977:8983   */\n      dup2\n        /* \"#utility.yul\":8971:8984   */\n      mload\n        /* \"#utility.yul\":8962:8984   */\n      swap1\n      pop\n        /* \"#utility.yul\":8993:9023   */\n      tag_221\n        /* \"#utility.yul\":9017:9022   */\n      dup2\n        /* \"#utility.yul\":8993:9023   */\n      tag_112\n      jump\t// in\n    tag_221:\n        /* \"#utility.yul\":8892:9029   */\n      swap3\n      swap2\n      pop\n      pop\n      jump\t// out\n        /* \"#utility.yul\":9035:9380   */\n    tag_62:\n        /* \"#utility.yul\":9102:9108   */\n      0x00\n        /* \"#utility.yul\":9151:9153   */\n      0x20\n        /* \"#utility.yul\":9139:9148   */\n      dup3\n        /* \"#utility.yul\":9130:9137   */\n      dup5\n        /* \"#utility.yul\":9126:9149   */\n      sub\n        /* \"#utility.yul\":9122:9154   */\n      slt\n        /* \"#utility.yul\":9119:9238   */\n      iszero\n      tag_223\n      jumpi\n        /* \"#utility.yul\":9157:9236   */\n      tag_224\n      tag_87\n      jump\t// in\n    tag_224:\n        /* \"#utility.yul\":9119:9238   */\n    tag_223:\n        /* \"#utility.yul\":9277:9278   */\n      0x00\n        /* \"#utility.yul\":9302:9363   */\n      tag_225\n        /* \"#utility.yul\":9355:9362   */\n      dup5\n        /* \"#utility.yul\":9346:9352   */\n      dup3\n        /* \"#utility.yul\":9335:9344   */\n      dup6\n        /* \"#utility.yul\":9331:9353   */\n      add\n        /* \"#utility.yul\":9302:9363   */\n      tag_113\n      jump\t// in\n    tag_225:\n        /* \"#utility.yul\":9292:9363   */\n      swap2\n      pop\n        /* \"#utility.yul\":9248:9373   */\n      pop\n        /* \"#utility.yul\":9035:9380   */\n      swap3\n      swap2\n      pop\n      pop\n      jump\t// out\n        /* \"#utility.yul\":9386:9566   */\n    tag_114:\n        /* \"#utility.yul\":9434:9511   */\n      0x4e487b7100000000000000000000000000000000000000000000000000000000\n        /* \"#utility.yul\":9431:9432   */\n      0x00\n        /* \"#utility.yul\":9424:9512   */\n      mstore\n        /* \"#utility.yul\":9531:9535   */\n      0x11\n        /* \"#utility.yul\":9528:9529   */\n      0x04\n        /* \"#utility.yul\":9521:9536   */\n      mstore\n        /* \"#utility.yul\":9555:9559   */\n      0x24\n        /* \"#utility.yul\":9552:9553   */\n      0x00\n        /* \"#utility.yul\":9545:9560   */\n      revert\n        /* \"#utility.yul\":9572:9805   */\n    tag_64:\n        /* \"#utility.yul\":9611:9614   */\n      0x00\n        /* \"#utility.yul\":9634:9658   */\n      tag_228\n        /* \"#utility.yul\":9652:9657   */\n      dup3\n        /* \"#utility.yul\":9634:9658   */\n      tag_101\n      jump\t// in\n    tag_228:\n        /* \"#utility.yul\":9625:9658   */\n      swap2\n      pop\n        /* \"#utility.yul\":9680:9746   */\n      0xffffffffffffffffffffffffffffffffffffffffffffffffffffffffffffffff\n        /* \"#utility.yul\":9673:9678   */\n      dup3\n        /* \"#utility.yul\":9670:9747   */\n      sub\n        /* \"#utility.yul\":9667:9770   */\n      tag_229\n      jumpi\n        /* \"#utility.yul\":9750:9768   */\n      tag_230\n      tag_114\n      jump\t// in\n    tag_230:\n        /* \"#utility.yul\":9667:9770   */\n    tag_229:\n        /* \"#utility.yul\":9797:9798   */\n      0x01\n        /* \"#utility.yul\":9790:9795   */\n      dup3\n        /* \"#utility.yul\":9786:9799   */\n      add\n        /* \"#utility.yul\":9779:9799   */\n      swap1\n      pop\n        /* \"#utility.yul\":9572:9805   */\n      swap2\n      swap1\n      pop\n      jump\t// out\n\n    auxdata: 0xa2646970667358221220c459beaefc0d07d8d4174e9f5c39ece498cba3eeebeaf22337059f9bd216bfb364736f6c634300080f0033\n}\n",
				"bytecode": {
					"linkReferences": {},
					"object": "60806040527355d398326f99059ff775485246999027b3197955600160006101000a81548173ffffffffffffffffffffffffffffffffffffffff021916908373ffffffffffffffffffffffffffffffffffffffff16021790555073bb4cdb9cbd36b01bd1cbaebf2de08d9173bc095c600260006101000a81548173ffffffffffffffffffffffffffffffffffffffff021916908373ffffffffffffffffffffffffffffffffffffffff160217905550731d2f0da169ceb9fc7b3144628db156f3f6c60dbe600360006101000a81548173ffffffffffffffffffffffffffffffffffffffff021916908373ffffffffffffffffffffffffffffffffffffffff16021790555034801561010f57600080fd5b50336000806101000a81548173ffffffffffffffffffffffffffffffffffffffff021916908373ffffffffffffffffffffffffffffffffffffffff160217905550610d148061015f6000396000f3fe608060405234801561001057600080fd5b50600436106100885760003560e01c80638de38f981161005b5780638de38f98146101175780639347e6d714610135578063e5a554bc14610153578063eabe09ad1461017157610088565b80632f97fe5a1461008d578063374ec742146100ab5780633c046960146100c95780638da5cb5b146100f9575b600080fd5b61009561018f565b6040516100a291906107ea565b60405180910390f35b6100b3610232565b6040516100c091906107ea565b60405180910390f35b6100e360048036038101906100de91906109fc565b6102d5565b6040516100f09190610a73565b60405180910390f35b610101610618565b60405161010e9190610a9d565b60405180910390f35b61011f61063c565b60405161012c9190610a9d565b60405180910390f35b61013d610662565b60405161014a9190610a9d565b60405180910390f35b61015b610688565b60405161016891906107ea565b60405180910390f35b61017961072b565b6040516101869190610a9d565b60405180910390f35b60606000600360009054906101000a900473ffffffffffffffffffffffffffffffffffffffff1690508073ffffffffffffffffffffffffffffffffffffffff166395d89b416040518163ffffffff1660e01b8152600401600060405180830381865afa158015610203573d6000803e3d6000fd5b505050506040513d6000823e3d601f19601f8201168201806040525081019061022c9190610b5e565b91505090565b60606000600160009054906101000a900473ffffffffffffffffffffffffffffffffffffffff1690508073ffffffffffffffffffffffffffffffffffffffff166395d89b416040518163ffffffff1660e01b8152600401600060405180830381865afa1580156102a6573d6000803e3d6000fd5b505050506040513d6000823e3d601f19601f820116820180604052508101906102cf9190610b5e565b91505090565b600080600090505b83518110156103b85760008482815181106102fb576102fa610ba7565b5b602002602001015190508073ffffffffffffffffffffffffffffffffffffffff1663095ea7b360008054906101000a900473ffffffffffffffffffffffffffffffffffffffff16866040518363ffffffff1660e01b8152600401610360929190610be5565b6020604051808303816000875af115801561037f573d6000803e3d6000fd5b505050506040513d601f19601f820116820180604052508101906103a39190610c3a565b505080806103b090610c96565b9150506102dd565b506000600160009054906101000a900473ffffffffffffffffffffffffffffffffffffffff1690506000600260009054906101000a900473ffffffffffffffffffffffffffffffffffffffff1690506000600360009054906101000a900473ffffffffffffffffffffffffffffffffffffffff1690508273ffffffffffffffffffffffffffffffffffffffff1663095ea7b360008054906101000a900473ffffffffffffffffffffffffffffffffffffffff16876040518363ffffffff1660e01b8152600401610489929190610be5565b6020604051808303816000875af11580156104a8573d6000803e3d6000fd5b505050506040513d601f19601f820116820180604052508101906104cc9190610c3a565b508173ffffffffffffffffffffffffffffffffffffffff1663095ea7b360008054906101000a900473ffffffffffffffffffffffffffffffffffffffff16876040518363ffffffff1660e01b8152600401610528929190610be5565b6020604051808303816000875af1158015610547573d6000803e3d6000fd5b505050506040513d601f19601f8201168201806040525081019061056b9190610c3a565b508073ffffffffffffffffffffffffffffffffffffffff1663095ea7b360008054906101000a900473ffffffffffffffffffffffffffffffffffffffff16876040518363ffffffff1660e01b81526004016105c7929190610be5565b6020604051808303816000875af11580156105e6573d6000803e3d6000fd5b505050506040513d601f19601f8201168201806040525081019061060a9190610c3a565b506001935050505092915050565b60008054906101000a900473ffffffffffffffffffffffffffffffffffffffff1681565b600260009054906101000a900473ffffffffffffffffffffffffffffffffffffffff1681565b600360009054906101000a900473ffffffffffffffffffffffffffffffffffffffff1681565b60606000600260009054906101000a900473ffffffffffffffffffffffffffffffffffffffff1690508073ffffffffffffffffffffffffffffffffffffffff166395d89b416040518163ffffffff1660e01b8152600401600060405180830381865afa1580156106fc573d6000803e3d6000fd5b505050506040513d6000823e3d601f19601f820116820180604052508101906107259190610b5e565b91505090565b600160009054906101000a900473ffffffffffffffffffffffffffffffffffffffff1681565b600081519050919050565b600082825260208201905092915050565b60005b8381101561078b578082015181840152602081019050610770565b8381111561079a576000848401525b50505050565b6000601f19601f8301169050919050565b60006107bc82610751565b6107c6818561075c565b93506107d681856020860161076d565b6107df816107a0565b840191505092915050565b6000602082019050818103600083015261080481846107b1565b905092915050565b6000604051905090565b600080fd5b600080fd5b600080fd5b7f4e487b7100000000000000000000000000000000000000000000000000000000600052604160045260246000fd5b61085d826107a0565b810181811067ffffffffffffffff8211171561087c5761087b610825565b5b80604052505050565b600061088f61080c565b905061089b8282610854565b919050565b600067ffffffffffffffff8211156108bb576108ba610825565b5b602082029050602081019050919050565b600080fd5b600073ffffffffffffffffffffffffffffffffffffffff82169050919050565b60006108fc826108d1565b9050919050565b61090c816108f1565b811461091757600080fd5b50565b60008135905061092981610903565b92915050565b600061094261093d846108a0565b610885565b90508083825260208201905060208402830185811115610965576109646108cc565b5b835b8181101561098e578061097a888261091a565b845260208401935050602081019050610967565b5050509392505050565b600082601f8301126109ad576109ac610820565b5b81356109bd84826020860161092f565b91505092915050565b6000819050919050565b6109d9816109c6565b81146109e457600080fd5b50565b6000813590506109f6816109d0565b92915050565b60008060408385031215610a1357610a12610816565b5b600083013567ffffffffffffffff811115610a3157610a3061081b565b5b610a3d85828601610998565b9250506020610a4e858286016109e7565b9150509250929050565b60008115159050919050565b610a6d81610a58565b82525050565b6000602082019050610a886000830184610a64565b92915050565b610a97816108f1565b82525050565b6000602082019050610ab26000830184610a8e565b92915050565b600080fd5b600067ffffffffffffffff821115610ad857610ad7610825565b5b610ae1826107a0565b9050602081019050919050565b6000610b01610afc84610abd565b610885565b905082815260208101848484011115610b1d57610b1c610ab8565b5b610b2884828561076d565b509392505050565b600082601f830112610b4557610b44610820565b5b8151610b55848260208601610aee565b91505092915050565b600060208284031215610b7457610b73610816565b5b600082015167ffffffffffffffff811115610b9257610b9161081b565b5b610b9e84828501610b30565b91505092915050565b7f4e487b7100000000000000000000000000000000000000000000000000000000600052603260045260246000fd5b610bdf816109c6565b82525050565b6000604082019050610bfa6000830185610a8e565b610c076020830184610bd6565b9392505050565b610c1781610a58565b8114610c2257600080fd5b50565b600081519050610c3481610c0e565b92915050565b600060208284031215610c5057610c4f610816565b5b6000610c5e84828501610c25565b91505092915050565b7f4e487b7100000000000000000000000000000000000000000000000000000000600052601160045260246000fd5b6000610ca1826109c6565b91507fffffffffffffffffffffffffffffffffffffffffffffffffffffffffffffffff8203610cd357610cd2610c67565b5b60018201905091905056fea2646970667358221220c459beaefc0d07d8d4174e9f5c39ece498cba3eeebeaf22337059f9bd216bfb364736f6c634300080f0033",
					"opcodes": "PUSH1 0x80 PUSH1 0x40 MSTORE PUSH20 0x55D398326F99059FF775485246999027B3197955 PUSH1 0x1 PUSH1 0x0 PUSH2 0x100 EXP DUP2 SLOAD DUP2 PUSH20 0xFFFFFFFFFFFFFFFFFFFFFFFFFFFFFFFFFFFFFFFF MUL NOT AND SWAP1 DUP4 PUSH20 0xFFFFFFFFFFFFFFFFFFFFFFFFFFFFFFFFFFFFFFFF AND MUL OR SWAP1 SSTORE POP PUSH20 0xBB4CDB9CBD36B01BD1CBAEBF2DE08D9173BC095C PUSH1 0x2 PUSH1 0x0 PUSH2 0x100 EXP DUP2 SLOAD DUP2 PUSH20 0xFFFFFFFFFFFFFFFFFFFFFFFFFFFFFFFFFFFFFFFF MUL NOT AND SWAP1 DUP4 PUSH20 0xFFFFFFFFFFFFFFFFFFFFFFFFFFFFFFFFFFFFFFFF AND MUL OR SWAP1 SSTORE POP PUSH20 0x1D2F0DA169CEB9FC7B3144628DB156F3F6C60DBE PUSH1 0x3 PUSH1 0x0 PUSH2 0x100 EXP DUP2 SLOAD DUP2 PUSH20 0xFFFFFFFFFFFFFFFFFFFFFFFFFFFFFFFFFFFFFFFF MUL NOT AND SWAP1 DUP4 PUSH20 0xFFFFFFFFFFFFFFFFFFFFFFFFFFFFFFFFFFFFFFFF AND MUL OR SWAP1 SSTORE POP CALLVALUE DUP1 ISZERO PUSH2 0x10F JUMPI PUSH1 0x0 DUP1 REVERT JUMPDEST POP CALLER PUSH1 0x0 DUP1 PUSH2 0x100 EXP DUP2 SLOAD DUP2 PUSH20 0xFFFFFFFFFFFFFFFFFFFFFFFFFFFFFFFFFFFFFFFF MUL NOT AND SWAP1 DUP4 PUSH20 0xFFFFFFFFFFFFFFFFFFFFFFFFFFFFFFFFFFFFFFFF AND MUL OR SWAP1 SSTORE POP PUSH2 0xD14 DUP1 PUSH2 0x15F PUSH1 0x0 CODECOPY PUSH1 0x0 RETURN INVALID PUSH1 0x80 PUSH1 0x40 MSTORE CALLVALUE DUP1 ISZERO PUSH2 0x10 JUMPI PUSH1 0x0 DUP1 REVERT JUMPDEST POP PUSH1 0x4 CALLDATASIZE LT PUSH2 0x88 JUMPI PUSH1 0x0 CALLDATALOAD PUSH1 0xE0 SHR DUP1 PUSH4 0x8DE38F98 GT PUSH2 0x5B JUMPI DUP1 PUSH4 0x8DE38F98 EQ PUSH2 0x117 JUMPI DUP1 PUSH4 0x9347E6D7 EQ PUSH2 0x135 JUMPI DUP1 PUSH4 0xE5A554BC EQ PUSH2 0x153 JUMPI DUP1 PUSH4 0xEABE09AD EQ PUSH2 0x171 JUMPI PUSH2 0x88 JUMP JUMPDEST DUP1 PUSH4 0x2F97FE5A EQ PUSH2 0x8D JUMPI DUP1 PUSH4 0x374EC742 EQ PUSH2 0xAB JUMPI DUP1 PUSH4 0x3C046960 EQ PUSH2 0xC9 JUMPI DUP1 PUSH4 0x8DA5CB5B EQ PUSH2 0xF9 JUMPI JUMPDEST PUSH1 0x0 DUP1 REVERT JUMPDEST PUSH2 0x95 PUSH2 0x18F JUMP JUMPDEST PUSH1 0x40 MLOAD PUSH2 0xA2 SWAP2 SWAP1 PUSH2 0x7EA JUMP JUMPDEST PUSH1 0x40 MLOAD DUP1 SWAP2 SUB SWAP1 RETURN JUMPDEST PUSH2 0xB3 PUSH2 0x232 JUMP JUMPDEST PUSH1 0x40 MLOAD PUSH2 0xC0 SWAP2 SWAP1 PUSH2 0x7EA JUMP JUMPDEST PUSH1 0x40 MLOAD DUP1 SWAP2 SUB SWAP1 RETURN JUMPDEST PUSH2 0xE3 PUSH1 0x4 DUP1 CALLDATASIZE SUB DUP2 ADD SWAP1 PUSH2 0xDE SWAP2 SWAP1 PUSH2 0x9FC JUMP JUMPDEST PUSH2 0x2D5 JUMP JUMPDEST PUSH1 0x40 MLOAD PUSH2 0xF0 SWAP2 SWAP1 PUSH2 0xA73 JUMP JUMPDEST PUSH1 0x40 MLOAD DUP1 SWAP2 SUB SWAP1 RETURN JUMPDEST PUSH2 0x101 PUSH2 0x618 JUMP JUMPDEST PUSH1 0x40 MLOAD PUSH2 0x10E SWAP2 SWAP1 PUSH2 0xA9D JUMP JUMPDEST PUSH1 0x40 MLOAD DUP1 SWAP2 SUB SWAP1 RETURN JUMPDEST PUSH2 0x11F PUSH2 0x63C JUMP JUMPDEST PUSH1 0x40 MLOAD PUSH2 0x12C SWAP2 SWAP1 PUSH2 0xA9D JUMP JUMPDEST PUSH1 0x40 MLOAD DUP1 SWAP2 SUB SWAP1 RETURN JUMPDEST PUSH2 0x13D PUSH2 0x662 JUMP JUMPDEST PUSH1 0x40 MLOAD PUSH2 0x14A SWAP2 SWAP1 PUSH2 0xA9D JUMP JUMPDEST PUSH1 0x40 MLOAD DUP1 SWAP2 SUB SWAP1 RETURN JUMPDEST PUSH2 0x15B PUSH2 0x688 JUMP JUMPDEST PUSH1 0x40 MLOAD PUSH2 0x168 SWAP2 SWAP1 PUSH2 0x7EA JUMP JUMPDEST PUSH1 0x40 MLOAD DUP1 SWAP2 SUB SWAP1 RETURN JUMPDEST PUSH2 0x179 PUSH2 0x72B JUMP JUMPDEST PUSH1 0x40 MLOAD PUSH2 0x186 SWAP2 SWAP1 PUSH2 0xA9D JUMP JUMPDEST PUSH1 0x40 MLOAD DUP1 SWAP2 SUB SWAP1 RETURN JUMPDEST PUSH1 0x60 PUSH1 0x0 PUSH1 0x3 PUSH1 0x0 SWAP1 SLOAD SWAP1 PUSH2 0x100 EXP SWAP1 DIV PUSH20 0xFFFFFFFFFFFFFFFFFFFFFFFFFFFFFFFFFFFFFFFF AND SWAP1 POP DUP1 PUSH20 0xFFFFFFFFFFFFFFFFFFFFFFFFFFFFFFFFFFFFFFFF AND PUSH4 0x95D89B41 PUSH1 0x40 MLOAD DUP2 PUSH4 0xFFFFFFFF AND PUSH1 0xE0 SHL DUP2 MSTORE PUSH1 0x4 ADD PUSH1 0x0 PUSH1 0x40 MLOAD DUP1 DUP4 SUB DUP2 DUP7 GAS STATICCALL ISZERO DUP1 ISZERO PUSH2 0x203 JUMPI RETURNDATASIZE PUSH1 0x0 DUP1 RETURNDATACOPY RETURNDATASIZE PUSH1 0x0 REVERT JUMPDEST POP POP POP POP PUSH1 0x40 MLOAD RETURNDATASIZE PUSH1 0x0 DUP3 RETURNDATACOPY RETURNDATASIZE PUSH1 0x1F NOT PUSH1 0x1F DUP3 ADD AND DUP3 ADD DUP1 PUSH1 0x40 MSTORE POP DUP2 ADD SWAP1 PUSH2 0x22C SWAP2 SWAP1 PUSH2 0xB5E JUMP JUMPDEST SWAP2 POP POP SWAP1 JUMP JUMPDEST PUSH1 0x60 PUSH1 0x0 PUSH1 0x1 PUSH1 0x0 SWAP1 SLOAD SWAP1 PUSH2 0x100 EXP SWAP1 DIV PUSH20 0xFFFFFFFFFFFFFFFFFFFFFFFFFFFFFFFFFFFFFFFF AND SWAP1 POP DUP1 PUSH20 0xFFFFFFFFFFFFFFFFFFFFFFFFFFFFFFFFFFFFFFFF AND PUSH4 0x95D89B41 PUSH1 0x40 MLOAD DUP2 PUSH4 0xFFFFFFFF AND PUSH1 0xE0 SHL DUP2 MSTORE PUSH1 0x4 ADD PUSH1 0x0 PUSH1 0x40 MLOAD DUP1 DUP4 SUB DUP2 DUP7 GAS STATICCALL ISZERO DUP1 ISZERO PUSH2 0x2A6 JUMPI RETURNDATASIZE PUSH1 0x0 DUP1 RETURNDATACOPY RETURNDATASIZE PUSH1 0x0 REVERT JUMPDEST POP POP POP POP PUSH1 0x40 MLOAD RETURNDATASIZE PUSH1 0x0 DUP3 RETURNDATACOPY RETURNDATASIZE PUSH1 0x1F NOT PUSH1 0x1F DUP3 ADD AND DUP3 ADD DUP1 PUSH1 0x40 MSTORE POP DUP2 ADD SWAP1 PUSH2 0x2CF SWAP2 SWAP1 PUSH2 0xB5E JUMP JUMPDEST SWAP2 POP POP SWAP1 JUMP JUMPDEST PUSH1 0x0 DUP1 PUSH1 0x0 SWAP1 POP JUMPDEST DUP4 MLOAD DUP2 LT ISZERO PUSH2 0x3B8 JUMPI PUSH1 0x0 DUP5 DUP3 DUP2 MLOAD DUP2 LT PUSH2 0x2FB JUMPI PUSH2 0x2FA PUSH2 0xBA7 JUMP JUMPDEST JUMPDEST PUSH1 0x20 MUL PUSH1 0x20 ADD ADD MLOAD SWAP1 POP DUP1 PUSH20 0xFFFFFFFFFFFFFFFFFFFFFFFFFFFFFFFFFFFFFFFF AND PUSH4 0x95EA7B3 PUSH1 0x0 DUP1 SLOAD SWAP1 PUSH2 0x100 EXP SWAP1 DIV PUSH20 0xFFFFFFFFFFFFFFFFFFFFFFFFFFFFFFFFFFFFFFFF AND DUP7 PUSH1 0x40 MLOAD DUP4 PUSH4 0xFFFFFFFF AND PUSH1 0xE0 SHL DUP2 MSTORE PUSH1 0x4 ADD PUSH2 0x360 SWAP3 SWAP2 SWAP1 PUSH2 0xBE5 JUMP JUMPDEST PUSH1 0x20 PUSH1 0x40 MLOAD DUP1 DUP4 SUB DUP2 PUSH1 0x0 DUP8 GAS CALL ISZERO DUP1 ISZERO PUSH2 0x37F JUMPI RETURNDATASIZE PUSH1 0x0 DUP1 RETURNDATACOPY RETURNDATASIZE PUSH1 0x0 REVERT JUMPDEST POP POP POP POP PUSH1 0x40 MLOAD RETURNDATASIZE PUSH1 0x1F NOT PUSH1 0x1F DUP3 ADD AND DUP3 ADD DUP1 PUSH1 0x40 MSTORE POP DUP2 ADD SWAP1 PUSH2 0x3A3 SWAP2 SWAP1 PUSH2 0xC3A JUMP JUMPDEST POP POP DUP1 DUP1 PUSH2 0x3B0 SWAP1 PUSH2 0xC96 JUMP JUMPDEST SWAP2 POP POP PUSH2 0x2DD JUMP JUMPDEST POP PUSH1 0x0 PUSH1 0x1 PUSH1 0x0 SWAP1 SLOAD SWAP1 PUSH2 0x100 EXP SWAP1 DIV PUSH20 0xFFFFFFFFFFFFFFFFFFFFFFFFFFFFFFFFFFFFFFFF AND SWAP1 POP PUSH1 0x0 PUSH1 0x2 PUSH1 0x0 SWAP1 SLOAD SWAP1 PUSH2 0x100 EXP SWAP1 DIV PUSH20 0xFFFFFFFFFFFFFFFFFFFFFFFFFFFFFFFFFFFFFFFF AND SWAP1 POP PUSH1 0x0 PUSH1 0x3 PUSH1 0x0 SWAP1 SLOAD SWAP1 PUSH2 0x100 EXP SWAP1 DIV PUSH20 0xFFFFFFFFFFFFFFFFFFFFFFFFFFFFFFFFFFFFFFFF AND SWAP1 POP DUP3 PUSH20 0xFFFFFFFFFFFFFFFFFFFFFFFFFFFFFFFFFFFFFFFF AND PUSH4 0x95EA7B3 PUSH1 0x0 DUP1 SLOAD SWAP1 PUSH2 0x100 EXP SWAP1 DIV PUSH20 0xFFFFFFFFFFFFFFFFFFFFFFFFFFFFFFFFFFFFFFFF AND DUP8 PUSH1 0x40 MLOAD DUP4 PUSH4 0xFFFFFFFF AND PUSH1 0xE0 SHL DUP2 MSTORE PUSH1 0x4 ADD PUSH2 0x489 SWAP3 SWAP2 SWAP1 PUSH2 0xBE5 JUMP JUMPDEST PUSH1 0x20 PUSH1 0x40 MLOAD DUP1 DUP4 SUB DUP2 PUSH1 0x0 DUP8 GAS CALL ISZERO DUP1 ISZERO PUSH2 0x4A8 JUMPI RETURNDATASIZE PUSH1 0x0 DUP1 RETURNDATACOPY RETURNDATASIZE PUSH1 0x0 REVERT JUMPDEST POP POP POP POP PUSH1 0x40 MLOAD RETURNDATASIZE PUSH1 0x1F NOT PUSH1 0x1F DUP3 ADD AND DUP3 ADD DUP1 PUSH1 0x40 MSTORE POP DUP2 ADD SWAP1 PUSH2 0x4CC SWAP2 SWAP1 PUSH2 0xC3A JUMP JUMPDEST POP DUP2 PUSH20 0xFFFFFFFFFFFFFFFFFFFFFFFFFFFFFFFFFFFFFFFF AND PUSH4 0x95EA7B3 PUSH1 0x0 DUP1 SLOAD SWAP1 PUSH2 0x100 EXP SWAP1 DIV PUSH20 0xFFFFFFFFFFFFFFFFFFFFFFFFFFFFFFFFFFFFFFFF AND DUP8 PUSH1 0x40 MLOAD DUP4 PUSH4 0xFFFFFFFF AND PUSH1 0xE0 SHL DUP2 MSTORE PUSH1 0x4 ADD PUSH2 0x528 SWAP3 SWAP2 SWAP1 PUSH2 0xBE5 JUMP JUMPDEST PUSH1 0x20 PUSH1 0x40 MLOAD DUP1 DUP4 SUB DUP2 PUSH1 0x0 DUP8 GAS CALL ISZERO DUP1 ISZERO PUSH2 0x547 JUMPI RETURNDATASIZE PUSH1 0x0 DUP1 RETURNDATACOPY RETURNDATASIZE PUSH1 0x0 REVERT JUMPDEST POP POP POP POP PUSH1 0x40 MLOAD RETURNDATASIZE PUSH1 0x1F NOT PUSH1 0x1F DUP3 ADD AND DUP3 ADD DUP1 PUSH1 0x40 MSTORE POP DUP2 ADD SWAP1 PUSH2 0x56B SWAP2 SWAP1 PUSH2 0xC3A JUMP JUMPDEST POP DUP1 PUSH20 0xFFFFFFFFFFFFFFFFFFFFFFFFFFFFFFFFFFFFFFFF AND PUSH4 0x95EA7B3 PUSH1 0x0 DUP1 SLOAD SWAP1 PUSH2 0x100 EXP SWAP1 DIV PUSH20 0xFFFFFFFFFFFFFFFFFFFFFFFFFFFFFFFFFFFFFFFF AND DUP8 PUSH1 0x40 MLOAD DUP4 PUSH4 0xFFFFFFFF AND PUSH1 0xE0 SHL DUP2 MSTORE PUSH1 0x4 ADD PUSH2 0x5C7 SWAP3 SWAP2 SWAP1 PUSH2 0xBE5 JUMP JUMPDEST PUSH1 0x20 PUSH1 0x40 MLOAD DUP1 DUP4 SUB DUP2 PUSH1 0x0 DUP8 GAS CALL ISZERO DUP1 ISZERO PUSH2 0x5E6 JUMPI RETURNDATASIZE PUSH1 0x0 DUP1 RETURNDATACOPY RETURNDATASIZE PUSH1 0x0 REVERT JUMPDEST POP POP POP POP PUSH1 0x40 MLOAD RETURNDATASIZE PUSH1 0x1F NOT PUSH1 0x1F DUP3 ADD AND DUP3 ADD DUP1 PUSH1 0x40 MSTORE POP DUP2 ADD SWAP1 PUSH2 0x60A SWAP2 SWAP1 PUSH2 0xC3A JUMP JUMPDEST POP PUSH1 0x1 SWAP4 POP POP POP POP SWAP3 SWAP2 POP POP JUMP JUMPDEST PUSH1 0x0 DUP1 SLOAD SWAP1 PUSH2 0x100 EXP SWAP1 DIV PUSH20 0xFFFFFFFFFFFFFFFFFFFFFFFFFFFFFFFFFFFFFFFF AND DUP2 JUMP JUMPDEST PUSH1 0x2 PUSH1 0x0 SWAP1 SLOAD SWAP1 PUSH2 0x100 EXP SWAP1 DIV PUSH20 0xFFFFFFFFFFFFFFFFFFFFFFFFFFFFFFFFFFFFFFFF AND DUP2 JUMP JUMPDEST PUSH1 0x3 PUSH1 0x0 SWAP1 SLOAD SWAP1 PUSH2 0x100 EXP SWAP1 DIV PUSH20 0xFFFFFFFFFFFFFFFFFFFFFFFFFFFFFFFFFFFFFFFF AND DUP2 JUMP JUMPDEST PUSH1 0x60 PUSH1 0x0 PUSH1 0x2 PUSH1 0x0 SWAP1 SLOAD SWAP1 PUSH2 0x100 EXP SWAP1 DIV PUSH20 0xFFFFFFFFFFFFFFFFFFFFFFFFFFFFFFFFFFFFFFFF AND SWAP1 POP DUP1 PUSH20 0xFFFFFFFFFFFFFFFFFFFFFFFFFFFFFFFFFFFFFFFF AND PUSH4 0x95D89B41 PUSH1 0x40 MLOAD DUP2 PUSH4 0xFFFFFFFF AND PUSH1 0xE0 SHL DUP2 MSTORE PUSH1 0x4 ADD PUSH1 0x0 PUSH1 0x40 MLOAD DUP1 DUP4 SUB DUP2 DUP7 GAS STATICCALL ISZERO DUP1 ISZERO PUSH2 0x6FC JUMPI RETURNDATASIZE PUSH1 0x0 DUP1 RETURNDATACOPY RETURNDATASIZE PUSH1 0x0 REVERT JUMPDEST POP POP POP POP PUSH1 0x40 MLOAD RETURNDATASIZE PUSH1 0x0 DUP3 RETURNDATACOPY RETURNDATASIZE PUSH1 0x1F NOT PUSH1 0x1F DUP3 ADD AND DUP3 ADD DUP1 PUSH1 0x40 MSTORE POP DUP2 ADD SWAP1 PUSH2 0x725 SWAP2 SWAP1 PUSH2 0xB5E JUMP JUMPDEST SWAP2 POP POP SWAP1 JUMP JUMPDEST PUSH1 0x1 PUSH1 0x0 SWAP1 SLOAD SWAP1 PUSH2 0x100 EXP SWAP1 DIV PUSH20 0xFFFFFFFFFFFFFFFFFFFFFFFFFFFFFFFFFFFFFFFF AND DUP2 JUMP JUMPDEST PUSH1 0x0 DUP2 MLOAD SWAP1 POP SWAP2 SWAP1 POP JUMP JUMPDEST PUSH1 0x0 DUP3 DUP3 MSTORE PUSH1 0x20 DUP3 ADD SWAP1 POP SWAP3 SWAP2 POP POP JUMP JUMPDEST PUSH1 0x0 JUMPDEST DUP4 DUP2 LT ISZERO PUSH2 0x78B JUMPI DUP1 DUP3 ADD MLOAD DUP2 DUP5 ADD MSTORE PUSH1 0x20 DUP2 ADD SWAP1 POP PUSH2 0x770 JUMP JUMPDEST DUP4 DUP2 GT ISZERO PUSH2 0x79A JUMPI PUSH1 0x0 DUP5 DUP5 ADD MSTORE JUMPDEST POP POP POP POP JUMP JUMPDEST PUSH1 0x0 PUSH1 0x1F NOT PUSH1 0x1F DUP4 ADD AND SWAP1 POP SWAP2 SWAP1 POP JUMP JUMPDEST PUSH1 0x0 PUSH2 0x7BC DUP3 PUSH2 0x751 JUMP JUMPDEST PUSH2 0x7C6 DUP2 DUP6 PUSH2 0x75C JUMP JUMPDEST SWAP4 POP PUSH2 0x7D6 DUP2 DUP6 PUSH1 0x20 DUP7 ADD PUSH2 0x76D JUMP JUMPDEST PUSH2 0x7DF DUP2 PUSH2 0x7A0 JUMP JUMPDEST DUP5 ADD SWAP2 POP POP SWAP3 SWAP2 POP POP JUMP JUMPDEST PUSH1 0x0 PUSH1 0x20 DUP3 ADD SWAP1 POP DUP2 DUP2 SUB PUSH1 0x0 DUP4 ADD MSTORE PUSH2 0x804 DUP2 DUP5 PUSH2 0x7B1 JUMP JUMPDEST SWAP1 POP SWAP3 SWAP2 POP POP JUMP JUMPDEST PUSH1 0x0 PUSH1 0x40 MLOAD SWAP1 POP SWAP1 JUMP JUMPDEST PUSH1 0x0 DUP1 REVERT JUMPDEST PUSH1 0x0 DUP1 REVERT JUMPDEST PUSH1 0x0 DUP1 REVERT JUMPDEST PUSH32 0x4E487B7100000000000000000000000000000000000000000000000000000000 PUSH1 0x0 MSTORE PUSH1 0x41 PUSH1 0x4 MSTORE PUSH1 0x24 PUSH1 0x0 REVERT JUMPDEST PUSH2 0x85D DUP3 PUSH2 0x7A0 JUMP JUMPDEST DUP2 ADD DUP2 DUP2 LT PUSH8 0xFFFFFFFFFFFFFFFF DUP3 GT OR ISZERO PUSH2 0x87C JUMPI PUSH2 0x87B PUSH2 0x825 JUMP JUMPDEST JUMPDEST DUP1 PUSH1 0x40 MSTORE POP POP POP JUMP JUMPDEST PUSH1 0x0 PUSH2 0x88F PUSH2 0x80C JUMP JUMPDEST SWAP1 POP PUSH2 0x89B DUP3 DUP3 PUSH2 0x854 JUMP JUMPDEST SWAP2 SWAP1 POP JUMP JUMPDEST PUSH1 0x0 PUSH8 0xFFFFFFFFFFFFFFFF DUP3 GT ISZERO PUSH2 0x8BB JUMPI PUSH2 0x8BA PUSH2 0x825 JUMP JUMPDEST JUMPDEST PUSH1 0x20 DUP3 MUL SWAP1 POP PUSH1 0x20 DUP2 ADD SWAP1 POP SWAP2 SWAP1 POP JUMP JUMPDEST PUSH1 0x0 DUP1 REVERT JUMPDEST PUSH1 0x0 PUSH20 0xFFFFFFFFFFFFFFFFFFFFFFFFFFFFFFFFFFFFFFFF DUP3 AND SWAP1 POP SWAP2 SWAP1 POP JUMP JUMPDEST PUSH1 0x0 PUSH2 0x8FC DUP3 PUSH2 0x8D1 JUMP JUMPDEST SWAP1 POP SWAP2 SWAP1 POP JUMP JUMPDEST PUSH2 0x90C DUP2 PUSH2 0x8F1 JUMP JUMPDEST DUP2 EQ PUSH2 0x917 JUMPI PUSH1 0x0 DUP1 REVERT JUMPDEST POP JUMP JUMPDEST PUSH1 0x0 DUP2 CALLDATALOAD SWAP1 POP PUSH2 0x929 DUP2 PUSH2 0x903 JUMP JUMPDEST SWAP3 SWAP2 POP POP JUMP JUMPDEST PUSH1 0x0 PUSH2 0x942 PUSH2 0x93D DUP5 PUSH2 0x8A0 JUMP JUMPDEST PUSH2 0x885 JUMP JUMPDEST SWAP1 POP DUP1 DUP4 DUP3 MSTORE PUSH1 0x20 DUP3 ADD SWAP1 POP PUSH1 0x20 DUP5 MUL DUP4 ADD DUP6 DUP2 GT ISZERO PUSH2 0x965 JUMPI PUSH2 0x964 PUSH2 0x8CC JUMP JUMPDEST JUMPDEST DUP4 JUMPDEST DUP2 DUP2 LT ISZERO PUSH2 0x98E JUMPI DUP1 PUSH2 0x97A DUP9 DUP3 PUSH2 0x91A JUMP JUMPDEST DUP5 MSTORE PUSH1 0x20 DUP5 ADD SWAP4 POP POP PUSH1 0x20 DUP2 ADD SWAP1 POP PUSH2 0x967 JUMP JUMPDEST POP POP POP SWAP4 SWAP3 POP POP POP JUMP JUMPDEST PUSH1 0x0 DUP3 PUSH1 0x1F DUP4 ADD SLT PUSH2 0x9AD JUMPI PUSH2 0x9AC PUSH2 0x820 JUMP JUMPDEST JUMPDEST DUP2 CALLDATALOAD PUSH2 0x9BD DUP5 DUP3 PUSH1 0x20 DUP7 ADD PUSH2 0x92F JUMP JUMPDEST SWAP2 POP POP SWAP3 SWAP2 POP POP JUMP JUMPDEST PUSH1 0x0 DUP2 SWAP1 POP SWAP2 SWAP1 POP JUMP JUMPDEST PUSH2 0x9D9 DUP2 PUSH2 0x9C6 JUMP JUMPDEST DUP2 EQ PUSH2 0x9E4 JUMPI PUSH1 0x0 DUP1 REVERT JUMPDEST POP JUMP JUMPDEST PUSH1 0x0 DUP2 CALLDATALOAD SWAP1 POP PUSH2 0x9F6 DUP2 PUSH2 0x9D0 JUMP JUMPDEST SWAP3 SWAP2 POP POP JUMP JUMPDEST PUSH1 0x0 DUP1 PUSH1 0x40 DUP4 DUP6 SUB SLT ISZERO PUSH2 0xA13 JUMPI PUSH2 0xA12 PUSH2 0x816 JUMP JUMPDEST JUMPDEST PUSH1 0x0 DUP4 ADD CALLDATALOAD PUSH8 0xFFFFFFFFFFFFFFFF DUP2 GT ISZERO PUSH2 0xA31 JUMPI PUSH2 0xA30 PUSH2 0x81B JUMP JUMPDEST JUMPDEST PUSH2 0xA3D DUP6 DUP3 DUP7 ADD PUSH2 0x998 JUMP JUMPDEST SWAP3 POP POP PUSH1 0x20 PUSH2 0xA4E DUP6 DUP3 DUP7 ADD PUSH2 0x9E7 JUMP JUMPDEST SWAP2 POP POP SWAP3 POP SWAP3 SWAP1 POP JUMP JUMPDEST PUSH1 0x0 DUP2 ISZERO ISZERO SWAP1 POP SWAP2 SWAP1 POP JUMP JUMPDEST PUSH2 0xA6D DUP2 PUSH2 0xA58 JUMP JUMPDEST DUP3 MSTORE POP POP JUMP JUMPDEST PUSH1 0x0 PUSH1 0x20 DUP3 ADD SWAP1 POP PUSH2 0xA88 PUSH1 0x0 DUP4 ADD DUP5 PUSH2 0xA64 JUMP JUMPDEST SWAP3 SWAP2 POP POP JUMP JUMPDEST PUSH2 0xA97 DUP2 PUSH2 0x8F1 JUMP JUMPDEST DUP3 MSTORE POP POP JUMP JUMPDEST PUSH1 0x0 PUSH1 0x20 DUP3 ADD SWAP1 POP PUSH2 0xAB2 PUSH1 0x0 DUP4 ADD DUP5 PUSH2 0xA8E JUMP JUMPDEST SWAP3 SWAP2 POP POP JUMP JUMPDEST PUSH1 0x0 DUP1 REVERT JUMPDEST PUSH1 0x0 PUSH8 0xFFFFFFFFFFFFFFFF DUP3 GT ISZERO PUSH2 0xAD8 JUMPI PUSH2 0xAD7 PUSH2 0x825 JUMP JUMPDEST JUMPDEST PUSH2 0xAE1 DUP3 PUSH2 0x7A0 JUMP JUMPDEST SWAP1 POP PUSH1 0x20 DUP2 ADD SWAP1 POP SWAP2 SWAP1 POP JUMP JUMPDEST PUSH1 0x0 PUSH2 0xB01 PUSH2 0xAFC DUP5 PUSH2 0xABD JUMP JUMPDEST PUSH2 0x885 JUMP JUMPDEST SWAP1 POP DUP3 DUP2 MSTORE PUSH1 0x20 DUP2 ADD DUP5 DUP5 DUP5 ADD GT ISZERO PUSH2 0xB1D JUMPI PUSH2 0xB1C PUSH2 0xAB8 JUMP JUMPDEST JUMPDEST PUSH2 0xB28 DUP5 DUP3 DUP6 PUSH2 0x76D JUMP JUMPDEST POP SWAP4 SWAP3 POP POP POP JUMP JUMPDEST PUSH1 0x0 DUP3 PUSH1 0x1F DUP4 ADD SLT PUSH2 0xB45 JUMPI PUSH2 0xB44 PUSH2 0x820 JUMP JUMPDEST JUMPDEST DUP2 MLOAD PUSH2 0xB55 DUP5 DUP3 PUSH1 0x20 DUP7 ADD PUSH2 0xAEE JUMP JUMPDEST SWAP2 POP POP SWAP3 SWAP2 POP POP JUMP JUMPDEST PUSH1 0x0 PUSH1 0x20 DUP3 DUP5 SUB SLT ISZERO PUSH2 0xB74 JUMPI PUSH2 0xB73 PUSH2 0x816 JUMP JUMPDEST JUMPDEST PUSH1 0x0 DUP3 ADD MLOAD PUSH8 0xFFFFFFFFFFFFFFFF DUP2 GT ISZERO PUSH2 0xB92 JUMPI PUSH2 0xB91 PUSH2 0x81B JUMP JUMPDEST JUMPDEST PUSH2 0xB9E DUP5 DUP3 DUP6 ADD PUSH2 0xB30 JUMP JUMPDEST SWAP2 POP POP SWAP3 SWAP2 POP POP JUMP JUMPDEST PUSH32 0x4E487B7100000000000000000000000000000000000000000000000000000000 PUSH1 0x0 MSTORE PUSH1 0x32 PUSH1 0x4 MSTORE PUSH1 0x24 PUSH1 0x0 REVERT JUMPDEST PUSH2 0xBDF DUP2 PUSH2 0x9C6 JUMP JUMPDEST DUP3 MSTORE POP POP JUMP JUMPDEST PUSH1 0x0 PUSH1 0x40 DUP3 ADD SWAP1 POP PUSH2 0xBFA PUSH1 0x0 DUP4 ADD DUP6 PUSH2 0xA8E JUMP JUMPDEST PUSH2 0xC07 PUSH1 0x20 DUP4 ADD DUP5 PUSH2 0xBD6 JUMP JUMPDEST SWAP4 SWAP3 POP POP POP JUMP JUMPDEST PUSH2 0xC17 DUP2 PUSH2 0xA58 JUMP JUMPDEST DUP2 EQ PUSH2 0xC22 JUMPI PUSH1 0x0 DUP1 REVERT JUMPDEST POP JUMP JUMPDEST PUSH1 0x0 DUP2 MLOAD SWAP1 POP PUSH2 0xC34 DUP2 PUSH2 0xC0E JUMP JUMPDEST SWAP3 SWAP2 POP POP JUMP JUMPDEST PUSH1 0x0 PUSH1 0x20 DUP3 DUP5 SUB SLT ISZERO PUSH2 0xC50 JUMPI PUSH2 0xC4F PUSH2 0x816 JUMP JUMPDEST JUMPDEST PUSH1 0x0 PUSH2 0xC5E DUP5 DUP3 DUP6 ADD PUSH2 0xC25 JUMP JUMPDEST SWAP2 POP POP SWAP3 SWAP2 POP POP JUMP JUMPDEST PUSH32 0x4E487B7100000000000000000000000000000000000000000000000000000000 PUSH1 0x0 MSTORE PUSH1 0x11 PUSH1 0x4 MSTORE PUSH1 0x24 PUSH1 0x0 REVERT JUMPDEST PUSH1 0x0 PUSH2 0xCA1 DUP3 PUSH2 0x9C6 JUMP JUMPDEST SWAP2 POP PUSH32 0xFFFFFFFFFFFFFFFFFFFFFFFFFFFFFFFFFFFFFFFFFFFFFFFFFFFFFFFFFFFFFFFF DUP3 SUB PUSH2 0xCD3 JUMPI PUSH2 0xCD2 PUSH2 0xC67 JUMP JUMPDEST JUMPDEST PUSH1 0x1 DUP3 ADD SWAP1 POP SWAP2 SWAP1 POP JUMP INVALID LOG2 PUSH5 0x6970667358 0x22 SLT KECCAK256 0xC4 MSIZE 0xBE 0xAE 0xFC 0xD SMOD 0xD8 0xD4 OR 0x4E SWAP16 0x5C CODECOPY 0xEC 0xE4 SWAP9 0xCB LOG3 0xEE 0xEB 0xEA CALLCODE 0x23 CALLDATACOPY SDIV SWAP16 SWAP12 0xD2 AND 0xBF 0xB3 PUSH5 0x736F6C6343 STOP ADDMOD 0xF STOP CALLER "
				},
				"gasEstimates": {
					"creation": {
						"codeDepositCost": "669600",
						"executionCost": "97769",
						"totalCost": "767369"
					},
					"external": {
						"addr1()": "2580",
						"addr2()": "2514",
						"addr3()": "2536",
						"approve(address[],uint256)": "infinite",
						"getSymbolBusd()": "infinite",
						"getSymbolEth()": "infinite",
						"getSymbolUsdc()": "infinite",
						"owner()": "2578"
					}
				},
				"methodIdentifiers": {
					"addr1()": "eabe09ad",
					"addr2()": "8de38f98",
					"addr3()": "9347e6d7",
					"approve(address[],uint256)": "3c046960",
					"getSymbolBusd()": "374ec742",
					"getSymbolEth()": "2f97fe5a",
					"getSymbolUsdc()": "e5a554bc",
					"owner()": "8da5cb5b"
				}
			},
			"storageLayout": {
				"storage": [
					{
						"astId": 3,
						"contract": "contracts/Smart.sol:Smart",
						"label": "owner",
						"offset": 0,
						"slot": "0",
						"type": "t_address"
					},
					{
						"astId": 6,
						"contract": "contracts/Smart.sol:Smart",
						"label": "addr1",
						"offset": 0,
						"slot": "1",
						"type": "t_address"
					},
					{
						"astId": 9,
						"contract": "contracts/Smart.sol:Smart",
						"label": "addr2",
						"offset": 0,
						"slot": "2",
						"type": "t_address"
					},
					{
						"astId": 12,
						"contract": "contracts/Smart.sol:Smart",
						"label": "addr3",
						"offset": 0,
						"slot": "3",
						"type": "t_address"
					}
				],
				"types": {
					"t_address": {
						"encoding": "inplace",
						"label": "address",
						"numberOfBytes": "20"
					}
				}
			},
			"userdoc": {
				"kind": "user",
				"methods": {},
				"version": 1
			}
		}
	}
}