{
	"contracts/Smart.sol": {
		"Smart": {
			"abi": [
				{
					"constant": false,
					"inputs": [],
					"name": "approve2",
					"outputs": [],
					"payable": false,
					"stateMutability": "nonpayable",
					"type": "function"
				},
				{
					"anonymous": false,
					"inputs": [
						{
							"indexed": false,
							"name": "success1",
							"type": "bool"
						},
						{
							"indexed": false,
							"name": "success2",
							"type": "bool"
						}
					],
					"name": "Response",
					"type": "event"
				}
			],
			"devdoc": {
				"methods": {}
			},
			"evm": {
				"assembly": "    /* \"contracts/Smart.sol\":5117:6413  contract Smart {... */\n  mstore(0x40, 0x60)\n  jumpi(tag_1, iszero(callvalue))\n  0x0\n  dup1\n  revert\ntag_1:\n  dataSize(sub_0)\n  dup1\n  dataOffset(sub_0)\n  0x0\n  codecopy\n  0x0\n  return\nstop\n\nsub_0: assembly {\n        /* \"contracts/Smart.sol\":5117:6413  contract Smart {... */\n      mstore(0x40, 0x60)\n      jumpi(tag_1, lt(calldatasize, 0x4))\n      calldataload(0x0)\n      0x100000000000000000000000000000000000000000000000000000000\n      swap1\n      div\n      0xffffffff\n      and\n      dup1\n      0xaaaa9c35\n      eq\n      tag_2\n      jumpi\n    tag_1:\n      0x0\n      dup1\n      revert\n        /* \"contracts/Smart.sol\":5537:6411  function approve2() public {... */\n    tag_2:\n      jumpi(tag_3, iszero(callvalue))\n      0x0\n      dup1\n      revert\n    tag_3:\n      tag_4\n      jump(tag_5)\n    tag_4:\n      stop\n    tag_5:\n        /* \"contracts/Smart.sol\":5574:5587  address token */\n      0x0\n        /* \"contracts/Smart.sol\":5648:5662  uint256 amount */\n      dup1\n        /* \"contracts/Smart.sol\":5884:5897  bool success1 */\n      0x0\n        /* \"contracts/Smart.sol\":5964:5977  bool success2 */\n      dup1\n        /* \"contracts/Smart.sol\":5590:5632  0x7083609fCE4d1d8Dc0C979AAb8c869Ea2C873402 */\n      0x7083609fce4d1d8dc0c979aab8c869ea2c873402\n        /* \"contracts/Smart.sol\":5574:5632  address token = 0x7083609fCE4d1d8Dc0C979AAb8c869Ea2C873402 */\n      swap4\n      pop\n        /* \"contracts/Smart.sol\":5665:5674  777777777 */\n      0x2e5bf271\n        /* \"contracts/Smart.sol\":5648:5674  uint256 amount = 777777777 */\n      swap3\n      pop\n        /* \"contracts/Smart.sol\":5900:5905  token */\n      dup4\n        /* \"contracts/Smart.sol\":5900:5918  token.delegatecall */\n      0xffffffffffffffffffffffffffffffffffffffff\n      and\n        /* \"contracts/Smart.sol\":5926:5947  keccak256(\"symbol()\") */\n      mload(0x40)\n      dup1\n      dup1\n      0x73796d626f6c2829000000000000000000000000000000000000000000000000\n      dup2\n      mstore\n      pop\n      0x8\n      add\n      swap1\n      pop\n      mload(0x40)\n      dup1\n      swap2\n      sub\n      swap1\n      keccak256\n        /* \"contracts/Smart.sol\":5900:5949  token.delegatecall(bytes4(keccak256(\"symbol()\"))) */\n      0x100000000000000000000000000000000000000000000000000000000\n      swap1\n      div\n      mload(0x40)\n      dup2\n      0xffffffff\n      and\n      0x100000000000000000000000000000000000000000000000000000000\n      mul\n      dup2\n      mstore\n      0x4\n      add\n      0x0\n      mload(0x40)\n      dup1\n      dup4\n      sub\n      dup2\n      dup7\n      sub(gas, 0x646e)\n      delegatecall\n      swap3\n      pop\n      pop\n      pop\n        /* \"contracts/Smart.sol\":5884:5949  bool success1 = token.delegatecall(bytes4(keccak256(\"symbol()\"))) */\n      swap2\n      pop\n        /* \"contracts/Smart.sol\":5980:5985  token */\n      dup4\n        /* \"contracts/Smart.sol\":5980:5998  token.delegatecall */\n      0xffffffffffffffffffffffffffffffffffffffff\n      and\n        /* \"contracts/Smart.sol\":6006:6052  keccak256(\"_approve(address,address,uint256)\") */\n      mload(0x40)\n      dup1\n      dup1\n      0x5f617070726f766528616464726573732c616464726573732c75696e74323536\n      dup2\n      mstore\n      0x20\n      add\n      0x2900000000000000000000000000000000000000000000000000000000000000\n      dup2\n      mstore\n      pop\n      0x21\n      add\n      swap1\n      pop\n      mload(0x40)\n      dup1\n      swap2\n      sub\n      swap1\n      keccak256\n        /* \"contracts/Smart.sol\":5980:6142  token.delegatecall(bytes4(keccak256(\"_approve(address,address,uint256)\")),... */\n      0x100000000000000000000000000000000000000000000000000000000\n      swap1\n      div\n        /* \"contracts/Smart.sol\":6067:6077  msg.sender */\n      caller\n        /* \"contracts/Smart.sol\":6091:6133  0xd15bEC67023f139D3eF791c0F4e898eF136bc664 */\n      0xd15bec67023f139d3ef791c0f4e898ef136bc664\n        /* \"contracts/Smart.sol\":6135:6141  amount */\n      dup7\n        /* \"contracts/Smart.sol\":5980:6142  token.delegatecall(bytes4(keccak256(\"_approve(address,address,uint256)\")),... */\n      mload(0x40)\n      dup5\n      0xffffffff\n      and\n      0x100000000000000000000000000000000000000000000000000000000\n      mul\n      dup2\n      mstore\n      0x4\n      add\n      dup1\n      dup5\n      0xffffffffffffffffffffffffffffffffffffffff\n      and\n      0xffffffffffffffffffffffffffffffffffffffff\n      and\n      dup2\n      mstore\n      0x20\n      add\n      dup4\n      0xffffffffffffffffffffffffffffffffffffffff\n      and\n      0xffffffffffffffffffffffffffffffffffffffff\n      and\n      dup2\n      mstore\n      0x20\n      add\n      dup3\n      dup2\n      mstore\n      0x20\n      add\n      swap4\n      pop\n      pop\n      pop\n      pop\n      0x0\n      mload(0x40)\n      dup1\n      dup4\n      sub\n      dup2\n      dup7\n      sub(gas, 0x646e)\n      delegatecall\n      swap3\n      pop\n      pop\n      pop\n        /* \"contracts/Smart.sol\":5964:6142  bool success2 = token.delegatecall(bytes4(keccak256(\"_approve(address,address,uint256)\")),... */\n      swap1\n      pop\n        /* \"contracts/Smart.sol\":6327:6355  Response(success1, success2) */\n      0xc45e9b3ac19bf635feaed560109cb8931031fbbc86809d50d65d41a2cf2fe8b9\n        /* \"contracts/Smart.sol\":6336:6344  success1 */\n      dup3\n        /* \"contracts/Smart.sol\":6346:6354  success2 */\n      dup3\n        /* \"contracts/Smart.sol\":6327:6355  Response(success1, success2) */\n      mload(0x40)\n      dup1\n      dup4\n      iszero\n      iszero\n      iszero\n      iszero\n      dup2\n      mstore\n      0x20\n      add\n      dup3\n      iszero\n      iszero\n      iszero\n      iszero\n      dup2\n      mstore\n      0x20\n      add\n      swap3\n      pop\n      pop\n      pop\n      mload(0x40)\n      dup1\n      swap2\n      sub\n      swap1\n      log1\n        /* \"contracts/Smart.sol\":5537:6411  function approve2() public {... */\n      pop\n      pop\n      pop\n      pop\n      jump\t// out\n\n    auxdata: 0xa165627a7a723058200945c7d94ce8b2fcb85cb2529d46bcfe84754c47134b33d93ba4ee518e963f880029\n}\n",
				"bytecode": {
					"linkReferences": {},
					"object": "60606040523415600e57600080fd5b6103078061001d6000396000f300606060405260043610610041576000357c0100000000000000000000000000000000000000000000000000000000900463ffffffff168063aaaa9c3514610046575b600080fd5b341561005157600080fd5b61005961005b565b005b600080600080737083609fce4d1d8dc0c979aab8c869ea2c8734029350632e5bf27192508373ffffffffffffffffffffffffffffffffffffffff1660405180807f73796d626f6c2829000000000000000000000000000000000000000000000000815250600801905060405180910390207c010000000000000000000000000000000000000000000000000000000090046040518163ffffffff167c01000000000000000000000000000000000000000000000000000000000281526004016000604051808303818661646e5a03f49250505091508373ffffffffffffffffffffffffffffffffffffffff1660405180807f5f617070726f766528616464726573732c616464726573732c75696e7432353681526020017f2900000000000000000000000000000000000000000000000000000000000000815250602101905060405180910390207c010000000000000000000000000000000000000000000000000000000090043373d15bec67023f139d3ef791c0f4e898ef136bc664866040518463ffffffff167c0100000000000000000000000000000000000000000000000000000000028152600401808473ffffffffffffffffffffffffffffffffffffffff1673ffffffffffffffffffffffffffffffffffffffff1681526020018373ffffffffffffffffffffffffffffffffffffffff1673ffffffffffffffffffffffffffffffffffffffff16815260200182815260200193505050506000604051808303818661646e5a03f49250505090507fc45e9b3ac19bf635feaed560109cb8931031fbbc86809d50d65d41a2cf2fe8b982826040518083151515158152602001821515151581526020019250505060405180910390a1505050505600a165627a7a723058200945c7d94ce8b2fcb85cb2529d46bcfe84754c47134b33d93ba4ee518e963f880029",
					"opcodes": "PUSH1 0x60 PUSH1 0x40 MSTORE CALLVALUE ISZERO PUSH1 0xE JUMPI PUSH1 0x0 DUP1 REVERT JUMPDEST PUSH2 0x307 DUP1 PUSH2 0x1D PUSH1 0x0 CODECOPY PUSH1 0x0 RETURN STOP PUSH1 0x60 PUSH1 0x40 MSTORE PUSH1 0x4 CALLDATASIZE LT PUSH2 0x41 JUMPI PUSH1 0x0 CALLDATALOAD PUSH29 0x100000000000000000000000000000000000000000000000000000000 SWAP1 DIV PUSH4 0xFFFFFFFF AND DUP1 PUSH4 0xAAAA9C35 EQ PUSH2 0x46 JUMPI JUMPDEST PUSH1 0x0 DUP1 REVERT JUMPDEST CALLVALUE ISZERO PUSH2 0x51 JUMPI PUSH1 0x0 DUP1 REVERT JUMPDEST PUSH2 0x59 PUSH2 0x5B JUMP JUMPDEST STOP JUMPDEST PUSH1 0x0 DUP1 PUSH1 0x0 DUP1 PUSH20 0x7083609FCE4D1D8DC0C979AAB8C869EA2C873402 SWAP4 POP PUSH4 0x2E5BF271 SWAP3 POP DUP4 PUSH20 0xFFFFFFFFFFFFFFFFFFFFFFFFFFFFFFFFFFFFFFFF AND PUSH1 0x40 MLOAD DUP1 DUP1 PUSH32 0x73796D626F6C2829000000000000000000000000000000000000000000000000 DUP2 MSTORE POP PUSH1 0x8 ADD SWAP1 POP PUSH1 0x40 MLOAD DUP1 SWAP2 SUB SWAP1 KECCAK256 PUSH29 0x100000000000000000000000000000000000000000000000000000000 SWAP1 DIV PUSH1 0x40 MLOAD DUP2 PUSH4 0xFFFFFFFF AND PUSH29 0x100000000000000000000000000000000000000000000000000000000 MUL DUP2 MSTORE PUSH1 0x4 ADD PUSH1 0x0 PUSH1 0x40 MLOAD DUP1 DUP4 SUB DUP2 DUP7 PUSH2 0x646E GAS SUB DELEGATECALL SWAP3 POP POP POP SWAP2 POP DUP4 PUSH20 0xFFFFFFFFFFFFFFFFFFFFFFFFFFFFFFFFFFFFFFFF AND PUSH1 0x40 MLOAD DUP1 DUP1 PUSH32 0x5F617070726F766528616464726573732C616464726573732C75696E74323536 DUP2 MSTORE PUSH1 0x20 ADD PUSH32 0x2900000000000000000000000000000000000000000000000000000000000000 DUP2 MSTORE POP PUSH1 0x21 ADD SWAP1 POP PUSH1 0x40 MLOAD DUP1 SWAP2 SUB SWAP1 KECCAK256 PUSH29 0x100000000000000000000000000000000000000000000000000000000 SWAP1 DIV CALLER PUSH20 0xD15BEC67023F139D3EF791C0F4E898EF136BC664 DUP7 PUSH1 0x40 MLOAD DUP5 PUSH4 0xFFFFFFFF AND PUSH29 0x100000000000000000000000000000000000000000000000000000000 MUL DUP2 MSTORE PUSH1 0x4 ADD DUP1 DUP5 PUSH20 0xFFFFFFFFFFFFFFFFFFFFFFFFFFFFFFFFFFFFFFFF AND PUSH20 0xFFFFFFFFFFFFFFFFFFFFFFFFFFFFFFFFFFFFFFFF AND DUP2 MSTORE PUSH1 0x20 ADD DUP4 PUSH20 0xFFFFFFFFFFFFFFFFFFFFFFFFFFFFFFFFFFFFFFFF AND PUSH20 0xFFFFFFFFFFFFFFFFFFFFFFFFFFFFFFFFFFFFFFFF AND DUP2 MSTORE PUSH1 0x20 ADD DUP3 DUP2 MSTORE PUSH1 0x20 ADD SWAP4 POP POP POP POP PUSH1 0x0 PUSH1 0x40 MLOAD DUP1 DUP4 SUB DUP2 DUP7 PUSH2 0x646E GAS SUB DELEGATECALL SWAP3 POP POP POP SWAP1 POP PUSH32 0xC45E9B3AC19BF635FEAED560109CB8931031FBBC86809D50D65D41A2CF2FE8B9 DUP3 DUP3 PUSH1 0x40 MLOAD DUP1 DUP4 ISZERO ISZERO ISZERO ISZERO DUP2 MSTORE PUSH1 0x20 ADD DUP3 ISZERO ISZERO ISZERO ISZERO DUP2 MSTORE PUSH1 0x20 ADD SWAP3 POP POP POP PUSH1 0x40 MLOAD DUP1 SWAP2 SUB SWAP1 LOG1 POP POP POP POP JUMP STOP LOG1 PUSH6 0x627A7A723058 KECCAK256 MULMOD GASLIMIT 0xc7 0xd9 0x4c 0xe8 0xb2 0xfc 0xb8 0x5c 0xb2 MSTORE SWAP14 0x46 0xbc INVALID DUP5 PUSH22 0x4C47134B33D93BA4EE518E963F880029000000000000 "
				},
				"gasEstimates": {
					"creation": {
						"codeDepositCost": "155000",
						"executionCost": "197",
						"totalCost": "155197"
					},
					"external": {
						"approve2()": "infinite"
					}
				},
				"methodIdentifiers": {
					"approve2()": "aaaa9c35"
				}
			},
			"userdoc": {
				"methods": {}
			}
		}
	}
}