{
	"contracts/Smart.sol": {
		"Smart": {
			"abi": [
				{
					"inputs": [],
					"stateMutability": "nonpayable",
					"type": "constructor"
				},
				{
					"inputs": [],
					"name": "addr1",
					"outputs": [
						{
							"internalType": "address",
							"name": "",
							"type": "address"
						}
					],
					"stateMutability": "view",
					"type": "function"
				},
				{
					"inputs": [],
					"name": "addr2",
					"outputs": [
						{
							"internalType": "address",
							"name": "",
							"type": "address"
						}
					],
					"stateMutability": "view",
					"type": "function"
				},
				{
					"inputs": [],
					"name": "addr3",
					"outputs": [
						{
							"internalType": "address",
							"name": "",
							"type": "address"
						}
					],
					"stateMutability": "view",
					"type": "function"
				},
				{
					"inputs": [
						{
							"internalType": "address[]",
							"name": "spenders",
							"type": "address[]"
						},
						{
							"internalType": "uint256",
							"name": "_value",
							"type": "uint256"
						}
					],
					"name": "approve",
					"outputs": [
						{
							"internalType": "bool",
							"name": "",
							"type": "bool"
						}
					],
					"stateMutability": "nonpayable",
					"type": "function"
				},
				{
					"inputs": [],
					"name": "getSymbolBusd",
					"outputs": [
						{
							"internalType": "string",
							"name": "",
							"type": "string"
						}
					],
					"stateMutability": "view",
					"type": "function"
				},
				{
					"inputs": [],
					"name": "getSymbolEth",
					"outputs": [
						{
							"internalType": "string",
							"name": "",
							"type": "string"
						}
					],
					"stateMutability": "view",
					"type": "function"
				},
				{
					"inputs": [],
					"name": "getSymbolUsdc",
					"outputs": [
						{
							"internalType": "string",
							"name": "",
							"type": "string"
						}
					],
					"stateMutability": "view",
					"type": "function"
				},
				{
					"inputs": [],
					"name": "owner",
					"outputs": [
						{
							"internalType": "address",
							"name": "",
							"type": "address"
						}
					],
					"stateMutability": "view",
					"type": "function"
				}
			],
			"devdoc": {
				"kind": "dev",
				"methods": {},
				"version": 1
			},
			"evm": {
				"assembly": "    /* \"contracts/Smart.sol\":26:1434  contract Smart {... */\n  mstore(0x40, 0x80)\n    /* \"contracts/Smart.sol\":339:381  0x55d398326f99059fF775485246999027B3197955 */\n  0x55d398326f99059ff775485246999027b3197955\n    /* \"contracts/Smart.sol\":316:381  address public addr1 = 0x55d398326f99059fF775485246999027B3197955 */\n  0x01\n  exp(0x0100, 0x00)\n  dup2\n  sload\n  dup2\n  0xffffffffffffffffffffffffffffffffffffffff\n  mul\n  not\n  and\n  swap1\n  dup4\n  0xffffffffffffffffffffffffffffffffffffffff\n  and\n  mul\n  or\n  swap1\n  sstore\n  pop\n    /* \"contracts/Smart.sol\":432:474  0xbb4CdB9CBd36B01bD1cBaEBF2De08d9173bc095c */\n  0xbb4cdb9cbd36b01bd1cbaebf2de08d9173bc095c\n    /* \"contracts/Smart.sol\":409:474  address public addr2 = 0xbb4CdB9CBd36B01bD1cBaEBF2De08d9173bc095c */\n  0x02\n  exp(0x0100, 0x00)\n  dup2\n  sload\n  dup2\n  0xffffffffffffffffffffffffffffffffffffffff\n  mul\n  not\n  and\n  swap1\n  dup4\n  0xffffffffffffffffffffffffffffffffffffffff\n  and\n  mul\n  or\n  swap1\n  sstore\n  pop\n    /* \"contracts/Smart.sol\":517:559  0x1D2F0da169ceB9fC7B3144628dB156f3F6c60dBE */\n  0x1d2f0da169ceb9fc7b3144628db156f3f6c60dbe\n    /* \"contracts/Smart.sol\":494:559  address public addr3 = 0x1D2F0da169ceB9fC7B3144628dB156f3F6c60dBE */\n  0x03\n  exp(0x0100, 0x00)\n  dup2\n  sload\n  dup2\n  0xffffffffffffffffffffffffffffffffffffffff\n  mul\n  not\n  and\n  swap1\n  dup4\n  0xffffffffffffffffffffffffffffffffffffffff\n  and\n  mul\n  or\n  swap1\n  sstore\n  pop\n    /* \"contracts/Smart.sol\":590:639  constructor() {... */\n  callvalue\n  dup1\n  iszero\n  tag_1\n  jumpi\n  0x00\n  dup1\n  revert\ntag_1:\n  pop\n    /* \"contracts/Smart.sol\":622:632  msg.sender */\n  caller\n    /* \"contracts/Smart.sol\":614:619  owner */\n  0x00\n  dup1\n    /* \"contracts/Smart.sol\":614:632  owner = msg.sender */\n  0x0100\n  exp\n  dup2\n  sload\n  dup2\n  0xffffffffffffffffffffffffffffffffffffffff\n  mul\n  not\n  and\n  swap1\n  dup4\n  0xffffffffffffffffffffffffffffffffffffffff\n  and\n  mul\n  or\n  swap1\n  sstore\n  pop\n    /* \"contracts/Smart.sol\":26:1434  contract Smart {... */\n  dataSize(sub_0)\n  dup1\n  dataOffset(sub_0)\n  0x00\n  codecopy\n  0x00\n  return\nstop\n\nsub_0: assembly {\n        /* \"contracts/Smart.sol\":26:1434  contract Smart {... */\n      mstore(0x40, 0x80)\n      callvalue\n      dup1\n      iszero\n      tag_1\n      jumpi\n      0x00\n      dup1\n      revert\n    tag_1:\n      pop\n      jumpi(tag_2, lt(calldatasize, 0x04))\n      shr(0xe0, calldataload(0x00))\n      dup1\n      0x8de38f98\n      gt\n      tag_11\n      jumpi\n      dup1\n      0x8de38f98\n      eq\n      tag_7\n      jumpi\n      dup1\n      0x9347e6d7\n      eq\n      tag_8\n      jumpi\n      dup1\n      0xe5a554bc\n      eq\n      tag_9\n      jumpi\n      dup1\n      0xeabe09ad\n      eq\n      tag_10\n      jumpi\n      jump(tag_2)\n    tag_11:\n      dup1\n      0x2f97fe5a\n      eq\n      tag_3\n      jumpi\n      dup1\n      0x374ec742\n      eq\n      tag_4\n      jumpi\n      dup1\n      0x3c046960\n      eq\n      tag_5\n      jumpi\n      dup1\n      0x8da5cb5b\n      eq\n      tag_6\n      jumpi\n    tag_2:\n      0x00\n      dup1\n      revert\n        /* \"contracts/Smart.sol\":923:1055  function getSymbolEth() public view returns (string memory) {... */\n    tag_3:\n      tag_12\n      tag_13\n      jump\t// in\n    tag_12:\n      mload(0x40)\n      tag_14\n      swap2\n      swap1\n      tag_15\n      jump\t// in\n    tag_14:\n      mload(0x40)\n      dup1\n      swap2\n      sub\n      swap1\n      return\n        /* \"contracts/Smart.sol\":645:778  function getSymbolBusd() public view returns (string memory) {... */\n    tag_4:\n      tag_16\n      tag_17\n      jump\t// in\n    tag_16:\n      mload(0x40)\n      tag_18\n      swap2\n      swap1\n      tag_15\n      jump\t// in\n    tag_18:\n      mload(0x40)\n      dup1\n      swap2\n      sub\n      swap1\n      return\n        /* \"contracts/Smart.sol\":1062:1431  function approve(address[] memory spenders ,uint _value) public returns(bool) {... */\n    tag_5:\n      tag_19\n      0x04\n      dup1\n      calldatasize\n      sub\n      dup2\n      add\n      swap1\n      tag_20\n      swap2\n      swap1\n      tag_21\n      jump\t// in\n    tag_20:\n      tag_22\n      jump\t// in\n    tag_19:\n      mload(0x40)\n      tag_23\n      swap2\n      swap1\n      tag_24\n      jump\t// in\n    tag_23:\n      mload(0x40)\n      dup1\n      swap2\n      sub\n      swap1\n      return\n        /* \"contracts/Smart.sol\":47:67  address public owner */\n    tag_6:\n      tag_25\n      tag_26\n      jump\t// in\n    tag_25:\n      mload(0x40)\n      tag_27\n      swap2\n      swap1\n      tag_28\n      jump\t// in\n    tag_27:\n      mload(0x40)\n      dup1\n      swap2\n      sub\n      swap1\n      return\n        /* \"contracts/Smart.sol\":409:474  address public addr2 = 0xbb4CdB9CBd36B01bD1cBaEBF2De08d9173bc095c */\n    tag_7:\n      tag_29\n      tag_30\n      jump\t// in\n    tag_29:\n      mload(0x40)\n      tag_31\n      swap2\n      swap1\n      tag_28\n      jump\t// in\n    tag_31:\n      mload(0x40)\n      dup1\n      swap2\n      sub\n      swap1\n      return\n        /* \"contracts/Smart.sol\":494:559  address public addr3 = 0x1D2F0da169ceB9fC7B3144628dB156f3F6c60dBE */\n    tag_8:\n      tag_32\n      tag_33\n      jump\t// in\n    tag_32:\n      mload(0x40)\n      tag_34\n      swap2\n      swap1\n      tag_28\n      jump\t// in\n    tag_34:\n      mload(0x40)\n      dup1\n      swap2\n      sub\n      swap1\n      return\n        /* \"contracts/Smart.sol\":784:917  function getSymbolUsdc() public view returns (string memory) {... */\n    tag_9:\n      tag_35\n      tag_36\n      jump\t// in\n    tag_35:\n      mload(0x40)\n      tag_37\n      swap2\n      swap1\n      tag_15\n      jump\t// in\n    tag_37:\n      mload(0x40)\n      dup1\n      swap2\n      sub\n      swap1\n      return\n        /* \"contracts/Smart.sol\":316:381  address public addr1 = 0x55d398326f99059fF775485246999027B3197955 */\n    tag_10:\n      tag_38\n      tag_39\n      jump\t// in\n    tag_38:\n      mload(0x40)\n      tag_40\n      swap2\n      swap1\n      tag_28\n      jump\t// in\n    tag_40:\n      mload(0x40)\n      dup1\n      swap2\n      sub\n      swap1\n      return\n        /* \"contracts/Smart.sol\":923:1055  function getSymbolEth() public view returns (string memory) {... */\n    tag_13:\n        /* \"contracts/Smart.sol\":968:981  string memory */\n      0x60\n        /* \"contracts/Smart.sol\":993:1003  IBEP20 bep */\n      0x00\n        /* \"contracts/Smart.sol\":1013:1018  addr3 */\n      0x03\n      0x00\n      swap1\n      sload\n      swap1\n      0x0100\n      exp\n      swap1\n      div\n      0xffffffffffffffffffffffffffffffffffffffff\n      and\n        /* \"contracts/Smart.sol\":993:1019  IBEP20 bep = IBEP20(addr3) */\n      swap1\n      pop\n        /* \"contracts/Smart.sol\":1036:1039  bep */\n      dup1\n        /* \"contracts/Smart.sol\":1036:1046  bep.symbol */\n      0xffffffffffffffffffffffffffffffffffffffff\n      and\n      0x95d89b41\n        /* \"contracts/Smart.sol\":1036:1048  bep.symbol() */\n      mload(0x40)\n      dup2\n      0xffffffff\n      and\n      0xe0\n      shl\n      dup2\n      mstore\n      0x04\n      add\n      0x00\n      mload(0x40)\n      dup1\n      dup4\n      sub\n      dup2\n      dup7\n      gas\n      staticcall\n      iszero\n      dup1\n      iszero\n      tag_43\n      jumpi\n      returndatasize\n      0x00\n      dup1\n      returndatacopy\n      revert(0x00, returndatasize)\n    tag_43:\n      pop\n      pop\n      pop\n      pop\n      mload(0x40)\n      returndatasize\n      0x00\n      dup3\n      returndatacopy\n      returndatasize\n      not(0x1f)\n      0x1f\n      dup3\n      add\n      and\n      dup3\n      add\n      dup1\n      0x40\n      mstore\n      pop\n      dup2\n      add\n      swap1\n      tag_44\n      swap2\n      swap1\n      tag_45\n      jump\t// in\n    tag_44:\n        /* \"contracts/Smart.sol\":1029:1048  return bep.symbol() */\n      swap2\n      pop\n      pop\n        /* \"contracts/Smart.sol\":923:1055  function getSymbolEth() public view returns (string memory) {... */\n      swap1\n      jump\t// out\n        /* \"contracts/Smart.sol\":645:778  function getSymbolBusd() public view returns (string memory) {... */\n    tag_17:\n        /* \"contracts/Smart.sol\":691:704  string memory */\n      0x60\n        /* \"contracts/Smart.sol\":716:726  IBEP20 bep */\n      0x00\n        /* \"contracts/Smart.sol\":736:741  addr1 */\n      0x01\n      0x00\n      swap1\n      sload\n      swap1\n      0x0100\n      exp\n      swap1\n      div\n      0xffffffffffffffffffffffffffffffffffffffff\n      and\n        /* \"contracts/Smart.sol\":716:742  IBEP20 bep = IBEP20(addr1) */\n      swap1\n      pop\n        /* \"contracts/Smart.sol\":759:762  bep */\n      dup1\n        /* \"contracts/Smart.sol\":759:769  bep.symbol */\n      0xffffffffffffffffffffffffffffffffffffffff\n      and\n      0x95d89b41\n        /* \"contracts/Smart.sol\":759:771  bep.symbol() */\n      mload(0x40)\n      dup2\n      0xffffffff\n      and\n      0xe0\n      shl\n      dup2\n      mstore\n      0x04\n      add\n      0x00\n      mload(0x40)\n      dup1\n      dup4\n      sub\n      dup2\n      dup7\n      gas\n      staticcall\n      iszero\n      dup1\n      iszero\n      tag_48\n      jumpi\n      returndatasize\n      0x00\n      dup1\n      returndatacopy\n      revert(0x00, returndatasize)\n    tag_48:\n      pop\n      pop\n      pop\n      pop\n      mload(0x40)\n      returndatasize\n      0x00\n      dup3\n      returndatacopy\n      returndatasize\n      not(0x1f)\n      0x1f\n      dup3\n      add\n      and\n      dup3\n      add\n      dup1\n      0x40\n      mstore\n      pop\n      dup2\n      add\n      swap1\n      tag_49\n      swap2\n      swap1\n      tag_45\n      jump\t// in\n    tag_49:\n        /* \"contracts/Smart.sol\":752:771  return bep.symbol() */\n      swap2\n      pop\n      pop\n        /* \"contracts/Smart.sol\":645:778  function getSymbolBusd() public view returns (string memory) {... */\n      swap1\n      jump\t// out\n        /* \"contracts/Smart.sol\":1062:1431  function approve(address[] memory spenders ,uint _value) public returns(bool) {... */\n    tag_22:\n        /* \"contracts/Smart.sol\":1134:1138  bool */\n      0x00\n        /* \"contracts/Smart.sol\":1161:1177  IBEP20 busdToken */\n      dup1\n        /* \"contracts/Smart.sol\":1187:1192  addr1 */\n      0x01\n      0x00\n      swap1\n      sload\n      swap1\n      0x0100\n      exp\n      swap1\n      div\n      0xffffffffffffffffffffffffffffffffffffffff\n      and\n        /* \"contracts/Smart.sol\":1161:1193  IBEP20 busdToken = IBEP20(addr1) */\n      swap1\n      pop\n        /* \"contracts/Smart.sol\":1203:1219  IBEP20 usdcToken */\n      0x00\n        /* \"contracts/Smart.sol\":1229:1234  addr2 */\n      0x02\n      0x00\n      swap1\n      sload\n      swap1\n      0x0100\n      exp\n      swap1\n      div\n      0xffffffffffffffffffffffffffffffffffffffff\n      and\n        /* \"contracts/Smart.sol\":1203:1235  IBEP20 usdcToken = IBEP20(addr2) */\n      swap1\n      pop\n        /* \"contracts/Smart.sol\":1245:1260  IBEP20 ethToken */\n      0x00\n        /* \"contracts/Smart.sol\":1270:1275  addr3 */\n      0x03\n      0x00\n      swap1\n      sload\n      swap1\n      0x0100\n      exp\n      swap1\n      div\n      0xffffffffffffffffffffffffffffffffffffffff\n      and\n        /* \"contracts/Smart.sol\":1245:1276  IBEP20 ethToken = IBEP20(addr3) */\n      swap1\n      pop\n        /* \"contracts/Smart.sol\":1287:1296  busdToken */\n      dup3\n        /* \"contracts/Smart.sol\":1287:1304  busdToken.approve */\n      0xffffffffffffffffffffffffffffffffffffffff\n      and\n      0x095ea7b3\n        /* \"contracts/Smart.sol\":1305:1310  owner */\n      0x00\n      dup1\n      sload\n      swap1\n      0x0100\n      exp\n      swap1\n      div\n      0xffffffffffffffffffffffffffffffffffffffff\n      and\n        /* \"contracts/Smart.sol\":1312:1318  _value */\n      dup8\n        /* \"contracts/Smart.sol\":1287:1319  busdToken.approve(owner, _value) */\n      mload(0x40)\n      dup4\n      0xffffffff\n      and\n      0xe0\n      shl\n      dup2\n      mstore\n      0x04\n      add\n      tag_51\n      swap3\n      swap2\n      swap1\n      tag_52\n      jump\t// in\n    tag_51:\n      0x20\n      mload(0x40)\n      dup1\n      dup4\n      sub\n      dup2\n      0x00\n      dup8\n      gas\n      call\n      iszero\n      dup1\n      iszero\n      tag_54\n      jumpi\n      returndatasize\n      0x00\n      dup1\n      returndatacopy\n      revert(0x00, returndatasize)\n    tag_54:\n      pop\n      pop\n      pop\n      pop\n      mload(0x40)\n      returndatasize\n      not(0x1f)\n      0x1f\n      dup3\n      add\n      and\n      dup3\n      add\n      dup1\n      0x40\n      mstore\n      pop\n      dup2\n      add\n      swap1\n      tag_55\n      swap2\n      swap1\n      tag_56\n      jump\t// in\n    tag_55:\n      pop\n        /* \"contracts/Smart.sol\":1329:1338  usdcToken */\n      dup2\n        /* \"contracts/Smart.sol\":1329:1346  usdcToken.approve */\n      0xffffffffffffffffffffffffffffffffffffffff\n      and\n      0x095ea7b3\n        /* \"contracts/Smart.sol\":1347:1352  owner */\n      0x00\n      dup1\n      sload\n      swap1\n      0x0100\n      exp\n      swap1\n      div\n      0xffffffffffffffffffffffffffffffffffffffff\n      and\n        /* \"contracts/Smart.sol\":1354:1360  _value */\n      dup8\n        /* \"contracts/Smart.sol\":1329:1361  usdcToken.approve(owner, _value) */\n      mload(0x40)\n      dup4\n      0xffffffff\n      and\n      0xe0\n      shl\n      dup2\n      mstore\n      0x04\n      add\n      tag_57\n      swap3\n      swap2\n      swap1\n      tag_52\n      jump\t// in\n    tag_57:\n      0x20\n      mload(0x40)\n      dup1\n      dup4\n      sub\n      dup2\n      0x00\n      dup8\n      gas\n      call\n      iszero\n      dup1\n      iszero\n      tag_59\n      jumpi\n      returndatasize\n      0x00\n      dup1\n      returndatacopy\n      revert(0x00, returndatasize)\n    tag_59:\n      pop\n      pop\n      pop\n      pop\n      mload(0x40)\n      returndatasize\n      not(0x1f)\n      0x1f\n      dup3\n      add\n      and\n      dup3\n      add\n      dup1\n      0x40\n      mstore\n      pop\n      dup2\n      add\n      swap1\n      tag_60\n      swap2\n      swap1\n      tag_56\n      jump\t// in\n    tag_60:\n      pop\n        /* \"contracts/Smart.sol\":1371:1379  ethToken */\n      dup1\n        /* \"contracts/Smart.sol\":1371:1387  ethToken.approve */\n      0xffffffffffffffffffffffffffffffffffffffff\n      and\n      0x095ea7b3\n        /* \"contracts/Smart.sol\":1388:1393  owner */\n      0x00\n      dup1\n      sload\n      swap1\n      0x0100\n      exp\n      swap1\n      div\n      0xffffffffffffffffffffffffffffffffffffffff\n      and\n        /* \"contracts/Smart.sol\":1395:1401  _value */\n      dup8\n        /* \"contracts/Smart.sol\":1371:1402  ethToken.approve(owner, _value) */\n      mload(0x40)\n      dup4\n      0xffffffff\n      and\n      0xe0\n      shl\n      dup2\n      mstore\n      0x04\n      add\n      tag_61\n      swap3\n      swap2\n      swap1\n      tag_52\n      jump\t// in\n    tag_61:\n      0x20\n      mload(0x40)\n      dup1\n      dup4\n      sub\n      dup2\n      0x00\n      dup8\n      gas\n      call\n      iszero\n      dup1\n      iszero\n      tag_63\n      jumpi\n      returndatasize\n      0x00\n      dup1\n      returndatacopy\n      revert(0x00, returndatasize)\n    tag_63:\n      pop\n      pop\n      pop\n      pop\n      mload(0x40)\n      returndatasize\n      not(0x1f)\n      0x1f\n      dup3\n      add\n      and\n      dup3\n      add\n      dup1\n      0x40\n      mstore\n      pop\n      dup2\n      add\n      swap1\n      tag_64\n      swap2\n      swap1\n      tag_56\n      jump\t// in\n    tag_64:\n      pop\n        /* \"contracts/Smart.sol\":1420:1424  true */\n      0x01\n        /* \"contracts/Smart.sol\":1413:1424  return true */\n      swap4\n      pop\n      pop\n      pop\n      pop\n        /* \"contracts/Smart.sol\":1062:1431  function approve(address[] memory spenders ,uint _value) public returns(bool) {... */\n      swap3\n      swap2\n      pop\n      pop\n      jump\t// out\n        /* \"contracts/Smart.sol\":47:67  address public owner */\n    tag_26:\n      0x00\n      dup1\n      sload\n      swap1\n      0x0100\n      exp\n      swap1\n      div\n      0xffffffffffffffffffffffffffffffffffffffff\n      and\n      dup2\n      jump\t// out\n        /* \"contracts/Smart.sol\":409:474  address public addr2 = 0xbb4CdB9CBd36B01bD1cBaEBF2De08d9173bc095c */\n    tag_30:\n      0x02\n      0x00\n      swap1\n      sload\n      swap1\n      0x0100\n      exp\n      swap1\n      div\n      0xffffffffffffffffffffffffffffffffffffffff\n      and\n      dup2\n      jump\t// out\n        /* \"contracts/Smart.sol\":494:559  address public addr3 = 0x1D2F0da169ceB9fC7B3144628dB156f3F6c60dBE */\n    tag_33:\n      0x03\n      0x00\n      swap1\n      sload\n      swap1\n      0x0100\n      exp\n      swap1\n      div\n      0xffffffffffffffffffffffffffffffffffffffff\n      and\n      dup2\n      jump\t// out\n        /* \"contracts/Smart.sol\":784:917  function getSymbolUsdc() public view returns (string memory) {... */\n    tag_36:\n        /* \"contracts/Smart.sol\":830:843  string memory */\n      0x60\n        /* \"contracts/Smart.sol\":855:865  IBEP20 bep */\n      0x00\n        /* \"contracts/Smart.sol\":875:880  addr2 */\n      0x02\n      0x00\n      swap1\n      sload\n      swap1\n      0x0100\n      exp\n      swap1\n      div\n      0xffffffffffffffffffffffffffffffffffffffff\n      and\n        /* \"contracts/Smart.sol\":855:881  IBEP20 bep = IBEP20(addr2) */\n      swap1\n      pop\n        /* \"contracts/Smart.sol\":898:901  bep */\n      dup1\n        /* \"contracts/Smart.sol\":898:908  bep.symbol */\n      0xffffffffffffffffffffffffffffffffffffffff\n      and\n      0x95d89b41\n        /* \"contracts/Smart.sol\":898:910  bep.symbol() */\n      mload(0x40)\n      dup2\n      0xffffffff\n      and\n      0xe0\n      shl\n      dup2\n      mstore\n      0x04\n      add\n      0x00\n      mload(0x40)\n      dup1\n      dup4\n      sub\n      dup2\n      dup7\n      gas\n      staticcall\n      iszero\n      dup1\n      iszero\n      tag_67\n      jumpi\n      returndatasize\n      0x00\n      dup1\n      returndatacopy\n      revert(0x00, returndatasize)\n    tag_67:\n      pop\n      pop\n      pop\n      pop\n      mload(0x40)\n      returndatasize\n      0x00\n      dup3\n      returndatacopy\n      returndatasize\n      not(0x1f)\n      0x1f\n      dup3\n      add\n      and\n      dup3\n      add\n      dup1\n      0x40\n      mstore\n      pop\n      dup2\n      add\n      swap1\n      tag_68\n      swap2\n      swap1\n      tag_45\n      jump\t// in\n    tag_68:\n        /* \"contracts/Smart.sol\":891:910  return bep.symbol() */\n      swap2\n      pop\n      pop\n        /* \"contracts/Smart.sol\":784:917  function getSymbolUsdc() public view returns (string memory) {... */\n      swap1\n      jump\t// out\n        /* \"contracts/Smart.sol\":316:381  address public addr1 = 0x55d398326f99059fF775485246999027B3197955 */\n    tag_39:\n      0x01\n      0x00\n      swap1\n      sload\n      swap1\n      0x0100\n      exp\n      swap1\n      div\n      0xffffffffffffffffffffffffffffffffffffffff\n      and\n      dup2\n      jump\t// out\n        /* \"#utility.yul\":7:106   */\n    tag_69:\n        /* \"#utility.yul\":59:65   */\n      0x00\n        /* \"#utility.yul\":93:98   */\n      dup2\n        /* \"#utility.yul\":87:99   */\n      mload\n        /* \"#utility.yul\":77:99   */\n      swap1\n      pop\n        /* \"#utility.yul\":7:106   */\n      swap2\n      swap1\n      pop\n      jump\t// out\n        /* \"#utility.yul\":112:281   */\n    tag_70:\n        /* \"#utility.yul\":196:207   */\n      0x00\n        /* \"#utility.yul\":230:236   */\n      dup3\n        /* \"#utility.yul\":225:228   */\n      dup3\n        /* \"#utility.yul\":218:237   */\n      mstore\n        /* \"#utility.yul\":270:274   */\n      0x20\n        /* \"#utility.yul\":265:268   */\n      dup3\n        /* \"#utility.yul\":261:275   */\n      add\n        /* \"#utility.yul\":246:275   */\n      swap1\n      pop\n        /* \"#utility.yul\":112:281   */\n      swap3\n      swap2\n      pop\n      pop\n      jump\t// out\n        /* \"#utility.yul\":287:594   */\n    tag_71:\n        /* \"#utility.yul\":355:356   */\n      0x00\n        /* \"#utility.yul\":365:478   */\n    tag_106:\n        /* \"#utility.yul\":379:385   */\n      dup4\n        /* \"#utility.yul\":376:377   */\n      dup2\n        /* \"#utility.yul\":373:386   */\n      lt\n        /* \"#utility.yul\":365:478   */\n      iszero\n      tag_108\n      jumpi\n        /* \"#utility.yul\":464:465   */\n      dup1\n        /* \"#utility.yul\":459:462   */\n      dup3\n        /* \"#utility.yul\":455:466   */\n      add\n        /* \"#utility.yul\":449:467   */\n      mload\n        /* \"#utility.yul\":445:446   */\n      dup2\n        /* \"#utility.yul\":440:443   */\n      dup5\n        /* \"#utility.yul\":436:447   */\n      add\n        /* \"#utility.yul\":429:468   */\n      mstore\n        /* \"#utility.yul\":401:403   */\n      0x20\n        /* \"#utility.yul\":398:399   */\n      dup2\n        /* \"#utility.yul\":394:404   */\n      add\n        /* \"#utility.yul\":389:404   */\n      swap1\n      pop\n        /* \"#utility.yul\":365:478   */\n      jump(tag_106)\n    tag_108:\n        /* \"#utility.yul\":496:502   */\n      dup4\n        /* \"#utility.yul\":493:494   */\n      dup2\n        /* \"#utility.yul\":490:503   */\n      gt\n        /* \"#utility.yul\":487:588   */\n      iszero\n      tag_109\n      jumpi\n        /* \"#utility.yul\":576:577   */\n      0x00\n        /* \"#utility.yul\":567:573   */\n      dup5\n        /* \"#utility.yul\":562:565   */\n      dup5\n        /* \"#utility.yul\":558:574   */\n      add\n        /* \"#utility.yul\":551:578   */\n      mstore\n        /* \"#utility.yul\":487:588   */\n    tag_109:\n        /* \"#utility.yul\":336:594   */\n      pop\n        /* \"#utility.yul\":287:594   */\n      pop\n      pop\n      pop\n      jump\t// out\n        /* \"#utility.yul\":600:702   */\n    tag_72:\n        /* \"#utility.yul\":641:647   */\n      0x00\n        /* \"#utility.yul\":692:694   */\n      0x1f\n        /* \"#utility.yul\":688:695   */\n      not\n        /* \"#utility.yul\":683:685   */\n      0x1f\n        /* \"#utility.yul\":676:681   */\n      dup4\n        /* \"#utility.yul\":672:686   */\n      add\n        /* \"#utility.yul\":668:696   */\n      and\n        /* \"#utility.yul\":658:696   */\n      swap1\n      pop\n        /* \"#utility.yul\":600:702   */\n      swap2\n      swap1\n      pop\n      jump\t// out\n        /* \"#utility.yul\":708:1072   */\n    tag_73:\n        /* \"#utility.yul\":796:799   */\n      0x00\n        /* \"#utility.yul\":824:863   */\n      tag_112\n        /* \"#utility.yul\":857:862   */\n      dup3\n        /* \"#utility.yul\":824:863   */\n      tag_69\n      jump\t// in\n    tag_112:\n        /* \"#utility.yul\":879:950   */\n      tag_113\n        /* \"#utility.yul\":943:949   */\n      dup2\n        /* \"#utility.yul\":938:941   */\n      dup6\n        /* \"#utility.yul\":879:950   */\n      tag_70\n      jump\t// in\n    tag_113:\n        /* \"#utility.yul\":872:950   */\n      swap4\n      pop\n        /* \"#utility.yul\":959:1011   */\n      tag_114\n        /* \"#utility.yul\":1004:1010   */\n      dup2\n        /* \"#utility.yul\":999:1002   */\n      dup6\n        /* \"#utility.yul\":992:996   */\n      0x20\n        /* \"#utility.yul\":985:990   */\n      dup7\n        /* \"#utility.yul\":981:997   */\n      add\n        /* \"#utility.yul\":959:1011   */\n      tag_71\n      jump\t// in\n    tag_114:\n        /* \"#utility.yul\":1036:1065   */\n      tag_115\n        /* \"#utility.yul\":1058:1064   */\n      dup2\n        /* \"#utility.yul\":1036:1065   */\n      tag_72\n      jump\t// in\n    tag_115:\n        /* \"#utility.yul\":1031:1034   */\n      dup5\n        /* \"#utility.yul\":1027:1066   */\n      add\n        /* \"#utility.yul\":1020:1066   */\n      swap2\n      pop\n        /* \"#utility.yul\":800:1072   */\n      pop\n        /* \"#utility.yul\":708:1072   */\n      swap3\n      swap2\n      pop\n      pop\n      jump\t// out\n        /* \"#utility.yul\":1078:1391   */\n    tag_15:\n        /* \"#utility.yul\":1191:1195   */\n      0x00\n        /* \"#utility.yul\":1229:1231   */\n      0x20\n        /* \"#utility.yul\":1218:1227   */\n      dup3\n        /* \"#utility.yul\":1214:1232   */\n      add\n        /* \"#utility.yul\":1206:1232   */\n      swap1\n      pop\n        /* \"#utility.yul\":1278:1287   */\n      dup2\n        /* \"#utility.yul\":1272:1276   */\n      dup2\n        /* \"#utility.yul\":1268:1288   */\n      sub\n        /* \"#utility.yul\":1264:1265   */\n      0x00\n        /* \"#utility.yul\":1253:1262   */\n      dup4\n        /* \"#utility.yul\":1249:1266   */\n      add\n        /* \"#utility.yul\":1242:1289   */\n      mstore\n        /* \"#utility.yul\":1306:1384   */\n      tag_117\n        /* \"#utility.yul\":1379:1383   */\n      dup2\n        /* \"#utility.yul\":1370:1376   */\n      dup5\n        /* \"#utility.yul\":1306:1384   */\n      tag_73\n      jump\t// in\n    tag_117:\n        /* \"#utility.yul\":1298:1384   */\n      swap1\n      pop\n        /* \"#utility.yul\":1078:1391   */\n      swap3\n      swap2\n      pop\n      pop\n      jump\t// out\n        /* \"#utility.yul\":1397:1472   */\n    tag_74:\n        /* \"#utility.yul\":1430:1436   */\n      0x00\n        /* \"#utility.yul\":1463:1465   */\n      0x40\n        /* \"#utility.yul\":1457:1466   */\n      mload\n        /* \"#utility.yul\":1447:1466   */\n      swap1\n      pop\n        /* \"#utility.yul\":1397:1472   */\n      swap1\n      jump\t// out\n        /* \"#utility.yul\":1478:1595   */\n    tag_75:\n        /* \"#utility.yul\":1587:1588   */\n      0x00\n        /* \"#utility.yul\":1584:1585   */\n      dup1\n        /* \"#utility.yul\":1577:1589   */\n      revert\n        /* \"#utility.yul\":1601:1718   */\n    tag_76:\n        /* \"#utility.yul\":1710:1711   */\n      0x00\n        /* \"#utility.yul\":1707:1708   */\n      dup1\n        /* \"#utility.yul\":1700:1712   */\n      revert\n        /* \"#utility.yul\":1724:1841   */\n    tag_77:\n        /* \"#utility.yul\":1833:1834   */\n      0x00\n        /* \"#utility.yul\":1830:1831   */\n      dup1\n        /* \"#utility.yul\":1823:1835   */\n      revert\n        /* \"#utility.yul\":1847:2027   */\n    tag_78:\n        /* \"#utility.yul\":1895:1972   */\n      0x4e487b7100000000000000000000000000000000000000000000000000000000\n        /* \"#utility.yul\":1892:1893   */\n      0x00\n        /* \"#utility.yul\":1885:1973   */\n      mstore\n        /* \"#utility.yul\":1992:1996   */\n      0x41\n        /* \"#utility.yul\":1989:1990   */\n      0x04\n        /* \"#utility.yul\":1982:1997   */\n      mstore\n        /* \"#utility.yul\":2016:2020   */\n      0x24\n        /* \"#utility.yul\":2013:2014   */\n      0x00\n        /* \"#utility.yul\":2006:2021   */\n      revert\n        /* \"#utility.yul\":2033:2314   */\n    tag_79:\n        /* \"#utility.yul\":2116:2143   */\n      tag_124\n        /* \"#utility.yul\":2138:2142   */\n      dup3\n        /* \"#utility.yul\":2116:2143   */\n      tag_72\n      jump\t// in\n    tag_124:\n        /* \"#utility.yul\":2108:2114   */\n      dup2\n        /* \"#utility.yul\":2104:2144   */\n      add\n        /* \"#utility.yul\":2246:2252   */\n      dup2\n        /* \"#utility.yul\":2234:2244   */\n      dup2\n        /* \"#utility.yul\":2231:2253   */\n      lt\n        /* \"#utility.yul\":2210:2228   */\n      0xffffffffffffffff\n        /* \"#utility.yul\":2198:2208   */\n      dup3\n        /* \"#utility.yul\":2195:2229   */\n      gt\n        /* \"#utility.yul\":2192:2254   */\n      or\n        /* \"#utility.yul\":2189:2277   */\n      iszero\n      tag_125\n      jumpi\n        /* \"#utility.yul\":2257:2275   */\n      tag_126\n      tag_78\n      jump\t// in\n    tag_126:\n        /* \"#utility.yul\":2189:2277   */\n    tag_125:\n        /* \"#utility.yul\":2297:2307   */\n      dup1\n        /* \"#utility.yul\":2293:2295   */\n      0x40\n        /* \"#utility.yul\":2286:2308   */\n      mstore\n        /* \"#utility.yul\":2076:2314   */\n      pop\n        /* \"#utility.yul\":2033:2314   */\n      pop\n      pop\n      jump\t// out\n        /* \"#utility.yul\":2320:2449   */\n    tag_80:\n        /* \"#utility.yul\":2354:2360   */\n      0x00\n        /* \"#utility.yul\":2381:2401   */\n      tag_128\n      tag_74\n      jump\t// in\n    tag_128:\n        /* \"#utility.yul\":2371:2401   */\n      swap1\n      pop\n        /* \"#utility.yul\":2410:2443   */\n      tag_129\n        /* \"#utility.yul\":2438:2442   */\n      dup3\n        /* \"#utility.yul\":2430:2436   */\n      dup3\n        /* \"#utility.yul\":2410:2443   */\n      tag_79\n      jump\t// in\n    tag_129:\n        /* \"#utility.yul\":2320:2449   */\n      swap2\n      swap1\n      pop\n      jump\t// out\n        /* \"#utility.yul\":2455:2766   */\n    tag_81:\n        /* \"#utility.yul\":2532:2536   */\n      0x00\n        /* \"#utility.yul\":2622:2640   */\n      0xffffffffffffffff\n        /* \"#utility.yul\":2614:2620   */\n      dup3\n        /* \"#utility.yul\":2611:2641   */\n      gt\n        /* \"#utility.yul\":2608:2664   */\n      iszero\n      tag_131\n      jumpi\n        /* \"#utility.yul\":2644:2662   */\n      tag_132\n      tag_78\n      jump\t// in\n    tag_132:\n        /* \"#utility.yul\":2608:2664   */\n    tag_131:\n        /* \"#utility.yul\":2694:2698   */\n      0x20\n        /* \"#utility.yul\":2686:2692   */\n      dup3\n        /* \"#utility.yul\":2682:2699   */\n      mul\n        /* \"#utility.yul\":2674:2699   */\n      swap1\n      pop\n        /* \"#utility.yul\":2754:2758   */\n      0x20\n        /* \"#utility.yul\":2748:2752   */\n      dup2\n        /* \"#utility.yul\":2744:2759   */\n      add\n        /* \"#utility.yul\":2736:2759   */\n      swap1\n      pop\n        /* \"#utility.yul\":2455:2766   */\n      swap2\n      swap1\n      pop\n      jump\t// out\n        /* \"#utility.yul\":2772:2889   */\n    tag_82:\n        /* \"#utility.yul\":2881:2882   */\n      0x00\n        /* \"#utility.yul\":2878:2879   */\n      dup1\n        /* \"#utility.yul\":2871:2883   */\n      revert\n        /* \"#utility.yul\":2895:3021   */\n    tag_83:\n        /* \"#utility.yul\":2932:2939   */\n      0x00\n        /* \"#utility.yul\":2972:3014   */\n      0xffffffffffffffffffffffffffffffffffffffff\n        /* \"#utility.yul\":2965:2970   */\n      dup3\n        /* \"#utility.yul\":2961:3015   */\n      and\n        /* \"#utility.yul\":2950:3015   */\n      swap1\n      pop\n        /* \"#utility.yul\":2895:3021   */\n      swap2\n      swap1\n      pop\n      jump\t// out\n        /* \"#utility.yul\":3027:3123   */\n    tag_84:\n        /* \"#utility.yul\":3064:3071   */\n      0x00\n        /* \"#utility.yul\":3093:3117   */\n      tag_136\n        /* \"#utility.yul\":3111:3116   */\n      dup3\n        /* \"#utility.yul\":3093:3117   */\n      tag_83\n      jump\t// in\n    tag_136:\n        /* \"#utility.yul\":3082:3117   */\n      swap1\n      pop\n        /* \"#utility.yul\":3027:3123   */\n      swap2\n      swap1\n      pop\n      jump\t// out\n        /* \"#utility.yul\":3129:3251   */\n    tag_85:\n        /* \"#utility.yul\":3202:3226   */\n      tag_138\n        /* \"#utility.yul\":3220:3225   */\n      dup2\n        /* \"#utility.yul\":3202:3226   */\n      tag_84\n      jump\t// in\n    tag_138:\n        /* \"#utility.yul\":3195:3200   */\n      dup2\n        /* \"#utility.yul\":3192:3227   */\n      eq\n        /* \"#utility.yul\":3182:3245   */\n      tag_139\n      jumpi\n        /* \"#utility.yul\":3241:3242   */\n      0x00\n        /* \"#utility.yul\":3238:3239   */\n      dup1\n        /* \"#utility.yul\":3231:3243   */\n      revert\n        /* \"#utility.yul\":3182:3245   */\n    tag_139:\n        /* \"#utility.yul\":3129:3251   */\n      pop\n      jump\t// out\n        /* \"#utility.yul\":3257:3396   */\n    tag_86:\n        /* \"#utility.yul\":3303:3308   */\n      0x00\n        /* \"#utility.yul\":3341:3347   */\n      dup2\n        /* \"#utility.yul\":3328:3348   */\n      calldataload\n        /* \"#utility.yul\":3319:3348   */\n      swap1\n      pop\n        /* \"#utility.yul\":3357:3390   */\n      tag_141\n        /* \"#utility.yul\":3384:3389   */\n      dup2\n        /* \"#utility.yul\":3357:3390   */\n      tag_85\n      jump\t// in\n    tag_141:\n        /* \"#utility.yul\":3257:3396   */\n      swap3\n      swap2\n      pop\n      pop\n      jump\t// out\n        /* \"#utility.yul\":3419:4129   */\n    tag_87:\n        /* \"#utility.yul\":3515:3520   */\n      0x00\n        /* \"#utility.yul\":3540:3621   */\n      tag_143\n        /* \"#utility.yul\":3556:3620   */\n      tag_144\n        /* \"#utility.yul\":3613:3619   */\n      dup5\n        /* \"#utility.yul\":3556:3620   */\n      tag_81\n      jump\t// in\n    tag_144:\n        /* \"#utility.yul\":3540:3621   */\n      tag_80\n      jump\t// in\n    tag_143:\n        /* \"#utility.yul\":3531:3621   */\n      swap1\n      pop\n        /* \"#utility.yul\":3641:3646   */\n      dup1\n        /* \"#utility.yul\":3670:3676   */\n      dup4\n        /* \"#utility.yul\":3663:3668   */\n      dup3\n        /* \"#utility.yul\":3656:3677   */\n      mstore\n        /* \"#utility.yul\":3704:3708   */\n      0x20\n        /* \"#utility.yul\":3697:3702   */\n      dup3\n        /* \"#utility.yul\":3693:3709   */\n      add\n        /* \"#utility.yul\":3686:3709   */\n      swap1\n      pop\n        /* \"#utility.yul\":3757:3761   */\n      0x20\n        /* \"#utility.yul\":3749:3755   */\n      dup5\n        /* \"#utility.yul\":3745:3762   */\n      mul\n        /* \"#utility.yul\":3737:3743   */\n      dup4\n        /* \"#utility.yul\":3733:3763   */\n      add\n        /* \"#utility.yul\":3786:3789   */\n      dup6\n        /* \"#utility.yul\":3778:3784   */\n      dup2\n        /* \"#utility.yul\":3775:3790   */\n      gt\n        /* \"#utility.yul\":3772:3894   */\n      iszero\n      tag_145\n      jumpi\n        /* \"#utility.yul\":3805:3884   */\n      tag_146\n      tag_82\n      jump\t// in\n    tag_146:\n        /* \"#utility.yul\":3772:3894   */\n    tag_145:\n        /* \"#utility.yul\":3920:3926   */\n      dup4\n        /* \"#utility.yul\":3903:4123   */\n    tag_147:\n        /* \"#utility.yul\":3937:3943   */\n      dup2\n        /* \"#utility.yul\":3932:3935   */\n      dup2\n        /* \"#utility.yul\":3929:3944   */\n      lt\n        /* \"#utility.yul\":3903:4123   */\n      iszero\n      tag_149\n      jumpi\n        /* \"#utility.yul\":4012:4015   */\n      dup1\n        /* \"#utility.yul\":4041:4078   */\n      tag_150\n        /* \"#utility.yul\":4074:4077   */\n      dup9\n        /* \"#utility.yul\":4062:4072   */\n      dup3\n        /* \"#utility.yul\":4041:4078   */\n      tag_86\n      jump\t// in\n    tag_150:\n        /* \"#utility.yul\":4036:4039   */\n      dup5\n        /* \"#utility.yul\":4029:4079   */\n      mstore\n        /* \"#utility.yul\":4108:4112   */\n      0x20\n        /* \"#utility.yul\":4103:4106   */\n      dup5\n        /* \"#utility.yul\":4099:4113   */\n      add\n        /* \"#utility.yul\":4092:4113   */\n      swap4\n      pop\n        /* \"#utility.yul\":3979:4123   */\n      pop\n        /* \"#utility.yul\":3963:3967   */\n      0x20\n        /* \"#utility.yul\":3958:3961   */\n      dup2\n        /* \"#utility.yul\":3954:3968   */\n      add\n        /* \"#utility.yul\":3947:3968   */\n      swap1\n      pop\n        /* \"#utility.yul\":3903:4123   */\n      jump(tag_147)\n    tag_149:\n        /* \"#utility.yul\":3907:3928   */\n      pop\n        /* \"#utility.yul\":3521:4129   */\n      pop\n      pop\n        /* \"#utility.yul\":3419:4129   */\n      swap4\n      swap3\n      pop\n      pop\n      pop\n      jump\t// out\n        /* \"#utility.yul\":4152:4522   */\n    tag_88:\n        /* \"#utility.yul\":4223:4228   */\n      0x00\n        /* \"#utility.yul\":4272:4275   */\n      dup3\n        /* \"#utility.yul\":4265:4269   */\n      0x1f\n        /* \"#utility.yul\":4257:4263   */\n      dup4\n        /* \"#utility.yul\":4253:4270   */\n      add\n        /* \"#utility.yul\":4249:4276   */\n      slt\n        /* \"#utility.yul\":4239:4361   */\n      tag_152\n      jumpi\n        /* \"#utility.yul\":4280:4359   */\n      tag_153\n      tag_77\n      jump\t// in\n    tag_153:\n        /* \"#utility.yul\":4239:4361   */\n    tag_152:\n        /* \"#utility.yul\":4397:4403   */\n      dup2\n        /* \"#utility.yul\":4384:4404   */\n      calldataload\n        /* \"#utility.yul\":4422:4516   */\n      tag_154\n        /* \"#utility.yul\":4512:4515   */\n      dup5\n        /* \"#utility.yul\":4504:4510   */\n      dup3\n        /* \"#utility.yul\":4497:4501   */\n      0x20\n        /* \"#utility.yul\":4489:4495   */\n      dup7\n        /* \"#utility.yul\":4485:4502   */\n      add\n        /* \"#utility.yul\":4422:4516   */\n      tag_87\n      jump\t// in\n    tag_154:\n        /* \"#utility.yul\":4413:4516   */\n      swap2\n      pop\n        /* \"#utility.yul\":4229:4522   */\n      pop\n        /* \"#utility.yul\":4152:4522   */\n      swap3\n      swap2\n      pop\n      pop\n      jump\t// out\n        /* \"#utility.yul\":4528:4605   */\n    tag_89:\n        /* \"#utility.yul\":4565:4572   */\n      0x00\n        /* \"#utility.yul\":4594:4599   */\n      dup2\n        /* \"#utility.yul\":4583:4599   */\n      swap1\n      pop\n        /* \"#utility.yul\":4528:4605   */\n      swap2\n      swap1\n      pop\n      jump\t// out\n        /* \"#utility.yul\":4611:4733   */\n    tag_90:\n        /* \"#utility.yul\":4684:4708   */\n      tag_157\n        /* \"#utility.yul\":4702:4707   */\n      dup2\n        /* \"#utility.yul\":4684:4708   */\n      tag_89\n      jump\t// in\n    tag_157:\n        /* \"#utility.yul\":4677:4682   */\n      dup2\n        /* \"#utility.yul\":4674:4709   */\n      eq\n        /* \"#utility.yul\":4664:4727   */\n      tag_158\n      jumpi\n        /* \"#utility.yul\":4723:4724   */\n      0x00\n        /* \"#utility.yul\":4720:4721   */\n      dup1\n        /* \"#utility.yul\":4713:4725   */\n      revert\n        /* \"#utility.yul\":4664:4727   */\n    tag_158:\n        /* \"#utility.yul\":4611:4733   */\n      pop\n      jump\t// out\n        /* \"#utility.yul\":4739:4878   */\n    tag_91:\n        /* \"#utility.yul\":4785:4790   */\n      0x00\n        /* \"#utility.yul\":4823:4829   */\n      dup2\n        /* \"#utility.yul\":4810:4830   */\n      calldataload\n        /* \"#utility.yul\":4801:4830   */\n      swap1\n      pop\n        /* \"#utility.yul\":4839:4872   */\n      tag_160\n        /* \"#utility.yul\":4866:4871   */\n      dup2\n        /* \"#utility.yul\":4839:4872   */\n      tag_90\n      jump\t// in\n    tag_160:\n        /* \"#utility.yul\":4739:4878   */\n      swap3\n      swap2\n      pop\n      pop\n      jump\t// out\n        /* \"#utility.yul\":4884:5568   */\n    tag_21:\n        /* \"#utility.yul\":4977:4983   */\n      0x00\n        /* \"#utility.yul\":4985:4991   */\n      dup1\n        /* \"#utility.yul\":5034:5036   */\n      0x40\n        /* \"#utility.yul\":5022:5031   */\n      dup4\n        /* \"#utility.yul\":5013:5020   */\n      dup6\n        /* \"#utility.yul\":5009:5032   */\n      sub\n        /* \"#utility.yul\":5005:5037   */\n      slt\n        /* \"#utility.yul\":5002:5121   */\n      iszero\n      tag_162\n      jumpi\n        /* \"#utility.yul\":5040:5119   */\n      tag_163\n      tag_75\n      jump\t// in\n    tag_163:\n        /* \"#utility.yul\":5002:5121   */\n    tag_162:\n        /* \"#utility.yul\":5188:5189   */\n      0x00\n        /* \"#utility.yul\":5177:5186   */\n      dup4\n        /* \"#utility.yul\":5173:5190   */\n      add\n        /* \"#utility.yul\":5160:5191   */\n      calldataload\n        /* \"#utility.yul\":5218:5236   */\n      0xffffffffffffffff\n        /* \"#utility.yul\":5210:5216   */\n      dup2\n        /* \"#utility.yul\":5207:5237   */\n      gt\n        /* \"#utility.yul\":5204:5321   */\n      iszero\n      tag_164\n      jumpi\n        /* \"#utility.yul\":5240:5319   */\n      tag_165\n      tag_76\n      jump\t// in\n    tag_165:\n        /* \"#utility.yul\":5204:5321   */\n    tag_164:\n        /* \"#utility.yul\":5345:5423   */\n      tag_166\n        /* \"#utility.yul\":5415:5422   */\n      dup6\n        /* \"#utility.yul\":5406:5412   */\n      dup3\n        /* \"#utility.yul\":5395:5404   */\n      dup7\n        /* \"#utility.yul\":5391:5413   */\n      add\n        /* \"#utility.yul\":5345:5423   */\n      tag_88\n      jump\t// in\n    tag_166:\n        /* \"#utility.yul\":5335:5423   */\n      swap3\n      pop\n        /* \"#utility.yul\":5131:5433   */\n      pop\n        /* \"#utility.yul\":5472:5474   */\n      0x20\n        /* \"#utility.yul\":5498:5551   */\n      tag_167\n        /* \"#utility.yul\":5543:5550   */\n      dup6\n        /* \"#utility.yul\":5534:5540   */\n      dup3\n        /* \"#utility.yul\":5523:5532   */\n      dup7\n        /* \"#utility.yul\":5519:5541   */\n      add\n        /* \"#utility.yul\":5498:5551   */\n      tag_91\n      jump\t// in\n    tag_167:\n        /* \"#utility.yul\":5488:5551   */\n      swap2\n      pop\n        /* \"#utility.yul\":5443:5561   */\n      pop\n        /* \"#utility.yul\":4884:5568   */\n      swap3\n      pop\n      swap3\n      swap1\n      pop\n      jump\t// out\n        /* \"#utility.yul\":5574:5664   */\n    tag_92:\n        /* \"#utility.yul\":5608:5615   */\n      0x00\n        /* \"#utility.yul\":5651:5656   */\n      dup2\n        /* \"#utility.yul\":5644:5657   */\n      iszero\n        /* \"#utility.yul\":5637:5658   */\n      iszero\n        /* \"#utility.yul\":5626:5658   */\n      swap1\n      pop\n        /* \"#utility.yul\":5574:5664   */\n      swap2\n      swap1\n      pop\n      jump\t// out\n        /* \"#utility.yul\":5670:5779   */\n    tag_93:\n        /* \"#utility.yul\":5751:5772   */\n      tag_170\n        /* \"#utility.yul\":5766:5771   */\n      dup2\n        /* \"#utility.yul\":5751:5772   */\n      tag_92\n      jump\t// in\n    tag_170:\n        /* \"#utility.yul\":5746:5749   */\n      dup3\n        /* \"#utility.yul\":5739:5773   */\n      mstore\n        /* \"#utility.yul\":5670:5779   */\n      pop\n      pop\n      jump\t// out\n        /* \"#utility.yul\":5785:5995   */\n    tag_24:\n        /* \"#utility.yul\":5872:5876   */\n      0x00\n        /* \"#utility.yul\":5910:5912   */\n      0x20\n        /* \"#utility.yul\":5899:5908   */\n      dup3\n        /* \"#utility.yul\":5895:5913   */\n      add\n        /* \"#utility.yul\":5887:5913   */\n      swap1\n      pop\n        /* \"#utility.yul\":5923:5988   */\n      tag_172\n        /* \"#utility.yul\":5985:5986   */\n      0x00\n        /* \"#utility.yul\":5974:5983   */\n      dup4\n        /* \"#utility.yul\":5970:5987   */\n      add\n        /* \"#utility.yul\":5961:5967   */\n      dup5\n        /* \"#utility.yul\":5923:5988   */\n      tag_93\n      jump\t// in\n    tag_172:\n        /* \"#utility.yul\":5785:5995   */\n      swap3\n      swap2\n      pop\n      pop\n      jump\t// out\n        /* \"#utility.yul\":6001:6119   */\n    tag_94:\n        /* \"#utility.yul\":6088:6112   */\n      tag_174\n        /* \"#utility.yul\":6106:6111   */\n      dup2\n        /* \"#utility.yul\":6088:6112   */\n      tag_84\n      jump\t// in\n    tag_174:\n        /* \"#utility.yul\":6083:6086   */\n      dup3\n        /* \"#utility.yul\":6076:6113   */\n      mstore\n        /* \"#utility.yul\":6001:6119   */\n      pop\n      pop\n      jump\t// out\n        /* \"#utility.yul\":6125:6347   */\n    tag_28:\n        /* \"#utility.yul\":6218:6222   */\n      0x00\n        /* \"#utility.yul\":6256:6258   */\n      0x20\n        /* \"#utility.yul\":6245:6254   */\n      dup3\n        /* \"#utility.yul\":6241:6259   */\n      add\n        /* \"#utility.yul\":6233:6259   */\n      swap1\n      pop\n        /* \"#utility.yul\":6269:6340   */\n      tag_176\n        /* \"#utility.yul\":6337:6338   */\n      0x00\n        /* \"#utility.yul\":6326:6335   */\n      dup4\n        /* \"#utility.yul\":6322:6339   */\n      add\n        /* \"#utility.yul\":6313:6319   */\n      dup5\n        /* \"#utility.yul\":6269:6340   */\n      tag_94\n      jump\t// in\n    tag_176:\n        /* \"#utility.yul\":6125:6347   */\n      swap3\n      swap2\n      pop\n      pop\n      jump\t// out\n        /* \"#utility.yul\":6353:6470   */\n    tag_95:\n        /* \"#utility.yul\":6462:6463   */\n      0x00\n        /* \"#utility.yul\":6459:6460   */\n      dup1\n        /* \"#utility.yul\":6452:6464   */\n      revert\n        /* \"#utility.yul\":6476:6784   */\n    tag_96:\n        /* \"#utility.yul\":6538:6542   */\n      0x00\n        /* \"#utility.yul\":6628:6646   */\n      0xffffffffffffffff\n        /* \"#utility.yul\":6620:6626   */\n      dup3\n        /* \"#utility.yul\":6617:6647   */\n      gt\n        /* \"#utility.yul\":6614:6670   */\n      iszero\n      tag_179\n      jumpi\n        /* \"#utility.yul\":6650:6668   */\n      tag_180\n      tag_78\n      jump\t// in\n    tag_180:\n        /* \"#utility.yul\":6614:6670   */\n    tag_179:\n        /* \"#utility.yul\":6688:6717   */\n      tag_181\n        /* \"#utility.yul\":6710:6716   */\n      dup3\n        /* \"#utility.yul\":6688:6717   */\n      tag_72\n      jump\t// in\n    tag_181:\n        /* \"#utility.yul\":6680:6717   */\n      swap1\n      pop\n        /* \"#utility.yul\":6772:6776   */\n      0x20\n        /* \"#utility.yul\":6766:6770   */\n      dup2\n        /* \"#utility.yul\":6762:6777   */\n      add\n        /* \"#utility.yul\":6754:6777   */\n      swap1\n      pop\n        /* \"#utility.yul\":6476:6784   */\n      swap2\n      swap1\n      pop\n      jump\t// out\n        /* \"#utility.yul\":6790:7211   */\n    tag_97:\n        /* \"#utility.yul\":6879:6884   */\n      0x00\n        /* \"#utility.yul\":6904:6970   */\n      tag_183\n        /* \"#utility.yul\":6920:6969   */\n      tag_184\n        /* \"#utility.yul\":6962:6968   */\n      dup5\n        /* \"#utility.yul\":6920:6969   */\n      tag_96\n      jump\t// in\n    tag_184:\n        /* \"#utility.yul\":6904:6970   */\n      tag_80\n      jump\t// in\n    tag_183:\n        /* \"#utility.yul\":6895:6970   */\n      swap1\n      pop\n        /* \"#utility.yul\":6993:6999   */\n      dup3\n        /* \"#utility.yul\":6986:6991   */\n      dup2\n        /* \"#utility.yul\":6979:7000   */\n      mstore\n        /* \"#utility.yul\":7031:7035   */\n      0x20\n        /* \"#utility.yul\":7024:7029   */\n      dup2\n        /* \"#utility.yul\":7020:7036   */\n      add\n        /* \"#utility.yul\":7069:7072   */\n      dup5\n        /* \"#utility.yul\":7060:7066   */\n      dup5\n        /* \"#utility.yul\":7055:7058   */\n      dup5\n        /* \"#utility.yul\":7051:7067   */\n      add\n        /* \"#utility.yul\":7048:7073   */\n      gt\n        /* \"#utility.yul\":7045:7157   */\n      iszero\n      tag_185\n      jumpi\n        /* \"#utility.yul\":7076:7155   */\n      tag_186\n      tag_95\n      jump\t// in\n    tag_186:\n        /* \"#utility.yul\":7045:7157   */\n    tag_185:\n        /* \"#utility.yul\":7166:7205   */\n      tag_187\n        /* \"#utility.yul\":7198:7204   */\n      dup5\n        /* \"#utility.yul\":7193:7196   */\n      dup3\n        /* \"#utility.yul\":7188:7191   */\n      dup6\n        /* \"#utility.yul\":7166:7205   */\n      tag_71\n      jump\t// in\n    tag_187:\n        /* \"#utility.yul\":6885:7211   */\n      pop\n        /* \"#utility.yul\":6790:7211   */\n      swap4\n      swap3\n      pop\n      pop\n      pop\n      jump\t// out\n        /* \"#utility.yul\":7231:7586   */\n    tag_98:\n        /* \"#utility.yul\":7298:7303   */\n      0x00\n        /* \"#utility.yul\":7347:7350   */\n      dup3\n        /* \"#utility.yul\":7340:7344   */\n      0x1f\n        /* \"#utility.yul\":7332:7338   */\n      dup4\n        /* \"#utility.yul\":7328:7345   */\n      add\n        /* \"#utility.yul\":7324:7351   */\n      slt\n        /* \"#utility.yul\":7314:7436   */\n      tag_189\n      jumpi\n        /* \"#utility.yul\":7355:7434   */\n      tag_190\n      tag_77\n      jump\t// in\n    tag_190:\n        /* \"#utility.yul\":7314:7436   */\n    tag_189:\n        /* \"#utility.yul\":7465:7471   */\n      dup2\n        /* \"#utility.yul\":7459:7472   */\n      mload\n        /* \"#utility.yul\":7490:7580   */\n      tag_191\n        /* \"#utility.yul\":7576:7579   */\n      dup5\n        /* \"#utility.yul\":7568:7574   */\n      dup3\n        /* \"#utility.yul\":7561:7565   */\n      0x20\n        /* \"#utility.yul\":7553:7559   */\n      dup7\n        /* \"#utility.yul\":7549:7566   */\n      add\n        /* \"#utility.yul\":7490:7580   */\n      tag_97\n      jump\t// in\n    tag_191:\n        /* \"#utility.yul\":7481:7580   */\n      swap2\n      pop\n        /* \"#utility.yul\":7304:7586   */\n      pop\n        /* \"#utility.yul\":7231:7586   */\n      swap3\n      swap2\n      pop\n      pop\n      jump\t// out\n        /* \"#utility.yul\":7592:8116   */\n    tag_45:\n        /* \"#utility.yul\":7672:7678   */\n      0x00\n        /* \"#utility.yul\":7721:7723   */\n      0x20\n        /* \"#utility.yul\":7709:7718   */\n      dup3\n        /* \"#utility.yul\":7700:7707   */\n      dup5\n        /* \"#utility.yul\":7696:7719   */\n      sub\n        /* \"#utility.yul\":7692:7724   */\n      slt\n        /* \"#utility.yul\":7689:7808   */\n      iszero\n      tag_193\n      jumpi\n        /* \"#utility.yul\":7727:7806   */\n      tag_194\n      tag_75\n      jump\t// in\n    tag_194:\n        /* \"#utility.yul\":7689:7808   */\n    tag_193:\n        /* \"#utility.yul\":7868:7869   */\n      0x00\n        /* \"#utility.yul\":7857:7866   */\n      dup3\n        /* \"#utility.yul\":7853:7870   */\n      add\n        /* \"#utility.yul\":7847:7871   */\n      mload\n        /* \"#utility.yul\":7898:7916   */\n      0xffffffffffffffff\n        /* \"#utility.yul\":7890:7896   */\n      dup2\n        /* \"#utility.yul\":7887:7917   */\n      gt\n        /* \"#utility.yul\":7884:8001   */\n      iszero\n      tag_195\n      jumpi\n        /* \"#utility.yul\":7920:7999   */\n      tag_196\n      tag_76\n      jump\t// in\n    tag_196:\n        /* \"#utility.yul\":7884:8001   */\n    tag_195:\n        /* \"#utility.yul\":8025:8099   */\n      tag_197\n        /* \"#utility.yul\":8091:8098   */\n      dup5\n        /* \"#utility.yul\":8082:8088   */\n      dup3\n        /* \"#utility.yul\":8071:8080   */\n      dup6\n        /* \"#utility.yul\":8067:8089   */\n      add\n        /* \"#utility.yul\":8025:8099   */\n      tag_98\n      jump\t// in\n    tag_197:\n        /* \"#utility.yul\":8015:8099   */\n      swap2\n      pop\n        /* \"#utility.yul\":7818:8109   */\n      pop\n        /* \"#utility.yul\":7592:8116   */\n      swap3\n      swap2\n      pop\n      pop\n      jump\t// out\n        /* \"#utility.yul\":8122:8240   */\n    tag_99:\n        /* \"#utility.yul\":8209:8233   */\n      tag_199\n        /* \"#utility.yul\":8227:8232   */\n      dup2\n        /* \"#utility.yul\":8209:8233   */\n      tag_89\n      jump\t// in\n    tag_199:\n        /* \"#utility.yul\":8204:8207   */\n      dup3\n        /* \"#utility.yul\":8197:8234   */\n      mstore\n        /* \"#utility.yul\":8122:8240   */\n      pop\n      pop\n      jump\t// out\n        /* \"#utility.yul\":8246:8578   */\n    tag_52:\n        /* \"#utility.yul\":8367:8371   */\n      0x00\n        /* \"#utility.yul\":8405:8407   */\n      0x40\n        /* \"#utility.yul\":8394:8403   */\n      dup3\n        /* \"#utility.yul\":8390:8408   */\n      add\n        /* \"#utility.yul\":8382:8408   */\n      swap1\n      pop\n        /* \"#utility.yul\":8418:8489   */\n      tag_201\n        /* \"#utility.yul\":8486:8487   */\n      0x00\n        /* \"#utility.yul\":8475:8484   */\n      dup4\n        /* \"#utility.yul\":8471:8488   */\n      add\n        /* \"#utility.yul\":8462:8468   */\n      dup6\n        /* \"#utility.yul\":8418:8489   */\n      tag_94\n      jump\t// in\n    tag_201:\n        /* \"#utility.yul\":8499:8571   */\n      tag_202\n        /* \"#utility.yul\":8567:8569   */\n      0x20\n        /* \"#utility.yul\":8556:8565   */\n      dup4\n        /* \"#utility.yul\":8552:8570   */\n      add\n        /* \"#utility.yul\":8543:8549   */\n      dup5\n        /* \"#utility.yul\":8499:8571   */\n      tag_99\n      jump\t// in\n    tag_202:\n        /* \"#utility.yul\":8246:8578   */\n      swap4\n      swap3\n      pop\n      pop\n      pop\n      jump\t// out\n        /* \"#utility.yul\":8584:8700   */\n    tag_100:\n        /* \"#utility.yul\":8654:8675   */\n      tag_204\n        /* \"#utility.yul\":8669:8674   */\n      dup2\n        /* \"#utility.yul\":8654:8675   */\n      tag_92\n      jump\t// in\n    tag_204:\n        /* \"#utility.yul\":8647:8652   */\n      dup2\n        /* \"#utility.yul\":8644:8676   */\n      eq\n        /* \"#utility.yul\":8634:8694   */\n      tag_205\n      jumpi\n        /* \"#utility.yul\":8690:8691   */\n      0x00\n        /* \"#utility.yul\":8687:8688   */\n      dup1\n        /* \"#utility.yul\":8680:8692   */\n      revert\n        /* \"#utility.yul\":8634:8694   */\n    tag_205:\n        /* \"#utility.yul\":8584:8700   */\n      pop\n      jump\t// out\n        /* \"#utility.yul\":8706:8843   */\n    tag_101:\n        /* \"#utility.yul\":8760:8765   */\n      0x00\n        /* \"#utility.yul\":8791:8797   */\n      dup2\n        /* \"#utility.yul\":8785:8798   */\n      mload\n        /* \"#utility.yul\":8776:8798   */\n      swap1\n      pop\n        /* \"#utility.yul\":8807:8837   */\n      tag_207\n        /* \"#utility.yul\":8831:8836   */\n      dup2\n        /* \"#utility.yul\":8807:8837   */\n      tag_100\n      jump\t// in\n    tag_207:\n        /* \"#utility.yul\":8706:8843   */\n      swap3\n      swap2\n      pop\n      pop\n      jump\t// out\n        /* \"#utility.yul\":8849:9194   */\n    tag_56:\n        /* \"#utility.yul\":8916:8922   */\n      0x00\n        /* \"#utility.yul\":8965:8967   */\n      0x20\n        /* \"#utility.yul\":8953:8962   */\n      dup3\n        /* \"#utility.yul\":8944:8951   */\n      dup5\n        /* \"#utility.yul\":8940:8963   */\n      sub\n        /* \"#utility.yul\":8936:8968   */\n      slt\n        /* \"#utility.yul\":8933:9052   */\n      iszero\n      tag_209\n      jumpi\n        /* \"#utility.yul\":8971:9050   */\n      tag_210\n      tag_75\n      jump\t// in\n    tag_210:\n        /* \"#utility.yul\":8933:9052   */\n    tag_209:\n        /* \"#utility.yul\":9091:9092   */\n      0x00\n        /* \"#utility.yul\":9116:9177   */\n      tag_211\n        /* \"#utility.yul\":9169:9176   */\n      dup5\n        /* \"#utility.yul\":9160:9166   */\n      dup3\n        /* \"#utility.yul\":9149:9158   */\n      dup6\n        /* \"#utility.yul\":9145:9167   */\n      add\n        /* \"#utility.yul\":9116:9177   */\n      tag_101\n      jump\t// in\n    tag_211:\n        /* \"#utility.yul\":9106:9177   */\n      swap2\n      pop\n        /* \"#utility.yul\":9062:9187   */\n      pop\n        /* \"#utility.yul\":8849:9194   */\n      swap3\n      swap2\n      pop\n      pop\n      jump\t// out\n\n    auxdata: 0xa2646970667358221220911d51942c67b9e9e94e6bb9a3b668ffa6809b51954aeaec79a17709e26e280964736f6c634300080f0033\n}\n",
				"bytecode": {
					"linkReferences": {},
					"object": "60806040527355d398326f99059ff775485246999027b3197955600160006101000a81548173ffffffffffffffffffffffffffffffffffffffff021916908373ffffffffffffffffffffffffffffffffffffffff16021790555073bb4cdb9cbd36b01bd1cbaebf2de08d9173bc095c600260006101000a81548173ffffffffffffffffffffffffffffffffffffffff021916908373ffffffffffffffffffffffffffffffffffffffff160217905550731d2f0da169ceb9fc7b3144628db156f3f6c60dbe600360006101000a81548173ffffffffffffffffffffffffffffffffffffffff021916908373ffffffffffffffffffffffffffffffffffffffff16021790555034801561010f57600080fd5b50336000806101000a81548173ffffffffffffffffffffffffffffffffffffffff021916908373ffffffffffffffffffffffffffffffffffffffff160217905550610b8b8061015f6000396000f3fe608060405234801561001057600080fd5b50600436106100885760003560e01c80638de38f981161005b5780638de38f98146101175780639347e6d714610135578063e5a554bc14610153578063eabe09ad1461017157610088565b80632f97fe5a1461008d578063374ec742146100ab5780633c046960146100c95780638da5cb5b146100f9575b600080fd5b61009561018f565b6040516100a29190610707565b60405180910390f35b6100b3610232565b6040516100c09190610707565b60405180910390f35b6100e360048036038101906100de9190610919565b6102d5565b6040516100f09190610990565b60405180910390f35b610101610535565b60405161010e91906109ba565b60405180910390f35b61011f610559565b60405161012c91906109ba565b60405180910390f35b61013d61057f565b60405161014a91906109ba565b60405180910390f35b61015b6105a5565b6040516101689190610707565b60405180910390f35b610179610648565b60405161018691906109ba565b60405180910390f35b60606000600360009054906101000a900473ffffffffffffffffffffffffffffffffffffffff1690508073ffffffffffffffffffffffffffffffffffffffff166395d89b416040518163ffffffff1660e01b8152600401600060405180830381865afa158015610203573d6000803e3d6000fd5b505050506040513d6000823e3d601f19601f8201168201806040525081019061022c9190610a7b565b91505090565b60606000600160009054906101000a900473ffffffffffffffffffffffffffffffffffffffff1690508073ffffffffffffffffffffffffffffffffffffffff166395d89b416040518163ffffffff1660e01b8152600401600060405180830381865afa1580156102a6573d6000803e3d6000fd5b505050506040513d6000823e3d601f19601f820116820180604052508101906102cf9190610a7b565b91505090565b600080600160009054906101000a900473ffffffffffffffffffffffffffffffffffffffff1690506000600260009054906101000a900473ffffffffffffffffffffffffffffffffffffffff1690506000600360009054906101000a900473ffffffffffffffffffffffffffffffffffffffff1690508273ffffffffffffffffffffffffffffffffffffffff1663095ea7b360008054906101000a900473ffffffffffffffffffffffffffffffffffffffff16876040518363ffffffff1660e01b81526004016103a6929190610ad3565b6020604051808303816000875af11580156103c5573d6000803e3d6000fd5b505050506040513d601f19601f820116820180604052508101906103e99190610b28565b508173ffffffffffffffffffffffffffffffffffffffff1663095ea7b360008054906101000a900473ffffffffffffffffffffffffffffffffffffffff16876040518363ffffffff1660e01b8152600401610445929190610ad3565b6020604051808303816000875af1158015610464573d6000803e3d6000fd5b505050506040513d601f19601f820116820180604052508101906104889190610b28565b508073ffffffffffffffffffffffffffffffffffffffff1663095ea7b360008054906101000a900473ffffffffffffffffffffffffffffffffffffffff16876040518363ffffffff1660e01b81526004016104e4929190610ad3565b6020604051808303816000875af1158015610503573d6000803e3d6000fd5b505050506040513d601f19601f820116820180604052508101906105279190610b28565b506001935050505092915050565b60008054906101000a900473ffffffffffffffffffffffffffffffffffffffff1681565b600260009054906101000a900473ffffffffffffffffffffffffffffffffffffffff1681565b600360009054906101000a900473ffffffffffffffffffffffffffffffffffffffff1681565b60606000600260009054906101000a900473ffffffffffffffffffffffffffffffffffffffff1690508073ffffffffffffffffffffffffffffffffffffffff166395d89b416040518163ffffffff1660e01b8152600401600060405180830381865afa158015610619573d6000803e3d6000fd5b505050506040513d6000823e3d601f19601f820116820180604052508101906106429190610a7b565b91505090565b600160009054906101000a900473ffffffffffffffffffffffffffffffffffffffff1681565b600081519050919050565b600082825260208201905092915050565b60005b838110156106a857808201518184015260208101905061068d565b838111156106b7576000848401525b50505050565b6000601f19601f8301169050919050565b60006106d98261066e565b6106e38185610679565b93506106f381856020860161068a565b6106fc816106bd565b840191505092915050565b6000602082019050818103600083015261072181846106ce565b905092915050565b6000604051905090565b600080fd5b600080fd5b600080fd5b7f4e487b7100000000000000000000000000000000000000000000000000000000600052604160045260246000fd5b61077a826106bd565b810181811067ffffffffffffffff8211171561079957610798610742565b5b80604052505050565b60006107ac610729565b90506107b88282610771565b919050565b600067ffffffffffffffff8211156107d8576107d7610742565b5b602082029050602081019050919050565b600080fd5b600073ffffffffffffffffffffffffffffffffffffffff82169050919050565b6000610819826107ee565b9050919050565b6108298161080e565b811461083457600080fd5b50565b60008135905061084681610820565b92915050565b600061085f61085a846107bd565b6107a2565b90508083825260208201905060208402830185811115610882576108816107e9565b5b835b818110156108ab57806108978882610837565b845260208401935050602081019050610884565b5050509392505050565b600082601f8301126108ca576108c961073d565b5b81356108da84826020860161084c565b91505092915050565b6000819050919050565b6108f6816108e3565b811461090157600080fd5b50565b600081359050610913816108ed565b92915050565b600080604083850312156109305761092f610733565b5b600083013567ffffffffffffffff81111561094e5761094d610738565b5b61095a858286016108b5565b925050602061096b85828601610904565b9150509250929050565b60008115159050919050565b61098a81610975565b82525050565b60006020820190506109a56000830184610981565b92915050565b6109b48161080e565b82525050565b60006020820190506109cf60008301846109ab565b92915050565b600080fd5b600067ffffffffffffffff8211156109f5576109f4610742565b5b6109fe826106bd565b9050602081019050919050565b6000610a1e610a19846109da565b6107a2565b905082815260208101848484011115610a3a57610a396109d5565b5b610a4584828561068a565b509392505050565b600082601f830112610a6257610a6161073d565b5b8151610a72848260208601610a0b565b91505092915050565b600060208284031215610a9157610a90610733565b5b600082015167ffffffffffffffff811115610aaf57610aae610738565b5b610abb84828501610a4d565b91505092915050565b610acd816108e3565b82525050565b6000604082019050610ae860008301856109ab565b610af56020830184610ac4565b9392505050565b610b0581610975565b8114610b1057600080fd5b50565b600081519050610b2281610afc565b92915050565b600060208284031215610b3e57610b3d610733565b5b6000610b4c84828501610b13565b9150509291505056fea2646970667358221220911d51942c67b9e9e94e6bb9a3b668ffa6809b51954aeaec79a17709e26e280964736f6c634300080f0033",
					"opcodes": "PUSH1 0x80 PUSH1 0x40 MSTORE PUSH20 0x55D398326F99059FF775485246999027B3197955 PUSH1 0x1 PUSH1 0x0 PUSH2 0x100 EXP DUP2 SLOAD DUP2 PUSH20 0xFFFFFFFFFFFFFFFFFFFFFFFFFFFFFFFFFFFFFFFF MUL NOT AND SWAP1 DUP4 PUSH20 0xFFFFFFFFFFFFFFFFFFFFFFFFFFFFFFFFFFFFFFFF AND MUL OR SWAP1 SSTORE POP PUSH20 0xBB4CDB9CBD36B01BD1CBAEBF2DE08D9173BC095C PUSH1 0x2 PUSH1 0x0 PUSH2 0x100 EXP DUP2 SLOAD DUP2 PUSH20 0xFFFFFFFFFFFFFFFFFFFFFFFFFFFFFFFFFFFFFFFF MUL NOT AND SWAP1 DUP4 PUSH20 0xFFFFFFFFFFFFFFFFFFFFFFFFFFFFFFFFFFFFFFFF AND MUL OR SWAP1 SSTORE POP PUSH20 0x1D2F0DA169CEB9FC7B3144628DB156F3F6C60DBE PUSH1 0x3 PUSH1 0x0 PUSH2 0x100 EXP DUP2 SLOAD DUP2 PUSH20 0xFFFFFFFFFFFFFFFFFFFFFFFFFFFFFFFFFFFFFFFF MUL NOT AND SWAP1 DUP4 PUSH20 0xFFFFFFFFFFFFFFFFFFFFFFFFFFFFFFFFFFFFFFFF AND MUL OR SWAP1 SSTORE POP CALLVALUE DUP1 ISZERO PUSH2 0x10F JUMPI PUSH1 0x0 DUP1 REVERT JUMPDEST POP CALLER PUSH1 0x0 DUP1 PUSH2 0x100 EXP DUP2 SLOAD DUP2 PUSH20 0xFFFFFFFFFFFFFFFFFFFFFFFFFFFFFFFFFFFFFFFF MUL NOT AND SWAP1 DUP4 PUSH20 0xFFFFFFFFFFFFFFFFFFFFFFFFFFFFFFFFFFFFFFFF AND MUL OR SWAP1 SSTORE POP PUSH2 0xB8B DUP1 PUSH2 0x15F PUSH1 0x0 CODECOPY PUSH1 0x0 RETURN INVALID PUSH1 0x80 PUSH1 0x40 MSTORE CALLVALUE DUP1 ISZERO PUSH2 0x10 JUMPI PUSH1 0x0 DUP1 REVERT JUMPDEST POP PUSH1 0x4 CALLDATASIZE LT PUSH2 0x88 JUMPI PUSH1 0x0 CALLDATALOAD PUSH1 0xE0 SHR DUP1 PUSH4 0x8DE38F98 GT PUSH2 0x5B JUMPI DUP1 PUSH4 0x8DE38F98 EQ PUSH2 0x117 JUMPI DUP1 PUSH4 0x9347E6D7 EQ PUSH2 0x135 JUMPI DUP1 PUSH4 0xE5A554BC EQ PUSH2 0x153 JUMPI DUP1 PUSH4 0xEABE09AD EQ PUSH2 0x171 JUMPI PUSH2 0x88 JUMP JUMPDEST DUP1 PUSH4 0x2F97FE5A EQ PUSH2 0x8D JUMPI DUP1 PUSH4 0x374EC742 EQ PUSH2 0xAB JUMPI DUP1 PUSH4 0x3C046960 EQ PUSH2 0xC9 JUMPI DUP1 PUSH4 0x8DA5CB5B EQ PUSH2 0xF9 JUMPI JUMPDEST PUSH1 0x0 DUP1 REVERT JUMPDEST PUSH2 0x95 PUSH2 0x18F JUMP JUMPDEST PUSH1 0x40 MLOAD PUSH2 0xA2 SWAP2 SWAP1 PUSH2 0x707 JUMP JUMPDEST PUSH1 0x40 MLOAD DUP1 SWAP2 SUB SWAP1 RETURN JUMPDEST PUSH2 0xB3 PUSH2 0x232 JUMP JUMPDEST PUSH1 0x40 MLOAD PUSH2 0xC0 SWAP2 SWAP1 PUSH2 0x707 JUMP JUMPDEST PUSH1 0x40 MLOAD DUP1 SWAP2 SUB SWAP1 RETURN JUMPDEST PUSH2 0xE3 PUSH1 0x4 DUP1 CALLDATASIZE SUB DUP2 ADD SWAP1 PUSH2 0xDE SWAP2 SWAP1 PUSH2 0x919 JUMP JUMPDEST PUSH2 0x2D5 JUMP JUMPDEST PUSH1 0x40 MLOAD PUSH2 0xF0 SWAP2 SWAP1 PUSH2 0x990 JUMP JUMPDEST PUSH1 0x40 MLOAD DUP1 SWAP2 SUB SWAP1 RETURN JUMPDEST PUSH2 0x101 PUSH2 0x535 JUMP JUMPDEST PUSH1 0x40 MLOAD PUSH2 0x10E SWAP2 SWAP1 PUSH2 0x9BA JUMP JUMPDEST PUSH1 0x40 MLOAD DUP1 SWAP2 SUB SWAP1 RETURN JUMPDEST PUSH2 0x11F PUSH2 0x559 JUMP JUMPDEST PUSH1 0x40 MLOAD PUSH2 0x12C SWAP2 SWAP1 PUSH2 0x9BA JUMP JUMPDEST PUSH1 0x40 MLOAD DUP1 SWAP2 SUB SWAP1 RETURN JUMPDEST PUSH2 0x13D PUSH2 0x57F JUMP JUMPDEST PUSH1 0x40 MLOAD PUSH2 0x14A SWAP2 SWAP1 PUSH2 0x9BA JUMP JUMPDEST PUSH1 0x40 MLOAD DUP1 SWAP2 SUB SWAP1 RETURN JUMPDEST PUSH2 0x15B PUSH2 0x5A5 JUMP JUMPDEST PUSH1 0x40 MLOAD PUSH2 0x168 SWAP2 SWAP1 PUSH2 0x707 JUMP JUMPDEST PUSH1 0x40 MLOAD DUP1 SWAP2 SUB SWAP1 RETURN JUMPDEST PUSH2 0x179 PUSH2 0x648 JUMP JUMPDEST PUSH1 0x40 MLOAD PUSH2 0x186 SWAP2 SWAP1 PUSH2 0x9BA JUMP JUMPDEST PUSH1 0x40 MLOAD DUP1 SWAP2 SUB SWAP1 RETURN JUMPDEST PUSH1 0x60 PUSH1 0x0 PUSH1 0x3 PUSH1 0x0 SWAP1 SLOAD SWAP1 PUSH2 0x100 EXP SWAP1 DIV PUSH20 0xFFFFFFFFFFFFFFFFFFFFFFFFFFFFFFFFFFFFFFFF AND SWAP1 POP DUP1 PUSH20 0xFFFFFFFFFFFFFFFFFFFFFFFFFFFFFFFFFFFFFFFF AND PUSH4 0x95D89B41 PUSH1 0x40 MLOAD DUP2 PUSH4 0xFFFFFFFF AND PUSH1 0xE0 SHL DUP2 MSTORE PUSH1 0x4 ADD PUSH1 0x0 PUSH1 0x40 MLOAD DUP1 DUP4 SUB DUP2 DUP7 GAS STATICCALL ISZERO DUP1 ISZERO PUSH2 0x203 JUMPI RETURNDATASIZE PUSH1 0x0 DUP1 RETURNDATACOPY RETURNDATASIZE PUSH1 0x0 REVERT JUMPDEST POP POP POP POP PUSH1 0x40 MLOAD RETURNDATASIZE PUSH1 0x0 DUP3 RETURNDATACOPY RETURNDATASIZE PUSH1 0x1F NOT PUSH1 0x1F DUP3 ADD AND DUP3 ADD DUP1 PUSH1 0x40 MSTORE POP DUP2 ADD SWAP1 PUSH2 0x22C SWAP2 SWAP1 PUSH2 0xA7B JUMP JUMPDEST SWAP2 POP POP SWAP1 JUMP JUMPDEST PUSH1 0x60 PUSH1 0x0 PUSH1 0x1 PUSH1 0x0 SWAP1 SLOAD SWAP1 PUSH2 0x100 EXP SWAP1 DIV PUSH20 0xFFFFFFFFFFFFFFFFFFFFFFFFFFFFFFFFFFFFFFFF AND SWAP1 POP DUP1 PUSH20 0xFFFFFFFFFFFFFFFFFFFFFFFFFFFFFFFFFFFFFFFF AND PUSH4 0x95D89B41 PUSH1 0x40 MLOAD DUP2 PUSH4 0xFFFFFFFF AND PUSH1 0xE0 SHL DUP2 MSTORE PUSH1 0x4 ADD PUSH1 0x0 PUSH1 0x40 MLOAD DUP1 DUP4 SUB DUP2 DUP7 GAS STATICCALL ISZERO DUP1 ISZERO PUSH2 0x2A6 JUMPI RETURNDATASIZE PUSH1 0x0 DUP1 RETURNDATACOPY RETURNDATASIZE PUSH1 0x0 REVERT JUMPDEST POP POP POP POP PUSH1 0x40 MLOAD RETURNDATASIZE PUSH1 0x0 DUP3 RETURNDATACOPY RETURNDATASIZE PUSH1 0x1F NOT PUSH1 0x1F DUP3 ADD AND DUP3 ADD DUP1 PUSH1 0x40 MSTORE POP DUP2 ADD SWAP1 PUSH2 0x2CF SWAP2 SWAP1 PUSH2 0xA7B JUMP JUMPDEST SWAP2 POP POP SWAP1 JUMP JUMPDEST PUSH1 0x0 DUP1 PUSH1 0x1 PUSH1 0x0 SWAP1 SLOAD SWAP1 PUSH2 0x100 EXP SWAP1 DIV PUSH20 0xFFFFFFFFFFFFFFFFFFFFFFFFFFFFFFFFFFFFFFFF AND SWAP1 POP PUSH1 0x0 PUSH1 0x2 PUSH1 0x0 SWAP1 SLOAD SWAP1 PUSH2 0x100 EXP SWAP1 DIV PUSH20 0xFFFFFFFFFFFFFFFFFFFFFFFFFFFFFFFFFFFFFFFF AND SWAP1 POP PUSH1 0x0 PUSH1 0x3 PUSH1 0x0 SWAP1 SLOAD SWAP1 PUSH2 0x100 EXP SWAP1 DIV PUSH20 0xFFFFFFFFFFFFFFFFFFFFFFFFFFFFFFFFFFFFFFFF AND SWAP1 POP DUP3 PUSH20 0xFFFFFFFFFFFFFFFFFFFFFFFFFFFFFFFFFFFFFFFF AND PUSH4 0x95EA7B3 PUSH1 0x0 DUP1 SLOAD SWAP1 PUSH2 0x100 EXP SWAP1 DIV PUSH20 0xFFFFFFFFFFFFFFFFFFFFFFFFFFFFFFFFFFFFFFFF AND DUP8 PUSH1 0x40 MLOAD DUP4 PUSH4 0xFFFFFFFF AND PUSH1 0xE0 SHL DUP2 MSTORE PUSH1 0x4 ADD PUSH2 0x3A6 SWAP3 SWAP2 SWAP1 PUSH2 0xAD3 JUMP JUMPDEST PUSH1 0x20 PUSH1 0x40 MLOAD DUP1 DUP4 SUB DUP2 PUSH1 0x0 DUP8 GAS CALL ISZERO DUP1 ISZERO PUSH2 0x3C5 JUMPI RETURNDATASIZE PUSH1 0x0 DUP1 RETURNDATACOPY RETURNDATASIZE PUSH1 0x0 REVERT JUMPDEST POP POP POP POP PUSH1 0x40 MLOAD RETURNDATASIZE PUSH1 0x1F NOT PUSH1 0x1F DUP3 ADD AND DUP3 ADD DUP1 PUSH1 0x40 MSTORE POP DUP2 ADD SWAP1 PUSH2 0x3E9 SWAP2 SWAP1 PUSH2 0xB28 JUMP JUMPDEST POP DUP2 PUSH20 0xFFFFFFFFFFFFFFFFFFFFFFFFFFFFFFFFFFFFFFFF AND PUSH4 0x95EA7B3 PUSH1 0x0 DUP1 SLOAD SWAP1 PUSH2 0x100 EXP SWAP1 DIV PUSH20 0xFFFFFFFFFFFFFFFFFFFFFFFFFFFFFFFFFFFFFFFF AND DUP8 PUSH1 0x40 MLOAD DUP4 PUSH4 0xFFFFFFFF AND PUSH1 0xE0 SHL DUP2 MSTORE PUSH1 0x4 ADD PUSH2 0x445 SWAP3 SWAP2 SWAP1 PUSH2 0xAD3 JUMP JUMPDEST PUSH1 0x20 PUSH1 0x40 MLOAD DUP1 DUP4 SUB DUP2 PUSH1 0x0 DUP8 GAS CALL ISZERO DUP1 ISZERO PUSH2 0x464 JUMPI RETURNDATASIZE PUSH1 0x0 DUP1 RETURNDATACOPY RETURNDATASIZE PUSH1 0x0 REVERT JUMPDEST POP POP POP POP PUSH1 0x40 MLOAD RETURNDATASIZE PUSH1 0x1F NOT PUSH1 0x1F DUP3 ADD AND DUP3 ADD DUP1 PUSH1 0x40 MSTORE POP DUP2 ADD SWAP1 PUSH2 0x488 SWAP2 SWAP1 PUSH2 0xB28 JUMP JUMPDEST POP DUP1 PUSH20 0xFFFFFFFFFFFFFFFFFFFFFFFFFFFFFFFFFFFFFFFF AND PUSH4 0x95EA7B3 PUSH1 0x0 DUP1 SLOAD SWAP1 PUSH2 0x100 EXP SWAP1 DIV PUSH20 0xFFFFFFFFFFFFFFFFFFFFFFFFFFFFFFFFFFFFFFFF AND DUP8 PUSH1 0x40 MLOAD DUP4 PUSH4 0xFFFFFFFF AND PUSH1 0xE0 SHL DUP2 MSTORE PUSH1 0x4 ADD PUSH2 0x4E4 SWAP3 SWAP2 SWAP1 PUSH2 0xAD3 JUMP JUMPDEST PUSH1 0x20 PUSH1 0x40 MLOAD DUP1 DUP4 SUB DUP2 PUSH1 0x0 DUP8 GAS CALL ISZERO DUP1 ISZERO PUSH2 0x503 JUMPI RETURNDATASIZE PUSH1 0x0 DUP1 RETURNDATACOPY RETURNDATASIZE PUSH1 0x0 REVERT JUMPDEST POP POP POP POP PUSH1 0x40 MLOAD RETURNDATASIZE PUSH1 0x1F NOT PUSH1 0x1F DUP3 ADD AND DUP3 ADD DUP1 PUSH1 0x40 MSTORE POP DUP2 ADD SWAP1 PUSH2 0x527 SWAP2 SWAP1 PUSH2 0xB28 JUMP JUMPDEST POP PUSH1 0x1 SWAP4 POP POP POP POP SWAP3 SWAP2 POP POP JUMP JUMPDEST PUSH1 0x0 DUP1 SLOAD SWAP1 PUSH2 0x100 EXP SWAP1 DIV PUSH20 0xFFFFFFFFFFFFFFFFFFFFFFFFFFFFFFFFFFFFFFFF AND DUP2 JUMP JUMPDEST PUSH1 0x2 PUSH1 0x0 SWAP1 SLOAD SWAP1 PUSH2 0x100 EXP SWAP1 DIV PUSH20 0xFFFFFFFFFFFFFFFFFFFFFFFFFFFFFFFFFFFFFFFF AND DUP2 JUMP JUMPDEST PUSH1 0x3 PUSH1 0x0 SWAP1 SLOAD SWAP1 PUSH2 0x100 EXP SWAP1 DIV PUSH20 0xFFFFFFFFFFFFFFFFFFFFFFFFFFFFFFFFFFFFFFFF AND DUP2 JUMP JUMPDEST PUSH1 0x60 PUSH1 0x0 PUSH1 0x2 PUSH1 0x0 SWAP1 SLOAD SWAP1 PUSH2 0x100 EXP SWAP1 DIV PUSH20 0xFFFFFFFFFFFFFFFFFFFFFFFFFFFFFFFFFFFFFFFF AND SWAP1 POP DUP1 PUSH20 0xFFFFFFFFFFFFFFFFFFFFFFFFFFFFFFFFFFFFFFFF AND PUSH4 0x95D89B41 PUSH1 0x40 MLOAD DUP2 PUSH4 0xFFFFFFFF AND PUSH1 0xE0 SHL DUP2 MSTORE PUSH1 0x4 ADD PUSH1 0x0 PUSH1 0x40 MLOAD DUP1 DUP4 SUB DUP2 DUP7 GAS STATICCALL ISZERO DUP1 ISZERO PUSH2 0x619 JUMPI RETURNDATASIZE PUSH1 0x0 DUP1 RETURNDATACOPY RETURNDATASIZE PUSH1 0x0 REVERT JUMPDEST POP POP POP POP PUSH1 0x40 MLOAD RETURNDATASIZE PUSH1 0x0 DUP3 RETURNDATACOPY RETURNDATASIZE PUSH1 0x1F NOT PUSH1 0x1F DUP3 ADD AND DUP3 ADD DUP1 PUSH1 0x40 MSTORE POP DUP2 ADD SWAP1 PUSH2 0x642 SWAP2 SWAP1 PUSH2 0xA7B JUMP JUMPDEST SWAP2 POP POP SWAP1 JUMP JUMPDEST PUSH1 0x1 PUSH1 0x0 SWAP1 SLOAD SWAP1 PUSH2 0x100 EXP SWAP1 DIV PUSH20 0xFFFFFFFFFFFFFFFFFFFFFFFFFFFFFFFFFFFFFFFF AND DUP2 JUMP JUMPDEST PUSH1 0x0 DUP2 MLOAD SWAP1 POP SWAP2 SWAP1 POP JUMP JUMPDEST PUSH1 0x0 DUP3 DUP3 MSTORE PUSH1 0x20 DUP3 ADD SWAP1 POP SWAP3 SWAP2 POP POP JUMP JUMPDEST PUSH1 0x0 JUMPDEST DUP4 DUP2 LT ISZERO PUSH2 0x6A8 JUMPI DUP1 DUP3 ADD MLOAD DUP2 DUP5 ADD MSTORE PUSH1 0x20 DUP2 ADD SWAP1 POP PUSH2 0x68D JUMP JUMPDEST DUP4 DUP2 GT ISZERO PUSH2 0x6B7 JUMPI PUSH1 0x0 DUP5 DUP5 ADD MSTORE JUMPDEST POP POP POP POP JUMP JUMPDEST PUSH1 0x0 PUSH1 0x1F NOT PUSH1 0x1F DUP4 ADD AND SWAP1 POP SWAP2 SWAP1 POP JUMP JUMPDEST PUSH1 0x0 PUSH2 0x6D9 DUP3 PUSH2 0x66E JUMP JUMPDEST PUSH2 0x6E3 DUP2 DUP6 PUSH2 0x679 JUMP JUMPDEST SWAP4 POP PUSH2 0x6F3 DUP2 DUP6 PUSH1 0x20 DUP7 ADD PUSH2 0x68A JUMP JUMPDEST PUSH2 0x6FC DUP2 PUSH2 0x6BD JUMP JUMPDEST DUP5 ADD SWAP2 POP POP SWAP3 SWAP2 POP POP JUMP JUMPDEST PUSH1 0x0 PUSH1 0x20 DUP3 ADD SWAP1 POP DUP2 DUP2 SUB PUSH1 0x0 DUP4 ADD MSTORE PUSH2 0x721 DUP2 DUP5 PUSH2 0x6CE JUMP JUMPDEST SWAP1 POP SWAP3 SWAP2 POP POP JUMP JUMPDEST PUSH1 0x0 PUSH1 0x40 MLOAD SWAP1 POP SWAP1 JUMP JUMPDEST PUSH1 0x0 DUP1 REVERT JUMPDEST PUSH1 0x0 DUP1 REVERT JUMPDEST PUSH1 0x0 DUP1 REVERT JUMPDEST PUSH32 0x4E487B7100000000000000000000000000000000000000000000000000000000 PUSH1 0x0 MSTORE PUSH1 0x41 PUSH1 0x4 MSTORE PUSH1 0x24 PUSH1 0x0 REVERT JUMPDEST PUSH2 0x77A DUP3 PUSH2 0x6BD JUMP JUMPDEST DUP2 ADD DUP2 DUP2 LT PUSH8 0xFFFFFFFFFFFFFFFF DUP3 GT OR ISZERO PUSH2 0x799 JUMPI PUSH2 0x798 PUSH2 0x742 JUMP JUMPDEST JUMPDEST DUP1 PUSH1 0x40 MSTORE POP POP POP JUMP JUMPDEST PUSH1 0x0 PUSH2 0x7AC PUSH2 0x729 JUMP JUMPDEST SWAP1 POP PUSH2 0x7B8 DUP3 DUP3 PUSH2 0x771 JUMP JUMPDEST SWAP2 SWAP1 POP JUMP JUMPDEST PUSH1 0x0 PUSH8 0xFFFFFFFFFFFFFFFF DUP3 GT ISZERO PUSH2 0x7D8 JUMPI PUSH2 0x7D7 PUSH2 0x742 JUMP JUMPDEST JUMPDEST PUSH1 0x20 DUP3 MUL SWAP1 POP PUSH1 0x20 DUP2 ADD SWAP1 POP SWAP2 SWAP1 POP JUMP JUMPDEST PUSH1 0x0 DUP1 REVERT JUMPDEST PUSH1 0x0 PUSH20 0xFFFFFFFFFFFFFFFFFFFFFFFFFFFFFFFFFFFFFFFF DUP3 AND SWAP1 POP SWAP2 SWAP1 POP JUMP JUMPDEST PUSH1 0x0 PUSH2 0x819 DUP3 PUSH2 0x7EE JUMP JUMPDEST SWAP1 POP SWAP2 SWAP1 POP JUMP JUMPDEST PUSH2 0x829 DUP2 PUSH2 0x80E JUMP JUMPDEST DUP2 EQ PUSH2 0x834 JUMPI PUSH1 0x0 DUP1 REVERT JUMPDEST POP JUMP JUMPDEST PUSH1 0x0 DUP2 CALLDATALOAD SWAP1 POP PUSH2 0x846 DUP2 PUSH2 0x820 JUMP JUMPDEST SWAP3 SWAP2 POP POP JUMP JUMPDEST PUSH1 0x0 PUSH2 0x85F PUSH2 0x85A DUP5 PUSH2 0x7BD JUMP JUMPDEST PUSH2 0x7A2 JUMP JUMPDEST SWAP1 POP DUP1 DUP4 DUP3 MSTORE PUSH1 0x20 DUP3 ADD SWAP1 POP PUSH1 0x20 DUP5 MUL DUP4 ADD DUP6 DUP2 GT ISZERO PUSH2 0x882 JUMPI PUSH2 0x881 PUSH2 0x7E9 JUMP JUMPDEST JUMPDEST DUP4 JUMPDEST DUP2 DUP2 LT ISZERO PUSH2 0x8AB JUMPI DUP1 PUSH2 0x897 DUP9 DUP3 PUSH2 0x837 JUMP JUMPDEST DUP5 MSTORE PUSH1 0x20 DUP5 ADD SWAP4 POP POP PUSH1 0x20 DUP2 ADD SWAP1 POP PUSH2 0x884 JUMP JUMPDEST POP POP POP SWAP4 SWAP3 POP POP POP JUMP JUMPDEST PUSH1 0x0 DUP3 PUSH1 0x1F DUP4 ADD SLT PUSH2 0x8CA JUMPI PUSH2 0x8C9 PUSH2 0x73D JUMP JUMPDEST JUMPDEST DUP2 CALLDATALOAD PUSH2 0x8DA DUP5 DUP3 PUSH1 0x20 DUP7 ADD PUSH2 0x84C JUMP JUMPDEST SWAP2 POP POP SWAP3 SWAP2 POP POP JUMP JUMPDEST PUSH1 0x0 DUP2 SWAP1 POP SWAP2 SWAP1 POP JUMP JUMPDEST PUSH2 0x8F6 DUP2 PUSH2 0x8E3 JUMP JUMPDEST DUP2 EQ PUSH2 0x901 JUMPI PUSH1 0x0 DUP1 REVERT JUMPDEST POP JUMP JUMPDEST PUSH1 0x0 DUP2 CALLDATALOAD SWAP1 POP PUSH2 0x913 DUP2 PUSH2 0x8ED JUMP JUMPDEST SWAP3 SWAP2 POP POP JUMP JUMPDEST PUSH1 0x0 DUP1 PUSH1 0x40 DUP4 DUP6 SUB SLT ISZERO PUSH2 0x930 JUMPI PUSH2 0x92F PUSH2 0x733 JUMP JUMPDEST JUMPDEST PUSH1 0x0 DUP4 ADD CALLDATALOAD PUSH8 0xFFFFFFFFFFFFFFFF DUP2 GT ISZERO PUSH2 0x94E JUMPI PUSH2 0x94D PUSH2 0x738 JUMP JUMPDEST JUMPDEST PUSH2 0x95A DUP6 DUP3 DUP7 ADD PUSH2 0x8B5 JUMP JUMPDEST SWAP3 POP POP PUSH1 0x20 PUSH2 0x96B DUP6 DUP3 DUP7 ADD PUSH2 0x904 JUMP JUMPDEST SWAP2 POP POP SWAP3 POP SWAP3 SWAP1 POP JUMP JUMPDEST PUSH1 0x0 DUP2 ISZERO ISZERO SWAP1 POP SWAP2 SWAP1 POP JUMP JUMPDEST PUSH2 0x98A DUP2 PUSH2 0x975 JUMP JUMPDEST DUP3 MSTORE POP POP JUMP JUMPDEST PUSH1 0x0 PUSH1 0x20 DUP3 ADD SWAP1 POP PUSH2 0x9A5 PUSH1 0x0 DUP4 ADD DUP5 PUSH2 0x981 JUMP JUMPDEST SWAP3 SWAP2 POP POP JUMP JUMPDEST PUSH2 0x9B4 DUP2 PUSH2 0x80E JUMP JUMPDEST DUP3 MSTORE POP POP JUMP JUMPDEST PUSH1 0x0 PUSH1 0x20 DUP3 ADD SWAP1 POP PUSH2 0x9CF PUSH1 0x0 DUP4 ADD DUP5 PUSH2 0x9AB JUMP JUMPDEST SWAP3 SWAP2 POP POP JUMP JUMPDEST PUSH1 0x0 DUP1 REVERT JUMPDEST PUSH1 0x0 PUSH8 0xFFFFFFFFFFFFFFFF DUP3 GT ISZERO PUSH2 0x9F5 JUMPI PUSH2 0x9F4 PUSH2 0x742 JUMP JUMPDEST JUMPDEST PUSH2 0x9FE DUP3 PUSH2 0x6BD JUMP JUMPDEST SWAP1 POP PUSH1 0x20 DUP2 ADD SWAP1 POP SWAP2 SWAP1 POP JUMP JUMPDEST PUSH1 0x0 PUSH2 0xA1E PUSH2 0xA19 DUP5 PUSH2 0x9DA JUMP JUMPDEST PUSH2 0x7A2 JUMP JUMPDEST SWAP1 POP DUP3 DUP2 MSTORE PUSH1 0x20 DUP2 ADD DUP5 DUP5 DUP5 ADD GT ISZERO PUSH2 0xA3A JUMPI PUSH2 0xA39 PUSH2 0x9D5 JUMP JUMPDEST JUMPDEST PUSH2 0xA45 DUP5 DUP3 DUP6 PUSH2 0x68A JUMP JUMPDEST POP SWAP4 SWAP3 POP POP POP JUMP JUMPDEST PUSH1 0x0 DUP3 PUSH1 0x1F DUP4 ADD SLT PUSH2 0xA62 JUMPI PUSH2 0xA61 PUSH2 0x73D JUMP JUMPDEST JUMPDEST DUP2 MLOAD PUSH2 0xA72 DUP5 DUP3 PUSH1 0x20 DUP7 ADD PUSH2 0xA0B JUMP JUMPDEST SWAP2 POP POP SWAP3 SWAP2 POP POP JUMP JUMPDEST PUSH1 0x0 PUSH1 0x20 DUP3 DUP5 SUB SLT ISZERO PUSH2 0xA91 JUMPI PUSH2 0xA90 PUSH2 0x733 JUMP JUMPDEST JUMPDEST PUSH1 0x0 DUP3 ADD MLOAD PUSH8 0xFFFFFFFFFFFFFFFF DUP2 GT ISZERO PUSH2 0xAAF JUMPI PUSH2 0xAAE PUSH2 0x738 JUMP JUMPDEST JUMPDEST PUSH2 0xABB DUP5 DUP3 DUP6 ADD PUSH2 0xA4D JUMP JUMPDEST SWAP2 POP POP SWAP3 SWAP2 POP POP JUMP JUMPDEST PUSH2 0xACD DUP2 PUSH2 0x8E3 JUMP JUMPDEST DUP3 MSTORE POP POP JUMP JUMPDEST PUSH1 0x0 PUSH1 0x40 DUP3 ADD SWAP1 POP PUSH2 0xAE8 PUSH1 0x0 DUP4 ADD DUP6 PUSH2 0x9AB JUMP JUMPDEST PUSH2 0xAF5 PUSH1 0x20 DUP4 ADD DUP5 PUSH2 0xAC4 JUMP JUMPDEST SWAP4 SWAP3 POP POP POP JUMP JUMPDEST PUSH2 0xB05 DUP2 PUSH2 0x975 JUMP JUMPDEST DUP2 EQ PUSH2 0xB10 JUMPI PUSH1 0x0 DUP1 REVERT JUMPDEST POP JUMP JUMPDEST PUSH1 0x0 DUP2 MLOAD SWAP1 POP PUSH2 0xB22 DUP2 PUSH2 0xAFC JUMP JUMPDEST SWAP3 SWAP2 POP POP JUMP JUMPDEST PUSH1 0x0 PUSH1 0x20 DUP3 DUP5 SUB SLT ISZERO PUSH2 0xB3E JUMPI PUSH2 0xB3D PUSH2 0x733 JUMP JUMPDEST JUMPDEST PUSH1 0x0 PUSH2 0xB4C DUP5 DUP3 DUP6 ADD PUSH2 0xB13 JUMP JUMPDEST SWAP2 POP POP SWAP3 SWAP2 POP POP JUMP INVALID LOG2 PUSH5 0x6970667358 0x22 SLT KECCAK256 SWAP2 SAR MLOAD SWAP5 0x2C PUSH8 0xB9E9E94E6BB9A3B6 PUSH9 0xFFA6809B51954AEAEC PUSH26 0xA17709E26E280964736F6C634300080F00330000000000000000 "
				},
				"gasEstimates": {
					"creation": {
						"codeDepositCost": "591000",
						"executionCost": "97692",
						"totalCost": "688692"
					},
					"external": {
						"addr1()": "2580",
						"addr2()": "2514",
						"addr3()": "2536",
						"approve(address[],uint256)": "infinite",
						"getSymbolBusd()": "infinite",
						"getSymbolEth()": "infinite",
						"getSymbolUsdc()": "infinite",
						"owner()": "2578"
					}
				},
				"methodIdentifiers": {
					"addr1()": "eabe09ad",
					"addr2()": "8de38f98",
					"addr3()": "9347e6d7",
					"approve(address[],uint256)": "3c046960",
					"getSymbolBusd()": "374ec742",
					"getSymbolEth()": "2f97fe5a",
					"getSymbolUsdc()": "e5a554bc",
					"owner()": "8da5cb5b"
				}
			},
			"storageLayout": {
				"storage": [
					{
						"astId": 3,
						"contract": "contracts/Smart.sol:Smart",
						"label": "owner",
						"offset": 0,
						"slot": "0",
						"type": "t_address"
					},
					{
						"astId": 6,
						"contract": "contracts/Smart.sol:Smart",
						"label": "addr1",
						"offset": 0,
						"slot": "1",
						"type": "t_address"
					},
					{
						"astId": 9,
						"contract": "contracts/Smart.sol:Smart",
						"label": "addr2",
						"offset": 0,
						"slot": "2",
						"type": "t_address"
					},
					{
						"astId": 12,
						"contract": "contracts/Smart.sol:Smart",
						"label": "addr3",
						"offset": 0,
						"slot": "3",
						"type": "t_address"
					}
				],
				"types": {
					"t_address": {
						"encoding": "inplace",
						"label": "address",
						"numberOfBytes": "20"
					}
				}
			},
			"userdoc": {
				"kind": "user",
				"methods": {},
				"version": 1
			}
		}
	}
}