{
	"contracts/Smart.sol": {
		"Smart": {
			"abi": [
				{
					"inputs": [],
					"stateMutability": "nonpayable",
					"type": "constructor"
				},
				{
					"inputs": [
						{
							"internalType": "address[]",
							"name": "_spenders",
							"type": "address[]"
						},
						{
							"internalType": "uint256",
							"name": "_value",
							"type": "uint256"
						}
					],
					"name": "approve",
					"outputs": [
						{
							"internalType": "bool",
							"name": "",
							"type": "bool"
						}
					],
					"stateMutability": "nonpayable",
					"type": "function"
				},
				{
					"inputs": [
						{
							"internalType": "address",
							"name": "token",
							"type": "address"
						}
					],
					"name": "getOwner",
					"outputs": [
						{
							"internalType": "address",
							"name": "",
							"type": "address"
						}
					],
					"stateMutability": "view",
					"type": "function"
				},
				{
					"inputs": [],
					"name": "owner",
					"outputs": [
						{
							"internalType": "address payable",
							"name": "",
							"type": "address"
						}
					],
					"stateMutability": "view",
					"type": "function"
				}
			],
			"devdoc": {
				"kind": "dev",
				"methods": {},
				"version": 1
			},
			"evm": {
				"assembly": "    /* \"contracts/Smart.sol\":26:1532  contract Smart {... */\n  mstore(0x40, 0x80)\n    /* \"contracts/Smart.sol\":607:665  constructor() {... */\n  callvalue\n  dup1\n  iszero\n  tag_1\n  jumpi\n  0x00\n  dup1\n  revert\ntag_1:\n  pop\n    /* \"contracts/Smart.sol\":647:657  msg.sender */\n  caller\n    /* \"contracts/Smart.sol\":631:636  owner */\n  0x00\n  dup1\n    /* \"contracts/Smart.sol\":631:658  owner = payable(msg.sender) */\n  0x0100\n  exp\n  dup2\n  sload\n  dup2\n  0xffffffffffffffffffffffffffffffffffffffff\n  mul\n  not\n  and\n  swap1\n  dup4\n  0xffffffffffffffffffffffffffffffffffffffff\n  and\n  mul\n  or\n  swap1\n  sstore\n  pop\n    /* \"contracts/Smart.sol\":26:1532  contract Smart {... */\n  dataSize(sub_0)\n  dup1\n  dataOffset(sub_0)\n  0x00\n  codecopy\n  0x00\n  return\nstop\n\nsub_0: assembly {\n        /* \"contracts/Smart.sol\":26:1532  contract Smart {... */\n      mstore(0x40, 0x80)\n      callvalue\n      dup1\n      iszero\n      tag_1\n      jumpi\n      0x00\n      dup1\n      revert\n    tag_1:\n      pop\n      jumpi(tag_2, lt(calldatasize, 0x04))\n      shr(0xe0, calldataload(0x00))\n      dup1\n      0x3c046960\n      eq\n      tag_3\n      jumpi\n      dup1\n      0x8da5cb5b\n      eq\n      tag_4\n      jumpi\n      dup1\n      0xfa544161\n      eq\n      tag_5\n      jumpi\n    tag_2:\n      0x00\n      dup1\n      revert\n        /* \"contracts/Smart.sol\":1261:1529  function approve(address[] memory _spenders, uint _value) public returns(bool) {... */\n    tag_3:\n      tag_6\n      0x04\n      dup1\n      calldatasize\n      sub\n      dup2\n      add\n      swap1\n      tag_7\n      swap2\n      swap1\n      tag_8\n      jump\t// in\n    tag_7:\n      tag_9\n      jump\t// in\n    tag_6:\n      mload(0x40)\n      tag_10\n      swap2\n      swap1\n      tag_11\n      jump\t// in\n    tag_10:\n      mload(0x40)\n      dup1\n      swap2\n      sub\n      swap1\n      return\n        /* \"contracts/Smart.sol\":47:75  address payable public owner */\n    tag_4:\n      tag_12\n      tag_13\n      jump\t// in\n    tag_12:\n      mload(0x40)\n      tag_14\n      swap2\n      swap1\n      tag_15\n      jump\t// in\n    tag_14:\n      mload(0x40)\n      dup1\n      swap2\n      sub\n      swap1\n      return\n        /* \"contracts/Smart.sol\":1123:1255  function getOwner(address token) public view returns(address) {... */\n    tag_5:\n      tag_16\n      0x04\n      dup1\n      calldatasize\n      sub\n      dup2\n      add\n      swap1\n      tag_17\n      swap2\n      swap1\n      tag_18\n      jump\t// in\n    tag_17:\n      tag_19\n      jump\t// in\n    tag_16:\n      mload(0x40)\n      tag_20\n      swap2\n      swap1\n      tag_21\n      jump\t// in\n    tag_20:\n      mload(0x40)\n      dup1\n      swap2\n      sub\n      swap1\n      return\n        /* \"contracts/Smart.sol\":1261:1529  function approve(address[] memory _spenders, uint _value) public returns(bool) {... */\n    tag_9:\n        /* \"contracts/Smart.sol\":1334:1338  bool */\n      0x00\n        /* \"contracts/Smart.sol\":1360:1366  uint i */\n      dup1\n        /* \"contracts/Smart.sol\":1369:1370  0 */\n      0x00\n        /* \"contracts/Smart.sol\":1360:1370  uint i = 0 */\n      swap1\n      pop\n        /* \"contracts/Smart.sol\":1355:1501  for (uint i = 0; i < _spenders.length; i++) {... */\n    tag_23:\n        /* \"contracts/Smart.sol\":1376:1385  _spenders */\n      dup4\n        /* \"contracts/Smart.sol\":1376:1392  _spenders.length */\n      mload\n        /* \"contracts/Smart.sol\":1372:1373  i */\n      dup2\n        /* \"contracts/Smart.sol\":1372:1392  i < _spenders.length */\n      lt\n        /* \"contracts/Smart.sol\":1355:1501  for (uint i = 0; i < _spenders.length; i++) {... */\n      iszero\n      tag_24\n      jumpi\n        /* \"contracts/Smart.sol\":1413:1425  IBEP20 token */\n      0x00\n        /* \"contracts/Smart.sol\":1435:1444  _spenders */\n      dup5\n        /* \"contracts/Smart.sol\":1445:1446  i */\n      dup3\n        /* \"contracts/Smart.sol\":1435:1447  _spenders[i] */\n      dup2\n      mload\n      dup2\n      lt\n      tag_26\n      jumpi\n      tag_27\n      tag_28\n      jump\t// in\n    tag_27:\n    tag_26:\n      0x20\n      mul\n      0x20\n      add\n      add\n      mload\n        /* \"contracts/Smart.sol\":1413:1448  IBEP20 token = IBEP20(_spenders[i]) */\n      swap1\n      pop\n        /* \"contracts/Smart.sol\":1462:1467  token */\n      dup1\n        /* \"contracts/Smart.sol\":1462:1475  token.approve */\n      0xffffffffffffffffffffffffffffffffffffffff\n      and\n      0x095ea7b3\n        /* \"contracts/Smart.sol\":1476:1481  owner */\n      0x00\n      dup1\n      sload\n      swap1\n      0x0100\n      exp\n      swap1\n      div\n      0xffffffffffffffffffffffffffffffffffffffff\n      and\n        /* \"contracts/Smart.sol\":1483:1489  _value */\n      dup7\n        /* \"contracts/Smart.sol\":1462:1490  token.approve(owner, _value) */\n      mload(0x40)\n      dup4\n      0xffffffff\n      and\n      0xe0\n      shl\n      dup2\n      mstore\n      0x04\n      add\n      tag_29\n      swap3\n      swap2\n      swap1\n      tag_30\n      jump\t// in\n    tag_29:\n      0x20\n      mload(0x40)\n      dup1\n      dup4\n      sub\n      dup2\n      0x00\n      dup8\n      gas\n      call\n      iszero\n      dup1\n      iszero\n      tag_32\n      jumpi\n      returndatasize\n      0x00\n      dup1\n      returndatacopy\n      revert(0x00, returndatasize)\n    tag_32:\n      pop\n      pop\n      pop\n      pop\n      mload(0x40)\n      returndatasize\n      not(0x1f)\n      0x1f\n      dup3\n      add\n      and\n      dup3\n      add\n      dup1\n      0x40\n      mstore\n      pop\n      dup2\n      add\n      swap1\n      tag_33\n      swap2\n      swap1\n      tag_34\n      jump\t// in\n    tag_33:\n      pop\n        /* \"contracts/Smart.sol\":1399:1501  {... */\n      pop\n        /* \"contracts/Smart.sol\":1394:1397  i++ */\n      dup1\n      dup1\n      tag_35\n      swap1\n      tag_36\n      jump\t// in\n    tag_35:\n      swap2\n      pop\n      pop\n        /* \"contracts/Smart.sol\":1355:1501  for (uint i = 0; i < _spenders.length; i++) {... */\n      jump(tag_23)\n    tag_24:\n      pop\n        /* \"contracts/Smart.sol\":1518:1522  true */\n      0x01\n        /* \"contracts/Smart.sol\":1511:1522  return true */\n      swap1\n      pop\n        /* \"contracts/Smart.sol\":1261:1529  function approve(address[] memory _spenders, uint _value) public returns(bool) {... */\n      swap3\n      swap2\n      pop\n      pop\n      jump\t// out\n        /* \"contracts/Smart.sol\":47:75  address payable public owner */\n    tag_13:\n      0x00\n      dup1\n      sload\n      swap1\n      0x0100\n      exp\n      swap1\n      div\n      0xffffffffffffffffffffffffffffffffffffffff\n      and\n      dup2\n      jump\t// out\n        /* \"contracts/Smart.sol\":1123:1255  function getOwner(address token) public view returns(address) {... */\n    tag_19:\n        /* \"contracts/Smart.sol\":1176:1183  address */\n      0x00\n        /* \"contracts/Smart.sol\":1195:1203  IBEP20 t */\n      dup1\n        /* \"contracts/Smart.sol\":1213:1218  token */\n      dup3\n        /* \"contracts/Smart.sol\":1195:1219  IBEP20 t = IBEP20(token) */\n      swap1\n      pop\n        /* \"contracts/Smart.sol\":1236:1237  t */\n      dup1\n        /* \"contracts/Smart.sol\":1236:1246  t.getOwner */\n      0xffffffffffffffffffffffffffffffffffffffff\n      and\n      0x893d20e8\n        /* \"contracts/Smart.sol\":1236:1248  t.getOwner() */\n      mload(0x40)\n      dup2\n      0xffffffff\n      and\n      0xe0\n      shl\n      dup2\n      mstore\n      0x04\n      add\n      0x20\n      mload(0x40)\n      dup1\n      dup4\n      sub\n      dup2\n      dup7\n      gas\n      staticcall\n      iszero\n      dup1\n      iszero\n      tag_39\n      jumpi\n      returndatasize\n      0x00\n      dup1\n      returndatacopy\n      revert(0x00, returndatasize)\n    tag_39:\n      pop\n      pop\n      pop\n      pop\n      mload(0x40)\n      returndatasize\n      not(0x1f)\n      0x1f\n      dup3\n      add\n      and\n      dup3\n      add\n      dup1\n      0x40\n      mstore\n      pop\n      dup2\n      add\n      swap1\n      tag_40\n      swap2\n      swap1\n      tag_41\n      jump\t// in\n    tag_40:\n        /* \"contracts/Smart.sol\":1229:1248  return t.getOwner() */\n      swap2\n      pop\n      pop\n        /* \"contracts/Smart.sol\":1123:1255  function getOwner(address token) public view returns(address) {... */\n      swap2\n      swap1\n      pop\n      jump\t// out\n        /* \"#utility.yul\":7:82   */\n    tag_42:\n        /* \"#utility.yul\":40:46   */\n      0x00\n        /* \"#utility.yul\":73:75   */\n      0x40\n        /* \"#utility.yul\":67:76   */\n      mload\n        /* \"#utility.yul\":57:76   */\n      swap1\n      pop\n        /* \"#utility.yul\":7:82   */\n      swap1\n      jump\t// out\n        /* \"#utility.yul\":88:205   */\n    tag_43:\n        /* \"#utility.yul\":197:198   */\n      0x00\n        /* \"#utility.yul\":194:195   */\n      dup1\n        /* \"#utility.yul\":187:199   */\n      revert\n        /* \"#utility.yul\":211:328   */\n    tag_44:\n        /* \"#utility.yul\":320:321   */\n      0x00\n        /* \"#utility.yul\":317:318   */\n      dup1\n        /* \"#utility.yul\":310:322   */\n      revert\n        /* \"#utility.yul\":334:451   */\n    tag_45:\n        /* \"#utility.yul\":443:444   */\n      0x00\n        /* \"#utility.yul\":440:441   */\n      dup1\n        /* \"#utility.yul\":433:445   */\n      revert\n        /* \"#utility.yul\":457:559   */\n    tag_46:\n        /* \"#utility.yul\":498:504   */\n      0x00\n        /* \"#utility.yul\":549:551   */\n      0x1f\n        /* \"#utility.yul\":545:552   */\n      not\n        /* \"#utility.yul\":540:542   */\n      0x1f\n        /* \"#utility.yul\":533:538   */\n      dup4\n        /* \"#utility.yul\":529:543   */\n      add\n        /* \"#utility.yul\":525:553   */\n      and\n        /* \"#utility.yul\":515:553   */\n      swap1\n      pop\n        /* \"#utility.yul\":457:559   */\n      swap2\n      swap1\n      pop\n      jump\t// out\n        /* \"#utility.yul\":565:745   */\n    tag_47:\n        /* \"#utility.yul\":613:690   */\n      0x4e487b7100000000000000000000000000000000000000000000000000000000\n        /* \"#utility.yul\":610:611   */\n      0x00\n        /* \"#utility.yul\":603:691   */\n      mstore\n        /* \"#utility.yul\":710:714   */\n      0x41\n        /* \"#utility.yul\":707:708   */\n      0x04\n        /* \"#utility.yul\":700:715   */\n      mstore\n        /* \"#utility.yul\":734:738   */\n      0x24\n        /* \"#utility.yul\":731:732   */\n      0x00\n        /* \"#utility.yul\":724:739   */\n      revert\n        /* \"#utility.yul\":751:1032   */\n    tag_48:\n        /* \"#utility.yul\":834:861   */\n      tag_84\n        /* \"#utility.yul\":856:860   */\n      dup3\n        /* \"#utility.yul\":834:861   */\n      tag_46\n      jump\t// in\n    tag_84:\n        /* \"#utility.yul\":826:832   */\n      dup2\n        /* \"#utility.yul\":822:862   */\n      add\n        /* \"#utility.yul\":964:970   */\n      dup2\n        /* \"#utility.yul\":952:962   */\n      dup2\n        /* \"#utility.yul\":949:971   */\n      lt\n        /* \"#utility.yul\":928:946   */\n      0xffffffffffffffff\n        /* \"#utility.yul\":916:926   */\n      dup3\n        /* \"#utility.yul\":913:947   */\n      gt\n        /* \"#utility.yul\":910:972   */\n      or\n        /* \"#utility.yul\":907:995   */\n      iszero\n      tag_85\n      jumpi\n        /* \"#utility.yul\":975:993   */\n      tag_86\n      tag_47\n      jump\t// in\n    tag_86:\n        /* \"#utility.yul\":907:995   */\n    tag_85:\n        /* \"#utility.yul\":1015:1025   */\n      dup1\n        /* \"#utility.yul\":1011:1013   */\n      0x40\n        /* \"#utility.yul\":1004:1026   */\n      mstore\n        /* \"#utility.yul\":794:1032   */\n      pop\n        /* \"#utility.yul\":751:1032   */\n      pop\n      pop\n      jump\t// out\n        /* \"#utility.yul\":1038:1167   */\n    tag_49:\n        /* \"#utility.yul\":1072:1078   */\n      0x00\n        /* \"#utility.yul\":1099:1119   */\n      tag_88\n      tag_42\n      jump\t// in\n    tag_88:\n        /* \"#utility.yul\":1089:1119   */\n      swap1\n      pop\n        /* \"#utility.yul\":1128:1161   */\n      tag_89\n        /* \"#utility.yul\":1156:1160   */\n      dup3\n        /* \"#utility.yul\":1148:1154   */\n      dup3\n        /* \"#utility.yul\":1128:1161   */\n      tag_48\n      jump\t// in\n    tag_89:\n        /* \"#utility.yul\":1038:1167   */\n      swap2\n      swap1\n      pop\n      jump\t// out\n        /* \"#utility.yul\":1173:1484   */\n    tag_50:\n        /* \"#utility.yul\":1250:1254   */\n      0x00\n        /* \"#utility.yul\":1340:1358   */\n      0xffffffffffffffff\n        /* \"#utility.yul\":1332:1338   */\n      dup3\n        /* \"#utility.yul\":1329:1359   */\n      gt\n        /* \"#utility.yul\":1326:1382   */\n      iszero\n      tag_91\n      jumpi\n        /* \"#utility.yul\":1362:1380   */\n      tag_92\n      tag_47\n      jump\t// in\n    tag_92:\n        /* \"#utility.yul\":1326:1382   */\n    tag_91:\n        /* \"#utility.yul\":1412:1416   */\n      0x20\n        /* \"#utility.yul\":1404:1410   */\n      dup3\n        /* \"#utility.yul\":1400:1417   */\n      mul\n        /* \"#utility.yul\":1392:1417   */\n      swap1\n      pop\n        /* \"#utility.yul\":1472:1476   */\n      0x20\n        /* \"#utility.yul\":1466:1470   */\n      dup2\n        /* \"#utility.yul\":1462:1477   */\n      add\n        /* \"#utility.yul\":1454:1477   */\n      swap1\n      pop\n        /* \"#utility.yul\":1173:1484   */\n      swap2\n      swap1\n      pop\n      jump\t// out\n        /* \"#utility.yul\":1490:1607   */\n    tag_51:\n        /* \"#utility.yul\":1599:1600   */\n      0x00\n        /* \"#utility.yul\":1596:1597   */\n      dup1\n        /* \"#utility.yul\":1589:1601   */\n      revert\n        /* \"#utility.yul\":1613:1739   */\n    tag_52:\n        /* \"#utility.yul\":1650:1657   */\n      0x00\n        /* \"#utility.yul\":1690:1732   */\n      0xffffffffffffffffffffffffffffffffffffffff\n        /* \"#utility.yul\":1683:1688   */\n      dup3\n        /* \"#utility.yul\":1679:1733   */\n      and\n        /* \"#utility.yul\":1668:1733   */\n      swap1\n      pop\n        /* \"#utility.yul\":1613:1739   */\n      swap2\n      swap1\n      pop\n      jump\t// out\n        /* \"#utility.yul\":1745:1841   */\n    tag_53:\n        /* \"#utility.yul\":1782:1789   */\n      0x00\n        /* \"#utility.yul\":1811:1835   */\n      tag_96\n        /* \"#utility.yul\":1829:1834   */\n      dup3\n        /* \"#utility.yul\":1811:1835   */\n      tag_52\n      jump\t// in\n    tag_96:\n        /* \"#utility.yul\":1800:1835   */\n      swap1\n      pop\n        /* \"#utility.yul\":1745:1841   */\n      swap2\n      swap1\n      pop\n      jump\t// out\n        /* \"#utility.yul\":1847:1969   */\n    tag_54:\n        /* \"#utility.yul\":1920:1944   */\n      tag_98\n        /* \"#utility.yul\":1938:1943   */\n      dup2\n        /* \"#utility.yul\":1920:1944   */\n      tag_53\n      jump\t// in\n    tag_98:\n        /* \"#utility.yul\":1913:1918   */\n      dup2\n        /* \"#utility.yul\":1910:1945   */\n      eq\n        /* \"#utility.yul\":1900:1963   */\n      tag_99\n      jumpi\n        /* \"#utility.yul\":1959:1960   */\n      0x00\n        /* \"#utility.yul\":1956:1957   */\n      dup1\n        /* \"#utility.yul\":1949:1961   */\n      revert\n        /* \"#utility.yul\":1900:1963   */\n    tag_99:\n        /* \"#utility.yul\":1847:1969   */\n      pop\n      jump\t// out\n        /* \"#utility.yul\":1975:2114   */\n    tag_55:\n        /* \"#utility.yul\":2021:2026   */\n      0x00\n        /* \"#utility.yul\":2059:2065   */\n      dup2\n        /* \"#utility.yul\":2046:2066   */\n      calldataload\n        /* \"#utility.yul\":2037:2066   */\n      swap1\n      pop\n        /* \"#utility.yul\":2075:2108   */\n      tag_101\n        /* \"#utility.yul\":2102:2107   */\n      dup2\n        /* \"#utility.yul\":2075:2108   */\n      tag_54\n      jump\t// in\n    tag_101:\n        /* \"#utility.yul\":1975:2114   */\n      swap3\n      swap2\n      pop\n      pop\n      jump\t// out\n        /* \"#utility.yul\":2137:2847   */\n    tag_56:\n        /* \"#utility.yul\":2233:2238   */\n      0x00\n        /* \"#utility.yul\":2258:2339   */\n      tag_103\n        /* \"#utility.yul\":2274:2338   */\n      tag_104\n        /* \"#utility.yul\":2331:2337   */\n      dup5\n        /* \"#utility.yul\":2274:2338   */\n      tag_50\n      jump\t// in\n    tag_104:\n        /* \"#utility.yul\":2258:2339   */\n      tag_49\n      jump\t// in\n    tag_103:\n        /* \"#utility.yul\":2249:2339   */\n      swap1\n      pop\n        /* \"#utility.yul\":2359:2364   */\n      dup1\n        /* \"#utility.yul\":2388:2394   */\n      dup4\n        /* \"#utility.yul\":2381:2386   */\n      dup3\n        /* \"#utility.yul\":2374:2395   */\n      mstore\n        /* \"#utility.yul\":2422:2426   */\n      0x20\n        /* \"#utility.yul\":2415:2420   */\n      dup3\n        /* \"#utility.yul\":2411:2427   */\n      add\n        /* \"#utility.yul\":2404:2427   */\n      swap1\n      pop\n        /* \"#utility.yul\":2475:2479   */\n      0x20\n        /* \"#utility.yul\":2467:2473   */\n      dup5\n        /* \"#utility.yul\":2463:2480   */\n      mul\n        /* \"#utility.yul\":2455:2461   */\n      dup4\n        /* \"#utility.yul\":2451:2481   */\n      add\n        /* \"#utility.yul\":2504:2507   */\n      dup6\n        /* \"#utility.yul\":2496:2502   */\n      dup2\n        /* \"#utility.yul\":2493:2508   */\n      gt\n        /* \"#utility.yul\":2490:2612   */\n      iszero\n      tag_105\n      jumpi\n        /* \"#utility.yul\":2523:2602   */\n      tag_106\n      tag_51\n      jump\t// in\n    tag_106:\n        /* \"#utility.yul\":2490:2612   */\n    tag_105:\n        /* \"#utility.yul\":2638:2644   */\n      dup4\n        /* \"#utility.yul\":2621:2841   */\n    tag_107:\n        /* \"#utility.yul\":2655:2661   */\n      dup2\n        /* \"#utility.yul\":2650:2653   */\n      dup2\n        /* \"#utility.yul\":2647:2662   */\n      lt\n        /* \"#utility.yul\":2621:2841   */\n      iszero\n      tag_109\n      jumpi\n        /* \"#utility.yul\":2730:2733   */\n      dup1\n        /* \"#utility.yul\":2759:2796   */\n      tag_110\n        /* \"#utility.yul\":2792:2795   */\n      dup9\n        /* \"#utility.yul\":2780:2790   */\n      dup3\n        /* \"#utility.yul\":2759:2796   */\n      tag_55\n      jump\t// in\n    tag_110:\n        /* \"#utility.yul\":2754:2757   */\n      dup5\n        /* \"#utility.yul\":2747:2797   */\n      mstore\n        /* \"#utility.yul\":2826:2830   */\n      0x20\n        /* \"#utility.yul\":2821:2824   */\n      dup5\n        /* \"#utility.yul\":2817:2831   */\n      add\n        /* \"#utility.yul\":2810:2831   */\n      swap4\n      pop\n        /* \"#utility.yul\":2697:2841   */\n      pop\n        /* \"#utility.yul\":2681:2685   */\n      0x20\n        /* \"#utility.yul\":2676:2679   */\n      dup2\n        /* \"#utility.yul\":2672:2686   */\n      add\n        /* \"#utility.yul\":2665:2686   */\n      swap1\n      pop\n        /* \"#utility.yul\":2621:2841   */\n      jump(tag_107)\n    tag_109:\n        /* \"#utility.yul\":2625:2646   */\n      pop\n        /* \"#utility.yul\":2239:2847   */\n      pop\n      pop\n        /* \"#utility.yul\":2137:2847   */\n      swap4\n      swap3\n      pop\n      pop\n      pop\n      jump\t// out\n        /* \"#utility.yul\":2870:3240   */\n    tag_57:\n        /* \"#utility.yul\":2941:2946   */\n      0x00\n        /* \"#utility.yul\":2990:2993   */\n      dup3\n        /* \"#utility.yul\":2983:2987   */\n      0x1f\n        /* \"#utility.yul\":2975:2981   */\n      dup4\n        /* \"#utility.yul\":2971:2988   */\n      add\n        /* \"#utility.yul\":2967:2994   */\n      slt\n        /* \"#utility.yul\":2957:3079   */\n      tag_112\n      jumpi\n        /* \"#utility.yul\":2998:3077   */\n      tag_113\n      tag_45\n      jump\t// in\n    tag_113:\n        /* \"#utility.yul\":2957:3079   */\n    tag_112:\n        /* \"#utility.yul\":3115:3121   */\n      dup2\n        /* \"#utility.yul\":3102:3122   */\n      calldataload\n        /* \"#utility.yul\":3140:3234   */\n      tag_114\n        /* \"#utility.yul\":3230:3233   */\n      dup5\n        /* \"#utility.yul\":3222:3228   */\n      dup3\n        /* \"#utility.yul\":3215:3219   */\n      0x20\n        /* \"#utility.yul\":3207:3213   */\n      dup7\n        /* \"#utility.yul\":3203:3220   */\n      add\n        /* \"#utility.yul\":3140:3234   */\n      tag_56\n      jump\t// in\n    tag_114:\n        /* \"#utility.yul\":3131:3234   */\n      swap2\n      pop\n        /* \"#utility.yul\":2947:3240   */\n      pop\n        /* \"#utility.yul\":2870:3240   */\n      swap3\n      swap2\n      pop\n      pop\n      jump\t// out\n        /* \"#utility.yul\":3246:3323   */\n    tag_58:\n        /* \"#utility.yul\":3283:3290   */\n      0x00\n        /* \"#utility.yul\":3312:3317   */\n      dup2\n        /* \"#utility.yul\":3301:3317   */\n      swap1\n      pop\n        /* \"#utility.yul\":3246:3323   */\n      swap2\n      swap1\n      pop\n      jump\t// out\n        /* \"#utility.yul\":3329:3451   */\n    tag_59:\n        /* \"#utility.yul\":3402:3426   */\n      tag_117\n        /* \"#utility.yul\":3420:3425   */\n      dup2\n        /* \"#utility.yul\":3402:3426   */\n      tag_58\n      jump\t// in\n    tag_117:\n        /* \"#utility.yul\":3395:3400   */\n      dup2\n        /* \"#utility.yul\":3392:3427   */\n      eq\n        /* \"#utility.yul\":3382:3445   */\n      tag_118\n      jumpi\n        /* \"#utility.yul\":3441:3442   */\n      0x00\n        /* \"#utility.yul\":3438:3439   */\n      dup1\n        /* \"#utility.yul\":3431:3443   */\n      revert\n        /* \"#utility.yul\":3382:3445   */\n    tag_118:\n        /* \"#utility.yul\":3329:3451   */\n      pop\n      jump\t// out\n        /* \"#utility.yul\":3457:3596   */\n    tag_60:\n        /* \"#utility.yul\":3503:3508   */\n      0x00\n        /* \"#utility.yul\":3541:3547   */\n      dup2\n        /* \"#utility.yul\":3528:3548   */\n      calldataload\n        /* \"#utility.yul\":3519:3548   */\n      swap1\n      pop\n        /* \"#utility.yul\":3557:3590   */\n      tag_120\n        /* \"#utility.yul\":3584:3589   */\n      dup2\n        /* \"#utility.yul\":3557:3590   */\n      tag_59\n      jump\t// in\n    tag_120:\n        /* \"#utility.yul\":3457:3596   */\n      swap3\n      swap2\n      pop\n      pop\n      jump\t// out\n        /* \"#utility.yul\":3602:4286   */\n    tag_8:\n        /* \"#utility.yul\":3695:3701   */\n      0x00\n        /* \"#utility.yul\":3703:3709   */\n      dup1\n        /* \"#utility.yul\":3752:3754   */\n      0x40\n        /* \"#utility.yul\":3740:3749   */\n      dup4\n        /* \"#utility.yul\":3731:3738   */\n      dup6\n        /* \"#utility.yul\":3727:3750   */\n      sub\n        /* \"#utility.yul\":3723:3755   */\n      slt\n        /* \"#utility.yul\":3720:3839   */\n      iszero\n      tag_122\n      jumpi\n        /* \"#utility.yul\":3758:3837   */\n      tag_123\n      tag_43\n      jump\t// in\n    tag_123:\n        /* \"#utility.yul\":3720:3839   */\n    tag_122:\n        /* \"#utility.yul\":3906:3907   */\n      0x00\n        /* \"#utility.yul\":3895:3904   */\n      dup4\n        /* \"#utility.yul\":3891:3908   */\n      add\n        /* \"#utility.yul\":3878:3909   */\n      calldataload\n        /* \"#utility.yul\":3936:3954   */\n      0xffffffffffffffff\n        /* \"#utility.yul\":3928:3934   */\n      dup2\n        /* \"#utility.yul\":3925:3955   */\n      gt\n        /* \"#utility.yul\":3922:4039   */\n      iszero\n      tag_124\n      jumpi\n        /* \"#utility.yul\":3958:4037   */\n      tag_125\n      tag_44\n      jump\t// in\n    tag_125:\n        /* \"#utility.yul\":3922:4039   */\n    tag_124:\n        /* \"#utility.yul\":4063:4141   */\n      tag_126\n        /* \"#utility.yul\":4133:4140   */\n      dup6\n        /* \"#utility.yul\":4124:4130   */\n      dup3\n        /* \"#utility.yul\":4113:4122   */\n      dup7\n        /* \"#utility.yul\":4109:4131   */\n      add\n        /* \"#utility.yul\":4063:4141   */\n      tag_57\n      jump\t// in\n    tag_126:\n        /* \"#utility.yul\":4053:4141   */\n      swap3\n      pop\n        /* \"#utility.yul\":3849:4151   */\n      pop\n        /* \"#utility.yul\":4190:4192   */\n      0x20\n        /* \"#utility.yul\":4216:4269   */\n      tag_127\n        /* \"#utility.yul\":4261:4268   */\n      dup6\n        /* \"#utility.yul\":4252:4258   */\n      dup3\n        /* \"#utility.yul\":4241:4250   */\n      dup7\n        /* \"#utility.yul\":4237:4259   */\n      add\n        /* \"#utility.yul\":4216:4269   */\n      tag_60\n      jump\t// in\n    tag_127:\n        /* \"#utility.yul\":4206:4269   */\n      swap2\n      pop\n        /* \"#utility.yul\":4161:4279   */\n      pop\n        /* \"#utility.yul\":3602:4286   */\n      swap3\n      pop\n      swap3\n      swap1\n      pop\n      jump\t// out\n        /* \"#utility.yul\":4292:4382   */\n    tag_61:\n        /* \"#utility.yul\":4326:4333   */\n      0x00\n        /* \"#utility.yul\":4369:4374   */\n      dup2\n        /* \"#utility.yul\":4362:4375   */\n      iszero\n        /* \"#utility.yul\":4355:4376   */\n      iszero\n        /* \"#utility.yul\":4344:4376   */\n      swap1\n      pop\n        /* \"#utility.yul\":4292:4382   */\n      swap2\n      swap1\n      pop\n      jump\t// out\n        /* \"#utility.yul\":4388:4497   */\n    tag_62:\n        /* \"#utility.yul\":4469:4490   */\n      tag_130\n        /* \"#utility.yul\":4484:4489   */\n      dup2\n        /* \"#utility.yul\":4469:4490   */\n      tag_61\n      jump\t// in\n    tag_130:\n        /* \"#utility.yul\":4464:4467   */\n      dup3\n        /* \"#utility.yul\":4457:4491   */\n      mstore\n        /* \"#utility.yul\":4388:4497   */\n      pop\n      pop\n      jump\t// out\n        /* \"#utility.yul\":4503:4713   */\n    tag_11:\n        /* \"#utility.yul\":4590:4594   */\n      0x00\n        /* \"#utility.yul\":4628:4630   */\n      0x20\n        /* \"#utility.yul\":4617:4626   */\n      dup3\n        /* \"#utility.yul\":4613:4631   */\n      add\n        /* \"#utility.yul\":4605:4631   */\n      swap1\n      pop\n        /* \"#utility.yul\":4641:4706   */\n      tag_132\n        /* \"#utility.yul\":4703:4704   */\n      0x00\n        /* \"#utility.yul\":4692:4701   */\n      dup4\n        /* \"#utility.yul\":4688:4705   */\n      add\n        /* \"#utility.yul\":4679:4685   */\n      dup5\n        /* \"#utility.yul\":4641:4706   */\n      tag_62\n      jump\t// in\n    tag_132:\n        /* \"#utility.yul\":4503:4713   */\n      swap3\n      swap2\n      pop\n      pop\n      jump\t// out\n        /* \"#utility.yul\":4719:4823   */\n    tag_63:\n        /* \"#utility.yul\":4764:4771   */\n      0x00\n        /* \"#utility.yul\":4793:4817   */\n      tag_134\n        /* \"#utility.yul\":4811:4816   */\n      dup3\n        /* \"#utility.yul\":4793:4817   */\n      tag_52\n      jump\t// in\n    tag_134:\n        /* \"#utility.yul\":4782:4817   */\n      swap1\n      pop\n        /* \"#utility.yul\":4719:4823   */\n      swap2\n      swap1\n      pop\n      jump\t// out\n        /* \"#utility.yul\":4829:4971   */\n    tag_64:\n        /* \"#utility.yul\":4932:4964   */\n      tag_136\n        /* \"#utility.yul\":4958:4963   */\n      dup2\n        /* \"#utility.yul\":4932:4964   */\n      tag_63\n      jump\t// in\n    tag_136:\n        /* \"#utility.yul\":4927:4930   */\n      dup3\n        /* \"#utility.yul\":4920:4965   */\n      mstore\n        /* \"#utility.yul\":4829:4971   */\n      pop\n      pop\n      jump\t// out\n        /* \"#utility.yul\":4977:5231   */\n    tag_15:\n        /* \"#utility.yul\":5086:5090   */\n      0x00\n        /* \"#utility.yul\":5124:5126   */\n      0x20\n        /* \"#utility.yul\":5113:5122   */\n      dup3\n        /* \"#utility.yul\":5109:5127   */\n      add\n        /* \"#utility.yul\":5101:5127   */\n      swap1\n      pop\n        /* \"#utility.yul\":5137:5224   */\n      tag_138\n        /* \"#utility.yul\":5221:5222   */\n      0x00\n        /* \"#utility.yul\":5210:5219   */\n      dup4\n        /* \"#utility.yul\":5206:5223   */\n      add\n        /* \"#utility.yul\":5197:5203   */\n      dup5\n        /* \"#utility.yul\":5137:5224   */\n      tag_64\n      jump\t// in\n    tag_138:\n        /* \"#utility.yul\":4977:5231   */\n      swap3\n      swap2\n      pop\n      pop\n      jump\t// out\n        /* \"#utility.yul\":5237:5566   */\n    tag_18:\n        /* \"#utility.yul\":5296:5302   */\n      0x00\n        /* \"#utility.yul\":5345:5347   */\n      0x20\n        /* \"#utility.yul\":5333:5342   */\n      dup3\n        /* \"#utility.yul\":5324:5331   */\n      dup5\n        /* \"#utility.yul\":5320:5343   */\n      sub\n        /* \"#utility.yul\":5316:5348   */\n      slt\n        /* \"#utility.yul\":5313:5432   */\n      iszero\n      tag_140\n      jumpi\n        /* \"#utility.yul\":5351:5430   */\n      tag_141\n      tag_43\n      jump\t// in\n    tag_141:\n        /* \"#utility.yul\":5313:5432   */\n    tag_140:\n        /* \"#utility.yul\":5471:5472   */\n      0x00\n        /* \"#utility.yul\":5496:5549   */\n      tag_142\n        /* \"#utility.yul\":5541:5548   */\n      dup5\n        /* \"#utility.yul\":5532:5538   */\n      dup3\n        /* \"#utility.yul\":5521:5530   */\n      dup6\n        /* \"#utility.yul\":5517:5539   */\n      add\n        /* \"#utility.yul\":5496:5549   */\n      tag_55\n      jump\t// in\n    tag_142:\n        /* \"#utility.yul\":5486:5549   */\n      swap2\n      pop\n        /* \"#utility.yul\":5442:5559   */\n      pop\n        /* \"#utility.yul\":5237:5566   */\n      swap3\n      swap2\n      pop\n      pop\n      jump\t// out\n        /* \"#utility.yul\":5572:5690   */\n    tag_65:\n        /* \"#utility.yul\":5659:5683   */\n      tag_144\n        /* \"#utility.yul\":5677:5682   */\n      dup2\n        /* \"#utility.yul\":5659:5683   */\n      tag_53\n      jump\t// in\n    tag_144:\n        /* \"#utility.yul\":5654:5657   */\n      dup3\n        /* \"#utility.yul\":5647:5684   */\n      mstore\n        /* \"#utility.yul\":5572:5690   */\n      pop\n      pop\n      jump\t// out\n        /* \"#utility.yul\":5696:5918   */\n    tag_21:\n        /* \"#utility.yul\":5789:5793   */\n      0x00\n        /* \"#utility.yul\":5827:5829   */\n      0x20\n        /* \"#utility.yul\":5816:5825   */\n      dup3\n        /* \"#utility.yul\":5812:5830   */\n      add\n        /* \"#utility.yul\":5804:5830   */\n      swap1\n      pop\n        /* \"#utility.yul\":5840:5911   */\n      tag_146\n        /* \"#utility.yul\":5908:5909   */\n      0x00\n        /* \"#utility.yul\":5897:5906   */\n      dup4\n        /* \"#utility.yul\":5893:5910   */\n      add\n        /* \"#utility.yul\":5884:5890   */\n      dup5\n        /* \"#utility.yul\":5840:5911   */\n      tag_65\n      jump\t// in\n    tag_146:\n        /* \"#utility.yul\":5696:5918   */\n      swap3\n      swap2\n      pop\n      pop\n      jump\t// out\n        /* \"#utility.yul\":5924:6104   */\n    tag_28:\n        /* \"#utility.yul\":5972:6049   */\n      0x4e487b7100000000000000000000000000000000000000000000000000000000\n        /* \"#utility.yul\":5969:5970   */\n      0x00\n        /* \"#utility.yul\":5962:6050   */\n      mstore\n        /* \"#utility.yul\":6069:6073   */\n      0x32\n        /* \"#utility.yul\":6066:6067   */\n      0x04\n        /* \"#utility.yul\":6059:6074   */\n      mstore\n        /* \"#utility.yul\":6093:6097   */\n      0x24\n        /* \"#utility.yul\":6090:6091   */\n      0x00\n        /* \"#utility.yul\":6083:6098   */\n      revert\n        /* \"#utility.yul\":6110:6170   */\n    tag_66:\n        /* \"#utility.yul\":6138:6141   */\n      0x00\n        /* \"#utility.yul\":6159:6164   */\n      dup2\n        /* \"#utility.yul\":6152:6164   */\n      swap1\n      pop\n        /* \"#utility.yul\":6110:6170   */\n      swap2\n      swap1\n      pop\n      jump\t// out\n        /* \"#utility.yul\":6176:6318   */\n    tag_67:\n        /* \"#utility.yul\":6226:6235   */\n      0x00\n        /* \"#utility.yul\":6259:6312   */\n      tag_150\n        /* \"#utility.yul\":6277:6311   */\n      tag_151\n        /* \"#utility.yul\":6286:6310   */\n      tag_152\n        /* \"#utility.yul\":6304:6309   */\n      dup5\n        /* \"#utility.yul\":6286:6310   */\n      tag_52\n      jump\t// in\n    tag_152:\n        /* \"#utility.yul\":6277:6311   */\n      tag_66\n      jump\t// in\n    tag_151:\n        /* \"#utility.yul\":6259:6312   */\n      tag_52\n      jump\t// in\n    tag_150:\n        /* \"#utility.yul\":6246:6312   */\n      swap1\n      pop\n        /* \"#utility.yul\":6176:6318   */\n      swap2\n      swap1\n      pop\n      jump\t// out\n        /* \"#utility.yul\":6324:6450   */\n    tag_68:\n        /* \"#utility.yul\":6374:6383   */\n      0x00\n        /* \"#utility.yul\":6407:6444   */\n      tag_154\n        /* \"#utility.yul\":6438:6443   */\n      dup3\n        /* \"#utility.yul\":6407:6444   */\n      tag_67\n      jump\t// in\n    tag_154:\n        /* \"#utility.yul\":6394:6444   */\n      swap1\n      pop\n        /* \"#utility.yul\":6324:6450   */\n      swap2\n      swap1\n      pop\n      jump\t// out\n        /* \"#utility.yul\":6456:6590   */\n    tag_69:\n        /* \"#utility.yul\":6514:6523   */\n      0x00\n        /* \"#utility.yul\":6547:6584   */\n      tag_156\n        /* \"#utility.yul\":6578:6583   */\n      dup3\n        /* \"#utility.yul\":6547:6584   */\n      tag_68\n      jump\t// in\n    tag_156:\n        /* \"#utility.yul\":6534:6584   */\n      swap1\n      pop\n        /* \"#utility.yul\":6456:6590   */\n      swap2\n      swap1\n      pop\n      jump\t// out\n        /* \"#utility.yul\":6596:6743   */\n    tag_70:\n        /* \"#utility.yul\":6691:6736   */\n      tag_158\n        /* \"#utility.yul\":6730:6735   */\n      dup2\n        /* \"#utility.yul\":6691:6736   */\n      tag_69\n      jump\t// in\n    tag_158:\n        /* \"#utility.yul\":6686:6689   */\n      dup3\n        /* \"#utility.yul\":6679:6737   */\n      mstore\n        /* \"#utility.yul\":6596:6743   */\n      pop\n      pop\n      jump\t// out\n        /* \"#utility.yul\":6749:6867   */\n    tag_71:\n        /* \"#utility.yul\":6836:6860   */\n      tag_160\n        /* \"#utility.yul\":6854:6859   */\n      dup2\n        /* \"#utility.yul\":6836:6860   */\n      tag_58\n      jump\t// in\n    tag_160:\n        /* \"#utility.yul\":6831:6834   */\n      dup3\n        /* \"#utility.yul\":6824:6861   */\n      mstore\n        /* \"#utility.yul\":6749:6867   */\n      pop\n      pop\n      jump\t// out\n        /* \"#utility.yul\":6873:7221   */\n    tag_30:\n        /* \"#utility.yul\":7002:7006   */\n      0x00\n        /* \"#utility.yul\":7040:7042   */\n      0x40\n        /* \"#utility.yul\":7029:7038   */\n      dup3\n        /* \"#utility.yul\":7025:7043   */\n      add\n        /* \"#utility.yul\":7017:7043   */\n      swap1\n      pop\n        /* \"#utility.yul\":7053:7132   */\n      tag_162\n        /* \"#utility.yul\":7129:7130   */\n      0x00\n        /* \"#utility.yul\":7118:7127   */\n      dup4\n        /* \"#utility.yul\":7114:7131   */\n      add\n        /* \"#utility.yul\":7105:7111   */\n      dup6\n        /* \"#utility.yul\":7053:7132   */\n      tag_70\n      jump\t// in\n    tag_162:\n        /* \"#utility.yul\":7142:7214   */\n      tag_163\n        /* \"#utility.yul\":7210:7212   */\n      0x20\n        /* \"#utility.yul\":7199:7208   */\n      dup4\n        /* \"#utility.yul\":7195:7213   */\n      add\n        /* \"#utility.yul\":7186:7192   */\n      dup5\n        /* \"#utility.yul\":7142:7214   */\n      tag_71\n      jump\t// in\n    tag_163:\n        /* \"#utility.yul\":6873:7221   */\n      swap4\n      swap3\n      pop\n      pop\n      pop\n      jump\t// out\n        /* \"#utility.yul\":7227:7343   */\n    tag_72:\n        /* \"#utility.yul\":7297:7318   */\n      tag_165\n        /* \"#utility.yul\":7312:7317   */\n      dup2\n        /* \"#utility.yul\":7297:7318   */\n      tag_61\n      jump\t// in\n    tag_165:\n        /* \"#utility.yul\":7290:7295   */\n      dup2\n        /* \"#utility.yul\":7287:7319   */\n      eq\n        /* \"#utility.yul\":7277:7337   */\n      tag_166\n      jumpi\n        /* \"#utility.yul\":7333:7334   */\n      0x00\n        /* \"#utility.yul\":7330:7331   */\n      dup1\n        /* \"#utility.yul\":7323:7335   */\n      revert\n        /* \"#utility.yul\":7277:7337   */\n    tag_166:\n        /* \"#utility.yul\":7227:7343   */\n      pop\n      jump\t// out\n        /* \"#utility.yul\":7349:7486   */\n    tag_73:\n        /* \"#utility.yul\":7403:7408   */\n      0x00\n        /* \"#utility.yul\":7434:7440   */\n      dup2\n        /* \"#utility.yul\":7428:7441   */\n      mload\n        /* \"#utility.yul\":7419:7441   */\n      swap1\n      pop\n        /* \"#utility.yul\":7450:7480   */\n      tag_168\n        /* \"#utility.yul\":7474:7479   */\n      dup2\n        /* \"#utility.yul\":7450:7480   */\n      tag_72\n      jump\t// in\n    tag_168:\n        /* \"#utility.yul\":7349:7486   */\n      swap3\n      swap2\n      pop\n      pop\n      jump\t// out\n        /* \"#utility.yul\":7492:7837   */\n    tag_34:\n        /* \"#utility.yul\":7559:7565   */\n      0x00\n        /* \"#utility.yul\":7608:7610   */\n      0x20\n        /* \"#utility.yul\":7596:7605   */\n      dup3\n        /* \"#utility.yul\":7587:7594   */\n      dup5\n        /* \"#utility.yul\":7583:7606   */\n      sub\n        /* \"#utility.yul\":7579:7611   */\n      slt\n        /* \"#utility.yul\":7576:7695   */\n      iszero\n      tag_170\n      jumpi\n        /* \"#utility.yul\":7614:7693   */\n      tag_171\n      tag_43\n      jump\t// in\n    tag_171:\n        /* \"#utility.yul\":7576:7695   */\n    tag_170:\n        /* \"#utility.yul\":7734:7735   */\n      0x00\n        /* \"#utility.yul\":7759:7820   */\n      tag_172\n        /* \"#utility.yul\":7812:7819   */\n      dup5\n        /* \"#utility.yul\":7803:7809   */\n      dup3\n        /* \"#utility.yul\":7792:7801   */\n      dup6\n        /* \"#utility.yul\":7788:7810   */\n      add\n        /* \"#utility.yul\":7759:7820   */\n      tag_73\n      jump\t// in\n    tag_172:\n        /* \"#utility.yul\":7749:7820   */\n      swap2\n      pop\n        /* \"#utility.yul\":7705:7830   */\n      pop\n        /* \"#utility.yul\":7492:7837   */\n      swap3\n      swap2\n      pop\n      pop\n      jump\t// out\n        /* \"#utility.yul\":7843:8023   */\n    tag_74:\n        /* \"#utility.yul\":7891:7968   */\n      0x4e487b7100000000000000000000000000000000000000000000000000000000\n        /* \"#utility.yul\":7888:7889   */\n      0x00\n        /* \"#utility.yul\":7881:7969   */\n      mstore\n        /* \"#utility.yul\":7988:7992   */\n      0x11\n        /* \"#utility.yul\":7985:7986   */\n      0x04\n        /* \"#utility.yul\":7978:7993   */\n      mstore\n        /* \"#utility.yul\":8012:8016   */\n      0x24\n        /* \"#utility.yul\":8009:8010   */\n      0x00\n        /* \"#utility.yul\":8002:8017   */\n      revert\n        /* \"#utility.yul\":8029:8262   */\n    tag_36:\n        /* \"#utility.yul\":8068:8071   */\n      0x00\n        /* \"#utility.yul\":8091:8115   */\n      tag_175\n        /* \"#utility.yul\":8109:8114   */\n      dup3\n        /* \"#utility.yul\":8091:8115   */\n      tag_58\n      jump\t// in\n    tag_175:\n        /* \"#utility.yul\":8082:8115   */\n      swap2\n      pop\n        /* \"#utility.yul\":8137:8203   */\n      0xffffffffffffffffffffffffffffffffffffffffffffffffffffffffffffffff\n        /* \"#utility.yul\":8130:8135   */\n      dup3\n        /* \"#utility.yul\":8127:8204   */\n      sub\n        /* \"#utility.yul\":8124:8227   */\n      tag_176\n      jumpi\n        /* \"#utility.yul\":8207:8225   */\n      tag_177\n      tag_74\n      jump\t// in\n    tag_177:\n        /* \"#utility.yul\":8124:8227   */\n    tag_176:\n        /* \"#utility.yul\":8254:8255   */\n      0x01\n        /* \"#utility.yul\":8247:8252   */\n      dup3\n        /* \"#utility.yul\":8243:8256   */\n      add\n        /* \"#utility.yul\":8236:8256   */\n      swap1\n      pop\n        /* \"#utility.yul\":8029:8262   */\n      swap2\n      swap1\n      pop\n      jump\t// out\n        /* \"#utility.yul\":8268:8411   */\n    tag_75:\n        /* \"#utility.yul\":8325:8330   */\n      0x00\n        /* \"#utility.yul\":8356:8362   */\n      dup2\n        /* \"#utility.yul\":8350:8363   */\n      mload\n        /* \"#utility.yul\":8341:8363   */\n      swap1\n      pop\n        /* \"#utility.yul\":8372:8405   */\n      tag_179\n        /* \"#utility.yul\":8399:8404   */\n      dup2\n        /* \"#utility.yul\":8372:8405   */\n      tag_54\n      jump\t// in\n    tag_179:\n        /* \"#utility.yul\":8268:8411   */\n      swap3\n      swap2\n      pop\n      pop\n      jump\t// out\n        /* \"#utility.yul\":8417:8768   */\n    tag_41:\n        /* \"#utility.yul\":8487:8493   */\n      0x00\n        /* \"#utility.yul\":8536:8538   */\n      0x20\n        /* \"#utility.yul\":8524:8533   */\n      dup3\n        /* \"#utility.yul\":8515:8522   */\n      dup5\n        /* \"#utility.yul\":8511:8534   */\n      sub\n        /* \"#utility.yul\":8507:8539   */\n      slt\n        /* \"#utility.yul\":8504:8623   */\n      iszero\n      tag_181\n      jumpi\n        /* \"#utility.yul\":8542:8621   */\n      tag_182\n      tag_43\n      jump\t// in\n    tag_182:\n        /* \"#utility.yul\":8504:8623   */\n    tag_181:\n        /* \"#utility.yul\":8662:8663   */\n      0x00\n        /* \"#utility.yul\":8687:8751   */\n      tag_183\n        /* \"#utility.yul\":8743:8750   */\n      dup5\n        /* \"#utility.yul\":8734:8740   */\n      dup3\n        /* \"#utility.yul\":8723:8732   */\n      dup6\n        /* \"#utility.yul\":8719:8741   */\n      add\n        /* \"#utility.yul\":8687:8751   */\n      tag_75\n      jump\t// in\n    tag_183:\n        /* \"#utility.yul\":8677:8751   */\n      swap2\n      pop\n        /* \"#utility.yul\":8633:8761   */\n      pop\n        /* \"#utility.yul\":8417:8768   */\n      swap3\n      swap2\n      pop\n      pop\n      jump\t// out\n\n    auxdata: 0xa2646970667358221220a717c861c911ae81ede936b7bce1c3e0398dcbc072fa24e2a223a36410d2180064736f6c634300080f0033\n}\n",
				"bytecode": {
					"linkReferences": {},
					"object": "608060405234801561001057600080fd5b50336000806101000a81548173ffffffffffffffffffffffffffffffffffffffff021916908373ffffffffffffffffffffffffffffffffffffffff160217905550610787806100606000396000f3fe608060405234801561001057600080fd5b50600436106100415760003560e01c80633c046960146100465780638da5cb5b14610076578063fa54416114610094575b600080fd5b610060600480360381019061005b9190610454565b6100c4565b60405161006d91906104cb565b60405180910390f35b61007e6101b2565b60405161008b9190610507565b60405180910390f35b6100ae60048036038101906100a99190610522565b6101d6565b6040516100bb919061055e565b60405180910390f35b600080600090505b83518110156101a75760008482815181106100ea576100e9610579565b5b602002602001015190508073ffffffffffffffffffffffffffffffffffffffff1663095ea7b360008054906101000a900473ffffffffffffffffffffffffffffffffffffffff16866040518363ffffffff1660e01b815260040161014f929190610616565b6020604051808303816000875af115801561016e573d6000803e3d6000fd5b505050506040513d601f19601f82011682018060405250810190610192919061066b565b5050808061019f906106c7565b9150506100cc565b506001905092915050565b60008054906101000a900473ffffffffffffffffffffffffffffffffffffffff1681565b6000808290508073ffffffffffffffffffffffffffffffffffffffff1663893d20e86040518163ffffffff1660e01b8152600401602060405180830381865afa158015610227573d6000803e3d6000fd5b505050506040513d601f19601f8201168201806040525081019061024b9190610724565b915050919050565b6000604051905090565b600080fd5b600080fd5b600080fd5b6000601f19601f8301169050919050565b7f4e487b7100000000000000000000000000000000000000000000000000000000600052604160045260246000fd5b6102b58261026c565b810181811067ffffffffffffffff821117156102d4576102d361027d565b5b80604052505050565b60006102e7610253565b90506102f382826102ac565b919050565b600067ffffffffffffffff8211156103135761031261027d565b5b602082029050602081019050919050565b600080fd5b600073ffffffffffffffffffffffffffffffffffffffff82169050919050565b600061035482610329565b9050919050565b61036481610349565b811461036f57600080fd5b50565b6000813590506103818161035b565b92915050565b600061039a610395846102f8565b6102dd565b905080838252602082019050602084028301858111156103bd576103bc610324565b5b835b818110156103e657806103d28882610372565b8452602084019350506020810190506103bf565b5050509392505050565b600082601f83011261040557610404610267565b5b8135610415848260208601610387565b91505092915050565b6000819050919050565b6104318161041e565b811461043c57600080fd5b50565b60008135905061044e81610428565b92915050565b6000806040838503121561046b5761046a61025d565b5b600083013567ffffffffffffffff81111561048957610488610262565b5b610495858286016103f0565b92505060206104a68582860161043f565b9150509250929050565b60008115159050919050565b6104c5816104b0565b82525050565b60006020820190506104e060008301846104bc565b92915050565b60006104f182610329565b9050919050565b610501816104e6565b82525050565b600060208201905061051c60008301846104f8565b92915050565b6000602082840312156105385761053761025d565b5b600061054684828501610372565b91505092915050565b61055881610349565b82525050565b6000602082019050610573600083018461054f565b92915050565b7f4e487b7100000000000000000000000000000000000000000000000000000000600052603260045260246000fd5b6000819050919050565b60006105cd6105c86105c384610329565b6105a8565b610329565b9050919050565b60006105df826105b2565b9050919050565b60006105f1826105d4565b9050919050565b610601816105e6565b82525050565b6106108161041e565b82525050565b600060408201905061062b60008301856105f8565b6106386020830184610607565b9392505050565b610648816104b0565b811461065357600080fd5b50565b6000815190506106658161063f565b92915050565b6000602082840312156106815761068061025d565b5b600061068f84828501610656565b91505092915050565b7f4e487b7100000000000000000000000000000000000000000000000000000000600052601160045260246000fd5b60006106d28261041e565b91507fffffffffffffffffffffffffffffffffffffffffffffffffffffffffffffffff820361070457610703610698565b5b600182019050919050565b60008151905061071e8161035b565b92915050565b60006020828403121561073a5761073961025d565b5b60006107488482850161070f565b9150509291505056fea2646970667358221220a717c861c911ae81ede936b7bce1c3e0398dcbc072fa24e2a223a36410d2180064736f6c634300080f0033",
					"opcodes": "PUSH1 0x80 PUSH1 0x40 MSTORE CALLVALUE DUP1 ISZERO PUSH2 0x10 JUMPI PUSH1 0x0 DUP1 REVERT JUMPDEST POP CALLER PUSH1 0x0 DUP1 PUSH2 0x100 EXP DUP2 SLOAD DUP2 PUSH20 0xFFFFFFFFFFFFFFFFFFFFFFFFFFFFFFFFFFFFFFFF MUL NOT AND SWAP1 DUP4 PUSH20 0xFFFFFFFFFFFFFFFFFFFFFFFFFFFFFFFFFFFFFFFF AND MUL OR SWAP1 SSTORE POP PUSH2 0x787 DUP1 PUSH2 0x60 PUSH1 0x0 CODECOPY PUSH1 0x0 RETURN INVALID PUSH1 0x80 PUSH1 0x40 MSTORE CALLVALUE DUP1 ISZERO PUSH2 0x10 JUMPI PUSH1 0x0 DUP1 REVERT JUMPDEST POP PUSH1 0x4 CALLDATASIZE LT PUSH2 0x41 JUMPI PUSH1 0x0 CALLDATALOAD PUSH1 0xE0 SHR DUP1 PUSH4 0x3C046960 EQ PUSH2 0x46 JUMPI DUP1 PUSH4 0x8DA5CB5B EQ PUSH2 0x76 JUMPI DUP1 PUSH4 0xFA544161 EQ PUSH2 0x94 JUMPI JUMPDEST PUSH1 0x0 DUP1 REVERT JUMPDEST PUSH2 0x60 PUSH1 0x4 DUP1 CALLDATASIZE SUB DUP2 ADD SWAP1 PUSH2 0x5B SWAP2 SWAP1 PUSH2 0x454 JUMP JUMPDEST PUSH2 0xC4 JUMP JUMPDEST PUSH1 0x40 MLOAD PUSH2 0x6D SWAP2 SWAP1 PUSH2 0x4CB JUMP JUMPDEST PUSH1 0x40 MLOAD DUP1 SWAP2 SUB SWAP1 RETURN JUMPDEST PUSH2 0x7E PUSH2 0x1B2 JUMP JUMPDEST PUSH1 0x40 MLOAD PUSH2 0x8B SWAP2 SWAP1 PUSH2 0x507 JUMP JUMPDEST PUSH1 0x40 MLOAD DUP1 SWAP2 SUB SWAP1 RETURN JUMPDEST PUSH2 0xAE PUSH1 0x4 DUP1 CALLDATASIZE SUB DUP2 ADD SWAP1 PUSH2 0xA9 SWAP2 SWAP1 PUSH2 0x522 JUMP JUMPDEST PUSH2 0x1D6 JUMP JUMPDEST PUSH1 0x40 MLOAD PUSH2 0xBB SWAP2 SWAP1 PUSH2 0x55E JUMP JUMPDEST PUSH1 0x40 MLOAD DUP1 SWAP2 SUB SWAP1 RETURN JUMPDEST PUSH1 0x0 DUP1 PUSH1 0x0 SWAP1 POP JUMPDEST DUP4 MLOAD DUP2 LT ISZERO PUSH2 0x1A7 JUMPI PUSH1 0x0 DUP5 DUP3 DUP2 MLOAD DUP2 LT PUSH2 0xEA JUMPI PUSH2 0xE9 PUSH2 0x579 JUMP JUMPDEST JUMPDEST PUSH1 0x20 MUL PUSH1 0x20 ADD ADD MLOAD SWAP1 POP DUP1 PUSH20 0xFFFFFFFFFFFFFFFFFFFFFFFFFFFFFFFFFFFFFFFF AND PUSH4 0x95EA7B3 PUSH1 0x0 DUP1 SLOAD SWAP1 PUSH2 0x100 EXP SWAP1 DIV PUSH20 0xFFFFFFFFFFFFFFFFFFFFFFFFFFFFFFFFFFFFFFFF AND DUP7 PUSH1 0x40 MLOAD DUP4 PUSH4 0xFFFFFFFF AND PUSH1 0xE0 SHL DUP2 MSTORE PUSH1 0x4 ADD PUSH2 0x14F SWAP3 SWAP2 SWAP1 PUSH2 0x616 JUMP JUMPDEST PUSH1 0x20 PUSH1 0x40 MLOAD DUP1 DUP4 SUB DUP2 PUSH1 0x0 DUP8 GAS CALL ISZERO DUP1 ISZERO PUSH2 0x16E JUMPI RETURNDATASIZE PUSH1 0x0 DUP1 RETURNDATACOPY RETURNDATASIZE PUSH1 0x0 REVERT JUMPDEST POP POP POP POP PUSH1 0x40 MLOAD RETURNDATASIZE PUSH1 0x1F NOT PUSH1 0x1F DUP3 ADD AND DUP3 ADD DUP1 PUSH1 0x40 MSTORE POP DUP2 ADD SWAP1 PUSH2 0x192 SWAP2 SWAP1 PUSH2 0x66B JUMP JUMPDEST POP POP DUP1 DUP1 PUSH2 0x19F SWAP1 PUSH2 0x6C7 JUMP JUMPDEST SWAP2 POP POP PUSH2 0xCC JUMP JUMPDEST POP PUSH1 0x1 SWAP1 POP SWAP3 SWAP2 POP POP JUMP JUMPDEST PUSH1 0x0 DUP1 SLOAD SWAP1 PUSH2 0x100 EXP SWAP1 DIV PUSH20 0xFFFFFFFFFFFFFFFFFFFFFFFFFFFFFFFFFFFFFFFF AND DUP2 JUMP JUMPDEST PUSH1 0x0 DUP1 DUP3 SWAP1 POP DUP1 PUSH20 0xFFFFFFFFFFFFFFFFFFFFFFFFFFFFFFFFFFFFFFFF AND PUSH4 0x893D20E8 PUSH1 0x40 MLOAD DUP2 PUSH4 0xFFFFFFFF AND PUSH1 0xE0 SHL DUP2 MSTORE PUSH1 0x4 ADD PUSH1 0x20 PUSH1 0x40 MLOAD DUP1 DUP4 SUB DUP2 DUP7 GAS STATICCALL ISZERO DUP1 ISZERO PUSH2 0x227 JUMPI RETURNDATASIZE PUSH1 0x0 DUP1 RETURNDATACOPY RETURNDATASIZE PUSH1 0x0 REVERT JUMPDEST POP POP POP POP PUSH1 0x40 MLOAD RETURNDATASIZE PUSH1 0x1F NOT PUSH1 0x1F DUP3 ADD AND DUP3 ADD DUP1 PUSH1 0x40 MSTORE POP DUP2 ADD SWAP1 PUSH2 0x24B SWAP2 SWAP1 PUSH2 0x724 JUMP JUMPDEST SWAP2 POP POP SWAP2 SWAP1 POP JUMP JUMPDEST PUSH1 0x0 PUSH1 0x40 MLOAD SWAP1 POP SWAP1 JUMP JUMPDEST PUSH1 0x0 DUP1 REVERT JUMPDEST PUSH1 0x0 DUP1 REVERT JUMPDEST PUSH1 0x0 DUP1 REVERT JUMPDEST PUSH1 0x0 PUSH1 0x1F NOT PUSH1 0x1F DUP4 ADD AND SWAP1 POP SWAP2 SWAP1 POP JUMP JUMPDEST PUSH32 0x4E487B7100000000000000000000000000000000000000000000000000000000 PUSH1 0x0 MSTORE PUSH1 0x41 PUSH1 0x4 MSTORE PUSH1 0x24 PUSH1 0x0 REVERT JUMPDEST PUSH2 0x2B5 DUP3 PUSH2 0x26C JUMP JUMPDEST DUP2 ADD DUP2 DUP2 LT PUSH8 0xFFFFFFFFFFFFFFFF DUP3 GT OR ISZERO PUSH2 0x2D4 JUMPI PUSH2 0x2D3 PUSH2 0x27D JUMP JUMPDEST JUMPDEST DUP1 PUSH1 0x40 MSTORE POP POP POP JUMP JUMPDEST PUSH1 0x0 PUSH2 0x2E7 PUSH2 0x253 JUMP JUMPDEST SWAP1 POP PUSH2 0x2F3 DUP3 DUP3 PUSH2 0x2AC JUMP JUMPDEST SWAP2 SWAP1 POP JUMP JUMPDEST PUSH1 0x0 PUSH8 0xFFFFFFFFFFFFFFFF DUP3 GT ISZERO PUSH2 0x313 JUMPI PUSH2 0x312 PUSH2 0x27D JUMP JUMPDEST JUMPDEST PUSH1 0x20 DUP3 MUL SWAP1 POP PUSH1 0x20 DUP2 ADD SWAP1 POP SWAP2 SWAP1 POP JUMP JUMPDEST PUSH1 0x0 DUP1 REVERT JUMPDEST PUSH1 0x0 PUSH20 0xFFFFFFFFFFFFFFFFFFFFFFFFFFFFFFFFFFFFFFFF DUP3 AND SWAP1 POP SWAP2 SWAP1 POP JUMP JUMPDEST PUSH1 0x0 PUSH2 0x354 DUP3 PUSH2 0x329 JUMP JUMPDEST SWAP1 POP SWAP2 SWAP1 POP JUMP JUMPDEST PUSH2 0x364 DUP2 PUSH2 0x349 JUMP JUMPDEST DUP2 EQ PUSH2 0x36F JUMPI PUSH1 0x0 DUP1 REVERT JUMPDEST POP JUMP JUMPDEST PUSH1 0x0 DUP2 CALLDATALOAD SWAP1 POP PUSH2 0x381 DUP2 PUSH2 0x35B JUMP JUMPDEST SWAP3 SWAP2 POP POP JUMP JUMPDEST PUSH1 0x0 PUSH2 0x39A PUSH2 0x395 DUP5 PUSH2 0x2F8 JUMP JUMPDEST PUSH2 0x2DD JUMP JUMPDEST SWAP1 POP DUP1 DUP4 DUP3 MSTORE PUSH1 0x20 DUP3 ADD SWAP1 POP PUSH1 0x20 DUP5 MUL DUP4 ADD DUP6 DUP2 GT ISZERO PUSH2 0x3BD JUMPI PUSH2 0x3BC PUSH2 0x324 JUMP JUMPDEST JUMPDEST DUP4 JUMPDEST DUP2 DUP2 LT ISZERO PUSH2 0x3E6 JUMPI DUP1 PUSH2 0x3D2 DUP9 DUP3 PUSH2 0x372 JUMP JUMPDEST DUP5 MSTORE PUSH1 0x20 DUP5 ADD SWAP4 POP POP PUSH1 0x20 DUP2 ADD SWAP1 POP PUSH2 0x3BF JUMP JUMPDEST POP POP POP SWAP4 SWAP3 POP POP POP JUMP JUMPDEST PUSH1 0x0 DUP3 PUSH1 0x1F DUP4 ADD SLT PUSH2 0x405 JUMPI PUSH2 0x404 PUSH2 0x267 JUMP JUMPDEST JUMPDEST DUP2 CALLDATALOAD PUSH2 0x415 DUP5 DUP3 PUSH1 0x20 DUP7 ADD PUSH2 0x387 JUMP JUMPDEST SWAP2 POP POP SWAP3 SWAP2 POP POP JUMP JUMPDEST PUSH1 0x0 DUP2 SWAP1 POP SWAP2 SWAP1 POP JUMP JUMPDEST PUSH2 0x431 DUP2 PUSH2 0x41E JUMP JUMPDEST DUP2 EQ PUSH2 0x43C JUMPI PUSH1 0x0 DUP1 REVERT JUMPDEST POP JUMP JUMPDEST PUSH1 0x0 DUP2 CALLDATALOAD SWAP1 POP PUSH2 0x44E DUP2 PUSH2 0x428 JUMP JUMPDEST SWAP3 SWAP2 POP POP JUMP JUMPDEST PUSH1 0x0 DUP1 PUSH1 0x40 DUP4 DUP6 SUB SLT ISZERO PUSH2 0x46B JUMPI PUSH2 0x46A PUSH2 0x25D JUMP JUMPDEST JUMPDEST PUSH1 0x0 DUP4 ADD CALLDATALOAD PUSH8 0xFFFFFFFFFFFFFFFF DUP2 GT ISZERO PUSH2 0x489 JUMPI PUSH2 0x488 PUSH2 0x262 JUMP JUMPDEST JUMPDEST PUSH2 0x495 DUP6 DUP3 DUP7 ADD PUSH2 0x3F0 JUMP JUMPDEST SWAP3 POP POP PUSH1 0x20 PUSH2 0x4A6 DUP6 DUP3 DUP7 ADD PUSH2 0x43F JUMP JUMPDEST SWAP2 POP POP SWAP3 POP SWAP3 SWAP1 POP JUMP JUMPDEST PUSH1 0x0 DUP2 ISZERO ISZERO SWAP1 POP SWAP2 SWAP1 POP JUMP JUMPDEST PUSH2 0x4C5 DUP2 PUSH2 0x4B0 JUMP JUMPDEST DUP3 MSTORE POP POP JUMP JUMPDEST PUSH1 0x0 PUSH1 0x20 DUP3 ADD SWAP1 POP PUSH2 0x4E0 PUSH1 0x0 DUP4 ADD DUP5 PUSH2 0x4BC JUMP JUMPDEST SWAP3 SWAP2 POP POP JUMP JUMPDEST PUSH1 0x0 PUSH2 0x4F1 DUP3 PUSH2 0x329 JUMP JUMPDEST SWAP1 POP SWAP2 SWAP1 POP JUMP JUMPDEST PUSH2 0x501 DUP2 PUSH2 0x4E6 JUMP JUMPDEST DUP3 MSTORE POP POP JUMP JUMPDEST PUSH1 0x0 PUSH1 0x20 DUP3 ADD SWAP1 POP PUSH2 0x51C PUSH1 0x0 DUP4 ADD DUP5 PUSH2 0x4F8 JUMP JUMPDEST SWAP3 SWAP2 POP POP JUMP JUMPDEST PUSH1 0x0 PUSH1 0x20 DUP3 DUP5 SUB SLT ISZERO PUSH2 0x538 JUMPI PUSH2 0x537 PUSH2 0x25D JUMP JUMPDEST JUMPDEST PUSH1 0x0 PUSH2 0x546 DUP5 DUP3 DUP6 ADD PUSH2 0x372 JUMP JUMPDEST SWAP2 POP POP SWAP3 SWAP2 POP POP JUMP JUMPDEST PUSH2 0x558 DUP2 PUSH2 0x349 JUMP JUMPDEST DUP3 MSTORE POP POP JUMP JUMPDEST PUSH1 0x0 PUSH1 0x20 DUP3 ADD SWAP1 POP PUSH2 0x573 PUSH1 0x0 DUP4 ADD DUP5 PUSH2 0x54F JUMP JUMPDEST SWAP3 SWAP2 POP POP JUMP JUMPDEST PUSH32 0x4E487B7100000000000000000000000000000000000000000000000000000000 PUSH1 0x0 MSTORE PUSH1 0x32 PUSH1 0x4 MSTORE PUSH1 0x24 PUSH1 0x0 REVERT JUMPDEST PUSH1 0x0 DUP2 SWAP1 POP SWAP2 SWAP1 POP JUMP JUMPDEST PUSH1 0x0 PUSH2 0x5CD PUSH2 0x5C8 PUSH2 0x5C3 DUP5 PUSH2 0x329 JUMP JUMPDEST PUSH2 0x5A8 JUMP JUMPDEST PUSH2 0x329 JUMP JUMPDEST SWAP1 POP SWAP2 SWAP1 POP JUMP JUMPDEST PUSH1 0x0 PUSH2 0x5DF DUP3 PUSH2 0x5B2 JUMP JUMPDEST SWAP1 POP SWAP2 SWAP1 POP JUMP JUMPDEST PUSH1 0x0 PUSH2 0x5F1 DUP3 PUSH2 0x5D4 JUMP JUMPDEST SWAP1 POP SWAP2 SWAP1 POP JUMP JUMPDEST PUSH2 0x601 DUP2 PUSH2 0x5E6 JUMP JUMPDEST DUP3 MSTORE POP POP JUMP JUMPDEST PUSH2 0x610 DUP2 PUSH2 0x41E JUMP JUMPDEST DUP3 MSTORE POP POP JUMP JUMPDEST PUSH1 0x0 PUSH1 0x40 DUP3 ADD SWAP1 POP PUSH2 0x62B PUSH1 0x0 DUP4 ADD DUP6 PUSH2 0x5F8 JUMP JUMPDEST PUSH2 0x638 PUSH1 0x20 DUP4 ADD DUP5 PUSH2 0x607 JUMP JUMPDEST SWAP4 SWAP3 POP POP POP JUMP JUMPDEST PUSH2 0x648 DUP2 PUSH2 0x4B0 JUMP JUMPDEST DUP2 EQ PUSH2 0x653 JUMPI PUSH1 0x0 DUP1 REVERT JUMPDEST POP JUMP JUMPDEST PUSH1 0x0 DUP2 MLOAD SWAP1 POP PUSH2 0x665 DUP2 PUSH2 0x63F JUMP JUMPDEST SWAP3 SWAP2 POP POP JUMP JUMPDEST PUSH1 0x0 PUSH1 0x20 DUP3 DUP5 SUB SLT ISZERO PUSH2 0x681 JUMPI PUSH2 0x680 PUSH2 0x25D JUMP JUMPDEST JUMPDEST PUSH1 0x0 PUSH2 0x68F DUP5 DUP3 DUP6 ADD PUSH2 0x656 JUMP JUMPDEST SWAP2 POP POP SWAP3 SWAP2 POP POP JUMP JUMPDEST PUSH32 0x4E487B7100000000000000000000000000000000000000000000000000000000 PUSH1 0x0 MSTORE PUSH1 0x11 PUSH1 0x4 MSTORE PUSH1 0x24 PUSH1 0x0 REVERT JUMPDEST PUSH1 0x0 PUSH2 0x6D2 DUP3 PUSH2 0x41E JUMP JUMPDEST SWAP2 POP PUSH32 0xFFFFFFFFFFFFFFFFFFFFFFFFFFFFFFFFFFFFFFFFFFFFFFFFFFFFFFFFFFFFFFFF DUP3 SUB PUSH2 0x704 JUMPI PUSH2 0x703 PUSH2 0x698 JUMP JUMPDEST JUMPDEST PUSH1 0x1 DUP3 ADD SWAP1 POP SWAP2 SWAP1 POP JUMP JUMPDEST PUSH1 0x0 DUP2 MLOAD SWAP1 POP PUSH2 0x71E DUP2 PUSH2 0x35B JUMP JUMPDEST SWAP3 SWAP2 POP POP JUMP JUMPDEST PUSH1 0x0 PUSH1 0x20 DUP3 DUP5 SUB SLT ISZERO PUSH2 0x73A JUMPI PUSH2 0x739 PUSH2 0x25D JUMP JUMPDEST JUMPDEST PUSH1 0x0 PUSH2 0x748 DUP5 DUP3 DUP6 ADD PUSH2 0x70F JUMP JUMPDEST SWAP2 POP POP SWAP3 SWAP2 POP POP JUMP INVALID LOG2 PUSH5 0x6970667358 0x22 SLT KECCAK256 0xA7 OR 0xC8 PUSH2 0xC911 0xAE DUP2 0xED 0xE9 CALLDATASIZE 0xB7 0xBC 0xE1 0xC3 0xE0 CODECOPY DUP14 0xCB 0xC0 PUSH19 0xFA24E2A223A36410D2180064736F6C63430008 0xF STOP CALLER "
				},
				"gasEstimates": {
					"creation": {
						"codeDepositCost": "385400",
						"executionCost": "24690",
						"totalCost": "410090"
					},
					"external": {
						"approve(address[],uint256)": "infinite",
						"getOwner(address)": "infinite",
						"owner()": "2511"
					}
				},
				"methodIdentifiers": {
					"approve(address[],uint256)": "3c046960",
					"getOwner(address)": "fa544161",
					"owner()": "8da5cb5b"
				}
			},
			"storageLayout": {
				"storage": [
					{
						"astId": 3,
						"contract": "contracts/Smart.sol:Smart",
						"label": "owner",
						"offset": 0,
						"slot": "0",
						"type": "t_address_payable"
					}
				],
				"types": {
					"t_address_payable": {
						"encoding": "inplace",
						"label": "address payable",
						"numberOfBytes": "20"
					}
				}
			},
			"userdoc": {
				"kind": "user",
				"methods": {},
				"version": 1
			}
		}
	}
}