{
	"contracts/Smart.sol": {
		"Smart": {
			"abi": [
				{
					"inputs": [],
					"stateMutability": "nonpayable",
					"type": "constructor"
				},
				{
					"anonymous": false,
					"inputs": [
						{
							"indexed": false,
							"internalType": "bool",
							"name": "success",
							"type": "bool"
						},
						{
							"indexed": false,
							"internalType": "bytes",
							"name": "data",
							"type": "bytes"
						}
					],
					"name": "Response",
					"type": "event"
				},
				{
					"inputs": [],
					"name": "addr1",
					"outputs": [
						{
							"internalType": "address",
							"name": "",
							"type": "address"
						}
					],
					"stateMutability": "view",
					"type": "function"
				},
				{
					"inputs": [],
					"name": "addr2",
					"outputs": [
						{
							"internalType": "address",
							"name": "",
							"type": "address"
						}
					],
					"stateMutability": "view",
					"type": "function"
				},
				{
					"inputs": [],
					"name": "addr3",
					"outputs": [
						{
							"internalType": "address",
							"name": "",
							"type": "address"
						}
					],
					"stateMutability": "view",
					"type": "function"
				},
				{
					"inputs": [
						{
							"internalType": "uint256",
							"name": "_value",
							"type": "uint256"
						}
					],
					"name": "approve",
					"outputs": [
						{
							"internalType": "bool",
							"name": "",
							"type": "bool"
						}
					],
					"stateMutability": "nonpayable",
					"type": "function"
				},
				{
					"inputs": [],
					"name": "getSymbol",
					"outputs": [
						{
							"internalType": "string",
							"name": "",
							"type": "string"
						}
					],
					"stateMutability": "view",
					"type": "function"
				},
				{
					"inputs": [],
					"name": "owner",
					"outputs": [
						{
							"internalType": "address",
							"name": "",
							"type": "address"
						}
					],
					"stateMutability": "view",
					"type": "function"
				}
			],
			"devdoc": {
				"kind": "dev",
				"methods": {},
				"version": 1
			},
			"evm": {
				"assembly": "    /* \"contracts/Smart.sol\":177:1031  contract Smart {... */\n  mstore(0x40, 0x80)\n    /* \"contracts/Smart.sol\":247:289  0xe9e7CEA3DedcA5984780Bafc599bD69ADd087D56 */\n  0xe9e7cea3dedca5984780bafc599bd69add087d56\n    /* \"contracts/Smart.sol\":224:289  address public addr1 = 0xe9e7CEA3DedcA5984780Bafc599bD69ADd087D56 */\n  0x01\n  exp(0x0100, 0x00)\n  dup2\n  sload\n  dup2\n  0xffffffffffffffffffffffffffffffffffffffff\n  mul\n  not\n  and\n  swap1\n  dup4\n  0xffffffffffffffffffffffffffffffffffffffff\n  and\n  mul\n  or\n  swap1\n  sstore\n  pop\n    /* \"contracts/Smart.sol\":325:367  0x8AC76a51cc950d9822D68b83fE1Ad97B32Cd580d */\n  0x8ac76a51cc950d9822d68b83fe1ad97b32cd580d\n    /* \"contracts/Smart.sol\":302:367  address public addr2 = 0x8AC76a51cc950d9822D68b83fE1Ad97B32Cd580d */\n  0x02\n  exp(0x0100, 0x00)\n  dup2\n  sload\n  dup2\n  0xffffffffffffffffffffffffffffffffffffffff\n  mul\n  not\n  and\n  swap1\n  dup4\n  0xffffffffffffffffffffffffffffffffffffffff\n  and\n  mul\n  or\n  swap1\n  sstore\n  pop\n    /* \"contracts/Smart.sol\":403:445  0x2170Ed0880ac9A755fd29B2688956BD959F933F8 */\n  0x2170ed0880ac9a755fd29b2688956bd959f933f8\n    /* \"contracts/Smart.sol\":380:445  address public addr3 = 0x2170Ed0880ac9A755fd29B2688956BD959F933F8 */\n  0x03\n  exp(0x0100, 0x00)\n  dup2\n  sload\n  dup2\n  0xffffffffffffffffffffffffffffffffffffffff\n  mul\n  not\n  and\n  swap1\n  dup4\n  0xffffffffffffffffffffffffffffffffffffffff\n  and\n  mul\n  or\n  swap1\n  sstore\n  pop\n    /* \"contracts/Smart.sol\":505:554  constructor() {... */\n  callvalue\n  dup1\n  iszero\n  tag_1\n  jumpi\n  0x00\n  dup1\n  revert\ntag_1:\n  pop\n    /* \"contracts/Smart.sol\":537:547  msg.sender */\n  caller\n    /* \"contracts/Smart.sol\":529:534  owner */\n  0x00\n  dup1\n    /* \"contracts/Smart.sol\":529:547  owner = msg.sender */\n  0x0100\n  exp\n  dup2\n  sload\n  dup2\n  0xffffffffffffffffffffffffffffffffffffffff\n  mul\n  not\n  and\n  swap1\n  dup4\n  0xffffffffffffffffffffffffffffffffffffffff\n  and\n  mul\n  or\n  swap1\n  sstore\n  pop\n    /* \"contracts/Smart.sol\":177:1031  contract Smart {... */\n  dataSize(sub_0)\n  dup1\n  dataOffset(sub_0)\n  0x00\n  codecopy\n  0x00\n  return\nstop\n\nsub_0: assembly {\n        /* \"contracts/Smart.sol\":177:1031  contract Smart {... */\n      mstore(0x40, 0x80)\n      callvalue\n      dup1\n      iszero\n      tag_1\n      jumpi\n      0x00\n      dup1\n      revert\n    tag_1:\n      pop\n      jumpi(tag_2, lt(calldatasize, 0x04))\n      shr(0xe0, calldataload(0x00))\n      dup1\n      0x15070401\n      eq\n      tag_3\n      jumpi\n      dup1\n      0x8da5cb5b\n      eq\n      tag_4\n      jumpi\n      dup1\n      0x8de38f98\n      eq\n      tag_5\n      jumpi\n      dup1\n      0x9347e6d7\n      eq\n      tag_6\n      jumpi\n      dup1\n      0xb759f954\n      eq\n      tag_7\n      jumpi\n      dup1\n      0xeabe09ad\n      eq\n      tag_8\n      jumpi\n    tag_2:\n      0x00\n      dup1\n      revert\n        /* \"contracts/Smart.sol\":561:690  function getSymbol() public view returns (string memory) {... */\n    tag_3:\n      tag_9\n      tag_10\n      jump\t// in\n    tag_9:\n      mload(0x40)\n      tag_11\n      swap2\n      swap1\n      tag_12\n      jump\t// in\n    tag_11:\n      mload(0x40)\n      dup1\n      swap2\n      sub\n      swap1\n      return\n        /* \"contracts/Smart.sol\":198:218  address public owner */\n    tag_4:\n      tag_13\n      tag_14\n      jump\t// in\n    tag_13:\n      mload(0x40)\n      tag_15\n      swap2\n      swap1\n      tag_16\n      jump\t// in\n    tag_15:\n      mload(0x40)\n      dup1\n      swap2\n      sub\n      swap1\n      return\n        /* \"contracts/Smart.sol\":302:367  address public addr2 = 0x8AC76a51cc950d9822D68b83fE1Ad97B32Cd580d */\n    tag_5:\n      tag_17\n      tag_18\n      jump\t// in\n    tag_17:\n      mload(0x40)\n      tag_19\n      swap2\n      swap1\n      tag_16\n      jump\t// in\n    tag_19:\n      mload(0x40)\n      dup1\n      swap2\n      sub\n      swap1\n      return\n        /* \"contracts/Smart.sol\":380:445  address public addr3 = 0x2170Ed0880ac9A755fd29B2688956BD959F933F8 */\n    tag_6:\n      tag_20\n      tag_21\n      jump\t// in\n    tag_20:\n      mload(0x40)\n      tag_22\n      swap2\n      swap1\n      tag_16\n      jump\t// in\n    tag_22:\n      mload(0x40)\n      dup1\n      swap2\n      sub\n      swap1\n      return\n        /* \"contracts/Smart.sol\":697:1028  function approve(uint _value) public returns(bool) {... */\n    tag_7:\n      tag_23\n      0x04\n      dup1\n      calldatasize\n      sub\n      dup2\n      add\n      swap1\n      tag_24\n      swap2\n      swap1\n      tag_25\n      jump\t// in\n    tag_24:\n      tag_26\n      jump\t// in\n    tag_23:\n      mload(0x40)\n      tag_27\n      swap2\n      swap1\n      tag_28\n      jump\t// in\n    tag_27:\n      mload(0x40)\n      dup1\n      swap2\n      sub\n      swap1\n      return\n        /* \"contracts/Smart.sol\":224:289  address public addr1 = 0xe9e7CEA3DedcA5984780Bafc599bD69ADd087D56 */\n    tag_8:\n      tag_29\n      tag_30\n      jump\t// in\n    tag_29:\n      mload(0x40)\n      tag_31\n      swap2\n      swap1\n      tag_16\n      jump\t// in\n    tag_31:\n      mload(0x40)\n      dup1\n      swap2\n      sub\n      swap1\n      return\n        /* \"contracts/Smart.sol\":561:690  function getSymbol() public view returns (string memory) {... */\n    tag_10:\n        /* \"contracts/Smart.sol\":603:616  string memory */\n      0x60\n        /* \"contracts/Smart.sol\":628:638  IBEP20 bep */\n      0x00\n        /* \"contracts/Smart.sol\":648:653  addr2 */\n      0x02\n      0x00\n      swap1\n      sload\n      swap1\n      0x0100\n      exp\n      swap1\n      div\n      0xffffffffffffffffffffffffffffffffffffffff\n      and\n        /* \"contracts/Smart.sol\":628:654  IBEP20 bep = IBEP20(addr2) */\n      swap1\n      pop\n        /* \"contracts/Smart.sol\":671:674  bep */\n      dup1\n        /* \"contracts/Smart.sol\":671:681  bep.symbol */\n      0xffffffffffffffffffffffffffffffffffffffff\n      and\n      0x95d89b41\n        /* \"contracts/Smart.sol\":671:683  bep.symbol() */\n      mload(0x40)\n      dup2\n      0xffffffff\n      and\n      0xe0\n      shl\n      dup2\n      mstore\n      0x04\n      add\n      0x00\n      mload(0x40)\n      dup1\n      dup4\n      sub\n      dup2\n      dup7\n      gas\n      staticcall\n      iszero\n      dup1\n      iszero\n      tag_34\n      jumpi\n      returndatasize\n      0x00\n      dup1\n      returndatacopy\n      revert(0x00, returndatasize)\n    tag_34:\n      pop\n      pop\n      pop\n      pop\n      mload(0x40)\n      returndatasize\n      0x00\n      dup3\n      returndatacopy\n      returndatasize\n      not(0x1f)\n      0x1f\n      dup3\n      add\n      and\n      dup3\n      add\n      dup1\n      0x40\n      mstore\n      pop\n      dup2\n      add\n      swap1\n      tag_35\n      swap2\n      swap1\n      tag_36\n      jump\t// in\n    tag_35:\n        /* \"contracts/Smart.sol\":664:683  return bep.symbol() */\n      swap2\n      pop\n      pop\n        /* \"contracts/Smart.sol\":561:690  function getSymbol() public view returns (string memory) {... */\n      swap1\n      jump\t// out\n        /* \"contracts/Smart.sol\":198:218  address public owner */\n    tag_14:\n      0x00\n      dup1\n      sload\n      swap1\n      0x0100\n      exp\n      swap1\n      div\n      0xffffffffffffffffffffffffffffffffffffffff\n      and\n      dup2\n      jump\t// out\n        /* \"contracts/Smart.sol\":302:367  address public addr2 = 0x8AC76a51cc950d9822D68b83fE1Ad97B32Cd580d */\n    tag_18:\n      0x02\n      0x00\n      swap1\n      sload\n      swap1\n      0x0100\n      exp\n      swap1\n      div\n      0xffffffffffffffffffffffffffffffffffffffff\n      and\n      dup2\n      jump\t// out\n        /* \"contracts/Smart.sol\":380:445  address public addr3 = 0x2170Ed0880ac9A755fd29B2688956BD959F933F8 */\n    tag_21:\n      0x03\n      0x00\n      swap1\n      sload\n      swap1\n      0x0100\n      exp\n      swap1\n      div\n      0xffffffffffffffffffffffffffffffffffffffff\n      and\n      dup2\n      jump\t// out\n        /* \"contracts/Smart.sol\":697:1028  function approve(uint _value) public returns(bool) {... */\n    tag_26:\n        /* \"contracts/Smart.sol\":742:746  bool */\n      0x00\n        /* \"contracts/Smart.sol\":758:774  IBEP20 busdToken */\n      dup1\n        /* \"contracts/Smart.sol\":784:789  addr1 */\n      0x01\n      0x00\n      swap1\n      sload\n      swap1\n      0x0100\n      exp\n      swap1\n      div\n      0xffffffffffffffffffffffffffffffffffffffff\n      and\n        /* \"contracts/Smart.sol\":758:790  IBEP20 busdToken = IBEP20(addr1) */\n      swap1\n      pop\n        /* \"contracts/Smart.sol\":800:816  IBEP20 usdcToken */\n      0x00\n        /* \"contracts/Smart.sol\":826:831  addr2 */\n      0x02\n      0x00\n      swap1\n      sload\n      swap1\n      0x0100\n      exp\n      swap1\n      div\n      0xffffffffffffffffffffffffffffffffffffffff\n      and\n        /* \"contracts/Smart.sol\":800:832  IBEP20 usdcToken = IBEP20(addr2) */\n      swap1\n      pop\n        /* \"contracts/Smart.sol\":842:857  IBEP20 ethToken */\n      0x00\n        /* \"contracts/Smart.sol\":867:872  addr3 */\n      0x03\n      0x00\n      swap1\n      sload\n      swap1\n      0x0100\n      exp\n      swap1\n      div\n      0xffffffffffffffffffffffffffffffffffffffff\n      and\n        /* \"contracts/Smart.sol\":842:873  IBEP20 ethToken = IBEP20(addr3) */\n      swap1\n      pop\n        /* \"contracts/Smart.sol\":884:893  busdToken */\n      dup3\n        /* \"contracts/Smart.sol\":884:901  busdToken.approve */\n      0xffffffffffffffffffffffffffffffffffffffff\n      and\n      0x095ea7b3\n        /* \"contracts/Smart.sol\":902:907  owner */\n      0x00\n      dup1\n      sload\n      swap1\n      0x0100\n      exp\n      swap1\n      div\n      0xffffffffffffffffffffffffffffffffffffffff\n      and\n        /* \"contracts/Smart.sol\":909:915  _value */\n      dup8\n        /* \"contracts/Smart.sol\":884:916  busdToken.approve(owner, _value) */\n      mload(0x40)\n      dup4\n      0xffffffff\n      and\n      0xe0\n      shl\n      dup2\n      mstore\n      0x04\n      add\n      tag_38\n      swap3\n      swap2\n      swap1\n      tag_39\n      jump\t// in\n    tag_38:\n      0x20\n      mload(0x40)\n      dup1\n      dup4\n      sub\n      dup2\n      0x00\n      dup8\n      gas\n      call\n      iszero\n      dup1\n      iszero\n      tag_41\n      jumpi\n      returndatasize\n      0x00\n      dup1\n      returndatacopy\n      revert(0x00, returndatasize)\n    tag_41:\n      pop\n      pop\n      pop\n      pop\n      mload(0x40)\n      returndatasize\n      not(0x1f)\n      0x1f\n      dup3\n      add\n      and\n      dup3\n      add\n      dup1\n      0x40\n      mstore\n      pop\n      dup2\n      add\n      swap1\n      tag_42\n      swap2\n      swap1\n      tag_43\n      jump\t// in\n    tag_42:\n      pop\n        /* \"contracts/Smart.sol\":926:935  usdcToken */\n      dup2\n        /* \"contracts/Smart.sol\":926:943  usdcToken.approve */\n      0xffffffffffffffffffffffffffffffffffffffff\n      and\n      0x095ea7b3\n        /* \"contracts/Smart.sol\":944:949  owner */\n      0x00\n      dup1\n      sload\n      swap1\n      0x0100\n      exp\n      swap1\n      div\n      0xffffffffffffffffffffffffffffffffffffffff\n      and\n        /* \"contracts/Smart.sol\":951:957  _value */\n      dup8\n        /* \"contracts/Smart.sol\":926:958  usdcToken.approve(owner, _value) */\n      mload(0x40)\n      dup4\n      0xffffffff\n      and\n      0xe0\n      shl\n      dup2\n      mstore\n      0x04\n      add\n      tag_44\n      swap3\n      swap2\n      swap1\n      tag_39\n      jump\t// in\n    tag_44:\n      0x20\n      mload(0x40)\n      dup1\n      dup4\n      sub\n      dup2\n      0x00\n      dup8\n      gas\n      call\n      iszero\n      dup1\n      iszero\n      tag_46\n      jumpi\n      returndatasize\n      0x00\n      dup1\n      returndatacopy\n      revert(0x00, returndatasize)\n    tag_46:\n      pop\n      pop\n      pop\n      pop\n      mload(0x40)\n      returndatasize\n      not(0x1f)\n      0x1f\n      dup3\n      add\n      and\n      dup3\n      add\n      dup1\n      0x40\n      mstore\n      pop\n      dup2\n      add\n      swap1\n      tag_47\n      swap2\n      swap1\n      tag_43\n      jump\t// in\n    tag_47:\n      pop\n        /* \"contracts/Smart.sol\":968:976  ethToken */\n      dup1\n        /* \"contracts/Smart.sol\":968:984  ethToken.approve */\n      0xffffffffffffffffffffffffffffffffffffffff\n      and\n      0x095ea7b3\n        /* \"contracts/Smart.sol\":985:990  owner */\n      0x00\n      dup1\n      sload\n      swap1\n      0x0100\n      exp\n      swap1\n      div\n      0xffffffffffffffffffffffffffffffffffffffff\n      and\n        /* \"contracts/Smart.sol\":992:998  _value */\n      dup8\n        /* \"contracts/Smart.sol\":968:999  ethToken.approve(owner, _value) */\n      mload(0x40)\n      dup4\n      0xffffffff\n      and\n      0xe0\n      shl\n      dup2\n      mstore\n      0x04\n      add\n      tag_48\n      swap3\n      swap2\n      swap1\n      tag_39\n      jump\t// in\n    tag_48:\n      0x20\n      mload(0x40)\n      dup1\n      dup4\n      sub\n      dup2\n      0x00\n      dup8\n      gas\n      call\n      iszero\n      dup1\n      iszero\n      tag_50\n      jumpi\n      returndatasize\n      0x00\n      dup1\n      returndatacopy\n      revert(0x00, returndatasize)\n    tag_50:\n      pop\n      pop\n      pop\n      pop\n      mload(0x40)\n      returndatasize\n      not(0x1f)\n      0x1f\n      dup3\n      add\n      and\n      dup3\n      add\n      dup1\n      0x40\n      mstore\n      pop\n      dup2\n      add\n      swap1\n      tag_51\n      swap2\n      swap1\n      tag_43\n      jump\t// in\n    tag_51:\n      pop\n        /* \"contracts/Smart.sol\":1017:1021  true */\n      0x01\n        /* \"contracts/Smart.sol\":1010:1021  return true */\n      swap4\n      pop\n      pop\n      pop\n      pop\n        /* \"contracts/Smart.sol\":697:1028  function approve(uint _value) public returns(bool) {... */\n      swap2\n      swap1\n      pop\n      jump\t// out\n        /* \"contracts/Smart.sol\":224:289  address public addr1 = 0xe9e7CEA3DedcA5984780Bafc599bD69ADd087D56 */\n    tag_30:\n      0x01\n      0x00\n      swap1\n      sload\n      swap1\n      0x0100\n      exp\n      swap1\n      div\n      0xffffffffffffffffffffffffffffffffffffffff\n      and\n      dup2\n      jump\t// out\n        /* \"#utility.yul\":7:106   */\n    tag_52:\n        /* \"#utility.yul\":59:65   */\n      0x00\n        /* \"#utility.yul\":93:98   */\n      dup2\n        /* \"#utility.yul\":87:99   */\n      mload\n        /* \"#utility.yul\":77:99   */\n      swap1\n      pop\n        /* \"#utility.yul\":7:106   */\n      swap2\n      swap1\n      pop\n      jump\t// out\n        /* \"#utility.yul\":112:281   */\n    tag_53:\n        /* \"#utility.yul\":196:207   */\n      0x00\n        /* \"#utility.yul\":230:236   */\n      dup3\n        /* \"#utility.yul\":225:228   */\n      dup3\n        /* \"#utility.yul\":218:237   */\n      mstore\n        /* \"#utility.yul\":270:274   */\n      0x20\n        /* \"#utility.yul\":265:268   */\n      dup3\n        /* \"#utility.yul\":261:275   */\n      add\n        /* \"#utility.yul\":246:275   */\n      swap1\n      pop\n        /* \"#utility.yul\":112:281   */\n      swap3\n      swap2\n      pop\n      pop\n      jump\t// out\n        /* \"#utility.yul\":287:594   */\n    tag_54:\n        /* \"#utility.yul\":355:356   */\n      0x00\n        /* \"#utility.yul\":365:478   */\n    tag_83:\n        /* \"#utility.yul\":379:385   */\n      dup4\n        /* \"#utility.yul\":376:377   */\n      dup2\n        /* \"#utility.yul\":373:386   */\n      lt\n        /* \"#utility.yul\":365:478   */\n      iszero\n      tag_85\n      jumpi\n        /* \"#utility.yul\":464:465   */\n      dup1\n        /* \"#utility.yul\":459:462   */\n      dup3\n        /* \"#utility.yul\":455:466   */\n      add\n        /* \"#utility.yul\":449:467   */\n      mload\n        /* \"#utility.yul\":445:446   */\n      dup2\n        /* \"#utility.yul\":440:443   */\n      dup5\n        /* \"#utility.yul\":436:447   */\n      add\n        /* \"#utility.yul\":429:468   */\n      mstore\n        /* \"#utility.yul\":401:403   */\n      0x20\n        /* \"#utility.yul\":398:399   */\n      dup2\n        /* \"#utility.yul\":394:404   */\n      add\n        /* \"#utility.yul\":389:404   */\n      swap1\n      pop\n        /* \"#utility.yul\":365:478   */\n      jump(tag_83)\n    tag_85:\n        /* \"#utility.yul\":496:502   */\n      dup4\n        /* \"#utility.yul\":493:494   */\n      dup2\n        /* \"#utility.yul\":490:503   */\n      gt\n        /* \"#utility.yul\":487:588   */\n      iszero\n      tag_86\n      jumpi\n        /* \"#utility.yul\":576:577   */\n      0x00\n        /* \"#utility.yul\":567:573   */\n      dup5\n        /* \"#utility.yul\":562:565   */\n      dup5\n        /* \"#utility.yul\":558:574   */\n      add\n        /* \"#utility.yul\":551:578   */\n      mstore\n        /* \"#utility.yul\":487:588   */\n    tag_86:\n        /* \"#utility.yul\":336:594   */\n      pop\n        /* \"#utility.yul\":287:594   */\n      pop\n      pop\n      pop\n      jump\t// out\n        /* \"#utility.yul\":600:702   */\n    tag_55:\n        /* \"#utility.yul\":641:647   */\n      0x00\n        /* \"#utility.yul\":692:694   */\n      0x1f\n        /* \"#utility.yul\":688:695   */\n      not\n        /* \"#utility.yul\":683:685   */\n      0x1f\n        /* \"#utility.yul\":676:681   */\n      dup4\n        /* \"#utility.yul\":672:686   */\n      add\n        /* \"#utility.yul\":668:696   */\n      and\n        /* \"#utility.yul\":658:696   */\n      swap1\n      pop\n        /* \"#utility.yul\":600:702   */\n      swap2\n      swap1\n      pop\n      jump\t// out\n        /* \"#utility.yul\":708:1072   */\n    tag_56:\n        /* \"#utility.yul\":796:799   */\n      0x00\n        /* \"#utility.yul\":824:863   */\n      tag_89\n        /* \"#utility.yul\":857:862   */\n      dup3\n        /* \"#utility.yul\":824:863   */\n      tag_52\n      jump\t// in\n    tag_89:\n        /* \"#utility.yul\":879:950   */\n      tag_90\n        /* \"#utility.yul\":943:949   */\n      dup2\n        /* \"#utility.yul\":938:941   */\n      dup6\n        /* \"#utility.yul\":879:950   */\n      tag_53\n      jump\t// in\n    tag_90:\n        /* \"#utility.yul\":872:950   */\n      swap4\n      pop\n        /* \"#utility.yul\":959:1011   */\n      tag_91\n        /* \"#utility.yul\":1004:1010   */\n      dup2\n        /* \"#utility.yul\":999:1002   */\n      dup6\n        /* \"#utility.yul\":992:996   */\n      0x20\n        /* \"#utility.yul\":985:990   */\n      dup7\n        /* \"#utility.yul\":981:997   */\n      add\n        /* \"#utility.yul\":959:1011   */\n      tag_54\n      jump\t// in\n    tag_91:\n        /* \"#utility.yul\":1036:1065   */\n      tag_92\n        /* \"#utility.yul\":1058:1064   */\n      dup2\n        /* \"#utility.yul\":1036:1065   */\n      tag_55\n      jump\t// in\n    tag_92:\n        /* \"#utility.yul\":1031:1034   */\n      dup5\n        /* \"#utility.yul\":1027:1066   */\n      add\n        /* \"#utility.yul\":1020:1066   */\n      swap2\n      pop\n        /* \"#utility.yul\":800:1072   */\n      pop\n        /* \"#utility.yul\":708:1072   */\n      swap3\n      swap2\n      pop\n      pop\n      jump\t// out\n        /* \"#utility.yul\":1078:1391   */\n    tag_12:\n        /* \"#utility.yul\":1191:1195   */\n      0x00\n        /* \"#utility.yul\":1229:1231   */\n      0x20\n        /* \"#utility.yul\":1218:1227   */\n      dup3\n        /* \"#utility.yul\":1214:1232   */\n      add\n        /* \"#utility.yul\":1206:1232   */\n      swap1\n      pop\n        /* \"#utility.yul\":1278:1287   */\n      dup2\n        /* \"#utility.yul\":1272:1276   */\n      dup2\n        /* \"#utility.yul\":1268:1288   */\n      sub\n        /* \"#utility.yul\":1264:1265   */\n      0x00\n        /* \"#utility.yul\":1253:1262   */\n      dup4\n        /* \"#utility.yul\":1249:1266   */\n      add\n        /* \"#utility.yul\":1242:1289   */\n      mstore\n        /* \"#utility.yul\":1306:1384   */\n      tag_94\n        /* \"#utility.yul\":1379:1383   */\n      dup2\n        /* \"#utility.yul\":1370:1376   */\n      dup5\n        /* \"#utility.yul\":1306:1384   */\n      tag_56\n      jump\t// in\n    tag_94:\n        /* \"#utility.yul\":1298:1384   */\n      swap1\n      pop\n        /* \"#utility.yul\":1078:1391   */\n      swap3\n      swap2\n      pop\n      pop\n      jump\t// out\n        /* \"#utility.yul\":1397:1523   */\n    tag_57:\n        /* \"#utility.yul\":1434:1441   */\n      0x00\n        /* \"#utility.yul\":1474:1516   */\n      0xffffffffffffffffffffffffffffffffffffffff\n        /* \"#utility.yul\":1467:1472   */\n      dup3\n        /* \"#utility.yul\":1463:1517   */\n      and\n        /* \"#utility.yul\":1452:1517   */\n      swap1\n      pop\n        /* \"#utility.yul\":1397:1523   */\n      swap2\n      swap1\n      pop\n      jump\t// out\n        /* \"#utility.yul\":1529:1625   */\n    tag_58:\n        /* \"#utility.yul\":1566:1573   */\n      0x00\n        /* \"#utility.yul\":1595:1619   */\n      tag_97\n        /* \"#utility.yul\":1613:1618   */\n      dup3\n        /* \"#utility.yul\":1595:1619   */\n      tag_57\n      jump\t// in\n    tag_97:\n        /* \"#utility.yul\":1584:1619   */\n      swap1\n      pop\n        /* \"#utility.yul\":1529:1625   */\n      swap2\n      swap1\n      pop\n      jump\t// out\n        /* \"#utility.yul\":1631:1749   */\n    tag_59:\n        /* \"#utility.yul\":1718:1742   */\n      tag_99\n        /* \"#utility.yul\":1736:1741   */\n      dup2\n        /* \"#utility.yul\":1718:1742   */\n      tag_58\n      jump\t// in\n    tag_99:\n        /* \"#utility.yul\":1713:1716   */\n      dup3\n        /* \"#utility.yul\":1706:1743   */\n      mstore\n        /* \"#utility.yul\":1631:1749   */\n      pop\n      pop\n      jump\t// out\n        /* \"#utility.yul\":1755:1977   */\n    tag_16:\n        /* \"#utility.yul\":1848:1852   */\n      0x00\n        /* \"#utility.yul\":1886:1888   */\n      0x20\n        /* \"#utility.yul\":1875:1884   */\n      dup3\n        /* \"#utility.yul\":1871:1889   */\n      add\n        /* \"#utility.yul\":1863:1889   */\n      swap1\n      pop\n        /* \"#utility.yul\":1899:1970   */\n      tag_101\n        /* \"#utility.yul\":1967:1968   */\n      0x00\n        /* \"#utility.yul\":1956:1965   */\n      dup4\n        /* \"#utility.yul\":1952:1969   */\n      add\n        /* \"#utility.yul\":1943:1949   */\n      dup5\n        /* \"#utility.yul\":1899:1970   */\n      tag_59\n      jump\t// in\n    tag_101:\n        /* \"#utility.yul\":1755:1977   */\n      swap3\n      swap2\n      pop\n      pop\n      jump\t// out\n        /* \"#utility.yul\":1983:2058   */\n    tag_60:\n        /* \"#utility.yul\":2016:2022   */\n      0x00\n        /* \"#utility.yul\":2049:2051   */\n      0x40\n        /* \"#utility.yul\":2043:2052   */\n      mload\n        /* \"#utility.yul\":2033:2052   */\n      swap1\n      pop\n        /* \"#utility.yul\":1983:2058   */\n      swap1\n      jump\t// out\n        /* \"#utility.yul\":2064:2181   */\n    tag_61:\n        /* \"#utility.yul\":2173:2174   */\n      0x00\n        /* \"#utility.yul\":2170:2171   */\n      dup1\n        /* \"#utility.yul\":2163:2175   */\n      revert\n        /* \"#utility.yul\":2187:2304   */\n    tag_62:\n        /* \"#utility.yul\":2296:2297   */\n      0x00\n        /* \"#utility.yul\":2293:2294   */\n      dup1\n        /* \"#utility.yul\":2286:2298   */\n      revert\n        /* \"#utility.yul\":2310:2387   */\n    tag_63:\n        /* \"#utility.yul\":2347:2354   */\n      0x00\n        /* \"#utility.yul\":2376:2381   */\n      dup2\n        /* \"#utility.yul\":2365:2381   */\n      swap1\n      pop\n        /* \"#utility.yul\":2310:2387   */\n      swap2\n      swap1\n      pop\n      jump\t// out\n        /* \"#utility.yul\":2393:2515   */\n    tag_64:\n        /* \"#utility.yul\":2466:2490   */\n      tag_107\n        /* \"#utility.yul\":2484:2489   */\n      dup2\n        /* \"#utility.yul\":2466:2490   */\n      tag_63\n      jump\t// in\n    tag_107:\n        /* \"#utility.yul\":2459:2464   */\n      dup2\n        /* \"#utility.yul\":2456:2491   */\n      eq\n        /* \"#utility.yul\":2446:2509   */\n      tag_108\n      jumpi\n        /* \"#utility.yul\":2505:2506   */\n      0x00\n        /* \"#utility.yul\":2502:2503   */\n      dup1\n        /* \"#utility.yul\":2495:2507   */\n      revert\n        /* \"#utility.yul\":2446:2509   */\n    tag_108:\n        /* \"#utility.yul\":2393:2515   */\n      pop\n      jump\t// out\n        /* \"#utility.yul\":2521:2660   */\n    tag_65:\n        /* \"#utility.yul\":2567:2572   */\n      0x00\n        /* \"#utility.yul\":2605:2611   */\n      dup2\n        /* \"#utility.yul\":2592:2612   */\n      calldataload\n        /* \"#utility.yul\":2583:2612   */\n      swap1\n      pop\n        /* \"#utility.yul\":2621:2654   */\n      tag_110\n        /* \"#utility.yul\":2648:2653   */\n      dup2\n        /* \"#utility.yul\":2621:2654   */\n      tag_64\n      jump\t// in\n    tag_110:\n        /* \"#utility.yul\":2521:2660   */\n      swap3\n      swap2\n      pop\n      pop\n      jump\t// out\n        /* \"#utility.yul\":2666:2995   */\n    tag_25:\n        /* \"#utility.yul\":2725:2731   */\n      0x00\n        /* \"#utility.yul\":2774:2776   */\n      0x20\n        /* \"#utility.yul\":2762:2771   */\n      dup3\n        /* \"#utility.yul\":2753:2760   */\n      dup5\n        /* \"#utility.yul\":2749:2772   */\n      sub\n        /* \"#utility.yul\":2745:2777   */\n      slt\n        /* \"#utility.yul\":2742:2861   */\n      iszero\n      tag_112\n      jumpi\n        /* \"#utility.yul\":2780:2859   */\n      tag_113\n      tag_61\n      jump\t// in\n    tag_113:\n        /* \"#utility.yul\":2742:2861   */\n    tag_112:\n        /* \"#utility.yul\":2900:2901   */\n      0x00\n        /* \"#utility.yul\":2925:2978   */\n      tag_114\n        /* \"#utility.yul\":2970:2977   */\n      dup5\n        /* \"#utility.yul\":2961:2967   */\n      dup3\n        /* \"#utility.yul\":2950:2959   */\n      dup6\n        /* \"#utility.yul\":2946:2968   */\n      add\n        /* \"#utility.yul\":2925:2978   */\n      tag_65\n      jump\t// in\n    tag_114:\n        /* \"#utility.yul\":2915:2978   */\n      swap2\n      pop\n        /* \"#utility.yul\":2871:2988   */\n      pop\n        /* \"#utility.yul\":2666:2995   */\n      swap3\n      swap2\n      pop\n      pop\n      jump\t// out\n        /* \"#utility.yul\":3001:3091   */\n    tag_66:\n        /* \"#utility.yul\":3035:3042   */\n      0x00\n        /* \"#utility.yul\":3078:3083   */\n      dup2\n        /* \"#utility.yul\":3071:3084   */\n      iszero\n        /* \"#utility.yul\":3064:3085   */\n      iszero\n        /* \"#utility.yul\":3053:3085   */\n      swap1\n      pop\n        /* \"#utility.yul\":3001:3091   */\n      swap2\n      swap1\n      pop\n      jump\t// out\n        /* \"#utility.yul\":3097:3206   */\n    tag_67:\n        /* \"#utility.yul\":3178:3199   */\n      tag_117\n        /* \"#utility.yul\":3193:3198   */\n      dup2\n        /* \"#utility.yul\":3178:3199   */\n      tag_66\n      jump\t// in\n    tag_117:\n        /* \"#utility.yul\":3173:3176   */\n      dup3\n        /* \"#utility.yul\":3166:3200   */\n      mstore\n        /* \"#utility.yul\":3097:3206   */\n      pop\n      pop\n      jump\t// out\n        /* \"#utility.yul\":3212:3422   */\n    tag_28:\n        /* \"#utility.yul\":3299:3303   */\n      0x00\n        /* \"#utility.yul\":3337:3339   */\n      0x20\n        /* \"#utility.yul\":3326:3335   */\n      dup3\n        /* \"#utility.yul\":3322:3340   */\n      add\n        /* \"#utility.yul\":3314:3340   */\n      swap1\n      pop\n        /* \"#utility.yul\":3350:3415   */\n      tag_119\n        /* \"#utility.yul\":3412:3413   */\n      0x00\n        /* \"#utility.yul\":3401:3410   */\n      dup4\n        /* \"#utility.yul\":3397:3414   */\n      add\n        /* \"#utility.yul\":3388:3394   */\n      dup5\n        /* \"#utility.yul\":3350:3415   */\n      tag_67\n      jump\t// in\n    tag_119:\n        /* \"#utility.yul\":3212:3422   */\n      swap3\n      swap2\n      pop\n      pop\n      jump\t// out\n        /* \"#utility.yul\":3428:3545   */\n    tag_68:\n        /* \"#utility.yul\":3537:3538   */\n      0x00\n        /* \"#utility.yul\":3534:3535   */\n      dup1\n        /* \"#utility.yul\":3527:3539   */\n      revert\n        /* \"#utility.yul\":3551:3668   */\n    tag_69:\n        /* \"#utility.yul\":3660:3661   */\n      0x00\n        /* \"#utility.yul\":3657:3658   */\n      dup1\n        /* \"#utility.yul\":3650:3662   */\n      revert\n        /* \"#utility.yul\":3674:3854   */\n    tag_70:\n        /* \"#utility.yul\":3722:3799   */\n      0x4e487b7100000000000000000000000000000000000000000000000000000000\n        /* \"#utility.yul\":3719:3720   */\n      0x00\n        /* \"#utility.yul\":3712:3800   */\n      mstore\n        /* \"#utility.yul\":3819:3823   */\n      0x41\n        /* \"#utility.yul\":3816:3817   */\n      0x04\n        /* \"#utility.yul\":3809:3824   */\n      mstore\n        /* \"#utility.yul\":3843:3847   */\n      0x24\n        /* \"#utility.yul\":3840:3841   */\n      0x00\n        /* \"#utility.yul\":3833:3848   */\n      revert\n        /* \"#utility.yul\":3860:4141   */\n    tag_71:\n        /* \"#utility.yul\":3943:3970   */\n      tag_124\n        /* \"#utility.yul\":3965:3969   */\n      dup3\n        /* \"#utility.yul\":3943:3970   */\n      tag_55\n      jump\t// in\n    tag_124:\n        /* \"#utility.yul\":3935:3941   */\n      dup2\n        /* \"#utility.yul\":3931:3971   */\n      add\n        /* \"#utility.yul\":4073:4079   */\n      dup2\n        /* \"#utility.yul\":4061:4071   */\n      dup2\n        /* \"#utility.yul\":4058:4080   */\n      lt\n        /* \"#utility.yul\":4037:4055   */\n      0xffffffffffffffff\n        /* \"#utility.yul\":4025:4035   */\n      dup3\n        /* \"#utility.yul\":4022:4056   */\n      gt\n        /* \"#utility.yul\":4019:4081   */\n      or\n        /* \"#utility.yul\":4016:4104   */\n      iszero\n      tag_125\n      jumpi\n        /* \"#utility.yul\":4084:4102   */\n      tag_126\n      tag_70\n      jump\t// in\n    tag_126:\n        /* \"#utility.yul\":4016:4104   */\n    tag_125:\n        /* \"#utility.yul\":4124:4134   */\n      dup1\n        /* \"#utility.yul\":4120:4122   */\n      0x40\n        /* \"#utility.yul\":4113:4135   */\n      mstore\n        /* \"#utility.yul\":3903:4141   */\n      pop\n        /* \"#utility.yul\":3860:4141   */\n      pop\n      pop\n      jump\t// out\n        /* \"#utility.yul\":4147:4276   */\n    tag_72:\n        /* \"#utility.yul\":4181:4187   */\n      0x00\n        /* \"#utility.yul\":4208:4228   */\n      tag_128\n      tag_60\n      jump\t// in\n    tag_128:\n        /* \"#utility.yul\":4198:4228   */\n      swap1\n      pop\n        /* \"#utility.yul\":4237:4270   */\n      tag_129\n        /* \"#utility.yul\":4265:4269   */\n      dup3\n        /* \"#utility.yul\":4257:4263   */\n      dup3\n        /* \"#utility.yul\":4237:4270   */\n      tag_71\n      jump\t// in\n    tag_129:\n        /* \"#utility.yul\":4147:4276   */\n      swap2\n      swap1\n      pop\n      jump\t// out\n        /* \"#utility.yul\":4282:4590   */\n    tag_73:\n        /* \"#utility.yul\":4344:4348   */\n      0x00\n        /* \"#utility.yul\":4434:4452   */\n      0xffffffffffffffff\n        /* \"#utility.yul\":4426:4432   */\n      dup3\n        /* \"#utility.yul\":4423:4453   */\n      gt\n        /* \"#utility.yul\":4420:4476   */\n      iszero\n      tag_131\n      jumpi\n        /* \"#utility.yul\":4456:4474   */\n      tag_132\n      tag_70\n      jump\t// in\n    tag_132:\n        /* \"#utility.yul\":4420:4476   */\n    tag_131:\n        /* \"#utility.yul\":4494:4523   */\n      tag_133\n        /* \"#utility.yul\":4516:4522   */\n      dup3\n        /* \"#utility.yul\":4494:4523   */\n      tag_55\n      jump\t// in\n    tag_133:\n        /* \"#utility.yul\":4486:4523   */\n      swap1\n      pop\n        /* \"#utility.yul\":4578:4582   */\n      0x20\n        /* \"#utility.yul\":4572:4576   */\n      dup2\n        /* \"#utility.yul\":4568:4583   */\n      add\n        /* \"#utility.yul\":4560:4583   */\n      swap1\n      pop\n        /* \"#utility.yul\":4282:4590   */\n      swap2\n      swap1\n      pop\n      jump\t// out\n        /* \"#utility.yul\":4596:5017   */\n    tag_74:\n        /* \"#utility.yul\":4685:4690   */\n      0x00\n        /* \"#utility.yul\":4710:4776   */\n      tag_135\n        /* \"#utility.yul\":4726:4775   */\n      tag_136\n        /* \"#utility.yul\":4768:4774   */\n      dup5\n        /* \"#utility.yul\":4726:4775   */\n      tag_73\n      jump\t// in\n    tag_136:\n        /* \"#utility.yul\":4710:4776   */\n      tag_72\n      jump\t// in\n    tag_135:\n        /* \"#utility.yul\":4701:4776   */\n      swap1\n      pop\n        /* \"#utility.yul\":4799:4805   */\n      dup3\n        /* \"#utility.yul\":4792:4797   */\n      dup2\n        /* \"#utility.yul\":4785:4806   */\n      mstore\n        /* \"#utility.yul\":4837:4841   */\n      0x20\n        /* \"#utility.yul\":4830:4835   */\n      dup2\n        /* \"#utility.yul\":4826:4842   */\n      add\n        /* \"#utility.yul\":4875:4878   */\n      dup5\n        /* \"#utility.yul\":4866:4872   */\n      dup5\n        /* \"#utility.yul\":4861:4864   */\n      dup5\n        /* \"#utility.yul\":4857:4873   */\n      add\n        /* \"#utility.yul\":4854:4879   */\n      gt\n        /* \"#utility.yul\":4851:4963   */\n      iszero\n      tag_137\n      jumpi\n        /* \"#utility.yul\":4882:4961   */\n      tag_138\n      tag_69\n      jump\t// in\n    tag_138:\n        /* \"#utility.yul\":4851:4963   */\n    tag_137:\n        /* \"#utility.yul\":4972:5011   */\n      tag_139\n        /* \"#utility.yul\":5004:5010   */\n      dup5\n        /* \"#utility.yul\":4999:5002   */\n      dup3\n        /* \"#utility.yul\":4994:4997   */\n      dup6\n        /* \"#utility.yul\":4972:5011   */\n      tag_54\n      jump\t// in\n    tag_139:\n        /* \"#utility.yul\":4691:5017   */\n      pop\n        /* \"#utility.yul\":4596:5017   */\n      swap4\n      swap3\n      pop\n      pop\n      pop\n      jump\t// out\n        /* \"#utility.yul\":5037:5392   */\n    tag_75:\n        /* \"#utility.yul\":5104:5109   */\n      0x00\n        /* \"#utility.yul\":5153:5156   */\n      dup3\n        /* \"#utility.yul\":5146:5150   */\n      0x1f\n        /* \"#utility.yul\":5138:5144   */\n      dup4\n        /* \"#utility.yul\":5134:5151   */\n      add\n        /* \"#utility.yul\":5130:5157   */\n      slt\n        /* \"#utility.yul\":5120:5242   */\n      tag_141\n      jumpi\n        /* \"#utility.yul\":5161:5240   */\n      tag_142\n      tag_68\n      jump\t// in\n    tag_142:\n        /* \"#utility.yul\":5120:5242   */\n    tag_141:\n        /* \"#utility.yul\":5271:5277   */\n      dup2\n        /* \"#utility.yul\":5265:5278   */\n      mload\n        /* \"#utility.yul\":5296:5386   */\n      tag_143\n        /* \"#utility.yul\":5382:5385   */\n      dup5\n        /* \"#utility.yul\":5374:5380   */\n      dup3\n        /* \"#utility.yul\":5367:5371   */\n      0x20\n        /* \"#utility.yul\":5359:5365   */\n      dup7\n        /* \"#utility.yul\":5355:5372   */\n      add\n        /* \"#utility.yul\":5296:5386   */\n      tag_74\n      jump\t// in\n    tag_143:\n        /* \"#utility.yul\":5287:5386   */\n      swap2\n      pop\n        /* \"#utility.yul\":5110:5392   */\n      pop\n        /* \"#utility.yul\":5037:5392   */\n      swap3\n      swap2\n      pop\n      pop\n      jump\t// out\n        /* \"#utility.yul\":5398:5922   */\n    tag_36:\n        /* \"#utility.yul\":5478:5484   */\n      0x00\n        /* \"#utility.yul\":5527:5529   */\n      0x20\n        /* \"#utility.yul\":5515:5524   */\n      dup3\n        /* \"#utility.yul\":5506:5513   */\n      dup5\n        /* \"#utility.yul\":5502:5525   */\n      sub\n        /* \"#utility.yul\":5498:5530   */\n      slt\n        /* \"#utility.yul\":5495:5614   */\n      iszero\n      tag_145\n      jumpi\n        /* \"#utility.yul\":5533:5612   */\n      tag_146\n      tag_61\n      jump\t// in\n    tag_146:\n        /* \"#utility.yul\":5495:5614   */\n    tag_145:\n        /* \"#utility.yul\":5674:5675   */\n      0x00\n        /* \"#utility.yul\":5663:5672   */\n      dup3\n        /* \"#utility.yul\":5659:5676   */\n      add\n        /* \"#utility.yul\":5653:5677   */\n      mload\n        /* \"#utility.yul\":5704:5722   */\n      0xffffffffffffffff\n        /* \"#utility.yul\":5696:5702   */\n      dup2\n        /* \"#utility.yul\":5693:5723   */\n      gt\n        /* \"#utility.yul\":5690:5807   */\n      iszero\n      tag_147\n      jumpi\n        /* \"#utility.yul\":5726:5805   */\n      tag_148\n      tag_62\n      jump\t// in\n    tag_148:\n        /* \"#utility.yul\":5690:5807   */\n    tag_147:\n        /* \"#utility.yul\":5831:5905   */\n      tag_149\n        /* \"#utility.yul\":5897:5904   */\n      dup5\n        /* \"#utility.yul\":5888:5894   */\n      dup3\n        /* \"#utility.yul\":5877:5886   */\n      dup6\n        /* \"#utility.yul\":5873:5895   */\n      add\n        /* \"#utility.yul\":5831:5905   */\n      tag_75\n      jump\t// in\n    tag_149:\n        /* \"#utility.yul\":5821:5905   */\n      swap2\n      pop\n        /* \"#utility.yul\":5624:5915   */\n      pop\n        /* \"#utility.yul\":5398:5922   */\n      swap3\n      swap2\n      pop\n      pop\n      jump\t// out\n        /* \"#utility.yul\":5928:6046   */\n    tag_76:\n        /* \"#utility.yul\":6015:6039   */\n      tag_151\n        /* \"#utility.yul\":6033:6038   */\n      dup2\n        /* \"#utility.yul\":6015:6039   */\n      tag_63\n      jump\t// in\n    tag_151:\n        /* \"#utility.yul\":6010:6013   */\n      dup3\n        /* \"#utility.yul\":6003:6040   */\n      mstore\n        /* \"#utility.yul\":5928:6046   */\n      pop\n      pop\n      jump\t// out\n        /* \"#utility.yul\":6052:6384   */\n    tag_39:\n        /* \"#utility.yul\":6173:6177   */\n      0x00\n        /* \"#utility.yul\":6211:6213   */\n      0x40\n        /* \"#utility.yul\":6200:6209   */\n      dup3\n        /* \"#utility.yul\":6196:6214   */\n      add\n        /* \"#utility.yul\":6188:6214   */\n      swap1\n      pop\n        /* \"#utility.yul\":6224:6295   */\n      tag_153\n        /* \"#utility.yul\":6292:6293   */\n      0x00\n        /* \"#utility.yul\":6281:6290   */\n      dup4\n        /* \"#utility.yul\":6277:6294   */\n      add\n        /* \"#utility.yul\":6268:6274   */\n      dup6\n        /* \"#utility.yul\":6224:6295   */\n      tag_59\n      jump\t// in\n    tag_153:\n        /* \"#utility.yul\":6305:6377   */\n      tag_154\n        /* \"#utility.yul\":6373:6375   */\n      0x20\n        /* \"#utility.yul\":6362:6371   */\n      dup4\n        /* \"#utility.yul\":6358:6376   */\n      add\n        /* \"#utility.yul\":6349:6355   */\n      dup5\n        /* \"#utility.yul\":6305:6377   */\n      tag_76\n      jump\t// in\n    tag_154:\n        /* \"#utility.yul\":6052:6384   */\n      swap4\n      swap3\n      pop\n      pop\n      pop\n      jump\t// out\n        /* \"#utility.yul\":6390:6506   */\n    tag_77:\n        /* \"#utility.yul\":6460:6481   */\n      tag_156\n        /* \"#utility.yul\":6475:6480   */\n      dup2\n        /* \"#utility.yul\":6460:6481   */\n      tag_66\n      jump\t// in\n    tag_156:\n        /* \"#utility.yul\":6453:6458   */\n      dup2\n        /* \"#utility.yul\":6450:6482   */\n      eq\n        /* \"#utility.yul\":6440:6500   */\n      tag_157\n      jumpi\n        /* \"#utility.yul\":6496:6497   */\n      0x00\n        /* \"#utility.yul\":6493:6494   */\n      dup1\n        /* \"#utility.yul\":6486:6498   */\n      revert\n        /* \"#utility.yul\":6440:6500   */\n    tag_157:\n        /* \"#utility.yul\":6390:6506   */\n      pop\n      jump\t// out\n        /* \"#utility.yul\":6512:6649   */\n    tag_78:\n        /* \"#utility.yul\":6566:6571   */\n      0x00\n        /* \"#utility.yul\":6597:6603   */\n      dup2\n        /* \"#utility.yul\":6591:6604   */\n      mload\n        /* \"#utility.yul\":6582:6604   */\n      swap1\n      pop\n        /* \"#utility.yul\":6613:6643   */\n      tag_159\n        /* \"#utility.yul\":6637:6642   */\n      dup2\n        /* \"#utility.yul\":6613:6643   */\n      tag_77\n      jump\t// in\n    tag_159:\n        /* \"#utility.yul\":6512:6649   */\n      swap3\n      swap2\n      pop\n      pop\n      jump\t// out\n        /* \"#utility.yul\":6655:7000   */\n    tag_43:\n        /* \"#utility.yul\":6722:6728   */\n      0x00\n        /* \"#utility.yul\":6771:6773   */\n      0x20\n        /* \"#utility.yul\":6759:6768   */\n      dup3\n        /* \"#utility.yul\":6750:6757   */\n      dup5\n        /* \"#utility.yul\":6746:6769   */\n      sub\n        /* \"#utility.yul\":6742:6774   */\n      slt\n        /* \"#utility.yul\":6739:6858   */\n      iszero\n      tag_161\n      jumpi\n        /* \"#utility.yul\":6777:6856   */\n      tag_162\n      tag_61\n      jump\t// in\n    tag_162:\n        /* \"#utility.yul\":6739:6858   */\n    tag_161:\n        /* \"#utility.yul\":6897:6898   */\n      0x00\n        /* \"#utility.yul\":6922:6983   */\n      tag_163\n        /* \"#utility.yul\":6975:6982   */\n      dup5\n        /* \"#utility.yul\":6966:6972   */\n      dup3\n        /* \"#utility.yul\":6955:6964   */\n      dup6\n        /* \"#utility.yul\":6951:6973   */\n      add\n        /* \"#utility.yul\":6922:6983   */\n      tag_78\n      jump\t// in\n    tag_163:\n        /* \"#utility.yul\":6912:6983   */\n      swap2\n      pop\n        /* \"#utility.yul\":6868:6993   */\n      pop\n        /* \"#utility.yul\":6655:7000   */\n      swap3\n      swap2\n      pop\n      pop\n      jump\t// out\n\n    auxdata: 0xa2646970667358221220dedb4c1ab753a60474b6c2385a3dd2edfbcbbd170bf6d9478481a1af2a5fbbed64736f6c634300080f0033\n}\n",
				"bytecode": {
					"linkReferences": {},
					"object": "608060405273e9e7cea3dedca5984780bafc599bd69add087d56600160006101000a81548173ffffffffffffffffffffffffffffffffffffffff021916908373ffffffffffffffffffffffffffffffffffffffff160217905550738ac76a51cc950d9822d68b83fe1ad97b32cd580d600260006101000a81548173ffffffffffffffffffffffffffffffffffffffff021916908373ffffffffffffffffffffffffffffffffffffffff160217905550732170ed0880ac9a755fd29b2688956bd959f933f8600360006101000a81548173ffffffffffffffffffffffffffffffffffffffff021916908373ffffffffffffffffffffffffffffffffffffffff16021790555034801561010f57600080fd5b50336000806101000a81548173ffffffffffffffffffffffffffffffffffffffff021916908373ffffffffffffffffffffffffffffffffffffffff1602179055506108bf8061015f6000396000f3fe608060405234801561001057600080fd5b50600436106100625760003560e01c806315070401146100675780638da5cb5b146100855780638de38f98146100a35780639347e6d7146100c1578063b759f954146100df578063eabe09ad1461010f575b600080fd5b61006f61012d565b60405161007c919061055e565b60405180910390f35b61008d6101d0565b60405161009a91906105c1565b60405180910390f35b6100ab6101f4565b6040516100b891906105c1565b60405180910390f35b6100c961021a565b6040516100d691906105c1565b60405180910390f35b6100f960048036038101906100f49190610626565b610240565b604051610106919061066e565b60405180910390f35b61011761049f565b60405161012491906105c1565b60405180910390f35b60606000600260009054906101000a900473ffffffffffffffffffffffffffffffffffffffff1690508073ffffffffffffffffffffffffffffffffffffffff166395d89b416040518163ffffffff1660e01b8152600401600060405180830381865afa1580156101a1573d6000803e3d6000fd5b505050506040513d6000823e3d601f19601f820116820180604052508101906101ca91906107af565b91505090565b60008054906101000a900473ffffffffffffffffffffffffffffffffffffffff1681565b600260009054906101000a900473ffffffffffffffffffffffffffffffffffffffff1681565b600360009054906101000a900473ffffffffffffffffffffffffffffffffffffffff1681565b600080600160009054906101000a900473ffffffffffffffffffffffffffffffffffffffff1690506000600260009054906101000a900473ffffffffffffffffffffffffffffffffffffffff1690506000600360009054906101000a900473ffffffffffffffffffffffffffffffffffffffff1690508273ffffffffffffffffffffffffffffffffffffffff1663095ea7b360008054906101000a900473ffffffffffffffffffffffffffffffffffffffff16876040518363ffffffff1660e01b8152600401610311929190610807565b6020604051808303816000875af1158015610330573d6000803e3d6000fd5b505050506040513d601f19601f82011682018060405250810190610354919061085c565b508173ffffffffffffffffffffffffffffffffffffffff1663095ea7b360008054906101000a900473ffffffffffffffffffffffffffffffffffffffff16876040518363ffffffff1660e01b81526004016103b0929190610807565b6020604051808303816000875af11580156103cf573d6000803e3d6000fd5b505050506040513d601f19601f820116820180604052508101906103f3919061085c565b508073ffffffffffffffffffffffffffffffffffffffff1663095ea7b360008054906101000a900473ffffffffffffffffffffffffffffffffffffffff16876040518363ffffffff1660e01b815260040161044f929190610807565b6020604051808303816000875af115801561046e573d6000803e3d6000fd5b505050506040513d601f19601f82011682018060405250810190610492919061085c565b5060019350505050919050565b600160009054906101000a900473ffffffffffffffffffffffffffffffffffffffff1681565b600081519050919050565b600082825260208201905092915050565b60005b838110156104ff5780820151818401526020810190506104e4565b8381111561050e576000848401525b50505050565b6000601f19601f8301169050919050565b6000610530826104c5565b61053a81856104d0565b935061054a8185602086016104e1565b61055381610514565b840191505092915050565b600060208201905081810360008301526105788184610525565b905092915050565b600073ffffffffffffffffffffffffffffffffffffffff82169050919050565b60006105ab82610580565b9050919050565b6105bb816105a0565b82525050565b60006020820190506105d660008301846105b2565b92915050565b6000604051905090565b600080fd5b600080fd5b6000819050919050565b610603816105f0565b811461060e57600080fd5b50565b600081359050610620816105fa565b92915050565b60006020828403121561063c5761063b6105e6565b5b600061064a84828501610611565b91505092915050565b60008115159050919050565b61066881610653565b82525050565b6000602082019050610683600083018461065f565b92915050565b600080fd5b600080fd5b7f4e487b7100000000000000000000000000000000000000000000000000000000600052604160045260246000fd5b6106cb82610514565b810181811067ffffffffffffffff821117156106ea576106e9610693565b5b80604052505050565b60006106fd6105dc565b905061070982826106c2565b919050565b600067ffffffffffffffff82111561072957610728610693565b5b61073282610514565b9050602081019050919050565b600061075261074d8461070e565b6106f3565b90508281526020810184848401111561076e5761076d61068e565b5b6107798482856104e1565b509392505050565b600082601f83011261079657610795610689565b5b81516107a684826020860161073f565b91505092915050565b6000602082840312156107c5576107c46105e6565b5b600082015167ffffffffffffffff8111156107e3576107e26105eb565b5b6107ef84828501610781565b91505092915050565b610801816105f0565b82525050565b600060408201905061081c60008301856105b2565b61082960208301846107f8565b9392505050565b61083981610653565b811461084457600080fd5b50565b60008151905061085681610830565b92915050565b600060208284031215610872576108716105e6565b5b600061088084828501610847565b9150509291505056fea2646970667358221220dedb4c1ab753a60474b6c2385a3dd2edfbcbbd170bf6d9478481a1af2a5fbbed64736f6c634300080f0033",
					"opcodes": "PUSH1 0x80 PUSH1 0x40 MSTORE PUSH20 0xE9E7CEA3DEDCA5984780BAFC599BD69ADD087D56 PUSH1 0x1 PUSH1 0x0 PUSH2 0x100 EXP DUP2 SLOAD DUP2 PUSH20 0xFFFFFFFFFFFFFFFFFFFFFFFFFFFFFFFFFFFFFFFF MUL NOT AND SWAP1 DUP4 PUSH20 0xFFFFFFFFFFFFFFFFFFFFFFFFFFFFFFFFFFFFFFFF AND MUL OR SWAP1 SSTORE POP PUSH20 0x8AC76A51CC950D9822D68B83FE1AD97B32CD580D PUSH1 0x2 PUSH1 0x0 PUSH2 0x100 EXP DUP2 SLOAD DUP2 PUSH20 0xFFFFFFFFFFFFFFFFFFFFFFFFFFFFFFFFFFFFFFFF MUL NOT AND SWAP1 DUP4 PUSH20 0xFFFFFFFFFFFFFFFFFFFFFFFFFFFFFFFFFFFFFFFF AND MUL OR SWAP1 SSTORE POP PUSH20 0x2170ED0880AC9A755FD29B2688956BD959F933F8 PUSH1 0x3 PUSH1 0x0 PUSH2 0x100 EXP DUP2 SLOAD DUP2 PUSH20 0xFFFFFFFFFFFFFFFFFFFFFFFFFFFFFFFFFFFFFFFF MUL NOT AND SWAP1 DUP4 PUSH20 0xFFFFFFFFFFFFFFFFFFFFFFFFFFFFFFFFFFFFFFFF AND MUL OR SWAP1 SSTORE POP CALLVALUE DUP1 ISZERO PUSH2 0x10F JUMPI PUSH1 0x0 DUP1 REVERT JUMPDEST POP CALLER PUSH1 0x0 DUP1 PUSH2 0x100 EXP DUP2 SLOAD DUP2 PUSH20 0xFFFFFFFFFFFFFFFFFFFFFFFFFFFFFFFFFFFFFFFF MUL NOT AND SWAP1 DUP4 PUSH20 0xFFFFFFFFFFFFFFFFFFFFFFFFFFFFFFFFFFFFFFFF AND MUL OR SWAP1 SSTORE POP PUSH2 0x8BF DUP1 PUSH2 0x15F PUSH1 0x0 CODECOPY PUSH1 0x0 RETURN INVALID PUSH1 0x80 PUSH1 0x40 MSTORE CALLVALUE DUP1 ISZERO PUSH2 0x10 JUMPI PUSH1 0x0 DUP1 REVERT JUMPDEST POP PUSH1 0x4 CALLDATASIZE LT PUSH2 0x62 JUMPI PUSH1 0x0 CALLDATALOAD PUSH1 0xE0 SHR DUP1 PUSH4 0x15070401 EQ PUSH2 0x67 JUMPI DUP1 PUSH4 0x8DA5CB5B EQ PUSH2 0x85 JUMPI DUP1 PUSH4 0x8DE38F98 EQ PUSH2 0xA3 JUMPI DUP1 PUSH4 0x9347E6D7 EQ PUSH2 0xC1 JUMPI DUP1 PUSH4 0xB759F954 EQ PUSH2 0xDF JUMPI DUP1 PUSH4 0xEABE09AD EQ PUSH2 0x10F JUMPI JUMPDEST PUSH1 0x0 DUP1 REVERT JUMPDEST PUSH2 0x6F PUSH2 0x12D JUMP JUMPDEST PUSH1 0x40 MLOAD PUSH2 0x7C SWAP2 SWAP1 PUSH2 0x55E JUMP JUMPDEST PUSH1 0x40 MLOAD DUP1 SWAP2 SUB SWAP1 RETURN JUMPDEST PUSH2 0x8D PUSH2 0x1D0 JUMP JUMPDEST PUSH1 0x40 MLOAD PUSH2 0x9A SWAP2 SWAP1 PUSH2 0x5C1 JUMP JUMPDEST PUSH1 0x40 MLOAD DUP1 SWAP2 SUB SWAP1 RETURN JUMPDEST PUSH2 0xAB PUSH2 0x1F4 JUMP JUMPDEST PUSH1 0x40 MLOAD PUSH2 0xB8 SWAP2 SWAP1 PUSH2 0x5C1 JUMP JUMPDEST PUSH1 0x40 MLOAD DUP1 SWAP2 SUB SWAP1 RETURN JUMPDEST PUSH2 0xC9 PUSH2 0x21A JUMP JUMPDEST PUSH1 0x40 MLOAD PUSH2 0xD6 SWAP2 SWAP1 PUSH2 0x5C1 JUMP JUMPDEST PUSH1 0x40 MLOAD DUP1 SWAP2 SUB SWAP1 RETURN JUMPDEST PUSH2 0xF9 PUSH1 0x4 DUP1 CALLDATASIZE SUB DUP2 ADD SWAP1 PUSH2 0xF4 SWAP2 SWAP1 PUSH2 0x626 JUMP JUMPDEST PUSH2 0x240 JUMP JUMPDEST PUSH1 0x40 MLOAD PUSH2 0x106 SWAP2 SWAP1 PUSH2 0x66E JUMP JUMPDEST PUSH1 0x40 MLOAD DUP1 SWAP2 SUB SWAP1 RETURN JUMPDEST PUSH2 0x117 PUSH2 0x49F JUMP JUMPDEST PUSH1 0x40 MLOAD PUSH2 0x124 SWAP2 SWAP1 PUSH2 0x5C1 JUMP JUMPDEST PUSH1 0x40 MLOAD DUP1 SWAP2 SUB SWAP1 RETURN JUMPDEST PUSH1 0x60 PUSH1 0x0 PUSH1 0x2 PUSH1 0x0 SWAP1 SLOAD SWAP1 PUSH2 0x100 EXP SWAP1 DIV PUSH20 0xFFFFFFFFFFFFFFFFFFFFFFFFFFFFFFFFFFFFFFFF AND SWAP1 POP DUP1 PUSH20 0xFFFFFFFFFFFFFFFFFFFFFFFFFFFFFFFFFFFFFFFF AND PUSH4 0x95D89B41 PUSH1 0x40 MLOAD DUP2 PUSH4 0xFFFFFFFF AND PUSH1 0xE0 SHL DUP2 MSTORE PUSH1 0x4 ADD PUSH1 0x0 PUSH1 0x40 MLOAD DUP1 DUP4 SUB DUP2 DUP7 GAS STATICCALL ISZERO DUP1 ISZERO PUSH2 0x1A1 JUMPI RETURNDATASIZE PUSH1 0x0 DUP1 RETURNDATACOPY RETURNDATASIZE PUSH1 0x0 REVERT JUMPDEST POP POP POP POP PUSH1 0x40 MLOAD RETURNDATASIZE PUSH1 0x0 DUP3 RETURNDATACOPY RETURNDATASIZE PUSH1 0x1F NOT PUSH1 0x1F DUP3 ADD AND DUP3 ADD DUP1 PUSH1 0x40 MSTORE POP DUP2 ADD SWAP1 PUSH2 0x1CA SWAP2 SWAP1 PUSH2 0x7AF JUMP JUMPDEST SWAP2 POP POP SWAP1 JUMP JUMPDEST PUSH1 0x0 DUP1 SLOAD SWAP1 PUSH2 0x100 EXP SWAP1 DIV PUSH20 0xFFFFFFFFFFFFFFFFFFFFFFFFFFFFFFFFFFFFFFFF AND DUP2 JUMP JUMPDEST PUSH1 0x2 PUSH1 0x0 SWAP1 SLOAD SWAP1 PUSH2 0x100 EXP SWAP1 DIV PUSH20 0xFFFFFFFFFFFFFFFFFFFFFFFFFFFFFFFFFFFFFFFF AND DUP2 JUMP JUMPDEST PUSH1 0x3 PUSH1 0x0 SWAP1 SLOAD SWAP1 PUSH2 0x100 EXP SWAP1 DIV PUSH20 0xFFFFFFFFFFFFFFFFFFFFFFFFFFFFFFFFFFFFFFFF AND DUP2 JUMP JUMPDEST PUSH1 0x0 DUP1 PUSH1 0x1 PUSH1 0x0 SWAP1 SLOAD SWAP1 PUSH2 0x100 EXP SWAP1 DIV PUSH20 0xFFFFFFFFFFFFFFFFFFFFFFFFFFFFFFFFFFFFFFFF AND SWAP1 POP PUSH1 0x0 PUSH1 0x2 PUSH1 0x0 SWAP1 SLOAD SWAP1 PUSH2 0x100 EXP SWAP1 DIV PUSH20 0xFFFFFFFFFFFFFFFFFFFFFFFFFFFFFFFFFFFFFFFF AND SWAP1 POP PUSH1 0x0 PUSH1 0x3 PUSH1 0x0 SWAP1 SLOAD SWAP1 PUSH2 0x100 EXP SWAP1 DIV PUSH20 0xFFFFFFFFFFFFFFFFFFFFFFFFFFFFFFFFFFFFFFFF AND SWAP1 POP DUP3 PUSH20 0xFFFFFFFFFFFFFFFFFFFFFFFFFFFFFFFFFFFFFFFF AND PUSH4 0x95EA7B3 PUSH1 0x0 DUP1 SLOAD SWAP1 PUSH2 0x100 EXP SWAP1 DIV PUSH20 0xFFFFFFFFFFFFFFFFFFFFFFFFFFFFFFFFFFFFFFFF AND DUP8 PUSH1 0x40 MLOAD DUP4 PUSH4 0xFFFFFFFF AND PUSH1 0xE0 SHL DUP2 MSTORE PUSH1 0x4 ADD PUSH2 0x311 SWAP3 SWAP2 SWAP1 PUSH2 0x807 JUMP JUMPDEST PUSH1 0x20 PUSH1 0x40 MLOAD DUP1 DUP4 SUB DUP2 PUSH1 0x0 DUP8 GAS CALL ISZERO DUP1 ISZERO PUSH2 0x330 JUMPI RETURNDATASIZE PUSH1 0x0 DUP1 RETURNDATACOPY RETURNDATASIZE PUSH1 0x0 REVERT JUMPDEST POP POP POP POP PUSH1 0x40 MLOAD RETURNDATASIZE PUSH1 0x1F NOT PUSH1 0x1F DUP3 ADD AND DUP3 ADD DUP1 PUSH1 0x40 MSTORE POP DUP2 ADD SWAP1 PUSH2 0x354 SWAP2 SWAP1 PUSH2 0x85C JUMP JUMPDEST POP DUP2 PUSH20 0xFFFFFFFFFFFFFFFFFFFFFFFFFFFFFFFFFFFFFFFF AND PUSH4 0x95EA7B3 PUSH1 0x0 DUP1 SLOAD SWAP1 PUSH2 0x100 EXP SWAP1 DIV PUSH20 0xFFFFFFFFFFFFFFFFFFFFFFFFFFFFFFFFFFFFFFFF AND DUP8 PUSH1 0x40 MLOAD DUP4 PUSH4 0xFFFFFFFF AND PUSH1 0xE0 SHL DUP2 MSTORE PUSH1 0x4 ADD PUSH2 0x3B0 SWAP3 SWAP2 SWAP1 PUSH2 0x807 JUMP JUMPDEST PUSH1 0x20 PUSH1 0x40 MLOAD DUP1 DUP4 SUB DUP2 PUSH1 0x0 DUP8 GAS CALL ISZERO DUP1 ISZERO PUSH2 0x3CF JUMPI RETURNDATASIZE PUSH1 0x0 DUP1 RETURNDATACOPY RETURNDATASIZE PUSH1 0x0 REVERT JUMPDEST POP POP POP POP PUSH1 0x40 MLOAD RETURNDATASIZE PUSH1 0x1F NOT PUSH1 0x1F DUP3 ADD AND DUP3 ADD DUP1 PUSH1 0x40 MSTORE POP DUP2 ADD SWAP1 PUSH2 0x3F3 SWAP2 SWAP1 PUSH2 0x85C JUMP JUMPDEST POP DUP1 PUSH20 0xFFFFFFFFFFFFFFFFFFFFFFFFFFFFFFFFFFFFFFFF AND PUSH4 0x95EA7B3 PUSH1 0x0 DUP1 SLOAD SWAP1 PUSH2 0x100 EXP SWAP1 DIV PUSH20 0xFFFFFFFFFFFFFFFFFFFFFFFFFFFFFFFFFFFFFFFF AND DUP8 PUSH1 0x40 MLOAD DUP4 PUSH4 0xFFFFFFFF AND PUSH1 0xE0 SHL DUP2 MSTORE PUSH1 0x4 ADD PUSH2 0x44F SWAP3 SWAP2 SWAP1 PUSH2 0x807 JUMP JUMPDEST PUSH1 0x20 PUSH1 0x40 MLOAD DUP1 DUP4 SUB DUP2 PUSH1 0x0 DUP8 GAS CALL ISZERO DUP1 ISZERO PUSH2 0x46E JUMPI RETURNDATASIZE PUSH1 0x0 DUP1 RETURNDATACOPY RETURNDATASIZE PUSH1 0x0 REVERT JUMPDEST POP POP POP POP PUSH1 0x40 MLOAD RETURNDATASIZE PUSH1 0x1F NOT PUSH1 0x1F DUP3 ADD AND DUP3 ADD DUP1 PUSH1 0x40 MSTORE POP DUP2 ADD SWAP1 PUSH2 0x492 SWAP2 SWAP1 PUSH2 0x85C JUMP JUMPDEST POP PUSH1 0x1 SWAP4 POP POP POP POP SWAP2 SWAP1 POP JUMP JUMPDEST PUSH1 0x1 PUSH1 0x0 SWAP1 SLOAD SWAP1 PUSH2 0x100 EXP SWAP1 DIV PUSH20 0xFFFFFFFFFFFFFFFFFFFFFFFFFFFFFFFFFFFFFFFF AND DUP2 JUMP JUMPDEST PUSH1 0x0 DUP2 MLOAD SWAP1 POP SWAP2 SWAP1 POP JUMP JUMPDEST PUSH1 0x0 DUP3 DUP3 MSTORE PUSH1 0x20 DUP3 ADD SWAP1 POP SWAP3 SWAP2 POP POP JUMP JUMPDEST PUSH1 0x0 JUMPDEST DUP4 DUP2 LT ISZERO PUSH2 0x4FF JUMPI DUP1 DUP3 ADD MLOAD DUP2 DUP5 ADD MSTORE PUSH1 0x20 DUP2 ADD SWAP1 POP PUSH2 0x4E4 JUMP JUMPDEST DUP4 DUP2 GT ISZERO PUSH2 0x50E JUMPI PUSH1 0x0 DUP5 DUP5 ADD MSTORE JUMPDEST POP POP POP POP JUMP JUMPDEST PUSH1 0x0 PUSH1 0x1F NOT PUSH1 0x1F DUP4 ADD AND SWAP1 POP SWAP2 SWAP1 POP JUMP JUMPDEST PUSH1 0x0 PUSH2 0x530 DUP3 PUSH2 0x4C5 JUMP JUMPDEST PUSH2 0x53A DUP2 DUP6 PUSH2 0x4D0 JUMP JUMPDEST SWAP4 POP PUSH2 0x54A DUP2 DUP6 PUSH1 0x20 DUP7 ADD PUSH2 0x4E1 JUMP JUMPDEST PUSH2 0x553 DUP2 PUSH2 0x514 JUMP JUMPDEST DUP5 ADD SWAP2 POP POP SWAP3 SWAP2 POP POP JUMP JUMPDEST PUSH1 0x0 PUSH1 0x20 DUP3 ADD SWAP1 POP DUP2 DUP2 SUB PUSH1 0x0 DUP4 ADD MSTORE PUSH2 0x578 DUP2 DUP5 PUSH2 0x525 JUMP JUMPDEST SWAP1 POP SWAP3 SWAP2 POP POP JUMP JUMPDEST PUSH1 0x0 PUSH20 0xFFFFFFFFFFFFFFFFFFFFFFFFFFFFFFFFFFFFFFFF DUP3 AND SWAP1 POP SWAP2 SWAP1 POP JUMP JUMPDEST PUSH1 0x0 PUSH2 0x5AB DUP3 PUSH2 0x580 JUMP JUMPDEST SWAP1 POP SWAP2 SWAP1 POP JUMP JUMPDEST PUSH2 0x5BB DUP2 PUSH2 0x5A0 JUMP JUMPDEST DUP3 MSTORE POP POP JUMP JUMPDEST PUSH1 0x0 PUSH1 0x20 DUP3 ADD SWAP1 POP PUSH2 0x5D6 PUSH1 0x0 DUP4 ADD DUP5 PUSH2 0x5B2 JUMP JUMPDEST SWAP3 SWAP2 POP POP JUMP JUMPDEST PUSH1 0x0 PUSH1 0x40 MLOAD SWAP1 POP SWAP1 JUMP JUMPDEST PUSH1 0x0 DUP1 REVERT JUMPDEST PUSH1 0x0 DUP1 REVERT JUMPDEST PUSH1 0x0 DUP2 SWAP1 POP SWAP2 SWAP1 POP JUMP JUMPDEST PUSH2 0x603 DUP2 PUSH2 0x5F0 JUMP JUMPDEST DUP2 EQ PUSH2 0x60E JUMPI PUSH1 0x0 DUP1 REVERT JUMPDEST POP JUMP JUMPDEST PUSH1 0x0 DUP2 CALLDATALOAD SWAP1 POP PUSH2 0x620 DUP2 PUSH2 0x5FA JUMP JUMPDEST SWAP3 SWAP2 POP POP JUMP JUMPDEST PUSH1 0x0 PUSH1 0x20 DUP3 DUP5 SUB SLT ISZERO PUSH2 0x63C JUMPI PUSH2 0x63B PUSH2 0x5E6 JUMP JUMPDEST JUMPDEST PUSH1 0x0 PUSH2 0x64A DUP5 DUP3 DUP6 ADD PUSH2 0x611 JUMP JUMPDEST SWAP2 POP POP SWAP3 SWAP2 POP POP JUMP JUMPDEST PUSH1 0x0 DUP2 ISZERO ISZERO SWAP1 POP SWAP2 SWAP1 POP JUMP JUMPDEST PUSH2 0x668 DUP2 PUSH2 0x653 JUMP JUMPDEST DUP3 MSTORE POP POP JUMP JUMPDEST PUSH1 0x0 PUSH1 0x20 DUP3 ADD SWAP1 POP PUSH2 0x683 PUSH1 0x0 DUP4 ADD DUP5 PUSH2 0x65F JUMP JUMPDEST SWAP3 SWAP2 POP POP JUMP JUMPDEST PUSH1 0x0 DUP1 REVERT JUMPDEST PUSH1 0x0 DUP1 REVERT JUMPDEST PUSH32 0x4E487B7100000000000000000000000000000000000000000000000000000000 PUSH1 0x0 MSTORE PUSH1 0x41 PUSH1 0x4 MSTORE PUSH1 0x24 PUSH1 0x0 REVERT JUMPDEST PUSH2 0x6CB DUP3 PUSH2 0x514 JUMP JUMPDEST DUP2 ADD DUP2 DUP2 LT PUSH8 0xFFFFFFFFFFFFFFFF DUP3 GT OR ISZERO PUSH2 0x6EA JUMPI PUSH2 0x6E9 PUSH2 0x693 JUMP JUMPDEST JUMPDEST DUP1 PUSH1 0x40 MSTORE POP POP POP JUMP JUMPDEST PUSH1 0x0 PUSH2 0x6FD PUSH2 0x5DC JUMP JUMPDEST SWAP1 POP PUSH2 0x709 DUP3 DUP3 PUSH2 0x6C2 JUMP JUMPDEST SWAP2 SWAP1 POP JUMP JUMPDEST PUSH1 0x0 PUSH8 0xFFFFFFFFFFFFFFFF DUP3 GT ISZERO PUSH2 0x729 JUMPI PUSH2 0x728 PUSH2 0x693 JUMP JUMPDEST JUMPDEST PUSH2 0x732 DUP3 PUSH2 0x514 JUMP JUMPDEST SWAP1 POP PUSH1 0x20 DUP2 ADD SWAP1 POP SWAP2 SWAP1 POP JUMP JUMPDEST PUSH1 0x0 PUSH2 0x752 PUSH2 0x74D DUP5 PUSH2 0x70E JUMP JUMPDEST PUSH2 0x6F3 JUMP JUMPDEST SWAP1 POP DUP3 DUP2 MSTORE PUSH1 0x20 DUP2 ADD DUP5 DUP5 DUP5 ADD GT ISZERO PUSH2 0x76E JUMPI PUSH2 0x76D PUSH2 0x68E JUMP JUMPDEST JUMPDEST PUSH2 0x779 DUP5 DUP3 DUP6 PUSH2 0x4E1 JUMP JUMPDEST POP SWAP4 SWAP3 POP POP POP JUMP JUMPDEST PUSH1 0x0 DUP3 PUSH1 0x1F DUP4 ADD SLT PUSH2 0x796 JUMPI PUSH2 0x795 PUSH2 0x689 JUMP JUMPDEST JUMPDEST DUP2 MLOAD PUSH2 0x7A6 DUP5 DUP3 PUSH1 0x20 DUP7 ADD PUSH2 0x73F JUMP JUMPDEST SWAP2 POP POP SWAP3 SWAP2 POP POP JUMP JUMPDEST PUSH1 0x0 PUSH1 0x20 DUP3 DUP5 SUB SLT ISZERO PUSH2 0x7C5 JUMPI PUSH2 0x7C4 PUSH2 0x5E6 JUMP JUMPDEST JUMPDEST PUSH1 0x0 DUP3 ADD MLOAD PUSH8 0xFFFFFFFFFFFFFFFF DUP2 GT ISZERO PUSH2 0x7E3 JUMPI PUSH2 0x7E2 PUSH2 0x5EB JUMP JUMPDEST JUMPDEST PUSH2 0x7EF DUP5 DUP3 DUP6 ADD PUSH2 0x781 JUMP JUMPDEST SWAP2 POP POP SWAP3 SWAP2 POP POP JUMP JUMPDEST PUSH2 0x801 DUP2 PUSH2 0x5F0 JUMP JUMPDEST DUP3 MSTORE POP POP JUMP JUMPDEST PUSH1 0x0 PUSH1 0x40 DUP3 ADD SWAP1 POP PUSH2 0x81C PUSH1 0x0 DUP4 ADD DUP6 PUSH2 0x5B2 JUMP JUMPDEST PUSH2 0x829 PUSH1 0x20 DUP4 ADD DUP5 PUSH2 0x7F8 JUMP JUMPDEST SWAP4 SWAP3 POP POP POP JUMP JUMPDEST PUSH2 0x839 DUP2 PUSH2 0x653 JUMP JUMPDEST DUP2 EQ PUSH2 0x844 JUMPI PUSH1 0x0 DUP1 REVERT JUMPDEST POP JUMP JUMPDEST PUSH1 0x0 DUP2 MLOAD SWAP1 POP PUSH2 0x856 DUP2 PUSH2 0x830 JUMP JUMPDEST SWAP3 SWAP2 POP POP JUMP JUMPDEST PUSH1 0x0 PUSH1 0x20 DUP3 DUP5 SUB SLT ISZERO PUSH2 0x872 JUMPI PUSH2 0x871 PUSH2 0x5E6 JUMP JUMPDEST JUMPDEST PUSH1 0x0 PUSH2 0x880 DUP5 DUP3 DUP6 ADD PUSH2 0x847 JUMP JUMPDEST SWAP2 POP POP SWAP3 SWAP2 POP POP JUMP INVALID LOG2 PUSH5 0x6970667358 0x22 SLT KECCAK256 0xDE 0xDB 0x4C BYTE 0xB7 MSTORE8 0xA6 DIV PUSH21 0xB6C2385A3DD2EDFBCBBD170BF6D9478481A1AF2A5F 0xBB 0xED PUSH5 0x736F6C6343 STOP ADDMOD 0xF STOP CALLER "
				},
				"gasEstimates": {
					"creation": {
						"codeDepositCost": "447800",
						"executionCost": "97547",
						"totalCost": "545347"
					},
					"external": {
						"addr1()": "2602",
						"addr2()": "2536",
						"addr3()": "2558",
						"approve(uint256)": "infinite",
						"getSymbol()": "infinite",
						"owner()": "2511"
					}
				},
				"methodIdentifiers": {
					"addr1()": "eabe09ad",
					"addr2()": "8de38f98",
					"addr3()": "9347e6d7",
					"approve(uint256)": "b759f954",
					"getSymbol()": "15070401",
					"owner()": "8da5cb5b"
				}
			},
			"storageLayout": {
				"storage": [
					{
						"astId": 3,
						"contract": "contracts/Smart.sol:Smart",
						"label": "owner",
						"offset": 0,
						"slot": "0",
						"type": "t_address"
					},
					{
						"astId": 6,
						"contract": "contracts/Smart.sol:Smart",
						"label": "addr1",
						"offset": 0,
						"slot": "1",
						"type": "t_address"
					},
					{
						"astId": 9,
						"contract": "contracts/Smart.sol:Smart",
						"label": "addr2",
						"offset": 0,
						"slot": "2",
						"type": "t_address"
					},
					{
						"astId": 12,
						"contract": "contracts/Smart.sol:Smart",
						"label": "addr3",
						"offset": 0,
						"slot": "3",
						"type": "t_address"
					}
				],
				"types": {
					"t_address": {
						"encoding": "inplace",
						"label": "address",
						"numberOfBytes": "20"
					}
				}
			},
			"userdoc": {
				"kind": "user",
				"methods": {},
				"version": 1
			}
		}
	}
}