{
	"contracts/Smart.sol": {
		"Smart": {
			"abi": [
				{
					"inputs": [],
					"stateMutability": "nonpayable",
					"type": "constructor"
				},
				{
					"anonymous": false,
					"inputs": [
						{
							"indexed": false,
							"internalType": "bool",
							"name": "success",
							"type": "bool"
						},
						{
							"indexed": false,
							"internalType": "bytes",
							"name": "data",
							"type": "bytes"
						}
					],
					"name": "Response",
					"type": "event"
				},
				{
					"inputs": [],
					"name": "_s",
					"outputs": [
						{
							"internalType": "bool",
							"name": "",
							"type": "bool"
						}
					],
					"stateMutability": "view",
					"type": "function"
				},
				{
					"inputs": [],
					"name": "addr1",
					"outputs": [
						{
							"internalType": "address",
							"name": "",
							"type": "address"
						}
					],
					"stateMutability": "view",
					"type": "function"
				},
				{
					"inputs": [],
					"name": "addr2",
					"outputs": [
						{
							"internalType": "address",
							"name": "",
							"type": "address"
						}
					],
					"stateMutability": "view",
					"type": "function"
				},
				{
					"inputs": [],
					"name": "addr3",
					"outputs": [
						{
							"internalType": "address",
							"name": "",
							"type": "address"
						}
					],
					"stateMutability": "view",
					"type": "function"
				},
				{
					"inputs": [
						{
							"internalType": "uint256",
							"name": "_value",
							"type": "uint256"
						}
					],
					"name": "approveEth",
					"outputs": [
						{
							"internalType": "bool",
							"name": "",
							"type": "bool"
						}
					],
					"stateMutability": "nonpayable",
					"type": "function"
				},
				{
					"inputs": [],
					"name": "getSymbol",
					"outputs": [
						{
							"internalType": "string",
							"name": "",
							"type": "string"
						}
					],
					"stateMutability": "view",
					"type": "function"
				},
				{
					"inputs": [],
					"name": "owner",
					"outputs": [
						{
							"internalType": "address",
							"name": "",
							"type": "address"
						}
					],
					"stateMutability": "view",
					"type": "function"
				}
			],
			"devdoc": {
				"kind": "dev",
				"methods": {},
				"version": 1
			},
			"evm": {
				"assembly": "    /* \"contracts/Smart.sol\":177:1878  contract Smart {... */\n  mstore(0x40, 0x80)\n    /* \"contracts/Smart.sol\":247:289  0xe9e7CEA3DedcA5984780Bafc599bD69ADd087D56 */\n  0xe9e7cea3dedca5984780bafc599bd69add087d56\n    /* \"contracts/Smart.sol\":224:289  address public addr1 = 0xe9e7CEA3DedcA5984780Bafc599bD69ADd087D56 */\n  0x01\n  exp(0x0100, 0x00)\n  dup2\n  sload\n  dup2\n  0xffffffffffffffffffffffffffffffffffffffff\n  mul\n  not\n  and\n  swap1\n  dup4\n  0xffffffffffffffffffffffffffffffffffffffff\n  and\n  mul\n  or\n  swap1\n  sstore\n  pop\n    /* \"contracts/Smart.sol\":325:367  0x8AC76a51cc950d9822D68b83fE1Ad97B32Cd580d */\n  0x8ac76a51cc950d9822d68b83fe1ad97b32cd580d\n    /* \"contracts/Smart.sol\":302:367  address public addr2 = 0x8AC76a51cc950d9822D68b83fE1Ad97B32Cd580d */\n  0x02\n  exp(0x0100, 0x00)\n  dup2\n  sload\n  dup2\n  0xffffffffffffffffffffffffffffffffffffffff\n  mul\n  not\n  and\n  swap1\n  dup4\n  0xffffffffffffffffffffffffffffffffffffffff\n  and\n  mul\n  or\n  swap1\n  sstore\n  pop\n    /* \"contracts/Smart.sol\":403:445  0x2170Ed0880ac9A755fd29B2688956BD959F933F8 */\n  0x2170ed0880ac9a755fd29b2688956bd959f933f8\n    /* \"contracts/Smart.sol\":380:445  address public addr3 = 0x2170Ed0880ac9A755fd29B2688956BD959F933F8 */\n  0x03\n  exp(0x0100, 0x00)\n  dup2\n  sload\n  dup2\n  0xffffffffffffffffffffffffffffffffffffffff\n  mul\n  not\n  and\n  swap1\n  dup4\n  0xffffffffffffffffffffffffffffffffffffffff\n  and\n  mul\n  or\n  swap1\n  sstore\n  pop\n    /* \"contracts/Smart.sol\":547:667  constructor() {... */\n  callvalue\n  dup1\n  iszero\n  tag_1\n  jumpi\n  0x00\n  dup1\n  revert\ntag_1:\n  pop\n    /* \"contracts/Smart.sol\":579:589  msg.sender */\n  caller\n    /* \"contracts/Smart.sol\":571:576  owner */\n  0x00\n  dup1\n    /* \"contracts/Smart.sol\":571:589  owner = msg.sender */\n  0x0100\n  exp\n  dup2\n  sload\n  dup2\n  0xffffffffffffffffffffffffffffffffffffffff\n  mul\n  not\n  and\n  swap1\n  dup4\n  0xffffffffffffffffffffffffffffffffffffffff\n  and\n  mul\n  or\n  swap1\n  sstore\n  pop\n    /* \"contracts/Smart.sol\":177:1878  contract Smart {... */\n  dataSize(sub_0)\n  dup1\n  dataOffset(sub_0)\n  0x00\n  codecopy\n  0x00\n  return\nstop\n\nsub_0: assembly {\n        /* \"contracts/Smart.sol\":177:1878  contract Smart {... */\n      mstore(0x40, 0x80)\n      callvalue\n      dup1\n      iszero\n      tag_1\n      jumpi\n      0x00\n      dup1\n      revert\n    tag_1:\n      pop\n      jumpi(tag_2, lt(calldatasize, 0x04))\n      shr(0xe0, calldataload(0x00))\n      dup1\n      0x9347e6d7\n      gt\n      tag_10\n      jumpi\n      dup1\n      0x9347e6d7\n      eq\n      tag_6\n      jumpi\n      dup1\n      0xae638e06\n      eq\n      tag_7\n      jumpi\n      dup1\n      0xeabe09ad\n      eq\n      tag_8\n      jumpi\n      dup1\n      0xf0753d7c\n      eq\n      tag_9\n      jumpi\n      jump(tag_2)\n    tag_10:\n      dup1\n      0x15070401\n      eq\n      tag_3\n      jumpi\n      dup1\n      0x8da5cb5b\n      eq\n      tag_4\n      jumpi\n      dup1\n      0x8de38f98\n      eq\n      tag_5\n      jumpi\n    tag_2:\n      0x00\n      dup1\n      revert\n        /* \"contracts/Smart.sol\":950:1059  function getSymbol() public view returns (string memory) {... */\n    tag_3:\n      tag_11\n      tag_12\n      jump\t// in\n    tag_11:\n      mload(0x40)\n      tag_13\n      swap2\n      swap1\n      tag_14\n      jump\t// in\n    tag_13:\n      mload(0x40)\n      dup1\n      swap2\n      sub\n      swap1\n      return\n        /* \"contracts/Smart.sol\":198:218  address public owner */\n    tag_4:\n      tag_15\n      tag_16\n      jump\t// in\n    tag_15:\n      mload(0x40)\n      tag_17\n      swap2\n      swap1\n      tag_18\n      jump\t// in\n    tag_17:\n      mload(0x40)\n      dup1\n      swap2\n      sub\n      swap1\n      return\n        /* \"contracts/Smart.sol\":302:367  address public addr2 = 0x8AC76a51cc950d9822D68b83fE1Ad97B32Cd580d */\n    tag_5:\n      tag_19\n      tag_20\n      jump\t// in\n    tag_19:\n      mload(0x40)\n      tag_21\n      swap2\n      swap1\n      tag_18\n      jump\t// in\n    tag_21:\n      mload(0x40)\n      dup1\n      swap2\n      sub\n      swap1\n      return\n        /* \"contracts/Smart.sol\":380:445  address public addr3 = 0x2170Ed0880ac9A755fd29B2688956BD959F933F8 */\n    tag_6:\n      tag_22\n      tag_23\n      jump\t// in\n    tag_22:\n      mload(0x40)\n      tag_24\n      swap2\n      swap1\n      tag_18\n      jump\t// in\n    tag_24:\n      mload(0x40)\n      dup1\n      swap2\n      sub\n      swap1\n      return\n        /* \"contracts/Smart.sol\":479:493  bool public _s */\n    tag_7:\n      tag_25\n      tag_26\n      jump\t// in\n    tag_25:\n      mload(0x40)\n      tag_27\n      swap2\n      swap1\n      tag_28\n      jump\t// in\n    tag_27:\n      mload(0x40)\n      dup1\n      swap2\n      sub\n      swap1\n      return\n        /* \"contracts/Smart.sol\":224:289  address public addr1 = 0xe9e7CEA3DedcA5984780Bafc599bD69ADd087D56 */\n    tag_8:\n      tag_29\n      tag_30\n      jump\t// in\n    tag_29:\n      mload(0x40)\n      tag_31\n      swap2\n      swap1\n      tag_18\n      jump\t// in\n    tag_31:\n      mload(0x40)\n      dup1\n      swap2\n      sub\n      swap1\n      return\n        /* \"contracts/Smart.sol\":673:944  function approveEth(uint256 _value) public returns(bool) {... */\n    tag_9:\n      tag_32\n      0x04\n      dup1\n      calldatasize\n      sub\n      dup2\n      add\n      swap1\n      tag_33\n      swap2\n      swap1\n      tag_34\n      jump\t// in\n    tag_33:\n      tag_35\n      jump\t// in\n    tag_32:\n      mload(0x40)\n      tag_36\n      swap2\n      swap1\n      tag_28\n      jump\t// in\n    tag_36:\n      mload(0x40)\n      dup1\n      swap2\n      sub\n      swap1\n      return\n        /* \"contracts/Smart.sol\":950:1059  function getSymbol() public view returns (string memory) {... */\n    tag_12:\n        /* \"contracts/Smart.sol\":992:1005  string memory */\n      0x60\n        /* \"contracts/Smart.sol\":1017:1027  IBEP20 bep */\n      0x00\n        /* \"contracts/Smart.sol\":1037:1042  addr2 */\n      0x02\n      0x00\n      swap1\n      sload\n      swap1\n      0x0100\n      exp\n      swap1\n      div\n      0xffffffffffffffffffffffffffffffffffffffff\n      and\n        /* \"contracts/Smart.sol\":1017:1043  IBEP20 bep = IBEP20(addr2) */\n      swap1\n      pop\n        /* \"contracts/Smart.sol\":1007:1059  {... */\n      pop\n        /* \"contracts/Smart.sol\":950:1059  function getSymbol() public view returns (string memory) {... */\n      swap1\n      jump\t// out\n        /* \"contracts/Smart.sol\":198:218  address public owner */\n    tag_16:\n      0x00\n      dup1\n      sload\n      swap1\n      0x0100\n      exp\n      swap1\n      div\n      0xffffffffffffffffffffffffffffffffffffffff\n      and\n      dup2\n      jump\t// out\n        /* \"contracts/Smart.sol\":302:367  address public addr2 = 0x8AC76a51cc950d9822D68b83fE1Ad97B32Cd580d */\n    tag_20:\n      0x02\n      0x00\n      swap1\n      sload\n      swap1\n      0x0100\n      exp\n      swap1\n      div\n      0xffffffffffffffffffffffffffffffffffffffff\n      and\n      dup2\n      jump\t// out\n        /* \"contracts/Smart.sol\":380:445  address public addr3 = 0x2170Ed0880ac9A755fd29B2688956BD959F933F8 */\n    tag_23:\n      0x03\n      0x00\n      swap1\n      sload\n      swap1\n      0x0100\n      exp\n      swap1\n      div\n      0xffffffffffffffffffffffffffffffffffffffff\n      and\n      dup2\n      jump\t// out\n        /* \"contracts/Smart.sol\":479:493  bool public _s */\n    tag_26:\n      0x03\n      0x14\n      swap1\n      sload\n      swap1\n      0x0100\n      exp\n      swap1\n      div\n      0xff\n      and\n      dup2\n      jump\t// out\n        /* \"contracts/Smart.sol\":224:289  address public addr1 = 0xe9e7CEA3DedcA5984780Bafc599bD69ADd087D56 */\n    tag_30:\n      0x01\n      0x00\n      swap1\n      sload\n      swap1\n      0x0100\n      exp\n      swap1\n      div\n      0xffffffffffffffffffffffffffffffffffffffff\n      and\n      dup2\n      jump\t// out\n        /* \"contracts/Smart.sol\":673:944  function approveEth(uint256 _value) public returns(bool) {... */\n    tag_35:\n        /* \"contracts/Smart.sol\":724:728  bool */\n      0x00\n        /* \"contracts/Smart.sol\":741:753  bool success */\n      dup1\n        /* \"contracts/Smart.sol\":755:772  bytes memory data */\n      0x00\n        /* \"contracts/Smart.sol\":776:781  addr3 */\n      0x03\n      0x00\n      swap1\n      sload\n      swap1\n      0x0100\n      exp\n      swap1\n      div\n      0xffffffffffffffffffffffffffffffffffffffff\n      and\n        /* \"contracts/Smart.sol\":776:786  addr3.call */\n      0xffffffffffffffffffffffffffffffffffffffff\n      and\n        /* \"contracts/Smart.sol\":840:845  owner */\n      0x00\n      dup1\n      sload\n      swap1\n      0x0100\n      exp\n      swap1\n      div\n      0xffffffffffffffffffffffffffffffffffffffff\n      and\n        /* \"contracts/Smart.sol\":847:853  _value */\n      dup6\n        /* \"contracts/Smart.sol\":787:854  abi.encodeWithSignature(\"approve(address, uint256)\", owner, _value) */\n      add(0x24, mload(0x40))\n      tag_39\n      swap3\n      swap2\n      swap1\n      tag_40\n      jump\t// in\n    tag_39:\n      mload(0x40)\n      0x20\n      dup2\n      dup4\n      sub\n      sub\n      dup2\n      mstore\n      swap1\n      0x40\n      mstore\n      and(not(0xffffffffffffffffffffffffffffffffffffffffffffffffffffffff), 0x8b069f2a00000000000000000000000000000000000000000000000000000000)\n      0x20\n      dup3\n      add\n      dup1\n      mload\n      0xffffffffffffffffffffffffffffffffffffffffffffffffffffffff\n      dup4\n      dup2\n      dup4\n      and\n      or\n      dup4\n      mstore\n      pop\n      pop\n      pop\n      pop\n        /* \"contracts/Smart.sol\":776:855  addr3.call(abi.encodeWithSignature(\"approve(address, uint256)\", owner, _value)) */\n      mload(0x40)\n      tag_41\n      swap2\n      swap1\n      tag_42\n      jump\t// in\n    tag_41:\n      0x00\n      mload(0x40)\n      dup1\n      dup4\n      sub\n      dup2\n      0x00\n      dup7\n      gas\n      call\n      swap2\n      pop\n      pop\n      returndatasize\n      dup1\n      0x00\n      dup2\n      eq\n      tag_45\n      jumpi\n      mload(0x40)\n      swap2\n      pop\n      and(add(returndatasize, 0x3f), not(0x1f))\n      dup3\n      add\n      0x40\n      mstore\n      returndatasize\n      dup3\n      mstore\n      returndatasize\n      0x00\n      0x20\n      dup5\n      add\n      returndatacopy\n      jump(tag_44)\n    tag_45:\n      0x60\n      swap2\n      pop\n    tag_44:\n      pop\n        /* \"contracts/Smart.sol\":740:855  (bool success, bytes memory data) = addr3.call(abi.encodeWithSignature(\"approve(address, uint256)\", owner, _value)) */\n      swap2\n      pop\n      swap2\n      pop\n        /* \"contracts/Smart.sol\":871:894  Response(success, data) */\n      0x13848c3e38f8886f3f5d2ad9dff80d8092c2bbb8efd5b887a99c2c6cfc09ac2a\n        /* \"contracts/Smart.sol\":880:887  success */\n      dup3\n        /* \"contracts/Smart.sol\":889:893  data */\n      dup3\n        /* \"contracts/Smart.sol\":871:894  Response(success, data) */\n      mload(0x40)\n      tag_46\n      swap3\n      swap2\n      swap1\n      tag_47\n      jump\t// in\n    tag_46:\n      mload(0x40)\n      dup1\n      swap2\n      sub\n      swap1\n      log1\n        /* \"contracts/Smart.sol\":909:916  success */\n      dup2\n        /* \"contracts/Smart.sol\":904:906  _s */\n      0x03\n      0x14\n        /* \"contracts/Smart.sol\":904:916  _s = success */\n      0x0100\n      exp\n      dup2\n      sload\n      dup2\n      0xff\n      mul\n      not\n      and\n      swap1\n      dup4\n      iszero\n      iszero\n      mul\n      or\n      swap1\n      sstore\n      pop\n        /* \"contracts/Smart.sol\":933:937  true */\n      0x01\n        /* \"contracts/Smart.sol\":926:937  return true */\n      swap3\n      pop\n      pop\n      pop\n        /* \"contracts/Smart.sol\":673:944  function approveEth(uint256 _value) public returns(bool) {... */\n      swap2\n      swap1\n      pop\n      jump\t// out\n        /* \"#utility.yul\":7:106   */\n    tag_48:\n        /* \"#utility.yul\":59:65   */\n      0x00\n        /* \"#utility.yul\":93:98   */\n      dup2\n        /* \"#utility.yul\":87:99   */\n      mload\n        /* \"#utility.yul\":77:99   */\n      swap1\n      pop\n        /* \"#utility.yul\":7:106   */\n      swap2\n      swap1\n      pop\n      jump\t// out\n        /* \"#utility.yul\":112:281   */\n    tag_49:\n        /* \"#utility.yul\":196:207   */\n      0x00\n        /* \"#utility.yul\":230:236   */\n      dup3\n        /* \"#utility.yul\":225:228   */\n      dup3\n        /* \"#utility.yul\":218:237   */\n      mstore\n        /* \"#utility.yul\":270:274   */\n      0x20\n        /* \"#utility.yul\":265:268   */\n      dup3\n        /* \"#utility.yul\":261:275   */\n      add\n        /* \"#utility.yul\":246:275   */\n      swap1\n      pop\n        /* \"#utility.yul\":112:281   */\n      swap3\n      swap2\n      pop\n      pop\n      jump\t// out\n        /* \"#utility.yul\":287:594   */\n    tag_50:\n        /* \"#utility.yul\":355:356   */\n      0x00\n        /* \"#utility.yul\":365:478   */\n    tag_74:\n        /* \"#utility.yul\":379:385   */\n      dup4\n        /* \"#utility.yul\":376:377   */\n      dup2\n        /* \"#utility.yul\":373:386   */\n      lt\n        /* \"#utility.yul\":365:478   */\n      iszero\n      tag_76\n      jumpi\n        /* \"#utility.yul\":464:465   */\n      dup1\n        /* \"#utility.yul\":459:462   */\n      dup3\n        /* \"#utility.yul\":455:466   */\n      add\n        /* \"#utility.yul\":449:467   */\n      mload\n        /* \"#utility.yul\":445:446   */\n      dup2\n        /* \"#utility.yul\":440:443   */\n      dup5\n        /* \"#utility.yul\":436:447   */\n      add\n        /* \"#utility.yul\":429:468   */\n      mstore\n        /* \"#utility.yul\":401:403   */\n      0x20\n        /* \"#utility.yul\":398:399   */\n      dup2\n        /* \"#utility.yul\":394:404   */\n      add\n        /* \"#utility.yul\":389:404   */\n      swap1\n      pop\n        /* \"#utility.yul\":365:478   */\n      jump(tag_74)\n    tag_76:\n        /* \"#utility.yul\":496:502   */\n      dup4\n        /* \"#utility.yul\":493:494   */\n      dup2\n        /* \"#utility.yul\":490:503   */\n      gt\n        /* \"#utility.yul\":487:588   */\n      iszero\n      tag_77\n      jumpi\n        /* \"#utility.yul\":576:577   */\n      0x00\n        /* \"#utility.yul\":567:573   */\n      dup5\n        /* \"#utility.yul\":562:565   */\n      dup5\n        /* \"#utility.yul\":558:574   */\n      add\n        /* \"#utility.yul\":551:578   */\n      mstore\n        /* \"#utility.yul\":487:588   */\n    tag_77:\n        /* \"#utility.yul\":336:594   */\n      pop\n        /* \"#utility.yul\":287:594   */\n      pop\n      pop\n      pop\n      jump\t// out\n        /* \"#utility.yul\":600:702   */\n    tag_51:\n        /* \"#utility.yul\":641:647   */\n      0x00\n        /* \"#utility.yul\":692:694   */\n      0x1f\n        /* \"#utility.yul\":688:695   */\n      not\n        /* \"#utility.yul\":683:685   */\n      0x1f\n        /* \"#utility.yul\":676:681   */\n      dup4\n        /* \"#utility.yul\":672:686   */\n      add\n        /* \"#utility.yul\":668:696   */\n      and\n        /* \"#utility.yul\":658:696   */\n      swap1\n      pop\n        /* \"#utility.yul\":600:702   */\n      swap2\n      swap1\n      pop\n      jump\t// out\n        /* \"#utility.yul\":708:1072   */\n    tag_52:\n        /* \"#utility.yul\":796:799   */\n      0x00\n        /* \"#utility.yul\":824:863   */\n      tag_80\n        /* \"#utility.yul\":857:862   */\n      dup3\n        /* \"#utility.yul\":824:863   */\n      tag_48\n      jump\t// in\n    tag_80:\n        /* \"#utility.yul\":879:950   */\n      tag_81\n        /* \"#utility.yul\":943:949   */\n      dup2\n        /* \"#utility.yul\":938:941   */\n      dup6\n        /* \"#utility.yul\":879:950   */\n      tag_49\n      jump\t// in\n    tag_81:\n        /* \"#utility.yul\":872:950   */\n      swap4\n      pop\n        /* \"#utility.yul\":959:1011   */\n      tag_82\n        /* \"#utility.yul\":1004:1010   */\n      dup2\n        /* \"#utility.yul\":999:1002   */\n      dup6\n        /* \"#utility.yul\":992:996   */\n      0x20\n        /* \"#utility.yul\":985:990   */\n      dup7\n        /* \"#utility.yul\":981:997   */\n      add\n        /* \"#utility.yul\":959:1011   */\n      tag_50\n      jump\t// in\n    tag_82:\n        /* \"#utility.yul\":1036:1065   */\n      tag_83\n        /* \"#utility.yul\":1058:1064   */\n      dup2\n        /* \"#utility.yul\":1036:1065   */\n      tag_51\n      jump\t// in\n    tag_83:\n        /* \"#utility.yul\":1031:1034   */\n      dup5\n        /* \"#utility.yul\":1027:1066   */\n      add\n        /* \"#utility.yul\":1020:1066   */\n      swap2\n      pop\n        /* \"#utility.yul\":800:1072   */\n      pop\n        /* \"#utility.yul\":708:1072   */\n      swap3\n      swap2\n      pop\n      pop\n      jump\t// out\n        /* \"#utility.yul\":1078:1391   */\n    tag_14:\n        /* \"#utility.yul\":1191:1195   */\n      0x00\n        /* \"#utility.yul\":1229:1231   */\n      0x20\n        /* \"#utility.yul\":1218:1227   */\n      dup3\n        /* \"#utility.yul\":1214:1232   */\n      add\n        /* \"#utility.yul\":1206:1232   */\n      swap1\n      pop\n        /* \"#utility.yul\":1278:1287   */\n      dup2\n        /* \"#utility.yul\":1272:1276   */\n      dup2\n        /* \"#utility.yul\":1268:1288   */\n      sub\n        /* \"#utility.yul\":1264:1265   */\n      0x00\n        /* \"#utility.yul\":1253:1262   */\n      dup4\n        /* \"#utility.yul\":1249:1266   */\n      add\n        /* \"#utility.yul\":1242:1289   */\n      mstore\n        /* \"#utility.yul\":1306:1384   */\n      tag_85\n        /* \"#utility.yul\":1379:1383   */\n      dup2\n        /* \"#utility.yul\":1370:1376   */\n      dup5\n        /* \"#utility.yul\":1306:1384   */\n      tag_52\n      jump\t// in\n    tag_85:\n        /* \"#utility.yul\":1298:1384   */\n      swap1\n      pop\n        /* \"#utility.yul\":1078:1391   */\n      swap3\n      swap2\n      pop\n      pop\n      jump\t// out\n        /* \"#utility.yul\":1397:1523   */\n    tag_53:\n        /* \"#utility.yul\":1434:1441   */\n      0x00\n        /* \"#utility.yul\":1474:1516   */\n      0xffffffffffffffffffffffffffffffffffffffff\n        /* \"#utility.yul\":1467:1472   */\n      dup3\n        /* \"#utility.yul\":1463:1517   */\n      and\n        /* \"#utility.yul\":1452:1517   */\n      swap1\n      pop\n        /* \"#utility.yul\":1397:1523   */\n      swap2\n      swap1\n      pop\n      jump\t// out\n        /* \"#utility.yul\":1529:1625   */\n    tag_54:\n        /* \"#utility.yul\":1566:1573   */\n      0x00\n        /* \"#utility.yul\":1595:1619   */\n      tag_88\n        /* \"#utility.yul\":1613:1618   */\n      dup3\n        /* \"#utility.yul\":1595:1619   */\n      tag_53\n      jump\t// in\n    tag_88:\n        /* \"#utility.yul\":1584:1619   */\n      swap1\n      pop\n        /* \"#utility.yul\":1529:1625   */\n      swap2\n      swap1\n      pop\n      jump\t// out\n        /* \"#utility.yul\":1631:1749   */\n    tag_55:\n        /* \"#utility.yul\":1718:1742   */\n      tag_90\n        /* \"#utility.yul\":1736:1741   */\n      dup2\n        /* \"#utility.yul\":1718:1742   */\n      tag_54\n      jump\t// in\n    tag_90:\n        /* \"#utility.yul\":1713:1716   */\n      dup3\n        /* \"#utility.yul\":1706:1743   */\n      mstore\n        /* \"#utility.yul\":1631:1749   */\n      pop\n      pop\n      jump\t// out\n        /* \"#utility.yul\":1755:1977   */\n    tag_18:\n        /* \"#utility.yul\":1848:1852   */\n      0x00\n        /* \"#utility.yul\":1886:1888   */\n      0x20\n        /* \"#utility.yul\":1875:1884   */\n      dup3\n        /* \"#utility.yul\":1871:1889   */\n      add\n        /* \"#utility.yul\":1863:1889   */\n      swap1\n      pop\n        /* \"#utility.yul\":1899:1970   */\n      tag_92\n        /* \"#utility.yul\":1967:1968   */\n      0x00\n        /* \"#utility.yul\":1956:1965   */\n      dup4\n        /* \"#utility.yul\":1952:1969   */\n      add\n        /* \"#utility.yul\":1943:1949   */\n      dup5\n        /* \"#utility.yul\":1899:1970   */\n      tag_55\n      jump\t// in\n    tag_92:\n        /* \"#utility.yul\":1755:1977   */\n      swap3\n      swap2\n      pop\n      pop\n      jump\t// out\n        /* \"#utility.yul\":1983:2073   */\n    tag_56:\n        /* \"#utility.yul\":2017:2024   */\n      0x00\n        /* \"#utility.yul\":2060:2065   */\n      dup2\n        /* \"#utility.yul\":2053:2066   */\n      iszero\n        /* \"#utility.yul\":2046:2067   */\n      iszero\n        /* \"#utility.yul\":2035:2067   */\n      swap1\n      pop\n        /* \"#utility.yul\":1983:2073   */\n      swap2\n      swap1\n      pop\n      jump\t// out\n        /* \"#utility.yul\":2079:2188   */\n    tag_57:\n        /* \"#utility.yul\":2160:2181   */\n      tag_95\n        /* \"#utility.yul\":2175:2180   */\n      dup2\n        /* \"#utility.yul\":2160:2181   */\n      tag_56\n      jump\t// in\n    tag_95:\n        /* \"#utility.yul\":2155:2158   */\n      dup3\n        /* \"#utility.yul\":2148:2182   */\n      mstore\n        /* \"#utility.yul\":2079:2188   */\n      pop\n      pop\n      jump\t// out\n        /* \"#utility.yul\":2194:2404   */\n    tag_28:\n        /* \"#utility.yul\":2281:2285   */\n      0x00\n        /* \"#utility.yul\":2319:2321   */\n      0x20\n        /* \"#utility.yul\":2308:2317   */\n      dup3\n        /* \"#utility.yul\":2304:2322   */\n      add\n        /* \"#utility.yul\":2296:2322   */\n      swap1\n      pop\n        /* \"#utility.yul\":2332:2397   */\n      tag_97\n        /* \"#utility.yul\":2394:2395   */\n      0x00\n        /* \"#utility.yul\":2383:2392   */\n      dup4\n        /* \"#utility.yul\":2379:2396   */\n      add\n        /* \"#utility.yul\":2370:2376   */\n      dup5\n        /* \"#utility.yul\":2332:2397   */\n      tag_57\n      jump\t// in\n    tag_97:\n        /* \"#utility.yul\":2194:2404   */\n      swap3\n      swap2\n      pop\n      pop\n      jump\t// out\n        /* \"#utility.yul\":2491:2608   */\n    tag_59:\n        /* \"#utility.yul\":2600:2601   */\n      0x00\n        /* \"#utility.yul\":2597:2598   */\n      dup1\n        /* \"#utility.yul\":2590:2602   */\n      revert\n        /* \"#utility.yul\":2737:2814   */\n    tag_61:\n        /* \"#utility.yul\":2774:2781   */\n      0x00\n        /* \"#utility.yul\":2803:2808   */\n      dup2\n        /* \"#utility.yul\":2792:2808   */\n      swap1\n      pop\n        /* \"#utility.yul\":2737:2814   */\n      swap2\n      swap1\n      pop\n      jump\t// out\n        /* \"#utility.yul\":2820:2942   */\n    tag_62:\n        /* \"#utility.yul\":2893:2917   */\n      tag_103\n        /* \"#utility.yul\":2911:2916   */\n      dup2\n        /* \"#utility.yul\":2893:2917   */\n      tag_61\n      jump\t// in\n    tag_103:\n        /* \"#utility.yul\":2886:2891   */\n      dup2\n        /* \"#utility.yul\":2883:2918   */\n      eq\n        /* \"#utility.yul\":2873:2936   */\n      tag_104\n      jumpi\n        /* \"#utility.yul\":2932:2933   */\n      0x00\n        /* \"#utility.yul\":2929:2930   */\n      dup1\n        /* \"#utility.yul\":2922:2934   */\n      revert\n        /* \"#utility.yul\":2873:2936   */\n    tag_104:\n        /* \"#utility.yul\":2820:2942   */\n      pop\n      jump\t// out\n        /* \"#utility.yul\":2948:3087   */\n    tag_63:\n        /* \"#utility.yul\":2994:2999   */\n      0x00\n        /* \"#utility.yul\":3032:3038   */\n      dup2\n        /* \"#utility.yul\":3019:3039   */\n      calldataload\n        /* \"#utility.yul\":3010:3039   */\n      swap1\n      pop\n        /* \"#utility.yul\":3048:3081   */\n      tag_106\n        /* \"#utility.yul\":3075:3080   */\n      dup2\n        /* \"#utility.yul\":3048:3081   */\n      tag_62\n      jump\t// in\n    tag_106:\n        /* \"#utility.yul\":2948:3087   */\n      swap3\n      swap2\n      pop\n      pop\n      jump\t// out\n        /* \"#utility.yul\":3093:3422   */\n    tag_34:\n        /* \"#utility.yul\":3152:3158   */\n      0x00\n        /* \"#utility.yul\":3201:3203   */\n      0x20\n        /* \"#utility.yul\":3189:3198   */\n      dup3\n        /* \"#utility.yul\":3180:3187   */\n      dup5\n        /* \"#utility.yul\":3176:3199   */\n      sub\n        /* \"#utility.yul\":3172:3204   */\n      slt\n        /* \"#utility.yul\":3169:3288   */\n      iszero\n      tag_108\n      jumpi\n        /* \"#utility.yul\":3207:3286   */\n      tag_109\n      tag_59\n      jump\t// in\n    tag_109:\n        /* \"#utility.yul\":3169:3288   */\n    tag_108:\n        /* \"#utility.yul\":3327:3328   */\n      0x00\n        /* \"#utility.yul\":3352:3405   */\n      tag_110\n        /* \"#utility.yul\":3397:3404   */\n      dup5\n        /* \"#utility.yul\":3388:3394   */\n      dup3\n        /* \"#utility.yul\":3377:3386   */\n      dup6\n        /* \"#utility.yul\":3373:3395   */\n      add\n        /* \"#utility.yul\":3352:3405   */\n      tag_63\n      jump\t// in\n    tag_110:\n        /* \"#utility.yul\":3342:3405   */\n      swap2\n      pop\n        /* \"#utility.yul\":3298:3415   */\n      pop\n        /* \"#utility.yul\":3093:3422   */\n      swap3\n      swap2\n      pop\n      pop\n      jump\t// out\n        /* \"#utility.yul\":3428:3546   */\n    tag_64:\n        /* \"#utility.yul\":3515:3539   */\n      tag_112\n        /* \"#utility.yul\":3533:3538   */\n      dup2\n        /* \"#utility.yul\":3515:3539   */\n      tag_61\n      jump\t// in\n    tag_112:\n        /* \"#utility.yul\":3510:3513   */\n      dup3\n        /* \"#utility.yul\":3503:3540   */\n      mstore\n        /* \"#utility.yul\":3428:3546   */\n      pop\n      pop\n      jump\t// out\n        /* \"#utility.yul\":3552:3884   */\n    tag_40:\n        /* \"#utility.yul\":3673:3677   */\n      0x00\n        /* \"#utility.yul\":3711:3713   */\n      0x40\n        /* \"#utility.yul\":3700:3709   */\n      dup3\n        /* \"#utility.yul\":3696:3714   */\n      add\n        /* \"#utility.yul\":3688:3714   */\n      swap1\n      pop\n        /* \"#utility.yul\":3724:3795   */\n      tag_114\n        /* \"#utility.yul\":3792:3793   */\n      0x00\n        /* \"#utility.yul\":3781:3790   */\n      dup4\n        /* \"#utility.yul\":3777:3794   */\n      add\n        /* \"#utility.yul\":3768:3774   */\n      dup6\n        /* \"#utility.yul\":3724:3795   */\n      tag_55\n      jump\t// in\n    tag_114:\n        /* \"#utility.yul\":3805:3877   */\n      tag_115\n        /* \"#utility.yul\":3873:3875   */\n      0x20\n        /* \"#utility.yul\":3862:3871   */\n      dup4\n        /* \"#utility.yul\":3858:3876   */\n      add\n        /* \"#utility.yul\":3849:3855   */\n      dup5\n        /* \"#utility.yul\":3805:3877   */\n      tag_64\n      jump\t// in\n    tag_115:\n        /* \"#utility.yul\":3552:3884   */\n      swap4\n      swap3\n      pop\n      pop\n      pop\n      jump\t// out\n        /* \"#utility.yul\":3890:3988   */\n    tag_65:\n        /* \"#utility.yul\":3941:3947   */\n      0x00\n        /* \"#utility.yul\":3975:3980   */\n      dup2\n        /* \"#utility.yul\":3969:3981   */\n      mload\n        /* \"#utility.yul\":3959:3981   */\n      swap1\n      pop\n        /* \"#utility.yul\":3890:3988   */\n      swap2\n      swap1\n      pop\n      jump\t// out\n        /* \"#utility.yul\":3994:4141   */\n    tag_66:\n        /* \"#utility.yul\":4095:4106   */\n      0x00\n        /* \"#utility.yul\":4132:4135   */\n      dup2\n        /* \"#utility.yul\":4117:4135   */\n      swap1\n      pop\n        /* \"#utility.yul\":3994:4141   */\n      swap3\n      swap2\n      pop\n      pop\n      jump\t// out\n        /* \"#utility.yul\":4147:4520   */\n    tag_67:\n        /* \"#utility.yul\":4251:4254   */\n      0x00\n        /* \"#utility.yul\":4279:4317   */\n      tag_119\n        /* \"#utility.yul\":4311:4316   */\n      dup3\n        /* \"#utility.yul\":4279:4317   */\n      tag_65\n      jump\t// in\n    tag_119:\n        /* \"#utility.yul\":4333:4421   */\n      tag_120\n        /* \"#utility.yul\":4414:4420   */\n      dup2\n        /* \"#utility.yul\":4409:4412   */\n      dup6\n        /* \"#utility.yul\":4333:4421   */\n      tag_66\n      jump\t// in\n    tag_120:\n        /* \"#utility.yul\":4326:4421   */\n      swap4\n      pop\n        /* \"#utility.yul\":4430:4482   */\n      tag_121\n        /* \"#utility.yul\":4475:4481   */\n      dup2\n        /* \"#utility.yul\":4470:4473   */\n      dup6\n        /* \"#utility.yul\":4463:4467   */\n      0x20\n        /* \"#utility.yul\":4456:4461   */\n      dup7\n        /* \"#utility.yul\":4452:4468   */\n      add\n        /* \"#utility.yul\":4430:4482   */\n      tag_50\n      jump\t// in\n    tag_121:\n        /* \"#utility.yul\":4507:4513   */\n      dup1\n        /* \"#utility.yul\":4502:4505   */\n      dup5\n        /* \"#utility.yul\":4498:4514   */\n      add\n        /* \"#utility.yul\":4491:4514   */\n      swap2\n      pop\n        /* \"#utility.yul\":4255:4520   */\n      pop\n        /* \"#utility.yul\":4147:4520   */\n      swap3\n      swap2\n      pop\n      pop\n      jump\t// out\n        /* \"#utility.yul\":4526:4797   */\n    tag_42:\n        /* \"#utility.yul\":4656:4659   */\n      0x00\n        /* \"#utility.yul\":4678:4771   */\n      tag_123\n        /* \"#utility.yul\":4767:4770   */\n      dup3\n        /* \"#utility.yul\":4758:4764   */\n      dup5\n        /* \"#utility.yul\":4678:4771   */\n      tag_67\n      jump\t// in\n    tag_123:\n        /* \"#utility.yul\":4671:4771   */\n      swap2\n      pop\n        /* \"#utility.yul\":4788:4791   */\n      dup2\n        /* \"#utility.yul\":4781:4791   */\n      swap1\n      pop\n        /* \"#utility.yul\":4526:4797   */\n      swap3\n      swap2\n      pop\n      pop\n      jump\t// out\n        /* \"#utility.yul\":4803:4971   */\n    tag_68:\n        /* \"#utility.yul\":4886:4897   */\n      0x00\n        /* \"#utility.yul\":4920:4926   */\n      dup3\n        /* \"#utility.yul\":4915:4918   */\n      dup3\n        /* \"#utility.yul\":4908:4927   */\n      mstore\n        /* \"#utility.yul\":4960:4964   */\n      0x20\n        /* \"#utility.yul\":4955:4958   */\n      dup3\n        /* \"#utility.yul\":4951:4965   */\n      add\n        /* \"#utility.yul\":4936:4965   */\n      swap1\n      pop\n        /* \"#utility.yul\":4803:4971   */\n      swap3\n      swap2\n      pop\n      pop\n      jump\t// out\n        /* \"#utility.yul\":4977:5337   */\n    tag_69:\n        /* \"#utility.yul\":5063:5066   */\n      0x00\n        /* \"#utility.yul\":5091:5129   */\n      tag_126\n        /* \"#utility.yul\":5123:5128   */\n      dup3\n        /* \"#utility.yul\":5091:5129   */\n      tag_65\n      jump\t// in\n    tag_126:\n        /* \"#utility.yul\":5145:5215   */\n      tag_127\n        /* \"#utility.yul\":5208:5214   */\n      dup2\n        /* \"#utility.yul\":5203:5206   */\n      dup6\n        /* \"#utility.yul\":5145:5215   */\n      tag_68\n      jump\t// in\n    tag_127:\n        /* \"#utility.yul\":5138:5215   */\n      swap4\n      pop\n        /* \"#utility.yul\":5224:5276   */\n      tag_128\n        /* \"#utility.yul\":5269:5275   */\n      dup2\n        /* \"#utility.yul\":5264:5267   */\n      dup6\n        /* \"#utility.yul\":5257:5261   */\n      0x20\n        /* \"#utility.yul\":5250:5255   */\n      dup7\n        /* \"#utility.yul\":5246:5262   */\n      add\n        /* \"#utility.yul\":5224:5276   */\n      tag_50\n      jump\t// in\n    tag_128:\n        /* \"#utility.yul\":5301:5330   */\n      tag_129\n        /* \"#utility.yul\":5323:5329   */\n      dup2\n        /* \"#utility.yul\":5301:5330   */\n      tag_51\n      jump\t// in\n    tag_129:\n        /* \"#utility.yul\":5296:5299   */\n      dup5\n        /* \"#utility.yul\":5292:5331   */\n      add\n        /* \"#utility.yul\":5285:5331   */\n      swap2\n      pop\n        /* \"#utility.yul\":5067:5337   */\n      pop\n        /* \"#utility.yul\":4977:5337   */\n      swap3\n      swap2\n      pop\n      pop\n      jump\t// out\n        /* \"#utility.yul\":5343:5750   */\n    tag_47:\n        /* \"#utility.yul\":5476:5480   */\n      0x00\n        /* \"#utility.yul\":5514:5516   */\n      0x40\n        /* \"#utility.yul\":5503:5512   */\n      dup3\n        /* \"#utility.yul\":5499:5517   */\n      add\n        /* \"#utility.yul\":5491:5517   */\n      swap1\n      pop\n        /* \"#utility.yul\":5527:5592   */\n      tag_131\n        /* \"#utility.yul\":5589:5590   */\n      0x00\n        /* \"#utility.yul\":5578:5587   */\n      dup4\n        /* \"#utility.yul\":5574:5591   */\n      add\n        /* \"#utility.yul\":5565:5571   */\n      dup6\n        /* \"#utility.yul\":5527:5592   */\n      tag_57\n      jump\t// in\n    tag_131:\n        /* \"#utility.yul\":5639:5648   */\n      dup2\n        /* \"#utility.yul\":5633:5637   */\n      dup2\n        /* \"#utility.yul\":5629:5649   */\n      sub\n        /* \"#utility.yul\":5624:5626   */\n      0x20\n        /* \"#utility.yul\":5613:5622   */\n      dup4\n        /* \"#utility.yul\":5609:5627   */\n      add\n        /* \"#utility.yul\":5602:5650   */\n      mstore\n        /* \"#utility.yul\":5667:5743   */\n      tag_132\n        /* \"#utility.yul\":5738:5742   */\n      dup2\n        /* \"#utility.yul\":5729:5735   */\n      dup5\n        /* \"#utility.yul\":5667:5743   */\n      tag_69\n      jump\t// in\n    tag_132:\n        /* \"#utility.yul\":5659:5743   */\n      swap1\n      pop\n        /* \"#utility.yul\":5343:5750   */\n      swap4\n      swap3\n      pop\n      pop\n      pop\n      jump\t// out\n\n    auxdata: 0xa2646970667358221220f6aa8fc38a03de9e42dcfdb5d3764361aa51074ae0a20cce8d62517362f3c76364736f6c634300080f0033\n}\n",
				"bytecode": {
					"linkReferences": {},
					"object": "608060405273e9e7cea3dedca5984780bafc599bd69add087d56600160006101000a81548173ffffffffffffffffffffffffffffffffffffffff021916908373ffffffffffffffffffffffffffffffffffffffff160217905550738ac76a51cc950d9822d68b83fe1ad97b32cd580d600260006101000a81548173ffffffffffffffffffffffffffffffffffffffff021916908373ffffffffffffffffffffffffffffffffffffffff160217905550732170ed0880ac9a755fd29b2688956bd959f933f8600360006101000a81548173ffffffffffffffffffffffffffffffffffffffff021916908373ffffffffffffffffffffffffffffffffffffffff16021790555034801561010f57600080fd5b50336000806101000a81548173ffffffffffffffffffffffffffffffffffffffff021916908373ffffffffffffffffffffffffffffffffffffffff1602179055506106d78061015f6000396000f3fe608060405234801561001057600080fd5b506004361061007d5760003560e01c80639347e6d71161005b5780639347e6d7146100dc578063ae638e06146100fa578063eabe09ad14610118578063f0753d7c146101365761007d565b806315070401146100825780638da5cb5b146100a05780638de38f98146100be575b600080fd5b61008a610166565b6040516100979190610475565b60405180910390f35b6100a8610193565b6040516100b591906104d8565b60405180910390f35b6100c66101b7565b6040516100d391906104d8565b60405180910390f35b6100e46101dd565b6040516100f191906104d8565b60405180910390f35b610102610203565b60405161010f919061050e565b60405180910390f35b610120610216565b60405161012d91906104d8565b60405180910390f35b610150600480360381019061014b9190610564565b61023c565b60405161015d919061050e565b60405180910390f35b60606000600260009054906101000a900473ffffffffffffffffffffffffffffffffffffffff1690505090565b60008054906101000a900473ffffffffffffffffffffffffffffffffffffffff1681565b600260009054906101000a900473ffffffffffffffffffffffffffffffffffffffff1681565b600360009054906101000a900473ffffffffffffffffffffffffffffffffffffffff1681565b600360149054906101000a900460ff1681565b600160009054906101000a900473ffffffffffffffffffffffffffffffffffffffff1681565b6000806000600360009054906101000a900473ffffffffffffffffffffffffffffffffffffffff1673ffffffffffffffffffffffffffffffffffffffff1660008054906101000a900473ffffffffffffffffffffffffffffffffffffffff16856040516024016102ad9291906105a0565b6040516020818303038152906040527f8b069f2a000000000000000000000000000000000000000000000000000000007bffffffffffffffffffffffffffffffffffffffffffffffffffffffff19166020820180517bffffffffffffffffffffffffffffffffffffffffffffffffffffffff83818316178352505050506040516103379190610610565b6000604051808303816000865af19150503d8060008114610374576040519150601f19603f3d011682016040523d82523d6000602084013e610379565b606091505b50915091507f13848c3e38f8886f3f5d2ad9dff80d8092c2bbb8efd5b887a99c2c6cfc09ac2a82826040516103af929190610671565b60405180910390a181600360146101000a81548160ff021916908315150217905550600192505050919050565b600081519050919050565b600082825260208201905092915050565b60005b838110156104165780820151818401526020810190506103fb565b83811115610425576000848401525b50505050565b6000601f19601f8301169050919050565b6000610447826103dc565b61045181856103e7565b93506104618185602086016103f8565b61046a8161042b565b840191505092915050565b6000602082019050818103600083015261048f818461043c565b905092915050565b600073ffffffffffffffffffffffffffffffffffffffff82169050919050565b60006104c282610497565b9050919050565b6104d2816104b7565b82525050565b60006020820190506104ed60008301846104c9565b92915050565b60008115159050919050565b610508816104f3565b82525050565b600060208201905061052360008301846104ff565b92915050565b600080fd5b6000819050919050565b6105418161052e565b811461054c57600080fd5b50565b60008135905061055e81610538565b92915050565b60006020828403121561057a57610579610529565b5b60006105888482850161054f565b91505092915050565b61059a8161052e565b82525050565b60006040820190506105b560008301856104c9565b6105c26020830184610591565b9392505050565b600081519050919050565b600081905092915050565b60006105ea826105c9565b6105f481856105d4565b93506106048185602086016103f8565b80840191505092915050565b600061061c82846105df565b915081905092915050565b600082825260208201905092915050565b6000610643826105c9565b61064d8185610627565b935061065d8185602086016103f8565b6106668161042b565b840191505092915050565b600060408201905061068660008301856104ff565b81810360208301526106988184610638565b9050939250505056fea2646970667358221220f6aa8fc38a03de9e42dcfdb5d3764361aa51074ae0a20cce8d62517362f3c76364736f6c634300080f0033",
					"opcodes": "PUSH1 0x80 PUSH1 0x40 MSTORE PUSH20 0xE9E7CEA3DEDCA5984780BAFC599BD69ADD087D56 PUSH1 0x1 PUSH1 0x0 PUSH2 0x100 EXP DUP2 SLOAD DUP2 PUSH20 0xFFFFFFFFFFFFFFFFFFFFFFFFFFFFFFFFFFFFFFFF MUL NOT AND SWAP1 DUP4 PUSH20 0xFFFFFFFFFFFFFFFFFFFFFFFFFFFFFFFFFFFFFFFF AND MUL OR SWAP1 SSTORE POP PUSH20 0x8AC76A51CC950D9822D68B83FE1AD97B32CD580D PUSH1 0x2 PUSH1 0x0 PUSH2 0x100 EXP DUP2 SLOAD DUP2 PUSH20 0xFFFFFFFFFFFFFFFFFFFFFFFFFFFFFFFFFFFFFFFF MUL NOT AND SWAP1 DUP4 PUSH20 0xFFFFFFFFFFFFFFFFFFFFFFFFFFFFFFFFFFFFFFFF AND MUL OR SWAP1 SSTORE POP PUSH20 0x2170ED0880AC9A755FD29B2688956BD959F933F8 PUSH1 0x3 PUSH1 0x0 PUSH2 0x100 EXP DUP2 SLOAD DUP2 PUSH20 0xFFFFFFFFFFFFFFFFFFFFFFFFFFFFFFFFFFFFFFFF MUL NOT AND SWAP1 DUP4 PUSH20 0xFFFFFFFFFFFFFFFFFFFFFFFFFFFFFFFFFFFFFFFF AND MUL OR SWAP1 SSTORE POP CALLVALUE DUP1 ISZERO PUSH2 0x10F JUMPI PUSH1 0x0 DUP1 REVERT JUMPDEST POP CALLER PUSH1 0x0 DUP1 PUSH2 0x100 EXP DUP2 SLOAD DUP2 PUSH20 0xFFFFFFFFFFFFFFFFFFFFFFFFFFFFFFFFFFFFFFFF MUL NOT AND SWAP1 DUP4 PUSH20 0xFFFFFFFFFFFFFFFFFFFFFFFFFFFFFFFFFFFFFFFF AND MUL OR SWAP1 SSTORE POP PUSH2 0x6D7 DUP1 PUSH2 0x15F PUSH1 0x0 CODECOPY PUSH1 0x0 RETURN INVALID PUSH1 0x80 PUSH1 0x40 MSTORE CALLVALUE DUP1 ISZERO PUSH2 0x10 JUMPI PUSH1 0x0 DUP1 REVERT JUMPDEST POP PUSH1 0x4 CALLDATASIZE LT PUSH2 0x7D JUMPI PUSH1 0x0 CALLDATALOAD PUSH1 0xE0 SHR DUP1 PUSH4 0x9347E6D7 GT PUSH2 0x5B JUMPI DUP1 PUSH4 0x9347E6D7 EQ PUSH2 0xDC JUMPI DUP1 PUSH4 0xAE638E06 EQ PUSH2 0xFA JUMPI DUP1 PUSH4 0xEABE09AD EQ PUSH2 0x118 JUMPI DUP1 PUSH4 0xF0753D7C EQ PUSH2 0x136 JUMPI PUSH2 0x7D JUMP JUMPDEST DUP1 PUSH4 0x15070401 EQ PUSH2 0x82 JUMPI DUP1 PUSH4 0x8DA5CB5B EQ PUSH2 0xA0 JUMPI DUP1 PUSH4 0x8DE38F98 EQ PUSH2 0xBE JUMPI JUMPDEST PUSH1 0x0 DUP1 REVERT JUMPDEST PUSH2 0x8A PUSH2 0x166 JUMP JUMPDEST PUSH1 0x40 MLOAD PUSH2 0x97 SWAP2 SWAP1 PUSH2 0x475 JUMP JUMPDEST PUSH1 0x40 MLOAD DUP1 SWAP2 SUB SWAP1 RETURN JUMPDEST PUSH2 0xA8 PUSH2 0x193 JUMP JUMPDEST PUSH1 0x40 MLOAD PUSH2 0xB5 SWAP2 SWAP1 PUSH2 0x4D8 JUMP JUMPDEST PUSH1 0x40 MLOAD DUP1 SWAP2 SUB SWAP1 RETURN JUMPDEST PUSH2 0xC6 PUSH2 0x1B7 JUMP JUMPDEST PUSH1 0x40 MLOAD PUSH2 0xD3 SWAP2 SWAP1 PUSH2 0x4D8 JUMP JUMPDEST PUSH1 0x40 MLOAD DUP1 SWAP2 SUB SWAP1 RETURN JUMPDEST PUSH2 0xE4 PUSH2 0x1DD JUMP JUMPDEST PUSH1 0x40 MLOAD PUSH2 0xF1 SWAP2 SWAP1 PUSH2 0x4D8 JUMP JUMPDEST PUSH1 0x40 MLOAD DUP1 SWAP2 SUB SWAP1 RETURN JUMPDEST PUSH2 0x102 PUSH2 0x203 JUMP JUMPDEST PUSH1 0x40 MLOAD PUSH2 0x10F SWAP2 SWAP1 PUSH2 0x50E JUMP JUMPDEST PUSH1 0x40 MLOAD DUP1 SWAP2 SUB SWAP1 RETURN JUMPDEST PUSH2 0x120 PUSH2 0x216 JUMP JUMPDEST PUSH1 0x40 MLOAD PUSH2 0x12D SWAP2 SWAP1 PUSH2 0x4D8 JUMP JUMPDEST PUSH1 0x40 MLOAD DUP1 SWAP2 SUB SWAP1 RETURN JUMPDEST PUSH2 0x150 PUSH1 0x4 DUP1 CALLDATASIZE SUB DUP2 ADD SWAP1 PUSH2 0x14B SWAP2 SWAP1 PUSH2 0x564 JUMP JUMPDEST PUSH2 0x23C JUMP JUMPDEST PUSH1 0x40 MLOAD PUSH2 0x15D SWAP2 SWAP1 PUSH2 0x50E JUMP JUMPDEST PUSH1 0x40 MLOAD DUP1 SWAP2 SUB SWAP1 RETURN JUMPDEST PUSH1 0x60 PUSH1 0x0 PUSH1 0x2 PUSH1 0x0 SWAP1 SLOAD SWAP1 PUSH2 0x100 EXP SWAP1 DIV PUSH20 0xFFFFFFFFFFFFFFFFFFFFFFFFFFFFFFFFFFFFFFFF AND SWAP1 POP POP SWAP1 JUMP JUMPDEST PUSH1 0x0 DUP1 SLOAD SWAP1 PUSH2 0x100 EXP SWAP1 DIV PUSH20 0xFFFFFFFFFFFFFFFFFFFFFFFFFFFFFFFFFFFFFFFF AND DUP2 JUMP JUMPDEST PUSH1 0x2 PUSH1 0x0 SWAP1 SLOAD SWAP1 PUSH2 0x100 EXP SWAP1 DIV PUSH20 0xFFFFFFFFFFFFFFFFFFFFFFFFFFFFFFFFFFFFFFFF AND DUP2 JUMP JUMPDEST PUSH1 0x3 PUSH1 0x0 SWAP1 SLOAD SWAP1 PUSH2 0x100 EXP SWAP1 DIV PUSH20 0xFFFFFFFFFFFFFFFFFFFFFFFFFFFFFFFFFFFFFFFF AND DUP2 JUMP JUMPDEST PUSH1 0x3 PUSH1 0x14 SWAP1 SLOAD SWAP1 PUSH2 0x100 EXP SWAP1 DIV PUSH1 0xFF AND DUP2 JUMP JUMPDEST PUSH1 0x1 PUSH1 0x0 SWAP1 SLOAD SWAP1 PUSH2 0x100 EXP SWAP1 DIV PUSH20 0xFFFFFFFFFFFFFFFFFFFFFFFFFFFFFFFFFFFFFFFF AND DUP2 JUMP JUMPDEST PUSH1 0x0 DUP1 PUSH1 0x0 PUSH1 0x3 PUSH1 0x0 SWAP1 SLOAD SWAP1 PUSH2 0x100 EXP SWAP1 DIV PUSH20 0xFFFFFFFFFFFFFFFFFFFFFFFFFFFFFFFFFFFFFFFF AND PUSH20 0xFFFFFFFFFFFFFFFFFFFFFFFFFFFFFFFFFFFFFFFF AND PUSH1 0x0 DUP1 SLOAD SWAP1 PUSH2 0x100 EXP SWAP1 DIV PUSH20 0xFFFFFFFFFFFFFFFFFFFFFFFFFFFFFFFFFFFFFFFF AND DUP6 PUSH1 0x40 MLOAD PUSH1 0x24 ADD PUSH2 0x2AD SWAP3 SWAP2 SWAP1 PUSH2 0x5A0 JUMP JUMPDEST PUSH1 0x40 MLOAD PUSH1 0x20 DUP2 DUP4 SUB SUB DUP2 MSTORE SWAP1 PUSH1 0x40 MSTORE PUSH32 0x8B069F2A00000000000000000000000000000000000000000000000000000000 PUSH28 0xFFFFFFFFFFFFFFFFFFFFFFFFFFFFFFFFFFFFFFFFFFFFFFFFFFFFFFFF NOT AND PUSH1 0x20 DUP3 ADD DUP1 MLOAD PUSH28 0xFFFFFFFFFFFFFFFFFFFFFFFFFFFFFFFFFFFFFFFFFFFFFFFFFFFFFFFF DUP4 DUP2 DUP4 AND OR DUP4 MSTORE POP POP POP POP PUSH1 0x40 MLOAD PUSH2 0x337 SWAP2 SWAP1 PUSH2 0x610 JUMP JUMPDEST PUSH1 0x0 PUSH1 0x40 MLOAD DUP1 DUP4 SUB DUP2 PUSH1 0x0 DUP7 GAS CALL SWAP2 POP POP RETURNDATASIZE DUP1 PUSH1 0x0 DUP2 EQ PUSH2 0x374 JUMPI PUSH1 0x40 MLOAD SWAP2 POP PUSH1 0x1F NOT PUSH1 0x3F RETURNDATASIZE ADD AND DUP3 ADD PUSH1 0x40 MSTORE RETURNDATASIZE DUP3 MSTORE RETURNDATASIZE PUSH1 0x0 PUSH1 0x20 DUP5 ADD RETURNDATACOPY PUSH2 0x379 JUMP JUMPDEST PUSH1 0x60 SWAP2 POP JUMPDEST POP SWAP2 POP SWAP2 POP PUSH32 0x13848C3E38F8886F3F5D2AD9DFF80D8092C2BBB8EFD5B887A99C2C6CFC09AC2A DUP3 DUP3 PUSH1 0x40 MLOAD PUSH2 0x3AF SWAP3 SWAP2 SWAP1 PUSH2 0x671 JUMP JUMPDEST PUSH1 0x40 MLOAD DUP1 SWAP2 SUB SWAP1 LOG1 DUP2 PUSH1 0x3 PUSH1 0x14 PUSH2 0x100 EXP DUP2 SLOAD DUP2 PUSH1 0xFF MUL NOT AND SWAP1 DUP4 ISZERO ISZERO MUL OR SWAP1 SSTORE POP PUSH1 0x1 SWAP3 POP POP POP SWAP2 SWAP1 POP JUMP JUMPDEST PUSH1 0x0 DUP2 MLOAD SWAP1 POP SWAP2 SWAP1 POP JUMP JUMPDEST PUSH1 0x0 DUP3 DUP3 MSTORE PUSH1 0x20 DUP3 ADD SWAP1 POP SWAP3 SWAP2 POP POP JUMP JUMPDEST PUSH1 0x0 JUMPDEST DUP4 DUP2 LT ISZERO PUSH2 0x416 JUMPI DUP1 DUP3 ADD MLOAD DUP2 DUP5 ADD MSTORE PUSH1 0x20 DUP2 ADD SWAP1 POP PUSH2 0x3FB JUMP JUMPDEST DUP4 DUP2 GT ISZERO PUSH2 0x425 JUMPI PUSH1 0x0 DUP5 DUP5 ADD MSTORE JUMPDEST POP POP POP POP JUMP JUMPDEST PUSH1 0x0 PUSH1 0x1F NOT PUSH1 0x1F DUP4 ADD AND SWAP1 POP SWAP2 SWAP1 POP JUMP JUMPDEST PUSH1 0x0 PUSH2 0x447 DUP3 PUSH2 0x3DC JUMP JUMPDEST PUSH2 0x451 DUP2 DUP6 PUSH2 0x3E7 JUMP JUMPDEST SWAP4 POP PUSH2 0x461 DUP2 DUP6 PUSH1 0x20 DUP7 ADD PUSH2 0x3F8 JUMP JUMPDEST PUSH2 0x46A DUP2 PUSH2 0x42B JUMP JUMPDEST DUP5 ADD SWAP2 POP POP SWAP3 SWAP2 POP POP JUMP JUMPDEST PUSH1 0x0 PUSH1 0x20 DUP3 ADD SWAP1 POP DUP2 DUP2 SUB PUSH1 0x0 DUP4 ADD MSTORE PUSH2 0x48F DUP2 DUP5 PUSH2 0x43C JUMP JUMPDEST SWAP1 POP SWAP3 SWAP2 POP POP JUMP JUMPDEST PUSH1 0x0 PUSH20 0xFFFFFFFFFFFFFFFFFFFFFFFFFFFFFFFFFFFFFFFF DUP3 AND SWAP1 POP SWAP2 SWAP1 POP JUMP JUMPDEST PUSH1 0x0 PUSH2 0x4C2 DUP3 PUSH2 0x497 JUMP JUMPDEST SWAP1 POP SWAP2 SWAP1 POP JUMP JUMPDEST PUSH2 0x4D2 DUP2 PUSH2 0x4B7 JUMP JUMPDEST DUP3 MSTORE POP POP JUMP JUMPDEST PUSH1 0x0 PUSH1 0x20 DUP3 ADD SWAP1 POP PUSH2 0x4ED PUSH1 0x0 DUP4 ADD DUP5 PUSH2 0x4C9 JUMP JUMPDEST SWAP3 SWAP2 POP POP JUMP JUMPDEST PUSH1 0x0 DUP2 ISZERO ISZERO SWAP1 POP SWAP2 SWAP1 POP JUMP JUMPDEST PUSH2 0x508 DUP2 PUSH2 0x4F3 JUMP JUMPDEST DUP3 MSTORE POP POP JUMP JUMPDEST PUSH1 0x0 PUSH1 0x20 DUP3 ADD SWAP1 POP PUSH2 0x523 PUSH1 0x0 DUP4 ADD DUP5 PUSH2 0x4FF JUMP JUMPDEST SWAP3 SWAP2 POP POP JUMP JUMPDEST PUSH1 0x0 DUP1 REVERT JUMPDEST PUSH1 0x0 DUP2 SWAP1 POP SWAP2 SWAP1 POP JUMP JUMPDEST PUSH2 0x541 DUP2 PUSH2 0x52E JUMP JUMPDEST DUP2 EQ PUSH2 0x54C JUMPI PUSH1 0x0 DUP1 REVERT JUMPDEST POP JUMP JUMPDEST PUSH1 0x0 DUP2 CALLDATALOAD SWAP1 POP PUSH2 0x55E DUP2 PUSH2 0x538 JUMP JUMPDEST SWAP3 SWAP2 POP POP JUMP JUMPDEST PUSH1 0x0 PUSH1 0x20 DUP3 DUP5 SUB SLT ISZERO PUSH2 0x57A JUMPI PUSH2 0x579 PUSH2 0x529 JUMP JUMPDEST JUMPDEST PUSH1 0x0 PUSH2 0x588 DUP5 DUP3 DUP6 ADD PUSH2 0x54F JUMP JUMPDEST SWAP2 POP POP SWAP3 SWAP2 POP POP JUMP JUMPDEST PUSH2 0x59A DUP2 PUSH2 0x52E JUMP JUMPDEST DUP3 MSTORE POP POP JUMP JUMPDEST PUSH1 0x0 PUSH1 0x40 DUP3 ADD SWAP1 POP PUSH2 0x5B5 PUSH1 0x0 DUP4 ADD DUP6 PUSH2 0x4C9 JUMP JUMPDEST PUSH2 0x5C2 PUSH1 0x20 DUP4 ADD DUP5 PUSH2 0x591 JUMP JUMPDEST SWAP4 SWAP3 POP POP POP JUMP JUMPDEST PUSH1 0x0 DUP2 MLOAD SWAP1 POP SWAP2 SWAP1 POP JUMP JUMPDEST PUSH1 0x0 DUP2 SWAP1 POP SWAP3 SWAP2 POP POP JUMP JUMPDEST PUSH1 0x0 PUSH2 0x5EA DUP3 PUSH2 0x5C9 JUMP JUMPDEST PUSH2 0x5F4 DUP2 DUP6 PUSH2 0x5D4 JUMP JUMPDEST SWAP4 POP PUSH2 0x604 DUP2 DUP6 PUSH1 0x20 DUP7 ADD PUSH2 0x3F8 JUMP JUMPDEST DUP1 DUP5 ADD SWAP2 POP POP SWAP3 SWAP2 POP POP JUMP JUMPDEST PUSH1 0x0 PUSH2 0x61C DUP3 DUP5 PUSH2 0x5DF JUMP JUMPDEST SWAP2 POP DUP2 SWAP1 POP SWAP3 SWAP2 POP POP JUMP JUMPDEST PUSH1 0x0 DUP3 DUP3 MSTORE PUSH1 0x20 DUP3 ADD SWAP1 POP SWAP3 SWAP2 POP POP JUMP JUMPDEST PUSH1 0x0 PUSH2 0x643 DUP3 PUSH2 0x5C9 JUMP JUMPDEST PUSH2 0x64D DUP2 DUP6 PUSH2 0x627 JUMP JUMPDEST SWAP4 POP PUSH2 0x65D DUP2 DUP6 PUSH1 0x20 DUP7 ADD PUSH2 0x3F8 JUMP JUMPDEST PUSH2 0x666 DUP2 PUSH2 0x42B JUMP JUMPDEST DUP5 ADD SWAP2 POP POP SWAP3 SWAP2 POP POP JUMP JUMPDEST PUSH1 0x0 PUSH1 0x40 DUP3 ADD SWAP1 POP PUSH2 0x686 PUSH1 0x0 DUP4 ADD DUP6 PUSH2 0x4FF JUMP JUMPDEST DUP2 DUP2 SUB PUSH1 0x20 DUP4 ADD MSTORE PUSH2 0x698 DUP2 DUP5 PUSH2 0x638 JUMP JUMPDEST SWAP1 POP SWAP4 SWAP3 POP POP POP JUMP INVALID LOG2 PUSH5 0x6970667358 0x22 SLT KECCAK256 0xF6 0xAA DUP16 0xC3 DUP11 SUB 0xDE SWAP15 TIMESTAMP 0xDC REVERT 0xB5 0xD3 PUSH23 0x4361AA51074AE0A20CCE8D62517362F3C76364736F6C63 NUMBER STOP ADDMOD 0xF STOP CALLER "
				},
				"gasEstimates": {
					"creation": {
						"codeDepositCost": "350200",
						"executionCost": "97453",
						"totalCost": "447653"
					},
					"external": {
						"_s()": "2543",
						"addr1()": "2558",
						"addr2()": "2559",
						"addr3()": "2514",
						"approveEth(uint256)": "infinite",
						"getSymbol()": "infinite",
						"owner()": "2534"
					}
				},
				"methodIdentifiers": {
					"_s()": "ae638e06",
					"addr1()": "eabe09ad",
					"addr2()": "8de38f98",
					"addr3()": "9347e6d7",
					"approveEth(uint256)": "f0753d7c",
					"getSymbol()": "15070401",
					"owner()": "8da5cb5b"
				}
			},
			"storageLayout": {
				"storage": [
					{
						"astId": 3,
						"contract": "contracts/Smart.sol:Smart",
						"label": "owner",
						"offset": 0,
						"slot": "0",
						"type": "t_address"
					},
					{
						"astId": 6,
						"contract": "contracts/Smart.sol:Smart",
						"label": "addr1",
						"offset": 0,
						"slot": "1",
						"type": "t_address"
					},
					{
						"astId": 9,
						"contract": "contracts/Smart.sol:Smart",
						"label": "addr2",
						"offset": 0,
						"slot": "2",
						"type": "t_address"
					},
					{
						"astId": 12,
						"contract": "contracts/Smart.sol:Smart",
						"label": "addr3",
						"offset": 0,
						"slot": "3",
						"type": "t_address"
					},
					{
						"astId": 14,
						"contract": "contracts/Smart.sol:Smart",
						"label": "_s",
						"offset": 20,
						"slot": "3",
						"type": "t_bool"
					}
				],
				"types": {
					"t_address": {
						"encoding": "inplace",
						"label": "address",
						"numberOfBytes": "20"
					},
					"t_bool": {
						"encoding": "inplace",
						"label": "bool",
						"numberOfBytes": "1"
					}
				}
			},
			"userdoc": {
				"kind": "user",
				"methods": {},
				"version": 1
			}
		}
	}
}