{
	"contracts/Smart.sol": {
		"Smart": {
			"abi": [
				{
					"inputs": [],
					"stateMutability": "nonpayable",
					"type": "constructor"
				},
				{
					"inputs": [],
					"name": "addr1",
					"outputs": [
						{
							"internalType": "address",
							"name": "",
							"type": "address"
						}
					],
					"stateMutability": "view",
					"type": "function"
				},
				{
					"inputs": [],
					"name": "addr2",
					"outputs": [
						{
							"internalType": "address",
							"name": "",
							"type": "address"
						}
					],
					"stateMutability": "view",
					"type": "function"
				},
				{
					"inputs": [],
					"name": "addr3",
					"outputs": [
						{
							"internalType": "address",
							"name": "",
							"type": "address"
						}
					],
					"stateMutability": "view",
					"type": "function"
				},
				{
					"inputs": [
						{
							"internalType": "uint256",
							"name": "_value",
							"type": "uint256"
						}
					],
					"name": "approve",
					"outputs": [
						{
							"internalType": "bool",
							"name": "",
							"type": "bool"
						}
					],
					"stateMutability": "nonpayable",
					"type": "function"
				},
				{
					"inputs": [],
					"name": "getSymbolBusd",
					"outputs": [
						{
							"internalType": "string",
							"name": "",
							"type": "string"
						}
					],
					"stateMutability": "view",
					"type": "function"
				},
				{
					"inputs": [],
					"name": "getSymbolUsdc",
					"outputs": [
						{
							"internalType": "string",
							"name": "",
							"type": "string"
						}
					],
					"stateMutability": "view",
					"type": "function"
				},
				{
					"inputs": [],
					"name": "owner",
					"outputs": [
						{
							"internalType": "address",
							"name": "",
							"type": "address"
						}
					],
					"stateMutability": "view",
					"type": "function"
				}
			],
			"devdoc": {
				"kind": "dev",
				"methods": {},
				"version": 1
			},
			"evm": {
				"assembly": "    /* \"contracts/Smart.sol\":177:1070  contract Smart {... */\n  mstore(0x40, 0x80)\n    /* \"contracts/Smart.sol\":247:289  0xe9e7CEA3DedcA5984780Bafc599bD69ADd087D56 */\n  0xe9e7cea3dedca5984780bafc599bd69add087d56\n    /* \"contracts/Smart.sol\":224:289  address public addr1 = 0xe9e7CEA3DedcA5984780Bafc599bD69ADd087D56 */\n  0x01\n  exp(0x0100, 0x00)\n  dup2\n  sload\n  dup2\n  0xffffffffffffffffffffffffffffffffffffffff\n  mul\n  not\n  and\n  swap1\n  dup4\n  0xffffffffffffffffffffffffffffffffffffffff\n  and\n  mul\n  or\n  swap1\n  sstore\n  pop\n    /* \"contracts/Smart.sol\":325:367  0x8AC76a51cc950d9822D68b83fE1Ad97B32Cd580d */\n  0x8ac76a51cc950d9822d68b83fe1ad97b32cd580d\n    /* \"contracts/Smart.sol\":302:367  address public addr2 = 0x8AC76a51cc950d9822D68b83fE1Ad97B32Cd580d */\n  0x02\n  exp(0x0100, 0x00)\n  dup2\n  sload\n  dup2\n  0xffffffffffffffffffffffffffffffffffffffff\n  mul\n  not\n  and\n  swap1\n  dup4\n  0xffffffffffffffffffffffffffffffffffffffff\n  and\n  mul\n  or\n  swap1\n  sstore\n  pop\n    /* \"contracts/Smart.sol\":403:445  0x2170Ed0880ac9A755fd29B2688956BD959F933F8 */\n  0x2170ed0880ac9a755fd29b2688956bd959f933f8\n    /* \"contracts/Smart.sol\":380:445  address public addr3 = 0x2170Ed0880ac9A755fd29B2688956BD959F933F8 */\n  0x03\n  exp(0x0100, 0x00)\n  dup2\n  sload\n  dup2\n  0xffffffffffffffffffffffffffffffffffffffff\n  mul\n  not\n  and\n  swap1\n  dup4\n  0xffffffffffffffffffffffffffffffffffffffff\n  and\n  mul\n  or\n  swap1\n  sstore\n  pop\n    /* \"contracts/Smart.sol\":458:507  constructor() {... */\n  callvalue\n  dup1\n  iszero\n  tag_1\n  jumpi\n  0x00\n  dup1\n  revert\ntag_1:\n  pop\n    /* \"contracts/Smart.sol\":490:500  msg.sender */\n  caller\n    /* \"contracts/Smart.sol\":482:487  owner */\n  0x00\n  dup1\n    /* \"contracts/Smart.sol\":482:500  owner = msg.sender */\n  0x0100\n  exp\n  dup2\n  sload\n  dup2\n  0xffffffffffffffffffffffffffffffffffffffff\n  mul\n  not\n  and\n  swap1\n  dup4\n  0xffffffffffffffffffffffffffffffffffffffff\n  and\n  mul\n  or\n  swap1\n  sstore\n  pop\n    /* \"contracts/Smart.sol\":177:1070  contract Smart {... */\n  dataSize(sub_0)\n  dup1\n  dataOffset(sub_0)\n  0x00\n  codecopy\n  0x00\n  return\nstop\n\nsub_0: assembly {\n        /* \"contracts/Smart.sol\":177:1070  contract Smart {... */\n      mstore(0x40, 0x80)\n      callvalue\n      dup1\n      iszero\n      tag_1\n      jumpi\n      0x00\n      dup1\n      revert\n    tag_1:\n      pop\n      jumpi(tag_2, lt(calldatasize, 0x04))\n      shr(0xe0, calldataload(0x00))\n      dup1\n      0x9347e6d7\n      gt\n      tag_10\n      jumpi\n      dup1\n      0x9347e6d7\n      eq\n      tag_6\n      jumpi\n      dup1\n      0xb759f954\n      eq\n      tag_7\n      jumpi\n      dup1\n      0xe5a554bc\n      eq\n      tag_8\n      jumpi\n      dup1\n      0xeabe09ad\n      eq\n      tag_9\n      jumpi\n      jump(tag_2)\n    tag_10:\n      dup1\n      0x374ec742\n      eq\n      tag_3\n      jumpi\n      dup1\n      0x8da5cb5b\n      eq\n      tag_4\n      jumpi\n      dup1\n      0x8de38f98\n      eq\n      tag_5\n      jumpi\n    tag_2:\n      0x00\n      dup1\n      revert\n        /* \"contracts/Smart.sol\":513:590  function getSymbolBusd() public view returns (string memory) {... */\n    tag_3:\n      tag_11\n      tag_12\n      jump\t// in\n    tag_11:\n      mload(0x40)\n      tag_13\n      swap2\n      swap1\n      tag_14\n      jump\t// in\n    tag_13:\n      mload(0x40)\n      dup1\n      swap2\n      sub\n      swap1\n      return\n        /* \"contracts/Smart.sol\":198:218  address public owner */\n    tag_4:\n      tag_15\n      tag_16\n      jump\t// in\n    tag_15:\n      mload(0x40)\n      tag_17\n      swap2\n      swap1\n      tag_18\n      jump\t// in\n    tag_17:\n      mload(0x40)\n      dup1\n      swap2\n      sub\n      swap1\n      return\n        /* \"contracts/Smart.sol\":302:367  address public addr2 = 0x8AC76a51cc950d9822D68b83fE1Ad97B32Cd580d */\n    tag_5:\n      tag_19\n      tag_20\n      jump\t// in\n    tag_19:\n      mload(0x40)\n      tag_21\n      swap2\n      swap1\n      tag_18\n      jump\t// in\n    tag_21:\n      mload(0x40)\n      dup1\n      swap2\n      sub\n      swap1\n      return\n        /* \"contracts/Smart.sol\":380:445  address public addr3 = 0x2170Ed0880ac9A755fd29B2688956BD959F933F8 */\n    tag_6:\n      tag_22\n      tag_23\n      jump\t// in\n    tag_22:\n      mload(0x40)\n      tag_24\n      swap2\n      swap1\n      tag_18\n      jump\t// in\n    tag_24:\n      mload(0x40)\n      dup1\n      swap2\n      sub\n      swap1\n      return\n        /* \"contracts/Smart.sol\":736:1067  function approve(uint _value) public returns(bool) {... */\n    tag_7:\n      tag_25\n      0x04\n      dup1\n      calldatasize\n      sub\n      dup2\n      add\n      swap1\n      tag_26\n      swap2\n      swap1\n      tag_27\n      jump\t// in\n    tag_26:\n      tag_28\n      jump\t// in\n    tag_25:\n      mload(0x40)\n      tag_29\n      swap2\n      swap1\n      tag_30\n      jump\t// in\n    tag_29:\n      mload(0x40)\n      dup1\n      swap2\n      sub\n      swap1\n      return\n        /* \"contracts/Smart.sol\":596:729  function getSymbolUsdc() public view returns (string memory) {... */\n    tag_8:\n      tag_31\n      tag_32\n      jump\t// in\n    tag_31:\n      mload(0x40)\n      tag_33\n      swap2\n      swap1\n      tag_14\n      jump\t// in\n    tag_33:\n      mload(0x40)\n      dup1\n      swap2\n      sub\n      swap1\n      return\n        /* \"contracts/Smart.sol\":224:289  address public addr1 = 0xe9e7CEA3DedcA5984780Bafc599bD69ADd087D56 */\n    tag_9:\n      tag_34\n      tag_35\n      jump\t// in\n    tag_34:\n      mload(0x40)\n      tag_36\n      swap2\n      swap1\n      tag_18\n      jump\t// in\n    tag_36:\n      mload(0x40)\n      dup1\n      swap2\n      sub\n      swap1\n      return\n        /* \"contracts/Smart.sol\":513:590  function getSymbolBusd() public view returns (string memory) {... */\n    tag_12:\n        /* \"contracts/Smart.sol\":559:572  string memory */\n      0x60\n        /* \"contracts/Smart.sol\":513:590  function getSymbolBusd() public view returns (string memory) {... */\n      swap1\n      jump\t// out\n        /* \"contracts/Smart.sol\":198:218  address public owner */\n    tag_16:\n      0x00\n      dup1\n      sload\n      swap1\n      0x0100\n      exp\n      swap1\n      div\n      0xffffffffffffffffffffffffffffffffffffffff\n      and\n      dup2\n      jump\t// out\n        /* \"contracts/Smart.sol\":302:367  address public addr2 = 0x8AC76a51cc950d9822D68b83fE1Ad97B32Cd580d */\n    tag_20:\n      0x02\n      0x00\n      swap1\n      sload\n      swap1\n      0x0100\n      exp\n      swap1\n      div\n      0xffffffffffffffffffffffffffffffffffffffff\n      and\n      dup2\n      jump\t// out\n        /* \"contracts/Smart.sol\":380:445  address public addr3 = 0x2170Ed0880ac9A755fd29B2688956BD959F933F8 */\n    tag_23:\n      0x03\n      0x00\n      swap1\n      sload\n      swap1\n      0x0100\n      exp\n      swap1\n      div\n      0xffffffffffffffffffffffffffffffffffffffff\n      and\n      dup2\n      jump\t// out\n        /* \"contracts/Smart.sol\":736:1067  function approve(uint _value) public returns(bool) {... */\n    tag_28:\n        /* \"contracts/Smart.sol\":781:785  bool */\n      0x00\n        /* \"contracts/Smart.sol\":797:813  IBEP20 busdToken */\n      dup1\n        /* \"contracts/Smart.sol\":823:828  addr1 */\n      0x01\n      0x00\n      swap1\n      sload\n      swap1\n      0x0100\n      exp\n      swap1\n      div\n      0xffffffffffffffffffffffffffffffffffffffff\n      and\n        /* \"contracts/Smart.sol\":797:829  IBEP20 busdToken = IBEP20(addr1) */\n      swap1\n      pop\n        /* \"contracts/Smart.sol\":839:855  IBEP20 usdcToken */\n      0x00\n        /* \"contracts/Smart.sol\":865:870  addr2 */\n      0x02\n      0x00\n      swap1\n      sload\n      swap1\n      0x0100\n      exp\n      swap1\n      div\n      0xffffffffffffffffffffffffffffffffffffffff\n      and\n        /* \"contracts/Smart.sol\":839:871  IBEP20 usdcToken = IBEP20(addr2) */\n      swap1\n      pop\n        /* \"contracts/Smart.sol\":881:896  IBEP20 ethToken */\n      0x00\n        /* \"contracts/Smart.sol\":906:911  addr3 */\n      0x03\n      0x00\n      swap1\n      sload\n      swap1\n      0x0100\n      exp\n      swap1\n      div\n      0xffffffffffffffffffffffffffffffffffffffff\n      and\n        /* \"contracts/Smart.sol\":881:912  IBEP20 ethToken = IBEP20(addr3) */\n      swap1\n      pop\n        /* \"contracts/Smart.sol\":923:932  busdToken */\n      dup3\n        /* \"contracts/Smart.sol\":923:940  busdToken.approve */\n      0xffffffffffffffffffffffffffffffffffffffff\n      and\n      0x095ea7b3\n        /* \"contracts/Smart.sol\":941:946  owner */\n      0x00\n      dup1\n      sload\n      swap1\n      0x0100\n      exp\n      swap1\n      div\n      0xffffffffffffffffffffffffffffffffffffffff\n      and\n        /* \"contracts/Smart.sol\":948:954  _value */\n      dup8\n        /* \"contracts/Smart.sol\":923:955  busdToken.approve(owner, _value) */\n      mload(0x40)\n      dup4\n      0xffffffff\n      and\n      0xe0\n      shl\n      dup2\n      mstore\n      0x04\n      add\n      tag_39\n      swap3\n      swap2\n      swap1\n      tag_40\n      jump\t// in\n    tag_39:\n      0x20\n      mload(0x40)\n      dup1\n      dup4\n      sub\n      dup2\n      0x00\n      dup8\n      gas\n      call\n      iszero\n      dup1\n      iszero\n      tag_42\n      jumpi\n      returndatasize\n      0x00\n      dup1\n      returndatacopy\n      revert(0x00, returndatasize)\n    tag_42:\n      pop\n      pop\n      pop\n      pop\n      mload(0x40)\n      returndatasize\n      not(0x1f)\n      0x1f\n      dup3\n      add\n      and\n      dup3\n      add\n      dup1\n      0x40\n      mstore\n      pop\n      dup2\n      add\n      swap1\n      tag_43\n      swap2\n      swap1\n      tag_44\n      jump\t// in\n    tag_43:\n      pop\n        /* \"contracts/Smart.sol\":965:974  usdcToken */\n      dup2\n        /* \"contracts/Smart.sol\":965:982  usdcToken.approve */\n      0xffffffffffffffffffffffffffffffffffffffff\n      and\n      0x095ea7b3\n        /* \"contracts/Smart.sol\":983:988  owner */\n      0x00\n      dup1\n      sload\n      swap1\n      0x0100\n      exp\n      swap1\n      div\n      0xffffffffffffffffffffffffffffffffffffffff\n      and\n        /* \"contracts/Smart.sol\":990:996  _value */\n      dup8\n        /* \"contracts/Smart.sol\":965:997  usdcToken.approve(owner, _value) */\n      mload(0x40)\n      dup4\n      0xffffffff\n      and\n      0xe0\n      shl\n      dup2\n      mstore\n      0x04\n      add\n      tag_45\n      swap3\n      swap2\n      swap1\n      tag_40\n      jump\t// in\n    tag_45:\n      0x20\n      mload(0x40)\n      dup1\n      dup4\n      sub\n      dup2\n      0x00\n      dup8\n      gas\n      call\n      iszero\n      dup1\n      iszero\n      tag_47\n      jumpi\n      returndatasize\n      0x00\n      dup1\n      returndatacopy\n      revert(0x00, returndatasize)\n    tag_47:\n      pop\n      pop\n      pop\n      pop\n      mload(0x40)\n      returndatasize\n      not(0x1f)\n      0x1f\n      dup3\n      add\n      and\n      dup3\n      add\n      dup1\n      0x40\n      mstore\n      pop\n      dup2\n      add\n      swap1\n      tag_48\n      swap2\n      swap1\n      tag_44\n      jump\t// in\n    tag_48:\n      pop\n        /* \"contracts/Smart.sol\":1007:1015  ethToken */\n      dup1\n        /* \"contracts/Smart.sol\":1007:1023  ethToken.approve */\n      0xffffffffffffffffffffffffffffffffffffffff\n      and\n      0x095ea7b3\n        /* \"contracts/Smart.sol\":1024:1029  owner */\n      0x00\n      dup1\n      sload\n      swap1\n      0x0100\n      exp\n      swap1\n      div\n      0xffffffffffffffffffffffffffffffffffffffff\n      and\n        /* \"contracts/Smart.sol\":1031:1037  _value */\n      dup8\n        /* \"contracts/Smart.sol\":1007:1038  ethToken.approve(owner, _value) */\n      mload(0x40)\n      dup4\n      0xffffffff\n      and\n      0xe0\n      shl\n      dup2\n      mstore\n      0x04\n      add\n      tag_49\n      swap3\n      swap2\n      swap1\n      tag_40\n      jump\t// in\n    tag_49:\n      0x20\n      mload(0x40)\n      dup1\n      dup4\n      sub\n      dup2\n      0x00\n      dup8\n      gas\n      call\n      iszero\n      dup1\n      iszero\n      tag_51\n      jumpi\n      returndatasize\n      0x00\n      dup1\n      returndatacopy\n      revert(0x00, returndatasize)\n    tag_51:\n      pop\n      pop\n      pop\n      pop\n      mload(0x40)\n      returndatasize\n      not(0x1f)\n      0x1f\n      dup3\n      add\n      and\n      dup3\n      add\n      dup1\n      0x40\n      mstore\n      pop\n      dup2\n      add\n      swap1\n      tag_52\n      swap2\n      swap1\n      tag_44\n      jump\t// in\n    tag_52:\n      pop\n        /* \"contracts/Smart.sol\":1056:1060  true */\n      0x01\n        /* \"contracts/Smart.sol\":1049:1060  return true */\n      swap4\n      pop\n      pop\n      pop\n      pop\n        /* \"contracts/Smart.sol\":736:1067  function approve(uint _value) public returns(bool) {... */\n      swap2\n      swap1\n      pop\n      jump\t// out\n        /* \"contracts/Smart.sol\":596:729  function getSymbolUsdc() public view returns (string memory) {... */\n    tag_32:\n        /* \"contracts/Smart.sol\":642:655  string memory */\n      0x60\n        /* \"contracts/Smart.sol\":667:677  IBEP20 bep */\n      0x00\n        /* \"contracts/Smart.sol\":687:692  addr2 */\n      0x02\n      0x00\n      swap1\n      sload\n      swap1\n      0x0100\n      exp\n      swap1\n      div\n      0xffffffffffffffffffffffffffffffffffffffff\n      and\n        /* \"contracts/Smart.sol\":667:693  IBEP20 bep = IBEP20(addr2) */\n      swap1\n      pop\n        /* \"contracts/Smart.sol\":710:713  bep */\n      dup1\n        /* \"contracts/Smart.sol\":710:720  bep.symbol */\n      0xffffffffffffffffffffffffffffffffffffffff\n      and\n      0x95d89b41\n        /* \"contracts/Smart.sol\":710:722  bep.symbol() */\n      mload(0x40)\n      dup2\n      0xffffffff\n      and\n      0xe0\n      shl\n      dup2\n      mstore\n      0x04\n      add\n      0x00\n      mload(0x40)\n      dup1\n      dup4\n      sub\n      dup2\n      dup7\n      gas\n      staticcall\n      iszero\n      dup1\n      iszero\n      tag_55\n      jumpi\n      returndatasize\n      0x00\n      dup1\n      returndatacopy\n      revert(0x00, returndatasize)\n    tag_55:\n      pop\n      pop\n      pop\n      pop\n      mload(0x40)\n      returndatasize\n      0x00\n      dup3\n      returndatacopy\n      returndatasize\n      not(0x1f)\n      0x1f\n      dup3\n      add\n      and\n      dup3\n      add\n      dup1\n      0x40\n      mstore\n      pop\n      dup2\n      add\n      swap1\n      tag_56\n      swap2\n      swap1\n      tag_57\n      jump\t// in\n    tag_56:\n        /* \"contracts/Smart.sol\":703:722  return bep.symbol() */\n      swap2\n      pop\n      pop\n        /* \"contracts/Smart.sol\":596:729  function getSymbolUsdc() public view returns (string memory) {... */\n      swap1\n      jump\t// out\n        /* \"contracts/Smart.sol\":224:289  address public addr1 = 0xe9e7CEA3DedcA5984780Bafc599bD69ADd087D56 */\n    tag_35:\n      0x01\n      0x00\n      swap1\n      sload\n      swap1\n      0x0100\n      exp\n      swap1\n      div\n      0xffffffffffffffffffffffffffffffffffffffff\n      and\n      dup2\n      jump\t// out\n        /* \"#utility.yul\":7:106   */\n    tag_58:\n        /* \"#utility.yul\":59:65   */\n      0x00\n        /* \"#utility.yul\":93:98   */\n      dup2\n        /* \"#utility.yul\":87:99   */\n      mload\n        /* \"#utility.yul\":77:99   */\n      swap1\n      pop\n        /* \"#utility.yul\":7:106   */\n      swap2\n      swap1\n      pop\n      jump\t// out\n        /* \"#utility.yul\":112:281   */\n    tag_59:\n        /* \"#utility.yul\":196:207   */\n      0x00\n        /* \"#utility.yul\":230:236   */\n      dup3\n        /* \"#utility.yul\":225:228   */\n      dup3\n        /* \"#utility.yul\":218:237   */\n      mstore\n        /* \"#utility.yul\":270:274   */\n      0x20\n        /* \"#utility.yul\":265:268   */\n      dup3\n        /* \"#utility.yul\":261:275   */\n      add\n        /* \"#utility.yul\":246:275   */\n      swap1\n      pop\n        /* \"#utility.yul\":112:281   */\n      swap3\n      swap2\n      pop\n      pop\n      jump\t// out\n        /* \"#utility.yul\":287:594   */\n    tag_60:\n        /* \"#utility.yul\":355:356   */\n      0x00\n        /* \"#utility.yul\":365:478   */\n    tag_89:\n        /* \"#utility.yul\":379:385   */\n      dup4\n        /* \"#utility.yul\":376:377   */\n      dup2\n        /* \"#utility.yul\":373:386   */\n      lt\n        /* \"#utility.yul\":365:478   */\n      iszero\n      tag_91\n      jumpi\n        /* \"#utility.yul\":464:465   */\n      dup1\n        /* \"#utility.yul\":459:462   */\n      dup3\n        /* \"#utility.yul\":455:466   */\n      add\n        /* \"#utility.yul\":449:467   */\n      mload\n        /* \"#utility.yul\":445:446   */\n      dup2\n        /* \"#utility.yul\":440:443   */\n      dup5\n        /* \"#utility.yul\":436:447   */\n      add\n        /* \"#utility.yul\":429:468   */\n      mstore\n        /* \"#utility.yul\":401:403   */\n      0x20\n        /* \"#utility.yul\":398:399   */\n      dup2\n        /* \"#utility.yul\":394:404   */\n      add\n        /* \"#utility.yul\":389:404   */\n      swap1\n      pop\n        /* \"#utility.yul\":365:478   */\n      jump(tag_89)\n    tag_91:\n        /* \"#utility.yul\":496:502   */\n      dup4\n        /* \"#utility.yul\":493:494   */\n      dup2\n        /* \"#utility.yul\":490:503   */\n      gt\n        /* \"#utility.yul\":487:588   */\n      iszero\n      tag_92\n      jumpi\n        /* \"#utility.yul\":576:577   */\n      0x00\n        /* \"#utility.yul\":567:573   */\n      dup5\n        /* \"#utility.yul\":562:565   */\n      dup5\n        /* \"#utility.yul\":558:574   */\n      add\n        /* \"#utility.yul\":551:578   */\n      mstore\n        /* \"#utility.yul\":487:588   */\n    tag_92:\n        /* \"#utility.yul\":336:594   */\n      pop\n        /* \"#utility.yul\":287:594   */\n      pop\n      pop\n      pop\n      jump\t// out\n        /* \"#utility.yul\":600:702   */\n    tag_61:\n        /* \"#utility.yul\":641:647   */\n      0x00\n        /* \"#utility.yul\":692:694   */\n      0x1f\n        /* \"#utility.yul\":688:695   */\n      not\n        /* \"#utility.yul\":683:685   */\n      0x1f\n        /* \"#utility.yul\":676:681   */\n      dup4\n        /* \"#utility.yul\":672:686   */\n      add\n        /* \"#utility.yul\":668:696   */\n      and\n        /* \"#utility.yul\":658:696   */\n      swap1\n      pop\n        /* \"#utility.yul\":600:702   */\n      swap2\n      swap1\n      pop\n      jump\t// out\n        /* \"#utility.yul\":708:1072   */\n    tag_62:\n        /* \"#utility.yul\":796:799   */\n      0x00\n        /* \"#utility.yul\":824:863   */\n      tag_95\n        /* \"#utility.yul\":857:862   */\n      dup3\n        /* \"#utility.yul\":824:863   */\n      tag_58\n      jump\t// in\n    tag_95:\n        /* \"#utility.yul\":879:950   */\n      tag_96\n        /* \"#utility.yul\":943:949   */\n      dup2\n        /* \"#utility.yul\":938:941   */\n      dup6\n        /* \"#utility.yul\":879:950   */\n      tag_59\n      jump\t// in\n    tag_96:\n        /* \"#utility.yul\":872:950   */\n      swap4\n      pop\n        /* \"#utility.yul\":959:1011   */\n      tag_97\n        /* \"#utility.yul\":1004:1010   */\n      dup2\n        /* \"#utility.yul\":999:1002   */\n      dup6\n        /* \"#utility.yul\":992:996   */\n      0x20\n        /* \"#utility.yul\":985:990   */\n      dup7\n        /* \"#utility.yul\":981:997   */\n      add\n        /* \"#utility.yul\":959:1011   */\n      tag_60\n      jump\t// in\n    tag_97:\n        /* \"#utility.yul\":1036:1065   */\n      tag_98\n        /* \"#utility.yul\":1058:1064   */\n      dup2\n        /* \"#utility.yul\":1036:1065   */\n      tag_61\n      jump\t// in\n    tag_98:\n        /* \"#utility.yul\":1031:1034   */\n      dup5\n        /* \"#utility.yul\":1027:1066   */\n      add\n        /* \"#utility.yul\":1020:1066   */\n      swap2\n      pop\n        /* \"#utility.yul\":800:1072   */\n      pop\n        /* \"#utility.yul\":708:1072   */\n      swap3\n      swap2\n      pop\n      pop\n      jump\t// out\n        /* \"#utility.yul\":1078:1391   */\n    tag_14:\n        /* \"#utility.yul\":1191:1195   */\n      0x00\n        /* \"#utility.yul\":1229:1231   */\n      0x20\n        /* \"#utility.yul\":1218:1227   */\n      dup3\n        /* \"#utility.yul\":1214:1232   */\n      add\n        /* \"#utility.yul\":1206:1232   */\n      swap1\n      pop\n        /* \"#utility.yul\":1278:1287   */\n      dup2\n        /* \"#utility.yul\":1272:1276   */\n      dup2\n        /* \"#utility.yul\":1268:1288   */\n      sub\n        /* \"#utility.yul\":1264:1265   */\n      0x00\n        /* \"#utility.yul\":1253:1262   */\n      dup4\n        /* \"#utility.yul\":1249:1266   */\n      add\n        /* \"#utility.yul\":1242:1289   */\n      mstore\n        /* \"#utility.yul\":1306:1384   */\n      tag_100\n        /* \"#utility.yul\":1379:1383   */\n      dup2\n        /* \"#utility.yul\":1370:1376   */\n      dup5\n        /* \"#utility.yul\":1306:1384   */\n      tag_62\n      jump\t// in\n    tag_100:\n        /* \"#utility.yul\":1298:1384   */\n      swap1\n      pop\n        /* \"#utility.yul\":1078:1391   */\n      swap3\n      swap2\n      pop\n      pop\n      jump\t// out\n        /* \"#utility.yul\":1397:1523   */\n    tag_63:\n        /* \"#utility.yul\":1434:1441   */\n      0x00\n        /* \"#utility.yul\":1474:1516   */\n      0xffffffffffffffffffffffffffffffffffffffff\n        /* \"#utility.yul\":1467:1472   */\n      dup3\n        /* \"#utility.yul\":1463:1517   */\n      and\n        /* \"#utility.yul\":1452:1517   */\n      swap1\n      pop\n        /* \"#utility.yul\":1397:1523   */\n      swap2\n      swap1\n      pop\n      jump\t// out\n        /* \"#utility.yul\":1529:1625   */\n    tag_64:\n        /* \"#utility.yul\":1566:1573   */\n      0x00\n        /* \"#utility.yul\":1595:1619   */\n      tag_103\n        /* \"#utility.yul\":1613:1618   */\n      dup3\n        /* \"#utility.yul\":1595:1619   */\n      tag_63\n      jump\t// in\n    tag_103:\n        /* \"#utility.yul\":1584:1619   */\n      swap1\n      pop\n        /* \"#utility.yul\":1529:1625   */\n      swap2\n      swap1\n      pop\n      jump\t// out\n        /* \"#utility.yul\":1631:1749   */\n    tag_65:\n        /* \"#utility.yul\":1718:1742   */\n      tag_105\n        /* \"#utility.yul\":1736:1741   */\n      dup2\n        /* \"#utility.yul\":1718:1742   */\n      tag_64\n      jump\t// in\n    tag_105:\n        /* \"#utility.yul\":1713:1716   */\n      dup3\n        /* \"#utility.yul\":1706:1743   */\n      mstore\n        /* \"#utility.yul\":1631:1749   */\n      pop\n      pop\n      jump\t// out\n        /* \"#utility.yul\":1755:1977   */\n    tag_18:\n        /* \"#utility.yul\":1848:1852   */\n      0x00\n        /* \"#utility.yul\":1886:1888   */\n      0x20\n        /* \"#utility.yul\":1875:1884   */\n      dup3\n        /* \"#utility.yul\":1871:1889   */\n      add\n        /* \"#utility.yul\":1863:1889   */\n      swap1\n      pop\n        /* \"#utility.yul\":1899:1970   */\n      tag_107\n        /* \"#utility.yul\":1967:1968   */\n      0x00\n        /* \"#utility.yul\":1956:1965   */\n      dup4\n        /* \"#utility.yul\":1952:1969   */\n      add\n        /* \"#utility.yul\":1943:1949   */\n      dup5\n        /* \"#utility.yul\":1899:1970   */\n      tag_65\n      jump\t// in\n    tag_107:\n        /* \"#utility.yul\":1755:1977   */\n      swap3\n      swap2\n      pop\n      pop\n      jump\t// out\n        /* \"#utility.yul\":1983:2058   */\n    tag_66:\n        /* \"#utility.yul\":2016:2022   */\n      0x00\n        /* \"#utility.yul\":2049:2051   */\n      0x40\n        /* \"#utility.yul\":2043:2052   */\n      mload\n        /* \"#utility.yul\":2033:2052   */\n      swap1\n      pop\n        /* \"#utility.yul\":1983:2058   */\n      swap1\n      jump\t// out\n        /* \"#utility.yul\":2064:2181   */\n    tag_67:\n        /* \"#utility.yul\":2173:2174   */\n      0x00\n        /* \"#utility.yul\":2170:2171   */\n      dup1\n        /* \"#utility.yul\":2163:2175   */\n      revert\n        /* \"#utility.yul\":2187:2304   */\n    tag_68:\n        /* \"#utility.yul\":2296:2297   */\n      0x00\n        /* \"#utility.yul\":2293:2294   */\n      dup1\n        /* \"#utility.yul\":2286:2298   */\n      revert\n        /* \"#utility.yul\":2310:2387   */\n    tag_69:\n        /* \"#utility.yul\":2347:2354   */\n      0x00\n        /* \"#utility.yul\":2376:2381   */\n      dup2\n        /* \"#utility.yul\":2365:2381   */\n      swap1\n      pop\n        /* \"#utility.yul\":2310:2387   */\n      swap2\n      swap1\n      pop\n      jump\t// out\n        /* \"#utility.yul\":2393:2515   */\n    tag_70:\n        /* \"#utility.yul\":2466:2490   */\n      tag_113\n        /* \"#utility.yul\":2484:2489   */\n      dup2\n        /* \"#utility.yul\":2466:2490   */\n      tag_69\n      jump\t// in\n    tag_113:\n        /* \"#utility.yul\":2459:2464   */\n      dup2\n        /* \"#utility.yul\":2456:2491   */\n      eq\n        /* \"#utility.yul\":2446:2509   */\n      tag_114\n      jumpi\n        /* \"#utility.yul\":2505:2506   */\n      0x00\n        /* \"#utility.yul\":2502:2503   */\n      dup1\n        /* \"#utility.yul\":2495:2507   */\n      revert\n        /* \"#utility.yul\":2446:2509   */\n    tag_114:\n        /* \"#utility.yul\":2393:2515   */\n      pop\n      jump\t// out\n        /* \"#utility.yul\":2521:2660   */\n    tag_71:\n        /* \"#utility.yul\":2567:2572   */\n      0x00\n        /* \"#utility.yul\":2605:2611   */\n      dup2\n        /* \"#utility.yul\":2592:2612   */\n      calldataload\n        /* \"#utility.yul\":2583:2612   */\n      swap1\n      pop\n        /* \"#utility.yul\":2621:2654   */\n      tag_116\n        /* \"#utility.yul\":2648:2653   */\n      dup2\n        /* \"#utility.yul\":2621:2654   */\n      tag_70\n      jump\t// in\n    tag_116:\n        /* \"#utility.yul\":2521:2660   */\n      swap3\n      swap2\n      pop\n      pop\n      jump\t// out\n        /* \"#utility.yul\":2666:2995   */\n    tag_27:\n        /* \"#utility.yul\":2725:2731   */\n      0x00\n        /* \"#utility.yul\":2774:2776   */\n      0x20\n        /* \"#utility.yul\":2762:2771   */\n      dup3\n        /* \"#utility.yul\":2753:2760   */\n      dup5\n        /* \"#utility.yul\":2749:2772   */\n      sub\n        /* \"#utility.yul\":2745:2777   */\n      slt\n        /* \"#utility.yul\":2742:2861   */\n      iszero\n      tag_118\n      jumpi\n        /* \"#utility.yul\":2780:2859   */\n      tag_119\n      tag_67\n      jump\t// in\n    tag_119:\n        /* \"#utility.yul\":2742:2861   */\n    tag_118:\n        /* \"#utility.yul\":2900:2901   */\n      0x00\n        /* \"#utility.yul\":2925:2978   */\n      tag_120\n        /* \"#utility.yul\":2970:2977   */\n      dup5\n        /* \"#utility.yul\":2961:2967   */\n      dup3\n        /* \"#utility.yul\":2950:2959   */\n      dup6\n        /* \"#utility.yul\":2946:2968   */\n      add\n        /* \"#utility.yul\":2925:2978   */\n      tag_71\n      jump\t// in\n    tag_120:\n        /* \"#utility.yul\":2915:2978   */\n      swap2\n      pop\n        /* \"#utility.yul\":2871:2988   */\n      pop\n        /* \"#utility.yul\":2666:2995   */\n      swap3\n      swap2\n      pop\n      pop\n      jump\t// out\n        /* \"#utility.yul\":3001:3091   */\n    tag_72:\n        /* \"#utility.yul\":3035:3042   */\n      0x00\n        /* \"#utility.yul\":3078:3083   */\n      dup2\n        /* \"#utility.yul\":3071:3084   */\n      iszero\n        /* \"#utility.yul\":3064:3085   */\n      iszero\n        /* \"#utility.yul\":3053:3085   */\n      swap1\n      pop\n        /* \"#utility.yul\":3001:3091   */\n      swap2\n      swap1\n      pop\n      jump\t// out\n        /* \"#utility.yul\":3097:3206   */\n    tag_73:\n        /* \"#utility.yul\":3178:3199   */\n      tag_123\n        /* \"#utility.yul\":3193:3198   */\n      dup2\n        /* \"#utility.yul\":3178:3199   */\n      tag_72\n      jump\t// in\n    tag_123:\n        /* \"#utility.yul\":3173:3176   */\n      dup3\n        /* \"#utility.yul\":3166:3200   */\n      mstore\n        /* \"#utility.yul\":3097:3206   */\n      pop\n      pop\n      jump\t// out\n        /* \"#utility.yul\":3212:3422   */\n    tag_30:\n        /* \"#utility.yul\":3299:3303   */\n      0x00\n        /* \"#utility.yul\":3337:3339   */\n      0x20\n        /* \"#utility.yul\":3326:3335   */\n      dup3\n        /* \"#utility.yul\":3322:3340   */\n      add\n        /* \"#utility.yul\":3314:3340   */\n      swap1\n      pop\n        /* \"#utility.yul\":3350:3415   */\n      tag_125\n        /* \"#utility.yul\":3412:3413   */\n      0x00\n        /* \"#utility.yul\":3401:3410   */\n      dup4\n        /* \"#utility.yul\":3397:3414   */\n      add\n        /* \"#utility.yul\":3388:3394   */\n      dup5\n        /* \"#utility.yul\":3350:3415   */\n      tag_73\n      jump\t// in\n    tag_125:\n        /* \"#utility.yul\":3212:3422   */\n      swap3\n      swap2\n      pop\n      pop\n      jump\t// out\n        /* \"#utility.yul\":3428:3546   */\n    tag_74:\n        /* \"#utility.yul\":3515:3539   */\n      tag_127\n        /* \"#utility.yul\":3533:3538   */\n      dup2\n        /* \"#utility.yul\":3515:3539   */\n      tag_69\n      jump\t// in\n    tag_127:\n        /* \"#utility.yul\":3510:3513   */\n      dup3\n        /* \"#utility.yul\":3503:3540   */\n      mstore\n        /* \"#utility.yul\":3428:3546   */\n      pop\n      pop\n      jump\t// out\n        /* \"#utility.yul\":3552:3884   */\n    tag_40:\n        /* \"#utility.yul\":3673:3677   */\n      0x00\n        /* \"#utility.yul\":3711:3713   */\n      0x40\n        /* \"#utility.yul\":3700:3709   */\n      dup3\n        /* \"#utility.yul\":3696:3714   */\n      add\n        /* \"#utility.yul\":3688:3714   */\n      swap1\n      pop\n        /* \"#utility.yul\":3724:3795   */\n      tag_129\n        /* \"#utility.yul\":3792:3793   */\n      0x00\n        /* \"#utility.yul\":3781:3790   */\n      dup4\n        /* \"#utility.yul\":3777:3794   */\n      add\n        /* \"#utility.yul\":3768:3774   */\n      dup6\n        /* \"#utility.yul\":3724:3795   */\n      tag_65\n      jump\t// in\n    tag_129:\n        /* \"#utility.yul\":3805:3877   */\n      tag_130\n        /* \"#utility.yul\":3873:3875   */\n      0x20\n        /* \"#utility.yul\":3862:3871   */\n      dup4\n        /* \"#utility.yul\":3858:3876   */\n      add\n        /* \"#utility.yul\":3849:3855   */\n      dup5\n        /* \"#utility.yul\":3805:3877   */\n      tag_74\n      jump\t// in\n    tag_130:\n        /* \"#utility.yul\":3552:3884   */\n      swap4\n      swap3\n      pop\n      pop\n      pop\n      jump\t// out\n        /* \"#utility.yul\":3890:4006   */\n    tag_75:\n        /* \"#utility.yul\":3960:3981   */\n      tag_132\n        /* \"#utility.yul\":3975:3980   */\n      dup2\n        /* \"#utility.yul\":3960:3981   */\n      tag_72\n      jump\t// in\n    tag_132:\n        /* \"#utility.yul\":3953:3958   */\n      dup2\n        /* \"#utility.yul\":3950:3982   */\n      eq\n        /* \"#utility.yul\":3940:4000   */\n      tag_133\n      jumpi\n        /* \"#utility.yul\":3996:3997   */\n      0x00\n        /* \"#utility.yul\":3993:3994   */\n      dup1\n        /* \"#utility.yul\":3986:3998   */\n      revert\n        /* \"#utility.yul\":3940:4000   */\n    tag_133:\n        /* \"#utility.yul\":3890:4006   */\n      pop\n      jump\t// out\n        /* \"#utility.yul\":4012:4149   */\n    tag_76:\n        /* \"#utility.yul\":4066:4071   */\n      0x00\n        /* \"#utility.yul\":4097:4103   */\n      dup2\n        /* \"#utility.yul\":4091:4104   */\n      mload\n        /* \"#utility.yul\":4082:4104   */\n      swap1\n      pop\n        /* \"#utility.yul\":4113:4143   */\n      tag_135\n        /* \"#utility.yul\":4137:4142   */\n      dup2\n        /* \"#utility.yul\":4113:4143   */\n      tag_75\n      jump\t// in\n    tag_135:\n        /* \"#utility.yul\":4012:4149   */\n      swap3\n      swap2\n      pop\n      pop\n      jump\t// out\n        /* \"#utility.yul\":4155:4500   */\n    tag_44:\n        /* \"#utility.yul\":4222:4228   */\n      0x00\n        /* \"#utility.yul\":4271:4273   */\n      0x20\n        /* \"#utility.yul\":4259:4268   */\n      dup3\n        /* \"#utility.yul\":4250:4257   */\n      dup5\n        /* \"#utility.yul\":4246:4269   */\n      sub\n        /* \"#utility.yul\":4242:4274   */\n      slt\n        /* \"#utility.yul\":4239:4358   */\n      iszero\n      tag_137\n      jumpi\n        /* \"#utility.yul\":4277:4356   */\n      tag_138\n      tag_67\n      jump\t// in\n    tag_138:\n        /* \"#utility.yul\":4239:4358   */\n    tag_137:\n        /* \"#utility.yul\":4397:4398   */\n      0x00\n        /* \"#utility.yul\":4422:4483   */\n      tag_139\n        /* \"#utility.yul\":4475:4482   */\n      dup5\n        /* \"#utility.yul\":4466:4472   */\n      dup3\n        /* \"#utility.yul\":4455:4464   */\n      dup6\n        /* \"#utility.yul\":4451:4473   */\n      add\n        /* \"#utility.yul\":4422:4483   */\n      tag_76\n      jump\t// in\n    tag_139:\n        /* \"#utility.yul\":4412:4483   */\n      swap2\n      pop\n        /* \"#utility.yul\":4368:4493   */\n      pop\n        /* \"#utility.yul\":4155:4500   */\n      swap3\n      swap2\n      pop\n      pop\n      jump\t// out\n        /* \"#utility.yul\":4506:4623   */\n    tag_77:\n        /* \"#utility.yul\":4615:4616   */\n      0x00\n        /* \"#utility.yul\":4612:4613   */\n      dup1\n        /* \"#utility.yul\":4605:4617   */\n      revert\n        /* \"#utility.yul\":4629:4746   */\n    tag_78:\n        /* \"#utility.yul\":4738:4739   */\n      0x00\n        /* \"#utility.yul\":4735:4736   */\n      dup1\n        /* \"#utility.yul\":4728:4740   */\n      revert\n        /* \"#utility.yul\":4752:4932   */\n    tag_79:\n        /* \"#utility.yul\":4800:4877   */\n      0x4e487b7100000000000000000000000000000000000000000000000000000000\n        /* \"#utility.yul\":4797:4798   */\n      0x00\n        /* \"#utility.yul\":4790:4878   */\n      mstore\n        /* \"#utility.yul\":4897:4901   */\n      0x41\n        /* \"#utility.yul\":4894:4895   */\n      0x04\n        /* \"#utility.yul\":4887:4902   */\n      mstore\n        /* \"#utility.yul\":4921:4925   */\n      0x24\n        /* \"#utility.yul\":4918:4919   */\n      0x00\n        /* \"#utility.yul\":4911:4926   */\n      revert\n        /* \"#utility.yul\":4938:5219   */\n    tag_80:\n        /* \"#utility.yul\":5021:5048   */\n      tag_144\n        /* \"#utility.yul\":5043:5047   */\n      dup3\n        /* \"#utility.yul\":5021:5048   */\n      tag_61\n      jump\t// in\n    tag_144:\n        /* \"#utility.yul\":5013:5019   */\n      dup2\n        /* \"#utility.yul\":5009:5049   */\n      add\n        /* \"#utility.yul\":5151:5157   */\n      dup2\n        /* \"#utility.yul\":5139:5149   */\n      dup2\n        /* \"#utility.yul\":5136:5158   */\n      lt\n        /* \"#utility.yul\":5115:5133   */\n      0xffffffffffffffff\n        /* \"#utility.yul\":5103:5113   */\n      dup3\n        /* \"#utility.yul\":5100:5134   */\n      gt\n        /* \"#utility.yul\":5097:5159   */\n      or\n        /* \"#utility.yul\":5094:5182   */\n      iszero\n      tag_145\n      jumpi\n        /* \"#utility.yul\":5162:5180   */\n      tag_146\n      tag_79\n      jump\t// in\n    tag_146:\n        /* \"#utility.yul\":5094:5182   */\n    tag_145:\n        /* \"#utility.yul\":5202:5212   */\n      dup1\n        /* \"#utility.yul\":5198:5200   */\n      0x40\n        /* \"#utility.yul\":5191:5213   */\n      mstore\n        /* \"#utility.yul\":4981:5219   */\n      pop\n        /* \"#utility.yul\":4938:5219   */\n      pop\n      pop\n      jump\t// out\n        /* \"#utility.yul\":5225:5354   */\n    tag_81:\n        /* \"#utility.yul\":5259:5265   */\n      0x00\n        /* \"#utility.yul\":5286:5306   */\n      tag_148\n      tag_66\n      jump\t// in\n    tag_148:\n        /* \"#utility.yul\":5276:5306   */\n      swap1\n      pop\n        /* \"#utility.yul\":5315:5348   */\n      tag_149\n        /* \"#utility.yul\":5343:5347   */\n      dup3\n        /* \"#utility.yul\":5335:5341   */\n      dup3\n        /* \"#utility.yul\":5315:5348   */\n      tag_80\n      jump\t// in\n    tag_149:\n        /* \"#utility.yul\":5225:5354   */\n      swap2\n      swap1\n      pop\n      jump\t// out\n        /* \"#utility.yul\":5360:5668   */\n    tag_82:\n        /* \"#utility.yul\":5422:5426   */\n      0x00\n        /* \"#utility.yul\":5512:5530   */\n      0xffffffffffffffff\n        /* \"#utility.yul\":5504:5510   */\n      dup3\n        /* \"#utility.yul\":5501:5531   */\n      gt\n        /* \"#utility.yul\":5498:5554   */\n      iszero\n      tag_151\n      jumpi\n        /* \"#utility.yul\":5534:5552   */\n      tag_152\n      tag_79\n      jump\t// in\n    tag_152:\n        /* \"#utility.yul\":5498:5554   */\n    tag_151:\n        /* \"#utility.yul\":5572:5601   */\n      tag_153\n        /* \"#utility.yul\":5594:5600   */\n      dup3\n        /* \"#utility.yul\":5572:5601   */\n      tag_61\n      jump\t// in\n    tag_153:\n        /* \"#utility.yul\":5564:5601   */\n      swap1\n      pop\n        /* \"#utility.yul\":5656:5660   */\n      0x20\n        /* \"#utility.yul\":5650:5654   */\n      dup2\n        /* \"#utility.yul\":5646:5661   */\n      add\n        /* \"#utility.yul\":5638:5661   */\n      swap1\n      pop\n        /* \"#utility.yul\":5360:5668   */\n      swap2\n      swap1\n      pop\n      jump\t// out\n        /* \"#utility.yul\":5674:6095   */\n    tag_83:\n        /* \"#utility.yul\":5763:5768   */\n      0x00\n        /* \"#utility.yul\":5788:5854   */\n      tag_155\n        /* \"#utility.yul\":5804:5853   */\n      tag_156\n        /* \"#utility.yul\":5846:5852   */\n      dup5\n        /* \"#utility.yul\":5804:5853   */\n      tag_82\n      jump\t// in\n    tag_156:\n        /* \"#utility.yul\":5788:5854   */\n      tag_81\n      jump\t// in\n    tag_155:\n        /* \"#utility.yul\":5779:5854   */\n      swap1\n      pop\n        /* \"#utility.yul\":5877:5883   */\n      dup3\n        /* \"#utility.yul\":5870:5875   */\n      dup2\n        /* \"#utility.yul\":5863:5884   */\n      mstore\n        /* \"#utility.yul\":5915:5919   */\n      0x20\n        /* \"#utility.yul\":5908:5913   */\n      dup2\n        /* \"#utility.yul\":5904:5920   */\n      add\n        /* \"#utility.yul\":5953:5956   */\n      dup5\n        /* \"#utility.yul\":5944:5950   */\n      dup5\n        /* \"#utility.yul\":5939:5942   */\n      dup5\n        /* \"#utility.yul\":5935:5951   */\n      add\n        /* \"#utility.yul\":5932:5957   */\n      gt\n        /* \"#utility.yul\":5929:6041   */\n      iszero\n      tag_157\n      jumpi\n        /* \"#utility.yul\":5960:6039   */\n      tag_158\n      tag_78\n      jump\t// in\n    tag_158:\n        /* \"#utility.yul\":5929:6041   */\n    tag_157:\n        /* \"#utility.yul\":6050:6089   */\n      tag_159\n        /* \"#utility.yul\":6082:6088   */\n      dup5\n        /* \"#utility.yul\":6077:6080   */\n      dup3\n        /* \"#utility.yul\":6072:6075   */\n      dup6\n        /* \"#utility.yul\":6050:6089   */\n      tag_60\n      jump\t// in\n    tag_159:\n        /* \"#utility.yul\":5769:6095   */\n      pop\n        /* \"#utility.yul\":5674:6095   */\n      swap4\n      swap3\n      pop\n      pop\n      pop\n      jump\t// out\n        /* \"#utility.yul\":6115:6470   */\n    tag_84:\n        /* \"#utility.yul\":6182:6187   */\n      0x00\n        /* \"#utility.yul\":6231:6234   */\n      dup3\n        /* \"#utility.yul\":6224:6228   */\n      0x1f\n        /* \"#utility.yul\":6216:6222   */\n      dup4\n        /* \"#utility.yul\":6212:6229   */\n      add\n        /* \"#utility.yul\":6208:6235   */\n      slt\n        /* \"#utility.yul\":6198:6320   */\n      tag_161\n      jumpi\n        /* \"#utility.yul\":6239:6318   */\n      tag_162\n      tag_77\n      jump\t// in\n    tag_162:\n        /* \"#utility.yul\":6198:6320   */\n    tag_161:\n        /* \"#utility.yul\":6349:6355   */\n      dup2\n        /* \"#utility.yul\":6343:6356   */\n      mload\n        /* \"#utility.yul\":6374:6464   */\n      tag_163\n        /* \"#utility.yul\":6460:6463   */\n      dup5\n        /* \"#utility.yul\":6452:6458   */\n      dup3\n        /* \"#utility.yul\":6445:6449   */\n      0x20\n        /* \"#utility.yul\":6437:6443   */\n      dup7\n        /* \"#utility.yul\":6433:6450   */\n      add\n        /* \"#utility.yul\":6374:6464   */\n      tag_83\n      jump\t// in\n    tag_163:\n        /* \"#utility.yul\":6365:6464   */\n      swap2\n      pop\n        /* \"#utility.yul\":6188:6470   */\n      pop\n        /* \"#utility.yul\":6115:6470   */\n      swap3\n      swap2\n      pop\n      pop\n      jump\t// out\n        /* \"#utility.yul\":6476:7000   */\n    tag_57:\n        /* \"#utility.yul\":6556:6562   */\n      0x00\n        /* \"#utility.yul\":6605:6607   */\n      0x20\n        /* \"#utility.yul\":6593:6602   */\n      dup3\n        /* \"#utility.yul\":6584:6591   */\n      dup5\n        /* \"#utility.yul\":6580:6603   */\n      sub\n        /* \"#utility.yul\":6576:6608   */\n      slt\n        /* \"#utility.yul\":6573:6692   */\n      iszero\n      tag_165\n      jumpi\n        /* \"#utility.yul\":6611:6690   */\n      tag_166\n      tag_67\n      jump\t// in\n    tag_166:\n        /* \"#utility.yul\":6573:6692   */\n    tag_165:\n        /* \"#utility.yul\":6752:6753   */\n      0x00\n        /* \"#utility.yul\":6741:6750   */\n      dup3\n        /* \"#utility.yul\":6737:6754   */\n      add\n        /* \"#utility.yul\":6731:6755   */\n      mload\n        /* \"#utility.yul\":6782:6800   */\n      0xffffffffffffffff\n        /* \"#utility.yul\":6774:6780   */\n      dup2\n        /* \"#utility.yul\":6771:6801   */\n      gt\n        /* \"#utility.yul\":6768:6885   */\n      iszero\n      tag_167\n      jumpi\n        /* \"#utility.yul\":6804:6883   */\n      tag_168\n      tag_68\n      jump\t// in\n    tag_168:\n        /* \"#utility.yul\":6768:6885   */\n    tag_167:\n        /* \"#utility.yul\":6909:6983   */\n      tag_169\n        /* \"#utility.yul\":6975:6982   */\n      dup5\n        /* \"#utility.yul\":6966:6972   */\n      dup3\n        /* \"#utility.yul\":6955:6964   */\n      dup6\n        /* \"#utility.yul\":6951:6973   */\n      add\n        /* \"#utility.yul\":6909:6983   */\n      tag_84\n      jump\t// in\n    tag_169:\n        /* \"#utility.yul\":6899:6983   */\n      swap2\n      pop\n        /* \"#utility.yul\":6702:6993   */\n      pop\n        /* \"#utility.yul\":6476:7000   */\n      swap3\n      swap2\n      pop\n      pop\n      jump\t// out\n\n    auxdata: 0xa2646970667358221220342124532826ccf4bb610ead2806cdb54f6fce0da5ab2df6890ecedb0fbd0b7664736f6c634300080f0033\n}\n",
				"bytecode": {
					"linkReferences": {},
					"object": "608060405273e9e7cea3dedca5984780bafc599bd69add087d56600160006101000a81548173ffffffffffffffffffffffffffffffffffffffff021916908373ffffffffffffffffffffffffffffffffffffffff160217905550738ac76a51cc950d9822d68b83fe1ad97b32cd580d600260006101000a81548173ffffffffffffffffffffffffffffffffffffffff021916908373ffffffffffffffffffffffffffffffffffffffff160217905550732170ed0880ac9a755fd29b2688956bd959f933f8600360006101000a81548173ffffffffffffffffffffffffffffffffffffffff021916908373ffffffffffffffffffffffffffffffffffffffff16021790555034801561010f57600080fd5b50336000806101000a81548173ffffffffffffffffffffffffffffffffffffffff021916908373ffffffffffffffffffffffffffffffffffffffff1602179055506108fd8061015f6000396000f3fe608060405234801561001057600080fd5b506004361061007d5760003560e01c80639347e6d71161005b5780639347e6d7146100dc578063b759f954146100fa578063e5a554bc1461012a578063eabe09ad146101485761007d565b8063374ec742146100825780638da5cb5b146100a05780638de38f98146100be575b600080fd5b61008a610166565b604051610097919061059c565b60405180910390f35b6100a861016b565b6040516100b591906105ff565b60405180910390f35b6100c661018f565b6040516100d391906105ff565b60405180910390f35b6100e46101b5565b6040516100f191906105ff565b60405180910390f35b610114600480360381019061010f9190610664565b6101db565b60405161012191906106ac565b60405180910390f35b61013261043a565b60405161013f919061059c565b60405180910390f35b6101506104dd565b60405161015d91906105ff565b60405180910390f35b606090565b60008054906101000a900473ffffffffffffffffffffffffffffffffffffffff1681565b600260009054906101000a900473ffffffffffffffffffffffffffffffffffffffff1681565b600360009054906101000a900473ffffffffffffffffffffffffffffffffffffffff1681565b600080600160009054906101000a900473ffffffffffffffffffffffffffffffffffffffff1690506000600260009054906101000a900473ffffffffffffffffffffffffffffffffffffffff1690506000600360009054906101000a900473ffffffffffffffffffffffffffffffffffffffff1690508273ffffffffffffffffffffffffffffffffffffffff1663095ea7b360008054906101000a900473ffffffffffffffffffffffffffffffffffffffff16876040518363ffffffff1660e01b81526004016102ac9291906106d6565b6020604051808303816000875af11580156102cb573d6000803e3d6000fd5b505050506040513d601f19601f820116820180604052508101906102ef919061072b565b508173ffffffffffffffffffffffffffffffffffffffff1663095ea7b360008054906101000a900473ffffffffffffffffffffffffffffffffffffffff16876040518363ffffffff1660e01b815260040161034b9291906106d6565b6020604051808303816000875af115801561036a573d6000803e3d6000fd5b505050506040513d601f19601f8201168201806040525081019061038e919061072b565b508073ffffffffffffffffffffffffffffffffffffffff1663095ea7b360008054906101000a900473ffffffffffffffffffffffffffffffffffffffff16876040518363ffffffff1660e01b81526004016103ea9291906106d6565b6020604051808303816000875af1158015610409573d6000803e3d6000fd5b505050506040513d601f19601f8201168201806040525081019061042d919061072b565b5060019350505050919050565b60606000600260009054906101000a900473ffffffffffffffffffffffffffffffffffffffff1690508073ffffffffffffffffffffffffffffffffffffffff166395d89b416040518163ffffffff1660e01b8152600401600060405180830381865afa1580156104ae573d6000803e3d6000fd5b505050506040513d6000823e3d601f19601f820116820180604052508101906104d7919061087e565b91505090565b600160009054906101000a900473ffffffffffffffffffffffffffffffffffffffff1681565b600081519050919050565b600082825260208201905092915050565b60005b8381101561053d578082015181840152602081019050610522565b8381111561054c576000848401525b50505050565b6000601f19601f8301169050919050565b600061056e82610503565b610578818561050e565b935061058881856020860161051f565b61059181610552565b840191505092915050565b600060208201905081810360008301526105b68184610563565b905092915050565b600073ffffffffffffffffffffffffffffffffffffffff82169050919050565b60006105e9826105be565b9050919050565b6105f9816105de565b82525050565b600060208201905061061460008301846105f0565b92915050565b6000604051905090565b600080fd5b600080fd5b6000819050919050565b6106418161062e565b811461064c57600080fd5b50565b60008135905061065e81610638565b92915050565b60006020828403121561067a57610679610624565b5b60006106888482850161064f565b91505092915050565b60008115159050919050565b6106a681610691565b82525050565b60006020820190506106c1600083018461069d565b92915050565b6106d08161062e565b82525050565b60006040820190506106eb60008301856105f0565b6106f860208301846106c7565b9392505050565b61070881610691565b811461071357600080fd5b50565b600081519050610725816106ff565b92915050565b60006020828403121561074157610740610624565b5b600061074f84828501610716565b91505092915050565b600080fd5b600080fd5b7f4e487b7100000000000000000000000000000000000000000000000000000000600052604160045260246000fd5b61079a82610552565b810181811067ffffffffffffffff821117156107b9576107b8610762565b5b80604052505050565b60006107cc61061a565b90506107d88282610791565b919050565b600067ffffffffffffffff8211156107f8576107f7610762565b5b61080182610552565b9050602081019050919050565b600061082161081c846107dd565b6107c2565b90508281526020810184848401111561083d5761083c61075d565b5b61084884828561051f565b509392505050565b600082601f83011261086557610864610758565b5b815161087584826020860161080e565b91505092915050565b60006020828403121561089457610893610624565b5b600082015167ffffffffffffffff8111156108b2576108b1610629565b5b6108be84828501610850565b9150509291505056fea2646970667358221220342124532826ccf4bb610ead2806cdb54f6fce0da5ab2df6890ecedb0fbd0b7664736f6c634300080f0033",
					"opcodes": "PUSH1 0x80 PUSH1 0x40 MSTORE PUSH20 0xE9E7CEA3DEDCA5984780BAFC599BD69ADD087D56 PUSH1 0x1 PUSH1 0x0 PUSH2 0x100 EXP DUP2 SLOAD DUP2 PUSH20 0xFFFFFFFFFFFFFFFFFFFFFFFFFFFFFFFFFFFFFFFF MUL NOT AND SWAP1 DUP4 PUSH20 0xFFFFFFFFFFFFFFFFFFFFFFFFFFFFFFFFFFFFFFFF AND MUL OR SWAP1 SSTORE POP PUSH20 0x8AC76A51CC950D9822D68B83FE1AD97B32CD580D PUSH1 0x2 PUSH1 0x0 PUSH2 0x100 EXP DUP2 SLOAD DUP2 PUSH20 0xFFFFFFFFFFFFFFFFFFFFFFFFFFFFFFFFFFFFFFFF MUL NOT AND SWAP1 DUP4 PUSH20 0xFFFFFFFFFFFFFFFFFFFFFFFFFFFFFFFFFFFFFFFF AND MUL OR SWAP1 SSTORE POP PUSH20 0x2170ED0880AC9A755FD29B2688956BD959F933F8 PUSH1 0x3 PUSH1 0x0 PUSH2 0x100 EXP DUP2 SLOAD DUP2 PUSH20 0xFFFFFFFFFFFFFFFFFFFFFFFFFFFFFFFFFFFFFFFF MUL NOT AND SWAP1 DUP4 PUSH20 0xFFFFFFFFFFFFFFFFFFFFFFFFFFFFFFFFFFFFFFFF AND MUL OR SWAP1 SSTORE POP CALLVALUE DUP1 ISZERO PUSH2 0x10F JUMPI PUSH1 0x0 DUP1 REVERT JUMPDEST POP CALLER PUSH1 0x0 DUP1 PUSH2 0x100 EXP DUP2 SLOAD DUP2 PUSH20 0xFFFFFFFFFFFFFFFFFFFFFFFFFFFFFFFFFFFFFFFF MUL NOT AND SWAP1 DUP4 PUSH20 0xFFFFFFFFFFFFFFFFFFFFFFFFFFFFFFFFFFFFFFFF AND MUL OR SWAP1 SSTORE POP PUSH2 0x8FD DUP1 PUSH2 0x15F PUSH1 0x0 CODECOPY PUSH1 0x0 RETURN INVALID PUSH1 0x80 PUSH1 0x40 MSTORE CALLVALUE DUP1 ISZERO PUSH2 0x10 JUMPI PUSH1 0x0 DUP1 REVERT JUMPDEST POP PUSH1 0x4 CALLDATASIZE LT PUSH2 0x7D JUMPI PUSH1 0x0 CALLDATALOAD PUSH1 0xE0 SHR DUP1 PUSH4 0x9347E6D7 GT PUSH2 0x5B JUMPI DUP1 PUSH4 0x9347E6D7 EQ PUSH2 0xDC JUMPI DUP1 PUSH4 0xB759F954 EQ PUSH2 0xFA JUMPI DUP1 PUSH4 0xE5A554BC EQ PUSH2 0x12A JUMPI DUP1 PUSH4 0xEABE09AD EQ PUSH2 0x148 JUMPI PUSH2 0x7D JUMP JUMPDEST DUP1 PUSH4 0x374EC742 EQ PUSH2 0x82 JUMPI DUP1 PUSH4 0x8DA5CB5B EQ PUSH2 0xA0 JUMPI DUP1 PUSH4 0x8DE38F98 EQ PUSH2 0xBE JUMPI JUMPDEST PUSH1 0x0 DUP1 REVERT JUMPDEST PUSH2 0x8A PUSH2 0x166 JUMP JUMPDEST PUSH1 0x40 MLOAD PUSH2 0x97 SWAP2 SWAP1 PUSH2 0x59C JUMP JUMPDEST PUSH1 0x40 MLOAD DUP1 SWAP2 SUB SWAP1 RETURN JUMPDEST PUSH2 0xA8 PUSH2 0x16B JUMP JUMPDEST PUSH1 0x40 MLOAD PUSH2 0xB5 SWAP2 SWAP1 PUSH2 0x5FF JUMP JUMPDEST PUSH1 0x40 MLOAD DUP1 SWAP2 SUB SWAP1 RETURN JUMPDEST PUSH2 0xC6 PUSH2 0x18F JUMP JUMPDEST PUSH1 0x40 MLOAD PUSH2 0xD3 SWAP2 SWAP1 PUSH2 0x5FF JUMP JUMPDEST PUSH1 0x40 MLOAD DUP1 SWAP2 SUB SWAP1 RETURN JUMPDEST PUSH2 0xE4 PUSH2 0x1B5 JUMP JUMPDEST PUSH1 0x40 MLOAD PUSH2 0xF1 SWAP2 SWAP1 PUSH2 0x5FF JUMP JUMPDEST PUSH1 0x40 MLOAD DUP1 SWAP2 SUB SWAP1 RETURN JUMPDEST PUSH2 0x114 PUSH1 0x4 DUP1 CALLDATASIZE SUB DUP2 ADD SWAP1 PUSH2 0x10F SWAP2 SWAP1 PUSH2 0x664 JUMP JUMPDEST PUSH2 0x1DB JUMP JUMPDEST PUSH1 0x40 MLOAD PUSH2 0x121 SWAP2 SWAP1 PUSH2 0x6AC JUMP JUMPDEST PUSH1 0x40 MLOAD DUP1 SWAP2 SUB SWAP1 RETURN JUMPDEST PUSH2 0x132 PUSH2 0x43A JUMP JUMPDEST PUSH1 0x40 MLOAD PUSH2 0x13F SWAP2 SWAP1 PUSH2 0x59C JUMP JUMPDEST PUSH1 0x40 MLOAD DUP1 SWAP2 SUB SWAP1 RETURN JUMPDEST PUSH2 0x150 PUSH2 0x4DD JUMP JUMPDEST PUSH1 0x40 MLOAD PUSH2 0x15D SWAP2 SWAP1 PUSH2 0x5FF JUMP JUMPDEST PUSH1 0x40 MLOAD DUP1 SWAP2 SUB SWAP1 RETURN JUMPDEST PUSH1 0x60 SWAP1 JUMP JUMPDEST PUSH1 0x0 DUP1 SLOAD SWAP1 PUSH2 0x100 EXP SWAP1 DIV PUSH20 0xFFFFFFFFFFFFFFFFFFFFFFFFFFFFFFFFFFFFFFFF AND DUP2 JUMP JUMPDEST PUSH1 0x2 PUSH1 0x0 SWAP1 SLOAD SWAP1 PUSH2 0x100 EXP SWAP1 DIV PUSH20 0xFFFFFFFFFFFFFFFFFFFFFFFFFFFFFFFFFFFFFFFF AND DUP2 JUMP JUMPDEST PUSH1 0x3 PUSH1 0x0 SWAP1 SLOAD SWAP1 PUSH2 0x100 EXP SWAP1 DIV PUSH20 0xFFFFFFFFFFFFFFFFFFFFFFFFFFFFFFFFFFFFFFFF AND DUP2 JUMP JUMPDEST PUSH1 0x0 DUP1 PUSH1 0x1 PUSH1 0x0 SWAP1 SLOAD SWAP1 PUSH2 0x100 EXP SWAP1 DIV PUSH20 0xFFFFFFFFFFFFFFFFFFFFFFFFFFFFFFFFFFFFFFFF AND SWAP1 POP PUSH1 0x0 PUSH1 0x2 PUSH1 0x0 SWAP1 SLOAD SWAP1 PUSH2 0x100 EXP SWAP1 DIV PUSH20 0xFFFFFFFFFFFFFFFFFFFFFFFFFFFFFFFFFFFFFFFF AND SWAP1 POP PUSH1 0x0 PUSH1 0x3 PUSH1 0x0 SWAP1 SLOAD SWAP1 PUSH2 0x100 EXP SWAP1 DIV PUSH20 0xFFFFFFFFFFFFFFFFFFFFFFFFFFFFFFFFFFFFFFFF AND SWAP1 POP DUP3 PUSH20 0xFFFFFFFFFFFFFFFFFFFFFFFFFFFFFFFFFFFFFFFF AND PUSH4 0x95EA7B3 PUSH1 0x0 DUP1 SLOAD SWAP1 PUSH2 0x100 EXP SWAP1 DIV PUSH20 0xFFFFFFFFFFFFFFFFFFFFFFFFFFFFFFFFFFFFFFFF AND DUP8 PUSH1 0x40 MLOAD DUP4 PUSH4 0xFFFFFFFF AND PUSH1 0xE0 SHL DUP2 MSTORE PUSH1 0x4 ADD PUSH2 0x2AC SWAP3 SWAP2 SWAP1 PUSH2 0x6D6 JUMP JUMPDEST PUSH1 0x20 PUSH1 0x40 MLOAD DUP1 DUP4 SUB DUP2 PUSH1 0x0 DUP8 GAS CALL ISZERO DUP1 ISZERO PUSH2 0x2CB JUMPI RETURNDATASIZE PUSH1 0x0 DUP1 RETURNDATACOPY RETURNDATASIZE PUSH1 0x0 REVERT JUMPDEST POP POP POP POP PUSH1 0x40 MLOAD RETURNDATASIZE PUSH1 0x1F NOT PUSH1 0x1F DUP3 ADD AND DUP3 ADD DUP1 PUSH1 0x40 MSTORE POP DUP2 ADD SWAP1 PUSH2 0x2EF SWAP2 SWAP1 PUSH2 0x72B JUMP JUMPDEST POP DUP2 PUSH20 0xFFFFFFFFFFFFFFFFFFFFFFFFFFFFFFFFFFFFFFFF AND PUSH4 0x95EA7B3 PUSH1 0x0 DUP1 SLOAD SWAP1 PUSH2 0x100 EXP SWAP1 DIV PUSH20 0xFFFFFFFFFFFFFFFFFFFFFFFFFFFFFFFFFFFFFFFF AND DUP8 PUSH1 0x40 MLOAD DUP4 PUSH4 0xFFFFFFFF AND PUSH1 0xE0 SHL DUP2 MSTORE PUSH1 0x4 ADD PUSH2 0x34B SWAP3 SWAP2 SWAP1 PUSH2 0x6D6 JUMP JUMPDEST PUSH1 0x20 PUSH1 0x40 MLOAD DUP1 DUP4 SUB DUP2 PUSH1 0x0 DUP8 GAS CALL ISZERO DUP1 ISZERO PUSH2 0x36A JUMPI RETURNDATASIZE PUSH1 0x0 DUP1 RETURNDATACOPY RETURNDATASIZE PUSH1 0x0 REVERT JUMPDEST POP POP POP POP PUSH1 0x40 MLOAD RETURNDATASIZE PUSH1 0x1F NOT PUSH1 0x1F DUP3 ADD AND DUP3 ADD DUP1 PUSH1 0x40 MSTORE POP DUP2 ADD SWAP1 PUSH2 0x38E SWAP2 SWAP1 PUSH2 0x72B JUMP JUMPDEST POP DUP1 PUSH20 0xFFFFFFFFFFFFFFFFFFFFFFFFFFFFFFFFFFFFFFFF AND PUSH4 0x95EA7B3 PUSH1 0x0 DUP1 SLOAD SWAP1 PUSH2 0x100 EXP SWAP1 DIV PUSH20 0xFFFFFFFFFFFFFFFFFFFFFFFFFFFFFFFFFFFFFFFF AND DUP8 PUSH1 0x40 MLOAD DUP4 PUSH4 0xFFFFFFFF AND PUSH1 0xE0 SHL DUP2 MSTORE PUSH1 0x4 ADD PUSH2 0x3EA SWAP3 SWAP2 SWAP1 PUSH2 0x6D6 JUMP JUMPDEST PUSH1 0x20 PUSH1 0x40 MLOAD DUP1 DUP4 SUB DUP2 PUSH1 0x0 DUP8 GAS CALL ISZERO DUP1 ISZERO PUSH2 0x409 JUMPI RETURNDATASIZE PUSH1 0x0 DUP1 RETURNDATACOPY RETURNDATASIZE PUSH1 0x0 REVERT JUMPDEST POP POP POP POP PUSH1 0x40 MLOAD RETURNDATASIZE PUSH1 0x1F NOT PUSH1 0x1F DUP3 ADD AND DUP3 ADD DUP1 PUSH1 0x40 MSTORE POP DUP2 ADD SWAP1 PUSH2 0x42D SWAP2 SWAP1 PUSH2 0x72B JUMP JUMPDEST POP PUSH1 0x1 SWAP4 POP POP POP POP SWAP2 SWAP1 POP JUMP JUMPDEST PUSH1 0x60 PUSH1 0x0 PUSH1 0x2 PUSH1 0x0 SWAP1 SLOAD SWAP1 PUSH2 0x100 EXP SWAP1 DIV PUSH20 0xFFFFFFFFFFFFFFFFFFFFFFFFFFFFFFFFFFFFFFFF AND SWAP1 POP DUP1 PUSH20 0xFFFFFFFFFFFFFFFFFFFFFFFFFFFFFFFFFFFFFFFF AND PUSH4 0x95D89B41 PUSH1 0x40 MLOAD DUP2 PUSH4 0xFFFFFFFF AND PUSH1 0xE0 SHL DUP2 MSTORE PUSH1 0x4 ADD PUSH1 0x0 PUSH1 0x40 MLOAD DUP1 DUP4 SUB DUP2 DUP7 GAS STATICCALL ISZERO DUP1 ISZERO PUSH2 0x4AE JUMPI RETURNDATASIZE PUSH1 0x0 DUP1 RETURNDATACOPY RETURNDATASIZE PUSH1 0x0 REVERT JUMPDEST POP POP POP POP PUSH1 0x40 MLOAD RETURNDATASIZE PUSH1 0x0 DUP3 RETURNDATACOPY RETURNDATASIZE PUSH1 0x1F NOT PUSH1 0x1F DUP3 ADD AND DUP3 ADD DUP1 PUSH1 0x40 MSTORE POP DUP2 ADD SWAP1 PUSH2 0x4D7 SWAP2 SWAP1 PUSH2 0x87E JUMP JUMPDEST SWAP2 POP POP SWAP1 JUMP JUMPDEST PUSH1 0x1 PUSH1 0x0 SWAP1 SLOAD SWAP1 PUSH2 0x100 EXP SWAP1 DIV PUSH20 0xFFFFFFFFFFFFFFFFFFFFFFFFFFFFFFFFFFFFFFFF AND DUP2 JUMP JUMPDEST PUSH1 0x0 DUP2 MLOAD SWAP1 POP SWAP2 SWAP1 POP JUMP JUMPDEST PUSH1 0x0 DUP3 DUP3 MSTORE PUSH1 0x20 DUP3 ADD SWAP1 POP SWAP3 SWAP2 POP POP JUMP JUMPDEST PUSH1 0x0 JUMPDEST DUP4 DUP2 LT ISZERO PUSH2 0x53D JUMPI DUP1 DUP3 ADD MLOAD DUP2 DUP5 ADD MSTORE PUSH1 0x20 DUP2 ADD SWAP1 POP PUSH2 0x522 JUMP JUMPDEST DUP4 DUP2 GT ISZERO PUSH2 0x54C JUMPI PUSH1 0x0 DUP5 DUP5 ADD MSTORE JUMPDEST POP POP POP POP JUMP JUMPDEST PUSH1 0x0 PUSH1 0x1F NOT PUSH1 0x1F DUP4 ADD AND SWAP1 POP SWAP2 SWAP1 POP JUMP JUMPDEST PUSH1 0x0 PUSH2 0x56E DUP3 PUSH2 0x503 JUMP JUMPDEST PUSH2 0x578 DUP2 DUP6 PUSH2 0x50E JUMP JUMPDEST SWAP4 POP PUSH2 0x588 DUP2 DUP6 PUSH1 0x20 DUP7 ADD PUSH2 0x51F JUMP JUMPDEST PUSH2 0x591 DUP2 PUSH2 0x552 JUMP JUMPDEST DUP5 ADD SWAP2 POP POP SWAP3 SWAP2 POP POP JUMP JUMPDEST PUSH1 0x0 PUSH1 0x20 DUP3 ADD SWAP1 POP DUP2 DUP2 SUB PUSH1 0x0 DUP4 ADD MSTORE PUSH2 0x5B6 DUP2 DUP5 PUSH2 0x563 JUMP JUMPDEST SWAP1 POP SWAP3 SWAP2 POP POP JUMP JUMPDEST PUSH1 0x0 PUSH20 0xFFFFFFFFFFFFFFFFFFFFFFFFFFFFFFFFFFFFFFFF DUP3 AND SWAP1 POP SWAP2 SWAP1 POP JUMP JUMPDEST PUSH1 0x0 PUSH2 0x5E9 DUP3 PUSH2 0x5BE JUMP JUMPDEST SWAP1 POP SWAP2 SWAP1 POP JUMP JUMPDEST PUSH2 0x5F9 DUP2 PUSH2 0x5DE JUMP JUMPDEST DUP3 MSTORE POP POP JUMP JUMPDEST PUSH1 0x0 PUSH1 0x20 DUP3 ADD SWAP1 POP PUSH2 0x614 PUSH1 0x0 DUP4 ADD DUP5 PUSH2 0x5F0 JUMP JUMPDEST SWAP3 SWAP2 POP POP JUMP JUMPDEST PUSH1 0x0 PUSH1 0x40 MLOAD SWAP1 POP SWAP1 JUMP JUMPDEST PUSH1 0x0 DUP1 REVERT JUMPDEST PUSH1 0x0 DUP1 REVERT JUMPDEST PUSH1 0x0 DUP2 SWAP1 POP SWAP2 SWAP1 POP JUMP JUMPDEST PUSH2 0x641 DUP2 PUSH2 0x62E JUMP JUMPDEST DUP2 EQ PUSH2 0x64C JUMPI PUSH1 0x0 DUP1 REVERT JUMPDEST POP JUMP JUMPDEST PUSH1 0x0 DUP2 CALLDATALOAD SWAP1 POP PUSH2 0x65E DUP2 PUSH2 0x638 JUMP JUMPDEST SWAP3 SWAP2 POP POP JUMP JUMPDEST PUSH1 0x0 PUSH1 0x20 DUP3 DUP5 SUB SLT ISZERO PUSH2 0x67A JUMPI PUSH2 0x679 PUSH2 0x624 JUMP JUMPDEST JUMPDEST PUSH1 0x0 PUSH2 0x688 DUP5 DUP3 DUP6 ADD PUSH2 0x64F JUMP JUMPDEST SWAP2 POP POP SWAP3 SWAP2 POP POP JUMP JUMPDEST PUSH1 0x0 DUP2 ISZERO ISZERO SWAP1 POP SWAP2 SWAP1 POP JUMP JUMPDEST PUSH2 0x6A6 DUP2 PUSH2 0x691 JUMP JUMPDEST DUP3 MSTORE POP POP JUMP JUMPDEST PUSH1 0x0 PUSH1 0x20 DUP3 ADD SWAP1 POP PUSH2 0x6C1 PUSH1 0x0 DUP4 ADD DUP5 PUSH2 0x69D JUMP JUMPDEST SWAP3 SWAP2 POP POP JUMP JUMPDEST PUSH2 0x6D0 DUP2 PUSH2 0x62E JUMP JUMPDEST DUP3 MSTORE POP POP JUMP JUMPDEST PUSH1 0x0 PUSH1 0x40 DUP3 ADD SWAP1 POP PUSH2 0x6EB PUSH1 0x0 DUP4 ADD DUP6 PUSH2 0x5F0 JUMP JUMPDEST PUSH2 0x6F8 PUSH1 0x20 DUP4 ADD DUP5 PUSH2 0x6C7 JUMP JUMPDEST SWAP4 SWAP3 POP POP POP JUMP JUMPDEST PUSH2 0x708 DUP2 PUSH2 0x691 JUMP JUMPDEST DUP2 EQ PUSH2 0x713 JUMPI PUSH1 0x0 DUP1 REVERT JUMPDEST POP JUMP JUMPDEST PUSH1 0x0 DUP2 MLOAD SWAP1 POP PUSH2 0x725 DUP2 PUSH2 0x6FF JUMP JUMPDEST SWAP3 SWAP2 POP POP JUMP JUMPDEST PUSH1 0x0 PUSH1 0x20 DUP3 DUP5 SUB SLT ISZERO PUSH2 0x741 JUMPI PUSH2 0x740 PUSH2 0x624 JUMP JUMPDEST JUMPDEST PUSH1 0x0 PUSH2 0x74F DUP5 DUP3 DUP6 ADD PUSH2 0x716 JUMP JUMPDEST SWAP2 POP POP SWAP3 SWAP2 POP POP JUMP JUMPDEST PUSH1 0x0 DUP1 REVERT JUMPDEST PUSH1 0x0 DUP1 REVERT JUMPDEST PUSH32 0x4E487B7100000000000000000000000000000000000000000000000000000000 PUSH1 0x0 MSTORE PUSH1 0x41 PUSH1 0x4 MSTORE PUSH1 0x24 PUSH1 0x0 REVERT JUMPDEST PUSH2 0x79A DUP3 PUSH2 0x552 JUMP JUMPDEST DUP2 ADD DUP2 DUP2 LT PUSH8 0xFFFFFFFFFFFFFFFF DUP3 GT OR ISZERO PUSH2 0x7B9 JUMPI PUSH2 0x7B8 PUSH2 0x762 JUMP JUMPDEST JUMPDEST DUP1 PUSH1 0x40 MSTORE POP POP POP JUMP JUMPDEST PUSH1 0x0 PUSH2 0x7CC PUSH2 0x61A JUMP JUMPDEST SWAP1 POP PUSH2 0x7D8 DUP3 DUP3 PUSH2 0x791 JUMP JUMPDEST SWAP2 SWAP1 POP JUMP JUMPDEST PUSH1 0x0 PUSH8 0xFFFFFFFFFFFFFFFF DUP3 GT ISZERO PUSH2 0x7F8 JUMPI PUSH2 0x7F7 PUSH2 0x762 JUMP JUMPDEST JUMPDEST PUSH2 0x801 DUP3 PUSH2 0x552 JUMP JUMPDEST SWAP1 POP PUSH1 0x20 DUP2 ADD SWAP1 POP SWAP2 SWAP1 POP JUMP JUMPDEST PUSH1 0x0 PUSH2 0x821 PUSH2 0x81C DUP5 PUSH2 0x7DD JUMP JUMPDEST PUSH2 0x7C2 JUMP JUMPDEST SWAP1 POP DUP3 DUP2 MSTORE PUSH1 0x20 DUP2 ADD DUP5 DUP5 DUP5 ADD GT ISZERO PUSH2 0x83D JUMPI PUSH2 0x83C PUSH2 0x75D JUMP JUMPDEST JUMPDEST PUSH2 0x848 DUP5 DUP3 DUP6 PUSH2 0x51F JUMP JUMPDEST POP SWAP4 SWAP3 POP POP POP JUMP JUMPDEST PUSH1 0x0 DUP3 PUSH1 0x1F DUP4 ADD SLT PUSH2 0x865 JUMPI PUSH2 0x864 PUSH2 0x758 JUMP JUMPDEST JUMPDEST DUP2 MLOAD PUSH2 0x875 DUP5 DUP3 PUSH1 0x20 DUP7 ADD PUSH2 0x80E JUMP JUMPDEST SWAP2 POP POP SWAP3 SWAP2 POP POP JUMP JUMPDEST PUSH1 0x0 PUSH1 0x20 DUP3 DUP5 SUB SLT ISZERO PUSH2 0x894 JUMPI PUSH2 0x893 PUSH2 0x624 JUMP JUMPDEST JUMPDEST PUSH1 0x0 DUP3 ADD MLOAD PUSH8 0xFFFFFFFFFFFFFFFF DUP2 GT ISZERO PUSH2 0x8B2 JUMPI PUSH2 0x8B1 PUSH2 0x629 JUMP JUMPDEST JUMPDEST PUSH2 0x8BE DUP5 DUP3 DUP6 ADD PUSH2 0x850 JUMP JUMPDEST SWAP2 POP POP SWAP3 SWAP2 POP POP JUMP INVALID LOG2 PUSH5 0x6970667358 0x22 SLT KECCAK256 CALLVALUE 0x21 0x24 MSTORE8 0x28 0x26 0xCC DELEGATECALL 0xBB PUSH2 0xEAD 0x28 MOD 0xCD 0xB5 0x4F PUSH16 0xCE0DA5AB2DF6890ECEDB0FBD0B766473 PUSH16 0x6C634300080F00330000000000000000 "
				},
				"gasEstimates": {
					"creation": {
						"codeDepositCost": "460200",
						"executionCost": "97560",
						"totalCost": "557760"
					},
					"external": {
						"addr1()": "2580",
						"addr2()": "2559",
						"addr3()": "2514",
						"approve(uint256)": "infinite",
						"getSymbolBusd()": "infinite",
						"getSymbolUsdc()": "infinite",
						"owner()": "2534"
					}
				},
				"methodIdentifiers": {
					"addr1()": "eabe09ad",
					"addr2()": "8de38f98",
					"addr3()": "9347e6d7",
					"approve(uint256)": "b759f954",
					"getSymbolBusd()": "374ec742",
					"getSymbolUsdc()": "e5a554bc",
					"owner()": "8da5cb5b"
				}
			},
			"storageLayout": {
				"storage": [
					{
						"astId": 3,
						"contract": "contracts/Smart.sol:Smart",
						"label": "owner",
						"offset": 0,
						"slot": "0",
						"type": "t_address"
					},
					{
						"astId": 6,
						"contract": "contracts/Smart.sol:Smart",
						"label": "addr1",
						"offset": 0,
						"slot": "1",
						"type": "t_address"
					},
					{
						"astId": 9,
						"contract": "contracts/Smart.sol:Smart",
						"label": "addr2",
						"offset": 0,
						"slot": "2",
						"type": "t_address"
					},
					{
						"astId": 12,
						"contract": "contracts/Smart.sol:Smart",
						"label": "addr3",
						"offset": 0,
						"slot": "3",
						"type": "t_address"
					}
				],
				"types": {
					"t_address": {
						"encoding": "inplace",
						"label": "address",
						"numberOfBytes": "20"
					}
				}
			},
			"userdoc": {
				"kind": "user",
				"methods": {},
				"version": 1
			}
		}
	}
}