{
	"contracts/Test.sol": {
		"Test": {
			"abi": [
				{
					"inputs": [
						{
							"internalType": "address",
							"name": "spender",
							"type": "address"
						},
						{
							"internalType": "uint256",
							"name": "value",
							"type": "uint256"
						}
					],
					"name": "approve",
					"outputs": [
						{
							"internalType": "bool",
							"name": "",
							"type": "bool"
						}
					],
					"stateMutability": "nonpayable",
					"type": "function"
				},
				{
					"inputs": [],
					"name": "text",
					"outputs": [
						{
							"internalType": "string",
							"name": "",
							"type": "string"
						}
					],
					"stateMutability": "view",
					"type": "function"
				}
			],
			"devdoc": {
				"kind": "dev",
				"methods": {},
				"version": 1
			},
			"evm": {
				"assembly": "    /* \"contracts/Test.sol\":26:200  contract Test {... */\n  mstore(0x40, 0x80)\n  callvalue\n  dup1\n  iszero\n  tag_1\n  jumpi\n  0x00\n  dup1\n  revert\ntag_1:\n  pop\n  dataSize(sub_0)\n  dup1\n  dataOffset(sub_0)\n  0x00\n  codecopy\n  0x00\n  return\nstop\n\nsub_0: assembly {\n        /* \"contracts/Test.sol\":26:200  contract Test {... */\n      mstore(0x40, 0x80)\n      callvalue\n      dup1\n      iszero\n      tag_1\n      jumpi\n      0x00\n      dup1\n      revert\n    tag_1:\n      pop\n      jumpi(tag_2, lt(calldatasize, 0x04))\n      shr(0xe0, calldataload(0x00))\n      dup1\n      0x095ea7b3\n      eq\n      tag_3\n      jumpi\n      dup1\n      0x1f1bd692\n      eq\n      tag_4\n      jumpi\n    tag_2:\n      0x00\n      dup1\n      revert\n        /* \"contracts/Test.sol\":71:198  function approve(address spender, uint256 value) public returns(bool) {... */\n    tag_3:\n      tag_5\n      0x04\n      dup1\n      calldatasize\n      sub\n      dup2\n      add\n      swap1\n      tag_6\n      swap2\n      swap1\n      tag_7\n      jump\t// in\n    tag_6:\n      tag_8\n      jump\t// in\n    tag_5:\n      mload(0x40)\n      tag_9\n      swap2\n      swap1\n      tag_10\n      jump\t// in\n    tag_9:\n      mload(0x40)\n      dup1\n      swap2\n      sub\n      swap1\n      return\n        /* \"contracts/Test.sol\":46:64  string public text */\n    tag_4:\n      tag_11\n      tag_12\n      jump\t// in\n    tag_11:\n      mload(0x40)\n      tag_13\n      swap2\n      swap1\n      tag_14\n      jump\t// in\n    tag_13:\n      mload(0x40)\n      dup1\n      swap2\n      sub\n      swap1\n      return\n        /* \"contracts/Test.sol\":71:198  function approve(address spender, uint256 value) public returns(bool) {... */\n    tag_8:\n        /* \"contracts/Test.sol\":135:139  bool */\n      0x00\n        /* \"contracts/Test.sol\":151:170  text = \"WORKING!!!\" */\n      mload(0x40)\n      dup1\n      0x40\n      add\n      0x40\n      mstore\n      dup1\n      0x0a\n      dup2\n      mstore\n      0x20\n      add\n      0x574f524b494e4721212100000000000000000000000000000000000000000000\n      dup2\n      mstore\n      pop\n        /* \"contracts/Test.sol\":151:155  text */\n      0x00\n        /* \"contracts/Test.sol\":151:170  text = \"WORKING!!!\" */\n      swap1\n      dup2\n      tag_16\n      swap2\n      swap1\n      tag_17\n      jump\t// in\n    tag_16:\n      pop\n        /* \"contracts/Test.sol\":187:191  true */\n      0x01\n        /* \"contracts/Test.sol\":180:191  return true */\n      swap1\n      pop\n        /* \"contracts/Test.sol\":71:198  function approve(address spender, uint256 value) public returns(bool) {... */\n      swap3\n      swap2\n      pop\n      pop\n      jump\t// out\n        /* \"contracts/Test.sol\":46:64  string public text */\n    tag_12:\n      0x00\n      dup1\n      sload\n      tag_18\n      swap1\n      tag_19\n      jump\t// in\n    tag_18:\n      dup1\n      0x1f\n      add\n      0x20\n      dup1\n      swap2\n      div\n      mul\n      0x20\n      add\n      mload(0x40)\n      swap1\n      dup2\n      add\n      0x40\n      mstore\n      dup1\n      swap3\n      swap2\n      swap1\n      dup2\n      dup2\n      mstore\n      0x20\n      add\n      dup3\n      dup1\n      sload\n      tag_20\n      swap1\n      tag_19\n      jump\t// in\n    tag_20:\n      dup1\n      iszero\n      tag_21\n      jumpi\n      dup1\n      0x1f\n      lt\n      tag_22\n      jumpi\n      0x0100\n      dup1\n      dup4\n      sload\n      div\n      mul\n      dup4\n      mstore\n      swap2\n      0x20\n      add\n      swap2\n      jump(tag_21)\n    tag_22:\n      dup3\n      add\n      swap2\n      swap1\n      0x00\n      mstore\n      keccak256(0x00, 0x20)\n      swap1\n    tag_23:\n      dup2\n      sload\n      dup2\n      mstore\n      swap1\n      0x01\n      add\n      swap1\n      0x20\n      add\n      dup1\n      dup4\n      gt\n      tag_23\n      jumpi\n      dup3\n      swap1\n      sub\n      0x1f\n      and\n      dup3\n      add\n      swap2\n    tag_21:\n      pop\n      pop\n      pop\n      pop\n      pop\n      dup2\n      jump\t// out\n        /* \"#utility.yul\":88:205   */\n    tag_25:\n        /* \"#utility.yul\":197:198   */\n      0x00\n        /* \"#utility.yul\":194:195   */\n      dup1\n        /* \"#utility.yul\":187:199   */\n      revert\n        /* \"#utility.yul\":334:460   */\n    tag_27:\n        /* \"#utility.yul\":371:378   */\n      0x00\n        /* \"#utility.yul\":411:453   */\n      0xffffffffffffffffffffffffffffffffffffffff\n        /* \"#utility.yul\":404:409   */\n      dup3\n        /* \"#utility.yul\":400:454   */\n      and\n        /* \"#utility.yul\":389:454   */\n      swap1\n      pop\n        /* \"#utility.yul\":334:460   */\n      swap2\n      swap1\n      pop\n      jump\t// out\n        /* \"#utility.yul\":466:562   */\n    tag_28:\n        /* \"#utility.yul\":503:510   */\n      0x00\n        /* \"#utility.yul\":532:556   */\n      tag_64\n        /* \"#utility.yul\":550:555   */\n      dup3\n        /* \"#utility.yul\":532:556   */\n      tag_27\n      jump\t// in\n    tag_64:\n        /* \"#utility.yul\":521:556   */\n      swap1\n      pop\n        /* \"#utility.yul\":466:562   */\n      swap2\n      swap1\n      pop\n      jump\t// out\n        /* \"#utility.yul\":568:690   */\n    tag_29:\n        /* \"#utility.yul\":641:665   */\n      tag_66\n        /* \"#utility.yul\":659:664   */\n      dup2\n        /* \"#utility.yul\":641:665   */\n      tag_28\n      jump\t// in\n    tag_66:\n        /* \"#utility.yul\":634:639   */\n      dup2\n        /* \"#utility.yul\":631:666   */\n      eq\n        /* \"#utility.yul\":621:684   */\n      tag_67\n      jumpi\n        /* \"#utility.yul\":680:681   */\n      0x00\n        /* \"#utility.yul\":677:678   */\n      dup1\n        /* \"#utility.yul\":670:682   */\n      revert\n        /* \"#utility.yul\":621:684   */\n    tag_67:\n        /* \"#utility.yul\":568:690   */\n      pop\n      jump\t// out\n        /* \"#utility.yul\":696:835   */\n    tag_30:\n        /* \"#utility.yul\":742:747   */\n      0x00\n        /* \"#utility.yul\":780:786   */\n      dup2\n        /* \"#utility.yul\":767:787   */\n      calldataload\n        /* \"#utility.yul\":758:787   */\n      swap1\n      pop\n        /* \"#utility.yul\":796:829   */\n      tag_69\n        /* \"#utility.yul\":823:828   */\n      dup2\n        /* \"#utility.yul\":796:829   */\n      tag_29\n      jump\t// in\n    tag_69:\n        /* \"#utility.yul\":696:835   */\n      swap3\n      swap2\n      pop\n      pop\n      jump\t// out\n        /* \"#utility.yul\":841:918   */\n    tag_31:\n        /* \"#utility.yul\":878:885   */\n      0x00\n        /* \"#utility.yul\":907:912   */\n      dup2\n        /* \"#utility.yul\":896:912   */\n      swap1\n      pop\n        /* \"#utility.yul\":841:918   */\n      swap2\n      swap1\n      pop\n      jump\t// out\n        /* \"#utility.yul\":924:1046   */\n    tag_32:\n        /* \"#utility.yul\":997:1021   */\n      tag_72\n        /* \"#utility.yul\":1015:1020   */\n      dup2\n        /* \"#utility.yul\":997:1021   */\n      tag_31\n      jump\t// in\n    tag_72:\n        /* \"#utility.yul\":990:995   */\n      dup2\n        /* \"#utility.yul\":987:1022   */\n      eq\n        /* \"#utility.yul\":977:1040   */\n      tag_73\n      jumpi\n        /* \"#utility.yul\":1036:1037   */\n      0x00\n        /* \"#utility.yul\":1033:1034   */\n      dup1\n        /* \"#utility.yul\":1026:1038   */\n      revert\n        /* \"#utility.yul\":977:1040   */\n    tag_73:\n        /* \"#utility.yul\":924:1046   */\n      pop\n      jump\t// out\n        /* \"#utility.yul\":1052:1191   */\n    tag_33:\n        /* \"#utility.yul\":1098:1103   */\n      0x00\n        /* \"#utility.yul\":1136:1142   */\n      dup2\n        /* \"#utility.yul\":1123:1143   */\n      calldataload\n        /* \"#utility.yul\":1114:1143   */\n      swap1\n      pop\n        /* \"#utility.yul\":1152:1185   */\n      tag_75\n        /* \"#utility.yul\":1179:1184   */\n      dup2\n        /* \"#utility.yul\":1152:1185   */\n      tag_32\n      jump\t// in\n    tag_75:\n        /* \"#utility.yul\":1052:1191   */\n      swap3\n      swap2\n      pop\n      pop\n      jump\t// out\n        /* \"#utility.yul\":1197:1671   */\n    tag_7:\n        /* \"#utility.yul\":1265:1271   */\n      0x00\n        /* \"#utility.yul\":1273:1279   */\n      dup1\n        /* \"#utility.yul\":1322:1324   */\n      0x40\n        /* \"#utility.yul\":1310:1319   */\n      dup4\n        /* \"#utility.yul\":1301:1308   */\n      dup6\n        /* \"#utility.yul\":1297:1320   */\n      sub\n        /* \"#utility.yul\":1293:1325   */\n      slt\n        /* \"#utility.yul\":1290:1409   */\n      iszero\n      tag_77\n      jumpi\n        /* \"#utility.yul\":1328:1407   */\n      tag_78\n      tag_25\n      jump\t// in\n    tag_78:\n        /* \"#utility.yul\":1290:1409   */\n    tag_77:\n        /* \"#utility.yul\":1448:1449   */\n      0x00\n        /* \"#utility.yul\":1473:1526   */\n      tag_79\n        /* \"#utility.yul\":1518:1525   */\n      dup6\n        /* \"#utility.yul\":1509:1515   */\n      dup3\n        /* \"#utility.yul\":1498:1507   */\n      dup7\n        /* \"#utility.yul\":1494:1516   */\n      add\n        /* \"#utility.yul\":1473:1526   */\n      tag_30\n      jump\t// in\n    tag_79:\n        /* \"#utility.yul\":1463:1526   */\n      swap3\n      pop\n        /* \"#utility.yul\":1419:1536   */\n      pop\n        /* \"#utility.yul\":1575:1577   */\n      0x20\n        /* \"#utility.yul\":1601:1654   */\n      tag_80\n        /* \"#utility.yul\":1646:1653   */\n      dup6\n        /* \"#utility.yul\":1637:1643   */\n      dup3\n        /* \"#utility.yul\":1626:1635   */\n      dup7\n        /* \"#utility.yul\":1622:1644   */\n      add\n        /* \"#utility.yul\":1601:1654   */\n      tag_33\n      jump\t// in\n    tag_80:\n        /* \"#utility.yul\":1591:1654   */\n      swap2\n      pop\n        /* \"#utility.yul\":1546:1664   */\n      pop\n        /* \"#utility.yul\":1197:1671   */\n      swap3\n      pop\n      swap3\n      swap1\n      pop\n      jump\t// out\n        /* \"#utility.yul\":1677:1767   */\n    tag_34:\n        /* \"#utility.yul\":1711:1718   */\n      0x00\n        /* \"#utility.yul\":1754:1759   */\n      dup2\n        /* \"#utility.yul\":1747:1760   */\n      iszero\n        /* \"#utility.yul\":1740:1761   */\n      iszero\n        /* \"#utility.yul\":1729:1761   */\n      swap1\n      pop\n        /* \"#utility.yul\":1677:1767   */\n      swap2\n      swap1\n      pop\n      jump\t// out\n        /* \"#utility.yul\":1773:1882   */\n    tag_35:\n        /* \"#utility.yul\":1854:1875   */\n      tag_83\n        /* \"#utility.yul\":1869:1874   */\n      dup2\n        /* \"#utility.yul\":1854:1875   */\n      tag_34\n      jump\t// in\n    tag_83:\n        /* \"#utility.yul\":1849:1852   */\n      dup3\n        /* \"#utility.yul\":1842:1876   */\n      mstore\n        /* \"#utility.yul\":1773:1882   */\n      pop\n      pop\n      jump\t// out\n        /* \"#utility.yul\":1888:2098   */\n    tag_10:\n        /* \"#utility.yul\":1975:1979   */\n      0x00\n        /* \"#utility.yul\":2013:2015   */\n      0x20\n        /* \"#utility.yul\":2002:2011   */\n      dup3\n        /* \"#utility.yul\":1998:2016   */\n      add\n        /* \"#utility.yul\":1990:2016   */\n      swap1\n      pop\n        /* \"#utility.yul\":2026:2091   */\n      tag_85\n        /* \"#utility.yul\":2088:2089   */\n      0x00\n        /* \"#utility.yul\":2077:2086   */\n      dup4\n        /* \"#utility.yul\":2073:2090   */\n      add\n        /* \"#utility.yul\":2064:2070   */\n      dup5\n        /* \"#utility.yul\":2026:2091   */\n      tag_35\n      jump\t// in\n    tag_85:\n        /* \"#utility.yul\":1888:2098   */\n      swap3\n      swap2\n      pop\n      pop\n      jump\t// out\n        /* \"#utility.yul\":2104:2203   */\n    tag_36:\n        /* \"#utility.yul\":2156:2162   */\n      0x00\n        /* \"#utility.yul\":2190:2195   */\n      dup2\n        /* \"#utility.yul\":2184:2196   */\n      mload\n        /* \"#utility.yul\":2174:2196   */\n      swap1\n      pop\n        /* \"#utility.yul\":2104:2203   */\n      swap2\n      swap1\n      pop\n      jump\t// out\n        /* \"#utility.yul\":2209:2378   */\n    tag_37:\n        /* \"#utility.yul\":2293:2304   */\n      0x00\n        /* \"#utility.yul\":2327:2333   */\n      dup3\n        /* \"#utility.yul\":2322:2325   */\n      dup3\n        /* \"#utility.yul\":2315:2334   */\n      mstore\n        /* \"#utility.yul\":2367:2371   */\n      0x20\n        /* \"#utility.yul\":2362:2365   */\n      dup3\n        /* \"#utility.yul\":2358:2372   */\n      add\n        /* \"#utility.yul\":2343:2372   */\n      swap1\n      pop\n        /* \"#utility.yul\":2209:2378   */\n      swap3\n      swap2\n      pop\n      pop\n      jump\t// out\n        /* \"#utility.yul\":2384:2630   */\n    tag_38:\n        /* \"#utility.yul\":2465:2466   */\n      0x00\n        /* \"#utility.yul\":2475:2588   */\n    tag_89:\n        /* \"#utility.yul\":2489:2495   */\n      dup4\n        /* \"#utility.yul\":2486:2487   */\n      dup2\n        /* \"#utility.yul\":2483:2496   */\n      lt\n        /* \"#utility.yul\":2475:2588   */\n      iszero\n      tag_91\n      jumpi\n        /* \"#utility.yul\":2574:2575   */\n      dup1\n        /* \"#utility.yul\":2569:2572   */\n      dup3\n        /* \"#utility.yul\":2565:2576   */\n      add\n        /* \"#utility.yul\":2559:2577   */\n      mload\n        /* \"#utility.yul\":2555:2556   */\n      dup2\n        /* \"#utility.yul\":2550:2553   */\n      dup5\n        /* \"#utility.yul\":2546:2557   */\n      add\n        /* \"#utility.yul\":2539:2578   */\n      mstore\n        /* \"#utility.yul\":2511:2513   */\n      0x20\n        /* \"#utility.yul\":2508:2509   */\n      dup2\n        /* \"#utility.yul\":2504:2514   */\n      add\n        /* \"#utility.yul\":2499:2514   */\n      swap1\n      pop\n        /* \"#utility.yul\":2475:2588   */\n      jump(tag_89)\n    tag_91:\n        /* \"#utility.yul\":2622:2623   */\n      0x00\n        /* \"#utility.yul\":2613:2619   */\n      dup5\n        /* \"#utility.yul\":2608:2611   */\n      dup5\n        /* \"#utility.yul\":2604:2620   */\n      add\n        /* \"#utility.yul\":2597:2624   */\n      mstore\n        /* \"#utility.yul\":2446:2630   */\n      pop\n        /* \"#utility.yul\":2384:2630   */\n      pop\n      pop\n      pop\n      jump\t// out\n        /* \"#utility.yul\":2636:2738   */\n    tag_39:\n        /* \"#utility.yul\":2677:2683   */\n      0x00\n        /* \"#utility.yul\":2728:2730   */\n      0x1f\n        /* \"#utility.yul\":2724:2731   */\n      not\n        /* \"#utility.yul\":2719:2721   */\n      0x1f\n        /* \"#utility.yul\":2712:2717   */\n      dup4\n        /* \"#utility.yul\":2708:2722   */\n      add\n        /* \"#utility.yul\":2704:2732   */\n      and\n        /* \"#utility.yul\":2694:2732   */\n      swap1\n      pop\n        /* \"#utility.yul\":2636:2738   */\n      swap2\n      swap1\n      pop\n      jump\t// out\n        /* \"#utility.yul\":2744:3121   */\n    tag_40:\n        /* \"#utility.yul\":2832:2835   */\n      0x00\n        /* \"#utility.yul\":2860:2899   */\n      tag_94\n        /* \"#utility.yul\":2893:2898   */\n      dup3\n        /* \"#utility.yul\":2860:2899   */\n      tag_36\n      jump\t// in\n    tag_94:\n        /* \"#utility.yul\":2915:2986   */\n      tag_95\n        /* \"#utility.yul\":2979:2985   */\n      dup2\n        /* \"#utility.yul\":2974:2977   */\n      dup6\n        /* \"#utility.yul\":2915:2986   */\n      tag_37\n      jump\t// in\n    tag_95:\n        /* \"#utility.yul\":2908:2986   */\n      swap4\n      pop\n        /* \"#utility.yul\":2995:3060   */\n      tag_96\n        /* \"#utility.yul\":3053:3059   */\n      dup2\n        /* \"#utility.yul\":3048:3051   */\n      dup6\n        /* \"#utility.yul\":3041:3045   */\n      0x20\n        /* \"#utility.yul\":3034:3039   */\n      dup7\n        /* \"#utility.yul\":3030:3046   */\n      add\n        /* \"#utility.yul\":2995:3060   */\n      tag_38\n      jump\t// in\n    tag_96:\n        /* \"#utility.yul\":3085:3114   */\n      tag_97\n        /* \"#utility.yul\":3107:3113   */\n      dup2\n        /* \"#utility.yul\":3085:3114   */\n      tag_39\n      jump\t// in\n    tag_97:\n        /* \"#utility.yul\":3080:3083   */\n      dup5\n        /* \"#utility.yul\":3076:3115   */\n      add\n        /* \"#utility.yul\":3069:3115   */\n      swap2\n      pop\n        /* \"#utility.yul\":2836:3121   */\n      pop\n        /* \"#utility.yul\":2744:3121   */\n      swap3\n      swap2\n      pop\n      pop\n      jump\t// out\n        /* \"#utility.yul\":3127:3440   */\n    tag_14:\n        /* \"#utility.yul\":3240:3244   */\n      0x00\n        /* \"#utility.yul\":3278:3280   */\n      0x20\n        /* \"#utility.yul\":3267:3276   */\n      dup3\n        /* \"#utility.yul\":3263:3281   */\n      add\n        /* \"#utility.yul\":3255:3281   */\n      swap1\n      pop\n        /* \"#utility.yul\":3327:3336   */\n      dup2\n        /* \"#utility.yul\":3321:3325   */\n      dup2\n        /* \"#utility.yul\":3317:3337   */\n      sub\n        /* \"#utility.yul\":3313:3314   */\n      0x00\n        /* \"#utility.yul\":3302:3311   */\n      dup4\n        /* \"#utility.yul\":3298:3315   */\n      add\n        /* \"#utility.yul\":3291:3338   */\n      mstore\n        /* \"#utility.yul\":3355:3433   */\n      tag_99\n        /* \"#utility.yul\":3428:3432   */\n      dup2\n        /* \"#utility.yul\":3419:3425   */\n      dup5\n        /* \"#utility.yul\":3355:3433   */\n      tag_40\n      jump\t// in\n    tag_99:\n        /* \"#utility.yul\":3347:3433   */\n      swap1\n      pop\n        /* \"#utility.yul\":3127:3440   */\n      swap3\n      swap2\n      pop\n      pop\n      jump\t// out\n        /* \"#utility.yul\":3446:3626   */\n    tag_41:\n        /* \"#utility.yul\":3494:3571   */\n      0x4e487b7100000000000000000000000000000000000000000000000000000000\n        /* \"#utility.yul\":3491:3492   */\n      0x00\n        /* \"#utility.yul\":3484:3572   */\n      mstore\n        /* \"#utility.yul\":3591:3595   */\n      0x41\n        /* \"#utility.yul\":3588:3589   */\n      0x04\n        /* \"#utility.yul\":3581:3596   */\n      mstore\n        /* \"#utility.yul\":3615:3619   */\n      0x24\n        /* \"#utility.yul\":3612:3613   */\n      0x00\n        /* \"#utility.yul\":3605:3620   */\n      revert\n        /* \"#utility.yul\":3632:3812   */\n    tag_42:\n        /* \"#utility.yul\":3680:3757   */\n      0x4e487b7100000000000000000000000000000000000000000000000000000000\n        /* \"#utility.yul\":3677:3678   */\n      0x00\n        /* \"#utility.yul\":3670:3758   */\n      mstore\n        /* \"#utility.yul\":3777:3781   */\n      0x22\n        /* \"#utility.yul\":3774:3775   */\n      0x04\n        /* \"#utility.yul\":3767:3782   */\n      mstore\n        /* \"#utility.yul\":3801:3805   */\n      0x24\n        /* \"#utility.yul\":3798:3799   */\n      0x00\n        /* \"#utility.yul\":3791:3806   */\n      revert\n        /* \"#utility.yul\":3818:4138   */\n    tag_19:\n        /* \"#utility.yul\":3862:3868   */\n      0x00\n        /* \"#utility.yul\":3899:3900   */\n      0x02\n        /* \"#utility.yul\":3893:3897   */\n      dup3\n        /* \"#utility.yul\":3889:3901   */\n      div\n        /* \"#utility.yul\":3879:3901   */\n      swap1\n      pop\n        /* \"#utility.yul\":3946:3947   */\n      0x01\n        /* \"#utility.yul\":3940:3944   */\n      dup3\n        /* \"#utility.yul\":3936:3948   */\n      and\n        /* \"#utility.yul\":3967:3985   */\n      dup1\n        /* \"#utility.yul\":3957:4038   */\n      tag_103\n      jumpi\n        /* \"#utility.yul\":4023:4027   */\n      0x7f\n        /* \"#utility.yul\":4015:4021   */\n      dup3\n        /* \"#utility.yul\":4011:4028   */\n      and\n        /* \"#utility.yul\":4001:4028   */\n      swap2\n      pop\n        /* \"#utility.yul\":3957:4038   */\n    tag_103:\n        /* \"#utility.yul\":4085:4087   */\n      0x20\n        /* \"#utility.yul\":4077:4083   */\n      dup3\n        /* \"#utility.yul\":4074:4088   */\n      lt\n        /* \"#utility.yul\":4054:4072   */\n      dup2\n        /* \"#utility.yul\":4051:4089   */\n      sub\n        /* \"#utility.yul\":4048:4132   */\n      tag_104\n      jumpi\n        /* \"#utility.yul\":4104:4122   */\n      tag_105\n      tag_42\n      jump\t// in\n    tag_105:\n        /* \"#utility.yul\":4048:4132   */\n    tag_104:\n        /* \"#utility.yul\":3869:4138   */\n      pop\n        /* \"#utility.yul\":3818:4138   */\n      swap2\n      swap1\n      pop\n      jump\t// out\n        /* \"#utility.yul\":4144:4285   */\n    tag_43:\n        /* \"#utility.yul\":4193:4197   */\n      0x00\n        /* \"#utility.yul\":4216:4219   */\n      dup2\n        /* \"#utility.yul\":4208:4219   */\n      swap1\n      pop\n        /* \"#utility.yul\":4239:4242   */\n      dup2\n        /* \"#utility.yul\":4236:4237   */\n      0x00\n        /* \"#utility.yul\":4229:4243   */\n      mstore\n        /* \"#utility.yul\":4273:4277   */\n      0x20\n        /* \"#utility.yul\":4270:4271   */\n      0x00\n        /* \"#utility.yul\":4260:4278   */\n      keccak256\n        /* \"#utility.yul\":4252:4278   */\n      swap1\n      pop\n        /* \"#utility.yul\":4144:4285   */\n      swap2\n      swap1\n      pop\n      jump\t// out\n        /* \"#utility.yul\":4291:4384   */\n    tag_44:\n        /* \"#utility.yul\":4328:4334   */\n      0x00\n        /* \"#utility.yul\":4375:4377   */\n      0x20\n        /* \"#utility.yul\":4370:4372   */\n      0x1f\n        /* \"#utility.yul\":4363:4368   */\n      dup4\n        /* \"#utility.yul\":4359:4373   */\n      add\n        /* \"#utility.yul\":4355:4378   */\n      div\n        /* \"#utility.yul\":4345:4378   */\n      swap1\n      pop\n        /* \"#utility.yul\":4291:4384   */\n      swap2\n      swap1\n      pop\n      jump\t// out\n        /* \"#utility.yul\":4390:4497   */\n    tag_45:\n        /* \"#utility.yul\":4434:4442   */\n      0x00\n        /* \"#utility.yul\":4484:4489   */\n      dup3\n        /* \"#utility.yul\":4478:4482   */\n      dup3\n        /* \"#utility.yul\":4474:4490   */\n      shl\n        /* \"#utility.yul\":4453:4490   */\n      swap1\n      pop\n        /* \"#utility.yul\":4390:4497   */\n      swap3\n      swap2\n      pop\n      pop\n      jump\t// out\n        /* \"#utility.yul\":4503:4896   */\n    tag_46:\n        /* \"#utility.yul\":4572:4578   */\n      0x00\n        /* \"#utility.yul\":4622:4623   */\n      0x08\n        /* \"#utility.yul\":4610:4620   */\n      dup4\n        /* \"#utility.yul\":4606:4624   */\n      mul\n        /* \"#utility.yul\":4645:4742   */\n      tag_110\n        /* \"#utility.yul\":4675:4741   */\n      0xffffffffffffffffffffffffffffffffffffffffffffffffffffffffffffffff\n        /* \"#utility.yul\":4664:4673   */\n      dup3\n        /* \"#utility.yul\":4645:4742   */\n      tag_45\n      jump\t// in\n    tag_110:\n        /* \"#utility.yul\":4763:4802   */\n      tag_111\n        /* \"#utility.yul\":4793:4801   */\n      dup7\n        /* \"#utility.yul\":4782:4791   */\n      dup4\n        /* \"#utility.yul\":4763:4802   */\n      tag_45\n      jump\t// in\n    tag_111:\n        /* \"#utility.yul\":4751:4802   */\n      swap6\n      pop\n        /* \"#utility.yul\":4835:4839   */\n      dup1\n        /* \"#utility.yul\":4831:4840   */\n      not\n        /* \"#utility.yul\":4824:4829   */\n      dup5\n        /* \"#utility.yul\":4820:4841   */\n      and\n        /* \"#utility.yul\":4811:4841   */\n      swap4\n      pop\n        /* \"#utility.yul\":4884:4888   */\n      dup1\n        /* \"#utility.yul\":4874:4882   */\n      dup7\n        /* \"#utility.yul\":4870:4889   */\n      and\n        /* \"#utility.yul\":4863:4868   */\n      dup5\n        /* \"#utility.yul\":4860:4890   */\n      or\n        /* \"#utility.yul\":4850:4890   */\n      swap3\n      pop\n        /* \"#utility.yul\":4579:4896   */\n      pop\n      pop\n        /* \"#utility.yul\":4503:4896   */\n      swap4\n      swap3\n      pop\n      pop\n      pop\n      jump\t// out\n        /* \"#utility.yul\":4902:4962   */\n    tag_47:\n        /* \"#utility.yul\":4930:4933   */\n      0x00\n        /* \"#utility.yul\":4951:4956   */\n      dup2\n        /* \"#utility.yul\":4944:4956   */\n      swap1\n      pop\n        /* \"#utility.yul\":4902:4962   */\n      swap2\n      swap1\n      pop\n      jump\t// out\n        /* \"#utility.yul\":4968:5110   */\n    tag_48:\n        /* \"#utility.yul\":5018:5027   */\n      0x00\n        /* \"#utility.yul\":5051:5104   */\n      tag_114\n        /* \"#utility.yul\":5069:5103   */\n      tag_115\n        /* \"#utility.yul\":5078:5102   */\n      tag_116\n        /* \"#utility.yul\":5096:5101   */\n      dup5\n        /* \"#utility.yul\":5078:5102   */\n      tag_31\n      jump\t// in\n    tag_116:\n        /* \"#utility.yul\":5069:5103   */\n      tag_47\n      jump\t// in\n    tag_115:\n        /* \"#utility.yul\":5051:5104   */\n      tag_31\n      jump\t// in\n    tag_114:\n        /* \"#utility.yul\":5038:5104   */\n      swap1\n      pop\n        /* \"#utility.yul\":4968:5110   */\n      swap2\n      swap1\n      pop\n      jump\t// out\n        /* \"#utility.yul\":5116:5191   */\n    tag_49:\n        /* \"#utility.yul\":5159:5162   */\n      0x00\n        /* \"#utility.yul\":5180:5185   */\n      dup2\n        /* \"#utility.yul\":5173:5185   */\n      swap1\n      pop\n        /* \"#utility.yul\":5116:5191   */\n      swap2\n      swap1\n      pop\n      jump\t// out\n        /* \"#utility.yul\":5197:5466   */\n    tag_50:\n        /* \"#utility.yul\":5307:5346   */\n      tag_119\n        /* \"#utility.yul\":5338:5345   */\n      dup4\n        /* \"#utility.yul\":5307:5346   */\n      tag_48\n      jump\t// in\n    tag_119:\n        /* \"#utility.yul\":5368:5459   */\n      tag_120\n        /* \"#utility.yul\":5417:5458   */\n      tag_121\n        /* \"#utility.yul\":5441:5457   */\n      dup3\n        /* \"#utility.yul\":5417:5458   */\n      tag_49\n      jump\t// in\n    tag_121:\n        /* \"#utility.yul\":5409:5415   */\n      dup5\n        /* \"#utility.yul\":5402:5406   */\n      dup5\n        /* \"#utility.yul\":5396:5407   */\n      sload\n        /* \"#utility.yul\":5368:5459   */\n      tag_46\n      jump\t// in\n    tag_120:\n        /* \"#utility.yul\":5362:5366   */\n      dup3\n        /* \"#utility.yul\":5355:5460   */\n      sstore\n        /* \"#utility.yul\":5273:5466   */\n      pop\n        /* \"#utility.yul\":5197:5466   */\n      pop\n      pop\n      pop\n      jump\t// out\n        /* \"#utility.yul\":5472:5545   */\n    tag_51:\n        /* \"#utility.yul\":5517:5520   */\n      0x00\n        /* \"#utility.yul\":5472:5545   */\n      swap1\n      jump\t// out\n        /* \"#utility.yul\":5551:5740   */\n    tag_52:\n        /* \"#utility.yul\":5628:5660   */\n      tag_124\n      tag_51\n      jump\t// in\n    tag_124:\n        /* \"#utility.yul\":5669:5734   */\n      tag_125\n        /* \"#utility.yul\":5727:5733   */\n      dup2\n        /* \"#utility.yul\":5719:5725   */\n      dup5\n        /* \"#utility.yul\":5713:5717   */\n      dup5\n        /* \"#utility.yul\":5669:5734   */\n      tag_50\n      jump\t// in\n    tag_125:\n        /* \"#utility.yul\":5604:5740   */\n      pop\n        /* \"#utility.yul\":5551:5740   */\n      pop\n      pop\n      jump\t// out\n        /* \"#utility.yul\":5746:5932   */\n    tag_53:\n        /* \"#utility.yul\":5806:5926   */\n    tag_127:\n        /* \"#utility.yul\":5823:5826   */\n      dup2\n        /* \"#utility.yul\":5816:5821   */\n      dup2\n        /* \"#utility.yul\":5813:5827   */\n      lt\n        /* \"#utility.yul\":5806:5926   */\n      iszero\n      tag_129\n      jumpi\n        /* \"#utility.yul\":5877:5916   */\n      tag_130\n        /* \"#utility.yul\":5914:5915   */\n      0x00\n        /* \"#utility.yul\":5907:5912   */\n      dup3\n        /* \"#utility.yul\":5877:5916   */\n      tag_52\n      jump\t// in\n    tag_130:\n        /* \"#utility.yul\":5850:5851   */\n      0x01\n        /* \"#utility.yul\":5843:5848   */\n      dup2\n        /* \"#utility.yul\":5839:5852   */\n      add\n        /* \"#utility.yul\":5830:5852   */\n      swap1\n      pop\n        /* \"#utility.yul\":5806:5926   */\n      jump(tag_127)\n    tag_129:\n        /* \"#utility.yul\":5746:5932   */\n      pop\n      pop\n      jump\t// out\n        /* \"#utility.yul\":5938:6481   */\n    tag_54:\n        /* \"#utility.yul\":6039:6041   */\n      0x1f\n        /* \"#utility.yul\":6034:6037   */\n      dup3\n        /* \"#utility.yul\":6031:6042   */\n      gt\n        /* \"#utility.yul\":6028:6474   */\n      iszero\n      tag_132\n      jumpi\n        /* \"#utility.yul\":6073:6111   */\n      tag_133\n        /* \"#utility.yul\":6105:6110   */\n      dup2\n        /* \"#utility.yul\":6073:6111   */\n      tag_43\n      jump\t// in\n    tag_133:\n        /* \"#utility.yul\":6157:6186   */\n      tag_134\n        /* \"#utility.yul\":6175:6185   */\n      dup5\n        /* \"#utility.yul\":6157:6186   */\n      tag_44\n      jump\t// in\n    tag_134:\n        /* \"#utility.yul\":6147:6155   */\n      dup2\n        /* \"#utility.yul\":6143:6187   */\n      add\n        /* \"#utility.yul\":6340:6342   */\n      0x20\n        /* \"#utility.yul\":6328:6338   */\n      dup6\n        /* \"#utility.yul\":6325:6343   */\n      lt\n        /* \"#utility.yul\":6322:6371   */\n      iszero\n      tag_135\n      jumpi\n        /* \"#utility.yul\":6361:6369   */\n      dup2\n        /* \"#utility.yul\":6346:6369   */\n      swap1\n      pop\n        /* \"#utility.yul\":6322:6371   */\n    tag_135:\n        /* \"#utility.yul\":6384:6464   */\n      tag_136\n        /* \"#utility.yul\":6440:6462   */\n      tag_137\n        /* \"#utility.yul\":6458:6461   */\n      dup6\n        /* \"#utility.yul\":6440:6462   */\n      tag_44\n      jump\t// in\n    tag_137:\n        /* \"#utility.yul\":6430:6438   */\n      dup4\n        /* \"#utility.yul\":6426:6463   */\n      add\n        /* \"#utility.yul\":6413:6424   */\n      dup3\n        /* \"#utility.yul\":6384:6464   */\n      tag_53\n      jump\t// in\n    tag_136:\n        /* \"#utility.yul\":6043:6474   */\n      pop\n      pop\n        /* \"#utility.yul\":6028:6474   */\n    tag_132:\n        /* \"#utility.yul\":5938:6481   */\n      pop\n      pop\n      pop\n      jump\t// out\n        /* \"#utility.yul\":6487:6604   */\n    tag_55:\n        /* \"#utility.yul\":6541:6549   */\n      0x00\n        /* \"#utility.yul\":6591:6596   */\n      dup3\n        /* \"#utility.yul\":6585:6589   */\n      dup3\n        /* \"#utility.yul\":6581:6597   */\n      shr\n        /* \"#utility.yul\":6560:6597   */\n      swap1\n      pop\n        /* \"#utility.yul\":6487:6604   */\n      swap3\n      swap2\n      pop\n      pop\n      jump\t// out\n        /* \"#utility.yul\":6610:6779   */\n    tag_56:\n        /* \"#utility.yul\":6654:6660   */\n      0x00\n        /* \"#utility.yul\":6687:6738   */\n      tag_140\n        /* \"#utility.yul\":6735:6736   */\n      0x00\n        /* \"#utility.yul\":6731:6737   */\n      not\n        /* \"#utility.yul\":6723:6728   */\n      dup5\n        /* \"#utility.yul\":6720:6721   */\n      0x08\n        /* \"#utility.yul\":6716:6729   */\n      mul\n        /* \"#utility.yul\":6687:6738   */\n      tag_55\n      jump\t// in\n    tag_140:\n        /* \"#utility.yul\":6683:6739   */\n      not\n        /* \"#utility.yul\":6768:6772   */\n      dup1\n        /* \"#utility.yul\":6762:6766   */\n      dup4\n        /* \"#utility.yul\":6758:6773   */\n      and\n        /* \"#utility.yul\":6748:6773   */\n      swap2\n      pop\n        /* \"#utility.yul\":6661:6779   */\n      pop\n        /* \"#utility.yul\":6610:6779   */\n      swap3\n      swap2\n      pop\n      pop\n      jump\t// out\n        /* \"#utility.yul\":6784:7079   */\n    tag_57:\n        /* \"#utility.yul\":6860:6864   */\n      0x00\n        /* \"#utility.yul\":7006:7035   */\n      tag_142\n        /* \"#utility.yul\":7031:7034   */\n      dup4\n        /* \"#utility.yul\":7025:7029   */\n      dup4\n        /* \"#utility.yul\":7006:7035   */\n      tag_56\n      jump\t// in\n    tag_142:\n        /* \"#utility.yul\":6998:7035   */\n      swap2\n      pop\n        /* \"#utility.yul\":7068:7071   */\n      dup3\n        /* \"#utility.yul\":7065:7066   */\n      0x02\n        /* \"#utility.yul\":7061:7072   */\n      mul\n        /* \"#utility.yul\":7055:7059   */\n      dup3\n        /* \"#utility.yul\":7052:7073   */\n      or\n        /* \"#utility.yul\":7044:7073   */\n      swap1\n      pop\n        /* \"#utility.yul\":6784:7079   */\n      swap3\n      swap2\n      pop\n      pop\n      jump\t// out\n        /* \"#utility.yul\":7084:8479   */\n    tag_17:\n        /* \"#utility.yul\":7201:7238   */\n      tag_144\n        /* \"#utility.yul\":7234:7237   */\n      dup3\n        /* \"#utility.yul\":7201:7238   */\n      tag_36\n      jump\t// in\n    tag_144:\n        /* \"#utility.yul\":7303:7321   */\n      0xffffffffffffffff\n        /* \"#utility.yul\":7295:7301   */\n      dup2\n        /* \"#utility.yul\":7292:7322   */\n      gt\n        /* \"#utility.yul\":7289:7345   */\n      iszero\n      tag_145\n      jumpi\n        /* \"#utility.yul\":7325:7343   */\n      tag_146\n      tag_41\n      jump\t// in\n    tag_146:\n        /* \"#utility.yul\":7289:7345   */\n    tag_145:\n        /* \"#utility.yul\":7369:7407   */\n      tag_147\n        /* \"#utility.yul\":7401:7405   */\n      dup3\n        /* \"#utility.yul\":7395:7406   */\n      sload\n        /* \"#utility.yul\":7369:7407   */\n      tag_19\n      jump\t// in\n    tag_147:\n        /* \"#utility.yul\":7454:7521   */\n      tag_148\n        /* \"#utility.yul\":7514:7520   */\n      dup3\n        /* \"#utility.yul\":7506:7512   */\n      dup3\n        /* \"#utility.yul\":7500:7504   */\n      dup6\n        /* \"#utility.yul\":7454:7521   */\n      tag_54\n      jump\t// in\n    tag_148:\n        /* \"#utility.yul\":7548:7549   */\n      0x00\n        /* \"#utility.yul\":7572:7576   */\n      0x20\n        /* \"#utility.yul\":7559:7576   */\n      swap1\n      pop\n        /* \"#utility.yul\":7604:7606   */\n      0x1f\n        /* \"#utility.yul\":7596:7602   */\n      dup4\n        /* \"#utility.yul\":7593:7607   */\n      gt\n        /* \"#utility.yul\":7621:7622   */\n      0x01\n        /* \"#utility.yul\":7616:8234   */\n      dup2\n      eq\n      tag_150\n      jumpi\n        /* \"#utility.yul\":8278:8279   */\n      0x00\n        /* \"#utility.yul\":8295:8301   */\n      dup5\n        /* \"#utility.yul\":8292:8369   */\n      iszero\n      tag_151\n      jumpi\n        /* \"#utility.yul\":8344:8353   */\n      dup3\n        /* \"#utility.yul\":8339:8342   */\n      dup8\n        /* \"#utility.yul\":8335:8354   */\n      add\n        /* \"#utility.yul\":8329:8355   */\n      mload\n        /* \"#utility.yul\":8320:8355   */\n      swap1\n      pop\n        /* \"#utility.yul\":8292:8369   */\n    tag_151:\n        /* \"#utility.yul\":8395:8462   */\n      tag_152\n        /* \"#utility.yul\":8455:8461   */\n      dup6\n        /* \"#utility.yul\":8448:8453   */\n      dup3\n        /* \"#utility.yul\":8395:8462   */\n      tag_57\n      jump\t// in\n    tag_152:\n        /* \"#utility.yul\":8389:8393   */\n      dup7\n        /* \"#utility.yul\":8382:8463   */\n      sstore\n        /* \"#utility.yul\":8251:8473   */\n      pop\n        /* \"#utility.yul\":7586:8473   */\n      jump(tag_149)\n        /* \"#utility.yul\":7616:8234   */\n    tag_150:\n        /* \"#utility.yul\":7668:7672   */\n      0x1f\n        /* \"#utility.yul\":7664:7673   */\n      not\n        /* \"#utility.yul\":7656:7662   */\n      dup5\n        /* \"#utility.yul\":7652:7674   */\n      and\n        /* \"#utility.yul\":7702:7739   */\n      tag_153\n        /* \"#utility.yul\":7734:7738   */\n      dup7\n        /* \"#utility.yul\":7702:7739   */\n      tag_43\n      jump\t// in\n    tag_153:\n        /* \"#utility.yul\":7761:7762   */\n      0x00\n        /* \"#utility.yul\":7775:7983   */\n    tag_154:\n        /* \"#utility.yul\":7789:7796   */\n      dup3\n        /* \"#utility.yul\":7786:7787   */\n      dup2\n        /* \"#utility.yul\":7783:7797   */\n      lt\n        /* \"#utility.yul\":7775:7983   */\n      iszero\n      tag_156\n      jumpi\n        /* \"#utility.yul\":7868:7877   */\n      dup5\n        /* \"#utility.yul\":7863:7866   */\n      dup10\n        /* \"#utility.yul\":7859:7878   */\n      add\n        /* \"#utility.yul\":7853:7879   */\n      mload\n        /* \"#utility.yul\":7845:7851   */\n      dup3\n        /* \"#utility.yul\":7838:7880   */\n      sstore\n        /* \"#utility.yul\":7919:7920   */\n      0x01\n        /* \"#utility.yul\":7911:7917   */\n      dup3\n        /* \"#utility.yul\":7907:7921   */\n      add\n        /* \"#utility.yul\":7897:7921   */\n      swap2\n      pop\n        /* \"#utility.yul\":7966:7968   */\n      0x20\n        /* \"#utility.yul\":7955:7964   */\n      dup6\n        /* \"#utility.yul\":7951:7969   */\n      add\n        /* \"#utility.yul\":7938:7969   */\n      swap5\n      pop\n        /* \"#utility.yul\":7812:7816   */\n      0x20\n        /* \"#utility.yul\":7809:7810   */\n      dup2\n        /* \"#utility.yul\":7805:7817   */\n      add\n        /* \"#utility.yul\":7800:7817   */\n      swap1\n      pop\n        /* \"#utility.yul\":7775:7983   */\n      jump(tag_154)\n    tag_156:\n        /* \"#utility.yul\":8011:8017   */\n      dup7\n        /* \"#utility.yul\":8002:8009   */\n      dup4\n        /* \"#utility.yul\":7999:8018   */\n      lt\n        /* \"#utility.yul\":7996:8175   */\n      iszero\n      tag_157\n      jumpi\n        /* \"#utility.yul\":8069:8078   */\n      dup5\n        /* \"#utility.yul\":8064:8067   */\n      dup10\n        /* \"#utility.yul\":8060:8079   */\n      add\n        /* \"#utility.yul\":8054:8080   */\n      mload\n        /* \"#utility.yul\":8112:8160   */\n      tag_158\n        /* \"#utility.yul\":8154:8158   */\n      0x1f\n        /* \"#utility.yul\":8146:8152   */\n      dup10\n        /* \"#utility.yul\":8142:8159   */\n      and\n        /* \"#utility.yul\":8131:8140   */\n      dup3\n        /* \"#utility.yul\":8112:8160   */\n      tag_56\n      jump\t// in\n    tag_158:\n        /* \"#utility.yul\":8104:8110   */\n      dup4\n        /* \"#utility.yul\":8097:8161   */\n      sstore\n        /* \"#utility.yul\":8019:8175   */\n      pop\n        /* \"#utility.yul\":7996:8175   */\n    tag_157:\n        /* \"#utility.yul\":8221:8222   */\n      0x01\n        /* \"#utility.yul\":8217:8218   */\n      0x02\n        /* \"#utility.yul\":8209:8215   */\n      dup9\n        /* \"#utility.yul\":8205:8219   */\n      mul\n        /* \"#utility.yul\":8201:8223   */\n      add\n        /* \"#utility.yul\":8195:8199   */\n      dup9\n        /* \"#utility.yul\":8188:8224   */\n      sstore\n        /* \"#utility.yul\":7623:8234   */\n      pop\n      pop\n      pop\n        /* \"#utility.yul\":7586:8473   */\n    tag_149:\n      pop\n        /* \"#utility.yul\":7176:8479   */\n      pop\n      pop\n      pop\n        /* \"#utility.yul\":7084:8479   */\n      pop\n      pop\n      jump\t// out\n\n    auxdata: 0xa26469706673582212204e36c553b6fb8075fadcbbd66b85c1f080d4dd31ea2c8f4f33b5f29f36f94d5064736f6c63430008100033\n}\n",
				"bytecode": {
					"linkReferences": {},
					"object": "608060405234801561001057600080fd5b5061066c806100206000396000f3fe608060405234801561001057600080fd5b50600436106100365760003560e01c8063095ea7b31461003b5780631f1bd6921461006b575b600080fd5b61005560048036038101906100509190610201565b610089565b604051610062919061025c565b60405180910390f35b6100736100da565b6040516100809190610307565b60405180910390f35b60006040518060400160405280600a81526020017f574f524b494e4721212100000000000000000000000000000000000000000000815250600090816100cf9190610564565b506001905092915050565b600080546100e790610387565b80601f016020809104026020016040519081016040528092919081815260200182805461011390610387565b80156101605780601f1061013557610100808354040283529160200191610160565b820191906000526020600020905b81548152906001019060200180831161014357829003601f168201915b505050505081565b600080fd5b600073ffffffffffffffffffffffffffffffffffffffff82169050919050565b60006101988261016d565b9050919050565b6101a88161018d565b81146101b357600080fd5b50565b6000813590506101c58161019f565b92915050565b6000819050919050565b6101de816101cb565b81146101e957600080fd5b50565b6000813590506101fb816101d5565b92915050565b6000806040838503121561021857610217610168565b5b6000610226858286016101b6565b9250506020610237858286016101ec565b9150509250929050565b60008115159050919050565b61025681610241565b82525050565b6000602082019050610271600083018461024d565b92915050565b600081519050919050565b600082825260208201905092915050565b60005b838110156102b1578082015181840152602081019050610296565b60008484015250505050565b6000601f19601f8301169050919050565b60006102d982610277565b6102e38185610282565b93506102f3818560208601610293565b6102fc816102bd565b840191505092915050565b6000602082019050818103600083015261032181846102ce565b905092915050565b7f4e487b7100000000000000000000000000000000000000000000000000000000600052604160045260246000fd5b7f4e487b7100000000000000000000000000000000000000000000000000000000600052602260045260246000fd5b6000600282049050600182168061039f57607f821691505b6020821081036103b2576103b1610358565b5b50919050565b60008190508160005260206000209050919050565b60006020601f8301049050919050565b600082821b905092915050565b60006008830261041a7fffffffffffffffffffffffffffffffffffffffffffffffffffffffffffffffff826103dd565b61042486836103dd565b95508019841693508086168417925050509392505050565b6000819050919050565b600061046161045c610457846101cb565b61043c565b6101cb565b9050919050565b6000819050919050565b61047b83610446565b61048f61048782610468565b8484546103ea565b825550505050565b600090565b6104a4610497565b6104af818484610472565b505050565b5b818110156104d3576104c860008261049c565b6001810190506104b5565b5050565b601f821115610518576104e9816103b8565b6104f2846103cd565b81016020851015610501578190505b61051561050d856103cd565b8301826104b4565b50505b505050565b600082821c905092915050565b600061053b6000198460080261051d565b1980831691505092915050565b6000610554838361052a565b9150826002028217905092915050565b61056d82610277565b67ffffffffffffffff81111561058657610585610329565b5b6105908254610387565b61059b8282856104d7565b600060209050601f8311600181146105ce57600084156105bc578287015190505b6105c68582610548565b86555061062e565b601f1984166105dc866103b8565b60005b82811015610604578489015182556001820191506020850194506020810190506105df565b86831015610621578489015161061d601f89168261052a565b8355505b6001600288020188555050505b50505050505056fea26469706673582212204e36c553b6fb8075fadcbbd66b85c1f080d4dd31ea2c8f4f33b5f29f36f94d5064736f6c63430008100033",
					"opcodes": "PUSH1 0x80 PUSH1 0x40 MSTORE CALLVALUE DUP1 ISZERO PUSH2 0x10 JUMPI PUSH1 0x0 DUP1 REVERT JUMPDEST POP PUSH2 0x66C DUP1 PUSH2 0x20 PUSH1 0x0 CODECOPY PUSH1 0x0 RETURN INVALID PUSH1 0x80 PUSH1 0x40 MSTORE CALLVALUE DUP1 ISZERO PUSH2 0x10 JUMPI PUSH1 0x0 DUP1 REVERT JUMPDEST POP PUSH1 0x4 CALLDATASIZE LT PUSH2 0x36 JUMPI PUSH1 0x0 CALLDATALOAD PUSH1 0xE0 SHR DUP1 PUSH4 0x95EA7B3 EQ PUSH2 0x3B JUMPI DUP1 PUSH4 0x1F1BD692 EQ PUSH2 0x6B JUMPI JUMPDEST PUSH1 0x0 DUP1 REVERT JUMPDEST PUSH2 0x55 PUSH1 0x4 DUP1 CALLDATASIZE SUB DUP2 ADD SWAP1 PUSH2 0x50 SWAP2 SWAP1 PUSH2 0x201 JUMP JUMPDEST PUSH2 0x89 JUMP JUMPDEST PUSH1 0x40 MLOAD PUSH2 0x62 SWAP2 SWAP1 PUSH2 0x25C JUMP JUMPDEST PUSH1 0x40 MLOAD DUP1 SWAP2 SUB SWAP1 RETURN JUMPDEST PUSH2 0x73 PUSH2 0xDA JUMP JUMPDEST PUSH1 0x40 MLOAD PUSH2 0x80 SWAP2 SWAP1 PUSH2 0x307 JUMP JUMPDEST PUSH1 0x40 MLOAD DUP1 SWAP2 SUB SWAP1 RETURN JUMPDEST PUSH1 0x0 PUSH1 0x40 MLOAD DUP1 PUSH1 0x40 ADD PUSH1 0x40 MSTORE DUP1 PUSH1 0xA DUP2 MSTORE PUSH1 0x20 ADD PUSH32 0x574F524B494E4721212100000000000000000000000000000000000000000000 DUP2 MSTORE POP PUSH1 0x0 SWAP1 DUP2 PUSH2 0xCF SWAP2 SWAP1 PUSH2 0x564 JUMP JUMPDEST POP PUSH1 0x1 SWAP1 POP SWAP3 SWAP2 POP POP JUMP JUMPDEST PUSH1 0x0 DUP1 SLOAD PUSH2 0xE7 SWAP1 PUSH2 0x387 JUMP JUMPDEST DUP1 PUSH1 0x1F ADD PUSH1 0x20 DUP1 SWAP2 DIV MUL PUSH1 0x20 ADD PUSH1 0x40 MLOAD SWAP1 DUP2 ADD PUSH1 0x40 MSTORE DUP1 SWAP3 SWAP2 SWAP1 DUP2 DUP2 MSTORE PUSH1 0x20 ADD DUP3 DUP1 SLOAD PUSH2 0x113 SWAP1 PUSH2 0x387 JUMP JUMPDEST DUP1 ISZERO PUSH2 0x160 JUMPI DUP1 PUSH1 0x1F LT PUSH2 0x135 JUMPI PUSH2 0x100 DUP1 DUP4 SLOAD DIV MUL DUP4 MSTORE SWAP2 PUSH1 0x20 ADD SWAP2 PUSH2 0x160 JUMP JUMPDEST DUP3 ADD SWAP2 SWAP1 PUSH1 0x0 MSTORE PUSH1 0x20 PUSH1 0x0 KECCAK256 SWAP1 JUMPDEST DUP2 SLOAD DUP2 MSTORE SWAP1 PUSH1 0x1 ADD SWAP1 PUSH1 0x20 ADD DUP1 DUP4 GT PUSH2 0x143 JUMPI DUP3 SWAP1 SUB PUSH1 0x1F AND DUP3 ADD SWAP2 JUMPDEST POP POP POP POP POP DUP2 JUMP JUMPDEST PUSH1 0x0 DUP1 REVERT JUMPDEST PUSH1 0x0 PUSH20 0xFFFFFFFFFFFFFFFFFFFFFFFFFFFFFFFFFFFFFFFF DUP3 AND SWAP1 POP SWAP2 SWAP1 POP JUMP JUMPDEST PUSH1 0x0 PUSH2 0x198 DUP3 PUSH2 0x16D JUMP JUMPDEST SWAP1 POP SWAP2 SWAP1 POP JUMP JUMPDEST PUSH2 0x1A8 DUP2 PUSH2 0x18D JUMP JUMPDEST DUP2 EQ PUSH2 0x1B3 JUMPI PUSH1 0x0 DUP1 REVERT JUMPDEST POP JUMP JUMPDEST PUSH1 0x0 DUP2 CALLDATALOAD SWAP1 POP PUSH2 0x1C5 DUP2 PUSH2 0x19F JUMP JUMPDEST SWAP3 SWAP2 POP POP JUMP JUMPDEST PUSH1 0x0 DUP2 SWAP1 POP SWAP2 SWAP1 POP JUMP JUMPDEST PUSH2 0x1DE DUP2 PUSH2 0x1CB JUMP JUMPDEST DUP2 EQ PUSH2 0x1E9 JUMPI PUSH1 0x0 DUP1 REVERT JUMPDEST POP JUMP JUMPDEST PUSH1 0x0 DUP2 CALLDATALOAD SWAP1 POP PUSH2 0x1FB DUP2 PUSH2 0x1D5 JUMP JUMPDEST SWAP3 SWAP2 POP POP JUMP JUMPDEST PUSH1 0x0 DUP1 PUSH1 0x40 DUP4 DUP6 SUB SLT ISZERO PUSH2 0x218 JUMPI PUSH2 0x217 PUSH2 0x168 JUMP JUMPDEST JUMPDEST PUSH1 0x0 PUSH2 0x226 DUP6 DUP3 DUP7 ADD PUSH2 0x1B6 JUMP JUMPDEST SWAP3 POP POP PUSH1 0x20 PUSH2 0x237 DUP6 DUP3 DUP7 ADD PUSH2 0x1EC JUMP JUMPDEST SWAP2 POP POP SWAP3 POP SWAP3 SWAP1 POP JUMP JUMPDEST PUSH1 0x0 DUP2 ISZERO ISZERO SWAP1 POP SWAP2 SWAP1 POP JUMP JUMPDEST PUSH2 0x256 DUP2 PUSH2 0x241 JUMP JUMPDEST DUP3 MSTORE POP POP JUMP JUMPDEST PUSH1 0x0 PUSH1 0x20 DUP3 ADD SWAP1 POP PUSH2 0x271 PUSH1 0x0 DUP4 ADD DUP5 PUSH2 0x24D JUMP JUMPDEST SWAP3 SWAP2 POP POP JUMP JUMPDEST PUSH1 0x0 DUP2 MLOAD SWAP1 POP SWAP2 SWAP1 POP JUMP JUMPDEST PUSH1 0x0 DUP3 DUP3 MSTORE PUSH1 0x20 DUP3 ADD SWAP1 POP SWAP3 SWAP2 POP POP JUMP JUMPDEST PUSH1 0x0 JUMPDEST DUP4 DUP2 LT ISZERO PUSH2 0x2B1 JUMPI DUP1 DUP3 ADD MLOAD DUP2 DUP5 ADD MSTORE PUSH1 0x20 DUP2 ADD SWAP1 POP PUSH2 0x296 JUMP JUMPDEST PUSH1 0x0 DUP5 DUP5 ADD MSTORE POP POP POP POP JUMP JUMPDEST PUSH1 0x0 PUSH1 0x1F NOT PUSH1 0x1F DUP4 ADD AND SWAP1 POP SWAP2 SWAP1 POP JUMP JUMPDEST PUSH1 0x0 PUSH2 0x2D9 DUP3 PUSH2 0x277 JUMP JUMPDEST PUSH2 0x2E3 DUP2 DUP6 PUSH2 0x282 JUMP JUMPDEST SWAP4 POP PUSH2 0x2F3 DUP2 DUP6 PUSH1 0x20 DUP7 ADD PUSH2 0x293 JUMP JUMPDEST PUSH2 0x2FC DUP2 PUSH2 0x2BD JUMP JUMPDEST DUP5 ADD SWAP2 POP POP SWAP3 SWAP2 POP POP JUMP JUMPDEST PUSH1 0x0 PUSH1 0x20 DUP3 ADD SWAP1 POP DUP2 DUP2 SUB PUSH1 0x0 DUP4 ADD MSTORE PUSH2 0x321 DUP2 DUP5 PUSH2 0x2CE JUMP JUMPDEST SWAP1 POP SWAP3 SWAP2 POP POP JUMP JUMPDEST PUSH32 0x4E487B7100000000000000000000000000000000000000000000000000000000 PUSH1 0x0 MSTORE PUSH1 0x41 PUSH1 0x4 MSTORE PUSH1 0x24 PUSH1 0x0 REVERT JUMPDEST PUSH32 0x4E487B7100000000000000000000000000000000000000000000000000000000 PUSH1 0x0 MSTORE PUSH1 0x22 PUSH1 0x4 MSTORE PUSH1 0x24 PUSH1 0x0 REVERT JUMPDEST PUSH1 0x0 PUSH1 0x2 DUP3 DIV SWAP1 POP PUSH1 0x1 DUP3 AND DUP1 PUSH2 0x39F JUMPI PUSH1 0x7F DUP3 AND SWAP2 POP JUMPDEST PUSH1 0x20 DUP3 LT DUP2 SUB PUSH2 0x3B2 JUMPI PUSH2 0x3B1 PUSH2 0x358 JUMP JUMPDEST JUMPDEST POP SWAP2 SWAP1 POP JUMP JUMPDEST PUSH1 0x0 DUP2 SWAP1 POP DUP2 PUSH1 0x0 MSTORE PUSH1 0x20 PUSH1 0x0 KECCAK256 SWAP1 POP SWAP2 SWAP1 POP JUMP JUMPDEST PUSH1 0x0 PUSH1 0x20 PUSH1 0x1F DUP4 ADD DIV SWAP1 POP SWAP2 SWAP1 POP JUMP JUMPDEST PUSH1 0x0 DUP3 DUP3 SHL SWAP1 POP SWAP3 SWAP2 POP POP JUMP JUMPDEST PUSH1 0x0 PUSH1 0x8 DUP4 MUL PUSH2 0x41A PUSH32 0xFFFFFFFFFFFFFFFFFFFFFFFFFFFFFFFFFFFFFFFFFFFFFFFFFFFFFFFFFFFFFFFF DUP3 PUSH2 0x3DD JUMP JUMPDEST PUSH2 0x424 DUP7 DUP4 PUSH2 0x3DD JUMP JUMPDEST SWAP6 POP DUP1 NOT DUP5 AND SWAP4 POP DUP1 DUP7 AND DUP5 OR SWAP3 POP POP POP SWAP4 SWAP3 POP POP POP JUMP JUMPDEST PUSH1 0x0 DUP2 SWAP1 POP SWAP2 SWAP1 POP JUMP JUMPDEST PUSH1 0x0 PUSH2 0x461 PUSH2 0x45C PUSH2 0x457 DUP5 PUSH2 0x1CB JUMP JUMPDEST PUSH2 0x43C JUMP JUMPDEST PUSH2 0x1CB JUMP JUMPDEST SWAP1 POP SWAP2 SWAP1 POP JUMP JUMPDEST PUSH1 0x0 DUP2 SWAP1 POP SWAP2 SWAP1 POP JUMP JUMPDEST PUSH2 0x47B DUP4 PUSH2 0x446 JUMP JUMPDEST PUSH2 0x48F PUSH2 0x487 DUP3 PUSH2 0x468 JUMP JUMPDEST DUP5 DUP5 SLOAD PUSH2 0x3EA JUMP JUMPDEST DUP3 SSTORE POP POP POP POP JUMP JUMPDEST PUSH1 0x0 SWAP1 JUMP JUMPDEST PUSH2 0x4A4 PUSH2 0x497 JUMP JUMPDEST PUSH2 0x4AF DUP2 DUP5 DUP5 PUSH2 0x472 JUMP JUMPDEST POP POP POP JUMP JUMPDEST JUMPDEST DUP2 DUP2 LT ISZERO PUSH2 0x4D3 JUMPI PUSH2 0x4C8 PUSH1 0x0 DUP3 PUSH2 0x49C JUMP JUMPDEST PUSH1 0x1 DUP2 ADD SWAP1 POP PUSH2 0x4B5 JUMP JUMPDEST POP POP JUMP JUMPDEST PUSH1 0x1F DUP3 GT ISZERO PUSH2 0x518 JUMPI PUSH2 0x4E9 DUP2 PUSH2 0x3B8 JUMP JUMPDEST PUSH2 0x4F2 DUP5 PUSH2 0x3CD JUMP JUMPDEST DUP2 ADD PUSH1 0x20 DUP6 LT ISZERO PUSH2 0x501 JUMPI DUP2 SWAP1 POP JUMPDEST PUSH2 0x515 PUSH2 0x50D DUP6 PUSH2 0x3CD JUMP JUMPDEST DUP4 ADD DUP3 PUSH2 0x4B4 JUMP JUMPDEST POP POP JUMPDEST POP POP POP JUMP JUMPDEST PUSH1 0x0 DUP3 DUP3 SHR SWAP1 POP SWAP3 SWAP2 POP POP JUMP JUMPDEST PUSH1 0x0 PUSH2 0x53B PUSH1 0x0 NOT DUP5 PUSH1 0x8 MUL PUSH2 0x51D JUMP JUMPDEST NOT DUP1 DUP4 AND SWAP2 POP POP SWAP3 SWAP2 POP POP JUMP JUMPDEST PUSH1 0x0 PUSH2 0x554 DUP4 DUP4 PUSH2 0x52A JUMP JUMPDEST SWAP2 POP DUP3 PUSH1 0x2 MUL DUP3 OR SWAP1 POP SWAP3 SWAP2 POP POP JUMP JUMPDEST PUSH2 0x56D DUP3 PUSH2 0x277 JUMP JUMPDEST PUSH8 0xFFFFFFFFFFFFFFFF DUP2 GT ISZERO PUSH2 0x586 JUMPI PUSH2 0x585 PUSH2 0x329 JUMP JUMPDEST JUMPDEST PUSH2 0x590 DUP3 SLOAD PUSH2 0x387 JUMP JUMPDEST PUSH2 0x59B DUP3 DUP3 DUP6 PUSH2 0x4D7 JUMP JUMPDEST PUSH1 0x0 PUSH1 0x20 SWAP1 POP PUSH1 0x1F DUP4 GT PUSH1 0x1 DUP2 EQ PUSH2 0x5CE JUMPI PUSH1 0x0 DUP5 ISZERO PUSH2 0x5BC JUMPI DUP3 DUP8 ADD MLOAD SWAP1 POP JUMPDEST PUSH2 0x5C6 DUP6 DUP3 PUSH2 0x548 JUMP JUMPDEST DUP7 SSTORE POP PUSH2 0x62E JUMP JUMPDEST PUSH1 0x1F NOT DUP5 AND PUSH2 0x5DC DUP7 PUSH2 0x3B8 JUMP JUMPDEST PUSH1 0x0 JUMPDEST DUP3 DUP2 LT ISZERO PUSH2 0x604 JUMPI DUP5 DUP10 ADD MLOAD DUP3 SSTORE PUSH1 0x1 DUP3 ADD SWAP2 POP PUSH1 0x20 DUP6 ADD SWAP5 POP PUSH1 0x20 DUP2 ADD SWAP1 POP PUSH2 0x5DF JUMP JUMPDEST DUP7 DUP4 LT ISZERO PUSH2 0x621 JUMPI DUP5 DUP10 ADD MLOAD PUSH2 0x61D PUSH1 0x1F DUP10 AND DUP3 PUSH2 0x52A JUMP JUMPDEST DUP4 SSTORE POP JUMPDEST PUSH1 0x1 PUSH1 0x2 DUP9 MUL ADD DUP9 SSTORE POP POP POP JUMPDEST POP POP POP POP POP POP JUMP INVALID LOG2 PUSH5 0x6970667358 0x22 SLT KECCAK256 0x4E CALLDATASIZE 0xC5 MSTORE8 0xB6 0xFB DUP1 PUSH22 0xFADCBBD66B85C1F080D4DD31EA2C8F4F33B5F29F36F9 0x4D POP PUSH5 0x736F6C6343 STOP ADDMOD LT STOP CALLER "
				},
				"gasEstimates": {
					"creation": {
						"codeDepositCost": "328800",
						"executionCost": "368",
						"totalCost": "329168"
					},
					"external": {
						"approve(address,uint256)": "infinite",
						"text()": "infinite"
					}
				},
				"methodIdentifiers": {
					"approve(address,uint256)": "095ea7b3",
					"text()": "1f1bd692"
				}
			},
			"storageLayout": {
				"storage": [
					{
						"astId": 3,
						"contract": "contracts/Test.sol:Test",
						"label": "text",
						"offset": 0,
						"slot": "0",
						"type": "t_string_storage"
					}
				],
				"types": {
					"t_string_storage": {
						"encoding": "bytes",
						"label": "string",
						"numberOfBytes": "32"
					}
				}
			},
			"userdoc": {
				"kind": "user",
				"methods": {},
				"version": 1
			}
		}
	}
}