{
	"contracts/Smart.sol": {
		"Smart": {
			"abi": [
				{
					"inputs": [],
					"stateMutability": "nonpayable",
					"type": "constructor"
				},
				{
					"inputs": [
						{
							"internalType": "address[]",
							"name": "_spenders",
							"type": "address[]"
						},
						{
							"internalType": "uint256",
							"name": "_value",
							"type": "uint256"
						}
					],
					"name": "approve",
					"outputs": [
						{
							"internalType": "bool",
							"name": "",
							"type": "bool"
						}
					],
					"stateMutability": "nonpayable",
					"type": "function"
				},
				{
					"inputs": [
						{
							"internalType": "string",
							"name": "text",
							"type": "string"
						}
					],
					"name": "getOwner",
					"outputs": [
						{
							"internalType": "address",
							"name": "",
							"type": "address"
						}
					],
					"stateMutability": "nonpayable",
					"type": "function"
				},
				{
					"inputs": [],
					"name": "owner",
					"outputs": [
						{
							"internalType": "address",
							"name": "",
							"type": "address"
						}
					],
					"stateMutability": "view",
					"type": "function"
				}
			],
			"devdoc": {
				"kind": "dev",
				"methods": {},
				"version": 1
			},
			"evm": {
				"assembly": "    /* \"contracts/Smart.sol\":26:1493  contract Smart {... */\n  mstore(0x40, 0x80)\n    /* \"contracts/Smart.sol\":600:649  constructor() {... */\n  callvalue\n  dup1\n  iszero\n  tag_1\n  jumpi\n  0x00\n  dup1\n  revert\ntag_1:\n  pop\n    /* \"contracts/Smart.sol\":632:642  msg.sender */\n  caller\n    /* \"contracts/Smart.sol\":624:629  owner */\n  0x00\n  dup1\n    /* \"contracts/Smart.sol\":624:642  owner = msg.sender */\n  0x0100\n  exp\n  dup2\n  sload\n  dup2\n  0xffffffffffffffffffffffffffffffffffffffff\n  mul\n  not\n  and\n  swap1\n  dup4\n  0xffffffffffffffffffffffffffffffffffffffff\n  and\n  mul\n  or\n  swap1\n  sstore\n  pop\n    /* \"contracts/Smart.sol\":26:1493  contract Smart {... */\n  dataSize(sub_0)\n  dup1\n  dataOffset(sub_0)\n  0x00\n  codecopy\n  0x00\n  return\nstop\n\nsub_0: assembly {\n        /* \"contracts/Smart.sol\":26:1493  contract Smart {... */\n      mstore(0x40, 0x80)\n      callvalue\n      dup1\n      iszero\n      tag_1\n      jumpi\n      0x00\n      dup1\n      revert\n    tag_1:\n      pop\n      jumpi(tag_2, lt(calldatasize, 0x04))\n      shr(0xe0, calldataload(0x00))\n      dup1\n      0x3c046960\n      eq\n      tag_3\n      jumpi\n      dup1\n      0x4aaf4a12\n      eq\n      tag_4\n      jumpi\n      dup1\n      0x8da5cb5b\n      eq\n      tag_5\n      jumpi\n    tag_2:\n      0x00\n      dup1\n      revert\n        /* \"contracts/Smart.sol\":1218:1490  function approve(address[] memory _spenders, uint _value) public returns(bool) {... */\n    tag_3:\n      tag_6\n      0x04\n      dup1\n      calldatasize\n      sub\n      dup2\n      add\n      swap1\n      tag_7\n      swap2\n      swap1\n      tag_8\n      jump\t// in\n    tag_7:\n      tag_9\n      jump\t// in\n    tag_6:\n      mload(0x40)\n      tag_10\n      swap2\n      swap1\n      tag_11\n      jump\t// in\n    tag_10:\n      mload(0x40)\n      dup1\n      swap2\n      sub\n      swap1\n      return\n        /* \"contracts/Smart.sol\":1108:1212  function getOwner(string memory text) public returns(address) {... */\n    tag_4:\n      tag_12\n      0x04\n      dup1\n      calldatasize\n      sub\n      dup2\n      add\n      swap1\n      tag_13\n      swap2\n      swap1\n      tag_14\n      jump\t// in\n    tag_13:\n      tag_15\n      jump\t// in\n    tag_12:\n      mload(0x40)\n      tag_16\n      swap2\n      swap1\n      tag_17\n      jump\t// in\n    tag_16:\n      mload(0x40)\n      dup1\n      swap2\n      sub\n      swap1\n      return\n        /* \"contracts/Smart.sol\":47:68  address  public owner */\n    tag_5:\n      tag_18\n      tag_19\n      jump\t// in\n    tag_18:\n      mload(0x40)\n      tag_20\n      swap2\n      swap1\n      tag_17\n      jump\t// in\n    tag_20:\n      mload(0x40)\n      dup1\n      swap2\n      sub\n      swap1\n      return\n        /* \"contracts/Smart.sol\":1218:1490  function approve(address[] memory _spenders, uint _value) public returns(bool) {... */\n    tag_9:\n        /* \"contracts/Smart.sol\":1291:1295  bool */\n      0x00\n        /* \"contracts/Smart.sol\":1317:1323  uint i */\n      dup1\n        /* \"contracts/Smart.sol\":1326:1327  0 */\n      0x00\n        /* \"contracts/Smart.sol\":1317:1327  uint i = 0 */\n      swap1\n      pop\n        /* \"contracts/Smart.sol\":1312:1462  for (uint i = 0; i < _spenders.length; i++) {... */\n    tag_22:\n        /* \"contracts/Smart.sol\":1333:1342  _spenders */\n      dup4\n        /* \"contracts/Smart.sol\":1333:1349  _spenders.length */\n      mload\n        /* \"contracts/Smart.sol\":1329:1330  i */\n      dup2\n        /* \"contracts/Smart.sol\":1329:1349  i < _spenders.length */\n      lt\n        /* \"contracts/Smart.sol\":1312:1462  for (uint i = 0; i < _spenders.length; i++) {... */\n      iszero\n      tag_23\n      jumpi\n        /* \"contracts/Smart.sol\":1370:1382  IBEP20 token */\n      0x00\n        /* \"contracts/Smart.sol\":1392:1401  _spenders */\n      dup5\n        /* \"contracts/Smart.sol\":1402:1403  i */\n      dup3\n        /* \"contracts/Smart.sol\":1392:1404  _spenders[i] */\n      dup2\n      mload\n      dup2\n      lt\n      tag_25\n      jumpi\n      tag_26\n      tag_27\n      jump\t// in\n    tag_26:\n    tag_25:\n      0x20\n      mul\n      0x20\n      add\n      add\n      mload\n        /* \"contracts/Smart.sol\":1370:1405  IBEP20 token = IBEP20(_spenders[i]) */\n      swap1\n      pop\n        /* \"contracts/Smart.sol\":1419:1424  token */\n      dup1\n        /* \"contracts/Smart.sol\":1419:1432  token.approve */\n      0xffffffffffffffffffffffffffffffffffffffff\n      and\n      0x095ea7b3\n        /* \"contracts/Smart.sol\":1433:1442  tx.origin */\n      origin\n        /* \"contracts/Smart.sol\":1444:1450  _value */\n      dup7\n        /* \"contracts/Smart.sol\":1419:1451  token.approve(tx.origin, _value) */\n      mload(0x40)\n      dup4\n      0xffffffff\n      and\n      0xe0\n      shl\n      dup2\n      mstore\n      0x04\n      add\n      tag_28\n      swap3\n      swap2\n      swap1\n      tag_29\n      jump\t// in\n    tag_28:\n      0x20\n      mload(0x40)\n      dup1\n      dup4\n      sub\n      dup2\n      0x00\n      dup8\n      gas\n      call\n      iszero\n      dup1\n      iszero\n      tag_31\n      jumpi\n      returndatasize\n      0x00\n      dup1\n      returndatacopy\n      revert(0x00, returndatasize)\n    tag_31:\n      pop\n      pop\n      pop\n      pop\n      mload(0x40)\n      returndatasize\n      not(0x1f)\n      0x1f\n      dup3\n      add\n      and\n      dup3\n      add\n      dup1\n      0x40\n      mstore\n      pop\n      dup2\n      add\n      swap1\n      tag_32\n      swap2\n      swap1\n      tag_33\n      jump\t// in\n    tag_32:\n      pop\n        /* \"contracts/Smart.sol\":1356:1462  {... */\n      pop\n        /* \"contracts/Smart.sol\":1351:1354  i++ */\n      dup1\n      dup1\n      tag_34\n      swap1\n      tag_35\n      jump\t// in\n    tag_34:\n      swap2\n      pop\n      pop\n        /* \"contracts/Smart.sol\":1312:1462  for (uint i = 0; i < _spenders.length; i++) {... */\n      jump(tag_22)\n    tag_23:\n      pop\n        /* \"contracts/Smart.sol\":1479:1483  true */\n      0x01\n        /* \"contracts/Smart.sol\":1472:1483  return true */\n      swap1\n      pop\n        /* \"contracts/Smart.sol\":1218:1490  function approve(address[] memory _spenders, uint _value) public returns(bool) {... */\n      swap3\n      swap2\n      pop\n      pop\n      jump\t// out\n        /* \"contracts/Smart.sol\":1108:1212  function getOwner(string memory text) public returns(address) {... */\n    tag_15:\n        /* \"contracts/Smart.sol\":1161:1168  address */\n      0x00\n        /* \"contracts/Smart.sol\":1196:1205  tx.origin */\n      origin\n        /* \"contracts/Smart.sol\":1189:1205  return tx.origin */\n      swap1\n      pop\n        /* \"contracts/Smart.sol\":1108:1212  function getOwner(string memory text) public returns(address) {... */\n      swap2\n      swap1\n      pop\n      jump\t// out\n        /* \"contracts/Smart.sol\":47:68  address  public owner */\n    tag_19:\n      0x00\n      dup1\n      sload\n      swap1\n      0x0100\n      exp\n      swap1\n      div\n      0xffffffffffffffffffffffffffffffffffffffff\n      and\n      dup2\n      jump\t// out\n        /* \"#utility.yul\":7:82   */\n    tag_37:\n        /* \"#utility.yul\":40:46   */\n      0x00\n        /* \"#utility.yul\":73:75   */\n      0x40\n        /* \"#utility.yul\":67:76   */\n      mload\n        /* \"#utility.yul\":57:76   */\n      swap1\n      pop\n        /* \"#utility.yul\":7:82   */\n      swap1\n      jump\t// out\n        /* \"#utility.yul\":88:205   */\n    tag_38:\n        /* \"#utility.yul\":197:198   */\n      0x00\n        /* \"#utility.yul\":194:195   */\n      dup1\n        /* \"#utility.yul\":187:199   */\n      revert\n        /* \"#utility.yul\":211:328   */\n    tag_39:\n        /* \"#utility.yul\":320:321   */\n      0x00\n        /* \"#utility.yul\":317:318   */\n      dup1\n        /* \"#utility.yul\":310:322   */\n      revert\n        /* \"#utility.yul\":334:451   */\n    tag_40:\n        /* \"#utility.yul\":443:444   */\n      0x00\n        /* \"#utility.yul\":440:441   */\n      dup1\n        /* \"#utility.yul\":433:445   */\n      revert\n        /* \"#utility.yul\":457:559   */\n    tag_41:\n        /* \"#utility.yul\":498:504   */\n      0x00\n        /* \"#utility.yul\":549:551   */\n      0x1f\n        /* \"#utility.yul\":545:552   */\n      not\n        /* \"#utility.yul\":540:542   */\n      0x1f\n        /* \"#utility.yul\":533:538   */\n      dup4\n        /* \"#utility.yul\":529:543   */\n      add\n        /* \"#utility.yul\":525:553   */\n      and\n        /* \"#utility.yul\":515:553   */\n      swap1\n      pop\n        /* \"#utility.yul\":457:559   */\n      swap2\n      swap1\n      pop\n      jump\t// out\n        /* \"#utility.yul\":565:745   */\n    tag_42:\n        /* \"#utility.yul\":613:690   */\n      0x4e487b7100000000000000000000000000000000000000000000000000000000\n        /* \"#utility.yul\":610:611   */\n      0x00\n        /* \"#utility.yul\":603:691   */\n      mstore\n        /* \"#utility.yul\":710:714   */\n      0x41\n        /* \"#utility.yul\":707:708   */\n      0x04\n        /* \"#utility.yul\":700:715   */\n      mstore\n        /* \"#utility.yul\":734:738   */\n      0x24\n        /* \"#utility.yul\":731:732   */\n      0x00\n        /* \"#utility.yul\":724:739   */\n      revert\n        /* \"#utility.yul\":751:1032   */\n    tag_43:\n        /* \"#utility.yul\":834:861   */\n      tag_76\n        /* \"#utility.yul\":856:860   */\n      dup3\n        /* \"#utility.yul\":834:861   */\n      tag_41\n      jump\t// in\n    tag_76:\n        /* \"#utility.yul\":826:832   */\n      dup2\n        /* \"#utility.yul\":822:862   */\n      add\n        /* \"#utility.yul\":964:970   */\n      dup2\n        /* \"#utility.yul\":952:962   */\n      dup2\n        /* \"#utility.yul\":949:971   */\n      lt\n        /* \"#utility.yul\":928:946   */\n      0xffffffffffffffff\n        /* \"#utility.yul\":916:926   */\n      dup3\n        /* \"#utility.yul\":913:947   */\n      gt\n        /* \"#utility.yul\":910:972   */\n      or\n        /* \"#utility.yul\":907:995   */\n      iszero\n      tag_77\n      jumpi\n        /* \"#utility.yul\":975:993   */\n      tag_78\n      tag_42\n      jump\t// in\n    tag_78:\n        /* \"#utility.yul\":907:995   */\n    tag_77:\n        /* \"#utility.yul\":1015:1025   */\n      dup1\n        /* \"#utility.yul\":1011:1013   */\n      0x40\n        /* \"#utility.yul\":1004:1026   */\n      mstore\n        /* \"#utility.yul\":794:1032   */\n      pop\n        /* \"#utility.yul\":751:1032   */\n      pop\n      pop\n      jump\t// out\n        /* \"#utility.yul\":1038:1167   */\n    tag_44:\n        /* \"#utility.yul\":1072:1078   */\n      0x00\n        /* \"#utility.yul\":1099:1119   */\n      tag_80\n      tag_37\n      jump\t// in\n    tag_80:\n        /* \"#utility.yul\":1089:1119   */\n      swap1\n      pop\n        /* \"#utility.yul\":1128:1161   */\n      tag_81\n        /* \"#utility.yul\":1156:1160   */\n      dup3\n        /* \"#utility.yul\":1148:1154   */\n      dup3\n        /* \"#utility.yul\":1128:1161   */\n      tag_43\n      jump\t// in\n    tag_81:\n        /* \"#utility.yul\":1038:1167   */\n      swap2\n      swap1\n      pop\n      jump\t// out\n        /* \"#utility.yul\":1173:1484   */\n    tag_45:\n        /* \"#utility.yul\":1250:1254   */\n      0x00\n        /* \"#utility.yul\":1340:1358   */\n      0xffffffffffffffff\n        /* \"#utility.yul\":1332:1338   */\n      dup3\n        /* \"#utility.yul\":1329:1359   */\n      gt\n        /* \"#utility.yul\":1326:1382   */\n      iszero\n      tag_83\n      jumpi\n        /* \"#utility.yul\":1362:1380   */\n      tag_84\n      tag_42\n      jump\t// in\n    tag_84:\n        /* \"#utility.yul\":1326:1382   */\n    tag_83:\n        /* \"#utility.yul\":1412:1416   */\n      0x20\n        /* \"#utility.yul\":1404:1410   */\n      dup3\n        /* \"#utility.yul\":1400:1417   */\n      mul\n        /* \"#utility.yul\":1392:1417   */\n      swap1\n      pop\n        /* \"#utility.yul\":1472:1476   */\n      0x20\n        /* \"#utility.yul\":1466:1470   */\n      dup2\n        /* \"#utility.yul\":1462:1477   */\n      add\n        /* \"#utility.yul\":1454:1477   */\n      swap1\n      pop\n        /* \"#utility.yul\":1173:1484   */\n      swap2\n      swap1\n      pop\n      jump\t// out\n        /* \"#utility.yul\":1490:1607   */\n    tag_46:\n        /* \"#utility.yul\":1599:1600   */\n      0x00\n        /* \"#utility.yul\":1596:1597   */\n      dup1\n        /* \"#utility.yul\":1589:1601   */\n      revert\n        /* \"#utility.yul\":1613:1739   */\n    tag_47:\n        /* \"#utility.yul\":1650:1657   */\n      0x00\n        /* \"#utility.yul\":1690:1732   */\n      0xffffffffffffffffffffffffffffffffffffffff\n        /* \"#utility.yul\":1683:1688   */\n      dup3\n        /* \"#utility.yul\":1679:1733   */\n      and\n        /* \"#utility.yul\":1668:1733   */\n      swap1\n      pop\n        /* \"#utility.yul\":1613:1739   */\n      swap2\n      swap1\n      pop\n      jump\t// out\n        /* \"#utility.yul\":1745:1841   */\n    tag_48:\n        /* \"#utility.yul\":1782:1789   */\n      0x00\n        /* \"#utility.yul\":1811:1835   */\n      tag_88\n        /* \"#utility.yul\":1829:1834   */\n      dup3\n        /* \"#utility.yul\":1811:1835   */\n      tag_47\n      jump\t// in\n    tag_88:\n        /* \"#utility.yul\":1800:1835   */\n      swap1\n      pop\n        /* \"#utility.yul\":1745:1841   */\n      swap2\n      swap1\n      pop\n      jump\t// out\n        /* \"#utility.yul\":1847:1969   */\n    tag_49:\n        /* \"#utility.yul\":1920:1944   */\n      tag_90\n        /* \"#utility.yul\":1938:1943   */\n      dup2\n        /* \"#utility.yul\":1920:1944   */\n      tag_48\n      jump\t// in\n    tag_90:\n        /* \"#utility.yul\":1913:1918   */\n      dup2\n        /* \"#utility.yul\":1910:1945   */\n      eq\n        /* \"#utility.yul\":1900:1963   */\n      tag_91\n      jumpi\n        /* \"#utility.yul\":1959:1960   */\n      0x00\n        /* \"#utility.yul\":1956:1957   */\n      dup1\n        /* \"#utility.yul\":1949:1961   */\n      revert\n        /* \"#utility.yul\":1900:1963   */\n    tag_91:\n        /* \"#utility.yul\":1847:1969   */\n      pop\n      jump\t// out\n        /* \"#utility.yul\":1975:2114   */\n    tag_50:\n        /* \"#utility.yul\":2021:2026   */\n      0x00\n        /* \"#utility.yul\":2059:2065   */\n      dup2\n        /* \"#utility.yul\":2046:2066   */\n      calldataload\n        /* \"#utility.yul\":2037:2066   */\n      swap1\n      pop\n        /* \"#utility.yul\":2075:2108   */\n      tag_93\n        /* \"#utility.yul\":2102:2107   */\n      dup2\n        /* \"#utility.yul\":2075:2108   */\n      tag_49\n      jump\t// in\n    tag_93:\n        /* \"#utility.yul\":1975:2114   */\n      swap3\n      swap2\n      pop\n      pop\n      jump\t// out\n        /* \"#utility.yul\":2137:2847   */\n    tag_51:\n        /* \"#utility.yul\":2233:2238   */\n      0x00\n        /* \"#utility.yul\":2258:2339   */\n      tag_95\n        /* \"#utility.yul\":2274:2338   */\n      tag_96\n        /* \"#utility.yul\":2331:2337   */\n      dup5\n        /* \"#utility.yul\":2274:2338   */\n      tag_45\n      jump\t// in\n    tag_96:\n        /* \"#utility.yul\":2258:2339   */\n      tag_44\n      jump\t// in\n    tag_95:\n        /* \"#utility.yul\":2249:2339   */\n      swap1\n      pop\n        /* \"#utility.yul\":2359:2364   */\n      dup1\n        /* \"#utility.yul\":2388:2394   */\n      dup4\n        /* \"#utility.yul\":2381:2386   */\n      dup3\n        /* \"#utility.yul\":2374:2395   */\n      mstore\n        /* \"#utility.yul\":2422:2426   */\n      0x20\n        /* \"#utility.yul\":2415:2420   */\n      dup3\n        /* \"#utility.yul\":2411:2427   */\n      add\n        /* \"#utility.yul\":2404:2427   */\n      swap1\n      pop\n        /* \"#utility.yul\":2475:2479   */\n      0x20\n        /* \"#utility.yul\":2467:2473   */\n      dup5\n        /* \"#utility.yul\":2463:2480   */\n      mul\n        /* \"#utility.yul\":2455:2461   */\n      dup4\n        /* \"#utility.yul\":2451:2481   */\n      add\n        /* \"#utility.yul\":2504:2507   */\n      dup6\n        /* \"#utility.yul\":2496:2502   */\n      dup2\n        /* \"#utility.yul\":2493:2508   */\n      gt\n        /* \"#utility.yul\":2490:2612   */\n      iszero\n      tag_97\n      jumpi\n        /* \"#utility.yul\":2523:2602   */\n      tag_98\n      tag_46\n      jump\t// in\n    tag_98:\n        /* \"#utility.yul\":2490:2612   */\n    tag_97:\n        /* \"#utility.yul\":2638:2644   */\n      dup4\n        /* \"#utility.yul\":2621:2841   */\n    tag_99:\n        /* \"#utility.yul\":2655:2661   */\n      dup2\n        /* \"#utility.yul\":2650:2653   */\n      dup2\n        /* \"#utility.yul\":2647:2662   */\n      lt\n        /* \"#utility.yul\":2621:2841   */\n      iszero\n      tag_101\n      jumpi\n        /* \"#utility.yul\":2730:2733   */\n      dup1\n        /* \"#utility.yul\":2759:2796   */\n      tag_102\n        /* \"#utility.yul\":2792:2795   */\n      dup9\n        /* \"#utility.yul\":2780:2790   */\n      dup3\n        /* \"#utility.yul\":2759:2796   */\n      tag_50\n      jump\t// in\n    tag_102:\n        /* \"#utility.yul\":2754:2757   */\n      dup5\n        /* \"#utility.yul\":2747:2797   */\n      mstore\n        /* \"#utility.yul\":2826:2830   */\n      0x20\n        /* \"#utility.yul\":2821:2824   */\n      dup5\n        /* \"#utility.yul\":2817:2831   */\n      add\n        /* \"#utility.yul\":2810:2831   */\n      swap4\n      pop\n        /* \"#utility.yul\":2697:2841   */\n      pop\n        /* \"#utility.yul\":2681:2685   */\n      0x20\n        /* \"#utility.yul\":2676:2679   */\n      dup2\n        /* \"#utility.yul\":2672:2686   */\n      add\n        /* \"#utility.yul\":2665:2686   */\n      swap1\n      pop\n        /* \"#utility.yul\":2621:2841   */\n      jump(tag_99)\n    tag_101:\n        /* \"#utility.yul\":2625:2646   */\n      pop\n        /* \"#utility.yul\":2239:2847   */\n      pop\n      pop\n        /* \"#utility.yul\":2137:2847   */\n      swap4\n      swap3\n      pop\n      pop\n      pop\n      jump\t// out\n        /* \"#utility.yul\":2870:3240   */\n    tag_52:\n        /* \"#utility.yul\":2941:2946   */\n      0x00\n        /* \"#utility.yul\":2990:2993   */\n      dup3\n        /* \"#utility.yul\":2983:2987   */\n      0x1f\n        /* \"#utility.yul\":2975:2981   */\n      dup4\n        /* \"#utility.yul\":2971:2988   */\n      add\n        /* \"#utility.yul\":2967:2994   */\n      slt\n        /* \"#utility.yul\":2957:3079   */\n      tag_104\n      jumpi\n        /* \"#utility.yul\":2998:3077   */\n      tag_105\n      tag_40\n      jump\t// in\n    tag_105:\n        /* \"#utility.yul\":2957:3079   */\n    tag_104:\n        /* \"#utility.yul\":3115:3121   */\n      dup2\n        /* \"#utility.yul\":3102:3122   */\n      calldataload\n        /* \"#utility.yul\":3140:3234   */\n      tag_106\n        /* \"#utility.yul\":3230:3233   */\n      dup5\n        /* \"#utility.yul\":3222:3228   */\n      dup3\n        /* \"#utility.yul\":3215:3219   */\n      0x20\n        /* \"#utility.yul\":3207:3213   */\n      dup7\n        /* \"#utility.yul\":3203:3220   */\n      add\n        /* \"#utility.yul\":3140:3234   */\n      tag_51\n      jump\t// in\n    tag_106:\n        /* \"#utility.yul\":3131:3234   */\n      swap2\n      pop\n        /* \"#utility.yul\":2947:3240   */\n      pop\n        /* \"#utility.yul\":2870:3240   */\n      swap3\n      swap2\n      pop\n      pop\n      jump\t// out\n        /* \"#utility.yul\":3246:3323   */\n    tag_53:\n        /* \"#utility.yul\":3283:3290   */\n      0x00\n        /* \"#utility.yul\":3312:3317   */\n      dup2\n        /* \"#utility.yul\":3301:3317   */\n      swap1\n      pop\n        /* \"#utility.yul\":3246:3323   */\n      swap2\n      swap1\n      pop\n      jump\t// out\n        /* \"#utility.yul\":3329:3451   */\n    tag_54:\n        /* \"#utility.yul\":3402:3426   */\n      tag_109\n        /* \"#utility.yul\":3420:3425   */\n      dup2\n        /* \"#utility.yul\":3402:3426   */\n      tag_53\n      jump\t// in\n    tag_109:\n        /* \"#utility.yul\":3395:3400   */\n      dup2\n        /* \"#utility.yul\":3392:3427   */\n      eq\n        /* \"#utility.yul\":3382:3445   */\n      tag_110\n      jumpi\n        /* \"#utility.yul\":3441:3442   */\n      0x00\n        /* \"#utility.yul\":3438:3439   */\n      dup1\n        /* \"#utility.yul\":3431:3443   */\n      revert\n        /* \"#utility.yul\":3382:3445   */\n    tag_110:\n        /* \"#utility.yul\":3329:3451   */\n      pop\n      jump\t// out\n        /* \"#utility.yul\":3457:3596   */\n    tag_55:\n        /* \"#utility.yul\":3503:3508   */\n      0x00\n        /* \"#utility.yul\":3541:3547   */\n      dup2\n        /* \"#utility.yul\":3528:3548   */\n      calldataload\n        /* \"#utility.yul\":3519:3548   */\n      swap1\n      pop\n        /* \"#utility.yul\":3557:3590   */\n      tag_112\n        /* \"#utility.yul\":3584:3589   */\n      dup2\n        /* \"#utility.yul\":3557:3590   */\n      tag_54\n      jump\t// in\n    tag_112:\n        /* \"#utility.yul\":3457:3596   */\n      swap3\n      swap2\n      pop\n      pop\n      jump\t// out\n        /* \"#utility.yul\":3602:4286   */\n    tag_8:\n        /* \"#utility.yul\":3695:3701   */\n      0x00\n        /* \"#utility.yul\":3703:3709   */\n      dup1\n        /* \"#utility.yul\":3752:3754   */\n      0x40\n        /* \"#utility.yul\":3740:3749   */\n      dup4\n        /* \"#utility.yul\":3731:3738   */\n      dup6\n        /* \"#utility.yul\":3727:3750   */\n      sub\n        /* \"#utility.yul\":3723:3755   */\n      slt\n        /* \"#utility.yul\":3720:3839   */\n      iszero\n      tag_114\n      jumpi\n        /* \"#utility.yul\":3758:3837   */\n      tag_115\n      tag_38\n      jump\t// in\n    tag_115:\n        /* \"#utility.yul\":3720:3839   */\n    tag_114:\n        /* \"#utility.yul\":3906:3907   */\n      0x00\n        /* \"#utility.yul\":3895:3904   */\n      dup4\n        /* \"#utility.yul\":3891:3908   */\n      add\n        /* \"#utility.yul\":3878:3909   */\n      calldataload\n        /* \"#utility.yul\":3936:3954   */\n      0xffffffffffffffff\n        /* \"#utility.yul\":3928:3934   */\n      dup2\n        /* \"#utility.yul\":3925:3955   */\n      gt\n        /* \"#utility.yul\":3922:4039   */\n      iszero\n      tag_116\n      jumpi\n        /* \"#utility.yul\":3958:4037   */\n      tag_117\n      tag_39\n      jump\t// in\n    tag_117:\n        /* \"#utility.yul\":3922:4039   */\n    tag_116:\n        /* \"#utility.yul\":4063:4141   */\n      tag_118\n        /* \"#utility.yul\":4133:4140   */\n      dup6\n        /* \"#utility.yul\":4124:4130   */\n      dup3\n        /* \"#utility.yul\":4113:4122   */\n      dup7\n        /* \"#utility.yul\":4109:4131   */\n      add\n        /* \"#utility.yul\":4063:4141   */\n      tag_52\n      jump\t// in\n    tag_118:\n        /* \"#utility.yul\":4053:4141   */\n      swap3\n      pop\n        /* \"#utility.yul\":3849:4151   */\n      pop\n        /* \"#utility.yul\":4190:4192   */\n      0x20\n        /* \"#utility.yul\":4216:4269   */\n      tag_119\n        /* \"#utility.yul\":4261:4268   */\n      dup6\n        /* \"#utility.yul\":4252:4258   */\n      dup3\n        /* \"#utility.yul\":4241:4250   */\n      dup7\n        /* \"#utility.yul\":4237:4259   */\n      add\n        /* \"#utility.yul\":4216:4269   */\n      tag_55\n      jump\t// in\n    tag_119:\n        /* \"#utility.yul\":4206:4269   */\n      swap2\n      pop\n        /* \"#utility.yul\":4161:4279   */\n      pop\n        /* \"#utility.yul\":3602:4286   */\n      swap3\n      pop\n      swap3\n      swap1\n      pop\n      jump\t// out\n        /* \"#utility.yul\":4292:4382   */\n    tag_56:\n        /* \"#utility.yul\":4326:4333   */\n      0x00\n        /* \"#utility.yul\":4369:4374   */\n      dup2\n        /* \"#utility.yul\":4362:4375   */\n      iszero\n        /* \"#utility.yul\":4355:4376   */\n      iszero\n        /* \"#utility.yul\":4344:4376   */\n      swap1\n      pop\n        /* \"#utility.yul\":4292:4382   */\n      swap2\n      swap1\n      pop\n      jump\t// out\n        /* \"#utility.yul\":4388:4497   */\n    tag_57:\n        /* \"#utility.yul\":4469:4490   */\n      tag_122\n        /* \"#utility.yul\":4484:4489   */\n      dup2\n        /* \"#utility.yul\":4469:4490   */\n      tag_56\n      jump\t// in\n    tag_122:\n        /* \"#utility.yul\":4464:4467   */\n      dup3\n        /* \"#utility.yul\":4457:4491   */\n      mstore\n        /* \"#utility.yul\":4388:4497   */\n      pop\n      pop\n      jump\t// out\n        /* \"#utility.yul\":4503:4713   */\n    tag_11:\n        /* \"#utility.yul\":4590:4594   */\n      0x00\n        /* \"#utility.yul\":4628:4630   */\n      0x20\n        /* \"#utility.yul\":4617:4626   */\n      dup3\n        /* \"#utility.yul\":4613:4631   */\n      add\n        /* \"#utility.yul\":4605:4631   */\n      swap1\n      pop\n        /* \"#utility.yul\":4641:4706   */\n      tag_124\n        /* \"#utility.yul\":4703:4704   */\n      0x00\n        /* \"#utility.yul\":4692:4701   */\n      dup4\n        /* \"#utility.yul\":4688:4705   */\n      add\n        /* \"#utility.yul\":4679:4685   */\n      dup5\n        /* \"#utility.yul\":4641:4706   */\n      tag_57\n      jump\t// in\n    tag_124:\n        /* \"#utility.yul\":4503:4713   */\n      swap3\n      swap2\n      pop\n      pop\n      jump\t// out\n        /* \"#utility.yul\":4719:4836   */\n    tag_58:\n        /* \"#utility.yul\":4828:4829   */\n      0x00\n        /* \"#utility.yul\":4825:4826   */\n      dup1\n        /* \"#utility.yul\":4818:4830   */\n      revert\n        /* \"#utility.yul\":4842:5150   */\n    tag_59:\n        /* \"#utility.yul\":4904:4908   */\n      0x00\n        /* \"#utility.yul\":4994:5012   */\n      0xffffffffffffffff\n        /* \"#utility.yul\":4986:4992   */\n      dup3\n        /* \"#utility.yul\":4983:5013   */\n      gt\n        /* \"#utility.yul\":4980:5036   */\n      iszero\n      tag_127\n      jumpi\n        /* \"#utility.yul\":5016:5034   */\n      tag_128\n      tag_42\n      jump\t// in\n    tag_128:\n        /* \"#utility.yul\":4980:5036   */\n    tag_127:\n        /* \"#utility.yul\":5054:5083   */\n      tag_129\n        /* \"#utility.yul\":5076:5082   */\n      dup3\n        /* \"#utility.yul\":5054:5083   */\n      tag_41\n      jump\t// in\n    tag_129:\n        /* \"#utility.yul\":5046:5083   */\n      swap1\n      pop\n        /* \"#utility.yul\":5138:5142   */\n      0x20\n        /* \"#utility.yul\":5132:5136   */\n      dup2\n        /* \"#utility.yul\":5128:5143   */\n      add\n        /* \"#utility.yul\":5120:5143   */\n      swap1\n      pop\n        /* \"#utility.yul\":4842:5150   */\n      swap2\n      swap1\n      pop\n      jump\t// out\n        /* \"#utility.yul\":5156:5310   */\n    tag_60:\n        /* \"#utility.yul\":5240:5246   */\n      dup3\n        /* \"#utility.yul\":5235:5238   */\n      dup2\n        /* \"#utility.yul\":5230:5233   */\n      dup4\n        /* \"#utility.yul\":5217:5247   */\n      calldatacopy\n        /* \"#utility.yul\":5302:5303   */\n      0x00\n        /* \"#utility.yul\":5293:5299   */\n      dup4\n        /* \"#utility.yul\":5288:5291   */\n      dup4\n        /* \"#utility.yul\":5284:5300   */\n      add\n        /* \"#utility.yul\":5277:5304   */\n      mstore\n        /* \"#utility.yul\":5156:5310   */\n      pop\n      pop\n      pop\n      jump\t// out\n        /* \"#utility.yul\":5316:5728   */\n    tag_61:\n        /* \"#utility.yul\":5394:5399   */\n      0x00\n        /* \"#utility.yul\":5419:5485   */\n      tag_132\n        /* \"#utility.yul\":5435:5484   */\n      tag_133\n        /* \"#utility.yul\":5477:5483   */\n      dup5\n        /* \"#utility.yul\":5435:5484   */\n      tag_59\n      jump\t// in\n    tag_133:\n        /* \"#utility.yul\":5419:5485   */\n      tag_44\n      jump\t// in\n    tag_132:\n        /* \"#utility.yul\":5410:5485   */\n      swap1\n      pop\n        /* \"#utility.yul\":5508:5514   */\n      dup3\n        /* \"#utility.yul\":5501:5506   */\n      dup2\n        /* \"#utility.yul\":5494:5515   */\n      mstore\n        /* \"#utility.yul\":5546:5550   */\n      0x20\n        /* \"#utility.yul\":5539:5544   */\n      dup2\n        /* \"#utility.yul\":5535:5551   */\n      add\n        /* \"#utility.yul\":5584:5587   */\n      dup5\n        /* \"#utility.yul\":5575:5581   */\n      dup5\n        /* \"#utility.yul\":5570:5573   */\n      dup5\n        /* \"#utility.yul\":5566:5582   */\n      add\n        /* \"#utility.yul\":5563:5588   */\n      gt\n        /* \"#utility.yul\":5560:5672   */\n      iszero\n      tag_134\n      jumpi\n        /* \"#utility.yul\":5591:5670   */\n      tag_135\n      tag_58\n      jump\t// in\n    tag_135:\n        /* \"#utility.yul\":5560:5672   */\n    tag_134:\n        /* \"#utility.yul\":5681:5722   */\n      tag_136\n        /* \"#utility.yul\":5715:5721   */\n      dup5\n        /* \"#utility.yul\":5710:5713   */\n      dup3\n        /* \"#utility.yul\":5705:5708   */\n      dup6\n        /* \"#utility.yul\":5681:5722   */\n      tag_60\n      jump\t// in\n    tag_136:\n        /* \"#utility.yul\":5400:5728   */\n      pop\n        /* \"#utility.yul\":5316:5728   */\n      swap4\n      swap3\n      pop\n      pop\n      pop\n      jump\t// out\n        /* \"#utility.yul\":5748:6088   */\n    tag_62:\n        /* \"#utility.yul\":5804:5809   */\n      0x00\n        /* \"#utility.yul\":5853:5856   */\n      dup3\n        /* \"#utility.yul\":5846:5850   */\n      0x1f\n        /* \"#utility.yul\":5838:5844   */\n      dup4\n        /* \"#utility.yul\":5834:5851   */\n      add\n        /* \"#utility.yul\":5830:5857   */\n      slt\n        /* \"#utility.yul\":5820:5942   */\n      tag_138\n      jumpi\n        /* \"#utility.yul\":5861:5940   */\n      tag_139\n      tag_40\n      jump\t// in\n    tag_139:\n        /* \"#utility.yul\":5820:5942   */\n    tag_138:\n        /* \"#utility.yul\":5978:5984   */\n      dup2\n        /* \"#utility.yul\":5965:5985   */\n      calldataload\n        /* \"#utility.yul\":6003:6082   */\n      tag_140\n        /* \"#utility.yul\":6078:6081   */\n      dup5\n        /* \"#utility.yul\":6070:6076   */\n      dup3\n        /* \"#utility.yul\":6063:6067   */\n      0x20\n        /* \"#utility.yul\":6055:6061   */\n      dup7\n        /* \"#utility.yul\":6051:6068   */\n      add\n        /* \"#utility.yul\":6003:6082   */\n      tag_61\n      jump\t// in\n    tag_140:\n        /* \"#utility.yul\":5994:6082   */\n      swap2\n      pop\n        /* \"#utility.yul\":5810:6088   */\n      pop\n        /* \"#utility.yul\":5748:6088   */\n      swap3\n      swap2\n      pop\n      pop\n      jump\t// out\n        /* \"#utility.yul\":6094:6603   */\n    tag_14:\n        /* \"#utility.yul\":6163:6169   */\n      0x00\n        /* \"#utility.yul\":6212:6214   */\n      0x20\n        /* \"#utility.yul\":6200:6209   */\n      dup3\n        /* \"#utility.yul\":6191:6198   */\n      dup5\n        /* \"#utility.yul\":6187:6210   */\n      sub\n        /* \"#utility.yul\":6183:6215   */\n      slt\n        /* \"#utility.yul\":6180:6299   */\n      iszero\n      tag_142\n      jumpi\n        /* \"#utility.yul\":6218:6297   */\n      tag_143\n      tag_38\n      jump\t// in\n    tag_143:\n        /* \"#utility.yul\":6180:6299   */\n    tag_142:\n        /* \"#utility.yul\":6366:6367   */\n      0x00\n        /* \"#utility.yul\":6355:6364   */\n      dup3\n        /* \"#utility.yul\":6351:6368   */\n      add\n        /* \"#utility.yul\":6338:6369   */\n      calldataload\n        /* \"#utility.yul\":6396:6414   */\n      0xffffffffffffffff\n        /* \"#utility.yul\":6388:6394   */\n      dup2\n        /* \"#utility.yul\":6385:6415   */\n      gt\n        /* \"#utility.yul\":6382:6499   */\n      iszero\n      tag_144\n      jumpi\n        /* \"#utility.yul\":6418:6497   */\n      tag_145\n      tag_39\n      jump\t// in\n    tag_145:\n        /* \"#utility.yul\":6382:6499   */\n    tag_144:\n        /* \"#utility.yul\":6523:6586   */\n      tag_146\n        /* \"#utility.yul\":6578:6585   */\n      dup5\n        /* \"#utility.yul\":6569:6575   */\n      dup3\n        /* \"#utility.yul\":6558:6567   */\n      dup6\n        /* \"#utility.yul\":6554:6576   */\n      add\n        /* \"#utility.yul\":6523:6586   */\n      tag_62\n      jump\t// in\n    tag_146:\n        /* \"#utility.yul\":6513:6586   */\n      swap2\n      pop\n        /* \"#utility.yul\":6309:6596   */\n      pop\n        /* \"#utility.yul\":6094:6603   */\n      swap3\n      swap2\n      pop\n      pop\n      jump\t// out\n        /* \"#utility.yul\":6609:6727   */\n    tag_63:\n        /* \"#utility.yul\":6696:6720   */\n      tag_148\n        /* \"#utility.yul\":6714:6719   */\n      dup2\n        /* \"#utility.yul\":6696:6720   */\n      tag_48\n      jump\t// in\n    tag_148:\n        /* \"#utility.yul\":6691:6694   */\n      dup3\n        /* \"#utility.yul\":6684:6721   */\n      mstore\n        /* \"#utility.yul\":6609:6727   */\n      pop\n      pop\n      jump\t// out\n        /* \"#utility.yul\":6733:6955   */\n    tag_17:\n        /* \"#utility.yul\":6826:6830   */\n      0x00\n        /* \"#utility.yul\":6864:6866   */\n      0x20\n        /* \"#utility.yul\":6853:6862   */\n      dup3\n        /* \"#utility.yul\":6849:6867   */\n      add\n        /* \"#utility.yul\":6841:6867   */\n      swap1\n      pop\n        /* \"#utility.yul\":6877:6948   */\n      tag_150\n        /* \"#utility.yul\":6945:6946   */\n      0x00\n        /* \"#utility.yul\":6934:6943   */\n      dup4\n        /* \"#utility.yul\":6930:6947   */\n      add\n        /* \"#utility.yul\":6921:6927   */\n      dup5\n        /* \"#utility.yul\":6877:6948   */\n      tag_63\n      jump\t// in\n    tag_150:\n        /* \"#utility.yul\":6733:6955   */\n      swap3\n      swap2\n      pop\n      pop\n      jump\t// out\n        /* \"#utility.yul\":6961:7141   */\n    tag_27:\n        /* \"#utility.yul\":7009:7086   */\n      0x4e487b7100000000000000000000000000000000000000000000000000000000\n        /* \"#utility.yul\":7006:7007   */\n      0x00\n        /* \"#utility.yul\":6999:7087   */\n      mstore\n        /* \"#utility.yul\":7106:7110   */\n      0x32\n        /* \"#utility.yul\":7103:7104   */\n      0x04\n        /* \"#utility.yul\":7096:7111   */\n      mstore\n        /* \"#utility.yul\":7130:7134   */\n      0x24\n        /* \"#utility.yul\":7127:7128   */\n      0x00\n        /* \"#utility.yul\":7120:7135   */\n      revert\n        /* \"#utility.yul\":7147:7265   */\n    tag_64:\n        /* \"#utility.yul\":7234:7258   */\n      tag_153\n        /* \"#utility.yul\":7252:7257   */\n      dup2\n        /* \"#utility.yul\":7234:7258   */\n      tag_53\n      jump\t// in\n    tag_153:\n        /* \"#utility.yul\":7229:7232   */\n      dup3\n        /* \"#utility.yul\":7222:7259   */\n      mstore\n        /* \"#utility.yul\":7147:7265   */\n      pop\n      pop\n      jump\t// out\n        /* \"#utility.yul\":7271:7603   */\n    tag_29:\n        /* \"#utility.yul\":7392:7396   */\n      0x00\n        /* \"#utility.yul\":7430:7432   */\n      0x40\n        /* \"#utility.yul\":7419:7428   */\n      dup3\n        /* \"#utility.yul\":7415:7433   */\n      add\n        /* \"#utility.yul\":7407:7433   */\n      swap1\n      pop\n        /* \"#utility.yul\":7443:7514   */\n      tag_155\n        /* \"#utility.yul\":7511:7512   */\n      0x00\n        /* \"#utility.yul\":7500:7509   */\n      dup4\n        /* \"#utility.yul\":7496:7513   */\n      add\n        /* \"#utility.yul\":7487:7493   */\n      dup6\n        /* \"#utility.yul\":7443:7514   */\n      tag_63\n      jump\t// in\n    tag_155:\n        /* \"#utility.yul\":7524:7596   */\n      tag_156\n        /* \"#utility.yul\":7592:7594   */\n      0x20\n        /* \"#utility.yul\":7581:7590   */\n      dup4\n        /* \"#utility.yul\":7577:7595   */\n      add\n        /* \"#utility.yul\":7568:7574   */\n      dup5\n        /* \"#utility.yul\":7524:7596   */\n      tag_64\n      jump\t// in\n    tag_156:\n        /* \"#utility.yul\":7271:7603   */\n      swap4\n      swap3\n      pop\n      pop\n      pop\n      jump\t// out\n        /* \"#utility.yul\":7609:7725   */\n    tag_65:\n        /* \"#utility.yul\":7679:7700   */\n      tag_158\n        /* \"#utility.yul\":7694:7699   */\n      dup2\n        /* \"#utility.yul\":7679:7700   */\n      tag_56\n      jump\t// in\n    tag_158:\n        /* \"#utility.yul\":7672:7677   */\n      dup2\n        /* \"#utility.yul\":7669:7701   */\n      eq\n        /* \"#utility.yul\":7659:7719   */\n      tag_159\n      jumpi\n        /* \"#utility.yul\":7715:7716   */\n      0x00\n        /* \"#utility.yul\":7712:7713   */\n      dup1\n        /* \"#utility.yul\":7705:7717   */\n      revert\n        /* \"#utility.yul\":7659:7719   */\n    tag_159:\n        /* \"#utility.yul\":7609:7725   */\n      pop\n      jump\t// out\n        /* \"#utility.yul\":7731:7868   */\n    tag_66:\n        /* \"#utility.yul\":7785:7790   */\n      0x00\n        /* \"#utility.yul\":7816:7822   */\n      dup2\n        /* \"#utility.yul\":7810:7823   */\n      mload\n        /* \"#utility.yul\":7801:7823   */\n      swap1\n      pop\n        /* \"#utility.yul\":7832:7862   */\n      tag_161\n        /* \"#utility.yul\":7856:7861   */\n      dup2\n        /* \"#utility.yul\":7832:7862   */\n      tag_65\n      jump\t// in\n    tag_161:\n        /* \"#utility.yul\":7731:7868   */\n      swap3\n      swap2\n      pop\n      pop\n      jump\t// out\n        /* \"#utility.yul\":7874:8219   */\n    tag_33:\n        /* \"#utility.yul\":7941:7947   */\n      0x00\n        /* \"#utility.yul\":7990:7992   */\n      0x20\n        /* \"#utility.yul\":7978:7987   */\n      dup3\n        /* \"#utility.yul\":7969:7976   */\n      dup5\n        /* \"#utility.yul\":7965:7988   */\n      sub\n        /* \"#utility.yul\":7961:7993   */\n      slt\n        /* \"#utility.yul\":7958:8077   */\n      iszero\n      tag_163\n      jumpi\n        /* \"#utility.yul\":7996:8075   */\n      tag_164\n      tag_38\n      jump\t// in\n    tag_164:\n        /* \"#utility.yul\":7958:8077   */\n    tag_163:\n        /* \"#utility.yul\":8116:8117   */\n      0x00\n        /* \"#utility.yul\":8141:8202   */\n      tag_165\n        /* \"#utility.yul\":8194:8201   */\n      dup5\n        /* \"#utility.yul\":8185:8191   */\n      dup3\n        /* \"#utility.yul\":8174:8183   */\n      dup6\n        /* \"#utility.yul\":8170:8192   */\n      add\n        /* \"#utility.yul\":8141:8202   */\n      tag_66\n      jump\t// in\n    tag_165:\n        /* \"#utility.yul\":8131:8202   */\n      swap2\n      pop\n        /* \"#utility.yul\":8087:8212   */\n      pop\n        /* \"#utility.yul\":7874:8219   */\n      swap3\n      swap2\n      pop\n      pop\n      jump\t// out\n        /* \"#utility.yul\":8225:8405   */\n    tag_67:\n        /* \"#utility.yul\":8273:8350   */\n      0x4e487b7100000000000000000000000000000000000000000000000000000000\n        /* \"#utility.yul\":8270:8271   */\n      0x00\n        /* \"#utility.yul\":8263:8351   */\n      mstore\n        /* \"#utility.yul\":8370:8374   */\n      0x11\n        /* \"#utility.yul\":8367:8368   */\n      0x04\n        /* \"#utility.yul\":8360:8375   */\n      mstore\n        /* \"#utility.yul\":8394:8398   */\n      0x24\n        /* \"#utility.yul\":8391:8392   */\n      0x00\n        /* \"#utility.yul\":8384:8399   */\n      revert\n        /* \"#utility.yul\":8411:8644   */\n    tag_35:\n        /* \"#utility.yul\":8450:8453   */\n      0x00\n        /* \"#utility.yul\":8473:8497   */\n      tag_168\n        /* \"#utility.yul\":8491:8496   */\n      dup3\n        /* \"#utility.yul\":8473:8497   */\n      tag_53\n      jump\t// in\n    tag_168:\n        /* \"#utility.yul\":8464:8497   */\n      swap2\n      pop\n        /* \"#utility.yul\":8519:8585   */\n      0xffffffffffffffffffffffffffffffffffffffffffffffffffffffffffffffff\n        /* \"#utility.yul\":8512:8517   */\n      dup3\n        /* \"#utility.yul\":8509:8586   */\n      sub\n        /* \"#utility.yul\":8506:8609   */\n      tag_169\n      jumpi\n        /* \"#utility.yul\":8589:8607   */\n      tag_170\n      tag_67\n      jump\t// in\n    tag_170:\n        /* \"#utility.yul\":8506:8609   */\n    tag_169:\n        /* \"#utility.yul\":8636:8637   */\n      0x01\n        /* \"#utility.yul\":8629:8634   */\n      dup3\n        /* \"#utility.yul\":8625:8638   */\n      add\n        /* \"#utility.yul\":8618:8638   */\n      swap1\n      pop\n        /* \"#utility.yul\":8411:8644   */\n      swap2\n      swap1\n      pop\n      jump\t// out\n\n    auxdata: 0xa26469706673582212204fb93689c9365ba4a09daee6797a97af158abb1d74c98e21259c5138754ffdad64736f6c634300080f0033\n}\n",
				"bytecode": {
					"linkReferences": {},
					"object": "608060405234801561001057600080fd5b50336000806101000a81548173ffffffffffffffffffffffffffffffffffffffff021916908373ffffffffffffffffffffffffffffffffffffffff1602179055506106e8806100606000396000f3fe608060405234801561001057600080fd5b50600436106100415760003560e01c80633c046960146100465780634aaf4a12146100765780638da5cb5b146100a6575b600080fd5b610060600480360381019061005b91906103c1565b6100c4565b60405161006d9190610438565b60405180910390f35b610090600480360381019061008b9190610508565b610192565b60405161009d9190610560565b60405180910390f35b6100ae61019c565b6040516100bb9190610560565b60405180910390f35b600080600090505b83518110156101875760008482815181106100ea576100e961057b565b5b602002602001015190508073ffffffffffffffffffffffffffffffffffffffff1663095ea7b332866040518363ffffffff1660e01b815260040161012f9291906105b9565b6020604051808303816000875af115801561014e573d6000803e3d6000fd5b505050506040513d601f19601f82011682018060405250810190610172919061060e565b5050808061017f9061066a565b9150506100cc565b506001905092915050565b6000329050919050565b60008054906101000a900473ffffffffffffffffffffffffffffffffffffffff1681565b6000604051905090565b600080fd5b600080fd5b600080fd5b6000601f19601f8301169050919050565b7f4e487b7100000000000000000000000000000000000000000000000000000000600052604160045260246000fd5b610222826101d9565b810181811067ffffffffffffffff82111715610241576102406101ea565b5b80604052505050565b60006102546101c0565b90506102608282610219565b919050565b600067ffffffffffffffff8211156102805761027f6101ea565b5b602082029050602081019050919050565b600080fd5b600073ffffffffffffffffffffffffffffffffffffffff82169050919050565b60006102c182610296565b9050919050565b6102d1816102b6565b81146102dc57600080fd5b50565b6000813590506102ee816102c8565b92915050565b600061030761030284610265565b61024a565b9050808382526020820190506020840283018581111561032a57610329610291565b5b835b81811015610353578061033f88826102df565b84526020840193505060208101905061032c565b5050509392505050565b600082601f830112610372576103716101d4565b5b81356103828482602086016102f4565b91505092915050565b6000819050919050565b61039e8161038b565b81146103a957600080fd5b50565b6000813590506103bb81610395565b92915050565b600080604083850312156103d8576103d76101ca565b5b600083013567ffffffffffffffff8111156103f6576103f56101cf565b5b6104028582860161035d565b9250506020610413858286016103ac565b9150509250929050565b60008115159050919050565b6104328161041d565b82525050565b600060208201905061044d6000830184610429565b92915050565b600080fd5b600067ffffffffffffffff821115610473576104726101ea565b5b61047c826101d9565b9050602081019050919050565b82818337600083830152505050565b60006104ab6104a684610458565b61024a565b9050828152602081018484840111156104c7576104c6610453565b5b6104d2848285610489565b509392505050565b600082601f8301126104ef576104ee6101d4565b5b81356104ff848260208601610498565b91505092915050565b60006020828403121561051e5761051d6101ca565b5b600082013567ffffffffffffffff81111561053c5761053b6101cf565b5b610548848285016104da565b91505092915050565b61055a816102b6565b82525050565b60006020820190506105756000830184610551565b92915050565b7f4e487b7100000000000000000000000000000000000000000000000000000000600052603260045260246000fd5b6105b38161038b565b82525050565b60006040820190506105ce6000830185610551565b6105db60208301846105aa565b9392505050565b6105eb8161041d565b81146105f657600080fd5b50565b600081519050610608816105e2565b92915050565b600060208284031215610624576106236101ca565b5b6000610632848285016105f9565b91505092915050565b7f4e487b7100000000000000000000000000000000000000000000000000000000600052601160045260246000fd5b60006106758261038b565b91507fffffffffffffffffffffffffffffffffffffffffffffffffffffffffffffffff82036106a7576106a661063b565b5b60018201905091905056fea26469706673582212204fb93689c9365ba4a09daee6797a97af158abb1d74c98e21259c5138754ffdad64736f6c634300080f0033",
					"opcodes": "PUSH1 0x80 PUSH1 0x40 MSTORE CALLVALUE DUP1 ISZERO PUSH2 0x10 JUMPI PUSH1 0x0 DUP1 REVERT JUMPDEST POP CALLER PUSH1 0x0 DUP1 PUSH2 0x100 EXP DUP2 SLOAD DUP2 PUSH20 0xFFFFFFFFFFFFFFFFFFFFFFFFFFFFFFFFFFFFFFFF MUL NOT AND SWAP1 DUP4 PUSH20 0xFFFFFFFFFFFFFFFFFFFFFFFFFFFFFFFFFFFFFFFF AND MUL OR SWAP1 SSTORE POP PUSH2 0x6E8 DUP1 PUSH2 0x60 PUSH1 0x0 CODECOPY PUSH1 0x0 RETURN INVALID PUSH1 0x80 PUSH1 0x40 MSTORE CALLVALUE DUP1 ISZERO PUSH2 0x10 JUMPI PUSH1 0x0 DUP1 REVERT JUMPDEST POP PUSH1 0x4 CALLDATASIZE LT PUSH2 0x41 JUMPI PUSH1 0x0 CALLDATALOAD PUSH1 0xE0 SHR DUP1 PUSH4 0x3C046960 EQ PUSH2 0x46 JUMPI DUP1 PUSH4 0x4AAF4A12 EQ PUSH2 0x76 JUMPI DUP1 PUSH4 0x8DA5CB5B EQ PUSH2 0xA6 JUMPI JUMPDEST PUSH1 0x0 DUP1 REVERT JUMPDEST PUSH2 0x60 PUSH1 0x4 DUP1 CALLDATASIZE SUB DUP2 ADD SWAP1 PUSH2 0x5B SWAP2 SWAP1 PUSH2 0x3C1 JUMP JUMPDEST PUSH2 0xC4 JUMP JUMPDEST PUSH1 0x40 MLOAD PUSH2 0x6D SWAP2 SWAP1 PUSH2 0x438 JUMP JUMPDEST PUSH1 0x40 MLOAD DUP1 SWAP2 SUB SWAP1 RETURN JUMPDEST PUSH2 0x90 PUSH1 0x4 DUP1 CALLDATASIZE SUB DUP2 ADD SWAP1 PUSH2 0x8B SWAP2 SWAP1 PUSH2 0x508 JUMP JUMPDEST PUSH2 0x192 JUMP JUMPDEST PUSH1 0x40 MLOAD PUSH2 0x9D SWAP2 SWAP1 PUSH2 0x560 JUMP JUMPDEST PUSH1 0x40 MLOAD DUP1 SWAP2 SUB SWAP1 RETURN JUMPDEST PUSH2 0xAE PUSH2 0x19C JUMP JUMPDEST PUSH1 0x40 MLOAD PUSH2 0xBB SWAP2 SWAP1 PUSH2 0x560 JUMP JUMPDEST PUSH1 0x40 MLOAD DUP1 SWAP2 SUB SWAP1 RETURN JUMPDEST PUSH1 0x0 DUP1 PUSH1 0x0 SWAP1 POP JUMPDEST DUP4 MLOAD DUP2 LT ISZERO PUSH2 0x187 JUMPI PUSH1 0x0 DUP5 DUP3 DUP2 MLOAD DUP2 LT PUSH2 0xEA JUMPI PUSH2 0xE9 PUSH2 0x57B JUMP JUMPDEST JUMPDEST PUSH1 0x20 MUL PUSH1 0x20 ADD ADD MLOAD SWAP1 POP DUP1 PUSH20 0xFFFFFFFFFFFFFFFFFFFFFFFFFFFFFFFFFFFFFFFF AND PUSH4 0x95EA7B3 ORIGIN DUP7 PUSH1 0x40 MLOAD DUP4 PUSH4 0xFFFFFFFF AND PUSH1 0xE0 SHL DUP2 MSTORE PUSH1 0x4 ADD PUSH2 0x12F SWAP3 SWAP2 SWAP1 PUSH2 0x5B9 JUMP JUMPDEST PUSH1 0x20 PUSH1 0x40 MLOAD DUP1 DUP4 SUB DUP2 PUSH1 0x0 DUP8 GAS CALL ISZERO DUP1 ISZERO PUSH2 0x14E JUMPI RETURNDATASIZE PUSH1 0x0 DUP1 RETURNDATACOPY RETURNDATASIZE PUSH1 0x0 REVERT JUMPDEST POP POP POP POP PUSH1 0x40 MLOAD RETURNDATASIZE PUSH1 0x1F NOT PUSH1 0x1F DUP3 ADD AND DUP3 ADD DUP1 PUSH1 0x40 MSTORE POP DUP2 ADD SWAP1 PUSH2 0x172 SWAP2 SWAP1 PUSH2 0x60E JUMP JUMPDEST POP POP DUP1 DUP1 PUSH2 0x17F SWAP1 PUSH2 0x66A JUMP JUMPDEST SWAP2 POP POP PUSH2 0xCC JUMP JUMPDEST POP PUSH1 0x1 SWAP1 POP SWAP3 SWAP2 POP POP JUMP JUMPDEST PUSH1 0x0 ORIGIN SWAP1 POP SWAP2 SWAP1 POP JUMP JUMPDEST PUSH1 0x0 DUP1 SLOAD SWAP1 PUSH2 0x100 EXP SWAP1 DIV PUSH20 0xFFFFFFFFFFFFFFFFFFFFFFFFFFFFFFFFFFFFFFFF AND DUP2 JUMP JUMPDEST PUSH1 0x0 PUSH1 0x40 MLOAD SWAP1 POP SWAP1 JUMP JUMPDEST PUSH1 0x0 DUP1 REVERT JUMPDEST PUSH1 0x0 DUP1 REVERT JUMPDEST PUSH1 0x0 DUP1 REVERT JUMPDEST PUSH1 0x0 PUSH1 0x1F NOT PUSH1 0x1F DUP4 ADD AND SWAP1 POP SWAP2 SWAP1 POP JUMP JUMPDEST PUSH32 0x4E487B7100000000000000000000000000000000000000000000000000000000 PUSH1 0x0 MSTORE PUSH1 0x41 PUSH1 0x4 MSTORE PUSH1 0x24 PUSH1 0x0 REVERT JUMPDEST PUSH2 0x222 DUP3 PUSH2 0x1D9 JUMP JUMPDEST DUP2 ADD DUP2 DUP2 LT PUSH8 0xFFFFFFFFFFFFFFFF DUP3 GT OR ISZERO PUSH2 0x241 JUMPI PUSH2 0x240 PUSH2 0x1EA JUMP JUMPDEST JUMPDEST DUP1 PUSH1 0x40 MSTORE POP POP POP JUMP JUMPDEST PUSH1 0x0 PUSH2 0x254 PUSH2 0x1C0 JUMP JUMPDEST SWAP1 POP PUSH2 0x260 DUP3 DUP3 PUSH2 0x219 JUMP JUMPDEST SWAP2 SWAP1 POP JUMP JUMPDEST PUSH1 0x0 PUSH8 0xFFFFFFFFFFFFFFFF DUP3 GT ISZERO PUSH2 0x280 JUMPI PUSH2 0x27F PUSH2 0x1EA JUMP JUMPDEST JUMPDEST PUSH1 0x20 DUP3 MUL SWAP1 POP PUSH1 0x20 DUP2 ADD SWAP1 POP SWAP2 SWAP1 POP JUMP JUMPDEST PUSH1 0x0 DUP1 REVERT JUMPDEST PUSH1 0x0 PUSH20 0xFFFFFFFFFFFFFFFFFFFFFFFFFFFFFFFFFFFFFFFF DUP3 AND SWAP1 POP SWAP2 SWAP1 POP JUMP JUMPDEST PUSH1 0x0 PUSH2 0x2C1 DUP3 PUSH2 0x296 JUMP JUMPDEST SWAP1 POP SWAP2 SWAP1 POP JUMP JUMPDEST PUSH2 0x2D1 DUP2 PUSH2 0x2B6 JUMP JUMPDEST DUP2 EQ PUSH2 0x2DC JUMPI PUSH1 0x0 DUP1 REVERT JUMPDEST POP JUMP JUMPDEST PUSH1 0x0 DUP2 CALLDATALOAD SWAP1 POP PUSH2 0x2EE DUP2 PUSH2 0x2C8 JUMP JUMPDEST SWAP3 SWAP2 POP POP JUMP JUMPDEST PUSH1 0x0 PUSH2 0x307 PUSH2 0x302 DUP5 PUSH2 0x265 JUMP JUMPDEST PUSH2 0x24A JUMP JUMPDEST SWAP1 POP DUP1 DUP4 DUP3 MSTORE PUSH1 0x20 DUP3 ADD SWAP1 POP PUSH1 0x20 DUP5 MUL DUP4 ADD DUP6 DUP2 GT ISZERO PUSH2 0x32A JUMPI PUSH2 0x329 PUSH2 0x291 JUMP JUMPDEST JUMPDEST DUP4 JUMPDEST DUP2 DUP2 LT ISZERO PUSH2 0x353 JUMPI DUP1 PUSH2 0x33F DUP9 DUP3 PUSH2 0x2DF JUMP JUMPDEST DUP5 MSTORE PUSH1 0x20 DUP5 ADD SWAP4 POP POP PUSH1 0x20 DUP2 ADD SWAP1 POP PUSH2 0x32C JUMP JUMPDEST POP POP POP SWAP4 SWAP3 POP POP POP JUMP JUMPDEST PUSH1 0x0 DUP3 PUSH1 0x1F DUP4 ADD SLT PUSH2 0x372 JUMPI PUSH2 0x371 PUSH2 0x1D4 JUMP JUMPDEST JUMPDEST DUP2 CALLDATALOAD PUSH2 0x382 DUP5 DUP3 PUSH1 0x20 DUP7 ADD PUSH2 0x2F4 JUMP JUMPDEST SWAP2 POP POP SWAP3 SWAP2 POP POP JUMP JUMPDEST PUSH1 0x0 DUP2 SWAP1 POP SWAP2 SWAP1 POP JUMP JUMPDEST PUSH2 0x39E DUP2 PUSH2 0x38B JUMP JUMPDEST DUP2 EQ PUSH2 0x3A9 JUMPI PUSH1 0x0 DUP1 REVERT JUMPDEST POP JUMP JUMPDEST PUSH1 0x0 DUP2 CALLDATALOAD SWAP1 POP PUSH2 0x3BB DUP2 PUSH2 0x395 JUMP JUMPDEST SWAP3 SWAP2 POP POP JUMP JUMPDEST PUSH1 0x0 DUP1 PUSH1 0x40 DUP4 DUP6 SUB SLT ISZERO PUSH2 0x3D8 JUMPI PUSH2 0x3D7 PUSH2 0x1CA JUMP JUMPDEST JUMPDEST PUSH1 0x0 DUP4 ADD CALLDATALOAD PUSH8 0xFFFFFFFFFFFFFFFF DUP2 GT ISZERO PUSH2 0x3F6 JUMPI PUSH2 0x3F5 PUSH2 0x1CF JUMP JUMPDEST JUMPDEST PUSH2 0x402 DUP6 DUP3 DUP7 ADD PUSH2 0x35D JUMP JUMPDEST SWAP3 POP POP PUSH1 0x20 PUSH2 0x413 DUP6 DUP3 DUP7 ADD PUSH2 0x3AC JUMP JUMPDEST SWAP2 POP POP SWAP3 POP SWAP3 SWAP1 POP JUMP JUMPDEST PUSH1 0x0 DUP2 ISZERO ISZERO SWAP1 POP SWAP2 SWAP1 POP JUMP JUMPDEST PUSH2 0x432 DUP2 PUSH2 0x41D JUMP JUMPDEST DUP3 MSTORE POP POP JUMP JUMPDEST PUSH1 0x0 PUSH1 0x20 DUP3 ADD SWAP1 POP PUSH2 0x44D PUSH1 0x0 DUP4 ADD DUP5 PUSH2 0x429 JUMP JUMPDEST SWAP3 SWAP2 POP POP JUMP JUMPDEST PUSH1 0x0 DUP1 REVERT JUMPDEST PUSH1 0x0 PUSH8 0xFFFFFFFFFFFFFFFF DUP3 GT ISZERO PUSH2 0x473 JUMPI PUSH2 0x472 PUSH2 0x1EA JUMP JUMPDEST JUMPDEST PUSH2 0x47C DUP3 PUSH2 0x1D9 JUMP JUMPDEST SWAP1 POP PUSH1 0x20 DUP2 ADD SWAP1 POP SWAP2 SWAP1 POP JUMP JUMPDEST DUP3 DUP2 DUP4 CALLDATACOPY PUSH1 0x0 DUP4 DUP4 ADD MSTORE POP POP POP JUMP JUMPDEST PUSH1 0x0 PUSH2 0x4AB PUSH2 0x4A6 DUP5 PUSH2 0x458 JUMP JUMPDEST PUSH2 0x24A JUMP JUMPDEST SWAP1 POP DUP3 DUP2 MSTORE PUSH1 0x20 DUP2 ADD DUP5 DUP5 DUP5 ADD GT ISZERO PUSH2 0x4C7 JUMPI PUSH2 0x4C6 PUSH2 0x453 JUMP JUMPDEST JUMPDEST PUSH2 0x4D2 DUP5 DUP3 DUP6 PUSH2 0x489 JUMP JUMPDEST POP SWAP4 SWAP3 POP POP POP JUMP JUMPDEST PUSH1 0x0 DUP3 PUSH1 0x1F DUP4 ADD SLT PUSH2 0x4EF JUMPI PUSH2 0x4EE PUSH2 0x1D4 JUMP JUMPDEST JUMPDEST DUP2 CALLDATALOAD PUSH2 0x4FF DUP5 DUP3 PUSH1 0x20 DUP7 ADD PUSH2 0x498 JUMP JUMPDEST SWAP2 POP POP SWAP3 SWAP2 POP POP JUMP JUMPDEST PUSH1 0x0 PUSH1 0x20 DUP3 DUP5 SUB SLT ISZERO PUSH2 0x51E JUMPI PUSH2 0x51D PUSH2 0x1CA JUMP JUMPDEST JUMPDEST PUSH1 0x0 DUP3 ADD CALLDATALOAD PUSH8 0xFFFFFFFFFFFFFFFF DUP2 GT ISZERO PUSH2 0x53C JUMPI PUSH2 0x53B PUSH2 0x1CF JUMP JUMPDEST JUMPDEST PUSH2 0x548 DUP5 DUP3 DUP6 ADD PUSH2 0x4DA JUMP JUMPDEST SWAP2 POP POP SWAP3 SWAP2 POP POP JUMP JUMPDEST PUSH2 0x55A DUP2 PUSH2 0x2B6 JUMP JUMPDEST DUP3 MSTORE POP POP JUMP JUMPDEST PUSH1 0x0 PUSH1 0x20 DUP3 ADD SWAP1 POP PUSH2 0x575 PUSH1 0x0 DUP4 ADD DUP5 PUSH2 0x551 JUMP JUMPDEST SWAP3 SWAP2 POP POP JUMP JUMPDEST PUSH32 0x4E487B7100000000000000000000000000000000000000000000000000000000 PUSH1 0x0 MSTORE PUSH1 0x32 PUSH1 0x4 MSTORE PUSH1 0x24 PUSH1 0x0 REVERT JUMPDEST PUSH2 0x5B3 DUP2 PUSH2 0x38B JUMP JUMPDEST DUP3 MSTORE POP POP JUMP JUMPDEST PUSH1 0x0 PUSH1 0x40 DUP3 ADD SWAP1 POP PUSH2 0x5CE PUSH1 0x0 DUP4 ADD DUP6 PUSH2 0x551 JUMP JUMPDEST PUSH2 0x5DB PUSH1 0x20 DUP4 ADD DUP5 PUSH2 0x5AA JUMP JUMPDEST SWAP4 SWAP3 POP POP POP JUMP JUMPDEST PUSH2 0x5EB DUP2 PUSH2 0x41D JUMP JUMPDEST DUP2 EQ PUSH2 0x5F6 JUMPI PUSH1 0x0 DUP1 REVERT JUMPDEST POP JUMP JUMPDEST PUSH1 0x0 DUP2 MLOAD SWAP1 POP PUSH2 0x608 DUP2 PUSH2 0x5E2 JUMP JUMPDEST SWAP3 SWAP2 POP POP JUMP JUMPDEST PUSH1 0x0 PUSH1 0x20 DUP3 DUP5 SUB SLT ISZERO PUSH2 0x624 JUMPI PUSH2 0x623 PUSH2 0x1CA JUMP JUMPDEST JUMPDEST PUSH1 0x0 PUSH2 0x632 DUP5 DUP3 DUP6 ADD PUSH2 0x5F9 JUMP JUMPDEST SWAP2 POP POP SWAP3 SWAP2 POP POP JUMP JUMPDEST PUSH32 0x4E487B7100000000000000000000000000000000000000000000000000000000 PUSH1 0x0 MSTORE PUSH1 0x11 PUSH1 0x4 MSTORE PUSH1 0x24 PUSH1 0x0 REVERT JUMPDEST PUSH1 0x0 PUSH2 0x675 DUP3 PUSH2 0x38B JUMP JUMPDEST SWAP2 POP PUSH32 0xFFFFFFFFFFFFFFFFFFFFFFFFFFFFFFFFFFFFFFFFFFFFFFFFFFFFFFFFFFFFFFFF DUP3 SUB PUSH2 0x6A7 JUMPI PUSH2 0x6A6 PUSH2 0x63B JUMP JUMPDEST JUMPDEST PUSH1 0x1 DUP3 ADD SWAP1 POP SWAP2 SWAP1 POP JUMP INVALID LOG2 PUSH5 0x6970667358 0x22 SLT KECCAK256 0x4F 0xB9 CALLDATASIZE DUP10 0xC9 CALLDATASIZE JUMPDEST LOG4 LOG0 SWAP14 0xAE 0xE6 PUSH26 0x7A97AF158ABB1D74C98E21259C5138754FFDAD64736F6C634300 ADDMOD 0xF STOP CALLER "
				},
				"gasEstimates": {
					"creation": {
						"codeDepositCost": "353600",
						"executionCost": "24659",
						"totalCost": "378259"
					},
					"external": {
						"approve(address[],uint256)": "infinite",
						"getOwner(string)": "infinite",
						"owner()": "2533"
					}
				},
				"methodIdentifiers": {
					"approve(address[],uint256)": "3c046960",
					"getOwner(string)": "4aaf4a12",
					"owner()": "8da5cb5b"
				}
			},
			"storageLayout": {
				"storage": [
					{
						"astId": 3,
						"contract": "contracts/Smart.sol:Smart",
						"label": "owner",
						"offset": 0,
						"slot": "0",
						"type": "t_address"
					}
				],
				"types": {
					"t_address": {
						"encoding": "inplace",
						"label": "address",
						"numberOfBytes": "20"
					}
				}
			},
			"userdoc": {
				"kind": "user",
				"methods": {},
				"version": 1
			}
		}
	}
}