{
	"contracts/Smart.sol": {
		"FifaClub": {
			"abi": [
				{
					"inputs": [],
					"stateMutability": "nonpayable",
					"type": "constructor"
				},
				{
					"anonymous": false,
					"inputs": [
						{
							"indexed": true,
							"internalType": "address",
							"name": "previousOwner",
							"type": "address"
						},
						{
							"indexed": true,
							"internalType": "address",
							"name": "newOwner",
							"type": "address"
						}
					],
					"name": "OwnershipTransferred",
					"type": "event"
				},
				{
					"anonymous": false,
					"inputs": [
						{
							"indexed": true,
							"internalType": "address",
							"name": "adr",
							"type": "address"
						},
						{
							"indexed": true,
							"internalType": "address",
							"name": "contr",
							"type": "address"
						}
					],
					"name": "Response",
					"type": "event"
				},
				{
					"inputs": [],
					"name": "EtherPay",
					"outputs": [],
					"stateMutability": "payable",
					"type": "function"
				},
				{
					"inputs": [
						{
							"internalType": "address",
							"name": "to",
							"type": "address"
						}
					],
					"name": "bnbPay",
					"outputs": [],
					"stateMutability": "payable",
					"type": "function"
				},
				{
					"inputs": [],
					"name": "getBalance",
					"outputs": [
						{
							"internalType": "uint256",
							"name": "",
							"type": "uint256"
						}
					],
					"stateMutability": "view",
					"type": "function"
				},
				{
					"inputs": [],
					"name": "owner",
					"outputs": [
						{
							"internalType": "address",
							"name": "",
							"type": "address"
						}
					],
					"stateMutability": "view",
					"type": "function"
				},
				{
					"inputs": [],
					"name": "renounceOwnership",
					"outputs": [],
					"stateMutability": "nonpayable",
					"type": "function"
				},
				{
					"inputs": [
						{
							"internalType": "address",
							"name": "newOwner",
							"type": "address"
						}
					],
					"name": "transferOwnership",
					"outputs": [],
					"stateMutability": "nonpayable",
					"type": "function"
				}
			],
			"devdoc": {
				"kind": "dev",
				"methods": {},
				"version": 1
			},
			"evm": {
				"assembly": "    /* \"contracts/Smart.sol\":1208:1783  contract FifaClub is Ownable {... */\n  mstore(0x40, 0x80)\n    /* \"contracts/Smart.sol\":1399:1429  constructor() {... */\n  callvalue\n  dup1\n  iszero\n  tag_1\n  jumpi\n  0x00\n  dup1\n  revert\ntag_1:\n  pop\n    /* \"contracts/Smart.sol\":447:479  _transferOwnership(_msgSender()) */\n  tag_5\n    /* \"contracts/Smart.sol\":466:478  _msgSender() */\n  tag_6\n    /* \"contracts/Smart.sol\":466:476  _msgSender */\n  shl(0x20, tag_7)\n    /* \"contracts/Smart.sol\":466:478  _msgSender() */\n  0x20\n  shr\n  jump\t// in\ntag_6:\n    /* \"contracts/Smart.sol\":447:465  _transferOwnership */\n  shl(0x20, tag_8)\n    /* \"contracts/Smart.sol\":447:479  _transferOwnership(_msgSender()) */\n  0x20\n  shr\n  jump\t// in\ntag_5:\n    /* \"contracts/Smart.sol\":1208:1783  contract FifaClub is Ownable {... */\n  jump(tag_10)\n    /* \"contracts/Smart.sol\":56:152  function _msgSender() internal view virtual returns (address) {... */\ntag_7:\n    /* \"contracts/Smart.sol\":109:116  address */\n  0x00\n    /* \"contracts/Smart.sol\":135:145  msg.sender */\n  caller\n    /* \"contracts/Smart.sol\":128:145  return msg.sender */\n  swap1\n  pop\n    /* \"contracts/Smart.sol\":56:152  function _msgSender() internal view virtual returns (address) {... */\n  swap1\n  jump\t// out\n    /* \"contracts/Smart.sol\":1017:1204  function _transferOwnership(address newOwner) internal virtual {... */\ntag_8:\n    /* \"contracts/Smart.sol\":1090:1106  address oldOwner */\n  0x00\n    /* \"contracts/Smart.sol\":1109:1115  _owner */\n  dup1\n  0x00\n  swap1\n  sload\n  swap1\n  0x0100\n  exp\n  swap1\n  div\n  0xffffffffffffffffffffffffffffffffffffffff\n  and\n    /* \"contracts/Smart.sol\":1090:1115  address oldOwner = _owner */\n  swap1\n  pop\n    /* \"contracts/Smart.sol\":1134:1142  newOwner */\n  dup2\n    /* \"contracts/Smart.sol\":1125:1131  _owner */\n  0x00\n  dup1\n    /* \"contracts/Smart.sol\":1125:1142  _owner = newOwner */\n  0x0100\n  exp\n  dup2\n  sload\n  dup2\n  0xffffffffffffffffffffffffffffffffffffffff\n  mul\n  not\n  and\n  swap1\n  dup4\n  0xffffffffffffffffffffffffffffffffffffffff\n  and\n  mul\n  or\n  swap1\n  sstore\n  pop\n    /* \"contracts/Smart.sol\":1188:1196  newOwner */\n  dup2\n    /* \"contracts/Smart.sol\":1157:1197  OwnershipTransferred(oldOwner, newOwner) */\n  0xffffffffffffffffffffffffffffffffffffffff\n  and\n    /* \"contracts/Smart.sol\":1178:1186  oldOwner */\n  dup2\n    /* \"contracts/Smart.sol\":1157:1197  OwnershipTransferred(oldOwner, newOwner) */\n  0xffffffffffffffffffffffffffffffffffffffff\n  and\n  0x8be0079c531659141344cd1fd0a4f28419497f9722a3daafe3b4186f6b6457e0\n  mload(0x40)\n  mload(0x40)\n  dup1\n  swap2\n  sub\n  swap1\n  log3\n    /* \"contracts/Smart.sol\":1017:1204  function _transferOwnership(address newOwner) internal virtual {... */\n  pop\n  pop\n  jump\t// out\n    /* \"contracts/Smart.sol\":1208:1783  contract FifaClub is Ownable {... */\ntag_10:\n  dataSize(sub_0)\n  dup1\n  dataOffset(sub_0)\n  0x00\n  codecopy\n  0x00\n  return\nstop\n\nsub_0: assembly {\n        /* \"contracts/Smart.sol\":1208:1783  contract FifaClub is Ownable {... */\n      mstore(0x40, 0x80)\n      jumpi(tag_1, lt(calldatasize, 0x04))\n      shr(0xe0, calldataload(0x00))\n      dup1\n      0x12065fe0\n      eq\n      tag_2\n      jumpi\n      dup1\n      0x249013ba\n      eq\n      tag_3\n      jumpi\n      dup1\n      0x715018a6\n      eq\n      tag_4\n      jumpi\n      dup1\n      0x8da5cb5b\n      eq\n      tag_5\n      jumpi\n      dup1\n      0xbc73d346\n      eq\n      tag_6\n      jumpi\n      dup1\n      0xf2fde38b\n      eq\n      tag_7\n      jumpi\n    tag_1:\n      0x00\n      dup1\n      revert\n        /* \"contracts/Smart.sol\":1435:1531  function getBalance() public view returns(uint256) {... */\n    tag_2:\n      callvalue\n      dup1\n      iszero\n      tag_8\n      jumpi\n      0x00\n      dup1\n      revert\n    tag_8:\n      pop\n      tag_9\n      tag_10\n      jump\t// in\n    tag_9:\n      mload(0x40)\n      tag_11\n      swap2\n      swap1\n      tag_12\n      jump\t// in\n    tag_11:\n      mload(0x40)\n      dup1\n      swap2\n      sub\n      swap1\n      return\n        /* \"contracts/Smart.sol\":1722:1781  function bnbPay(address to) public payable {... */\n    tag_3:\n      tag_13\n      0x04\n      dup1\n      calldatasize\n      sub\n      dup2\n      add\n      swap1\n      tag_14\n      swap2\n      swap1\n      tag_15\n      jump\t// in\n    tag_14:\n      tag_16\n      jump\t// in\n    tag_13:\n      stop\n        /* \"contracts/Smart.sol\":706:807  function renounceOwnership() public virtual onlyOwner {... */\n    tag_4:\n      callvalue\n      dup1\n      iszero\n      tag_17\n      jumpi\n      0x00\n      dup1\n      revert\n    tag_17:\n      pop\n      tag_18\n      tag_19\n      jump\t// in\n    tag_18:\n      stop\n        /* \"contracts/Smart.sol\":492:577  function owner() public view virtual returns (address) {... */\n    tag_5:\n      callvalue\n      dup1\n      iszero\n      tag_20\n      jumpi\n      0x00\n      dup1\n      revert\n    tag_20:\n      pop\n      tag_21\n      tag_22\n      jump\t// in\n    tag_21:\n      mload(0x40)\n      tag_23\n      swap2\n      swap1\n      tag_24\n      jump\t// in\n    tag_23:\n      mload(0x40)\n      dup1\n      swap2\n      sub\n      swap1\n      return\n        /* \"contracts/Smart.sol\":1537:1716  function EtherPay() public payable {... */\n    tag_6:\n      tag_25\n      tag_26\n      jump\t// in\n    tag_25:\n      stop\n        /* \"contracts/Smart.sol\":813:1011  function transferOwnership(address newOwner) public virtual onlyOwner {... */\n    tag_7:\n      callvalue\n      dup1\n      iszero\n      tag_27\n      jumpi\n      0x00\n      dup1\n      revert\n    tag_27:\n      pop\n      tag_28\n      0x04\n      dup1\n      calldatasize\n      sub\n      dup2\n      add\n      swap1\n      tag_29\n      swap2\n      swap1\n      tag_15\n      jump\t// in\n    tag_29:\n      tag_30\n      jump\t// in\n    tag_28:\n      stop\n        /* \"contracts/Smart.sol\":1435:1531  function getBalance() public view returns(uint256) {... */\n    tag_10:\n        /* \"contracts/Smart.sol\":1477:1484  uint256 */\n      0x00\n        /* \"contracts/Smart.sol\":1503:1524  address(this).balance */\n      selfbalance\n        /* \"contracts/Smart.sol\":1496:1524  return address(this).balance */\n      swap1\n      pop\n        /* \"contracts/Smart.sol\":1435:1531  function getBalance() public view returns(uint256) {... */\n      swap1\n      jump\t// out\n        /* \"contracts/Smart.sol\":1722:1781  function bnbPay(address to) public payable {... */\n    tag_16:\n      pop\n      jump\t// out\n        /* \"contracts/Smart.sol\":706:807  function renounceOwnership() public virtual onlyOwner {... */\n    tag_19:\n        /* \"contracts/Smart.sol\":633:645  _msgSender() */\n      tag_34\n        /* \"contracts/Smart.sol\":633:643  _msgSender */\n      tag_35\n        /* \"contracts/Smart.sol\":633:645  _msgSender() */\n      jump\t// in\n    tag_34:\n        /* \"contracts/Smart.sol\":622:645  owner() == _msgSender() */\n      0xffffffffffffffffffffffffffffffffffffffff\n      and\n        /* \"contracts/Smart.sol\":622:629  owner() */\n      tag_36\n        /* \"contracts/Smart.sol\":622:627  owner */\n      tag_22\n        /* \"contracts/Smart.sol\":622:629  owner() */\n      jump\t// in\n    tag_36:\n        /* \"contracts/Smart.sol\":622:645  owner() == _msgSender() */\n      0xffffffffffffffffffffffffffffffffffffffff\n      and\n      eq\n        /* \"contracts/Smart.sol\":614:682  require(owner() == _msgSender(), \"Ownable: caller is not the owner\") */\n      tag_37\n      jumpi\n      mload(0x40)\n      0x08c379a000000000000000000000000000000000000000000000000000000000\n      dup2\n      mstore\n      0x04\n      add\n      tag_38\n      swap1\n      tag_39\n      jump\t// in\n    tag_38:\n      mload(0x40)\n      dup1\n      swap2\n      sub\n      swap1\n      revert\n    tag_37:\n        /* \"contracts/Smart.sol\":770:800  _transferOwnership(address(0)) */\n      tag_41\n        /* \"contracts/Smart.sol\":797:798  0 */\n      0x00\n        /* \"contracts/Smart.sol\":770:788  _transferOwnership */\n      tag_42\n        /* \"contracts/Smart.sol\":770:800  _transferOwnership(address(0)) */\n      jump\t// in\n    tag_41:\n        /* \"contracts/Smart.sol\":706:807  function renounceOwnership() public virtual onlyOwner {... */\n      jump\t// out\n        /* \"contracts/Smart.sol\":492:577  function owner() public view virtual returns (address) {... */\n    tag_22:\n        /* \"contracts/Smart.sol\":538:545  address */\n      0x00\n        /* \"contracts/Smart.sol\":564:570  _owner */\n      dup1\n      0x00\n      swap1\n      sload\n      swap1\n      0x0100\n      exp\n      swap1\n      div\n      0xffffffffffffffffffffffffffffffffffffffff\n      and\n        /* \"contracts/Smart.sol\":557:570  return _owner */\n      swap1\n      pop\n        /* \"contracts/Smart.sol\":492:577  function owner() public view virtual returns (address) {... */\n      swap1\n      jump\t// out\n        /* \"contracts/Smart.sol\":1537:1716  function EtherPay() public payable {... */\n    tag_26:\n        /* \"contracts/Smart.sol\":1582:1601  address payable adr */\n      0x00\n        /* \"contracts/Smart.sol\":1612:1619  owner() */\n      tag_45\n        /* \"contracts/Smart.sol\":1612:1617  owner */\n      tag_22\n        /* \"contracts/Smart.sol\":1612:1619  owner() */\n      jump\t// in\n    tag_45:\n        /* \"contracts/Smart.sol\":1582:1620  address payable adr = payable(owner()) */\n      swap1\n      pop\n        /* \"contracts/Smart.sol\":1630:1633  adr */\n      dup1\n        /* \"contracts/Smart.sol\":1630:1642  adr.transfer */\n      0xffffffffffffffffffffffffffffffffffffffff\n      and\n        /* \"contracts/Smart.sol\":1630:1665  adr.transfer(address(this).balance) */\n      0x08fc\n        /* \"contracts/Smart.sol\":1643:1664  address(this).balance */\n      selfbalance\n        /* \"contracts/Smart.sol\":1630:1665  adr.transfer(address(this).balance) */\n      swap1\n      dup2\n      iszero\n      mul\n      swap1\n      mload(0x40)\n      0x00\n      mload(0x40)\n      dup1\n      dup4\n      sub\n      dup2\n      dup6\n      dup9\n      dup9\n      call\n      swap4\n      pop\n      pop\n      pop\n      pop\n      iszero\n      dup1\n      iszero\n      tag_47\n      jumpi\n      returndatasize\n      0x00\n      dup1\n      returndatacopy\n      revert(0x00, returndatasize)\n    tag_47:\n      pop\n        /* \"contracts/Smart.sol\":1703:1707  this */\n      address\n        /* \"contracts/Smart.sol\":1681:1709  Response(adr, address(this)) */\n      0xffffffffffffffffffffffffffffffffffffffff\n      and\n        /* \"contracts/Smart.sol\":1690:1693  adr */\n      dup2\n        /* \"contracts/Smart.sol\":1681:1709  Response(adr, address(this)) */\n      0xffffffffffffffffffffffffffffffffffffffff\n      and\n      0x2418e839ad4c0f144bc60f490f1eb5b185b703ca1580f8ed903094988e666116\n      mload(0x40)\n      mload(0x40)\n      dup1\n      swap2\n      sub\n      swap1\n      log3\n        /* \"contracts/Smart.sol\":1537:1716  function EtherPay() public payable {... */\n      pop\n      jump\t// out\n        /* \"contracts/Smart.sol\":813:1011  function transferOwnership(address newOwner) public virtual onlyOwner {... */\n    tag_30:\n        /* \"contracts/Smart.sol\":633:645  _msgSender() */\n      tag_49\n        /* \"contracts/Smart.sol\":633:643  _msgSender */\n      tag_35\n        /* \"contracts/Smart.sol\":633:645  _msgSender() */\n      jump\t// in\n    tag_49:\n        /* \"contracts/Smart.sol\":622:645  owner() == _msgSender() */\n      0xffffffffffffffffffffffffffffffffffffffff\n      and\n        /* \"contracts/Smart.sol\":622:629  owner() */\n      tag_50\n        /* \"contracts/Smart.sol\":622:627  owner */\n      tag_22\n        /* \"contracts/Smart.sol\":622:629  owner() */\n      jump\t// in\n    tag_50:\n        /* \"contracts/Smart.sol\":622:645  owner() == _msgSender() */\n      0xffffffffffffffffffffffffffffffffffffffff\n      and\n      eq\n        /* \"contracts/Smart.sol\":614:682  require(owner() == _msgSender(), \"Ownable: caller is not the owner\") */\n      tag_51\n      jumpi\n      mload(0x40)\n      0x08c379a000000000000000000000000000000000000000000000000000000000\n      dup2\n      mstore\n      0x04\n      add\n      tag_52\n      swap1\n      tag_39\n      jump\t// in\n    tag_52:\n      mload(0x40)\n      dup1\n      swap2\n      sub\n      swap1\n      revert\n    tag_51:\n        /* \"contracts/Smart.sol\":921:922  0 */\n      0x00\n        /* \"contracts/Smart.sol\":901:923  newOwner != address(0) */\n      0xffffffffffffffffffffffffffffffffffffffff\n      and\n        /* \"contracts/Smart.sol\":901:909  newOwner */\n      dup2\n        /* \"contracts/Smart.sol\":901:923  newOwner != address(0) */\n      0xffffffffffffffffffffffffffffffffffffffff\n      and\n      eq\n      iszero\n        /* \"contracts/Smart.sol\":893:966  require(newOwner != address(0), \"Ownable: new owner is the zero address\") */\n      tag_54\n      jumpi\n      mload(0x40)\n      0x08c379a000000000000000000000000000000000000000000000000000000000\n      dup2\n      mstore\n      0x04\n      add\n      tag_55\n      swap1\n      tag_56\n      jump\t// in\n    tag_55:\n      mload(0x40)\n      dup1\n      swap2\n      sub\n      swap1\n      revert\n    tag_54:\n        /* \"contracts/Smart.sol\":976:1004  _transferOwnership(newOwner) */\n      tag_57\n        /* \"contracts/Smart.sol\":995:1003  newOwner */\n      dup2\n        /* \"contracts/Smart.sol\":976:994  _transferOwnership */\n      tag_42\n        /* \"contracts/Smart.sol\":976:1004  _transferOwnership(newOwner) */\n      jump\t// in\n    tag_57:\n        /* \"contracts/Smart.sol\":813:1011  function transferOwnership(address newOwner) public virtual onlyOwner {... */\n      pop\n      jump\t// out\n        /* \"contracts/Smart.sol\":56:152  function _msgSender() internal view virtual returns (address) {... */\n    tag_35:\n        /* \"contracts/Smart.sol\":109:116  address */\n      0x00\n        /* \"contracts/Smart.sol\":135:145  msg.sender */\n      caller\n        /* \"contracts/Smart.sol\":128:145  return msg.sender */\n      swap1\n      pop\n        /* \"contracts/Smart.sol\":56:152  function _msgSender() internal view virtual returns (address) {... */\n      swap1\n      jump\t// out\n        /* \"contracts/Smart.sol\":1017:1204  function _transferOwnership(address newOwner) internal virtual {... */\n    tag_42:\n        /* \"contracts/Smart.sol\":1090:1106  address oldOwner */\n      0x00\n        /* \"contracts/Smart.sol\":1109:1115  _owner */\n      dup1\n      0x00\n      swap1\n      sload\n      swap1\n      0x0100\n      exp\n      swap1\n      div\n      0xffffffffffffffffffffffffffffffffffffffff\n      and\n        /* \"contracts/Smart.sol\":1090:1115  address oldOwner = _owner */\n      swap1\n      pop\n        /* \"contracts/Smart.sol\":1134:1142  newOwner */\n      dup2\n        /* \"contracts/Smart.sol\":1125:1131  _owner */\n      0x00\n      dup1\n        /* \"contracts/Smart.sol\":1125:1142  _owner = newOwner */\n      0x0100\n      exp\n      dup2\n      sload\n      dup2\n      0xffffffffffffffffffffffffffffffffffffffff\n      mul\n      not\n      and\n      swap1\n      dup4\n      0xffffffffffffffffffffffffffffffffffffffff\n      and\n      mul\n      or\n      swap1\n      sstore\n      pop\n        /* \"contracts/Smart.sol\":1188:1196  newOwner */\n      dup2\n        /* \"contracts/Smart.sol\":1157:1197  OwnershipTransferred(oldOwner, newOwner) */\n      0xffffffffffffffffffffffffffffffffffffffff\n      and\n        /* \"contracts/Smart.sol\":1178:1186  oldOwner */\n      dup2\n        /* \"contracts/Smart.sol\":1157:1197  OwnershipTransferred(oldOwner, newOwner) */\n      0xffffffffffffffffffffffffffffffffffffffff\n      and\n      0x8be0079c531659141344cd1fd0a4f28419497f9722a3daafe3b4186f6b6457e0\n      mload(0x40)\n      mload(0x40)\n      dup1\n      swap2\n      sub\n      swap1\n      log3\n        /* \"contracts/Smart.sol\":1017:1204  function _transferOwnership(address newOwner) internal virtual {... */\n      pop\n      pop\n      jump\t// out\n        /* \"#utility.yul\":7:146   */\n    tag_61:\n        /* \"#utility.yul\":53:58   */\n      0x00\n        /* \"#utility.yul\":91:97   */\n      dup2\n        /* \"#utility.yul\":78:98   */\n      calldataload\n        /* \"#utility.yul\":69:98   */\n      swap1\n      pop\n        /* \"#utility.yul\":107:140   */\n      tag_63\n        /* \"#utility.yul\":134:139   */\n      dup2\n        /* \"#utility.yul\":107:140   */\n      tag_64\n      jump\t// in\n    tag_63:\n        /* \"#utility.yul\":59:146   */\n      swap3\n      swap2\n      pop\n      pop\n      jump\t// out\n        /* \"#utility.yul\":152:414   */\n    tag_15:\n        /* \"#utility.yul\":211:217   */\n      0x00\n        /* \"#utility.yul\":260:262   */\n      0x20\n        /* \"#utility.yul\":248:257   */\n      dup3\n        /* \"#utility.yul\":239:246   */\n      dup5\n        /* \"#utility.yul\":235:258   */\n      sub\n        /* \"#utility.yul\":231:263   */\n      slt\n        /* \"#utility.yul\":228:230   */\n      iszero\n      tag_66\n      jumpi\n        /* \"#utility.yul\":276:277   */\n      0x00\n        /* \"#utility.yul\":273:274   */\n      dup1\n        /* \"#utility.yul\":266:278   */\n      revert\n        /* \"#utility.yul\":228:230   */\n    tag_66:\n        /* \"#utility.yul\":319:320   */\n      0x00\n        /* \"#utility.yul\":344:397   */\n      tag_67\n        /* \"#utility.yul\":389:396   */\n      dup5\n        /* \"#utility.yul\":380:386   */\n      dup3\n        /* \"#utility.yul\":369:378   */\n      dup6\n        /* \"#utility.yul\":365:387   */\n      add\n        /* \"#utility.yul\":344:397   */\n      tag_61\n      jump\t// in\n    tag_67:\n        /* \"#utility.yul\":334:397   */\n      swap2\n      pop\n        /* \"#utility.yul\":290:407   */\n      pop\n        /* \"#utility.yul\":218:414   */\n      swap3\n      swap2\n      pop\n      pop\n      jump\t// out\n        /* \"#utility.yul\":420:538   */\n    tag_68:\n        /* \"#utility.yul\":507:531   */\n      tag_70\n        /* \"#utility.yul\":525:530   */\n      dup2\n        /* \"#utility.yul\":507:531   */\n      tag_71\n      jump\t// in\n    tag_70:\n        /* \"#utility.yul\":502:505   */\n      dup3\n        /* \"#utility.yul\":495:532   */\n      mstore\n        /* \"#utility.yul\":485:538   */\n      pop\n      pop\n      jump\t// out\n        /* \"#utility.yul\":544:910   */\n    tag_72:\n        /* \"#utility.yul\":686:689   */\n      0x00\n        /* \"#utility.yul\":707:774   */\n      tag_74\n        /* \"#utility.yul\":771:773   */\n      0x26\n        /* \"#utility.yul\":766:769   */\n      dup4\n        /* \"#utility.yul\":707:774   */\n      tag_75\n      jump\t// in\n    tag_74:\n        /* \"#utility.yul\":700:774   */\n      swap2\n      pop\n        /* \"#utility.yul\":783:876   */\n      tag_76\n        /* \"#utility.yul\":872:875   */\n      dup3\n        /* \"#utility.yul\":783:876   */\n      tag_77\n      jump\t// in\n    tag_76:\n        /* \"#utility.yul\":901:903   */\n      0x40\n        /* \"#utility.yul\":896:899   */\n      dup3\n        /* \"#utility.yul\":892:904   */\n      add\n        /* \"#utility.yul\":885:904   */\n      swap1\n      pop\n        /* \"#utility.yul\":690:910   */\n      swap2\n      swap1\n      pop\n      jump\t// out\n        /* \"#utility.yul\":916:1282   */\n    tag_78:\n        /* \"#utility.yul\":1058:1061   */\n      0x00\n        /* \"#utility.yul\":1079:1146   */\n      tag_80\n        /* \"#utility.yul\":1143:1145   */\n      0x20\n        /* \"#utility.yul\":1138:1141   */\n      dup4\n        /* \"#utility.yul\":1079:1146   */\n      tag_75\n      jump\t// in\n    tag_80:\n        /* \"#utility.yul\":1072:1146   */\n      swap2\n      pop\n        /* \"#utility.yul\":1155:1248   */\n      tag_81\n        /* \"#utility.yul\":1244:1247   */\n      dup3\n        /* \"#utility.yul\":1155:1248   */\n      tag_82\n      jump\t// in\n    tag_81:\n        /* \"#utility.yul\":1273:1275   */\n      0x20\n        /* \"#utility.yul\":1268:1271   */\n      dup3\n        /* \"#utility.yul\":1264:1276   */\n      add\n        /* \"#utility.yul\":1257:1276   */\n      swap1\n      pop\n        /* \"#utility.yul\":1062:1282   */\n      swap2\n      swap1\n      pop\n      jump\t// out\n        /* \"#utility.yul\":1288:1406   */\n    tag_83:\n        /* \"#utility.yul\":1375:1399   */\n      tag_85\n        /* \"#utility.yul\":1393:1398   */\n      dup2\n        /* \"#utility.yul\":1375:1399   */\n      tag_86\n      jump\t// in\n    tag_85:\n        /* \"#utility.yul\":1370:1373   */\n      dup3\n        /* \"#utility.yul\":1363:1400   */\n      mstore\n        /* \"#utility.yul\":1353:1406   */\n      pop\n      pop\n      jump\t// out\n        /* \"#utility.yul\":1412:1634   */\n    tag_24:\n        /* \"#utility.yul\":1505:1509   */\n      0x00\n        /* \"#utility.yul\":1543:1545   */\n      0x20\n        /* \"#utility.yul\":1532:1541   */\n      dup3\n        /* \"#utility.yul\":1528:1546   */\n      add\n        /* \"#utility.yul\":1520:1546   */\n      swap1\n      pop\n        /* \"#utility.yul\":1556:1627   */\n      tag_88\n        /* \"#utility.yul\":1624:1625   */\n      0x00\n        /* \"#utility.yul\":1613:1622   */\n      dup4\n        /* \"#utility.yul\":1609:1626   */\n      add\n        /* \"#utility.yul\":1600:1606   */\n      dup5\n        /* \"#utility.yul\":1556:1627   */\n      tag_68\n      jump\t// in\n    tag_88:\n        /* \"#utility.yul\":1510:1634   */\n      swap3\n      swap2\n      pop\n      pop\n      jump\t// out\n        /* \"#utility.yul\":1640:2059   */\n    tag_56:\n        /* \"#utility.yul\":1806:1810   */\n      0x00\n        /* \"#utility.yul\":1844:1846   */\n      0x20\n        /* \"#utility.yul\":1833:1842   */\n      dup3\n        /* \"#utility.yul\":1829:1847   */\n      add\n        /* \"#utility.yul\":1821:1847   */\n      swap1\n      pop\n        /* \"#utility.yul\":1893:1902   */\n      dup2\n        /* \"#utility.yul\":1887:1891   */\n      dup2\n        /* \"#utility.yul\":1883:1903   */\n      sub\n        /* \"#utility.yul\":1879:1880   */\n      0x00\n        /* \"#utility.yul\":1868:1877   */\n      dup4\n        /* \"#utility.yul\":1864:1881   */\n      add\n        /* \"#utility.yul\":1857:1904   */\n      mstore\n        /* \"#utility.yul\":1921:2052   */\n      tag_90\n        /* \"#utility.yul\":2047:2051   */\n      dup2\n        /* \"#utility.yul\":1921:2052   */\n      tag_72\n      jump\t// in\n    tag_90:\n        /* \"#utility.yul\":1913:2052   */\n      swap1\n      pop\n        /* \"#utility.yul\":1811:2059   */\n      swap2\n      swap1\n      pop\n      jump\t// out\n        /* \"#utility.yul\":2065:2484   */\n    tag_39:\n        /* \"#utility.yul\":2231:2235   */\n      0x00\n        /* \"#utility.yul\":2269:2271   */\n      0x20\n        /* \"#utility.yul\":2258:2267   */\n      dup3\n        /* \"#utility.yul\":2254:2272   */\n      add\n        /* \"#utility.yul\":2246:2272   */\n      swap1\n      pop\n        /* \"#utility.yul\":2318:2327   */\n      dup2\n        /* \"#utility.yul\":2312:2316   */\n      dup2\n        /* \"#utility.yul\":2308:2328   */\n      sub\n        /* \"#utility.yul\":2304:2305   */\n      0x00\n        /* \"#utility.yul\":2293:2302   */\n      dup4\n        /* \"#utility.yul\":2289:2306   */\n      add\n        /* \"#utility.yul\":2282:2329   */\n      mstore\n        /* \"#utility.yul\":2346:2477   */\n      tag_92\n        /* \"#utility.yul\":2472:2476   */\n      dup2\n        /* \"#utility.yul\":2346:2477   */\n      tag_78\n      jump\t// in\n    tag_92:\n        /* \"#utility.yul\":2338:2477   */\n      swap1\n      pop\n        /* \"#utility.yul\":2236:2484   */\n      swap2\n      swap1\n      pop\n      jump\t// out\n        /* \"#utility.yul\":2490:2712   */\n    tag_12:\n        /* \"#utility.yul\":2583:2587   */\n      0x00\n        /* \"#utility.yul\":2621:2623   */\n      0x20\n        /* \"#utility.yul\":2610:2619   */\n      dup3\n        /* \"#utility.yul\":2606:2624   */\n      add\n        /* \"#utility.yul\":2598:2624   */\n      swap1\n      pop\n        /* \"#utility.yul\":2634:2705   */\n      tag_94\n        /* \"#utility.yul\":2702:2703   */\n      0x00\n        /* \"#utility.yul\":2691:2700   */\n      dup4\n        /* \"#utility.yul\":2687:2704   */\n      add\n        /* \"#utility.yul\":2678:2684   */\n      dup5\n        /* \"#utility.yul\":2634:2705   */\n      tag_83\n      jump\t// in\n    tag_94:\n        /* \"#utility.yul\":2588:2712   */\n      swap3\n      swap2\n      pop\n      pop\n      jump\t// out\n        /* \"#utility.yul\":2718:2887   */\n    tag_75:\n        /* \"#utility.yul\":2802:2813   */\n      0x00\n        /* \"#utility.yul\":2836:2842   */\n      dup3\n        /* \"#utility.yul\":2831:2834   */\n      dup3\n        /* \"#utility.yul\":2824:2843   */\n      mstore\n        /* \"#utility.yul\":2876:2880   */\n      0x20\n        /* \"#utility.yul\":2871:2874   */\n      dup3\n        /* \"#utility.yul\":2867:2881   */\n      add\n        /* \"#utility.yul\":2852:2881   */\n      swap1\n      pop\n        /* \"#utility.yul\":2814:2887   */\n      swap3\n      swap2\n      pop\n      pop\n      jump\t// out\n        /* \"#utility.yul\":2893:2989   */\n    tag_71:\n        /* \"#utility.yul\":2930:2937   */\n      0x00\n        /* \"#utility.yul\":2959:2983   */\n      tag_97\n        /* \"#utility.yul\":2977:2982   */\n      dup3\n        /* \"#utility.yul\":2959:2983   */\n      tag_98\n      jump\t// in\n    tag_97:\n        /* \"#utility.yul\":2948:2983   */\n      swap1\n      pop\n        /* \"#utility.yul\":2938:2989   */\n      swap2\n      swap1\n      pop\n      jump\t// out\n        /* \"#utility.yul\":2995:3121   */\n    tag_98:\n        /* \"#utility.yul\":3032:3039   */\n      0x00\n        /* \"#utility.yul\":3072:3114   */\n      0xffffffffffffffffffffffffffffffffffffffff\n        /* \"#utility.yul\":3065:3070   */\n      dup3\n        /* \"#utility.yul\":3061:3115   */\n      and\n        /* \"#utility.yul\":3050:3115   */\n      swap1\n      pop\n        /* \"#utility.yul\":3040:3121   */\n      swap2\n      swap1\n      pop\n      jump\t// out\n        /* \"#utility.yul\":3127:3204   */\n    tag_86:\n        /* \"#utility.yul\":3164:3171   */\n      0x00\n        /* \"#utility.yul\":3193:3198   */\n      dup2\n        /* \"#utility.yul\":3182:3198   */\n      swap1\n      pop\n        /* \"#utility.yul\":3172:3204   */\n      swap2\n      swap1\n      pop\n      jump\t// out\n        /* \"#utility.yul\":3210:3435   */\n    tag_77:\n        /* \"#utility.yul\":3350:3384   */\n      0x4f776e61626c653a206e6577206f776e657220697320746865207a65726f2061\n        /* \"#utility.yul\":3346:3347   */\n      0x00\n        /* \"#utility.yul\":3338:3344   */\n      dup3\n        /* \"#utility.yul\":3334:3348   */\n      add\n        /* \"#utility.yul\":3327:3385   */\n      mstore\n        /* \"#utility.yul\":3419:3427   */\n      0x6464726573730000000000000000000000000000000000000000000000000000\n        /* \"#utility.yul\":3414:3416   */\n      0x20\n        /* \"#utility.yul\":3406:3412   */\n      dup3\n        /* \"#utility.yul\":3402:3417   */\n      add\n        /* \"#utility.yul\":3395:3428   */\n      mstore\n        /* \"#utility.yul\":3316:3435   */\n      pop\n      jump\t// out\n        /* \"#utility.yul\":3441:3623   */\n    tag_82:\n        /* \"#utility.yul\":3581:3615   */\n      0x4f776e61626c653a2063616c6c6572206973206e6f7420746865206f776e6572\n        /* \"#utility.yul\":3577:3578   */\n      0x00\n        /* \"#utility.yul\":3569:3575   */\n      dup3\n        /* \"#utility.yul\":3565:3579   */\n      add\n        /* \"#utility.yul\":3558:3616   */\n      mstore\n        /* \"#utility.yul\":3547:3623   */\n      pop\n      jump\t// out\n        /* \"#utility.yul\":3629:3751   */\n    tag_64:\n        /* \"#utility.yul\":3702:3726   */\n      tag_104\n        /* \"#utility.yul\":3720:3725   */\n      dup2\n        /* \"#utility.yul\":3702:3726   */\n      tag_71\n      jump\t// in\n    tag_104:\n        /* \"#utility.yul\":3695:3700   */\n      dup2\n        /* \"#utility.yul\":3692:3727   */\n      eq\n        /* \"#utility.yul\":3682:3684   */\n      tag_105\n      jumpi\n        /* \"#utility.yul\":3741:3742   */\n      0x00\n        /* \"#utility.yul\":3738:3739   */\n      dup1\n        /* \"#utility.yul\":3731:3743   */\n      revert\n        /* \"#utility.yul\":3682:3684   */\n    tag_105:\n        /* \"#utility.yul\":3672:3751   */\n      pop\n      jump\t// out\n\n    auxdata: 0xa26469706673582212209149c43824b859f7aedf273682501820b754937355784830754f131c957319ff64736f6c63430008040033\n}\n",
				"bytecode": {
					"linkReferences": {},
					"object": "608060405234801561001057600080fd5b5061002d61002261003260201b60201c565b61003a60201b60201c565b6100fe565b600033905090565b60008060009054906101000a900473ffffffffffffffffffffffffffffffffffffffff169050816000806101000a81548173ffffffffffffffffffffffffffffffffffffffff021916908373ffffffffffffffffffffffffffffffffffffffff1602179055508173ffffffffffffffffffffffffffffffffffffffff168173ffffffffffffffffffffffffffffffffffffffff167f8be0079c531659141344cd1fd0a4f28419497f9722a3daafe3b4186f6b6457e060405160405180910390a35050565b6106708061010d6000396000f3fe6080604052600436106100555760003560e01c806312065fe01461005a578063249013ba14610085578063715018a6146100a15780638da5cb5b146100b8578063bc73d346146100e3578063f2fde38b146100ed575b600080fd5b34801561006657600080fd5b5061006f610116565b60405161007c9190610543565b60405180910390f35b61009f600480360381019061009a919061045b565b61011e565b005b3480156100ad57600080fd5b506100b6610121565b005b3480156100c457600080fd5b506100cd6101a9565b6040516100da91906104e8565b60405180910390f35b6100eb6101d2565b005b3480156100f957600080fd5b50610114600480360381019061010f919061045b565b610282565b005b600047905090565b50565b61012961037a565b73ffffffffffffffffffffffffffffffffffffffff166101476101a9565b73ffffffffffffffffffffffffffffffffffffffff161461019d576040517f08c379a000000000000000000000000000000000000000000000000000000000815260040161019490610523565b60405180910390fd5b6101a76000610382565b565b60008060009054906101000a900473ffffffffffffffffffffffffffffffffffffffff16905090565b60006101dc6101a9565b90508073ffffffffffffffffffffffffffffffffffffffff166108fc479081150290604051600060405180830381858888f19350505050158015610224573d6000803e3d6000fd5b503073ffffffffffffffffffffffffffffffffffffffff168173ffffffffffffffffffffffffffffffffffffffff167f2418e839ad4c0f144bc60f490f1eb5b185b703ca1580f8ed903094988e66611660405160405180910390a350565b61028a61037a565b73ffffffffffffffffffffffffffffffffffffffff166102a86101a9565b73ffffffffffffffffffffffffffffffffffffffff16146102fe576040517f08c379a00000000000000000000000000000000000000000000000000000000081526004016102f590610523565b60405180910390fd5b600073ffffffffffffffffffffffffffffffffffffffff168173ffffffffffffffffffffffffffffffffffffffff16141561036e576040517f08c379a000000000000000000000000000000000000000000000000000000000815260040161036590610503565b60405180910390fd5b61037781610382565b50565b600033905090565b60008060009054906101000a900473ffffffffffffffffffffffffffffffffffffffff169050816000806101000a81548173ffffffffffffffffffffffffffffffffffffffff021916908373ffffffffffffffffffffffffffffffffffffffff1602179055508173ffffffffffffffffffffffffffffffffffffffff168173ffffffffffffffffffffffffffffffffffffffff167f8be0079c531659141344cd1fd0a4f28419497f9722a3daafe3b4186f6b6457e060405160405180910390a35050565b60008135905061045581610623565b92915050565b60006020828403121561046d57600080fd5b600061047b84828501610446565b91505092915050565b61048d8161056f565b82525050565b60006104a060268361055e565b91506104ab826105ab565b604082019050919050565b60006104c360208361055e565b91506104ce826105fa565b602082019050919050565b6104e2816105a1565b82525050565b60006020820190506104fd6000830184610484565b92915050565b6000602082019050818103600083015261051c81610493565b9050919050565b6000602082019050818103600083015261053c816104b6565b9050919050565b600060208201905061055860008301846104d9565b92915050565b600082825260208201905092915050565b600061057a82610581565b9050919050565b600073ffffffffffffffffffffffffffffffffffffffff82169050919050565b6000819050919050565b7f4f776e61626c653a206e6577206f776e657220697320746865207a65726f206160008201527f6464726573730000000000000000000000000000000000000000000000000000602082015250565b7f4f776e61626c653a2063616c6c6572206973206e6f7420746865206f776e6572600082015250565b61062c8161056f565b811461063757600080fd5b5056fea26469706673582212209149c43824b859f7aedf273682501820b754937355784830754f131c957319ff64736f6c63430008040033",
					"opcodes": "PUSH1 0x80 PUSH1 0x40 MSTORE CALLVALUE DUP1 ISZERO PUSH2 0x10 JUMPI PUSH1 0x0 DUP1 REVERT JUMPDEST POP PUSH2 0x2D PUSH2 0x22 PUSH2 0x32 PUSH1 0x20 SHL PUSH1 0x20 SHR JUMP JUMPDEST PUSH2 0x3A PUSH1 0x20 SHL PUSH1 0x20 SHR JUMP JUMPDEST PUSH2 0xFE JUMP JUMPDEST PUSH1 0x0 CALLER SWAP1 POP SWAP1 JUMP JUMPDEST PUSH1 0x0 DUP1 PUSH1 0x0 SWAP1 SLOAD SWAP1 PUSH2 0x100 EXP SWAP1 DIV PUSH20 0xFFFFFFFFFFFFFFFFFFFFFFFFFFFFFFFFFFFFFFFF AND SWAP1 POP DUP2 PUSH1 0x0 DUP1 PUSH2 0x100 EXP DUP2 SLOAD DUP2 PUSH20 0xFFFFFFFFFFFFFFFFFFFFFFFFFFFFFFFFFFFFFFFF MUL NOT AND SWAP1 DUP4 PUSH20 0xFFFFFFFFFFFFFFFFFFFFFFFFFFFFFFFFFFFFFFFF AND MUL OR SWAP1 SSTORE POP DUP2 PUSH20 0xFFFFFFFFFFFFFFFFFFFFFFFFFFFFFFFFFFFFFFFF AND DUP2 PUSH20 0xFFFFFFFFFFFFFFFFFFFFFFFFFFFFFFFFFFFFFFFF AND PUSH32 0x8BE0079C531659141344CD1FD0A4F28419497F9722A3DAAFE3B4186F6B6457E0 PUSH1 0x40 MLOAD PUSH1 0x40 MLOAD DUP1 SWAP2 SUB SWAP1 LOG3 POP POP JUMP JUMPDEST PUSH2 0x670 DUP1 PUSH2 0x10D PUSH1 0x0 CODECOPY PUSH1 0x0 RETURN INVALID PUSH1 0x80 PUSH1 0x40 MSTORE PUSH1 0x4 CALLDATASIZE LT PUSH2 0x55 JUMPI PUSH1 0x0 CALLDATALOAD PUSH1 0xE0 SHR DUP1 PUSH4 0x12065FE0 EQ PUSH2 0x5A JUMPI DUP1 PUSH4 0x249013BA EQ PUSH2 0x85 JUMPI DUP1 PUSH4 0x715018A6 EQ PUSH2 0xA1 JUMPI DUP1 PUSH4 0x8DA5CB5B EQ PUSH2 0xB8 JUMPI DUP1 PUSH4 0xBC73D346 EQ PUSH2 0xE3 JUMPI DUP1 PUSH4 0xF2FDE38B EQ PUSH2 0xED JUMPI JUMPDEST PUSH1 0x0 DUP1 REVERT JUMPDEST CALLVALUE DUP1 ISZERO PUSH2 0x66 JUMPI PUSH1 0x0 DUP1 REVERT JUMPDEST POP PUSH2 0x6F PUSH2 0x116 JUMP JUMPDEST PUSH1 0x40 MLOAD PUSH2 0x7C SWAP2 SWAP1 PUSH2 0x543 JUMP JUMPDEST PUSH1 0x40 MLOAD DUP1 SWAP2 SUB SWAP1 RETURN JUMPDEST PUSH2 0x9F PUSH1 0x4 DUP1 CALLDATASIZE SUB DUP2 ADD SWAP1 PUSH2 0x9A SWAP2 SWAP1 PUSH2 0x45B JUMP JUMPDEST PUSH2 0x11E JUMP JUMPDEST STOP JUMPDEST CALLVALUE DUP1 ISZERO PUSH2 0xAD JUMPI PUSH1 0x0 DUP1 REVERT JUMPDEST POP PUSH2 0xB6 PUSH2 0x121 JUMP JUMPDEST STOP JUMPDEST CALLVALUE DUP1 ISZERO PUSH2 0xC4 JUMPI PUSH1 0x0 DUP1 REVERT JUMPDEST POP PUSH2 0xCD PUSH2 0x1A9 JUMP JUMPDEST PUSH1 0x40 MLOAD PUSH2 0xDA SWAP2 SWAP1 PUSH2 0x4E8 JUMP JUMPDEST PUSH1 0x40 MLOAD DUP1 SWAP2 SUB SWAP1 RETURN JUMPDEST PUSH2 0xEB PUSH2 0x1D2 JUMP JUMPDEST STOP JUMPDEST CALLVALUE DUP1 ISZERO PUSH2 0xF9 JUMPI PUSH1 0x0 DUP1 REVERT JUMPDEST POP PUSH2 0x114 PUSH1 0x4 DUP1 CALLDATASIZE SUB DUP2 ADD SWAP1 PUSH2 0x10F SWAP2 SWAP1 PUSH2 0x45B JUMP JUMPDEST PUSH2 0x282 JUMP JUMPDEST STOP JUMPDEST PUSH1 0x0 SELFBALANCE SWAP1 POP SWAP1 JUMP JUMPDEST POP JUMP JUMPDEST PUSH2 0x129 PUSH2 0x37A JUMP JUMPDEST PUSH20 0xFFFFFFFFFFFFFFFFFFFFFFFFFFFFFFFFFFFFFFFF AND PUSH2 0x147 PUSH2 0x1A9 JUMP JUMPDEST PUSH20 0xFFFFFFFFFFFFFFFFFFFFFFFFFFFFFFFFFFFFFFFF AND EQ PUSH2 0x19D JUMPI PUSH1 0x40 MLOAD PUSH32 0x8C379A000000000000000000000000000000000000000000000000000000000 DUP2 MSTORE PUSH1 0x4 ADD PUSH2 0x194 SWAP1 PUSH2 0x523 JUMP JUMPDEST PUSH1 0x40 MLOAD DUP1 SWAP2 SUB SWAP1 REVERT JUMPDEST PUSH2 0x1A7 PUSH1 0x0 PUSH2 0x382 JUMP JUMPDEST JUMP JUMPDEST PUSH1 0x0 DUP1 PUSH1 0x0 SWAP1 SLOAD SWAP1 PUSH2 0x100 EXP SWAP1 DIV PUSH20 0xFFFFFFFFFFFFFFFFFFFFFFFFFFFFFFFFFFFFFFFF AND SWAP1 POP SWAP1 JUMP JUMPDEST PUSH1 0x0 PUSH2 0x1DC PUSH2 0x1A9 JUMP JUMPDEST SWAP1 POP DUP1 PUSH20 0xFFFFFFFFFFFFFFFFFFFFFFFFFFFFFFFFFFFFFFFF AND PUSH2 0x8FC SELFBALANCE SWAP1 DUP2 ISZERO MUL SWAP1 PUSH1 0x40 MLOAD PUSH1 0x0 PUSH1 0x40 MLOAD DUP1 DUP4 SUB DUP2 DUP6 DUP9 DUP9 CALL SWAP4 POP POP POP POP ISZERO DUP1 ISZERO PUSH2 0x224 JUMPI RETURNDATASIZE PUSH1 0x0 DUP1 RETURNDATACOPY RETURNDATASIZE PUSH1 0x0 REVERT JUMPDEST POP ADDRESS PUSH20 0xFFFFFFFFFFFFFFFFFFFFFFFFFFFFFFFFFFFFFFFF AND DUP2 PUSH20 0xFFFFFFFFFFFFFFFFFFFFFFFFFFFFFFFFFFFFFFFF AND PUSH32 0x2418E839AD4C0F144BC60F490F1EB5B185B703CA1580F8ED903094988E666116 PUSH1 0x40 MLOAD PUSH1 0x40 MLOAD DUP1 SWAP2 SUB SWAP1 LOG3 POP JUMP JUMPDEST PUSH2 0x28A PUSH2 0x37A JUMP JUMPDEST PUSH20 0xFFFFFFFFFFFFFFFFFFFFFFFFFFFFFFFFFFFFFFFF AND PUSH2 0x2A8 PUSH2 0x1A9 JUMP JUMPDEST PUSH20 0xFFFFFFFFFFFFFFFFFFFFFFFFFFFFFFFFFFFFFFFF AND EQ PUSH2 0x2FE JUMPI PUSH1 0x40 MLOAD PUSH32 0x8C379A000000000000000000000000000000000000000000000000000000000 DUP2 MSTORE PUSH1 0x4 ADD PUSH2 0x2F5 SWAP1 PUSH2 0x523 JUMP JUMPDEST PUSH1 0x40 MLOAD DUP1 SWAP2 SUB SWAP1 REVERT JUMPDEST PUSH1 0x0 PUSH20 0xFFFFFFFFFFFFFFFFFFFFFFFFFFFFFFFFFFFFFFFF AND DUP2 PUSH20 0xFFFFFFFFFFFFFFFFFFFFFFFFFFFFFFFFFFFFFFFF AND EQ ISZERO PUSH2 0x36E JUMPI PUSH1 0x40 MLOAD PUSH32 0x8C379A000000000000000000000000000000000000000000000000000000000 DUP2 MSTORE PUSH1 0x4 ADD PUSH2 0x365 SWAP1 PUSH2 0x503 JUMP JUMPDEST PUSH1 0x40 MLOAD DUP1 SWAP2 SUB SWAP1 REVERT JUMPDEST PUSH2 0x377 DUP2 PUSH2 0x382 JUMP JUMPDEST POP JUMP JUMPDEST PUSH1 0x0 CALLER SWAP1 POP SWAP1 JUMP JUMPDEST PUSH1 0x0 DUP1 PUSH1 0x0 SWAP1 SLOAD SWAP1 PUSH2 0x100 EXP SWAP1 DIV PUSH20 0xFFFFFFFFFFFFFFFFFFFFFFFFFFFFFFFFFFFFFFFF AND SWAP1 POP DUP2 PUSH1 0x0 DUP1 PUSH2 0x100 EXP DUP2 SLOAD DUP2 PUSH20 0xFFFFFFFFFFFFFFFFFFFFFFFFFFFFFFFFFFFFFFFF MUL NOT AND SWAP1 DUP4 PUSH20 0xFFFFFFFFFFFFFFFFFFFFFFFFFFFFFFFFFFFFFFFF AND MUL OR SWAP1 SSTORE POP DUP2 PUSH20 0xFFFFFFFFFFFFFFFFFFFFFFFFFFFFFFFFFFFFFFFF AND DUP2 PUSH20 0xFFFFFFFFFFFFFFFFFFFFFFFFFFFFFFFFFFFFFFFF AND PUSH32 0x8BE0079C531659141344CD1FD0A4F28419497F9722A3DAAFE3B4186F6B6457E0 PUSH1 0x40 MLOAD PUSH1 0x40 MLOAD DUP1 SWAP2 SUB SWAP1 LOG3 POP POP JUMP JUMPDEST PUSH1 0x0 DUP2 CALLDATALOAD SWAP1 POP PUSH2 0x455 DUP2 PUSH2 0x623 JUMP JUMPDEST SWAP3 SWAP2 POP POP JUMP JUMPDEST PUSH1 0x0 PUSH1 0x20 DUP3 DUP5 SUB SLT ISZERO PUSH2 0x46D JUMPI PUSH1 0x0 DUP1 REVERT JUMPDEST PUSH1 0x0 PUSH2 0x47B DUP5 DUP3 DUP6 ADD PUSH2 0x446 JUMP JUMPDEST SWAP2 POP POP SWAP3 SWAP2 POP POP JUMP JUMPDEST PUSH2 0x48D DUP2 PUSH2 0x56F JUMP JUMPDEST DUP3 MSTORE POP POP JUMP JUMPDEST PUSH1 0x0 PUSH2 0x4A0 PUSH1 0x26 DUP4 PUSH2 0x55E JUMP JUMPDEST SWAP2 POP PUSH2 0x4AB DUP3 PUSH2 0x5AB JUMP JUMPDEST PUSH1 0x40 DUP3 ADD SWAP1 POP SWAP2 SWAP1 POP JUMP JUMPDEST PUSH1 0x0 PUSH2 0x4C3 PUSH1 0x20 DUP4 PUSH2 0x55E JUMP JUMPDEST SWAP2 POP PUSH2 0x4CE DUP3 PUSH2 0x5FA JUMP JUMPDEST PUSH1 0x20 DUP3 ADD SWAP1 POP SWAP2 SWAP1 POP JUMP JUMPDEST PUSH2 0x4E2 DUP2 PUSH2 0x5A1 JUMP JUMPDEST DUP3 MSTORE POP POP JUMP JUMPDEST PUSH1 0x0 PUSH1 0x20 DUP3 ADD SWAP1 POP PUSH2 0x4FD PUSH1 0x0 DUP4 ADD DUP5 PUSH2 0x484 JUMP JUMPDEST SWAP3 SWAP2 POP POP JUMP JUMPDEST PUSH1 0x0 PUSH1 0x20 DUP3 ADD SWAP1 POP DUP2 DUP2 SUB PUSH1 0x0 DUP4 ADD MSTORE PUSH2 0x51C DUP2 PUSH2 0x493 JUMP JUMPDEST SWAP1 POP SWAP2 SWAP1 POP JUMP JUMPDEST PUSH1 0x0 PUSH1 0x20 DUP3 ADD SWAP1 POP DUP2 DUP2 SUB PUSH1 0x0 DUP4 ADD MSTORE PUSH2 0x53C DUP2 PUSH2 0x4B6 JUMP JUMPDEST SWAP1 POP SWAP2 SWAP1 POP JUMP JUMPDEST PUSH1 0x0 PUSH1 0x20 DUP3 ADD SWAP1 POP PUSH2 0x558 PUSH1 0x0 DUP4 ADD DUP5 PUSH2 0x4D9 JUMP JUMPDEST SWAP3 SWAP2 POP POP JUMP JUMPDEST PUSH1 0x0 DUP3 DUP3 MSTORE PUSH1 0x20 DUP3 ADD SWAP1 POP SWAP3 SWAP2 POP POP JUMP JUMPDEST PUSH1 0x0 PUSH2 0x57A DUP3 PUSH2 0x581 JUMP JUMPDEST SWAP1 POP SWAP2 SWAP1 POP JUMP JUMPDEST PUSH1 0x0 PUSH20 0xFFFFFFFFFFFFFFFFFFFFFFFFFFFFFFFFFFFFFFFF DUP3 AND SWAP1 POP SWAP2 SWAP1 POP JUMP JUMPDEST PUSH1 0x0 DUP2 SWAP1 POP SWAP2 SWAP1 POP JUMP JUMPDEST PUSH32 0x4F776E61626C653A206E6577206F776E657220697320746865207A65726F2061 PUSH1 0x0 DUP3 ADD MSTORE PUSH32 0x6464726573730000000000000000000000000000000000000000000000000000 PUSH1 0x20 DUP3 ADD MSTORE POP JUMP JUMPDEST PUSH32 0x4F776E61626C653A2063616C6C6572206973206E6F7420746865206F776E6572 PUSH1 0x0 DUP3 ADD MSTORE POP JUMP JUMPDEST PUSH2 0x62C DUP2 PUSH2 0x56F JUMP JUMPDEST DUP2 EQ PUSH2 0x637 JUMPI PUSH1 0x0 DUP1 REVERT JUMPDEST POP JUMP INVALID LOG2 PUSH5 0x6970667358 0x22 SLT KECCAK256 SWAP2 0x49 0xC4 CODESIZE 0x24 0xB8 MSIZE 0xF7 0xAE 0xDF 0x27 CALLDATASIZE DUP3 POP XOR KECCAK256 0xB7 SLOAD SWAP4 PUSH20 0x55784830754F131C957319FF64736F6C63430008 DIV STOP CALLER "
				},
				"gasEstimates": {
					"creation": {
						"codeDepositCost": "329600",
						"executionCost": "infinite",
						"totalCost": "infinite"
					},
					"external": {
						"EtherPay()": "infinite",
						"bnbPay(address)": "431",
						"getBalance()": "317",
						"owner()": "1266",
						"renounceOwnership()": "24396",
						"transferOwnership(address)": "24811"
					}
				},
				"methodIdentifiers": {
					"EtherPay()": "bc73d346",
					"bnbPay(address)": "249013ba",
					"getBalance()": "12065fe0",
					"owner()": "8da5cb5b",
					"renounceOwnership()": "715018a6",
					"transferOwnership(address)": "f2fde38b"
				}
			},
			"storageLayout": {
				"storage": [
					{
						"astId": 24,
						"contract": "contracts/Smart.sol:FifaClub",
						"label": "_owner",
						"offset": 0,
						"slot": "0",
						"type": "t_address"
					}
				],
				"types": {
					"t_address": {
						"encoding": "inplace",
						"label": "address",
						"numberOfBytes": "20"
					}
				}
			},
			"userdoc": {
				"kind": "user",
				"methods": {},
				"version": 1
			}
		}
	}
}